{
	"Practice/BankDepositeSystem.sol": {
		"Bank_Deposite_System": {
			"abi": [
				{
					"inputs": [
						{
							"internalType": "uint256",
							"name": "amount",
							"type": "uint256"
						}
					],
					"name": "Deposit",
					"outputs": [],
					"stateMutability": "nonpayable",
					"type": "function"
				},
				{
					"inputs": [
						{
							"internalType": "uint256",
							"name": "amount",
							"type": "uint256"
						}
					],
					"name": "Withdraw",
					"outputs": [],
					"stateMutability": "nonpayable",
					"type": "function"
				},
				{
					"inputs": [],
					"name": "getAllUsers",
					"outputs": [
						{
							"internalType": "address[]",
							"name": "",
							"type": "address[]"
						},
						{
							"internalType": "uint256[]",
							"name": "",
							"type": "uint256[]"
						}
					],
					"stateMutability": "view",
					"type": "function"
				}
			],
			"devdoc": {
				"kind": "dev",
				"methods": {},
				"version": 1
			},
			"evm": {
				"assembly": "    /* \"Practice/BankDepositeSystem.sol\":464:1419  contract Bank_Deposite_System {... */\n  mstore(0x40, 0x80)\n  callvalue\n  dup1\n  iszero\n  tag_1\n  jumpi\n  0x00\n  dup1\n  revert\ntag_1:\n  pop\n  dataSize(sub_0)\n  dup1\n  dataOffset(sub_0)\n  0x00\n  codecopy\n  0x00\n  return\nstop\n\nsub_0: assembly {\n        /* \"Practice/BankDepositeSystem.sol\":464:1419  contract Bank_Deposite_System {... */\n      mstore(0x40, 0x80)\n      callvalue\n      dup1\n      iszero\n      tag_1\n      jumpi\n      0x00\n      dup1\n      revert\n    tag_1:\n      pop\n      jumpi(tag_2, lt(calldatasize, 0x04))\n      shr(0xe0, calldataload(0x00))\n      dup1\n      0x4d6ce1e5\n      eq\n      tag_3\n      jumpi\n      dup1\n      0x5b6b431d\n      eq\n      tag_4\n      jumpi\n      dup1\n      0xe2842d79\n      eq\n      tag_5\n      jumpi\n    tag_2:\n      0x00\n      dup1\n      revert\n        /* \"Practice/BankDepositeSystem.sol\":602:879  function Deposit(uint amount) public {... */\n    tag_3:\n      tag_6\n      0x04\n      dup1\n      calldatasize\n      sub\n      dup2\n      add\n      swap1\n      tag_7\n      swap2\n      swap1\n      tag_8\n      jump\t// in\n    tag_7:\n      tag_9\n      jump\t// in\n    tag_6:\n      stop\n        /* \"Practice/BankDepositeSystem.sol\":885:1119  function Withdraw(uint amount) public {... */\n    tag_4:\n      tag_10\n      0x04\n      dup1\n      calldatasize\n      sub\n      dup2\n      add\n      swap1\n      tag_11\n      swap2\n      swap1\n      tag_8\n      jump\t// in\n    tag_11:\n      tag_12\n      jump\t// in\n    tag_10:\n      stop\n        /* \"Practice/BankDepositeSystem.sol\":1125:1417  function getAllUsers() public view returns (address[] memory, uint[] memory) {... */\n    tag_5:\n      tag_13\n      tag_14\n      jump\t// in\n    tag_13:\n      mload(0x40)\n      tag_15\n      swap3\n      swap2\n      swap1\n      tag_16\n      jump\t// in\n    tag_15:\n      mload(0x40)\n      dup1\n      swap2\n      sub\n      swap1\n      return\n        /* \"Practice/BankDepositeSystem.sol\":602:879  function Deposit(uint amount) public {... */\n    tag_9:\n        /* \"Practice/BankDepositeSystem.sol\":666:667  0 */\n      0x00\n        /* \"Practice/BankDepositeSystem.sol\":657:663  amount */\n      dup2\n        /* \"Practice/BankDepositeSystem.sol\":657:667  amount > 0 */\n      gt\n        /* \"Practice/BankDepositeSystem.sol\":649:703  require(amount > 0, \"amount should be greater than 0\") */\n      tag_18\n      jumpi\n      mload(0x40)\n      0x08c379a000000000000000000000000000000000000000000000000000000000\n      dup2\n      mstore\n      0x04\n      add\n      tag_19\n      swap1\n      tag_20\n      jump\t// in\n    tag_19:\n      mload(0x40)\n      dup1\n      swap2\n      sub\n      swap1\n      revert\n    tag_18:\n        /* \"Practice/BankDepositeSystem.sol\":736:742  amount */\n      dup1\n        /* \"Practice/BankDepositeSystem.sol\":713:720  balance */\n      0x00\n        /* \"Practice/BankDepositeSystem.sol\":713:732  balance[msg.sender] */\n      dup1\n        /* \"Practice/BankDepositeSystem.sol\":721:731  msg.sender */\n      caller\n        /* \"Practice/BankDepositeSystem.sol\":713:732  balance[msg.sender] */\n      0xffffffffffffffffffffffffffffffffffffffff\n      and\n      0xffffffffffffffffffffffffffffffffffffffff\n      and\n      dup2\n      mstore\n      0x20\n      add\n      swap1\n      dup2\n      mstore\n      0x20\n      add\n      0x00\n      keccak256\n      0x00\n        /* \"Practice/BankDepositeSystem.sol\":713:742  balance[msg.sender] += amount */\n      dup3\n      dup3\n      sload\n      tag_21\n      swap2\n      swap1\n      tag_22\n      jump\t// in\n    tag_21:\n      swap3\n      pop\n      pop\n      dup2\n      swap1\n      sstore\n      pop\n        /* \"Practice/BankDepositeSystem.sol\":757:768  isUserAdded */\n      0x02\n        /* \"Practice/BankDepositeSystem.sol\":757:780  isUserAdded[msg.sender] */\n      0x00\n        /* \"Practice/BankDepositeSystem.sol\":769:779  msg.sender */\n      caller\n        /* \"Practice/BankDepositeSystem.sol\":757:780  isUserAdded[msg.sender] */\n      0xffffffffffffffffffffffffffffffffffffffff\n      and\n      0xffffffffffffffffffffffffffffffffffffffff\n      and\n      dup2\n      mstore\n      0x20\n      add\n      swap1\n      dup2\n      mstore\n      0x20\n      add\n      0x00\n      keccak256\n      0x00\n      swap1\n      sload\n      swap1\n      0x0100\n      exp\n      swap1\n      div\n      0xff\n      and\n        /* \"Practice/BankDepositeSystem.sol\":752:873  if (!isUserAdded[msg.sender]) {... */\n      tag_23\n      jumpi\n        /* \"Practice/BankDepositeSystem.sol\":796:801  users */\n      0x01\n        /* \"Practice/BankDepositeSystem.sol\":807:817  msg.sender */\n      caller\n        /* \"Practice/BankDepositeSystem.sol\":796:818  users.push(msg.sender) */\n      swap1\n      dup1\n      0x01\n      dup2\n      sload\n      add\n      dup1\n      dup3\n      sstore\n      dup1\n      swap2\n      pop\n      pop\n      0x01\n      swap1\n      sub\n      swap1\n      0x00\n      mstore\n      keccak256(0x00, 0x20)\n      add\n      0x00\n      swap1\n      swap2\n      swap1\n      swap2\n      swap1\n      swap2\n      0x0100\n      exp\n      dup2\n      sload\n      dup2\n      0xffffffffffffffffffffffffffffffffffffffff\n      mul\n      not\n      and\n      swap1\n      dup4\n      0xffffffffffffffffffffffffffffffffffffffff\n      and\n      mul\n      or\n      swap1\n      sstore\n      pop\n        /* \"Practice/BankDepositeSystem.sol\":858:862  true */\n      0x01\n        /* \"Practice/BankDepositeSystem.sol\":832:843  isUserAdded */\n      0x02\n        /* \"Practice/BankDepositeSystem.sol\":832:855  isUserAdded[msg.sender] */\n      0x00\n        /* \"Practice/BankDepositeSystem.sol\":844:854  msg.sender */\n      caller\n        /* \"Practice/BankDepositeSystem.sol\":832:855  isUserAdded[msg.sender] */\n      0xffffffffffffffffffffffffffffffffffffffff\n      and\n      0xffffffffffffffffffffffffffffffffffffffff\n      and\n      dup2\n      mstore\n      0x20\n      add\n      swap1\n      dup2\n      mstore\n      0x20\n      add\n      0x00\n      keccak256\n      0x00\n        /* \"Practice/BankDepositeSystem.sol\":832:862  isUserAdded[msg.sender] = true */\n      0x0100\n      exp\n      dup2\n      sload\n      dup2\n      0xff\n      mul\n      not\n      and\n      swap1\n      dup4\n      iszero\n      iszero\n      mul\n      or\n      swap1\n      sstore\n      pop\n        /* \"Practice/BankDepositeSystem.sol\":752:873  if (!isUserAdded[msg.sender]) {... */\n    tag_23:\n        /* \"Practice/BankDepositeSystem.sol\":602:879  function Deposit(uint amount) public {... */\n      pop\n      jump\t// out\n        /* \"Practice/BankDepositeSystem.sol\":885:1119  function Withdraw(uint amount) public {... */\n    tag_12:\n        /* \"Practice/BankDepositeSystem.sol\":963:964  0 */\n      0x00\n        /* \"Practice/BankDepositeSystem.sol\":954:960  amount */\n      dup2\n        /* \"Practice/BankDepositeSystem.sol\":954:964  amount > 0 */\n      gt\n        /* \"Practice/BankDepositeSystem.sol\":954:996  amount > 0 && amount < balance[msg.sender] */\n      dup1\n      iszero\n      tag_26\n      jumpi\n      pop\n        /* \"Practice/BankDepositeSystem.sol\":977:984  balance */\n      0x00\n        /* \"Practice/BankDepositeSystem.sol\":977:996  balance[msg.sender] */\n      dup1\n        /* \"Practice/BankDepositeSystem.sol\":985:995  msg.sender */\n      caller\n        /* \"Practice/BankDepositeSystem.sol\":977:996  balance[msg.sender] */\n      0xffffffffffffffffffffffffffffffffffffffff\n      and\n      0xffffffffffffffffffffffffffffffffffffffff\n      and\n      dup2\n      mstore\n      0x20\n      add\n      swap1\n      dup2\n      mstore\n      0x20\n      add\n      0x00\n      keccak256\n      sload\n        /* \"Practice/BankDepositeSystem.sol\":968:974  amount */\n      dup2\n        /* \"Practice/BankDepositeSystem.sol\":968:996  amount < balance[msg.sender] */\n      lt\n        /* \"Practice/BankDepositeSystem.sol\":954:996  amount > 0 && amount < balance[msg.sender] */\n    tag_26:\n        /* \"Practice/BankDepositeSystem.sol\":933:1073  require(... */\n      tag_27\n      jumpi\n      mload(0x40)\n      0x08c379a000000000000000000000000000000000000000000000000000000000\n      dup2\n      mstore\n      0x04\n      add\n      tag_28\n      swap1\n      tag_29\n      jump\t// in\n    tag_28:\n      mload(0x40)\n      dup1\n      swap2\n      sub\n      swap1\n      revert\n    tag_27:\n        /* \"Practice/BankDepositeSystem.sol\":1106:1112  amount */\n      dup1\n        /* \"Practice/BankDepositeSystem.sol\":1083:1090  balance */\n      0x00\n        /* \"Practice/BankDepositeSystem.sol\":1083:1102  balance[msg.sender] */\n      dup1\n        /* \"Practice/BankDepositeSystem.sol\":1091:1101  msg.sender */\n      caller\n        /* \"Practice/BankDepositeSystem.sol\":1083:1102  balance[msg.sender] */\n      0xffffffffffffffffffffffffffffffffffffffff\n      and\n      0xffffffffffffffffffffffffffffffffffffffff\n      and\n      dup2\n      mstore\n      0x20\n      add\n      swap1\n      dup2\n      mstore\n      0x20\n      add\n      0x00\n      keccak256\n      0x00\n        /* \"Practice/BankDepositeSystem.sol\":1083:1112  balance[msg.sender] -= amount */\n      dup3\n      dup3\n      sload\n      tag_30\n      swap2\n      swap1\n      tag_31\n      jump\t// in\n    tag_30:\n      swap3\n      pop\n      pop\n      dup2\n      swap1\n      sstore\n      pop\n        /* \"Practice/BankDepositeSystem.sol\":885:1119  function Withdraw(uint amount) public {... */\n      pop\n      jump\t// out\n        /* \"Practice/BankDepositeSystem.sol\":1125:1417  function getAllUsers() public view returns (address[] memory, uint[] memory) {... */\n    tag_14:\n        /* \"Practice/BankDepositeSystem.sol\":1169:1185  address[] memory */\n      0x60\n        /* \"Practice/BankDepositeSystem.sol\":1187:1200  uint[] memory */\n      dup1\n        /* \"Practice/BankDepositeSystem.sol\":1212:1238  uint[] memory all_balances */\n      0x00\n        /* \"Practice/BankDepositeSystem.sol\":1250:1255  users */\n      0x01\n        /* \"Practice/BankDepositeSystem.sol\":1250:1262  users.length */\n      dup1\n      sload\n      swap1\n      pop\n        /* \"Practice/BankDepositeSystem.sol\":1239:1263  new uint[](users.length) */\n      0xffffffffffffffff\n      dup2\n      gt\n      iszero\n      tag_33\n      jumpi\n      mstore(0x00, 0x4e487b7100000000000000000000000000000000000000000000000000000000)\n      mstore(0x04, 0x41)\n      revert(0x00, 0x24)\n    tag_33:\n      mload(0x40)\n      swap1\n      dup1\n      dup3\n      mstore\n      dup1\n      0x20\n      mul\n      0x20\n      add\n      dup3\n      add\n      0x40\n      mstore\n      dup1\n      iszero\n      tag_34\n      jumpi\n      dup2\n      0x20\n      add\n      0x20\n      dup3\n      mul\n      dup1\n      calldatasize\n      dup4\n      calldatacopy\n      dup1\n      dup3\n      add\n      swap2\n      pop\n      pop\n      swap1\n      pop\n    tag_34:\n      pop\n        /* \"Practice/BankDepositeSystem.sol\":1212:1263  uint[] memory all_balances=new uint[](users.length) */\n      swap1\n      pop\n        /* \"Practice/BankDepositeSystem.sol\":1278:1284  uint i */\n      0x00\n        /* \"Practice/BankDepositeSystem.sol\":1273:1372  for (uint i = 0; i < users.length; i++) {... */\n    tag_35:\n        /* \"Practice/BankDepositeSystem.sol\":1294:1299  users */\n      0x01\n        /* \"Practice/BankDepositeSystem.sol\":1294:1306  users.length */\n      dup1\n      sload\n      swap1\n      pop\n        /* \"Practice/BankDepositeSystem.sol\":1290:1291  i */\n      dup2\n        /* \"Practice/BankDepositeSystem.sol\":1290:1306  i < users.length */\n      lt\n        /* \"Practice/BankDepositeSystem.sol\":1273:1372  for (uint i = 0; i < users.length; i++) {... */\n      iszero\n      tag_36\n      jumpi\n        /* \"Practice/BankDepositeSystem.sol\":1344:1351  balance */\n      0x00\n        /* \"Practice/BankDepositeSystem.sol\":1344:1361  balance[users[i]] */\n      dup1\n        /* \"Practice/BankDepositeSystem.sol\":1352:1357  users */\n      0x01\n        /* \"Practice/BankDepositeSystem.sol\":1358:1359  i */\n      dup4\n        /* \"Practice/BankDepositeSystem.sol\":1352:1360  users[i] */\n      dup2\n      sload\n      dup2\n      lt\n      tag_38\n      jumpi\n      mstore(0x00, 0x4e487b7100000000000000000000000000000000000000000000000000000000)\n      mstore(0x04, 0x32)\n      revert(0x00, 0x24)\n    tag_38:\n      swap1\n      0x00\n      mstore\n      keccak256(0x00, 0x20)\n      add\n      0x00\n      swap1\n      sload\n      swap1\n      0x0100\n      exp\n      swap1\n      div\n      0xffffffffffffffffffffffffffffffffffffffff\n      and\n        /* \"Practice/BankDepositeSystem.sol\":1344:1361  balance[users[i]] */\n      0xffffffffffffffffffffffffffffffffffffffff\n      and\n      0xffffffffffffffffffffffffffffffffffffffff\n      and\n      dup2\n      mstore\n      0x20\n      add\n      swap1\n      dup2\n      mstore\n      0x20\n      add\n      0x00\n      keccak256\n      sload\n        /* \"Practice/BankDepositeSystem.sol\":1327:1339  all_balances */\n      dup3\n        /* \"Practice/BankDepositeSystem.sol\":1340:1341  i */\n      dup3\n        /* \"Practice/BankDepositeSystem.sol\":1327:1342  all_balances[i] */\n      dup2\n      mload\n      dup2\n      lt\n      tag_40\n      jumpi\n      mstore(0x00, 0x4e487b7100000000000000000000000000000000000000000000000000000000)\n      mstore(0x04, 0x32)\n      revert(0x00, 0x24)\n    tag_40:\n      0x20\n      mul\n      0x20\n      add\n      add\n        /* \"Practice/BankDepositeSystem.sol\":1327:1361  all_balances[i]= balance[users[i]] */\n      dup2\n      dup2\n      mstore\n      pop\n      pop\n        /* \"Practice/BankDepositeSystem.sol\":1308:1311  i++ */\n      dup1\n      dup1\n      tag_41\n      swap1\n      tag_42\n      jump\t// in\n    tag_41:\n      swap2\n      pop\n      pop\n        /* \"Practice/BankDepositeSystem.sol\":1273:1372  for (uint i = 0; i < users.length; i++) {... */\n      jump(tag_35)\n    tag_36:\n      pop\n        /* \"Practice/BankDepositeSystem.sol\":1390:1395  users */\n      0x01\n        /* \"Practice/BankDepositeSystem.sol\":1397:1409  all_balances */\n      dup2\n        /* \"Practice/BankDepositeSystem.sol\":1382:1410  return (users, all_balances) */\n      dup2\n      dup1\n      sload\n      dup1\n      0x20\n      mul\n      0x20\n      add\n      mload(0x40)\n      swap1\n      dup2\n      add\n      0x40\n      mstore\n      dup1\n      swap3\n      swap2\n      swap1\n      dup2\n      dup2\n      mstore\n      0x20\n      add\n      dup3\n      dup1\n      sload\n      dup1\n      iszero\n      tag_43\n      jumpi\n      0x20\n      mul\n      dup3\n      add\n      swap2\n      swap1\n      0x00\n      mstore\n      keccak256(0x00, 0x20)\n      swap1\n    tag_44:\n      dup2\n      0x00\n      swap1\n      sload\n      swap1\n      0x0100\n      exp\n      swap1\n      div\n      0xffffffffffffffffffffffffffffffffffffffff\n      and\n      0xffffffffffffffffffffffffffffffffffffffff\n      and\n      dup2\n      mstore\n      0x20\n      add\n      swap1\n      0x01\n      add\n      swap1\n      dup1\n      dup4\n      gt\n      tag_44\n      jumpi\n    tag_43:\n      pop\n      pop\n      pop\n      pop\n      pop\n      swap2\n      pop\n      swap3\n      pop\n      swap3\n      pop\n      pop\n        /* \"Practice/BankDepositeSystem.sol\":1125:1417  function getAllUsers() public view returns (address[] memory, uint[] memory) {... */\n      swap1\n      swap2\n      jump\t// out\n        /* \"#utility.yul\":7:146   */\n    tag_46:\n      0x00\n        /* \"#utility.yul\":91:97   */\n      dup2\n        /* \"#utility.yul\":78:98   */\n      calldataload\n        /* \"#utility.yul\":69:98   */\n      swap1\n      pop\n        /* \"#utility.yul\":107:140   */\n      tag_48\n        /* \"#utility.yul\":134:139   */\n      dup2\n        /* \"#utility.yul\":107:140   */\n      tag_49\n      jump\t// in\n    tag_48:\n        /* \"#utility.yul\":59:146   */\n      swap3\n      swap2\n      pop\n      pop\n      jump\t// out\n        /* \"#utility.yul\":152:414   */\n    tag_8:\n      0x00\n        /* \"#utility.yul\":260:262   */\n      0x20\n        /* \"#utility.yul\":248:257   */\n      dup3\n        /* \"#utility.yul\":239:246   */\n      dup5\n        /* \"#utility.yul\":235:258   */\n      sub\n        /* \"#utility.yul\":231:263   */\n      slt\n        /* \"#utility.yul\":228:230   */\n      iszero\n      tag_51\n      jumpi\n        /* \"#utility.yul\":276:277   */\n      0x00\n        /* \"#utility.yul\":273:274   */\n      dup1\n        /* \"#utility.yul\":266:278   */\n      revert\n        /* \"#utility.yul\":228:230   */\n    tag_51:\n        /* \"#utility.yul\":319:320   */\n      0x00\n        /* \"#utility.yul\":344:397   */\n      tag_52\n        /* \"#utility.yul\":389:396   */\n      dup5\n        /* \"#utility.yul\":380:386   */\n      dup3\n        /* \"#utility.yul\":369:378   */\n      dup6\n        /* \"#utility.yul\":365:387   */\n      add\n        /* \"#utility.yul\":344:397   */\n      tag_46\n      jump\t// in\n    tag_52:\n        /* \"#utility.yul\":334:397   */\n      swap2\n      pop\n        /* \"#utility.yul\":290:407   */\n      pop\n        /* \"#utility.yul\":218:414   */\n      swap3\n      swap2\n      pop\n      pop\n      jump\t// out\n        /* \"#utility.yul\":420:599   */\n    tag_53:\n      0x00\n        /* \"#utility.yul\":510:556   */\n      tag_55\n        /* \"#utility.yul\":552:555   */\n      dup4\n        /* \"#utility.yul\":544:550   */\n      dup4\n        /* \"#utility.yul\":510:556   */\n      tag_56\n      jump\t// in\n    tag_55:\n        /* \"#utility.yul\":588:592   */\n      0x20\n        /* \"#utility.yul\":583:586   */\n      dup4\n        /* \"#utility.yul\":579:593   */\n      add\n        /* \"#utility.yul\":565:593   */\n      swap1\n      pop\n        /* \"#utility.yul\":500:599   */\n      swap3\n      swap2\n      pop\n      pop\n      jump\t// out\n        /* \"#utility.yul\":605:784   */\n    tag_57:\n      0x00\n        /* \"#utility.yul\":695:741   */\n      tag_59\n        /* \"#utility.yul\":737:740   */\n      dup4\n        /* \"#utility.yul\":729:735   */\n      dup4\n        /* \"#utility.yul\":695:741   */\n      tag_60\n      jump\t// in\n    tag_59:\n        /* \"#utility.yul\":773:777   */\n      0x20\n        /* \"#utility.yul\":768:771   */\n      dup4\n        /* \"#utility.yul\":764:778   */\n      add\n        /* \"#utility.yul\":750:778   */\n      swap1\n      pop\n        /* \"#utility.yul\":685:784   */\n      swap3\n      swap2\n      pop\n      pop\n      jump\t// out\n        /* \"#utility.yul\":790:898   */\n    tag_56:\n        /* \"#utility.yul\":867:891   */\n      tag_62\n        /* \"#utility.yul\":885:890   */\n      dup2\n        /* \"#utility.yul\":867:891   */\n      tag_63\n      jump\t// in\n    tag_62:\n        /* \"#utility.yul\":862:865   */\n      dup3\n        /* \"#utility.yul\":855:892   */\n      mstore\n        /* \"#utility.yul\":845:898   */\n      pop\n      pop\n      jump\t// out\n        /* \"#utility.yul\":934:1666   */\n    tag_64:\n      0x00\n        /* \"#utility.yul\":1082:1136   */\n      tag_66\n        /* \"#utility.yul\":1130:1135   */\n      dup3\n        /* \"#utility.yul\":1082:1136   */\n      tag_67\n      jump\t// in\n    tag_66:\n        /* \"#utility.yul\":1152:1238   */\n      tag_68\n        /* \"#utility.yul\":1231:1237   */\n      dup2\n        /* \"#utility.yul\":1226:1229   */\n      dup6\n        /* \"#utility.yul\":1152:1238   */\n      tag_69\n      jump\t// in\n    tag_68:\n        /* \"#utility.yul\":1145:1238   */\n      swap4\n      pop\n        /* \"#utility.yul\":1262:1318   */\n      tag_70\n        /* \"#utility.yul\":1312:1317   */\n      dup4\n        /* \"#utility.yul\":1262:1318   */\n      tag_71\n      jump\t// in\n    tag_70:\n        /* \"#utility.yul\":1341:1348   */\n      dup1\n        /* \"#utility.yul\":1372:1373   */\n      0x00\n        /* \"#utility.yul\":1357:1641   */\n    tag_72:\n        /* \"#utility.yul\":1382:1388   */\n      dup4\n        /* \"#utility.yul\":1379:1380   */\n      dup2\n        /* \"#utility.yul\":1376:1389   */\n      lt\n        /* \"#utility.yul\":1357:1641   */\n      iszero\n      tag_74\n      jumpi\n        /* \"#utility.yul\":1458:1464   */\n      dup2\n        /* \"#utility.yul\":1452:1465   */\n      mload\n        /* \"#utility.yul\":1485:1548   */\n      tag_75\n        /* \"#utility.yul\":1544:1547   */\n      dup9\n        /* \"#utility.yul\":1529:1542   */\n      dup3\n        /* \"#utility.yul\":1485:1548   */\n      tag_53\n      jump\t// in\n    tag_75:\n        /* \"#utility.yul\":1478:1548   */\n      swap8\n      pop\n        /* \"#utility.yul\":1571:1631   */\n      tag_76\n        /* \"#utility.yul\":1624:1630   */\n      dup4\n        /* \"#utility.yul\":1571:1631   */\n      tag_77\n      jump\t// in\n    tag_76:\n        /* \"#utility.yul\":1561:1631   */\n      swap3\n      pop\n        /* \"#utility.yul\":1417:1641   */\n      pop\n        /* \"#utility.yul\":1404:1405   */\n      0x01\n        /* \"#utility.yul\":1401:1402   */\n      dup2\n        /* \"#utility.yul\":1397:1406   */\n      add\n        /* \"#utility.yul\":1392:1406   */\n      swap1\n      pop\n        /* \"#utility.yul\":1357:1641   */\n      jump(tag_72)\n    tag_74:\n        /* \"#utility.yul\":1361:1375   */\n      pop\n        /* \"#utility.yul\":1657:1660   */\n      dup6\n        /* \"#utility.yul\":1650:1660   */\n      swap4\n      pop\n        /* \"#utility.yul\":1058:1666   */\n      pop\n      pop\n      pop\n      swap3\n      swap2\n      pop\n      pop\n      jump\t// out\n        /* \"#utility.yul\":1702:2434   */\n    tag_78:\n      0x00\n        /* \"#utility.yul\":1850:1904   */\n      tag_80\n        /* \"#utility.yul\":1898:1903   */\n      dup3\n        /* \"#utility.yul\":1850:1904   */\n      tag_81\n      jump\t// in\n    tag_80:\n        /* \"#utility.yul\":1920:2006   */\n      tag_82\n        /* \"#utility.yul\":1999:2005   */\n      dup2\n        /* \"#utility.yul\":1994:1997   */\n      dup6\n        /* \"#utility.yul\":1920:2006   */\n      tag_83\n      jump\t// in\n    tag_82:\n        /* \"#utility.yul\":1913:2006   */\n      swap4\n      pop\n        /* \"#utility.yul\":2030:2086   */\n      tag_84\n        /* \"#utility.yul\":2080:2085   */\n      dup4\n        /* \"#utility.yul\":2030:2086   */\n      tag_85\n      jump\t// in\n    tag_84:\n        /* \"#utility.yul\":2109:2116   */\n      dup1\n        /* \"#utility.yul\":2140:2141   */\n      0x00\n        /* \"#utility.yul\":2125:2409   */\n    tag_86:\n        /* \"#utility.yul\":2150:2156   */\n      dup4\n        /* \"#utility.yul\":2147:2148   */\n      dup2\n        /* \"#utility.yul\":2144:2157   */\n      lt\n        /* \"#utility.yul\":2125:2409   */\n      iszero\n      tag_88\n      jumpi\n        /* \"#utility.yul\":2226:2232   */\n      dup2\n        /* \"#utility.yul\":2220:2233   */\n      mload\n        /* \"#utility.yul\":2253:2316   */\n      tag_89\n        /* \"#utility.yul\":2312:2315   */\n      dup9\n        /* \"#utility.yul\":2297:2310   */\n      dup3\n        /* \"#utility.yul\":2253:2316   */\n      tag_57\n      jump\t// in\n    tag_89:\n        /* \"#utility.yul\":2246:2316   */\n      swap8\n      pop\n        /* \"#utility.yul\":2339:2399   */\n      tag_90\n        /* \"#utility.yul\":2392:2398   */\n      dup4\n        /* \"#utility.yul\":2339:2399   */\n      tag_91\n      jump\t// in\n    tag_90:\n        /* \"#utility.yul\":2329:2399   */\n      swap3\n      pop\n        /* \"#utility.yul\":2185:2409   */\n      pop\n        /* \"#utility.yul\":2172:2173   */\n      0x01\n        /* \"#utility.yul\":2169:2170   */\n      dup2\n        /* \"#utility.yul\":2165:2174   */\n      add\n        /* \"#utility.yul\":2160:2174   */\n      swap1\n      pop\n        /* \"#utility.yul\":2125:2409   */\n      jump(tag_86)\n    tag_88:\n        /* \"#utility.yul\":2129:2143   */\n      pop\n        /* \"#utility.yul\":2425:2428   */\n      dup6\n        /* \"#utility.yul\":2418:2428   */\n      swap4\n      pop\n        /* \"#utility.yul\":1826:2434   */\n      pop\n      pop\n      pop\n      swap3\n      swap2\n      pop\n      pop\n      jump\t// out\n        /* \"#utility.yul\":2440:2823   */\n    tag_92:\n      0x00\n        /* \"#utility.yul\":2603:2670   */\n      tag_94\n        /* \"#utility.yul\":2667:2669   */\n      0x33\n        /* \"#utility.yul\":2662:2665   */\n      dup4\n        /* \"#utility.yul\":2603:2670   */\n      tag_95\n      jump\t// in\n    tag_94:\n        /* \"#utility.yul\":2596:2670   */\n      swap2\n      pop\n        /* \"#utility.yul\":2700:2734   */\n      0x616d6f756e742073686f756c642062652067726561746572207468616e203020\n        /* \"#utility.yul\":2696:2697   */\n      0x00\n        /* \"#utility.yul\":2691:2694   */\n      dup4\n        /* \"#utility.yul\":2687:2698   */\n      add\n        /* \"#utility.yul\":2680:2735   */\n      mstore\n        /* \"#utility.yul\":2766:2787   */\n      0x616e64206d75737420626520696e2062616e6b00000000000000000000000000\n        /* \"#utility.yul\":2761:2763   */\n      0x20\n        /* \"#utility.yul\":2756:2759   */\n      dup4\n        /* \"#utility.yul\":2752:2764   */\n      add\n        /* \"#utility.yul\":2745:2788   */\n      mstore\n        /* \"#utility.yul\":2814:2816   */\n      0x40\n        /* \"#utility.yul\":2809:2812   */\n      dup3\n        /* \"#utility.yul\":2805:2817   */\n      add\n        /* \"#utility.yul\":2798:2817   */\n      swap1\n      pop\n        /* \"#utility.yul\":2586:2823   */\n      swap2\n      swap1\n      pop\n      jump\t// out\n        /* \"#utility.yul\":2829:3158   */\n    tag_96:\n      0x00\n        /* \"#utility.yul\":2992:3059   */\n      tag_98\n        /* \"#utility.yul\":3056:3058   */\n      0x1f\n        /* \"#utility.yul\":3051:3054   */\n      dup4\n        /* \"#utility.yul\":2992:3059   */\n      tag_95\n      jump\t// in\n    tag_98:\n        /* \"#utility.yul\":2985:3059   */\n      swap2\n      pop\n        /* \"#utility.yul\":3089:3122   */\n      0x616d6f756e742073686f756c642062652067726561746572207468616e203000\n        /* \"#utility.yul\":3085:3086   */\n      0x00\n        /* \"#utility.yul\":3080:3083   */\n      dup4\n        /* \"#utility.yul\":3076:3087   */\n      add\n        /* \"#utility.yul\":3069:3123   */\n      mstore\n        /* \"#utility.yul\":3149:3151   */\n      0x20\n        /* \"#utility.yul\":3144:3147   */\n      dup3\n        /* \"#utility.yul\":3140:3152   */\n      add\n        /* \"#utility.yul\":3133:3152   */\n      swap1\n      pop\n        /* \"#utility.yul\":2975:3158   */\n      swap2\n      swap1\n      pop\n      jump\t// out\n        /* \"#utility.yul\":3164:3272   */\n    tag_60:\n        /* \"#utility.yul\":3241:3265   */\n      tag_100\n        /* \"#utility.yul\":3259:3264   */\n      dup2\n        /* \"#utility.yul\":3241:3265   */\n      tag_101\n      jump\t// in\n    tag_100:\n        /* \"#utility.yul\":3236:3239   */\n      dup3\n        /* \"#utility.yul\":3229:3266   */\n      mstore\n        /* \"#utility.yul\":3219:3272   */\n      pop\n      pop\n      jump\t// out\n        /* \"#utility.yul\":3278:3912   */\n    tag_16:\n      0x00\n        /* \"#utility.yul\":3537:3539   */\n      0x40\n        /* \"#utility.yul\":3526:3535   */\n      dup3\n        /* \"#utility.yul\":3522:3540   */\n      add\n        /* \"#utility.yul\":3514:3540   */\n      swap1\n      pop\n        /* \"#utility.yul\":3586:3595   */\n      dup2\n        /* \"#utility.yul\":3580:3584   */\n      dup2\n        /* \"#utility.yul\":3576:3596   */\n      sub\n        /* \"#utility.yul\":3572:3573   */\n      0x00\n        /* \"#utility.yul\":3561:3570   */\n      dup4\n        /* \"#utility.yul\":3557:3574   */\n      add\n        /* \"#utility.yul\":3550:3597   */\n      mstore\n        /* \"#utility.yul\":3614:3722   */\n      tag_103\n        /* \"#utility.yul\":3717:3721   */\n      dup2\n        /* \"#utility.yul\":3708:3714   */\n      dup6\n        /* \"#utility.yul\":3614:3722   */\n      tag_64\n      jump\t// in\n    tag_103:\n        /* \"#utility.yul\":3606:3722   */\n      swap1\n      pop\n        /* \"#utility.yul\":3769:3778   */\n      dup2\n        /* \"#utility.yul\":3763:3767   */\n      dup2\n        /* \"#utility.yul\":3759:3779   */\n      sub\n        /* \"#utility.yul\":3754:3756   */\n      0x20\n        /* \"#utility.yul\":3743:3752   */\n      dup4\n        /* \"#utility.yul\":3739:3757   */\n      add\n        /* \"#utility.yul\":3732:3780   */\n      mstore\n        /* \"#utility.yul\":3797:3905   */\n      tag_104\n        /* \"#utility.yul\":3900:3904   */\n      dup2\n        /* \"#utility.yul\":3891:3897   */\n      dup5\n        /* \"#utility.yul\":3797:3905   */\n      tag_78\n      jump\t// in\n    tag_104:\n        /* \"#utility.yul\":3789:3905   */\n      swap1\n      pop\n        /* \"#utility.yul\":3504:3912   */\n      swap4\n      swap3\n      pop\n      pop\n      pop\n      jump\t// out\n        /* \"#utility.yul\":3918:4337   */\n    tag_29:\n      0x00\n        /* \"#utility.yul\":4122:4124   */\n      0x20\n        /* \"#utility.yul\":4111:4120   */\n      dup3\n        /* \"#utility.yul\":4107:4125   */\n      add\n        /* \"#utility.yul\":4099:4125   */\n      swap1\n      pop\n        /* \"#utility.yul\":4171:4180   */\n      dup2\n        /* \"#utility.yul\":4165:4169   */\n      dup2\n        /* \"#utility.yul\":4161:4181   */\n      sub\n        /* \"#utility.yul\":4157:4158   */\n      0x00\n        /* \"#utility.yul\":4146:4155   */\n      dup4\n        /* \"#utility.yul\":4142:4159   */\n      add\n        /* \"#utility.yul\":4135:4182   */\n      mstore\n        /* \"#utility.yul\":4199:4330   */\n      tag_106\n        /* \"#utility.yul\":4325:4329   */\n      dup2\n        /* \"#utility.yul\":4199:4330   */\n      tag_92\n      jump\t// in\n    tag_106:\n        /* \"#utility.yul\":4191:4330   */\n      swap1\n      pop\n        /* \"#utility.yul\":4089:4337   */\n      swap2\n      swap1\n      pop\n      jump\t// out\n        /* \"#utility.yul\":4343:4762   */\n    tag_20:\n      0x00\n        /* \"#utility.yul\":4547:4549   */\n      0x20\n        /* \"#utility.yul\":4536:4545   */\n      dup3\n        /* \"#utility.yul\":4532:4550   */\n      add\n        /* \"#utility.yul\":4524:4550   */\n      swap1\n      pop\n        /* \"#utility.yul\":4596:4605   */\n      dup2\n        /* \"#utility.yul\":4590:4594   */\n      dup2\n        /* \"#utility.yul\":4586:4606   */\n      sub\n        /* \"#utility.yul\":4582:4583   */\n      0x00\n        /* \"#utility.yul\":4571:4580   */\n      dup4\n        /* \"#utility.yul\":4567:4584   */\n      add\n        /* \"#utility.yul\":4560:4607   */\n      mstore\n        /* \"#utility.yul\":4624:4755   */\n      tag_108\n        /* \"#utility.yul\":4750:4754   */\n      dup2\n        /* \"#utility.yul\":4624:4755   */\n      tag_96\n      jump\t// in\n    tag_108:\n        /* \"#utility.yul\":4616:4755   */\n      swap1\n      pop\n        /* \"#utility.yul\":4514:4762   */\n      swap2\n      swap1\n      pop\n      jump\t// out\n        /* \"#utility.yul\":4768:4900   */\n    tag_71:\n      0x00\n        /* \"#utility.yul\":4858:4861   */\n      dup2\n        /* \"#utility.yul\":4850:4861   */\n      swap1\n      pop\n        /* \"#utility.yul\":4888:4892   */\n      0x20\n        /* \"#utility.yul\":4883:4886   */\n      dup3\n        /* \"#utility.yul\":4879:4893   */\n      add\n        /* \"#utility.yul\":4871:4893   */\n      swap1\n      pop\n        /* \"#utility.yul\":4840:4900   */\n      swap2\n      swap1\n      pop\n      jump\t// out\n        /* \"#utility.yul\":4906:5038   */\n    tag_85:\n      0x00\n        /* \"#utility.yul\":4996:4999   */\n      dup2\n        /* \"#utility.yul\":4988:4999   */\n      swap1\n      pop\n        /* \"#utility.yul\":5026:5030   */\n      0x20\n        /* \"#utility.yul\":5021:5024   */\n      dup3\n        /* \"#utility.yul\":5017:5031   */\n      add\n        /* \"#utility.yul\":5009:5031   */\n      swap1\n      pop\n        /* \"#utility.yul\":4978:5038   */\n      swap2\n      swap1\n      pop\n      jump\t// out\n        /* \"#utility.yul\":5044:5158   */\n    tag_67:\n      0x00\n        /* \"#utility.yul\":5145:5150   */\n      dup2\n        /* \"#utility.yul\":5139:5151   */\n      mload\n        /* \"#utility.yul\":5129:5151   */\n      swap1\n      pop\n        /* \"#utility.yul\":5118:5158   */\n      swap2\n      swap1\n      pop\n      jump\t// out\n        /* \"#utility.yul\":5164:5278   */\n    tag_81:\n      0x00\n        /* \"#utility.yul\":5265:5270   */\n      dup2\n        /* \"#utility.yul\":5259:5271   */\n      mload\n        /* \"#utility.yul\":5249:5271   */\n      swap1\n      pop\n        /* \"#utility.yul\":5238:5278   */\n      swap2\n      swap1\n      pop\n      jump\t// out\n        /* \"#utility.yul\":5284:5397   */\n    tag_77:\n      0x00\n        /* \"#utility.yul\":5386:5390   */\n      0x20\n        /* \"#utility.yul\":5381:5384   */\n      dup3\n        /* \"#utility.yul\":5377:5391   */\n      add\n        /* \"#utility.yul\":5369:5391   */\n      swap1\n      pop\n        /* \"#utility.yul\":5359:5397   */\n      swap2\n      swap1\n      pop\n      jump\t// out\n        /* \"#utility.yul\":5403:5516   */\n    tag_91:\n      0x00\n        /* \"#utility.yul\":5505:5509   */\n      0x20\n        /* \"#utility.yul\":5500:5503   */\n      dup3\n        /* \"#utility.yul\":5496:5510   */\n      add\n        /* \"#utility.yul\":5488:5510   */\n      swap1\n      pop\n        /* \"#utility.yul\":5478:5516   */\n      swap2\n      swap1\n      pop\n      jump\t// out\n        /* \"#utility.yul\":5522:5706   */\n    tag_69:\n      0x00\n        /* \"#utility.yul\":5655:5661   */\n      dup3\n        /* \"#utility.yul\":5650:5653   */\n      dup3\n        /* \"#utility.yul\":5643:5662   */\n      mstore\n        /* \"#utility.yul\":5695:5699   */\n      0x20\n        /* \"#utility.yul\":5690:5693   */\n      dup3\n        /* \"#utility.yul\":5686:5700   */\n      add\n        /* \"#utility.yul\":5671:5700   */\n      swap1\n      pop\n        /* \"#utility.yul\":5633:5706   */\n      swap3\n      swap2\n      pop\n      pop\n      jump\t// out\n        /* \"#utility.yul\":5712:5896   */\n    tag_83:\n      0x00\n        /* \"#utility.yul\":5845:5851   */\n      dup3\n        /* \"#utility.yul\":5840:5843   */\n      dup3\n        /* \"#utility.yul\":5833:5852   */\n      mstore\n        /* \"#utility.yul\":5885:5889   */\n      0x20\n        /* \"#utility.yul\":5880:5883   */\n      dup3\n        /* \"#utility.yul\":5876:5890   */\n      add\n        /* \"#utility.yul\":5861:5890   */\n      swap1\n      pop\n        /* \"#utility.yul\":5823:5896   */\n      swap3\n      swap2\n      pop\n      pop\n      jump\t// out\n        /* \"#utility.yul\":5902:6071   */\n    tag_95:\n      0x00\n        /* \"#utility.yul\":6020:6026   */\n      dup3\n        /* \"#utility.yul\":6015:6018   */\n      dup3\n        /* \"#utility.yul\":6008:6027   */\n      mstore\n        /* \"#utility.yul\":6060:6064   */\n      0x20\n        /* \"#utility.yul\":6055:6058   */\n      dup3\n        /* \"#utility.yul\":6051:6065   */\n      add\n        /* \"#utility.yul\":6036:6065   */\n      swap1\n      pop\n        /* \"#utility.yul\":5998:6071   */\n      swap3\n      swap2\n      pop\n      pop\n      jump\t// out\n        /* \"#utility.yul\":6077:6382   */\n    tag_22:\n      0x00\n        /* \"#utility.yul\":6136:6156   */\n      tag_119\n        /* \"#utility.yul\":6154:6155   */\n      dup3\n        /* \"#utility.yul\":6136:6156   */\n      tag_101\n      jump\t// in\n    tag_119:\n        /* \"#utility.yul\":6131:6156   */\n      swap2\n      pop\n        /* \"#utility.yul\":6170:6190   */\n      tag_120\n        /* \"#utility.yul\":6188:6189   */\n      dup4\n        /* \"#utility.yul\":6170:6190   */\n      tag_101\n      jump\t// in\n    tag_120:\n        /* \"#utility.yul\":6165:6190   */\n      swap3\n      pop\n        /* \"#utility.yul\":6324:6325   */\n      dup3\n        /* \"#utility.yul\":6256:6322   */\n      0xffffffffffffffffffffffffffffffffffffffffffffffffffffffffffffffff\n        /* \"#utility.yul\":6252:6326   */\n      sub\n        /* \"#utility.yul\":6249:6250   */\n      dup3\n        /* \"#utility.yul\":6246:6327   */\n      gt\n        /* \"#utility.yul\":6243:6245   */\n      iszero\n      tag_121\n      jumpi\n        /* \"#utility.yul\":6330:6348   */\n      tag_122\n      tag_123\n      jump\t// in\n    tag_122:\n        /* \"#utility.yul\":6243:6245   */\n    tag_121:\n        /* \"#utility.yul\":6374:6375   */\n      dup3\n        /* \"#utility.yul\":6371:6372   */\n      dup3\n        /* \"#utility.yul\":6367:6376   */\n      add\n        /* \"#utility.yul\":6360:6376   */\n      swap1\n      pop\n        /* \"#utility.yul\":6121:6382   */\n      swap3\n      swap2\n      pop\n      pop\n      jump\t// out\n        /* \"#utility.yul\":6388:6579   */\n    tag_31:\n      0x00\n        /* \"#utility.yul\":6448:6468   */\n      tag_125\n        /* \"#utility.yul\":6466:6467   */\n      dup3\n        /* \"#utility.yul\":6448:6468   */\n      tag_101\n      jump\t// in\n    tag_125:\n        /* \"#utility.yul\":6443:6468   */\n      swap2\n      pop\n        /* \"#utility.yul\":6482:6502   */\n      tag_126\n        /* \"#utility.yul\":6500:6501   */\n      dup4\n        /* \"#utility.yul\":6482:6502   */\n      tag_101\n      jump\t// in\n    tag_126:\n        /* \"#utility.yul\":6477:6502   */\n      swap3\n      pop\n        /* \"#utility.yul\":6521:6522   */\n      dup3\n        /* \"#utility.yul\":6518:6519   */\n      dup3\n        /* \"#utility.yul\":6515:6523   */\n      lt\n        /* \"#utility.yul\":6512:6514   */\n      iszero\n      tag_127\n      jumpi\n        /* \"#utility.yul\":6526:6544   */\n      tag_128\n      tag_123\n      jump\t// in\n    tag_128:\n        /* \"#utility.yul\":6512:6514   */\n    tag_127:\n        /* \"#utility.yul\":6571:6572   */\n      dup3\n        /* \"#utility.yul\":6568:6569   */\n      dup3\n        /* \"#utility.yul\":6564:6573   */\n      sub\n        /* \"#utility.yul\":6556:6573   */\n      swap1\n      pop\n        /* \"#utility.yul\":6433:6579   */\n      swap3\n      swap2\n      pop\n      pop\n      jump\t// out\n        /* \"#utility.yul\":6585:6681   */\n    tag_63:\n      0x00\n        /* \"#utility.yul\":6651:6675   */\n      tag_130\n        /* \"#utility.yul\":6669:6674   */\n      dup3\n        /* \"#utility.yul\":6651:6675   */\n      tag_131\n      jump\t// in\n    tag_130:\n        /* \"#utility.yul\":6640:6675   */\n      swap1\n      pop\n        /* \"#utility.yul\":6630:6681   */\n      swap2\n      swap1\n      pop\n      jump\t// out\n        /* \"#utility.yul\":6687:6813   */\n    tag_131:\n      0x00\n        /* \"#utility.yul\":6764:6806   */\n      0xffffffffffffffffffffffffffffffffffffffff\n        /* \"#utility.yul\":6757:6762   */\n      dup3\n        /* \"#utility.yul\":6753:6807   */\n      and\n        /* \"#utility.yul\":6742:6807   */\n      swap1\n      pop\n        /* \"#utility.yul\":6732:6813   */\n      swap2\n      swap1\n      pop\n      jump\t// out\n        /* \"#utility.yul\":6819:6896   */\n    tag_101:\n      0x00\n        /* \"#utility.yul\":6885:6890   */\n      dup2\n        /* \"#utility.yul\":6874:6890   */\n      swap1\n      pop\n        /* \"#utility.yul\":6864:6896   */\n      swap2\n      swap1\n      pop\n      jump\t// out\n        /* \"#utility.yul\":6902:7135   */\n    tag_42:\n      0x00\n        /* \"#utility.yul\":6964:6988   */\n      tag_135\n        /* \"#utility.yul\":6982:6987   */\n      dup3\n        /* \"#utility.yul\":6964:6988   */\n      tag_101\n      jump\t// in\n    tag_135:\n        /* \"#utility.yul\":6955:6988   */\n      swap2\n      pop\n        /* \"#utility.yul\":7010:7076   */\n      0xffffffffffffffffffffffffffffffffffffffffffffffffffffffffffffffff\n        /* \"#utility.yul\":7003:7008   */\n      dup3\n        /* \"#utility.yul\":7000:7077   */\n      eq\n        /* \"#utility.yul\":6997:6999   */\n      iszero\n      tag_136\n      jumpi\n        /* \"#utility.yul\":7080:7098   */\n      tag_137\n      tag_123\n      jump\t// in\n    tag_137:\n        /* \"#utility.yul\":6997:6999   */\n    tag_136:\n        /* \"#utility.yul\":7127:7128   */\n      0x01\n        /* \"#utility.yul\":7120:7125   */\n      dup3\n        /* \"#utility.yul\":7116:7129   */\n      add\n        /* \"#utility.yul\":7109:7129   */\n      swap1\n      pop\n        /* \"#utility.yul\":6945:7135   */\n      swap2\n      swap1\n      pop\n      jump\t// out\n        /* \"#utility.yul\":7141:7321   */\n    tag_123:\n        /* \"#utility.yul\":7189:7266   */\n      0x4e487b7100000000000000000000000000000000000000000000000000000000\n        /* \"#utility.yul\":7186:7187   */\n      0x00\n        /* \"#utility.yul\":7179:7267   */\n      mstore\n        /* \"#utility.yul\":7286:7290   */\n      0x11\n        /* \"#utility.yul\":7283:7284   */\n      0x04\n        /* \"#utility.yul\":7276:7291   */\n      mstore\n        /* \"#utility.yul\":7310:7314   */\n      0x24\n        /* \"#utility.yul\":7307:7308   */\n      0x00\n        /* \"#utility.yul\":7300:7315   */\n      revert\n        /* \"#utility.yul\":7327:7449   */\n    tag_49:\n        /* \"#utility.yul\":7400:7424   */\n      tag_140\n        /* \"#utility.yul\":7418:7423   */\n      dup2\n        /* \"#utility.yul\":7400:7424   */\n      tag_101\n      jump\t// in\n    tag_140:\n        /* \"#utility.yul\":7393:7398   */\n      dup2\n        /* \"#utility.yul\":7390:7425   */\n      eq\n        /* \"#utility.yul\":7380:7382   */\n      tag_141\n      jumpi\n        /* \"#utility.yul\":7439:7440   */\n      0x00\n        /* \"#utility.yul\":7436:7437   */\n      dup1\n        /* \"#utility.yul\":7429:7441   */\n      revert\n        /* \"#utility.yul\":7380:7382   */\n    tag_141:\n        /* \"#utility.yul\":7370:7449   */\n      pop\n      jump\t// out\n\n    auxdata: 0xa26469706673582212205192962e0361c5511d7a73c9e7ddb227bdb94d2bcd0b9225624b5b565548891364736f6c63430008000033\n}\n",
				"bytecode": {
					"linkReferences": {},
					"object": "608060405234801561001057600080fd5b506109b7806100206000396000f3fe608060405234801561001057600080fd5b50600436106100415760003560e01c80634d6ce1e5146100465780635b6b431d14610062578063e2842d791461007e575b600080fd5b610060600480360381019061005b9190610559565b61009d565b005b61007c60048036038101906100779190610559565b610245565b005b610086610329565b604051610094929190610732565b60405180910390f35b600081116100e0576040517f08c379a00000000000000000000000000000000000000000000000000000000081526004016100d790610789565b60405180910390fd5b806000803373ffffffffffffffffffffffffffffffffffffffff1673ffffffffffffffffffffffffffffffffffffffff168152602001908152602001600020600082825461012e919061082c565b92505081905550600260003373ffffffffffffffffffffffffffffffffffffffff1673ffffffffffffffffffffffffffffffffffffffff16815260200190815260200160002060009054906101000a900460ff16610242576001339080600181540180825580915050600190039060005260206000200160009091909190916101000a81548173ffffffffffffffffffffffffffffffffffffffff021916908373ffffffffffffffffffffffffffffffffffffffff1602179055506001600260003373ffffffffffffffffffffffffffffffffffffffff1673ffffffffffffffffffffffffffffffffffffffff16815260200190815260200160002060006101000a81548160ff0219169083151502179055505b50565b60008111801561029257506000803373ffffffffffffffffffffffffffffffffffffffff1673ffffffffffffffffffffffffffffffffffffffff1681526020019081526020016000205481105b6102d1576040517f08c379a00000000000000000000000000000000000000000000000000000000081526004016102c890610769565b60405180910390fd5b806000803373ffffffffffffffffffffffffffffffffffffffff1673ffffffffffffffffffffffffffffffffffffffff168152602001908152602001600020600082825461031f9190610882565b9250508190555050565b606080600060018054905067ffffffffffffffff811115610373577f4e487b7100000000000000000000000000000000000000000000000000000000600052604160045260246000fd5b6040519080825280602002602001820160405280156103a15781602001602082028036833780820191505090505b50905060005b6001805490508110156104af57600080600183815481106103f1577f4e487b7100000000000000000000000000000000000000000000000000000000600052603260045260246000fd5b9060005260206000200160009054906101000a900473ffffffffffffffffffffffffffffffffffffffff1673ffffffffffffffffffffffffffffffffffffffff1673ffffffffffffffffffffffffffffffffffffffff16815260200190815260200160002054828281518110610490577f4e487b7100000000000000000000000000000000000000000000000000000000600052603260045260246000fd5b60200260200101818152505080806104a7906108f2565b9150506103a7565b506001818180548060200260200160405190810160405280929190818152602001828054801561053457602002820191906000526020600020905b8160009054906101000a900473ffffffffffffffffffffffffffffffffffffffff1673ffffffffffffffffffffffffffffffffffffffff16815260200190600101908083116104ea575b5050505050915092509250509091565b6000813590506105538161096a565b92915050565b60006020828403121561056b57600080fd5b600061057984828501610544565b91505092915050565b600061058e83836105b2565b60208301905092915050565b60006105a68383610723565b60208301905092915050565b6105bb816108b6565b82525050565b60006105cc826107c9565b6105d681856107f9565b93506105e1836107a9565b8060005b838110156106125781516105f98882610582565b9750610604836107df565b9250506001810190506105e5565b5085935050505092915050565b600061062a826107d4565b610634818561080a565b935061063f836107b9565b8060005b83811015610670578151610657888261059a565b9750610662836107ec565b925050600181019050610643565b5085935050505092915050565b600061068a60338361081b565b91507f616d6f756e742073686f756c642062652067726561746572207468616e20302060008301527f616e64206d75737420626520696e2062616e6b000000000000000000000000006020830152604082019050919050565b60006106f0601f8361081b565b91507f616d6f756e742073686f756c642062652067726561746572207468616e2030006000830152602082019050919050565b61072c816108e8565b82525050565b6000604082019050818103600083015261074c81856105c1565b90508181036020830152610760818461061f565b90509392505050565b600060208201905081810360008301526107828161067d565b9050919050565b600060208201905081810360008301526107a2816106e3565b9050919050565b6000819050602082019050919050565b6000819050602082019050919050565b600081519050919050565b600081519050919050565b6000602082019050919050565b6000602082019050919050565b600082825260208201905092915050565b600082825260208201905092915050565b600082825260208201905092915050565b6000610837826108e8565b9150610842836108e8565b9250827fffffffffffffffffffffffffffffffffffffffffffffffffffffffffffffffff038211156108775761087661093b565b5b828201905092915050565b600061088d826108e8565b9150610898836108e8565b9250828210156108ab576108aa61093b565b5b828203905092915050565b60006108c1826108c8565b9050919050565b600073ffffffffffffffffffffffffffffffffffffffff82169050919050565b6000819050919050565b60006108fd826108e8565b91507fffffffffffffffffffffffffffffffffffffffffffffffffffffffffffffffff8214156109305761092f61093b565b5b600182019050919050565b7f4e487b7100000000000000000000000000000000000000000000000000000000600052601160045260246000fd5b610973816108e8565b811461097e57600080fd5b5056fea26469706673582212205192962e0361c5511d7a73c9e7ddb227bdb94d2bcd0b9225624b5b565548891364736f6c63430008000033",
					"opcodes": "PUSH1 0x80 PUSH1 0x40 MSTORE CALLVALUE DUP1 ISZERO PUSH2 0x10 JUMPI PUSH1 0x0 DUP1 REVERT JUMPDEST POP PUSH2 0x9B7 DUP1 PUSH2 0x20 PUSH1 0x0 CODECOPY PUSH1 0x0 RETURN INVALID PUSH1 0x80 PUSH1 0x40 MSTORE CALLVALUE DUP1 ISZERO PUSH2 0x10 JUMPI PUSH1 0x0 DUP1 REVERT JUMPDEST POP PUSH1 0x4 CALLDATASIZE LT PUSH2 0x41 JUMPI PUSH1 0x0 CALLDATALOAD PUSH1 0xE0 SHR DUP1 PUSH4 0x4D6CE1E5 EQ PUSH2 0x46 JUMPI DUP1 PUSH4 0x5B6B431D EQ PUSH2 0x62 JUMPI DUP1 PUSH4 0xE2842D79 EQ PUSH2 0x7E JUMPI JUMPDEST PUSH1 0x0 DUP1 REVERT JUMPDEST PUSH2 0x60 PUSH1 0x4 DUP1 CALLDATASIZE SUB DUP2 ADD SWAP1 PUSH2 0x5B SWAP2 SWAP1 PUSH2 0x559 JUMP JUMPDEST PUSH2 0x9D JUMP JUMPDEST STOP JUMPDEST PUSH2 0x7C PUSH1 0x4 DUP1 CALLDATASIZE SUB DUP2 ADD SWAP1 PUSH2 0x77 SWAP2 SWAP1 PUSH2 0x559 JUMP JUMPDEST PUSH2 0x245 JUMP JUMPDEST STOP JUMPDEST PUSH2 0x86 PUSH2 0x329 JUMP JUMPDEST PUSH1 0x40 MLOAD PUSH2 0x94 SWAP3 SWAP2 SWAP1 PUSH2 0x732 JUMP JUMPDEST PUSH1 0x40 MLOAD DUP1 SWAP2 SUB SWAP1 RETURN JUMPDEST PUSH1 0x0 DUP2 GT PUSH2 0xE0 JUMPI PUSH1 0x40 MLOAD PUSH32 0x8C379A000000000000000000000000000000000000000000000000000000000 DUP2 MSTORE PUSH1 0x4 ADD PUSH2 0xD7 SWAP1 PUSH2 0x789 JUMP JUMPDEST PUSH1 0x40 MLOAD DUP1 SWAP2 SUB SWAP1 REVERT JUMPDEST DUP1 PUSH1 0x0 DUP1 CALLER PUSH20 0xFFFFFFFFFFFFFFFFFFFFFFFFFFFFFFFFFFFFFFFF AND PUSH20 0xFFFFFFFFFFFFFFFFFFFFFFFFFFFFFFFFFFFFFFFF AND DUP2 MSTORE PUSH1 0x20 ADD SWAP1 DUP2 MSTORE PUSH1 0x20 ADD PUSH1 0x0 KECCAK256 PUSH1 0x0 DUP3 DUP3 SLOAD PUSH2 0x12E SWAP2 SWAP1 PUSH2 0x82C JUMP JUMPDEST SWAP3 POP POP DUP2 SWAP1 SSTORE POP PUSH1 0x2 PUSH1 0x0 CALLER PUSH20 0xFFFFFFFFFFFFFFFFFFFFFFFFFFFFFFFFFFFFFFFF AND PUSH20 0xFFFFFFFFFFFFFFFFFFFFFFFFFFFFFFFFFFFFFFFF AND DUP2 MSTORE PUSH1 0x20 ADD SWAP1 DUP2 MSTORE PUSH1 0x20 ADD PUSH1 0x0 KECCAK256 PUSH1 0x0 SWAP1 SLOAD SWAP1 PUSH2 0x100 EXP SWAP1 DIV PUSH1 0xFF AND PUSH2 0x242 JUMPI PUSH1 0x1 CALLER SWAP1 DUP1 PUSH1 0x1 DUP2 SLOAD ADD DUP1 DUP3 SSTORE DUP1 SWAP2 POP POP PUSH1 0x1 SWAP1 SUB SWAP1 PUSH1 0x0 MSTORE PUSH1 0x20 PUSH1 0x0 KECCAK256 ADD PUSH1 0x0 SWAP1 SWAP2 SWAP1 SWAP2 SWAP1 SWAP2 PUSH2 0x100 EXP DUP2 SLOAD DUP2 PUSH20 0xFFFFFFFFFFFFFFFFFFFFFFFFFFFFFFFFFFFFFFFF MUL NOT AND SWAP1 DUP4 PUSH20 0xFFFFFFFFFFFFFFFFFFFFFFFFFFFFFFFFFFFFFFFF AND MUL OR SWAP1 SSTORE POP PUSH1 0x1 PUSH1 0x2 PUSH1 0x0 CALLER PUSH20 0xFFFFFFFFFFFFFFFFFFFFFFFFFFFFFFFFFFFFFFFF AND PUSH20 0xFFFFFFFFFFFFFFFFFFFFFFFFFFFFFFFFFFFFFFFF AND DUP2 MSTORE PUSH1 0x20 ADD SWAP1 DUP2 MSTORE PUSH1 0x20 ADD PUSH1 0x0 KECCAK256 PUSH1 0x0 PUSH2 0x100 EXP DUP2 SLOAD DUP2 PUSH1 0xFF MUL NOT AND SWAP1 DUP4 ISZERO ISZERO MUL OR SWAP1 SSTORE POP JUMPDEST POP JUMP JUMPDEST PUSH1 0x0 DUP2 GT DUP1 ISZERO PUSH2 0x292 JUMPI POP PUSH1 0x0 DUP1 CALLER PUSH20 0xFFFFFFFFFFFFFFFFFFFFFFFFFFFFFFFFFFFFFFFF AND PUSH20 0xFFFFFFFFFFFFFFFFFFFFFFFFFFFFFFFFFFFFFFFF AND DUP2 MSTORE PUSH1 0x20 ADD SWAP1 DUP2 MSTORE PUSH1 0x20 ADD PUSH1 0x0 KECCAK256 SLOAD DUP2 LT JUMPDEST PUSH2 0x2D1 JUMPI PUSH1 0x40 MLOAD PUSH32 0x8C379A000000000000000000000000000000000000000000000000000000000 DUP2 MSTORE PUSH1 0x4 ADD PUSH2 0x2C8 SWAP1 PUSH2 0x769 JUMP JUMPDEST PUSH1 0x40 MLOAD DUP1 SWAP2 SUB SWAP1 REVERT JUMPDEST DUP1 PUSH1 0x0 DUP1 CALLER PUSH20 0xFFFFFFFFFFFFFFFFFFFFFFFFFFFFFFFFFFFFFFFF AND PUSH20 0xFFFFFFFFFFFFFFFFFFFFFFFFFFFFFFFFFFFFFFFF AND DUP2 MSTORE PUSH1 0x20 ADD SWAP1 DUP2 MSTORE PUSH1 0x20 ADD PUSH1 0x0 KECCAK256 PUSH1 0x0 DUP3 DUP3 SLOAD PUSH2 0x31F SWAP2 SWAP1 PUSH2 0x882 JUMP JUMPDEST SWAP3 POP POP DUP2 SWAP1 SSTORE POP POP JUMP JUMPDEST PUSH1 0x60 DUP1 PUSH1 0x0 PUSH1 0x1 DUP1 SLOAD SWAP1 POP PUSH8 0xFFFFFFFFFFFFFFFF DUP2 GT ISZERO PUSH2 0x373 JUMPI PUSH32 0x4E487B7100000000000000000000000000000000000000000000000000000000 PUSH1 0x0 MSTORE PUSH1 0x41 PUSH1 0x4 MSTORE PUSH1 0x24 PUSH1 0x0 REVERT JUMPDEST PUSH1 0x40 MLOAD SWAP1 DUP1 DUP3 MSTORE DUP1 PUSH1 0x20 MUL PUSH1 0x20 ADD DUP3 ADD PUSH1 0x40 MSTORE DUP1 ISZERO PUSH2 0x3A1 JUMPI DUP2 PUSH1 0x20 ADD PUSH1 0x20 DUP3 MUL DUP1 CALLDATASIZE DUP4 CALLDATACOPY DUP1 DUP3 ADD SWAP2 POP POP SWAP1 POP JUMPDEST POP SWAP1 POP PUSH1 0x0 JUMPDEST PUSH1 0x1 DUP1 SLOAD SWAP1 POP DUP2 LT ISZERO PUSH2 0x4AF JUMPI PUSH1 0x0 DUP1 PUSH1 0x1 DUP4 DUP2 SLOAD DUP2 LT PUSH2 0x3F1 JUMPI PUSH32 0x4E487B7100000000000000000000000000000000000000000000000000000000 PUSH1 0x0 MSTORE PUSH1 0x32 PUSH1 0x4 MSTORE PUSH1 0x24 PUSH1 0x0 REVERT JUMPDEST SWAP1 PUSH1 0x0 MSTORE PUSH1 0x20 PUSH1 0x0 KECCAK256 ADD PUSH1 0x0 SWAP1 SLOAD SWAP1 PUSH2 0x100 EXP SWAP1 DIV PUSH20 0xFFFFFFFFFFFFFFFFFFFFFFFFFFFFFFFFFFFFFFFF AND PUSH20 0xFFFFFFFFFFFFFFFFFFFFFFFFFFFFFFFFFFFFFFFF AND PUSH20 0xFFFFFFFFFFFFFFFFFFFFFFFFFFFFFFFFFFFFFFFF AND DUP2 MSTORE PUSH1 0x20 ADD SWAP1 DUP2 MSTORE PUSH1 0x20 ADD PUSH1 0x0 KECCAK256 SLOAD DUP3 DUP3 DUP2 MLOAD DUP2 LT PUSH2 0x490 JUMPI PUSH32 0x4E487B7100000000000000000000000000000000000000000000000000000000 PUSH1 0x0 MSTORE PUSH1 0x32 PUSH1 0x4 MSTORE PUSH1 0x24 PUSH1 0x0 REVERT JUMPDEST PUSH1 0x20 MUL PUSH1 0x20 ADD ADD DUP2 DUP2 MSTORE POP POP DUP1 DUP1 PUSH2 0x4A7 SWAP1 PUSH2 0x8F2 JUMP JUMPDEST SWAP2 POP POP PUSH2 0x3A7 JUMP JUMPDEST POP PUSH1 0x1 DUP2 DUP2 DUP1 SLOAD DUP1 PUSH1 0x20 MUL PUSH1 0x20 ADD PUSH1 0x40 MLOAD SWAP1 DUP2 ADD PUSH1 0x40 MSTORE DUP1 SWAP3 SWAP2 SWAP1 DUP2 DUP2 MSTORE PUSH1 0x20 ADD DUP3 DUP1 SLOAD DUP1 ISZERO PUSH2 0x534 JUMPI PUSH1 0x20 MUL DUP3 ADD SWAP2 SWAP1 PUSH1 0x0 MSTORE PUSH1 0x20 PUSH1 0x0 KECCAK256 SWAP1 JUMPDEST DUP2 PUSH1 0x0 SWAP1 SLOAD SWAP1 PUSH2 0x100 EXP SWAP1 DIV PUSH20 0xFFFFFFFFFFFFFFFFFFFFFFFFFFFFFFFFFFFFFFFF AND PUSH20 0xFFFFFFFFFFFFFFFFFFFFFFFFFFFFFFFFFFFFFFFF AND DUP2 MSTORE PUSH1 0x20 ADD SWAP1 PUSH1 0x1 ADD SWAP1 DUP1 DUP4 GT PUSH2 0x4EA JUMPI JUMPDEST POP POP POP POP POP SWAP2 POP SWAP3 POP SWAP3 POP POP SWAP1 SWAP2 JUMP JUMPDEST PUSH1 0x0 DUP2 CALLDATALOAD SWAP1 POP PUSH2 0x553 DUP2 PUSH2 0x96A JUMP JUMPDEST SWAP3 SWAP2 POP POP JUMP JUMPDEST PUSH1 0x0 PUSH1 0x20 DUP3 DUP5 SUB SLT ISZERO PUSH2 0x56B JUMPI PUSH1 0x0 DUP1 REVERT JUMPDEST PUSH1 0x0 PUSH2 0x579 DUP5 DUP3 DUP6 ADD PUSH2 0x544 JUMP JUMPDEST SWAP2 POP POP SWAP3 SWAP2 POP POP JUMP JUMPDEST PUSH1 0x0 PUSH2 0x58E DUP4 DUP4 PUSH2 0x5B2 JUMP JUMPDEST PUSH1 0x20 DUP4 ADD SWAP1 POP SWAP3 SWAP2 POP POP JUMP JUMPDEST PUSH1 0x0 PUSH2 0x5A6 DUP4 DUP4 PUSH2 0x723 JUMP JUMPDEST PUSH1 0x20 DUP4 ADD SWAP1 POP SWAP3 SWAP2 POP POP JUMP JUMPDEST PUSH2 0x5BB DUP2 PUSH2 0x8B6 JUMP JUMPDEST DUP3 MSTORE POP POP JUMP JUMPDEST PUSH1 0x0 PUSH2 0x5CC DUP3 PUSH2 0x7C9 JUMP JUMPDEST PUSH2 0x5D6 DUP2 DUP6 PUSH2 0x7F9 JUMP JUMPDEST SWAP4 POP PUSH2 0x5E1 DUP4 PUSH2 0x7A9 JUMP JUMPDEST DUP1 PUSH1 0x0 JUMPDEST DUP4 DUP2 LT ISZERO PUSH2 0x612 JUMPI DUP2 MLOAD PUSH2 0x5F9 DUP9 DUP3 PUSH2 0x582 JUMP JUMPDEST SWAP8 POP PUSH2 0x604 DUP4 PUSH2 0x7DF JUMP JUMPDEST SWAP3 POP POP PUSH1 0x1 DUP2 ADD SWAP1 POP PUSH2 0x5E5 JUMP JUMPDEST POP DUP6 SWAP4 POP POP POP POP SWAP3 SWAP2 POP POP JUMP JUMPDEST PUSH1 0x0 PUSH2 0x62A DUP3 PUSH2 0x7D4 JUMP JUMPDEST PUSH2 0x634 DUP2 DUP6 PUSH2 0x80A JUMP JUMPDEST SWAP4 POP PUSH2 0x63F DUP4 PUSH2 0x7B9 JUMP JUMPDEST DUP1 PUSH1 0x0 JUMPDEST DUP4 DUP2 LT ISZERO PUSH2 0x670 JUMPI DUP2 MLOAD PUSH2 0x657 DUP9 DUP3 PUSH2 0x59A JUMP JUMPDEST SWAP8 POP PUSH2 0x662 DUP4 PUSH2 0x7EC JUMP JUMPDEST SWAP3 POP POP PUSH1 0x1 DUP2 ADD SWAP1 POP PUSH2 0x643 JUMP JUMPDEST POP DUP6 SWAP4 POP POP POP POP SWAP3 SWAP2 POP POP JUMP JUMPDEST PUSH1 0x0 PUSH2 0x68A PUSH1 0x33 DUP4 PUSH2 0x81B JUMP JUMPDEST SWAP2 POP PUSH32 0x616D6F756E742073686F756C642062652067726561746572207468616E203020 PUSH1 0x0 DUP4 ADD MSTORE PUSH32 0x616E64206D75737420626520696E2062616E6B00000000000000000000000000 PUSH1 0x20 DUP4 ADD MSTORE PUSH1 0x40 DUP3 ADD SWAP1 POP SWAP2 SWAP1 POP JUMP JUMPDEST PUSH1 0x0 PUSH2 0x6F0 PUSH1 0x1F DUP4 PUSH2 0x81B JUMP JUMPDEST SWAP2 POP PUSH32 0x616D6F756E742073686F756C642062652067726561746572207468616E203000 PUSH1 0x0 DUP4 ADD MSTORE PUSH1 0x20 DUP3 ADD SWAP1 POP SWAP2 SWAP1 POP JUMP JUMPDEST PUSH2 0x72C DUP2 PUSH2 0x8E8 JUMP JUMPDEST DUP3 MSTORE POP POP JUMP JUMPDEST PUSH1 0x0 PUSH1 0x40 DUP3 ADD SWAP1 POP DUP2 DUP2 SUB PUSH1 0x0 DUP4 ADD MSTORE PUSH2 0x74C DUP2 DUP6 PUSH2 0x5C1 JUMP JUMPDEST SWAP1 POP DUP2 DUP2 SUB PUSH1 0x20 DUP4 ADD MSTORE PUSH2 0x760 DUP2 DUP5 PUSH2 0x61F JUMP JUMPDEST SWAP1 POP SWAP4 SWAP3 POP POP POP JUMP JUMPDEST PUSH1 0x0 PUSH1 0x20 DUP3 ADD SWAP1 POP DUP2 DUP2 SUB PUSH1 0x0 DUP4 ADD MSTORE PUSH2 0x782 DUP2 PUSH2 0x67D JUMP JUMPDEST SWAP1 POP SWAP2 SWAP1 POP JUMP JUMPDEST PUSH1 0x0 PUSH1 0x20 DUP3 ADD SWAP1 POP DUP2 DUP2 SUB PUSH1 0x0 DUP4 ADD MSTORE PUSH2 0x7A2 DUP2 PUSH2 0x6E3 JUMP JUMPDEST SWAP1 POP SWAP2 SWAP1 POP JUMP JUMPDEST PUSH1 0x0 DUP2 SWAP1 POP PUSH1 0x20 DUP3 ADD SWAP1 POP SWAP2 SWAP1 POP JUMP JUMPDEST PUSH1 0x0 DUP2 SWAP1 POP PUSH1 0x20 DUP3 ADD SWAP1 POP SWAP2 SWAP1 POP JUMP JUMPDEST PUSH1 0x0 DUP2 MLOAD SWAP1 POP SWAP2 SWAP1 POP JUMP JUMPDEST PUSH1 0x0 DUP2 MLOAD SWAP1 POP SWAP2 SWAP1 POP JUMP JUMPDEST PUSH1 0x0 PUSH1 0x20 DUP3 ADD SWAP1 POP SWAP2 SWAP1 POP JUMP JUMPDEST PUSH1 0x0 PUSH1 0x20 DUP3 ADD SWAP1 POP SWAP2 SWAP1 POP JUMP JUMPDEST PUSH1 0x0 DUP3 DUP3 MSTORE PUSH1 0x20 DUP3 ADD SWAP1 POP SWAP3 SWAP2 POP POP JUMP JUMPDEST PUSH1 0x0 DUP3 DUP3 MSTORE PUSH1 0x20 DUP3 ADD SWAP1 POP SWAP3 SWAP2 POP POP JUMP JUMPDEST PUSH1 0x0 DUP3 DUP3 MSTORE PUSH1 0x20 DUP3 ADD SWAP1 POP SWAP3 SWAP2 POP POP JUMP JUMPDEST PUSH1 0x0 PUSH2 0x837 DUP3 PUSH2 0x8E8 JUMP JUMPDEST SWAP2 POP PUSH2 0x842 DUP4 PUSH2 0x8E8 JUMP JUMPDEST SWAP3 POP DUP3 PUSH32 0xFFFFFFFFFFFFFFFFFFFFFFFFFFFFFFFFFFFFFFFFFFFFFFFFFFFFFFFFFFFFFFFF SUB DUP3 GT ISZERO PUSH2 0x877 JUMPI PUSH2 0x876 PUSH2 0x93B JUMP JUMPDEST JUMPDEST DUP3 DUP3 ADD SWAP1 POP SWAP3 SWAP2 POP POP JUMP JUMPDEST PUSH1 0x0 PUSH2 0x88D DUP3 PUSH2 0x8E8 JUMP JUMPDEST SWAP2 POP PUSH2 0x898 DUP4 PUSH2 0x8E8 JUMP JUMPDEST SWAP3 POP DUP3 DUP3 LT ISZERO PUSH2 0x8AB JUMPI PUSH2 0x8AA PUSH2 0x93B JUMP JUMPDEST JUMPDEST DUP3 DUP3 SUB SWAP1 POP SWAP3 SWAP2 POP POP JUMP JUMPDEST PUSH1 0x0 PUSH2 0x8C1 DUP3 PUSH2 0x8C8 JUMP JUMPDEST SWAP1 POP SWAP2 SWAP1 POP JUMP JUMPDEST PUSH1 0x0 PUSH20 0xFFFFFFFFFFFFFFFFFFFFFFFFFFFFFFFFFFFFFFFF DUP3 AND SWAP1 POP SWAP2 SWAP1 POP JUMP JUMPDEST PUSH1 0x0 DUP2 SWAP1 POP SWAP2 SWAP1 POP JUMP JUMPDEST PUSH1 0x0 PUSH2 0x8FD DUP3 PUSH2 0x8E8 JUMP JUMPDEST SWAP2 POP PUSH32 0xFFFFFFFFFFFFFFFFFFFFFFFFFFFFFFFFFFFFFFFFFFFFFFFFFFFFFFFFFFFFFFFF DUP3 EQ ISZERO PUSH2 0x930 JUMPI PUSH2 0x92F PUSH2 0x93B JUMP JUMPDEST JUMPDEST PUSH1 0x1 DUP3 ADD SWAP1 POP SWAP2 SWAP1 POP JUMP JUMPDEST PUSH32 0x4E487B7100000000000000000000000000000000000000000000000000000000 PUSH1 0x0 MSTORE PUSH1 0x11 PUSH1 0x4 MSTORE PUSH1 0x24 PUSH1 0x0 REVERT JUMPDEST PUSH2 0x973 DUP2 PUSH2 0x8E8 JUMP JUMPDEST DUP2 EQ PUSH2 0x97E JUMPI PUSH1 0x0 DUP1 REVERT JUMPDEST POP JUMP INVALID LOG2 PUSH5 0x6970667358 0x22 SLT KECCAK256 MLOAD SWAP3 SWAP7 0x2E SUB PUSH2 0xC551 SAR PUSH27 0x73C9E7DDB227BDB94D2BCD0B9225624B5B565548891364736F6C63 NUMBER STOP ADDMOD STOP STOP CALLER "
				},
				"gasEstimates": {
					"creation": {
						"codeDepositCost": "497400",
						"executionCost": "530",
						"totalCost": "497930"
					},
					"external": {
						"Deposit(uint256)": "infinite",
						"Withdraw(uint256)": "infinite",
						"getAllUsers()": "infinite"
					}
				},
				"methodIdentifiers": {
					"Deposit(uint256)": "4d6ce1e5",
					"Withdraw(uint256)": "5b6b431d",
					"getAllUsers()": "e2842d79"
				}
			},
			"storageLayout": {
				"storage": [
					{
						"astId": 5,
						"contract": "Practice/BankDepositeSystem.sol:Bank_Deposite_System",
						"label": "balance",
						"offset": 0,
						"slot": "0",
						"type": "t_mapping(t_address,t_uint256)"
					},
					{
						"astId": 8,
						"contract": "Practice/BankDepositeSystem.sol:Bank_Deposite_System",
						"label": "users",
						"offset": 0,
						"slot": "1",
						"type": "t_array(t_address)dyn_storage"
					},
					{
						"astId": 12,
						"contract": "Practice/BankDepositeSystem.sol:Bank_Deposite_System",
						"label": "isUserAdded",
						"offset": 0,
						"slot": "2",
						"type": "t_mapping(t_address,t_bool)"
					}
				],
				"types": {
					"t_address": {
						"encoding": "inplace",
						"label": "address",
						"numberOfBytes": "20"
					},
					"t_array(t_address)dyn_storage": {
						"base": "t_address",
						"encoding": "dynamic_array",
						"label": "address[]",
						"numberOfBytes": "32"
					},
					"t_bool": {
						"encoding": "inplace",
						"label": "bool",
						"numberOfBytes": "1"
					},
					"t_mapping(t_address,t_bool)": {
						"encoding": "mapping",
						"key": "t_address",
						"label": "mapping(address => bool)",
						"numberOfBytes": "32",
						"value": "t_bool"
					},
					"t_mapping(t_address,t_uint256)": {
						"encoding": "mapping",
						"key": "t_address",
						"label": "mapping(address => uint256)",
						"numberOfBytes": "32",
						"value": "t_uint256"
					},
					"t_uint256": {
						"encoding": "inplace",
						"label": "uint256",
						"numberOfBytes": "32"
					}
				}
			},
			"userdoc": {
				"kind": "user",
				"methods": {},
				"version": 1
			}
		}
	}
}