{
	"Practice/Voting_Struct.sol": {
		"Voting_Struct": {
			"abi": [
				{
					"inputs": [],
					"stateMutability": "nonpayable",
					"type": "constructor"
				},
				{
					"anonymous": false,
					"inputs": [
						{
							"indexed": false,
							"internalType": "uint256",
							"name": "partyId",
							"type": "uint256"
						},
						{
							"indexed": false,
							"internalType": "address",
							"name": "wallet",
							"type": "address"
						}
					],
					"name": "_vote",
					"type": "event"
				},
				{
					"anonymous": false,
					"inputs": [
						{
							"indexed": false,
							"internalType": "uint256",
							"name": "id",
							"type": "uint256"
						},
						{
							"indexed": false,
							"internalType": "string",
							"name": "name",
							"type": "string"
						},
						{
							"indexed": false,
							"internalType": "uint256",
							"name": "voteCount",
							"type": "uint256"
						}
					],
					"name": "add_party",
					"type": "event"
				},
				{
					"anonymous": false,
					"inputs": [
						{
							"indexed": false,
							"internalType": "uint256",
							"name": "id",
							"type": "uint256"
						},
						{
							"indexed": false,
							"internalType": "string",
							"name": "name",
							"type": "string"
						},
						{
							"indexed": false,
							"internalType": "bool",
							"name": "isVoted",
							"type": "bool"
						},
						{
							"indexed": false,
							"internalType": "address",
							"name": "wallet",
							"type": "address"
						}
					],
					"name": "add_voter",
					"type": "event"
				},
				{
					"anonymous": false,
					"inputs": [
						{
							"indexed": false,
							"internalType": "uint256",
							"name": "partyId",
							"type": "uint256"
						},
						{
							"indexed": false,
							"internalType": "uint256",
							"name": "votes",
							"type": "uint256"
						}
					],
					"name": "party_votes",
					"type": "event"
				},
				{
					"inputs": [
						{
							"internalType": "uint256",
							"name": "id",
							"type": "uint256"
						},
						{
							"internalType": "string",
							"name": "name",
							"type": "string"
						}
					],
					"name": "addParty",
					"outputs": [],
					"stateMutability": "nonpayable",
					"type": "function"
				},
				{
					"inputs": [
						{
							"internalType": "uint256",
							"name": "id",
							"type": "uint256"
						},
						{
							"internalType": "string",
							"name": "name",
							"type": "string"
						}
					],
					"name": "addVoter",
					"outputs": [],
					"stateMutability": "nonpayable",
					"type": "function"
				},
				{
					"inputs": [
						{
							"internalType": "uint256",
							"name": "partyId",
							"type": "uint256"
						}
					],
					"name": "getPartyVotes",
					"outputs": [
						{
							"internalType": "string",
							"name": "",
							"type": "string"
						},
						{
							"internalType": "uint256",
							"name": "",
							"type": "uint256"
						}
					],
					"stateMutability": "nonpayable",
					"type": "function"
				},
				{
					"inputs": [
						{
							"internalType": "uint256",
							"name": "partyId",
							"type": "uint256"
						}
					],
					"name": "vote",
					"outputs": [],
					"stateMutability": "nonpayable",
					"type": "function"
				}
			],
			"devdoc": {
				"kind": "dev",
				"methods": {},
				"version": 1
			},
			"evm": {
				"assembly": "    /* \"Practice/Voting_Struct.sol\":60:2419  contract Voting_Struct{\r... */\n  mstore(0x40, 0x80)\n    /* \"Practice/Voting_Struct.sol\":338:386  constructor(){\r... */\n  callvalue\n  dup1\n  iszero\n  tag_1\n  jumpi\n  0x00\n  dup1\n  revert\ntag_1:\n  pop\n    /* \"Practice/Voting_Struct.sol\":368:378  msg.sender */\n  caller\n    /* \"Practice/Voting_Struct.sol\":362:367  owner */\n  0x00\n  dup1\n    /* \"Practice/Voting_Struct.sol\":362:378  owner=msg.sender */\n  0x0100\n  exp\n  dup2\n  sload\n  dup2\n  0xffffffffffffffffffffffffffffffffffffffff\n  mul\n  not\n  and\n  swap1\n  dup4\n  0xffffffffffffffffffffffffffffffffffffffff\n  and\n  mul\n  or\n  swap1\n  sstore\n  pop\n    /* \"Practice/Voting_Struct.sol\":60:2419  contract Voting_Struct{\r... */\n  dataSize(sub_0)\n  dup1\n  dataOffset(sub_0)\n  0x00\n  codecopy\n  0x00\n  return\nstop\n\nsub_0: assembly {\n        /* \"Practice/Voting_Struct.sol\":60:2419  contract Voting_Struct{\r... */\n      mstore(0x40, 0x80)\n      callvalue\n      dup1\n      iszero\n      tag_1\n      jumpi\n      0x00\n      dup1\n      revert\n    tag_1:\n      pop\n      jumpi(tag_2, lt(calldatasize, 0x04))\n      shr(0xe0, calldataload(0x00))\n      dup1\n      0x0121b93f\n      eq\n      tag_3\n      jumpi\n      dup1\n      0x2acf6304\n      eq\n      tag_4\n      jumpi\n      dup1\n      0x5129ff1a\n      eq\n      tag_5\n      jumpi\n      dup1\n      0xf5ea0106\n      eq\n      tag_6\n      jumpi\n    tag_2:\n      0x00\n      dup1\n      revert\n        /* \"Practice/Voting_Struct.sol\":1752:2106  function vote(uint partyId) public {\r... */\n    tag_3:\n      tag_7\n      0x04\n      dup1\n      calldatasize\n      sub\n      dup2\n      add\n      swap1\n      tag_8\n      swap2\n      swap1\n      tag_9\n      jump\t// in\n    tag_8:\n      tag_10\n      jump\t// in\n    tag_7:\n      stop\n        /* \"Practice/Voting_Struct.sol\":2139:2414  function getPartyVotes(uint partyId) public returns (string memory, uint){\r... */\n    tag_4:\n      tag_11\n      0x04\n      dup1\n      calldatasize\n      sub\n      dup2\n      add\n      swap1\n      tag_12\n      swap2\n      swap1\n      tag_9\n      jump\t// in\n    tag_12:\n      tag_13\n      jump\t// in\n    tag_11:\n      mload(0x40)\n      tag_14\n      swap3\n      swap2\n      swap1\n      tag_15\n      jump\t// in\n    tag_14:\n      mload(0x40)\n      dup1\n      swap2\n      sub\n      swap1\n      return\n        /* \"Practice/Voting_Struct.sol\":1320:1730  function addVoter(uint id, string memory name) public{\r... */\n    tag_5:\n      tag_16\n      0x04\n      dup1\n      calldatasize\n      sub\n      dup2\n      add\n      swap1\n      tag_17\n      swap2\n      swap1\n      tag_18\n      jump\t// in\n    tag_17:\n      tag_19\n      jump\t// in\n    tag_16:\n      stop\n        /* \"Practice/Voting_Struct.sol\":709:986  function addParty(uint id, string memory name) public checkOwner{\r... */\n    tag_6:\n      tag_20\n      0x04\n      dup1\n      calldatasize\n      sub\n      dup2\n      add\n      swap1\n      tag_21\n      swap2\n      swap1\n      tag_18\n      jump\t// in\n    tag_21:\n      tag_22\n      jump\t// in\n    tag_20:\n      stop\n        /* \"Practice/Voting_Struct.sol\":1752:2106  function vote(uint partyId) public {\r... */\n    tag_10:\n        /* \"Practice/Voting_Struct.sol\":1806:1819  hasRegistered */\n      0x06\n        /* \"Practice/Voting_Struct.sol\":1806:1831  hasRegistered[msg.sender] */\n      0x00\n        /* \"Practice/Voting_Struct.sol\":1820:1830  msg.sender */\n      caller\n        /* \"Practice/Voting_Struct.sol\":1806:1831  hasRegistered[msg.sender] */\n      0xffffffffffffffffffffffffffffffffffffffff\n      and\n      0xffffffffffffffffffffffffffffffffffffffff\n      and\n      dup2\n      mstore\n      0x20\n      add\n      swap1\n      dup2\n      mstore\n      0x20\n      add\n      0x00\n      keccak256\n      0x00\n      swap1\n      sload\n      swap1\n      0x0100\n      exp\n      swap1\n      div\n      0xff\n      and\n        /* \"Practice/Voting_Struct.sol\":1798:1859  require(hasRegistered[msg.sender], \"Not registered as voter\") */\n      tag_24\n      jumpi\n      mload(0x40)\n      0x08c379a000000000000000000000000000000000000000000000000000000000\n      dup2\n      mstore\n      0x04\n      add\n      tag_25\n      swap1\n      tag_26\n      jump\t// in\n    tag_25:\n      mload(0x40)\n      dup1\n      swap2\n      sub\n      swap1\n      revert\n    tag_24:\n        /* \"Practice/Voting_Struct.sol\":1879:1887  hasVoted */\n      0x07\n        /* \"Practice/Voting_Struct.sol\":1879:1899  hasVoted[msg.sender] */\n      0x00\n        /* \"Practice/Voting_Struct.sol\":1888:1898  msg.sender */\n      caller\n        /* \"Practice/Voting_Struct.sol\":1879:1899  hasVoted[msg.sender] */\n      0xffffffffffffffffffffffffffffffffffffffff\n      and\n      0xffffffffffffffffffffffffffffffffffffffff\n      and\n      dup2\n      mstore\n      0x20\n      add\n      swap1\n      dup2\n      mstore\n      0x20\n      add\n      0x00\n      keccak256\n      0x00\n      swap1\n      sload\n      swap1\n      0x0100\n      exp\n      swap1\n      div\n      0xff\n      and\n        /* \"Practice/Voting_Struct.sol\":1878:1899  !hasVoted[msg.sender] */\n      iszero\n        /* \"Practice/Voting_Struct.sol\":1870:1917  require(!hasVoted[msg.sender], \"Already voted\") */\n      tag_27\n      jumpi\n      mload(0x40)\n      0x08c379a000000000000000000000000000000000000000000000000000000000\n      dup2\n      mstore\n      0x04\n      add\n      tag_28\n      swap1\n      tag_29\n      jump\t// in\n    tag_28:\n      mload(0x40)\n      dup1\n      swap2\n      sub\n      swap1\n      revert\n    tag_27:\n        /* \"Practice/Voting_Struct.sol\":1936:1948  isPartyExist */\n      0x02\n        /* \"Practice/Voting_Struct.sol\":1936:1957  isPartyExist[partyId] */\n      0x00\n        /* \"Practice/Voting_Struct.sol\":1949:1956  partyId */\n      dup3\n        /* \"Practice/Voting_Struct.sol\":1936:1957  isPartyExist[partyId] */\n      dup2\n      mstore\n      0x20\n      add\n      swap1\n      dup2\n      mstore\n      0x20\n      add\n      0x00\n      keccak256\n      0x00\n      swap1\n      sload\n      swap1\n      0x0100\n      exp\n      swap1\n      div\n      0xff\n      and\n        /* \"Practice/Voting_Struct.sol\":1928:1975  require(isPartyExist[partyId], \"Invalid party\") */\n      tag_30\n      jumpi\n      mload(0x40)\n      0x08c379a000000000000000000000000000000000000000000000000000000000\n      dup2\n      mstore\n      0x04\n      add\n      tag_31\n      swap1\n      tag_32\n      jump\t// in\n    tag_31:\n      mload(0x40)\n      dup1\n      swap2\n      sub\n      swap1\n      revert\n    tag_30:\n        /* \"Practice/Voting_Struct.sol\":1988:1995  parties */\n      0x01\n        /* \"Practice/Voting_Struct.sol\":1988:2004  parties[partyId] */\n      0x00\n        /* \"Practice/Voting_Struct.sol\":1996:2003  partyId */\n      dup3\n        /* \"Practice/Voting_Struct.sol\":1988:2004  parties[partyId] */\n      dup2\n      mstore\n      0x20\n      add\n      swap1\n      dup2\n      mstore\n      0x20\n      add\n      0x00\n      keccak256\n        /* \"Practice/Voting_Struct.sol\":1988:2014  parties[partyId].voteCount */\n      0x02\n      add\n      0x00\n        /* \"Practice/Voting_Struct.sol\":1988:2016  parties[partyId].voteCount++ */\n      dup2\n      sload\n      dup1\n      swap3\n      swap2\n      swap1\n      tag_33\n      swap1\n      tag_34\n      jump\t// in\n    tag_33:\n      swap2\n      swap1\n      pop\n      sstore\n      pop\n        /* \"Practice/Voting_Struct.sol\":2050:2054  true */\n      0x01\n        /* \"Practice/Voting_Struct.sol\":2027:2035  hasVoted */\n      0x07\n        /* \"Practice/Voting_Struct.sol\":2027:2047  hasVoted[msg.sender] */\n      0x00\n        /* \"Practice/Voting_Struct.sol\":2036:2046  msg.sender */\n      caller\n        /* \"Practice/Voting_Struct.sol\":2027:2047  hasVoted[msg.sender] */\n      0xffffffffffffffffffffffffffffffffffffffff\n      and\n      0xffffffffffffffffffffffffffffffffffffffff\n      and\n      dup2\n      mstore\n      0x20\n      add\n      swap1\n      dup2\n      mstore\n      0x20\n      add\n      0x00\n      keccak256\n      0x00\n        /* \"Practice/Voting_Struct.sol\":2027:2054  hasVoted[msg.sender] = true */\n      0x0100\n      exp\n      dup2\n      sload\n      dup2\n      0xff\n      mul\n      not\n      and\n      swap1\n      dup4\n      iszero\n      iszero\n      mul\n      or\n      swap1\n      sstore\n      pop\n        /* \"Practice/Voting_Struct.sol\":2072:2098  _vote(partyId, msg.sender) */\n      0x90936527174ec7d51a4d8df38fdd1384ec788a40f90df7d9acff46f64133f628\n        /* \"Practice/Voting_Struct.sol\":2078:2085  partyId */\n      dup2\n        /* \"Practice/Voting_Struct.sol\":2087:2097  msg.sender */\n      caller\n        /* \"Practice/Voting_Struct.sol\":2072:2098  _vote(partyId, msg.sender) */\n      mload(0x40)\n      tag_35\n      swap3\n      swap2\n      swap1\n      tag_36\n      jump\t// in\n    tag_35:\n      mload(0x40)\n      dup1\n      swap2\n      sub\n      swap1\n      log1\n        /* \"Practice/Voting_Struct.sol\":1752:2106  function vote(uint partyId) public {\r... */\n      pop\n      jump\t// out\n        /* \"Practice/Voting_Struct.sol\":2139:2414  function getPartyVotes(uint partyId) public returns (string memory, uint){\r... */\n    tag_13:\n        /* \"Practice/Voting_Struct.sol\":2192:2205  string memory */\n      0x60\n        /* \"Practice/Voting_Struct.sol\":2207:2211  uint */\n      0x00\n        /* \"Practice/Voting_Struct.sol\":2231:2243  isPartyExist */\n      0x02\n        /* \"Practice/Voting_Struct.sol\":2231:2252  isPartyExist[partyId] */\n      0x00\n        /* \"Practice/Voting_Struct.sol\":2244:2251  partyId */\n      dup5\n        /* \"Practice/Voting_Struct.sol\":2231:2252  isPartyExist[partyId] */\n      dup2\n      mstore\n      0x20\n      add\n      swap1\n      dup2\n      mstore\n      0x20\n      add\n      0x00\n      keccak256\n      0x00\n      swap1\n      sload\n      swap1\n      0x0100\n      exp\n      swap1\n      div\n      0xff\n      and\n        /* \"Practice/Voting_Struct.sol\":2223:2272  require(isPartyExist[partyId], \"Party not found\") */\n      tag_38\n      jumpi\n      mload(0x40)\n      0x08c379a000000000000000000000000000000000000000000000000000000000\n      dup2\n      mstore\n      0x04\n      add\n      tag_39\n      swap1\n      tag_40\n      jump\t// in\n    tag_39:\n      mload(0x40)\n      dup1\n      swap2\n      sub\n      swap1\n      revert\n    tag_38:\n        /* \"Practice/Voting_Struct.sol\":2285:2299  Party memory p */\n      0x00\n        /* \"Practice/Voting_Struct.sol\":2302:2309  parties */\n      0x01\n        /* \"Practice/Voting_Struct.sol\":2302:2318  parties[partyId] */\n      0x00\n        /* \"Practice/Voting_Struct.sol\":2310:2317  partyId */\n      dup6\n        /* \"Practice/Voting_Struct.sol\":2302:2318  parties[partyId] */\n      dup2\n      mstore\n      0x20\n      add\n      swap1\n      dup2\n      mstore\n      0x20\n      add\n      0x00\n      keccak256\n        /* \"Practice/Voting_Struct.sol\":2285:2318  Party memory p = parties[partyId] */\n      mload(0x40)\n      dup1\n      0x60\n      add\n      0x40\n      mstore\n      swap1\n      dup2\n      0x00\n      dup3\n      add\n      sload\n      dup2\n      mstore\n      0x20\n      add\n      0x01\n      dup3\n      add\n      dup1\n      sload\n      tag_41\n      swap1\n      tag_42\n      jump\t// in\n    tag_41:\n      dup1\n      0x1f\n      add\n      0x20\n      dup1\n      swap2\n      div\n      mul\n      0x20\n      add\n      mload(0x40)\n      swap1\n      dup2\n      add\n      0x40\n      mstore\n      dup1\n      swap3\n      swap2\n      swap1\n      dup2\n      dup2\n      mstore\n      0x20\n      add\n      dup3\n      dup1\n      sload\n      tag_43\n      swap1\n      tag_42\n      jump\t// in\n    tag_43:\n      dup1\n      iszero\n      tag_44\n      jumpi\n      dup1\n      0x1f\n      lt\n      tag_45\n      jumpi\n      0x0100\n      dup1\n      dup4\n      sload\n      div\n      mul\n      dup4\n      mstore\n      swap2\n      0x20\n      add\n      swap2\n      jump(tag_44)\n    tag_45:\n      dup3\n      add\n      swap2\n      swap1\n      0x00\n      mstore\n      keccak256(0x00, 0x20)\n      swap1\n    tag_46:\n      dup2\n      sload\n      dup2\n      mstore\n      swap1\n      0x01\n      add\n      swap1\n      0x20\n      add\n      dup1\n      dup4\n      gt\n      tag_46\n      jumpi\n      dup3\n      swap1\n      sub\n      0x1f\n      and\n      dup3\n      add\n      swap2\n    tag_44:\n      pop\n      pop\n      pop\n      pop\n      pop\n      dup2\n      mstore\n      0x20\n      add\n      0x02\n      dup3\n      add\n      sload\n      dup2\n      mstore\n      pop\n      pop\n      swap1\n      pop\n        /* \"Practice/Voting_Struct.sol\":2334:2367  party_votes(partyId, p.voteCount) */\n      0xf967fcdbf7b0cf02b091054df95e47b762e4f9984e41a19a1a110c77a46e8942\n        /* \"Practice/Voting_Struct.sol\":2346:2353  partyId */\n      dup5\n        /* \"Practice/Voting_Struct.sol\":2355:2356  p */\n      dup3\n        /* \"Practice/Voting_Struct.sol\":2355:2366  p.voteCount */\n      0x40\n      add\n      mload\n        /* \"Practice/Voting_Struct.sol\":2334:2367  party_votes(partyId, p.voteCount) */\n      mload(0x40)\n      tag_47\n      swap3\n      swap2\n      swap1\n      tag_48\n      jump\t// in\n    tag_47:\n      mload(0x40)\n      dup1\n      swap2\n      sub\n      swap1\n      log1\n        /* \"Practice/Voting_Struct.sol\":2386:2387  p */\n      dup1\n        /* \"Practice/Voting_Struct.sol\":2386:2392  p.name */\n      0x20\n      add\n      mload\n        /* \"Practice/Voting_Struct.sol\":2394:2395  p */\n      dup2\n        /* \"Practice/Voting_Struct.sol\":2394:2405  p.voteCount */\n      0x40\n      add\n      mload\n        /* \"Practice/Voting_Struct.sol\":2378:2406  return (p.name, p.voteCount) */\n      swap3\n      pop\n      swap3\n      pop\n      pop\n        /* \"Practice/Voting_Struct.sol\":2139:2414  function getPartyVotes(uint partyId) public returns (string memory, uint){\r... */\n      swap2\n      pop\n      swap2\n      jump\t// out\n        /* \"Practice/Voting_Struct.sol\":1320:1730  function addVoter(uint id, string memory name) public{\r... */\n    tag_19:\n        /* \"Practice/Voting_Struct.sol\":1393:1407  isVoterExisted */\n      0x05\n        /* \"Practice/Voting_Struct.sol\":1393:1411  isVoterExisted[id] */\n      0x00\n        /* \"Practice/Voting_Struct.sol\":1408:1410  id */\n      dup4\n        /* \"Practice/Voting_Struct.sol\":1393:1411  isVoterExisted[id] */\n      dup2\n      mstore\n      0x20\n      add\n      swap1\n      dup2\n      mstore\n      0x20\n      add\n      0x00\n      keccak256\n      0x00\n      swap1\n      sload\n      swap1\n      0x0100\n      exp\n      swap1\n      div\n      0xff\n      and\n        /* \"Practice/Voting_Struct.sol\":1392:1411  !isVoterExisted[id] */\n      iszero\n        /* \"Practice/Voting_Struct.sol\":1384:1436  require(!isVoterExisted[id],\"Voter already existed\") */\n      tag_50\n      jumpi\n      mload(0x40)\n      0x08c379a000000000000000000000000000000000000000000000000000000000\n      dup2\n      mstore\n      0x04\n      add\n      tag_51\n      swap1\n      tag_52\n      jump\t// in\n    tag_51:\n      mload(0x40)\n      dup1\n      swap2\n      sub\n      swap1\n      revert\n    tag_50:\n        /* \"Practice/Voting_Struct.sol\":1456:1469  hasRegistered */\n      0x06\n        /* \"Practice/Voting_Struct.sol\":1456:1481  hasRegistered[msg.sender] */\n      0x00\n        /* \"Practice/Voting_Struct.sol\":1470:1480  msg.sender */\n      caller\n        /* \"Practice/Voting_Struct.sol\":1456:1481  hasRegistered[msg.sender] */\n      0xffffffffffffffffffffffffffffffffffffffff\n      and\n      0xffffffffffffffffffffffffffffffffffffffff\n      and\n      dup2\n      mstore\n      0x20\n      add\n      swap1\n      dup2\n      mstore\n      0x20\n      add\n      0x00\n      keccak256\n      0x00\n      swap1\n      sload\n      swap1\n      0x0100\n      exp\n      swap1\n      div\n      0xff\n      and\n        /* \"Practice/Voting_Struct.sol\":1455:1481  !hasRegistered[msg.sender] */\n      iszero\n        /* \"Practice/Voting_Struct.sol\":1447:1507  require(!hasRegistered[msg.sender], \"Voter already existed\") */\n      tag_53\n      jumpi\n      mload(0x40)\n      0x08c379a000000000000000000000000000000000000000000000000000000000\n      dup2\n      mstore\n      0x04\n      add\n      tag_54\n      swap1\n      tag_52\n      jump\t// in\n    tag_54:\n      mload(0x40)\n      dup1\n      swap2\n      sub\n      swap1\n      revert\n    tag_53:\n        /* \"Practice/Voting_Struct.sol\":1518:1527  allVoters */\n      0x08\n        /* \"Practice/Voting_Struct.sol\":1533:1535  id */\n      dup3\n        /* \"Practice/Voting_Struct.sol\":1518:1536  allVoters.push(id) */\n      swap1\n      dup1\n      0x01\n      dup2\n      sload\n      add\n      dup1\n      dup3\n      sstore\n      dup1\n      swap2\n      pop\n      pop\n      0x01\n      swap1\n      sub\n      swap1\n      0x00\n      mstore\n      keccak256(0x00, 0x20)\n      add\n      0x00\n      swap1\n      swap2\n      swap1\n      swap2\n      swap1\n      swap2\n      pop\n      sstore\n        /* \"Practice/Voting_Struct.sol\":1566:1570  true */\n      0x01\n        /* \"Practice/Voting_Struct.sol\":1547:1561  isVoterExisted */\n      0x05\n        /* \"Practice/Voting_Struct.sol\":1547:1565  isVoterExisted[id] */\n      0x00\n        /* \"Practice/Voting_Struct.sol\":1562:1564  id */\n      dup5\n        /* \"Practice/Voting_Struct.sol\":1547:1565  isVoterExisted[id] */\n      dup2\n      mstore\n      0x20\n      add\n      swap1\n      dup2\n      mstore\n      0x20\n      add\n      0x00\n      keccak256\n      0x00\n        /* \"Practice/Voting_Struct.sol\":1547:1570  isVoterExisted[id]=true */\n      0x0100\n      exp\n      dup2\n      sload\n      dup2\n      0xff\n      mul\n      not\n      and\n      swap1\n      dup4\n      iszero\n      iszero\n      mul\n      or\n      swap1\n      sstore\n      pop\n        /* \"Practice/Voting_Struct.sol\":1607:1611  true */\n      0x01\n        /* \"Practice/Voting_Struct.sol\":1581:1594  hasRegistered */\n      0x06\n        /* \"Practice/Voting_Struct.sol\":1581:1606  hasRegistered[msg.sender] */\n      0x00\n        /* \"Practice/Voting_Struct.sol\":1595:1605  msg.sender */\n      caller\n        /* \"Practice/Voting_Struct.sol\":1581:1606  hasRegistered[msg.sender] */\n      0xffffffffffffffffffffffffffffffffffffffff\n      and\n      0xffffffffffffffffffffffffffffffffffffffff\n      and\n      dup2\n      mstore\n      0x20\n      add\n      swap1\n      dup2\n      mstore\n      0x20\n      add\n      0x00\n      keccak256\n      0x00\n        /* \"Practice/Voting_Struct.sol\":1581:1611  hasRegistered[msg.sender]=true */\n      0x0100\n      exp\n      dup2\n      sload\n      dup2\n      0xff\n      mul\n      not\n      and\n      swap1\n      dup4\n      iszero\n      iszero\n      mul\n      or\n      swap1\n      sstore\n      pop\n        /* \"Practice/Voting_Struct.sol\":1635:1666  Voter(id,name,false,msg.sender) */\n      mload(0x40)\n      dup1\n      0x80\n      add\n      0x40\n      mstore\n      dup1\n        /* \"Practice/Voting_Struct.sol\":1641:1643  id */\n      dup4\n        /* \"Practice/Voting_Struct.sol\":1635:1666  Voter(id,name,false,msg.sender) */\n      dup2\n      mstore\n      0x20\n      add\n        /* \"Practice/Voting_Struct.sol\":1644:1648  name */\n      dup3\n        /* \"Practice/Voting_Struct.sol\":1635:1666  Voter(id,name,false,msg.sender) */\n      dup2\n      mstore\n      0x20\n      add\n        /* \"Practice/Voting_Struct.sol\":1649:1654  false */\n      0x00\n        /* \"Practice/Voting_Struct.sol\":1635:1666  Voter(id,name,false,msg.sender) */\n      iszero\n      iszero\n      dup2\n      mstore\n      0x20\n      add\n        /* \"Practice/Voting_Struct.sol\":1655:1665  msg.sender */\n      caller\n        /* \"Practice/Voting_Struct.sol\":1635:1666  Voter(id,name,false,msg.sender) */\n      0xffffffffffffffffffffffffffffffffffffffff\n      and\n      dup2\n      mstore\n      pop\n        /* \"Practice/Voting_Struct.sol\":1622:1628  Voters */\n      0x04\n        /* \"Practice/Voting_Struct.sol\":1622:1632  Voters[id] */\n      0x00\n        /* \"Practice/Voting_Struct.sol\":1629:1631  id */\n      dup5\n        /* \"Practice/Voting_Struct.sol\":1622:1632  Voters[id] */\n      dup2\n      mstore\n      0x20\n      add\n      swap1\n      dup2\n      mstore\n      0x20\n      add\n      0x00\n      keccak256\n        /* \"Practice/Voting_Struct.sol\":1622:1666  Voters[id] = Voter(id,name,false,msg.sender) */\n      0x00\n      dup3\n      add\n      mload\n      dup2\n      0x00\n      add\n      sstore\n      0x20\n      dup3\n      add\n      mload\n      dup2\n      0x01\n      add\n      swap1\n      dup1\n      mload\n      swap1\n      0x20\n      add\n      swap1\n      tag_56\n      swap3\n      swap2\n      swap1\n      tag_57\n      jump\t// in\n    tag_56:\n      pop\n      0x40\n      dup3\n      add\n      mload\n      dup2\n      0x02\n      add\n      exp(0x0100, 0x00)\n      dup2\n      sload\n      dup2\n      0xff\n      mul\n      not\n      and\n      swap1\n      dup4\n      iszero\n      iszero\n      mul\n      or\n      swap1\n      sstore\n      pop\n      0x60\n      dup3\n      add\n      mload\n      dup2\n      0x02\n      add\n      exp(0x0100, 0x01)\n      dup2\n      sload\n      dup2\n      0xffffffffffffffffffffffffffffffffffffffff\n      mul\n      not\n      and\n      swap1\n      dup4\n      0xffffffffffffffffffffffffffffffffffffffff\n      and\n      mul\n      or\n      swap1\n      sstore\n      pop\n      swap1\n      pop\n      pop\n        /* \"Practice/Voting_Struct.sol\":1684:1722  add_voter(id, name, false, msg.sender) */\n      0xd78e249f8519eaec8cd0c0e527a1502f66d70c8a83de0e215558f3b03bd2ecd1\n        /* \"Practice/Voting_Struct.sol\":1694:1696  id */\n      dup3\n        /* \"Practice/Voting_Struct.sol\":1698:1702  name */\n      dup3\n        /* \"Practice/Voting_Struct.sol\":1704:1709  false */\n      0x00\n        /* \"Practice/Voting_Struct.sol\":1711:1721  msg.sender */\n      caller\n        /* \"Practice/Voting_Struct.sol\":1684:1722  add_voter(id, name, false, msg.sender) */\n      mload(0x40)\n      tag_58\n      swap5\n      swap4\n      swap3\n      swap2\n      swap1\n      tag_59\n      jump\t// in\n    tag_58:\n      mload(0x40)\n      dup1\n      swap2\n      sub\n      swap1\n      log1\n        /* \"Practice/Voting_Struct.sol\":1320:1730  function addVoter(uint id, string memory name) public{\r... */\n      pop\n      pop\n      jump\t// out\n        /* \"Practice/Voting_Struct.sol\":709:986  function addParty(uint id, string memory name) public checkOwner{\r... */\n    tag_22:\n        /* \"Practice/Voting_Struct.sol\":437:447  msg.sender */\n      caller\n        /* \"Practice/Voting_Struct.sol\":430:447  owner==msg.sender */\n      0xffffffffffffffffffffffffffffffffffffffff\n      and\n        /* \"Practice/Voting_Struct.sol\":430:435  owner */\n      0x00\n      dup1\n      sload\n      swap1\n      0x0100\n      exp\n      swap1\n      div\n      0xffffffffffffffffffffffffffffffffffffffff\n      and\n        /* \"Practice/Voting_Struct.sol\":430:447  owner==msg.sender */\n      0xffffffffffffffffffffffffffffffffffffffff\n      and\n      eq\n        /* \"Practice/Voting_Struct.sol\":422:464  require(owner==msg.sender,\"Access Denied\") */\n      tag_61\n      jumpi\n      mload(0x40)\n      0x08c379a000000000000000000000000000000000000000000000000000000000\n      dup2\n      mstore\n      0x04\n      add\n      tag_62\n      swap1\n      tag_63\n      jump\t// in\n    tag_62:\n      mload(0x40)\n      dup1\n      swap2\n      sub\n      swap1\n      revert\n    tag_61:\n        /* \"Practice/Voting_Struct.sol\":793:805  isPartyExist */\n      0x02\n        /* \"Practice/Voting_Struct.sol\":793:809  isPartyExist[id] */\n      0x00\n        /* \"Practice/Voting_Struct.sol\":806:808  id */\n      dup4\n        /* \"Practice/Voting_Struct.sol\":793:809  isPartyExist[id] */\n      dup2\n      mstore\n      0x20\n      add\n      swap1\n      dup2\n      mstore\n      0x20\n      add\n      0x00\n      keccak256\n      0x00\n      swap1\n      sload\n      swap1\n      0x0100\n      exp\n      swap1\n      div\n      0xff\n      and\n        /* \"Practice/Voting_Struct.sol\":792:809  !isPartyExist[id] */\n      iszero\n        /* \"Practice/Voting_Struct.sol\":784:834  require(!isPartyExist[id],\"Party already existed\") */\n      tag_65\n      jumpi\n      mload(0x40)\n      0x08c379a000000000000000000000000000000000000000000000000000000000\n      dup2\n      mstore\n      0x04\n      add\n      tag_66\n      swap1\n      tag_67\n      jump\t// in\n    tag_66:\n      mload(0x40)\n      dup1\n      swap2\n      sub\n      swap1\n      revert\n    tag_65:\n        /* \"Practice/Voting_Struct.sol\":845:856  allPartyIds */\n      0x03\n        /* \"Practice/Voting_Struct.sol\":862:864  id */\n      dup3\n        /* \"Practice/Voting_Struct.sol\":845:865  allPartyIds.push(id) */\n      swap1\n      dup1\n      0x01\n      dup2\n      sload\n      add\n      dup1\n      dup3\n      sstore\n      dup1\n      swap2\n      pop\n      pop\n      0x01\n      swap1\n      sub\n      swap1\n      0x00\n      mstore\n      keccak256(0x00, 0x20)\n      add\n      0x00\n      swap1\n      swap2\n      swap1\n      swap2\n      swap1\n      swap2\n      pop\n      sstore\n        /* \"Practice/Voting_Struct.sol\":893:897  true */\n      0x01\n        /* \"Practice/Voting_Struct.sol\":876:888  isPartyExist */\n      0x02\n        /* \"Practice/Voting_Struct.sol\":876:892  isPartyExist[id] */\n      0x00\n        /* \"Practice/Voting_Struct.sol\":889:891  id */\n      dup5\n        /* \"Practice/Voting_Struct.sol\":876:892  isPartyExist[id] */\n      dup2\n      mstore\n      0x20\n      add\n      swap1\n      dup2\n      mstore\n      0x20\n      add\n      0x00\n      keccak256\n      0x00\n        /* \"Practice/Voting_Struct.sol\":876:897  isPartyExist[id]=true */\n      0x0100\n      exp\n      dup2\n      sload\n      dup2\n      0xff\n      mul\n      not\n      and\n      swap1\n      dup4\n      iszero\n      iszero\n      mul\n      or\n      swap1\n      sstore\n      pop\n        /* \"Practice/Voting_Struct.sol\":922:938  Party(id,name,0) */\n      mload(0x40)\n      dup1\n      0x60\n      add\n      0x40\n      mstore\n      dup1\n        /* \"Practice/Voting_Struct.sol\":928:930  id */\n      dup4\n        /* \"Practice/Voting_Struct.sol\":922:938  Party(id,name,0) */\n      dup2\n      mstore\n      0x20\n      add\n        /* \"Practice/Voting_Struct.sol\":931:935  name */\n      dup3\n        /* \"Practice/Voting_Struct.sol\":922:938  Party(id,name,0) */\n      dup2\n      mstore\n      0x20\n      add\n        /* \"Practice/Voting_Struct.sol\":936:937  0 */\n      0x00\n        /* \"Practice/Voting_Struct.sol\":922:938  Party(id,name,0) */\n      dup2\n      mstore\n      pop\n        /* \"Practice/Voting_Struct.sol\":908:915  parties */\n      0x01\n        /* \"Practice/Voting_Struct.sol\":908:919  parties[id] */\n      0x00\n        /* \"Practice/Voting_Struct.sol\":916:918  id */\n      dup5\n        /* \"Practice/Voting_Struct.sol\":908:919  parties[id] */\n      dup2\n      mstore\n      0x20\n      add\n      swap1\n      dup2\n      mstore\n      0x20\n      add\n      0x00\n      keccak256\n        /* \"Practice/Voting_Struct.sol\":908:938  parties[id] = Party(id,name,0) */\n      0x00\n      dup3\n      add\n      mload\n      dup2\n      0x00\n      add\n      sstore\n      0x20\n      dup3\n      add\n      mload\n      dup2\n      0x01\n      add\n      swap1\n      dup1\n      mload\n      swap1\n      0x20\n      add\n      swap1\n      tag_69\n      swap3\n      swap2\n      swap1\n      tag_57\n      jump\t// in\n    tag_69:\n      pop\n      0x40\n      dup3\n      add\n      mload\n      dup2\n      0x02\n      add\n      sstore\n      swap1\n      pop\n      pop\n        /* \"Practice/Voting_Struct.sol\":956:978  add_party(id, name, 0) */\n      0x86ac2b5946a8df21eb1e170aeeab7a464d33b582f742103b0833f9f89dc8d814\n        /* \"Practice/Voting_Struct.sol\":966:968  id */\n      dup3\n        /* \"Practice/Voting_Struct.sol\":970:974  name */\n      dup3\n        /* \"Practice/Voting_Struct.sol\":976:977  0 */\n      0x00\n        /* \"Practice/Voting_Struct.sol\":956:978  add_party(id, name, 0) */\n      mload(0x40)\n      tag_70\n      swap4\n      swap3\n      swap2\n      swap1\n      tag_71\n      jump\t// in\n    tag_70:\n      mload(0x40)\n      dup1\n      swap2\n      sub\n      swap1\n      log1\n        /* \"Practice/Voting_Struct.sol\":709:986  function addParty(uint id, string memory name) public checkOwner{\r... */\n      pop\n      pop\n      jump\t// out\n    tag_57:\n      dup3\n      dup1\n      sload\n      tag_72\n      swap1\n      tag_42\n      jump\t// in\n    tag_72:\n      swap1\n      0x00\n      mstore\n      keccak256(0x00, 0x20)\n      swap1\n      0x1f\n      add\n      0x20\n      swap1\n      div\n      dup2\n      add\n      swap3\n      dup3\n      tag_74\n      jumpi\n      0x00\n      dup6\n      sstore\n      jump(tag_73)\n    tag_74:\n      dup3\n      0x1f\n      lt\n      tag_75\n      jumpi\n      dup1\n      mload\n      not(0xff)\n      and\n      dup4\n      dup1\n      add\n      or\n      dup6\n      sstore\n      jump(tag_73)\n    tag_75:\n      dup3\n      dup1\n      add\n      0x01\n      add\n      dup6\n      sstore\n      dup3\n      iszero\n      tag_73\n      jumpi\n      swap2\n      dup3\n      add\n    tag_76:\n      dup3\n      dup2\n      gt\n      iszero\n      tag_77\n      jumpi\n      dup3\n      mload\n      dup3\n      sstore\n      swap2\n      0x20\n      add\n      swap2\n      swap1\n      0x01\n      add\n      swap1\n      jump(tag_76)\n    tag_77:\n    tag_73:\n      pop\n      swap1\n      pop\n      tag_78\n      swap2\n      swap1\n      tag_79\n      jump\t// in\n    tag_78:\n      pop\n      swap1\n      jump\t// out\n    tag_79:\n    tag_80:\n      dup1\n      dup3\n      gt\n      iszero\n      tag_81\n      jumpi\n      0x00\n      dup2\n      0x00\n      swap1\n      sstore\n      pop\n      0x01\n      add\n      jump(tag_80)\n    tag_81:\n      pop\n      swap1\n      jump\t// out\n        /* \"#utility.yul\":7:351   */\n    tag_83:\n      0x00\n        /* \"#utility.yul\":110:175   */\n      tag_85\n        /* \"#utility.yul\":125:174   */\n      tag_86\n        /* \"#utility.yul\":167:173   */\n      dup5\n        /* \"#utility.yul\":125:174   */\n      tag_87\n      jump\t// in\n    tag_86:\n        /* \"#utility.yul\":110:175   */\n      tag_88\n      jump\t// in\n    tag_85:\n        /* \"#utility.yul\":101:175   */\n      swap1\n      pop\n        /* \"#utility.yul\":198:204   */\n      dup3\n        /* \"#utility.yul\":191:196   */\n      dup2\n        /* \"#utility.yul\":184:205   */\n      mstore\n        /* \"#utility.yul\":236:240   */\n      0x20\n        /* \"#utility.yul\":229:234   */\n      dup2\n        /* \"#utility.yul\":225:241   */\n      add\n        /* \"#utility.yul\":274:277   */\n      dup5\n        /* \"#utility.yul\":265:271   */\n      dup5\n        /* \"#utility.yul\":260:263   */\n      dup5\n        /* \"#utility.yul\":256:272   */\n      add\n        /* \"#utility.yul\":253:278   */\n      gt\n        /* \"#utility.yul\":250:252   */\n      iszero\n      tag_89\n      jumpi\n        /* \"#utility.yul\":291:292   */\n      0x00\n        /* \"#utility.yul\":288:289   */\n      dup1\n        /* \"#utility.yul\":281:293   */\n      revert\n        /* \"#utility.yul\":250:252   */\n    tag_89:\n        /* \"#utility.yul\":304:345   */\n      tag_90\n        /* \"#utility.yul\":338:344   */\n      dup5\n        /* \"#utility.yul\":333:336   */\n      dup3\n        /* \"#utility.yul\":328:331   */\n      dup6\n        /* \"#utility.yul\":304:345   */\n      tag_91\n      jump\t// in\n    tag_90:\n        /* \"#utility.yul\":91:351   */\n      pop\n      swap4\n      swap3\n      pop\n      pop\n      pop\n      jump\t// out\n        /* \"#utility.yul\":371:644   */\n    tag_92:\n      0x00\n        /* \"#utility.yul\":476:479   */\n      dup3\n        /* \"#utility.yul\":469:473   */\n      0x1f\n        /* \"#utility.yul\":461:467   */\n      dup4\n        /* \"#utility.yul\":457:474   */\n      add\n        /* \"#utility.yul\":453:480   */\n      slt\n        /* \"#utility.yul\":443:445   */\n      tag_94\n      jumpi\n        /* \"#utility.yul\":494:495   */\n      0x00\n        /* \"#utility.yul\":491:492   */\n      dup1\n        /* \"#utility.yul\":484:496   */\n      revert\n        /* \"#utility.yul\":443:445   */\n    tag_94:\n        /* \"#utility.yul\":534:540   */\n      dup2\n        /* \"#utility.yul\":521:541   */\n      calldataload\n        /* \"#utility.yul\":559:638   */\n      tag_95\n        /* \"#utility.yul\":634:637   */\n      dup5\n        /* \"#utility.yul\":626:632   */\n      dup3\n        /* \"#utility.yul\":619:623   */\n      0x20\n        /* \"#utility.yul\":611:617   */\n      dup7\n        /* \"#utility.yul\":607:624   */\n      add\n        /* \"#utility.yul\":559:638   */\n      tag_83\n      jump\t// in\n    tag_95:\n        /* \"#utility.yul\":550:638   */\n      swap2\n      pop\n        /* \"#utility.yul\":433:644   */\n      pop\n      swap3\n      swap2\n      pop\n      pop\n      jump\t// out\n        /* \"#utility.yul\":650:789   */\n    tag_96:\n      0x00\n        /* \"#utility.yul\":734:740   */\n      dup2\n        /* \"#utility.yul\":721:741   */\n      calldataload\n        /* \"#utility.yul\":712:741   */\n      swap1\n      pop\n        /* \"#utility.yul\":750:783   */\n      tag_98\n        /* \"#utility.yul\":777:782   */\n      dup2\n        /* \"#utility.yul\":750:783   */\n      tag_99\n      jump\t// in\n    tag_98:\n        /* \"#utility.yul\":702:789   */\n      swap3\n      swap2\n      pop\n      pop\n      jump\t// out\n        /* \"#utility.yul\":795:1057   */\n    tag_9:\n      0x00\n        /* \"#utility.yul\":903:905   */\n      0x20\n        /* \"#utility.yul\":891:900   */\n      dup3\n        /* \"#utility.yul\":882:889   */\n      dup5\n        /* \"#utility.yul\":878:901   */\n      sub\n        /* \"#utility.yul\":874:906   */\n      slt\n        /* \"#utility.yul\":871:873   */\n      iszero\n      tag_101\n      jumpi\n        /* \"#utility.yul\":919:920   */\n      0x00\n        /* \"#utility.yul\":916:917   */\n      dup1\n        /* \"#utility.yul\":909:921   */\n      revert\n        /* \"#utility.yul\":871:873   */\n    tag_101:\n        /* \"#utility.yul\":962:963   */\n      0x00\n        /* \"#utility.yul\":987:1040   */\n      tag_102\n        /* \"#utility.yul\":1032:1039   */\n      dup5\n        /* \"#utility.yul\":1023:1029   */\n      dup3\n        /* \"#utility.yul\":1012:1021   */\n      dup6\n        /* \"#utility.yul\":1008:1030   */\n      add\n        /* \"#utility.yul\":987:1040   */\n      tag_96\n      jump\t// in\n    tag_102:\n        /* \"#utility.yul\":977:1040   */\n      swap2\n      pop\n        /* \"#utility.yul\":933:1050   */\n      pop\n        /* \"#utility.yul\":861:1057   */\n      swap3\n      swap2\n      pop\n      pop\n      jump\t// out\n        /* \"#utility.yul\":1063:1583   */\n    tag_18:\n      0x00\n      dup1\n        /* \"#utility.yul\":1198:1200   */\n      0x40\n        /* \"#utility.yul\":1186:1195   */\n      dup4\n        /* \"#utility.yul\":1177:1184   */\n      dup6\n        /* \"#utility.yul\":1173:1196   */\n      sub\n        /* \"#utility.yul\":1169:1201   */\n      slt\n        /* \"#utility.yul\":1166:1168   */\n      iszero\n      tag_104\n      jumpi\n        /* \"#utility.yul\":1214:1215   */\n      0x00\n        /* \"#utility.yul\":1211:1212   */\n      dup1\n        /* \"#utility.yul\":1204:1216   */\n      revert\n        /* \"#utility.yul\":1166:1168   */\n    tag_104:\n        /* \"#utility.yul\":1257:1258   */\n      0x00\n        /* \"#utility.yul\":1282:1335   */\n      tag_105\n        /* \"#utility.yul\":1327:1334   */\n      dup6\n        /* \"#utility.yul\":1318:1324   */\n      dup3\n        /* \"#utility.yul\":1307:1316   */\n      dup7\n        /* \"#utility.yul\":1303:1325   */\n      add\n        /* \"#utility.yul\":1282:1335   */\n      tag_96\n      jump\t// in\n    tag_105:\n        /* \"#utility.yul\":1272:1335   */\n      swap3\n      pop\n        /* \"#utility.yul\":1228:1345   */\n      pop\n        /* \"#utility.yul\":1412:1414   */\n      0x20\n        /* \"#utility.yul\":1401:1410   */\n      dup4\n        /* \"#utility.yul\":1397:1415   */\n      add\n        /* \"#utility.yul\":1384:1416   */\n      calldataload\n        /* \"#utility.yul\":1443:1461   */\n      0xffffffffffffffff\n        /* \"#utility.yul\":1435:1441   */\n      dup2\n        /* \"#utility.yul\":1432:1462   */\n      gt\n        /* \"#utility.yul\":1429:1431   */\n      iszero\n      tag_106\n      jumpi\n        /* \"#utility.yul\":1475:1476   */\n      0x00\n        /* \"#utility.yul\":1472:1473   */\n      dup1\n        /* \"#utility.yul\":1465:1477   */\n      revert\n        /* \"#utility.yul\":1429:1431   */\n    tag_106:\n        /* \"#utility.yul\":1503:1566   */\n      tag_107\n        /* \"#utility.yul\":1558:1565   */\n      dup6\n        /* \"#utility.yul\":1549:1555   */\n      dup3\n        /* \"#utility.yul\":1538:1547   */\n      dup7\n        /* \"#utility.yul\":1534:1556   */\n      add\n        /* \"#utility.yul\":1503:1566   */\n      tag_92\n      jump\t// in\n    tag_107:\n        /* \"#utility.yul\":1493:1566   */\n      swap2\n      pop\n        /* \"#utility.yul\":1355:1576   */\n      pop\n        /* \"#utility.yul\":1156:1583   */\n      swap3\n      pop\n      swap3\n      swap1\n      pop\n      jump\t// out\n        /* \"#utility.yul\":1589:1707   */\n    tag_108:\n        /* \"#utility.yul\":1676:1700   */\n      tag_110\n        /* \"#utility.yul\":1694:1699   */\n      dup2\n        /* \"#utility.yul\":1676:1700   */\n      tag_111\n      jump\t// in\n    tag_110:\n        /* \"#utility.yul\":1671:1674   */\n      dup3\n        /* \"#utility.yul\":1664:1701   */\n      mstore\n        /* \"#utility.yul\":1654:1707   */\n      pop\n      pop\n      jump\t// out\n        /* \"#utility.yul\":1713:1822   */\n    tag_112:\n        /* \"#utility.yul\":1794:1815   */\n      tag_114\n        /* \"#utility.yul\":1809:1814   */\n      dup2\n        /* \"#utility.yul\":1794:1815   */\n      tag_115\n      jump\t// in\n    tag_114:\n        /* \"#utility.yul\":1789:1792   */\n      dup3\n        /* \"#utility.yul\":1782:1816   */\n      mstore\n        /* \"#utility.yul\":1772:1822   */\n      pop\n      pop\n      jump\t// out\n        /* \"#utility.yul\":1828:1975   */\n    tag_116:\n        /* \"#utility.yul\":1923:1968   */\n      tag_118\n        /* \"#utility.yul\":1962:1967   */\n      dup2\n        /* \"#utility.yul\":1923:1968   */\n      tag_119\n      jump\t// in\n    tag_118:\n        /* \"#utility.yul\":1918:1921   */\n      dup3\n        /* \"#utility.yul\":1911:1969   */\n      mstore\n        /* \"#utility.yul\":1901:1975   */\n      pop\n      pop\n      jump\t// out\n        /* \"#utility.yul\":1981:2345   */\n    tag_120:\n      0x00\n        /* \"#utility.yul\":2097:2136   */\n      tag_122\n        /* \"#utility.yul\":2130:2135   */\n      dup3\n        /* \"#utility.yul\":2097:2136   */\n      tag_123\n      jump\t// in\n    tag_122:\n        /* \"#utility.yul\":2152:2223   */\n      tag_124\n        /* \"#utility.yul\":2216:2222   */\n      dup2\n        /* \"#utility.yul\":2211:2214   */\n      dup6\n        /* \"#utility.yul\":2152:2223   */\n      tag_125\n      jump\t// in\n    tag_124:\n        /* \"#utility.yul\":2145:2223   */\n      swap4\n      pop\n        /* \"#utility.yul\":2232:2284   */\n      tag_126\n        /* \"#utility.yul\":2277:2283   */\n      dup2\n        /* \"#utility.yul\":2272:2275   */\n      dup6\n        /* \"#utility.yul\":2265:2269   */\n      0x20\n        /* \"#utility.yul\":2258:2263   */\n      dup7\n        /* \"#utility.yul\":2254:2270   */\n      add\n        /* \"#utility.yul\":2232:2284   */\n      tag_127\n      jump\t// in\n    tag_126:\n        /* \"#utility.yul\":2309:2338   */\n      tag_128\n        /* \"#utility.yul\":2331:2337   */\n      dup2\n        /* \"#utility.yul\":2309:2338   */\n      tag_129\n      jump\t// in\n    tag_128:\n        /* \"#utility.yul\":2304:2307   */\n      dup5\n        /* \"#utility.yul\":2300:2339   */\n      add\n        /* \"#utility.yul\":2293:2339   */\n      swap2\n      pop\n        /* \"#utility.yul\":2073:2345   */\n      pop\n      swap3\n      swap2\n      pop\n      pop\n      jump\t// out\n        /* \"#utility.yul\":2351:2670   */\n    tag_130:\n      0x00\n        /* \"#utility.yul\":2514:2581   */\n      tag_132\n        /* \"#utility.yul\":2578:2580   */\n      0x15\n        /* \"#utility.yul\":2573:2576   */\n      dup4\n        /* \"#utility.yul\":2514:2581   */\n      tag_125\n      jump\t// in\n    tag_132:\n        /* \"#utility.yul\":2507:2581   */\n      swap2\n      pop\n        /* \"#utility.yul\":2611:2634   */\n      0x566f74657220616c726561647920657869737465640000000000000000000000\n        /* \"#utility.yul\":2607:2608   */\n      0x00\n        /* \"#utility.yul\":2602:2605   */\n      dup4\n        /* \"#utility.yul\":2598:2609   */\n      add\n        /* \"#utility.yul\":2591:2635   */\n      mstore\n        /* \"#utility.yul\":2661:2663   */\n      0x20\n        /* \"#utility.yul\":2656:2659   */\n      dup3\n        /* \"#utility.yul\":2652:2664   */\n      add\n        /* \"#utility.yul\":2645:2664   */\n      swap1\n      pop\n        /* \"#utility.yul\":2497:2670   */\n      swap2\n      swap1\n      pop\n      jump\t// out\n        /* \"#utility.yul\":2676:2987   */\n    tag_133:\n      0x00\n        /* \"#utility.yul\":2839:2906   */\n      tag_135\n        /* \"#utility.yul\":2903:2905   */\n      0x0d\n        /* \"#utility.yul\":2898:2901   */\n      dup4\n        /* \"#utility.yul\":2839:2906   */\n      tag_125\n      jump\t// in\n    tag_135:\n        /* \"#utility.yul\":2832:2906   */\n      swap2\n      pop\n        /* \"#utility.yul\":2936:2951   */\n      0x4163636573732044656e69656400000000000000000000000000000000000000\n        /* \"#utility.yul\":2932:2933   */\n      0x00\n        /* \"#utility.yul\":2927:2930   */\n      dup4\n        /* \"#utility.yul\":2923:2934   */\n      add\n        /* \"#utility.yul\":2916:2952   */\n      mstore\n        /* \"#utility.yul\":2978:2980   */\n      0x20\n        /* \"#utility.yul\":2973:2976   */\n      dup3\n        /* \"#utility.yul\":2969:2981   */\n      add\n        /* \"#utility.yul\":2962:2981   */\n      swap1\n      pop\n        /* \"#utility.yul\":2822:2987   */\n      swap2\n      swap1\n      pop\n      jump\t// out\n        /* \"#utility.yul\":2993:3304   */\n    tag_136:\n      0x00\n        /* \"#utility.yul\":3156:3223   */\n      tag_138\n        /* \"#utility.yul\":3220:3222   */\n      0x0d\n        /* \"#utility.yul\":3215:3218   */\n      dup4\n        /* \"#utility.yul\":3156:3223   */\n      tag_125\n      jump\t// in\n    tag_138:\n        /* \"#utility.yul\":3149:3223   */\n      swap2\n      pop\n        /* \"#utility.yul\":3253:3268   */\n      0x416c726561647920766f74656400000000000000000000000000000000000000\n        /* \"#utility.yul\":3249:3250   */\n      0x00\n        /* \"#utility.yul\":3244:3247   */\n      dup4\n        /* \"#utility.yul\":3240:3251   */\n      add\n        /* \"#utility.yul\":3233:3269   */\n      mstore\n        /* \"#utility.yul\":3295:3297   */\n      0x20\n        /* \"#utility.yul\":3290:3293   */\n      dup3\n        /* \"#utility.yul\":3286:3298   */\n      add\n        /* \"#utility.yul\":3279:3298   */\n      swap1\n      pop\n        /* \"#utility.yul\":3139:3304   */\n      swap2\n      swap1\n      pop\n      jump\t// out\n        /* \"#utility.yul\":3310:3631   */\n    tag_139:\n      0x00\n        /* \"#utility.yul\":3473:3540   */\n      tag_141\n        /* \"#utility.yul\":3537:3539   */\n      0x17\n        /* \"#utility.yul\":3532:3535   */\n      dup4\n        /* \"#utility.yul\":3473:3540   */\n      tag_125\n      jump\t// in\n    tag_141:\n        /* \"#utility.yul\":3466:3540   */\n      swap2\n      pop\n        /* \"#utility.yul\":3570:3595   */\n      0x4e6f74207265676973746572656420617320766f746572000000000000000000\n        /* \"#utility.yul\":3566:3567   */\n      0x00\n        /* \"#utility.yul\":3561:3564   */\n      dup4\n        /* \"#utility.yul\":3557:3568   */\n      add\n        /* \"#utility.yul\":3550:3596   */\n      mstore\n        /* \"#utility.yul\":3622:3624   */\n      0x20\n        /* \"#utility.yul\":3617:3620   */\n      dup3\n        /* \"#utility.yul\":3613:3625   */\n      add\n        /* \"#utility.yul\":3606:3625   */\n      swap1\n      pop\n        /* \"#utility.yul\":3456:3631   */\n      swap2\n      swap1\n      pop\n      jump\t// out\n        /* \"#utility.yul\":3637:3948   */\n    tag_142:\n      0x00\n        /* \"#utility.yul\":3800:3867   */\n      tag_144\n        /* \"#utility.yul\":3864:3866   */\n      0x0d\n        /* \"#utility.yul\":3859:3862   */\n      dup4\n        /* \"#utility.yul\":3800:3867   */\n      tag_125\n      jump\t// in\n    tag_144:\n        /* \"#utility.yul\":3793:3867   */\n      swap2\n      pop\n        /* \"#utility.yul\":3897:3912   */\n      0x496e76616c696420706172747900000000000000000000000000000000000000\n        /* \"#utility.yul\":3893:3894   */\n      0x00\n        /* \"#utility.yul\":3888:3891   */\n      dup4\n        /* \"#utility.yul\":3884:3895   */\n      add\n        /* \"#utility.yul\":3877:3913   */\n      mstore\n        /* \"#utility.yul\":3939:3941   */\n      0x20\n        /* \"#utility.yul\":3934:3937   */\n      dup3\n        /* \"#utility.yul\":3930:3942   */\n      add\n        /* \"#utility.yul\":3923:3942   */\n      swap1\n      pop\n        /* \"#utility.yul\":3783:3948   */\n      swap2\n      swap1\n      pop\n      jump\t// out\n        /* \"#utility.yul\":3954:4273   */\n    tag_145:\n      0x00\n        /* \"#utility.yul\":4117:4184   */\n      tag_147\n        /* \"#utility.yul\":4181:4183   */\n      0x15\n        /* \"#utility.yul\":4176:4179   */\n      dup4\n        /* \"#utility.yul\":4117:4184   */\n      tag_125\n      jump\t// in\n    tag_147:\n        /* \"#utility.yul\":4110:4184   */\n      swap2\n      pop\n        /* \"#utility.yul\":4214:4237   */\n      0x506172747920616c726561647920657869737465640000000000000000000000\n        /* \"#utility.yul\":4210:4211   */\n      0x00\n        /* \"#utility.yul\":4205:4208   */\n      dup4\n        /* \"#utility.yul\":4201:4212   */\n      add\n        /* \"#utility.yul\":4194:4238   */\n      mstore\n        /* \"#utility.yul\":4264:4266   */\n      0x20\n        /* \"#utility.yul\":4259:4262   */\n      dup3\n        /* \"#utility.yul\":4255:4267   */\n      add\n        /* \"#utility.yul\":4248:4267   */\n      swap1\n      pop\n        /* \"#utility.yul\":4100:4273   */\n      swap2\n      swap1\n      pop\n      jump\t// out\n        /* \"#utility.yul\":4279:4592   */\n    tag_148:\n      0x00\n        /* \"#utility.yul\":4442:4509   */\n      tag_150\n        /* \"#utility.yul\":4506:4508   */\n      0x0f\n        /* \"#utility.yul\":4501:4504   */\n      dup4\n        /* \"#utility.yul\":4442:4509   */\n      tag_125\n      jump\t// in\n    tag_150:\n        /* \"#utility.yul\":4435:4509   */\n      swap2\n      pop\n        /* \"#utility.yul\":4539:4556   */\n      0x5061727479206e6f7420666f756e640000000000000000000000000000000000\n        /* \"#utility.yul\":4535:4536   */\n      0x00\n        /* \"#utility.yul\":4530:4533   */\n      dup4\n        /* \"#utility.yul\":4526:4537   */\n      add\n        /* \"#utility.yul\":4519:4557   */\n      mstore\n        /* \"#utility.yul\":4583:4585   */\n      0x20\n        /* \"#utility.yul\":4578:4581   */\n      dup3\n        /* \"#utility.yul\":4574:4586   */\n      add\n        /* \"#utility.yul\":4567:4586   */\n      swap1\n      pop\n        /* \"#utility.yul\":4425:4592   */\n      swap2\n      swap1\n      pop\n      jump\t// out\n        /* \"#utility.yul\":4598:4716   */\n    tag_151:\n        /* \"#utility.yul\":4685:4709   */\n      tag_153\n        /* \"#utility.yul\":4703:4708   */\n      dup2\n        /* \"#utility.yul\":4685:4709   */\n      tag_154\n      jump\t// in\n    tag_153:\n        /* \"#utility.yul\":4680:4683   */\n      dup3\n        /* \"#utility.yul\":4673:4710   */\n      mstore\n        /* \"#utility.yul\":4663:4716   */\n      pop\n      pop\n      jump\t// out\n        /* \"#utility.yul\":4722:5145   */\n    tag_15:\n      0x00\n        /* \"#utility.yul\":4901:4903   */\n      0x40\n        /* \"#utility.yul\":4890:4899   */\n      dup3\n        /* \"#utility.yul\":4886:4904   */\n      add\n        /* \"#utility.yul\":4878:4904   */\n      swap1\n      pop\n        /* \"#utility.yul\":4950:4959   */\n      dup2\n        /* \"#utility.yul\":4944:4948   */\n      dup2\n        /* \"#utility.yul\":4940:4960   */\n      sub\n        /* \"#utility.yul\":4936:4937   */\n      0x00\n        /* \"#utility.yul\":4925:4934   */\n      dup4\n        /* \"#utility.yul\":4921:4938   */\n      add\n        /* \"#utility.yul\":4914:4961   */\n      mstore\n        /* \"#utility.yul\":4978:5056   */\n      tag_156\n        /* \"#utility.yul\":5051:5055   */\n      dup2\n        /* \"#utility.yul\":5042:5048   */\n      dup6\n        /* \"#utility.yul\":4978:5056   */\n      tag_120\n      jump\t// in\n    tag_156:\n        /* \"#utility.yul\":4970:5056   */\n      swap1\n      pop\n        /* \"#utility.yul\":5066:5138   */\n      tag_157\n        /* \"#utility.yul\":5134:5136   */\n      0x20\n        /* \"#utility.yul\":5123:5132   */\n      dup4\n        /* \"#utility.yul\":5119:5137   */\n      add\n        /* \"#utility.yul\":5110:5116   */\n      dup5\n        /* \"#utility.yul\":5066:5138   */\n      tag_151\n      jump\t// in\n    tag_157:\n        /* \"#utility.yul\":4868:5145   */\n      swap4\n      swap3\n      pop\n      pop\n      pop\n      jump\t// out\n        /* \"#utility.yul\":5151:5570   */\n    tag_52:\n      0x00\n        /* \"#utility.yul\":5355:5357   */\n      0x20\n        /* \"#utility.yul\":5344:5353   */\n      dup3\n        /* \"#utility.yul\":5340:5358   */\n      add\n        /* \"#utility.yul\":5332:5358   */\n      swap1\n      pop\n        /* \"#utility.yul\":5404:5413   */\n      dup2\n        /* \"#utility.yul\":5398:5402   */\n      dup2\n        /* \"#utility.yul\":5394:5414   */\n      sub\n        /* \"#utility.yul\":5390:5391   */\n      0x00\n        /* \"#utility.yul\":5379:5388   */\n      dup4\n        /* \"#utility.yul\":5375:5392   */\n      add\n        /* \"#utility.yul\":5368:5415   */\n      mstore\n        /* \"#utility.yul\":5432:5563   */\n      tag_159\n        /* \"#utility.yul\":5558:5562   */\n      dup2\n        /* \"#utility.yul\":5432:5563   */\n      tag_130\n      jump\t// in\n    tag_159:\n        /* \"#utility.yul\":5424:5563   */\n      swap1\n      pop\n        /* \"#utility.yul\":5322:5570   */\n      swap2\n      swap1\n      pop\n      jump\t// out\n        /* \"#utility.yul\":5576:5995   */\n    tag_63:\n      0x00\n        /* \"#utility.yul\":5780:5782   */\n      0x20\n        /* \"#utility.yul\":5769:5778   */\n      dup3\n        /* \"#utility.yul\":5765:5783   */\n      add\n        /* \"#utility.yul\":5757:5783   */\n      swap1\n      pop\n        /* \"#utility.yul\":5829:5838   */\n      dup2\n        /* \"#utility.yul\":5823:5827   */\n      dup2\n        /* \"#utility.yul\":5819:5839   */\n      sub\n        /* \"#utility.yul\":5815:5816   */\n      0x00\n        /* \"#utility.yul\":5804:5813   */\n      dup4\n        /* \"#utility.yul\":5800:5817   */\n      add\n        /* \"#utility.yul\":5793:5840   */\n      mstore\n        /* \"#utility.yul\":5857:5988   */\n      tag_161\n        /* \"#utility.yul\":5983:5987   */\n      dup2\n        /* \"#utility.yul\":5857:5988   */\n      tag_133\n      jump\t// in\n    tag_161:\n        /* \"#utility.yul\":5849:5988   */\n      swap1\n      pop\n        /* \"#utility.yul\":5747:5995   */\n      swap2\n      swap1\n      pop\n      jump\t// out\n        /* \"#utility.yul\":6001:6420   */\n    tag_29:\n      0x00\n        /* \"#utility.yul\":6205:6207   */\n      0x20\n        /* \"#utility.yul\":6194:6203   */\n      dup3\n        /* \"#utility.yul\":6190:6208   */\n      add\n        /* \"#utility.yul\":6182:6208   */\n      swap1\n      pop\n        /* \"#utility.yul\":6254:6263   */\n      dup2\n        /* \"#utility.yul\":6248:6252   */\n      dup2\n        /* \"#utility.yul\":6244:6264   */\n      sub\n        /* \"#utility.yul\":6240:6241   */\n      0x00\n        /* \"#utility.yul\":6229:6238   */\n      dup4\n        /* \"#utility.yul\":6225:6242   */\n      add\n        /* \"#utility.yul\":6218:6265   */\n      mstore\n        /* \"#utility.yul\":6282:6413   */\n      tag_163\n        /* \"#utility.yul\":6408:6412   */\n      dup2\n        /* \"#utility.yul\":6282:6413   */\n      tag_136\n      jump\t// in\n    tag_163:\n        /* \"#utility.yul\":6274:6413   */\n      swap1\n      pop\n        /* \"#utility.yul\":6172:6420   */\n      swap2\n      swap1\n      pop\n      jump\t// out\n        /* \"#utility.yul\":6426:6845   */\n    tag_26:\n      0x00\n        /* \"#utility.yul\":6630:6632   */\n      0x20\n        /* \"#utility.yul\":6619:6628   */\n      dup3\n        /* \"#utility.yul\":6615:6633   */\n      add\n        /* \"#utility.yul\":6607:6633   */\n      swap1\n      pop\n        /* \"#utility.yul\":6679:6688   */\n      dup2\n        /* \"#utility.yul\":6673:6677   */\n      dup2\n        /* \"#utility.yul\":6669:6689   */\n      sub\n        /* \"#utility.yul\":6665:6666   */\n      0x00\n        /* \"#utility.yul\":6654:6663   */\n      dup4\n        /* \"#utility.yul\":6650:6667   */\n      add\n        /* \"#utility.yul\":6643:6690   */\n      mstore\n        /* \"#utility.yul\":6707:6838   */\n      tag_165\n        /* \"#utility.yul\":6833:6837   */\n      dup2\n        /* \"#utility.yul\":6707:6838   */\n      tag_139\n      jump\t// in\n    tag_165:\n        /* \"#utility.yul\":6699:6838   */\n      swap1\n      pop\n        /* \"#utility.yul\":6597:6845   */\n      swap2\n      swap1\n      pop\n      jump\t// out\n        /* \"#utility.yul\":6851:7270   */\n    tag_32:\n      0x00\n        /* \"#utility.yul\":7055:7057   */\n      0x20\n        /* \"#utility.yul\":7044:7053   */\n      dup3\n        /* \"#utility.yul\":7040:7058   */\n      add\n        /* \"#utility.yul\":7032:7058   */\n      swap1\n      pop\n        /* \"#utility.yul\":7104:7113   */\n      dup2\n        /* \"#utility.yul\":7098:7102   */\n      dup2\n        /* \"#utility.yul\":7094:7114   */\n      sub\n        /* \"#utility.yul\":7090:7091   */\n      0x00\n        /* \"#utility.yul\":7079:7088   */\n      dup4\n        /* \"#utility.yul\":7075:7092   */\n      add\n        /* \"#utility.yul\":7068:7115   */\n      mstore\n        /* \"#utility.yul\":7132:7263   */\n      tag_167\n        /* \"#utility.yul\":7258:7262   */\n      dup2\n        /* \"#utility.yul\":7132:7263   */\n      tag_142\n      jump\t// in\n    tag_167:\n        /* \"#utility.yul\":7124:7263   */\n      swap1\n      pop\n        /* \"#utility.yul\":7022:7270   */\n      swap2\n      swap1\n      pop\n      jump\t// out\n        /* \"#utility.yul\":7276:7695   */\n    tag_67:\n      0x00\n        /* \"#utility.yul\":7480:7482   */\n      0x20\n        /* \"#utility.yul\":7469:7478   */\n      dup3\n        /* \"#utility.yul\":7465:7483   */\n      add\n        /* \"#utility.yul\":7457:7483   */\n      swap1\n      pop\n        /* \"#utility.yul\":7529:7538   */\n      dup2\n        /* \"#utility.yul\":7523:7527   */\n      dup2\n        /* \"#utility.yul\":7519:7539   */\n      sub\n        /* \"#utility.yul\":7515:7516   */\n      0x00\n        /* \"#utility.yul\":7504:7513   */\n      dup4\n        /* \"#utility.yul\":7500:7517   */\n      add\n        /* \"#utility.yul\":7493:7540   */\n      mstore\n        /* \"#utility.yul\":7557:7688   */\n      tag_169\n        /* \"#utility.yul\":7683:7687   */\n      dup2\n        /* \"#utility.yul\":7557:7688   */\n      tag_145\n      jump\t// in\n    tag_169:\n        /* \"#utility.yul\":7549:7688   */\n      swap1\n      pop\n        /* \"#utility.yul\":7447:7695   */\n      swap2\n      swap1\n      pop\n      jump\t// out\n        /* \"#utility.yul\":7701:8120   */\n    tag_40:\n      0x00\n        /* \"#utility.yul\":7905:7907   */\n      0x20\n        /* \"#utility.yul\":7894:7903   */\n      dup3\n        /* \"#utility.yul\":7890:7908   */\n      add\n        /* \"#utility.yul\":7882:7908   */\n      swap1\n      pop\n        /* \"#utility.yul\":7954:7963   */\n      dup2\n        /* \"#utility.yul\":7948:7952   */\n      dup2\n        /* \"#utility.yul\":7944:7964   */\n      sub\n        /* \"#utility.yul\":7940:7941   */\n      0x00\n        /* \"#utility.yul\":7929:7938   */\n      dup4\n        /* \"#utility.yul\":7925:7942   */\n      add\n        /* \"#utility.yul\":7918:7965   */\n      mstore\n        /* \"#utility.yul\":7982:8113   */\n      tag_171\n        /* \"#utility.yul\":8108:8112   */\n      dup2\n        /* \"#utility.yul\":7982:8113   */\n      tag_148\n      jump\t// in\n    tag_171:\n        /* \"#utility.yul\":7974:8113   */\n      swap1\n      pop\n        /* \"#utility.yul\":7872:8120   */\n      swap2\n      swap1\n      pop\n      jump\t// out\n        /* \"#utility.yul\":8126:8458   */\n    tag_36:\n      0x00\n        /* \"#utility.yul\":8285:8287   */\n      0x40\n        /* \"#utility.yul\":8274:8283   */\n      dup3\n        /* \"#utility.yul\":8270:8288   */\n      add\n        /* \"#utility.yul\":8262:8288   */\n      swap1\n      pop\n        /* \"#utility.yul\":8298:8369   */\n      tag_173\n        /* \"#utility.yul\":8366:8367   */\n      0x00\n        /* \"#utility.yul\":8355:8364   */\n      dup4\n        /* \"#utility.yul\":8351:8368   */\n      add\n        /* \"#utility.yul\":8342:8348   */\n      dup6\n        /* \"#utility.yul\":8298:8369   */\n      tag_151\n      jump\t// in\n    tag_173:\n        /* \"#utility.yul\":8379:8451   */\n      tag_174\n        /* \"#utility.yul\":8447:8449   */\n      0x20\n        /* \"#utility.yul\":8436:8445   */\n      dup4\n        /* \"#utility.yul\":8432:8450   */\n      add\n        /* \"#utility.yul\":8423:8429   */\n      dup5\n        /* \"#utility.yul\":8379:8451   */\n      tag_108\n      jump\t// in\n    tag_174:\n        /* \"#utility.yul\":8252:8458   */\n      swap4\n      swap3\n      pop\n      pop\n      pop\n      jump\t// out\n        /* \"#utility.yul\":8464:9096   */\n    tag_59:\n      0x00\n        /* \"#utility.yul\":8693:8696   */\n      0x80\n        /* \"#utility.yul\":8682:8691   */\n      dup3\n        /* \"#utility.yul\":8678:8697   */\n      add\n        /* \"#utility.yul\":8670:8697   */\n      swap1\n      pop\n        /* \"#utility.yul\":8707:8778   */\n      tag_176\n        /* \"#utility.yul\":8775:8776   */\n      0x00\n        /* \"#utility.yul\":8764:8773   */\n      dup4\n        /* \"#utility.yul\":8760:8777   */\n      add\n        /* \"#utility.yul\":8751:8757   */\n      dup8\n        /* \"#utility.yul\":8707:8778   */\n      tag_151\n      jump\t// in\n    tag_176:\n        /* \"#utility.yul\":8825:8834   */\n      dup2\n        /* \"#utility.yul\":8819:8823   */\n      dup2\n        /* \"#utility.yul\":8815:8835   */\n      sub\n        /* \"#utility.yul\":8810:8812   */\n      0x20\n        /* \"#utility.yul\":8799:8808   */\n      dup4\n        /* \"#utility.yul\":8795:8813   */\n      add\n        /* \"#utility.yul\":8788:8836   */\n      mstore\n        /* \"#utility.yul\":8853:8931   */\n      tag_177\n        /* \"#utility.yul\":8926:8930   */\n      dup2\n        /* \"#utility.yul\":8917:8923   */\n      dup7\n        /* \"#utility.yul\":8853:8931   */\n      tag_120\n      jump\t// in\n    tag_177:\n        /* \"#utility.yul\":8845:8931   */\n      swap1\n      pop\n        /* \"#utility.yul\":8941:9007   */\n      tag_178\n        /* \"#utility.yul\":9003:9005   */\n      0x40\n        /* \"#utility.yul\":8992:9001   */\n      dup4\n        /* \"#utility.yul\":8988:9006   */\n      add\n        /* \"#utility.yul\":8979:8985   */\n      dup6\n        /* \"#utility.yul\":8941:9007   */\n      tag_112\n      jump\t// in\n    tag_178:\n        /* \"#utility.yul\":9017:9089   */\n      tag_179\n        /* \"#utility.yul\":9085:9087   */\n      0x60\n        /* \"#utility.yul\":9074:9083   */\n      dup4\n        /* \"#utility.yul\":9070:9088   */\n      add\n        /* \"#utility.yul\":9061:9067   */\n      dup5\n        /* \"#utility.yul\":9017:9089   */\n      tag_108\n      jump\t// in\n    tag_179:\n        /* \"#utility.yul\":8660:9096   */\n      swap6\n      swap5\n      pop\n      pop\n      pop\n      pop\n      pop\n      jump\t// out\n        /* \"#utility.yul\":9102:9651   */\n    tag_71:\n      0x00\n        /* \"#utility.yul\":9317:9319   */\n      0x60\n        /* \"#utility.yul\":9306:9315   */\n      dup3\n        /* \"#utility.yul\":9302:9320   */\n      add\n        /* \"#utility.yul\":9294:9320   */\n      swap1\n      pop\n        /* \"#utility.yul\":9330:9401   */\n      tag_181\n        /* \"#utility.yul\":9398:9399   */\n      0x00\n        /* \"#utility.yul\":9387:9396   */\n      dup4\n        /* \"#utility.yul\":9383:9400   */\n      add\n        /* \"#utility.yul\":9374:9380   */\n      dup7\n        /* \"#utility.yul\":9330:9401   */\n      tag_151\n      jump\t// in\n    tag_181:\n        /* \"#utility.yul\":9448:9457   */\n      dup2\n        /* \"#utility.yul\":9442:9446   */\n      dup2\n        /* \"#utility.yul\":9438:9458   */\n      sub\n        /* \"#utility.yul\":9433:9435   */\n      0x20\n        /* \"#utility.yul\":9422:9431   */\n      dup4\n        /* \"#utility.yul\":9418:9436   */\n      add\n        /* \"#utility.yul\":9411:9459   */\n      mstore\n        /* \"#utility.yul\":9476:9554   */\n      tag_182\n        /* \"#utility.yul\":9549:9553   */\n      dup2\n        /* \"#utility.yul\":9540:9546   */\n      dup6\n        /* \"#utility.yul\":9476:9554   */\n      tag_120\n      jump\t// in\n    tag_182:\n        /* \"#utility.yul\":9468:9554   */\n      swap1\n      pop\n        /* \"#utility.yul\":9564:9644   */\n      tag_183\n        /* \"#utility.yul\":9640:9642   */\n      0x40\n        /* \"#utility.yul\":9629:9638   */\n      dup4\n        /* \"#utility.yul\":9625:9643   */\n      add\n        /* \"#utility.yul\":9616:9622   */\n      dup5\n        /* \"#utility.yul\":9564:9644   */\n      tag_116\n      jump\t// in\n    tag_183:\n        /* \"#utility.yul\":9284:9651   */\n      swap5\n      swap4\n      pop\n      pop\n      pop\n      pop\n      jump\t// out\n        /* \"#utility.yul\":9657:9989   */\n    tag_48:\n      0x00\n        /* \"#utility.yul\":9816:9818   */\n      0x40\n        /* \"#utility.yul\":9805:9814   */\n      dup3\n        /* \"#utility.yul\":9801:9819   */\n      add\n        /* \"#utility.yul\":9793:9819   */\n      swap1\n      pop\n        /* \"#utility.yul\":9829:9900   */\n      tag_185\n        /* \"#utility.yul\":9897:9898   */\n      0x00\n        /* \"#utility.yul\":9886:9895   */\n      dup4\n        /* \"#utility.yul\":9882:9899   */\n      add\n        /* \"#utility.yul\":9873:9879   */\n      dup6\n        /* \"#utility.yul\":9829:9900   */\n      tag_151\n      jump\t// in\n    tag_185:\n        /* \"#utility.yul\":9910:9982   */\n      tag_186\n        /* \"#utility.yul\":9978:9980   */\n      0x20\n        /* \"#utility.yul\":9967:9976   */\n      dup4\n        /* \"#utility.yul\":9963:9981   */\n      add\n        /* \"#utility.yul\":9954:9960   */\n      dup5\n        /* \"#utility.yul\":9910:9982   */\n      tag_151\n      jump\t// in\n    tag_186:\n        /* \"#utility.yul\":9783:9989   */\n      swap4\n      swap3\n      pop\n      pop\n      pop\n      jump\t// out\n        /* \"#utility.yul\":9995:10278   */\n    tag_88:\n      0x00\n        /* \"#utility.yul\":10061:10063   */\n      0x40\n        /* \"#utility.yul\":10055:10064   */\n      mload\n        /* \"#utility.yul\":10045:10064   */\n      swap1\n      pop\n        /* \"#utility.yul\":10103:10107   */\n      dup2\n        /* \"#utility.yul\":10095:10101   */\n      dup2\n        /* \"#utility.yul\":10091:10108   */\n      add\n        /* \"#utility.yul\":10210:10216   */\n      dup2\n        /* \"#utility.yul\":10198:10208   */\n      dup2\n        /* \"#utility.yul\":10195:10217   */\n      lt\n        /* \"#utility.yul\":10174:10192   */\n      0xffffffffffffffff\n        /* \"#utility.yul\":10162:10172   */\n      dup3\n        /* \"#utility.yul\":10159:10193   */\n      gt\n        /* \"#utility.yul\":10156:10218   */\n      or\n        /* \"#utility.yul\":10153:10155   */\n      iszero\n      tag_188\n      jumpi\n        /* \"#utility.yul\":10221:10239   */\n      tag_189\n      tag_190\n      jump\t// in\n    tag_189:\n        /* \"#utility.yul\":10153:10155   */\n    tag_188:\n        /* \"#utility.yul\":10261:10271   */\n      dup1\n        /* \"#utility.yul\":10257:10259   */\n      0x40\n        /* \"#utility.yul\":10250:10272   */\n      mstore\n        /* \"#utility.yul\":10035:10278   */\n      pop\n      swap2\n      swap1\n      pop\n      jump\t// out\n        /* \"#utility.yul\":10284:10616   */\n    tag_87:\n      0x00\n        /* \"#utility.yul\":10436:10454   */\n      0xffffffffffffffff\n        /* \"#utility.yul\":10428:10434   */\n      dup3\n        /* \"#utility.yul\":10425:10455   */\n      gt\n        /* \"#utility.yul\":10422:10424   */\n      iszero\n      tag_192\n      jumpi\n        /* \"#utility.yul\":10458:10476   */\n      tag_193\n      tag_190\n      jump\t// in\n    tag_193:\n        /* \"#utility.yul\":10422:10424   */\n    tag_192:\n        /* \"#utility.yul\":10543:10547   */\n      0x1f\n        /* \"#utility.yul\":10539:10548   */\n      not\n        /* \"#utility.yul\":10532:10536   */\n      0x1f\n        /* \"#utility.yul\":10524:10530   */\n      dup4\n        /* \"#utility.yul\":10520:10537   */\n      add\n        /* \"#utility.yul\":10516:10549   */\n      and\n        /* \"#utility.yul\":10508:10549   */\n      swap1\n      pop\n        /* \"#utility.yul\":10604:10608   */\n      0x20\n        /* \"#utility.yul\":10598:10602   */\n      dup2\n        /* \"#utility.yul\":10594:10609   */\n      add\n        /* \"#utility.yul\":10586:10609   */\n      swap1\n      pop\n        /* \"#utility.yul\":10351:10616   */\n      swap2\n      swap1\n      pop\n      jump\t// out\n        /* \"#utility.yul\":10622:10721   */\n    tag_123:\n      0x00\n        /* \"#utility.yul\":10708:10713   */\n      dup2\n        /* \"#utility.yul\":10702:10714   */\n      mload\n        /* \"#utility.yul\":10692:10714   */\n      swap1\n      pop\n        /* \"#utility.yul\":10681:10721   */\n      swap2\n      swap1\n      pop\n      jump\t// out\n        /* \"#utility.yul\":10727:10896   */\n    tag_125:\n      0x00\n        /* \"#utility.yul\":10845:10851   */\n      dup3\n        /* \"#utility.yul\":10840:10843   */\n      dup3\n        /* \"#utility.yul\":10833:10852   */\n      mstore\n        /* \"#utility.yul\":10885:10889   */\n      0x20\n        /* \"#utility.yul\":10880:10883   */\n      dup3\n        /* \"#utility.yul\":10876:10890   */\n      add\n        /* \"#utility.yul\":10861:10890   */\n      swap1\n      pop\n        /* \"#utility.yul\":10823:10896   */\n      swap3\n      swap2\n      pop\n      pop\n      jump\t// out\n        /* \"#utility.yul\":10902:10998   */\n    tag_111:\n      0x00\n        /* \"#utility.yul\":10968:10992   */\n      tag_197\n        /* \"#utility.yul\":10986:10991   */\n      dup3\n        /* \"#utility.yul\":10968:10992   */\n      tag_198\n      jump\t// in\n    tag_197:\n        /* \"#utility.yul\":10957:10992   */\n      swap1\n      pop\n        /* \"#utility.yul\":10947:10998   */\n      swap2\n      swap1\n      pop\n      jump\t// out\n        /* \"#utility.yul\":11004:11094   */\n    tag_115:\n      0x00\n        /* \"#utility.yul\":11081:11086   */\n      dup2\n        /* \"#utility.yul\":11074:11087   */\n      iszero\n        /* \"#utility.yul\":11067:11088   */\n      iszero\n        /* \"#utility.yul\":11056:11088   */\n      swap1\n      pop\n        /* \"#utility.yul\":11046:11094   */\n      swap2\n      swap1\n      pop\n      jump\t// out\n        /* \"#utility.yul\":11100:11226   */\n    tag_198:\n      0x00\n        /* \"#utility.yul\":11177:11219   */\n      0xffffffffffffffffffffffffffffffffffffffff\n        /* \"#utility.yul\":11170:11175   */\n      dup3\n        /* \"#utility.yul\":11166:11220   */\n      and\n        /* \"#utility.yul\":11155:11220   */\n      swap1\n      pop\n        /* \"#utility.yul\":11145:11226   */\n      swap2\n      swap1\n      pop\n      jump\t// out\n        /* \"#utility.yul\":11232:11309   */\n    tag_154:\n      0x00\n        /* \"#utility.yul\":11298:11303   */\n      dup2\n        /* \"#utility.yul\":11287:11303   */\n      swap1\n      pop\n        /* \"#utility.yul\":11277:11309   */\n      swap2\n      swap1\n      pop\n      jump\t// out\n        /* \"#utility.yul\":11315:11436   */\n    tag_119:\n      0x00\n        /* \"#utility.yul\":11406:11430   */\n      tag_203\n        /* \"#utility.yul\":11424:11429   */\n      dup3\n        /* \"#utility.yul\":11406:11430   */\n      tag_154\n      jump\t// in\n    tag_203:\n        /* \"#utility.yul\":11393:11430   */\n      swap1\n      pop\n        /* \"#utility.yul\":11383:11436   */\n      swap2\n      swap1\n      pop\n      jump\t// out\n        /* \"#utility.yul\":11442:11596   */\n    tag_91:\n        /* \"#utility.yul\":11526:11532   */\n      dup3\n        /* \"#utility.yul\":11521:11524   */\n      dup2\n        /* \"#utility.yul\":11516:11519   */\n      dup4\n        /* \"#utility.yul\":11503:11533   */\n      calldatacopy\n        /* \"#utility.yul\":11588:11589   */\n      0x00\n        /* \"#utility.yul\":11579:11585   */\n      dup4\n        /* \"#utility.yul\":11574:11577   */\n      dup4\n        /* \"#utility.yul\":11570:11586   */\n      add\n        /* \"#utility.yul\":11563:11590   */\n      mstore\n        /* \"#utility.yul\":11493:11596   */\n      pop\n      pop\n      pop\n      jump\t// out\n        /* \"#utility.yul\":11602:11909   */\n    tag_127:\n        /* \"#utility.yul\":11670:11671   */\n      0x00\n        /* \"#utility.yul\":11680:11793   */\n    tag_206:\n        /* \"#utility.yul\":11694:11700   */\n      dup4\n        /* \"#utility.yul\":11691:11692   */\n      dup2\n        /* \"#utility.yul\":11688:11701   */\n      lt\n        /* \"#utility.yul\":11680:11793   */\n      iszero\n      tag_208\n      jumpi\n        /* \"#utility.yul\":11779:11780   */\n      dup1\n        /* \"#utility.yul\":11774:11777   */\n      dup3\n        /* \"#utility.yul\":11770:11781   */\n      add\n        /* \"#utility.yul\":11764:11782   */\n      mload\n        /* \"#utility.yul\":11760:11761   */\n      dup2\n        /* \"#utility.yul\":11755:11758   */\n      dup5\n        /* \"#utility.yul\":11751:11762   */\n      add\n        /* \"#utility.yul\":11744:11783   */\n      mstore\n        /* \"#utility.yul\":11716:11718   */\n      0x20\n        /* \"#utility.yul\":11713:11714   */\n      dup2\n        /* \"#utility.yul\":11709:11719   */\n      add\n        /* \"#utility.yul\":11704:11719   */\n      swap1\n      pop\n        /* \"#utility.yul\":11680:11793   */\n      jump(tag_206)\n    tag_208:\n        /* \"#utility.yul\":11811:11817   */\n      dup4\n        /* \"#utility.yul\":11808:11809   */\n      dup2\n        /* \"#utility.yul\":11805:11818   */\n      gt\n        /* \"#utility.yul\":11802:11804   */\n      iszero\n      tag_209\n      jumpi\n        /* \"#utility.yul\":11891:11892   */\n      0x00\n        /* \"#utility.yul\":11882:11888   */\n      dup5\n        /* \"#utility.yul\":11877:11880   */\n      dup5\n        /* \"#utility.yul\":11873:11889   */\n      add\n        /* \"#utility.yul\":11866:11893   */\n      mstore\n        /* \"#utility.yul\":11802:11804   */\n    tag_209:\n        /* \"#utility.yul\":11651:11909   */\n      pop\n      pop\n      pop\n      pop\n      jump\t// out\n        /* \"#utility.yul\":11915:12235   */\n    tag_42:\n      0x00\n        /* \"#utility.yul\":11996:11997   */\n      0x02\n        /* \"#utility.yul\":11990:11994   */\n      dup3\n        /* \"#utility.yul\":11986:11998   */\n      div\n        /* \"#utility.yul\":11976:11998   */\n      swap1\n      pop\n        /* \"#utility.yul\":12043:12044   */\n      0x01\n        /* \"#utility.yul\":12037:12041   */\n      dup3\n        /* \"#utility.yul\":12033:12045   */\n      and\n        /* \"#utility.yul\":12064:12082   */\n      dup1\n        /* \"#utility.yul\":12054:12056   */\n      tag_211\n      jumpi\n        /* \"#utility.yul\":12120:12124   */\n      0x7f\n        /* \"#utility.yul\":12112:12118   */\n      dup3\n        /* \"#utility.yul\":12108:12125   */\n      and\n        /* \"#utility.yul\":12098:12125   */\n      swap2\n      pop\n        /* \"#utility.yul\":12054:12056   */\n    tag_211:\n        /* \"#utility.yul\":12182:12184   */\n      0x20\n        /* \"#utility.yul\":12174:12180   */\n      dup3\n        /* \"#utility.yul\":12171:12185   */\n      lt\n        /* \"#utility.yul\":12151:12169   */\n      dup2\n        /* \"#utility.yul\":12148:12186   */\n      eq\n        /* \"#utility.yul\":12145:12147   */\n      iszero\n      tag_212\n      jumpi\n        /* \"#utility.yul\":12201:12219   */\n      tag_213\n      tag_214\n      jump\t// in\n    tag_213:\n        /* \"#utility.yul\":12145:12147   */\n    tag_212:\n        /* \"#utility.yul\":11966:12235   */\n      pop\n      swap2\n      swap1\n      pop\n      jump\t// out\n        /* \"#utility.yul\":12241:12474   */\n    tag_34:\n      0x00\n        /* \"#utility.yul\":12303:12327   */\n      tag_216\n        /* \"#utility.yul\":12321:12326   */\n      dup3\n        /* \"#utility.yul\":12303:12327   */\n      tag_154\n      jump\t// in\n    tag_216:\n        /* \"#utility.yul\":12294:12327   */\n      swap2\n      pop\n        /* \"#utility.yul\":12349:12415   */\n      0xffffffffffffffffffffffffffffffffffffffffffffffffffffffffffffffff\n        /* \"#utility.yul\":12342:12347   */\n      dup3\n        /* \"#utility.yul\":12339:12416   */\n      eq\n        /* \"#utility.yul\":12336:12338   */\n      iszero\n      tag_217\n      jumpi\n        /* \"#utility.yul\":12419:12437   */\n      tag_218\n      tag_219\n      jump\t// in\n    tag_218:\n        /* \"#utility.yul\":12336:12338   */\n    tag_217:\n        /* \"#utility.yul\":12466:12467   */\n      0x01\n        /* \"#utility.yul\":12459:12464   */\n      dup3\n        /* \"#utility.yul\":12455:12468   */\n      add\n        /* \"#utility.yul\":12448:12468   */\n      swap1\n      pop\n        /* \"#utility.yul\":12284:12474   */\n      swap2\n      swap1\n      pop\n      jump\t// out\n        /* \"#utility.yul\":12480:12660   */\n    tag_219:\n        /* \"#utility.yul\":12528:12605   */\n      0x4e487b7100000000000000000000000000000000000000000000000000000000\n        /* \"#utility.yul\":12525:12526   */\n      0x00\n        /* \"#utility.yul\":12518:12606   */\n      mstore\n        /* \"#utility.yul\":12625:12629   */\n      0x11\n        /* \"#utility.yul\":12622:12623   */\n      0x04\n        /* \"#utility.yul\":12615:12630   */\n      mstore\n        /* \"#utility.yul\":12649:12653   */\n      0x24\n        /* \"#utility.yul\":12646:12647   */\n      0x00\n        /* \"#utility.yul\":12639:12654   */\n      revert\n        /* \"#utility.yul\":12666:12846   */\n    tag_214:\n        /* \"#utility.yul\":12714:12791   */\n      0x4e487b7100000000000000000000000000000000000000000000000000000000\n        /* \"#utility.yul\":12711:12712   */\n      0x00\n        /* \"#utility.yul\":12704:12792   */\n      mstore\n        /* \"#utility.yul\":12811:12815   */\n      0x22\n        /* \"#utility.yul\":12808:12809   */\n      0x04\n        /* \"#utility.yul\":12801:12816   */\n      mstore\n        /* \"#utility.yul\":12835:12839   */\n      0x24\n        /* \"#utility.yul\":12832:12833   */\n      0x00\n        /* \"#utility.yul\":12825:12840   */\n      revert\n        /* \"#utility.yul\":12852:13032   */\n    tag_190:\n        /* \"#utility.yul\":12900:12977   */\n      0x4e487b7100000000000000000000000000000000000000000000000000000000\n        /* \"#utility.yul\":12897:12898   */\n      0x00\n        /* \"#utility.yul\":12890:12978   */\n      mstore\n        /* \"#utility.yul\":12997:13001   */\n      0x41\n        /* \"#utility.yul\":12994:12995   */\n      0x04\n        /* \"#utility.yul\":12987:13002   */\n      mstore\n        /* \"#utility.yul\":13021:13025   */\n      0x24\n        /* \"#utility.yul\":13018:13019   */\n      0x00\n        /* \"#utility.yul\":13011:13026   */\n      revert\n        /* \"#utility.yul\":13038:13140   */\n    tag_129:\n      0x00\n        /* \"#utility.yul\":13130:13132   */\n      0x1f\n        /* \"#utility.yul\":13126:13133   */\n      not\n        /* \"#utility.yul\":13121:13123   */\n      0x1f\n        /* \"#utility.yul\":13114:13119   */\n      dup4\n        /* \"#utility.yul\":13110:13124   */\n      add\n        /* \"#utility.yul\":13106:13134   */\n      and\n        /* \"#utility.yul\":13096:13134   */\n      swap1\n      pop\n        /* \"#utility.yul\":13086:13140   */\n      swap2\n      swap1\n      pop\n      jump\t// out\n        /* \"#utility.yul\":13146:13268   */\n    tag_99:\n        /* \"#utility.yul\":13219:13243   */\n      tag_225\n        /* \"#utility.yul\":13237:13242   */\n      dup2\n        /* \"#utility.yul\":13219:13243   */\n      tag_154\n      jump\t// in\n    tag_225:\n        /* \"#utility.yul\":13212:13217   */\n      dup2\n        /* \"#utility.yul\":13209:13244   */\n      eq\n        /* \"#utility.yul\":13199:13201   */\n      tag_226\n      jumpi\n        /* \"#utility.yul\":13258:13259   */\n      0x00\n        /* \"#utility.yul\":13255:13256   */\n      dup1\n        /* \"#utility.yul\":13248:13260   */\n      revert\n        /* \"#utility.yul\":13199:13201   */\n    tag_226:\n        /* \"#utility.yul\":13189:13268   */\n      pop\n      jump\t// out\n\n    auxdata: 0xa2646970667358221220adba08c0e09b53c6ad1549f483a8606112a0c08665d9da594e74fa4451eefa6864736f6c63430008000033\n}\n",
				"bytecode": {
					"linkReferences": {},
					"object": "608060405234801561001057600080fd5b50336000806101000a81548173ffffffffffffffffffffffffffffffffffffffff021916908373ffffffffffffffffffffffffffffffffffffffff16021790555061116b806100606000396000f3fe608060405234801561001057600080fd5b506004361061004c5760003560e01c80630121b93f146100515780632acf63041461006d5780635129ff1a1461009e578063f5ea0106146100ba575b600080fd5b61006b60048036038101906100669190610a4e565b6100d6565b005b61008760048036038101906100829190610a4e565b61030f565b604051610095929190610d00565b60405180910390f35b6100b860048036038101906100b39190610a77565b61048c565b005b6100d460048036038101906100cf9190610a77565b610747565b005b600660003373ffffffffffffffffffffffffffffffffffffffff1673ffffffffffffffffffffffffffffffffffffffff16815260200190815260200160002060009054906101000a900460ff16610162576040517f08c379a000000000000000000000000000000000000000000000000000000000815260040161015990610d90565b60405180910390fd5b600760003373ffffffffffffffffffffffffffffffffffffffff1673ffffffffffffffffffffffffffffffffffffffff16815260200190815260200160002060009054906101000a900460ff16156101ef576040517f08c379a00000000000000000000000000000000000000000000000000000000081526004016101e690610d70565b60405180910390fd5b6002600082815260200190815260200160002060009054906101000a900460ff1661024f576040517f08c379a000000000000000000000000000000000000000000000000000000000815260040161024690610db0565b60405180910390fd5b60016000828152602001908152602001600020600201600081548092919061027690611037565b91905055506001600760003373ffffffffffffffffffffffffffffffffffffffff1673ffffffffffffffffffffffffffffffffffffffff16815260200190815260200160002060006101000a81548160ff0219169083151502179055507f90936527174ec7d51a4d8df38fdd1384ec788a40f90df7d9acff46f64133f6288133604051610304929190610e10565b60405180910390a150565b606060006002600084815260200190815260200160002060009054906101000a900460ff16610373576040517f08c379a000000000000000000000000000000000000000000000000000000000815260040161036a90610df0565b60405180910390fd5b600060016000858152602001908152602001600020604051806060016040529081600082015481526020016001820180546103ad90611005565b80601f01602080910402602001604051908101604052809291908181526020018280546103d990611005565b80156104265780601f106103fb57610100808354040283529160200191610426565b820191906000526020600020905b81548152906001019060200180831161040957829003601f168201915b5050505050815260200160028201548152505090507ff967fcdbf7b0cf02b091054df95e47b762e4f9984e41a19a1a110c77a46e8942848260400151604051610470929190610ec3565b60405180910390a1806020015181604001519250925050915091565b6005600083815260200190815260200160002060009054906101000a900460ff16156104ed576040517f08c379a00000000000000000000000000000000000000000000000000000000081526004016104e490610d30565b60405180910390fd5b600660003373ffffffffffffffffffffffffffffffffffffffff1673ffffffffffffffffffffffffffffffffffffffff16815260200190815260200160002060009054906101000a900460ff161561057a576040517f08c379a000000000000000000000000000000000000000000000000000000000815260040161057190610d30565b60405180910390fd5b600882908060018154018082558091505060019003906000526020600020016000909190919091505560016005600084815260200190815260200160002060006101000a81548160ff0219169083151502179055506001600660003373ffffffffffffffffffffffffffffffffffffffff1673ffffffffffffffffffffffffffffffffffffffff16815260200190815260200160002060006101000a81548160ff02191690831515021790555060405180608001604052808381526020018281526020016000151581526020013373ffffffffffffffffffffffffffffffffffffffff168152506004600084815260200190815260200160002060008201518160000155602082015181600101908051906020019061069a92919061092e565b5060408201518160020160006101000a81548160ff02191690831515021790555060608201518160020160016101000a81548173ffffffffffffffffffffffffffffffffffffffff021916908373ffffffffffffffffffffffffffffffffffffffff1602179055509050507fd78e249f8519eaec8cd0c0e527a1502f66d70c8a83de0e215558f3b03bd2ecd1828260003360405161073b9493929190610e39565b60405180910390a15050565b3373ffffffffffffffffffffffffffffffffffffffff1660008054906101000a900473ffffffffffffffffffffffffffffffffffffffff1673ffffffffffffffffffffffffffffffffffffffff16146107d5576040517f08c379a00000000000000000000000000000000000000000000000000000000081526004016107cc90610d50565b60405180910390fd5b6002600083815260200190815260200160002060009054906101000a900460ff1615610836576040517f08c379a000000000000000000000000000000000000000000000000000000000815260040161082d90610dd0565b60405180910390fd5b600382908060018154018082558091505060019003906000526020600020016000909190919091505560016002600084815260200190815260200160002060006101000a81548160ff02191690831515021790555060405180606001604052808381526020018281526020016000815250600160008481526020019081526020016000206000820151816000015560208201518160010190805190602001906108e092919061092e565b50604082015181600201559050507f86ac2b5946a8df21eb1e170aeeab7a464d33b582f742103b0833f9f89dc8d8148282600060405161092293929190610e85565b60405180910390a15050565b82805461093a90611005565b90600052602060002090601f01602090048101928261095c57600085556109a3565b82601f1061097557805160ff19168380011785556109a3565b828001600101855582156109a3579182015b828111156109a2578251825591602001919060010190610987565b5b5090506109b091906109b4565b5090565b5b808211156109cd5760008160009055506001016109b5565b5090565b60006109e46109df84610f1d565b610eec565b9050828152602081018484840111156109fc57600080fd5b610a07848285610fc3565b509392505050565b600082601f830112610a2057600080fd5b8135610a308482602086016109d1565b91505092915050565b600081359050610a488161111e565b92915050565b600060208284031215610a6057600080fd5b6000610a6e84828501610a39565b91505092915050565b60008060408385031215610a8a57600080fd5b6000610a9885828601610a39565b925050602083013567ffffffffffffffff811115610ab557600080fd5b610ac185828601610a0f565b9150509250929050565b610ad481610f69565b82525050565b610ae381610f7b565b82525050565b610af281610fb1565b82525050565b6000610b0382610f4d565b610b0d8185610f58565b9350610b1d818560208601610fd2565b610b268161110d565b840191505092915050565b6000610b3e601583610f58565b91507f566f74657220616c7265616479206578697374656400000000000000000000006000830152602082019050919050565b6000610b7e600d83610f58565b91507f4163636573732044656e696564000000000000000000000000000000000000006000830152602082019050919050565b6000610bbe600d83610f58565b91507f416c726561647920766f746564000000000000000000000000000000000000006000830152602082019050919050565b6000610bfe601783610f58565b91507f4e6f74207265676973746572656420617320766f7465720000000000000000006000830152602082019050919050565b6000610c3e600d83610f58565b91507f496e76616c6964207061727479000000000000000000000000000000000000006000830152602082019050919050565b6000610c7e601583610f58565b91507f506172747920616c7265616479206578697374656400000000000000000000006000830152602082019050919050565b6000610cbe600f83610f58565b91507f5061727479206e6f7420666f756e6400000000000000000000000000000000006000830152602082019050919050565b610cfa81610fa7565b82525050565b60006040820190508181036000830152610d1a8185610af8565b9050610d296020830184610cf1565b9392505050565b60006020820190508181036000830152610d4981610b31565b9050919050565b60006020820190508181036000830152610d6981610b71565b9050919050565b60006020820190508181036000830152610d8981610bb1565b9050919050565b60006020820190508181036000830152610da981610bf1565b9050919050565b60006020820190508181036000830152610dc981610c31565b9050919050565b60006020820190508181036000830152610de981610c71565b9050919050565b60006020820190508181036000830152610e0981610cb1565b9050919050565b6000604082019050610e256000830185610cf1565b610e326020830184610acb565b9392505050565b6000608082019050610e4e6000830187610cf1565b8181036020830152610e608186610af8565b9050610e6f6040830185610ada565b610e7c6060830184610acb565b95945050505050565b6000606082019050610e9a6000830186610cf1565b8181036020830152610eac8185610af8565b9050610ebb6040830184610ae9565b949350505050565b6000604082019050610ed86000830185610cf1565b610ee56020830184610cf1565b9392505050565b6000604051905081810181811067ffffffffffffffff82111715610f1357610f126110de565b5b8060405250919050565b600067ffffffffffffffff821115610f3857610f376110de565b5b601f19601f8301169050602081019050919050565b600081519050919050565b600082825260208201905092915050565b6000610f7482610f87565b9050919050565b60008115159050919050565b600073ffffffffffffffffffffffffffffffffffffffff82169050919050565b6000819050919050565b6000610fbc82610fa7565b9050919050565b82818337600083830152505050565b60005b83811015610ff0578082015181840152602081019050610fd5565b83811115610fff576000848401525b50505050565b6000600282049050600182168061101d57607f821691505b60208210811415611031576110306110af565b5b50919050565b600061104282610fa7565b91507fffffffffffffffffffffffffffffffffffffffffffffffffffffffffffffffff82141561107557611074611080565b5b600182019050919050565b7f4e487b7100000000000000000000000000000000000000000000000000000000600052601160045260246000fd5b7f4e487b7100000000000000000000000000000000000000000000000000000000600052602260045260246000fd5b7f4e487b7100000000000000000000000000000000000000000000000000000000600052604160045260246000fd5b6000601f19601f8301169050919050565b61112781610fa7565b811461113257600080fd5b5056fea2646970667358221220adba08c0e09b53c6ad1549f483a8606112a0c08665d9da594e74fa4451eefa6864736f6c63430008000033",
					"opcodes": "PUSH1 0x80 PUSH1 0x40 MSTORE CALLVALUE DUP1 ISZERO PUSH2 0x10 JUMPI PUSH1 0x0 DUP1 REVERT JUMPDEST POP CALLER PUSH1 0x0 DUP1 PUSH2 0x100 EXP DUP2 SLOAD DUP2 PUSH20 0xFFFFFFFFFFFFFFFFFFFFFFFFFFFFFFFFFFFFFFFF MUL NOT AND SWAP1 DUP4 PUSH20 0xFFFFFFFFFFFFFFFFFFFFFFFFFFFFFFFFFFFFFFFF AND MUL OR SWAP1 SSTORE POP PUSH2 0x116B DUP1 PUSH2 0x60 PUSH1 0x0 CODECOPY PUSH1 0x0 RETURN INVALID PUSH1 0x80 PUSH1 0x40 MSTORE CALLVALUE DUP1 ISZERO PUSH2 0x10 JUMPI PUSH1 0x0 DUP1 REVERT JUMPDEST POP PUSH1 0x4 CALLDATASIZE LT PUSH2 0x4C JUMPI PUSH1 0x0 CALLDATALOAD PUSH1 0xE0 SHR DUP1 PUSH4 0x121B93F EQ PUSH2 0x51 JUMPI DUP1 PUSH4 0x2ACF6304 EQ PUSH2 0x6D JUMPI DUP1 PUSH4 0x5129FF1A EQ PUSH2 0x9E JUMPI DUP1 PUSH4 0xF5EA0106 EQ PUSH2 0xBA JUMPI JUMPDEST PUSH1 0x0 DUP1 REVERT JUMPDEST PUSH2 0x6B PUSH1 0x4 DUP1 CALLDATASIZE SUB DUP2 ADD SWAP1 PUSH2 0x66 SWAP2 SWAP1 PUSH2 0xA4E JUMP JUMPDEST PUSH2 0xD6 JUMP JUMPDEST STOP JUMPDEST PUSH2 0x87 PUSH1 0x4 DUP1 CALLDATASIZE SUB DUP2 ADD SWAP1 PUSH2 0x82 SWAP2 SWAP1 PUSH2 0xA4E JUMP JUMPDEST PUSH2 0x30F JUMP JUMPDEST PUSH1 0x40 MLOAD PUSH2 0x95 SWAP3 SWAP2 SWAP1 PUSH2 0xD00 JUMP JUMPDEST PUSH1 0x40 MLOAD DUP1 SWAP2 SUB SWAP1 RETURN JUMPDEST PUSH2 0xB8 PUSH1 0x4 DUP1 CALLDATASIZE SUB DUP2 ADD SWAP1 PUSH2 0xB3 SWAP2 SWAP1 PUSH2 0xA77 JUMP JUMPDEST PUSH2 0x48C JUMP JUMPDEST STOP JUMPDEST PUSH2 0xD4 PUSH1 0x4 DUP1 CALLDATASIZE SUB DUP2 ADD SWAP1 PUSH2 0xCF SWAP2 SWAP1 PUSH2 0xA77 JUMP JUMPDEST PUSH2 0x747 JUMP JUMPDEST STOP JUMPDEST PUSH1 0x6 PUSH1 0x0 CALLER PUSH20 0xFFFFFFFFFFFFFFFFFFFFFFFFFFFFFFFFFFFFFFFF AND PUSH20 0xFFFFFFFFFFFFFFFFFFFFFFFFFFFFFFFFFFFFFFFF AND DUP2 MSTORE PUSH1 0x20 ADD SWAP1 DUP2 MSTORE PUSH1 0x20 ADD PUSH1 0x0 KECCAK256 PUSH1 0x0 SWAP1 SLOAD SWAP1 PUSH2 0x100 EXP SWAP1 DIV PUSH1 0xFF AND PUSH2 0x162 JUMPI PUSH1 0x40 MLOAD PUSH32 0x8C379A000000000000000000000000000000000000000000000000000000000 DUP2 MSTORE PUSH1 0x4 ADD PUSH2 0x159 SWAP1 PUSH2 0xD90 JUMP JUMPDEST PUSH1 0x40 MLOAD DUP1 SWAP2 SUB SWAP1 REVERT JUMPDEST PUSH1 0x7 PUSH1 0x0 CALLER PUSH20 0xFFFFFFFFFFFFFFFFFFFFFFFFFFFFFFFFFFFFFFFF AND PUSH20 0xFFFFFFFFFFFFFFFFFFFFFFFFFFFFFFFFFFFFFFFF AND DUP2 MSTORE PUSH1 0x20 ADD SWAP1 DUP2 MSTORE PUSH1 0x20 ADD PUSH1 0x0 KECCAK256 PUSH1 0x0 SWAP1 SLOAD SWAP1 PUSH2 0x100 EXP SWAP1 DIV PUSH1 0xFF AND ISZERO PUSH2 0x1EF JUMPI PUSH1 0x40 MLOAD PUSH32 0x8C379A000000000000000000000000000000000000000000000000000000000 DUP2 MSTORE PUSH1 0x4 ADD PUSH2 0x1E6 SWAP1 PUSH2 0xD70 JUMP JUMPDEST PUSH1 0x40 MLOAD DUP1 SWAP2 SUB SWAP1 REVERT JUMPDEST PUSH1 0x2 PUSH1 0x0 DUP3 DUP2 MSTORE PUSH1 0x20 ADD SWAP1 DUP2 MSTORE PUSH1 0x20 ADD PUSH1 0x0 KECCAK256 PUSH1 0x0 SWAP1 SLOAD SWAP1 PUSH2 0x100 EXP SWAP1 DIV PUSH1 0xFF AND PUSH2 0x24F JUMPI PUSH1 0x40 MLOAD PUSH32 0x8C379A000000000000000000000000000000000000000000000000000000000 DUP2 MSTORE PUSH1 0x4 ADD PUSH2 0x246 SWAP1 PUSH2 0xDB0 JUMP JUMPDEST PUSH1 0x40 MLOAD DUP1 SWAP2 SUB SWAP1 REVERT JUMPDEST PUSH1 0x1 PUSH1 0x0 DUP3 DUP2 MSTORE PUSH1 0x20 ADD SWAP1 DUP2 MSTORE PUSH1 0x20 ADD PUSH1 0x0 KECCAK256 PUSH1 0x2 ADD PUSH1 0x0 DUP2 SLOAD DUP1 SWAP3 SWAP2 SWAP1 PUSH2 0x276 SWAP1 PUSH2 0x1037 JUMP JUMPDEST SWAP2 SWAP1 POP SSTORE POP PUSH1 0x1 PUSH1 0x7 PUSH1 0x0 CALLER PUSH20 0xFFFFFFFFFFFFFFFFFFFFFFFFFFFFFFFFFFFFFFFF AND PUSH20 0xFFFFFFFFFFFFFFFFFFFFFFFFFFFFFFFFFFFFFFFF AND DUP2 MSTORE PUSH1 0x20 ADD SWAP1 DUP2 MSTORE PUSH1 0x20 ADD PUSH1 0x0 KECCAK256 PUSH1 0x0 PUSH2 0x100 EXP DUP2 SLOAD DUP2 PUSH1 0xFF MUL NOT AND SWAP1 DUP4 ISZERO ISZERO MUL OR SWAP1 SSTORE POP PUSH32 0x90936527174EC7D51A4D8DF38FDD1384EC788A40F90DF7D9ACFF46F64133F628 DUP2 CALLER PUSH1 0x40 MLOAD PUSH2 0x304 SWAP3 SWAP2 SWAP1 PUSH2 0xE10 JUMP JUMPDEST PUSH1 0x40 MLOAD DUP1 SWAP2 SUB SWAP1 LOG1 POP JUMP JUMPDEST PUSH1 0x60 PUSH1 0x0 PUSH1 0x2 PUSH1 0x0 DUP5 DUP2 MSTORE PUSH1 0x20 ADD SWAP1 DUP2 MSTORE PUSH1 0x20 ADD PUSH1 0x0 KECCAK256 PUSH1 0x0 SWAP1 SLOAD SWAP1 PUSH2 0x100 EXP SWAP1 DIV PUSH1 0xFF AND PUSH2 0x373 JUMPI PUSH1 0x40 MLOAD PUSH32 0x8C379A000000000000000000000000000000000000000000000000000000000 DUP2 MSTORE PUSH1 0x4 ADD PUSH2 0x36A SWAP1 PUSH2 0xDF0 JUMP JUMPDEST PUSH1 0x40 MLOAD DUP1 SWAP2 SUB SWAP1 REVERT JUMPDEST PUSH1 0x0 PUSH1 0x1 PUSH1 0x0 DUP6 DUP2 MSTORE PUSH1 0x20 ADD SWAP1 DUP2 MSTORE PUSH1 0x20 ADD PUSH1 0x0 KECCAK256 PUSH1 0x40 MLOAD DUP1 PUSH1 0x60 ADD PUSH1 0x40 MSTORE SWAP1 DUP2 PUSH1 0x0 DUP3 ADD SLOAD DUP2 MSTORE PUSH1 0x20 ADD PUSH1 0x1 DUP3 ADD DUP1 SLOAD PUSH2 0x3AD SWAP1 PUSH2 0x1005 JUMP JUMPDEST DUP1 PUSH1 0x1F ADD PUSH1 0x20 DUP1 SWAP2 DIV MUL PUSH1 0x20 ADD PUSH1 0x40 MLOAD SWAP1 DUP2 ADD PUSH1 0x40 MSTORE DUP1 SWAP3 SWAP2 SWAP1 DUP2 DUP2 MSTORE PUSH1 0x20 ADD DUP3 DUP1 SLOAD PUSH2 0x3D9 SWAP1 PUSH2 0x1005 JUMP JUMPDEST DUP1 ISZERO PUSH2 0x426 JUMPI DUP1 PUSH1 0x1F LT PUSH2 0x3FB JUMPI PUSH2 0x100 DUP1 DUP4 SLOAD DIV MUL DUP4 MSTORE SWAP2 PUSH1 0x20 ADD SWAP2 PUSH2 0x426 JUMP JUMPDEST DUP3 ADD SWAP2 SWAP1 PUSH1 0x0 MSTORE PUSH1 0x20 PUSH1 0x0 KECCAK256 SWAP1 JUMPDEST DUP2 SLOAD DUP2 MSTORE SWAP1 PUSH1 0x1 ADD SWAP1 PUSH1 0x20 ADD DUP1 DUP4 GT PUSH2 0x409 JUMPI DUP3 SWAP1 SUB PUSH1 0x1F AND DUP3 ADD SWAP2 JUMPDEST POP POP POP POP POP DUP2 MSTORE PUSH1 0x20 ADD PUSH1 0x2 DUP3 ADD SLOAD DUP2 MSTORE POP POP SWAP1 POP PUSH32 0xF967FCDBF7B0CF02B091054DF95E47B762E4F9984E41A19A1A110C77A46E8942 DUP5 DUP3 PUSH1 0x40 ADD MLOAD PUSH1 0x40 MLOAD PUSH2 0x470 SWAP3 SWAP2 SWAP1 PUSH2 0xEC3 JUMP JUMPDEST PUSH1 0x40 MLOAD DUP1 SWAP2 SUB SWAP1 LOG1 DUP1 PUSH1 0x20 ADD MLOAD DUP2 PUSH1 0x40 ADD MLOAD SWAP3 POP SWAP3 POP POP SWAP2 POP SWAP2 JUMP JUMPDEST PUSH1 0x5 PUSH1 0x0 DUP4 DUP2 MSTORE PUSH1 0x20 ADD SWAP1 DUP2 MSTORE PUSH1 0x20 ADD PUSH1 0x0 KECCAK256 PUSH1 0x0 SWAP1 SLOAD SWAP1 PUSH2 0x100 EXP SWAP1 DIV PUSH1 0xFF AND ISZERO PUSH2 0x4ED JUMPI PUSH1 0x40 MLOAD PUSH32 0x8C379A000000000000000000000000000000000000000000000000000000000 DUP2 MSTORE PUSH1 0x4 ADD PUSH2 0x4E4 SWAP1 PUSH2 0xD30 JUMP JUMPDEST PUSH1 0x40 MLOAD DUP1 SWAP2 SUB SWAP1 REVERT JUMPDEST PUSH1 0x6 PUSH1 0x0 CALLER PUSH20 0xFFFFFFFFFFFFFFFFFFFFFFFFFFFFFFFFFFFFFFFF AND PUSH20 0xFFFFFFFFFFFFFFFFFFFFFFFFFFFFFFFFFFFFFFFF AND DUP2 MSTORE PUSH1 0x20 ADD SWAP1 DUP2 MSTORE PUSH1 0x20 ADD PUSH1 0x0 KECCAK256 PUSH1 0x0 SWAP1 SLOAD SWAP1 PUSH2 0x100 EXP SWAP1 DIV PUSH1 0xFF AND ISZERO PUSH2 0x57A JUMPI PUSH1 0x40 MLOAD PUSH32 0x8C379A000000000000000000000000000000000000000000000000000000000 DUP2 MSTORE PUSH1 0x4 ADD PUSH2 0x571 SWAP1 PUSH2 0xD30 JUMP JUMPDEST PUSH1 0x40 MLOAD DUP1 SWAP2 SUB SWAP1 REVERT JUMPDEST PUSH1 0x8 DUP3 SWAP1 DUP1 PUSH1 0x1 DUP2 SLOAD ADD DUP1 DUP3 SSTORE DUP1 SWAP2 POP POP PUSH1 0x1 SWAP1 SUB SWAP1 PUSH1 0x0 MSTORE PUSH1 0x20 PUSH1 0x0 KECCAK256 ADD PUSH1 0x0 SWAP1 SWAP2 SWAP1 SWAP2 SWAP1 SWAP2 POP SSTORE PUSH1 0x1 PUSH1 0x5 PUSH1 0x0 DUP5 DUP2 MSTORE PUSH1 0x20 ADD SWAP1 DUP2 MSTORE PUSH1 0x20 ADD PUSH1 0x0 KECCAK256 PUSH1 0x0 PUSH2 0x100 EXP DUP2 SLOAD DUP2 PUSH1 0xFF MUL NOT AND SWAP1 DUP4 ISZERO ISZERO MUL OR SWAP1 SSTORE POP PUSH1 0x1 PUSH1 0x6 PUSH1 0x0 CALLER PUSH20 0xFFFFFFFFFFFFFFFFFFFFFFFFFFFFFFFFFFFFFFFF AND PUSH20 0xFFFFFFFFFFFFFFFFFFFFFFFFFFFFFFFFFFFFFFFF AND DUP2 MSTORE PUSH1 0x20 ADD SWAP1 DUP2 MSTORE PUSH1 0x20 ADD PUSH1 0x0 KECCAK256 PUSH1 0x0 PUSH2 0x100 EXP DUP2 SLOAD DUP2 PUSH1 0xFF MUL NOT AND SWAP1 DUP4 ISZERO ISZERO MUL OR SWAP1 SSTORE POP PUSH1 0x40 MLOAD DUP1 PUSH1 0x80 ADD PUSH1 0x40 MSTORE DUP1 DUP4 DUP2 MSTORE PUSH1 0x20 ADD DUP3 DUP2 MSTORE PUSH1 0x20 ADD PUSH1 0x0 ISZERO ISZERO DUP2 MSTORE PUSH1 0x20 ADD CALLER PUSH20 0xFFFFFFFFFFFFFFFFFFFFFFFFFFFFFFFFFFFFFFFF AND DUP2 MSTORE POP PUSH1 0x4 PUSH1 0x0 DUP5 DUP2 MSTORE PUSH1 0x20 ADD SWAP1 DUP2 MSTORE PUSH1 0x20 ADD PUSH1 0x0 KECCAK256 PUSH1 0x0 DUP3 ADD MLOAD DUP2 PUSH1 0x0 ADD SSTORE PUSH1 0x20 DUP3 ADD MLOAD DUP2 PUSH1 0x1 ADD SWAP1 DUP1 MLOAD SWAP1 PUSH1 0x20 ADD SWAP1 PUSH2 0x69A SWAP3 SWAP2 SWAP1 PUSH2 0x92E JUMP JUMPDEST POP PUSH1 0x40 DUP3 ADD MLOAD DUP2 PUSH1 0x2 ADD PUSH1 0x0 PUSH2 0x100 EXP DUP2 SLOAD DUP2 PUSH1 0xFF MUL NOT AND SWAP1 DUP4 ISZERO ISZERO MUL OR SWAP1 SSTORE POP PUSH1 0x60 DUP3 ADD MLOAD DUP2 PUSH1 0x2 ADD PUSH1 0x1 PUSH2 0x100 EXP DUP2 SLOAD DUP2 PUSH20 0xFFFFFFFFFFFFFFFFFFFFFFFFFFFFFFFFFFFFFFFF MUL NOT AND SWAP1 DUP4 PUSH20 0xFFFFFFFFFFFFFFFFFFFFFFFFFFFFFFFFFFFFFFFF AND MUL OR SWAP1 SSTORE POP SWAP1 POP POP PUSH32 0xD78E249F8519EAEC8CD0C0E527A1502F66D70C8A83DE0E215558F3B03BD2ECD1 DUP3 DUP3 PUSH1 0x0 CALLER PUSH1 0x40 MLOAD PUSH2 0x73B SWAP5 SWAP4 SWAP3 SWAP2 SWAP1 PUSH2 0xE39 JUMP JUMPDEST PUSH1 0x40 MLOAD DUP1 SWAP2 SUB SWAP1 LOG1 POP POP JUMP JUMPDEST CALLER PUSH20 0xFFFFFFFFFFFFFFFFFFFFFFFFFFFFFFFFFFFFFFFF AND PUSH1 0x0 DUP1 SLOAD SWAP1 PUSH2 0x100 EXP SWAP1 DIV PUSH20 0xFFFFFFFFFFFFFFFFFFFFFFFFFFFFFFFFFFFFFFFF AND PUSH20 0xFFFFFFFFFFFFFFFFFFFFFFFFFFFFFFFFFFFFFFFF AND EQ PUSH2 0x7D5 JUMPI PUSH1 0x40 MLOAD PUSH32 0x8C379A000000000000000000000000000000000000000000000000000000000 DUP2 MSTORE PUSH1 0x4 ADD PUSH2 0x7CC SWAP1 PUSH2 0xD50 JUMP JUMPDEST PUSH1 0x40 MLOAD DUP1 SWAP2 SUB SWAP1 REVERT JUMPDEST PUSH1 0x2 PUSH1 0x0 DUP4 DUP2 MSTORE PUSH1 0x20 ADD SWAP1 DUP2 MSTORE PUSH1 0x20 ADD PUSH1 0x0 KECCAK256 PUSH1 0x0 SWAP1 SLOAD SWAP1 PUSH2 0x100 EXP SWAP1 DIV PUSH1 0xFF AND ISZERO PUSH2 0x836 JUMPI PUSH1 0x40 MLOAD PUSH32 0x8C379A000000000000000000000000000000000000000000000000000000000 DUP2 MSTORE PUSH1 0x4 ADD PUSH2 0x82D SWAP1 PUSH2 0xDD0 JUMP JUMPDEST PUSH1 0x40 MLOAD DUP1 SWAP2 SUB SWAP1 REVERT JUMPDEST PUSH1 0x3 DUP3 SWAP1 DUP1 PUSH1 0x1 DUP2 SLOAD ADD DUP1 DUP3 SSTORE DUP1 SWAP2 POP POP PUSH1 0x1 SWAP1 SUB SWAP1 PUSH1 0x0 MSTORE PUSH1 0x20 PUSH1 0x0 KECCAK256 ADD PUSH1 0x0 SWAP1 SWAP2 SWAP1 SWAP2 SWAP1 SWAP2 POP SSTORE PUSH1 0x1 PUSH1 0x2 PUSH1 0x0 DUP5 DUP2 MSTORE PUSH1 0x20 ADD SWAP1 DUP2 MSTORE PUSH1 0x20 ADD PUSH1 0x0 KECCAK256 PUSH1 0x0 PUSH2 0x100 EXP DUP2 SLOAD DUP2 PUSH1 0xFF MUL NOT AND SWAP1 DUP4 ISZERO ISZERO MUL OR SWAP1 SSTORE POP PUSH1 0x40 MLOAD DUP1 PUSH1 0x60 ADD PUSH1 0x40 MSTORE DUP1 DUP4 DUP2 MSTORE PUSH1 0x20 ADD DUP3 DUP2 MSTORE PUSH1 0x20 ADD PUSH1 0x0 DUP2 MSTORE POP PUSH1 0x1 PUSH1 0x0 DUP5 DUP2 MSTORE PUSH1 0x20 ADD SWAP1 DUP2 MSTORE PUSH1 0x20 ADD PUSH1 0x0 KECCAK256 PUSH1 0x0 DUP3 ADD MLOAD DUP2 PUSH1 0x0 ADD SSTORE PUSH1 0x20 DUP3 ADD MLOAD DUP2 PUSH1 0x1 ADD SWAP1 DUP1 MLOAD SWAP1 PUSH1 0x20 ADD SWAP1 PUSH2 0x8E0 SWAP3 SWAP2 SWAP1 PUSH2 0x92E JUMP JUMPDEST POP PUSH1 0x40 DUP3 ADD MLOAD DUP2 PUSH1 0x2 ADD SSTORE SWAP1 POP POP PUSH32 0x86AC2B5946A8DF21EB1E170AEEAB7A464D33B582F742103B0833F9F89DC8D814 DUP3 DUP3 PUSH1 0x0 PUSH1 0x40 MLOAD PUSH2 0x922 SWAP4 SWAP3 SWAP2 SWAP1 PUSH2 0xE85 JUMP JUMPDEST PUSH1 0x40 MLOAD DUP1 SWAP2 SUB SWAP1 LOG1 POP POP JUMP JUMPDEST DUP3 DUP1 SLOAD PUSH2 0x93A SWAP1 PUSH2 0x1005 JUMP JUMPDEST SWAP1 PUSH1 0x0 MSTORE PUSH1 0x20 PUSH1 0x0 KECCAK256 SWAP1 PUSH1 0x1F ADD PUSH1 0x20 SWAP1 DIV DUP2 ADD SWAP3 DUP3 PUSH2 0x95C JUMPI PUSH1 0x0 DUP6 SSTORE PUSH2 0x9A3 JUMP JUMPDEST DUP3 PUSH1 0x1F LT PUSH2 0x975 JUMPI DUP1 MLOAD PUSH1 0xFF NOT AND DUP4 DUP1 ADD OR DUP6 SSTORE PUSH2 0x9A3 JUMP JUMPDEST DUP3 DUP1 ADD PUSH1 0x1 ADD DUP6 SSTORE DUP3 ISZERO PUSH2 0x9A3 JUMPI SWAP2 DUP3 ADD JUMPDEST DUP3 DUP2 GT ISZERO PUSH2 0x9A2 JUMPI DUP3 MLOAD DUP3 SSTORE SWAP2 PUSH1 0x20 ADD SWAP2 SWAP1 PUSH1 0x1 ADD SWAP1 PUSH2 0x987 JUMP JUMPDEST JUMPDEST POP SWAP1 POP PUSH2 0x9B0 SWAP2 SWAP1 PUSH2 0x9B4 JUMP JUMPDEST POP SWAP1 JUMP JUMPDEST JUMPDEST DUP1 DUP3 GT ISZERO PUSH2 0x9CD JUMPI PUSH1 0x0 DUP2 PUSH1 0x0 SWAP1 SSTORE POP PUSH1 0x1 ADD PUSH2 0x9B5 JUMP JUMPDEST POP SWAP1 JUMP JUMPDEST PUSH1 0x0 PUSH2 0x9E4 PUSH2 0x9DF DUP5 PUSH2 0xF1D JUMP JUMPDEST PUSH2 0xEEC JUMP JUMPDEST SWAP1 POP DUP3 DUP2 MSTORE PUSH1 0x20 DUP2 ADD DUP5 DUP5 DUP5 ADD GT ISZERO PUSH2 0x9FC JUMPI PUSH1 0x0 DUP1 REVERT JUMPDEST PUSH2 0xA07 DUP5 DUP3 DUP6 PUSH2 0xFC3 JUMP JUMPDEST POP SWAP4 SWAP3 POP POP POP JUMP JUMPDEST PUSH1 0x0 DUP3 PUSH1 0x1F DUP4 ADD SLT PUSH2 0xA20 JUMPI PUSH1 0x0 DUP1 REVERT JUMPDEST DUP2 CALLDATALOAD PUSH2 0xA30 DUP5 DUP3 PUSH1 0x20 DUP7 ADD PUSH2 0x9D1 JUMP JUMPDEST SWAP2 POP POP SWAP3 SWAP2 POP POP JUMP JUMPDEST PUSH1 0x0 DUP2 CALLDATALOAD SWAP1 POP PUSH2 0xA48 DUP2 PUSH2 0x111E JUMP JUMPDEST SWAP3 SWAP2 POP POP JUMP JUMPDEST PUSH1 0x0 PUSH1 0x20 DUP3 DUP5 SUB SLT ISZERO PUSH2 0xA60 JUMPI PUSH1 0x0 DUP1 REVERT JUMPDEST PUSH1 0x0 PUSH2 0xA6E DUP5 DUP3 DUP6 ADD PUSH2 0xA39 JUMP JUMPDEST SWAP2 POP POP SWAP3 SWAP2 POP POP JUMP JUMPDEST PUSH1 0x0 DUP1 PUSH1 0x40 DUP4 DUP6 SUB SLT ISZERO PUSH2 0xA8A JUMPI PUSH1 0x0 DUP1 REVERT JUMPDEST PUSH1 0x0 PUSH2 0xA98 DUP6 DUP3 DUP7 ADD PUSH2 0xA39 JUMP JUMPDEST SWAP3 POP POP PUSH1 0x20 DUP4 ADD CALLDATALOAD PUSH8 0xFFFFFFFFFFFFFFFF DUP2 GT ISZERO PUSH2 0xAB5 JUMPI PUSH1 0x0 DUP1 REVERT JUMPDEST PUSH2 0xAC1 DUP6 DUP3 DUP7 ADD PUSH2 0xA0F JUMP JUMPDEST SWAP2 POP POP SWAP3 POP SWAP3 SWAP1 POP JUMP JUMPDEST PUSH2 0xAD4 DUP2 PUSH2 0xF69 JUMP JUMPDEST DUP3 MSTORE POP POP JUMP JUMPDEST PUSH2 0xAE3 DUP2 PUSH2 0xF7B JUMP JUMPDEST DUP3 MSTORE POP POP JUMP JUMPDEST PUSH2 0xAF2 DUP2 PUSH2 0xFB1 JUMP JUMPDEST DUP3 MSTORE POP POP JUMP JUMPDEST PUSH1 0x0 PUSH2 0xB03 DUP3 PUSH2 0xF4D JUMP JUMPDEST PUSH2 0xB0D DUP2 DUP6 PUSH2 0xF58 JUMP JUMPDEST SWAP4 POP PUSH2 0xB1D DUP2 DUP6 PUSH1 0x20 DUP7 ADD PUSH2 0xFD2 JUMP JUMPDEST PUSH2 0xB26 DUP2 PUSH2 0x110D JUMP JUMPDEST DUP5 ADD SWAP2 POP POP SWAP3 SWAP2 POP POP JUMP JUMPDEST PUSH1 0x0 PUSH2 0xB3E PUSH1 0x15 DUP4 PUSH2 0xF58 JUMP JUMPDEST SWAP2 POP PUSH32 0x566F74657220616C726561647920657869737465640000000000000000000000 PUSH1 0x0 DUP4 ADD MSTORE PUSH1 0x20 DUP3 ADD SWAP1 POP SWAP2 SWAP1 POP JUMP JUMPDEST PUSH1 0x0 PUSH2 0xB7E PUSH1 0xD DUP4 PUSH2 0xF58 JUMP JUMPDEST SWAP2 POP PUSH32 0x4163636573732044656E69656400000000000000000000000000000000000000 PUSH1 0x0 DUP4 ADD MSTORE PUSH1 0x20 DUP3 ADD SWAP1 POP SWAP2 SWAP1 POP JUMP JUMPDEST PUSH1 0x0 PUSH2 0xBBE PUSH1 0xD DUP4 PUSH2 0xF58 JUMP JUMPDEST SWAP2 POP PUSH32 0x416C726561647920766F74656400000000000000000000000000000000000000 PUSH1 0x0 DUP4 ADD MSTORE PUSH1 0x20 DUP3 ADD SWAP1 POP SWAP2 SWAP1 POP JUMP JUMPDEST PUSH1 0x0 PUSH2 0xBFE PUSH1 0x17 DUP4 PUSH2 0xF58 JUMP JUMPDEST SWAP2 POP PUSH32 0x4E6F74207265676973746572656420617320766F746572000000000000000000 PUSH1 0x0 DUP4 ADD MSTORE PUSH1 0x20 DUP3 ADD SWAP1 POP SWAP2 SWAP1 POP JUMP JUMPDEST PUSH1 0x0 PUSH2 0xC3E PUSH1 0xD DUP4 PUSH2 0xF58 JUMP JUMPDEST SWAP2 POP PUSH32 0x496E76616C696420706172747900000000000000000000000000000000000000 PUSH1 0x0 DUP4 ADD MSTORE PUSH1 0x20 DUP3 ADD SWAP1 POP SWAP2 SWAP1 POP JUMP JUMPDEST PUSH1 0x0 PUSH2 0xC7E PUSH1 0x15 DUP4 PUSH2 0xF58 JUMP JUMPDEST SWAP2 POP PUSH32 0x506172747920616C726561647920657869737465640000000000000000000000 PUSH1 0x0 DUP4 ADD MSTORE PUSH1 0x20 DUP3 ADD SWAP1 POP SWAP2 SWAP1 POP JUMP JUMPDEST PUSH1 0x0 PUSH2 0xCBE PUSH1 0xF DUP4 PUSH2 0xF58 JUMP JUMPDEST SWAP2 POP PUSH32 0x5061727479206E6F7420666F756E640000000000000000000000000000000000 PUSH1 0x0 DUP4 ADD MSTORE PUSH1 0x20 DUP3 ADD SWAP1 POP SWAP2 SWAP1 POP JUMP JUMPDEST PUSH2 0xCFA DUP2 PUSH2 0xFA7 JUMP JUMPDEST DUP3 MSTORE POP POP JUMP JUMPDEST PUSH1 0x0 PUSH1 0x40 DUP3 ADD SWAP1 POP DUP2 DUP2 SUB PUSH1 0x0 DUP4 ADD MSTORE PUSH2 0xD1A DUP2 DUP6 PUSH2 0xAF8 JUMP JUMPDEST SWAP1 POP PUSH2 0xD29 PUSH1 0x20 DUP4 ADD DUP5 PUSH2 0xCF1 JUMP JUMPDEST SWAP4 SWAP3 POP POP POP JUMP JUMPDEST PUSH1 0x0 PUSH1 0x20 DUP3 ADD SWAP1 POP DUP2 DUP2 SUB PUSH1 0x0 DUP4 ADD MSTORE PUSH2 0xD49 DUP2 PUSH2 0xB31 JUMP JUMPDEST SWAP1 POP SWAP2 SWAP1 POP JUMP JUMPDEST PUSH1 0x0 PUSH1 0x20 DUP3 ADD SWAP1 POP DUP2 DUP2 SUB PUSH1 0x0 DUP4 ADD MSTORE PUSH2 0xD69 DUP2 PUSH2 0xB71 JUMP JUMPDEST SWAP1 POP SWAP2 SWAP1 POP JUMP JUMPDEST PUSH1 0x0 PUSH1 0x20 DUP3 ADD SWAP1 POP DUP2 DUP2 SUB PUSH1 0x0 DUP4 ADD MSTORE PUSH2 0xD89 DUP2 PUSH2 0xBB1 JUMP JUMPDEST SWAP1 POP SWAP2 SWAP1 POP JUMP JUMPDEST PUSH1 0x0 PUSH1 0x20 DUP3 ADD SWAP1 POP DUP2 DUP2 SUB PUSH1 0x0 DUP4 ADD MSTORE PUSH2 0xDA9 DUP2 PUSH2 0xBF1 JUMP JUMPDEST SWAP1 POP SWAP2 SWAP1 POP JUMP JUMPDEST PUSH1 0x0 PUSH1 0x20 DUP3 ADD SWAP1 POP DUP2 DUP2 SUB PUSH1 0x0 DUP4 ADD MSTORE PUSH2 0xDC9 DUP2 PUSH2 0xC31 JUMP JUMPDEST SWAP1 POP SWAP2 SWAP1 POP JUMP JUMPDEST PUSH1 0x0 PUSH1 0x20 DUP3 ADD SWAP1 POP DUP2 DUP2 SUB PUSH1 0x0 DUP4 ADD MSTORE PUSH2 0xDE9 DUP2 PUSH2 0xC71 JUMP JUMPDEST SWAP1 POP SWAP2 SWAP1 POP JUMP JUMPDEST PUSH1 0x0 PUSH1 0x20 DUP3 ADD SWAP1 POP DUP2 DUP2 SUB PUSH1 0x0 DUP4 ADD MSTORE PUSH2 0xE09 DUP2 PUSH2 0xCB1 JUMP JUMPDEST SWAP1 POP SWAP2 SWAP1 POP JUMP JUMPDEST PUSH1 0x0 PUSH1 0x40 DUP3 ADD SWAP1 POP PUSH2 0xE25 PUSH1 0x0 DUP4 ADD DUP6 PUSH2 0xCF1 JUMP JUMPDEST PUSH2 0xE32 PUSH1 0x20 DUP4 ADD DUP5 PUSH2 0xACB JUMP JUMPDEST SWAP4 SWAP3 POP POP POP JUMP JUMPDEST PUSH1 0x0 PUSH1 0x80 DUP3 ADD SWAP1 POP PUSH2 0xE4E PUSH1 0x0 DUP4 ADD DUP8 PUSH2 0xCF1 JUMP JUMPDEST DUP2 DUP2 SUB PUSH1 0x20 DUP4 ADD MSTORE PUSH2 0xE60 DUP2 DUP7 PUSH2 0xAF8 JUMP JUMPDEST SWAP1 POP PUSH2 0xE6F PUSH1 0x40 DUP4 ADD DUP6 PUSH2 0xADA JUMP JUMPDEST PUSH2 0xE7C PUSH1 0x60 DUP4 ADD DUP5 PUSH2 0xACB JUMP JUMPDEST SWAP6 SWAP5 POP POP POP POP POP JUMP JUMPDEST PUSH1 0x0 PUSH1 0x60 DUP3 ADD SWAP1 POP PUSH2 0xE9A PUSH1 0x0 DUP4 ADD DUP7 PUSH2 0xCF1 JUMP JUMPDEST DUP2 DUP2 SUB PUSH1 0x20 DUP4 ADD MSTORE PUSH2 0xEAC DUP2 DUP6 PUSH2 0xAF8 JUMP JUMPDEST SWAP1 POP PUSH2 0xEBB PUSH1 0x40 DUP4 ADD DUP5 PUSH2 0xAE9 JUMP JUMPDEST SWAP5 SWAP4 POP POP POP POP JUMP JUMPDEST PUSH1 0x0 PUSH1 0x40 DUP3 ADD SWAP1 POP PUSH2 0xED8 PUSH1 0x0 DUP4 ADD DUP6 PUSH2 0xCF1 JUMP JUMPDEST PUSH2 0xEE5 PUSH1 0x20 DUP4 ADD DUP5 PUSH2 0xCF1 JUMP JUMPDEST SWAP4 SWAP3 POP POP POP JUMP JUMPDEST PUSH1 0x0 PUSH1 0x40 MLOAD SWAP1 POP DUP2 DUP2 ADD DUP2 DUP2 LT PUSH8 0xFFFFFFFFFFFFFFFF DUP3 GT OR ISZERO PUSH2 0xF13 JUMPI PUSH2 0xF12 PUSH2 0x10DE JUMP JUMPDEST JUMPDEST DUP1 PUSH1 0x40 MSTORE POP SWAP2 SWAP1 POP JUMP JUMPDEST PUSH1 0x0 PUSH8 0xFFFFFFFFFFFFFFFF DUP3 GT ISZERO PUSH2 0xF38 JUMPI PUSH2 0xF37 PUSH2 0x10DE JUMP JUMPDEST JUMPDEST PUSH1 0x1F NOT PUSH1 0x1F DUP4 ADD AND SWAP1 POP PUSH1 0x20 DUP2 ADD SWAP1 POP SWAP2 SWAP1 POP JUMP JUMPDEST PUSH1 0x0 DUP2 MLOAD SWAP1 POP SWAP2 SWAP1 POP JUMP JUMPDEST PUSH1 0x0 DUP3 DUP3 MSTORE PUSH1 0x20 DUP3 ADD SWAP1 POP SWAP3 SWAP2 POP POP JUMP JUMPDEST PUSH1 0x0 PUSH2 0xF74 DUP3 PUSH2 0xF87 JUMP JUMPDEST SWAP1 POP SWAP2 SWAP1 POP JUMP JUMPDEST PUSH1 0x0 DUP2 ISZERO ISZERO SWAP1 POP SWAP2 SWAP1 POP JUMP JUMPDEST PUSH1 0x0 PUSH20 0xFFFFFFFFFFFFFFFFFFFFFFFFFFFFFFFFFFFFFFFF DUP3 AND SWAP1 POP SWAP2 SWAP1 POP JUMP JUMPDEST PUSH1 0x0 DUP2 SWAP1 POP SWAP2 SWAP1 POP JUMP JUMPDEST PUSH1 0x0 PUSH2 0xFBC DUP3 PUSH2 0xFA7 JUMP JUMPDEST SWAP1 POP SWAP2 SWAP1 POP JUMP JUMPDEST DUP3 DUP2 DUP4 CALLDATACOPY PUSH1 0x0 DUP4 DUP4 ADD MSTORE POP POP POP JUMP JUMPDEST PUSH1 0x0 JUMPDEST DUP4 DUP2 LT ISZERO PUSH2 0xFF0 JUMPI DUP1 DUP3 ADD MLOAD DUP2 DUP5 ADD MSTORE PUSH1 0x20 DUP2 ADD SWAP1 POP PUSH2 0xFD5 JUMP JUMPDEST DUP4 DUP2 GT ISZERO PUSH2 0xFFF JUMPI PUSH1 0x0 DUP5 DUP5 ADD MSTORE JUMPDEST POP POP POP POP JUMP JUMPDEST PUSH1 0x0 PUSH1 0x2 DUP3 DIV SWAP1 POP PUSH1 0x1 DUP3 AND DUP1 PUSH2 0x101D JUMPI PUSH1 0x7F DUP3 AND SWAP2 POP JUMPDEST PUSH1 0x20 DUP3 LT DUP2 EQ ISZERO PUSH2 0x1031 JUMPI PUSH2 0x1030 PUSH2 0x10AF JUMP JUMPDEST JUMPDEST POP SWAP2 SWAP1 POP JUMP JUMPDEST PUSH1 0x0 PUSH2 0x1042 DUP3 PUSH2 0xFA7 JUMP JUMPDEST SWAP2 POP PUSH32 0xFFFFFFFFFFFFFFFFFFFFFFFFFFFFFFFFFFFFFFFFFFFFFFFFFFFFFFFFFFFFFFFF DUP3 EQ ISZERO PUSH2 0x1075 JUMPI PUSH2 0x1074 PUSH2 0x1080 JUMP JUMPDEST JUMPDEST PUSH1 0x1 DUP3 ADD SWAP1 POP SWAP2 SWAP1 POP JUMP JUMPDEST PUSH32 0x4E487B7100000000000000000000000000000000000000000000000000000000 PUSH1 0x0 MSTORE PUSH1 0x11 PUSH1 0x4 MSTORE PUSH1 0x24 PUSH1 0x0 REVERT JUMPDEST PUSH32 0x4E487B7100000000000000000000000000000000000000000000000000000000 PUSH1 0x0 MSTORE PUSH1 0x22 PUSH1 0x4 MSTORE PUSH1 0x24 PUSH1 0x0 REVERT JUMPDEST PUSH32 0x4E487B7100000000000000000000000000000000000000000000000000000000 PUSH1 0x0 MSTORE PUSH1 0x41 PUSH1 0x4 MSTORE PUSH1 0x24 PUSH1 0x0 REVERT JUMPDEST PUSH1 0x0 PUSH1 0x1F NOT PUSH1 0x1F DUP4 ADD AND SWAP1 POP SWAP2 SWAP1 POP JUMP JUMPDEST PUSH2 0x1127 DUP2 PUSH2 0xFA7 JUMP JUMPDEST DUP2 EQ PUSH2 0x1132 JUMPI PUSH1 0x0 DUP1 REVERT JUMPDEST POP JUMP INVALID LOG2 PUSH5 0x6970667358 0x22 SLT KECCAK256 0xAD 0xBA ADDMOD 0xC0 0xE0 SWAP12 MSTORE8 0xC6 0xAD ISZERO 0x49 DELEGATECALL DUP4 0xA8 PUSH1 0x61 SLT LOG0 0xC0 DUP7 PUSH6 0xD9DA594E74FA DIFFICULTY MLOAD 0xEE STATICCALL PUSH9 0x64736F6C6343000800 STOP CALLER "
				},
				"gasEstimates": {
					"creation": {
						"codeDepositCost": "891800",
						"executionCost": "21795",
						"totalCost": "913595"
					},
					"external": {
						"addParty(uint256,string)": "infinite",
						"addVoter(uint256,string)": "infinite",
						"getPartyVotes(uint256)": "infinite",
						"vote(uint256)": "infinite"
					}
				},
				"methodIdentifiers": {
					"addParty(uint256,string)": "f5ea0106",
					"addVoter(uint256,string)": "5129ff1a",
					"getPartyVotes(uint256)": "2acf6304",
					"vote(uint256)": "0121b93f"
				}
			},
			"storageLayout": {
				"storage": [
					{
						"astId": 3,
						"contract": "Practice/Voting_Struct.sol:Voting_Struct",
						"label": "owner",
						"offset": 0,
						"slot": "0",
						"type": "t_address"
					},
					{
						"astId": 66,
						"contract": "Practice/Voting_Struct.sol:Voting_Struct",
						"label": "parties",
						"offset": 0,
						"slot": "1",
						"type": "t_mapping(t_uint256,t_struct(Party)61_storage)"
					},
					{
						"astId": 70,
						"contract": "Practice/Voting_Struct.sol:Voting_Struct",
						"label": "isPartyExist",
						"offset": 0,
						"slot": "2",
						"type": "t_mapping(t_uint256,t_bool)"
					},
					{
						"astId": 73,
						"contract": "Practice/Voting_Struct.sol:Voting_Struct",
						"label": "allPartyIds",
						"offset": 0,
						"slot": "3",
						"type": "t_array(t_uint256)dyn_storage"
					},
					{
						"astId": 133,
						"contract": "Practice/Voting_Struct.sol:Voting_Struct",
						"label": "Voters",
						"offset": 0,
						"slot": "4",
						"type": "t_mapping(t_uint256,t_struct(Voter)128_storage)"
					},
					{
						"astId": 137,
						"contract": "Practice/Voting_Struct.sol:Voting_Struct",
						"label": "isVoterExisted",
						"offset": 0,
						"slot": "5",
						"type": "t_mapping(t_uint256,t_bool)"
					},
					{
						"astId": 141,
						"contract": "Practice/Voting_Struct.sol:Voting_Struct",
						"label": "hasRegistered",
						"offset": 0,
						"slot": "6",
						"type": "t_mapping(t_address,t_bool)"
					},
					{
						"astId": 145,
						"contract": "Practice/Voting_Struct.sol:Voting_Struct",
						"label": "hasVoted",
						"offset": 0,
						"slot": "7",
						"type": "t_mapping(t_address,t_bool)"
					},
					{
						"astId": 148,
						"contract": "Practice/Voting_Struct.sol:Voting_Struct",
						"label": "allVoters",
						"offset": 0,
						"slot": "8",
						"type": "t_array(t_uint256)dyn_storage"
					}
				],
				"types": {
					"t_address": {
						"encoding": "inplace",
						"label": "address",
						"numberOfBytes": "20"
					},
					"t_array(t_uint256)dyn_storage": {
						"base": "t_uint256",
						"encoding": "dynamic_array",
						"label": "uint256[]",
						"numberOfBytes": "32"
					},
					"t_bool": {
						"encoding": "inplace",
						"label": "bool",
						"numberOfBytes": "1"
					},
					"t_mapping(t_address,t_bool)": {
						"encoding": "mapping",
						"key": "t_address",
						"label": "mapping(address => bool)",
						"numberOfBytes": "32",
						"value": "t_bool"
					},
					"t_mapping(t_uint256,t_bool)": {
						"encoding": "mapping",
						"key": "t_uint256",
						"label": "mapping(uint256 => bool)",
						"numberOfBytes": "32",
						"value": "t_bool"
					},
					"t_mapping(t_uint256,t_struct(Party)61_storage)": {
						"encoding": "mapping",
						"key": "t_uint256",
						"label": "mapping(uint256 => struct Voting_Struct.Party)",
						"numberOfBytes": "32",
						"value": "t_struct(Party)61_storage"
					},
					"t_mapping(t_uint256,t_struct(Voter)128_storage)": {
						"encoding": "mapping",
						"key": "t_uint256",
						"label": "mapping(uint256 => struct Voting_Struct.Voter)",
						"numberOfBytes": "32",
						"value": "t_struct(Voter)128_storage"
					},
					"t_string_storage": {
						"encoding": "bytes",
						"label": "string",
						"numberOfBytes": "32"
					},
					"t_struct(Party)61_storage": {
						"encoding": "inplace",
						"label": "struct Voting_Struct.Party",
						"members": [
							{
								"astId": 56,
								"contract": "Practice/Voting_Struct.sol:Voting_Struct",
								"label": "id",
								"offset": 0,
								"slot": "0",
								"type": "t_uint256"
							},
							{
								"astId": 58,
								"contract": "Practice/Voting_Struct.sol:Voting_Struct",
								"label": "name",
								"offset": 0,
								"slot": "1",
								"type": "t_string_storage"
							},
							{
								"astId": 60,
								"contract": "Practice/Voting_Struct.sol:Voting_Struct",
								"label": "voteCount",
								"offset": 0,
								"slot": "2",
								"type": "t_uint256"
							}
						],
						"numberOfBytes": "96"
					},
					"t_struct(Voter)128_storage": {
						"encoding": "inplace",
						"label": "struct Voting_Struct.Voter",
						"members": [
							{
								"astId": 121,
								"contract": "Practice/Voting_Struct.sol:Voting_Struct",
								"label": "id",
								"offset": 0,
								"slot": "0",
								"type": "t_uint256"
							},
							{
								"astId": 123,
								"contract": "Practice/Voting_Struct.sol:Voting_Struct",
								"label": "name",
								"offset": 0,
								"slot": "1",
								"type": "t_string_storage"
							},
							{
								"astId": 125,
								"contract": "Practice/Voting_Struct.sol:Voting_Struct",
								"label": "isVoted",
								"offset": 0,
								"slot": "2",
								"type": "t_bool"
							},
							{
								"astId": 127,
								"contract": "Practice/Voting_Struct.sol:Voting_Struct",
								"label": "wallet",
								"offset": 1,
								"slot": "2",
								"type": "t_address"
							}
						],
						"numberOfBytes": "96"
					},
					"t_uint256": {
						"encoding": "inplace",
						"label": "uint256",
						"numberOfBytes": "32"
					}
				}
			},
			"userdoc": {
				"kind": "user",
				"methods": {},
				"version": 1
			}
		}
	}
}