{
	"Practice/ToDoList.sol": {
		"ToDo": {
			"abi": [
				{
					"inputs": [
						{
							"internalType": "uint256",
							"name": "index",
							"type": "uint256"
						}
					],
					"name": "TickTask",
					"outputs": [],
					"stateMutability": "nonpayable",
					"type": "function"
				},
				{
					"inputs": [
						{
							"internalType": "string",
							"name": "task",
							"type": "string"
						}
					],
					"name": "addTask",
					"outputs": [],
					"stateMutability": "nonpayable",
					"type": "function"
				},
				{
					"inputs": [],
					"name": "getAllTasks",
					"outputs": [
						{
							"internalType": "string[]",
							"name": "",
							"type": "string[]"
						},
						{
							"internalType": "bool[]",
							"name": "",
							"type": "bool[]"
						}
					],
					"stateMutability": "view",
					"type": "function"
				}
			],
			"devdoc": {
				"kind": "dev",
				"methods": {},
				"version": 1
			},
			"evm": {
				"assembly": "    /* \"Practice/ToDoList.sol\":433:1185  contract ToDo{\r... */\n  mstore(0x40, 0x80)\n  callvalue\n  dup1\n  iszero\n  tag_1\n  jumpi\n  0x00\n  dup1\n  revert\ntag_1:\n  pop\n  dataSize(sub_0)\n  dup1\n  dataOffset(sub_0)\n  0x00\n  codecopy\n  0x00\n  return\nstop\n\nsub_0: assembly {\n        /* \"Practice/ToDoList.sol\":433:1185  contract ToDo{\r... */\n      mstore(0x40, 0x80)\n      callvalue\n      dup1\n      iszero\n      tag_1\n      jumpi\n      0x00\n      dup1\n      revert\n    tag_1:\n      pop\n      jumpi(tag_2, lt(calldatasize, 0x04))\n      shr(0xe0, calldataload(0x00))\n      dup1\n      0x67238562\n      eq\n      tag_3\n      jumpi\n      dup1\n      0x779900b4\n      eq\n      tag_4\n      jumpi\n      dup1\n      0x9e96b818\n      eq\n      tag_5\n      jumpi\n    tag_2:\n      0x00\n      dup1\n      revert\n        /* \"Practice/ToDoList.sol\":515:658  function addTask(string memory task) public{\r... */\n    tag_3:\n      tag_6\n      0x04\n      dup1\n      calldatasize\n      sub\n      dup2\n      add\n      swap1\n      tag_7\n      swap2\n      swap1\n      tag_8\n      jump\t// in\n    tag_7:\n      tag_9\n      jump\t// in\n    tag_6:\n      stop\n        /* \"Practice/ToDoList.sol\":873:1180  function getAllTasks() public view returns (string[] memory, bool[] memory) {\r... */\n    tag_4:\n      tag_10\n      tag_11\n      jump\t// in\n    tag_10:\n      mload(0x40)\n      tag_12\n      swap3\n      swap2\n      swap1\n      tag_13\n      jump\t// in\n    tag_12:\n      mload(0x40)\n      dup1\n      swap2\n      sub\n      swap1\n      return\n        /* \"Practice/ToDoList.sol\":666:865  function TickTask(uint index) public{\r... */\n    tag_5:\n      tag_14\n      0x04\n      dup1\n      calldatasize\n      sub\n      dup2\n      add\n      swap1\n      tag_15\n      swap2\n      swap1\n      tag_16\n      jump\t// in\n    tag_15:\n      tag_17\n      jump\t// in\n    tag_14:\n      stop\n        /* \"Practice/ToDoList.sol\":515:658  function addTask(string memory task) public{\r... */\n    tag_9:\n        /* \"Practice/ToDoList.sol\":597:598  3 */\n      0x03\n        /* \"Practice/ToDoList.sol\":583:587  task */\n      dup2\n        /* \"Practice/ToDoList.sol\":577:595  bytes(task).length */\n      mload\n        /* \"Practice/ToDoList.sol\":577:598  bytes(task).length>=3 */\n      lt\n      iszero\n        /* \"Practice/ToDoList.sol\":569:623  require(bytes(task).length>=3,\"Minimum 3 letter word\") */\n      tag_19\n      jumpi\n      mload(0x40)\n      0x08c379a000000000000000000000000000000000000000000000000000000000\n      dup2\n      mstore\n      0x04\n      add\n      tag_20\n      swap1\n      tag_21\n      jump\t// in\n    tag_20:\n      mload(0x40)\n      dup1\n      swap2\n      sub\n      swap1\n      revert\n    tag_19:\n        /* \"Practice/ToDoList.sol\":634:639  tasks */\n      0x00\n        /* \"Practice/ToDoList.sol\":645:649  task */\n      dup2\n        /* \"Practice/ToDoList.sol\":634:650  tasks.push(task) */\n      swap1\n      dup1\n      0x01\n      dup2\n      sload\n      add\n      dup1\n      dup3\n      sstore\n      dup1\n      swap2\n      pop\n      pop\n      0x01\n      swap1\n      sub\n      swap1\n      0x00\n      mstore\n      keccak256(0x00, 0x20)\n      add\n      0x00\n      swap1\n      swap2\n      swap1\n      swap2\n      swap1\n      swap2\n      pop\n      swap1\n      dup1\n      mload\n      swap1\n      0x20\n      add\n      swap1\n      tag_23\n      swap3\n      swap2\n      swap1\n      tag_24\n      jump\t// in\n    tag_23:\n      pop\n        /* \"Practice/ToDoList.sol\":515:658  function addTask(string memory task) public{\r... */\n      pop\n      jump\t// out\n        /* \"Practice/ToDoList.sol\":873:1180  function getAllTasks() public view returns (string[] memory, bool[] memory) {\r... */\n    tag_11:\n        /* \"Practice/ToDoList.sol\":917:932  string[] memory */\n      0x60\n        /* \"Practice/ToDoList.sol\":934:947  bool[] memory */\n      dup1\n        /* \"Practice/ToDoList.sol\":960:990  bool[] memory completionStatus */\n      0x00\n        /* \"Practice/ToDoList.sol\":1004:1009  tasks */\n      dup1\n        /* \"Practice/ToDoList.sol\":1004:1016  tasks.length */\n      dup1\n      sload\n      swap1\n      pop\n        /* \"Practice/ToDoList.sol\":993:1017  new bool[](tasks.length) */\n      0xffffffffffffffff\n      dup2\n      gt\n      iszero\n      tag_26\n      jumpi\n      mstore(0x00, 0x4e487b7100000000000000000000000000000000000000000000000000000000)\n      mstore(0x04, 0x41)\n      revert(0x00, 0x24)\n    tag_26:\n      mload(0x40)\n      swap1\n      dup1\n      dup3\n      mstore\n      dup1\n      0x20\n      mul\n      0x20\n      add\n      dup3\n      add\n      0x40\n      mstore\n      dup1\n      iszero\n      tag_27\n      jumpi\n      dup2\n      0x20\n      add\n      0x20\n      dup3\n      mul\n      dup1\n      calldatasize\n      dup4\n      calldatacopy\n      dup1\n      dup3\n      add\n      swap2\n      pop\n      pop\n      swap1\n      pop\n    tag_27:\n      pop\n        /* \"Practice/ToDoList.sol\":960:1017  bool[] memory completionStatus = new bool[](tasks.length) */\n      swap1\n      pop\n        /* \"Practice/ToDoList.sol\":1033:1039  uint i */\n      0x00\n        /* \"Practice/ToDoList.sol\":1028:1130  for (uint i = 0; i < tasks.length; i++) {\r... */\n    tag_28:\n        /* \"Practice/ToDoList.sol\":1049:1054  tasks */\n      0x00\n        /* \"Practice/ToDoList.sol\":1049:1061  tasks.length */\n      dup1\n      sload\n      swap1\n      pop\n        /* \"Practice/ToDoList.sol\":1045:1046  i */\n      dup2\n        /* \"Practice/ToDoList.sol\":1045:1061  i < tasks.length */\n      lt\n        /* \"Practice/ToDoList.sol\":1028:1130  for (uint i = 0; i < tasks.length; i++) {\r... */\n      iszero\n      tag_29\n      jumpi\n        /* \"Practice/ToDoList.sol\":1105:1115  isComplete */\n      0x01\n        /* \"Practice/ToDoList.sol\":1105:1118  isComplete[i] */\n      0x00\n        /* \"Practice/ToDoList.sol\":1116:1117  i */\n      dup3\n        /* \"Practice/ToDoList.sol\":1105:1118  isComplete[i] */\n      dup2\n      mstore\n      0x20\n      add\n      swap1\n      dup2\n      mstore\n      0x20\n      add\n      0x00\n      keccak256\n      0x00\n      swap1\n      sload\n      swap1\n      0x0100\n      exp\n      swap1\n      div\n      0xff\n      and\n        /* \"Practice/ToDoList.sol\":1083:1099  completionStatus */\n      dup3\n        /* \"Practice/ToDoList.sol\":1100:1101  i */\n      dup3\n        /* \"Practice/ToDoList.sol\":1083:1102  completionStatus[i] */\n      dup2\n      mload\n      dup2\n      lt\n      tag_31\n      jumpi\n      mstore(0x00, 0x4e487b7100000000000000000000000000000000000000000000000000000000)\n      mstore(0x04, 0x32)\n      revert(0x00, 0x24)\n    tag_31:\n      0x20\n      mul\n      0x20\n      add\n      add\n        /* \"Practice/ToDoList.sol\":1083:1118  completionStatus[i] = isComplete[i] */\n      swap1\n      iszero\n      iszero\n      swap1\n      dup2\n      iszero\n      iszero\n      dup2\n      mstore\n      pop\n      pop\n        /* \"Practice/ToDoList.sol\":1063:1066  i++ */\n      dup1\n      dup1\n      tag_32\n      swap1\n      tag_33\n      jump\t// in\n    tag_32:\n      swap2\n      pop\n      pop\n        /* \"Practice/ToDoList.sol\":1028:1130  for (uint i = 0; i < tasks.length; i++) {\r... */\n      jump(tag_28)\n    tag_29:\n      pop\n        /* \"Practice/ToDoList.sol\":1148:1153  tasks */\n      0x00\n        /* \"Practice/ToDoList.sol\":1155:1171  completionStatus */\n      dup2\n        /* \"Practice/ToDoList.sol\":1140:1172  return (tasks, completionStatus) */\n      dup2\n      dup1\n      sload\n      dup1\n      0x20\n      mul\n      0x20\n      add\n      mload(0x40)\n      swap1\n      dup2\n      add\n      0x40\n      mstore\n      dup1\n      swap3\n      swap2\n      swap1\n      dup2\n      dup2\n      mstore\n      0x20\n      add\n      0x00\n      swap1\n    tag_34:\n      dup3\n      dup3\n      lt\n      iszero\n      tag_35\n      jumpi\n      dup4\n      dup3\n      swap1\n      0x00\n      mstore\n      keccak256(0x00, 0x20)\n      add\n      dup1\n      sload\n      tag_37\n      swap1\n      tag_38\n      jump\t// in\n    tag_37:\n      dup1\n      0x1f\n      add\n      0x20\n      dup1\n      swap2\n      div\n      mul\n      0x20\n      add\n      mload(0x40)\n      swap1\n      dup2\n      add\n      0x40\n      mstore\n      dup1\n      swap3\n      swap2\n      swap1\n      dup2\n      dup2\n      mstore\n      0x20\n      add\n      dup3\n      dup1\n      sload\n      tag_39\n      swap1\n      tag_38\n      jump\t// in\n    tag_39:\n      dup1\n      iszero\n      tag_40\n      jumpi\n      dup1\n      0x1f\n      lt\n      tag_41\n      jumpi\n      0x0100\n      dup1\n      dup4\n      sload\n      div\n      mul\n      dup4\n      mstore\n      swap2\n      0x20\n      add\n      swap2\n      jump(tag_40)\n    tag_41:\n      dup3\n      add\n      swap2\n      swap1\n      0x00\n      mstore\n      keccak256(0x00, 0x20)\n      swap1\n    tag_42:\n      dup2\n      sload\n      dup2\n      mstore\n      swap1\n      0x01\n      add\n      swap1\n      0x20\n      add\n      dup1\n      dup4\n      gt\n      tag_42\n      jumpi\n      dup3\n      swap1\n      sub\n      0x1f\n      and\n      dup3\n      add\n      swap2\n    tag_40:\n      pop\n      pop\n      pop\n      pop\n      pop\n      dup2\n      mstore\n      0x20\n      add\n      swap1\n      0x01\n      add\n      swap1\n      jump(tag_34)\n    tag_35:\n      pop\n      pop\n      pop\n      pop\n      swap2\n      pop\n      swap3\n      pop\n      swap3\n      pop\n      pop\n        /* \"Practice/ToDoList.sol\":873:1180  function getAllTasks() public view returns (string[] memory, bool[] memory) {\r... */\n      swap1\n      swap2\n      jump\t// out\n        /* \"Practice/ToDoList.sol\":666:865  function TickTask(uint index) public{\r... */\n    tag_17:\n        /* \"Practice/ToDoList.sol\":722:732  isComplete */\n      0x01\n        /* \"Practice/ToDoList.sol\":722:739  isComplete[index] */\n      0x00\n        /* \"Practice/ToDoList.sol\":733:738  index */\n      dup3\n        /* \"Practice/ToDoList.sol\":722:739  isComplete[index] */\n      dup2\n      mstore\n      0x20\n      add\n      swap1\n      dup2\n      mstore\n      0x20\n      add\n      0x00\n      keccak256\n      0x00\n      swap1\n      sload\n      swap1\n      0x0100\n      exp\n      swap1\n      div\n      0xff\n      and\n        /* \"Practice/ToDoList.sol\":721:739  !isComplete[index] */\n      iszero\n        /* \"Practice/ToDoList.sol\":713:760  require(!isComplete[index],\"Already Completed\") */\n      tag_44\n      jumpi\n      mload(0x40)\n      0x08c379a000000000000000000000000000000000000000000000000000000000\n      dup2\n      mstore\n      0x04\n      add\n      tag_45\n      swap1\n      tag_46\n      jump\t// in\n    tag_45:\n      mload(0x40)\n      dup1\n      swap2\n      sub\n      swap1\n      revert\n    tag_44:\n        /* \"Practice/ToDoList.sol\":792:797  index */\n      dup1\n        /* \"Practice/ToDoList.sol\":779:784  tasks */\n      0x00\n        /* \"Practice/ToDoList.sol\":779:791  tasks.length */\n      dup1\n      sload\n      swap1\n      pop\n        /* \"Practice/ToDoList.sol\":779:797  tasks.length>index */\n      gt\n        /* \"Practice/ToDoList.sol\":771:813  require(tasks.length>index,\"Invalid task\") */\n      tag_47\n      jumpi\n      mload(0x40)\n      0x08c379a000000000000000000000000000000000000000000000000000000000\n      dup2\n      mstore\n      0x04\n      add\n      tag_48\n      swap1\n      tag_49\n      jump\t// in\n    tag_48:\n      mload(0x40)\n      dup1\n      swap2\n      sub\n      swap1\n      revert\n    tag_47:\n        /* \"Practice/ToDoList.sol\":853:857  true */\n      0x01\n        /* \"Practice/ToDoList.sol\":834:844  isComplete */\n      dup1\n        /* \"Practice/ToDoList.sol\":834:851  isComplete[index] */\n      0x00\n        /* \"Practice/ToDoList.sol\":845:850  index */\n      dup4\n        /* \"Practice/ToDoList.sol\":834:851  isComplete[index] */\n      dup2\n      mstore\n      0x20\n      add\n      swap1\n      dup2\n      mstore\n      0x20\n      add\n      0x00\n      keccak256\n      0x00\n        /* \"Practice/ToDoList.sol\":834:857  isComplete[index]= true */\n      0x0100\n      exp\n      dup2\n      sload\n      dup2\n      0xff\n      mul\n      not\n      and\n      swap1\n      dup4\n      iszero\n      iszero\n      mul\n      or\n      swap1\n      sstore\n      pop\n        /* \"Practice/ToDoList.sol\":666:865  function TickTask(uint index) public{\r... */\n      pop\n      jump\t// out\n    tag_24:\n      dup3\n      dup1\n      sload\n      tag_50\n      swap1\n      tag_38\n      jump\t// in\n    tag_50:\n      swap1\n      0x00\n      mstore\n      keccak256(0x00, 0x20)\n      swap1\n      0x1f\n      add\n      0x20\n      swap1\n      div\n      dup2\n      add\n      swap3\n      dup3\n      tag_52\n      jumpi\n      0x00\n      dup6\n      sstore\n      jump(tag_51)\n    tag_52:\n      dup3\n      0x1f\n      lt\n      tag_53\n      jumpi\n      dup1\n      mload\n      not(0xff)\n      and\n      dup4\n      dup1\n      add\n      or\n      dup6\n      sstore\n      jump(tag_51)\n    tag_53:\n      dup3\n      dup1\n      add\n      0x01\n      add\n      dup6\n      sstore\n      dup3\n      iszero\n      tag_51\n      jumpi\n      swap2\n      dup3\n      add\n    tag_54:\n      dup3\n      dup2\n      gt\n      iszero\n      tag_55\n      jumpi\n      dup3\n      mload\n      dup3\n      sstore\n      swap2\n      0x20\n      add\n      swap2\n      swap1\n      0x01\n      add\n      swap1\n      jump(tag_54)\n    tag_55:\n    tag_51:\n      pop\n      swap1\n      pop\n      tag_56\n      swap2\n      swap1\n      tag_57\n      jump\t// in\n    tag_56:\n      pop\n      swap1\n      jump\t// out\n    tag_57:\n    tag_58:\n      dup1\n      dup3\n      gt\n      iszero\n      tag_59\n      jumpi\n      0x00\n      dup2\n      0x00\n      swap1\n      sstore\n      pop\n      0x01\n      add\n      jump(tag_58)\n    tag_59:\n      pop\n      swap1\n      jump\t// out\n        /* \"#utility.yul\":7:351   */\n    tag_61:\n      0x00\n        /* \"#utility.yul\":110:175   */\n      tag_63\n        /* \"#utility.yul\":125:174   */\n      tag_64\n        /* \"#utility.yul\":167:173   */\n      dup5\n        /* \"#utility.yul\":125:174   */\n      tag_65\n      jump\t// in\n    tag_64:\n        /* \"#utility.yul\":110:175   */\n      tag_66\n      jump\t// in\n    tag_63:\n        /* \"#utility.yul\":101:175   */\n      swap1\n      pop\n        /* \"#utility.yul\":198:204   */\n      dup3\n        /* \"#utility.yul\":191:196   */\n      dup2\n        /* \"#utility.yul\":184:205   */\n      mstore\n        /* \"#utility.yul\":236:240   */\n      0x20\n        /* \"#utility.yul\":229:234   */\n      dup2\n        /* \"#utility.yul\":225:241   */\n      add\n        /* \"#utility.yul\":274:277   */\n      dup5\n        /* \"#utility.yul\":265:271   */\n      dup5\n        /* \"#utility.yul\":260:263   */\n      dup5\n        /* \"#utility.yul\":256:272   */\n      add\n        /* \"#utility.yul\":253:278   */\n      gt\n        /* \"#utility.yul\":250:252   */\n      iszero\n      tag_67\n      jumpi\n        /* \"#utility.yul\":291:292   */\n      0x00\n        /* \"#utility.yul\":288:289   */\n      dup1\n        /* \"#utility.yul\":281:293   */\n      revert\n        /* \"#utility.yul\":250:252   */\n    tag_67:\n        /* \"#utility.yul\":304:345   */\n      tag_68\n        /* \"#utility.yul\":338:344   */\n      dup5\n        /* \"#utility.yul\":333:336   */\n      dup3\n        /* \"#utility.yul\":328:331   */\n      dup6\n        /* \"#utility.yul\":304:345   */\n      tag_69\n      jump\t// in\n    tag_68:\n        /* \"#utility.yul\":91:351   */\n      pop\n      swap4\n      swap3\n      pop\n      pop\n      pop\n      jump\t// out\n        /* \"#utility.yul\":371:644   */\n    tag_70:\n      0x00\n        /* \"#utility.yul\":476:479   */\n      dup3\n        /* \"#utility.yul\":469:473   */\n      0x1f\n        /* \"#utility.yul\":461:467   */\n      dup4\n        /* \"#utility.yul\":457:474   */\n      add\n        /* \"#utility.yul\":453:480   */\n      slt\n        /* \"#utility.yul\":443:445   */\n      tag_72\n      jumpi\n        /* \"#utility.yul\":494:495   */\n      0x00\n        /* \"#utility.yul\":491:492   */\n      dup1\n        /* \"#utility.yul\":484:496   */\n      revert\n        /* \"#utility.yul\":443:445   */\n    tag_72:\n        /* \"#utility.yul\":534:540   */\n      dup2\n        /* \"#utility.yul\":521:541   */\n      calldataload\n        /* \"#utility.yul\":559:638   */\n      tag_73\n        /* \"#utility.yul\":634:637   */\n      dup5\n        /* \"#utility.yul\":626:632   */\n      dup3\n        /* \"#utility.yul\":619:623   */\n      0x20\n        /* \"#utility.yul\":611:617   */\n      dup7\n        /* \"#utility.yul\":607:624   */\n      add\n        /* \"#utility.yul\":559:638   */\n      tag_61\n      jump\t// in\n    tag_73:\n        /* \"#utility.yul\":550:638   */\n      swap2\n      pop\n        /* \"#utility.yul\":433:644   */\n      pop\n      swap3\n      swap2\n      pop\n      pop\n      jump\t// out\n        /* \"#utility.yul\":650:789   */\n    tag_74:\n      0x00\n        /* \"#utility.yul\":734:740   */\n      dup2\n        /* \"#utility.yul\":721:741   */\n      calldataload\n        /* \"#utility.yul\":712:741   */\n      swap1\n      pop\n        /* \"#utility.yul\":750:783   */\n      tag_76\n        /* \"#utility.yul\":777:782   */\n      dup2\n        /* \"#utility.yul\":750:783   */\n      tag_77\n      jump\t// in\n    tag_76:\n        /* \"#utility.yul\":702:789   */\n      swap3\n      swap2\n      pop\n      pop\n      jump\t// out\n        /* \"#utility.yul\":795:1170   */\n    tag_8:\n      0x00\n        /* \"#utility.yul\":913:915   */\n      0x20\n        /* \"#utility.yul\":901:910   */\n      dup3\n        /* \"#utility.yul\":892:899   */\n      dup5\n        /* \"#utility.yul\":888:911   */\n      sub\n        /* \"#utility.yul\":884:916   */\n      slt\n        /* \"#utility.yul\":881:883   */\n      iszero\n      tag_79\n      jumpi\n        /* \"#utility.yul\":929:930   */\n      0x00\n        /* \"#utility.yul\":926:927   */\n      dup1\n        /* \"#utility.yul\":919:931   */\n      revert\n        /* \"#utility.yul\":881:883   */\n    tag_79:\n        /* \"#utility.yul\":1000:1001   */\n      0x00\n        /* \"#utility.yul\":989:998   */\n      dup3\n        /* \"#utility.yul\":985:1002   */\n      add\n        /* \"#utility.yul\":972:1003   */\n      calldataload\n        /* \"#utility.yul\":1030:1048   */\n      0xffffffffffffffff\n        /* \"#utility.yul\":1022:1028   */\n      dup2\n        /* \"#utility.yul\":1019:1049   */\n      gt\n        /* \"#utility.yul\":1016:1018   */\n      iszero\n      tag_80\n      jumpi\n        /* \"#utility.yul\":1062:1063   */\n      0x00\n        /* \"#utility.yul\":1059:1060   */\n      dup1\n        /* \"#utility.yul\":1052:1064   */\n      revert\n        /* \"#utility.yul\":1016:1018   */\n    tag_80:\n        /* \"#utility.yul\":1090:1153   */\n      tag_81\n        /* \"#utility.yul\":1145:1152   */\n      dup5\n        /* \"#utility.yul\":1136:1142   */\n      dup3\n        /* \"#utility.yul\":1125:1134   */\n      dup6\n        /* \"#utility.yul\":1121:1143   */\n      add\n        /* \"#utility.yul\":1090:1153   */\n      tag_70\n      jump\t// in\n    tag_81:\n        /* \"#utility.yul\":1080:1153   */\n      swap2\n      pop\n        /* \"#utility.yul\":943:1163   */\n      pop\n        /* \"#utility.yul\":871:1170   */\n      swap3\n      swap2\n      pop\n      pop\n      jump\t// out\n        /* \"#utility.yul\":1176:1438   */\n    tag_16:\n      0x00\n        /* \"#utility.yul\":1284:1286   */\n      0x20\n        /* \"#utility.yul\":1272:1281   */\n      dup3\n        /* \"#utility.yul\":1263:1270   */\n      dup5\n        /* \"#utility.yul\":1259:1282   */\n      sub\n        /* \"#utility.yul\":1255:1287   */\n      slt\n        /* \"#utility.yul\":1252:1254   */\n      iszero\n      tag_83\n      jumpi\n        /* \"#utility.yul\":1300:1301   */\n      0x00\n        /* \"#utility.yul\":1297:1298   */\n      dup1\n        /* \"#utility.yul\":1290:1302   */\n      revert\n        /* \"#utility.yul\":1252:1254   */\n    tag_83:\n        /* \"#utility.yul\":1343:1344   */\n      0x00\n        /* \"#utility.yul\":1368:1421   */\n      tag_84\n        /* \"#utility.yul\":1413:1420   */\n      dup5\n        /* \"#utility.yul\":1404:1410   */\n      dup3\n        /* \"#utility.yul\":1393:1402   */\n      dup6\n        /* \"#utility.yul\":1389:1411   */\n      add\n        /* \"#utility.yul\":1368:1421   */\n      tag_74\n      jump\t// in\n    tag_84:\n        /* \"#utility.yul\":1358:1421   */\n      swap2\n      pop\n        /* \"#utility.yul\":1314:1431   */\n      pop\n        /* \"#utility.yul\":1242:1438   */\n      swap3\n      swap2\n      pop\n      pop\n      jump\t// out\n        /* \"#utility.yul\":1444:1611   */\n    tag_85:\n      0x00\n        /* \"#utility.yul\":1528:1568   */\n      tag_87\n        /* \"#utility.yul\":1564:1567   */\n      dup4\n        /* \"#utility.yul\":1556:1562   */\n      dup4\n        /* \"#utility.yul\":1528:1568   */\n      tag_88\n      jump\t// in\n    tag_87:\n        /* \"#utility.yul\":1600:1604   */\n      0x20\n        /* \"#utility.yul\":1595:1598   */\n      dup4\n        /* \"#utility.yul\":1591:1605   */\n      add\n        /* \"#utility.yul\":1577:1605   */\n      swap1\n      pop\n        /* \"#utility.yul\":1518:1611   */\n      swap3\n      swap2\n      pop\n      pop\n      jump\t// out\n        /* \"#utility.yul\":1617:1813   */\n    tag_89:\n      0x00\n        /* \"#utility.yul\":1741:1807   */\n      tag_91\n        /* \"#utility.yul\":1803:1806   */\n      dup4\n        /* \"#utility.yul\":1795:1801   */\n      dup4\n        /* \"#utility.yul\":1741:1807   */\n      tag_92\n      jump\t// in\n    tag_91:\n        /* \"#utility.yul\":1727:1807   */\n      swap1\n      pop\n        /* \"#utility.yul\":1717:1813   */\n      swap3\n      swap2\n      pop\n      pop\n      jump\t// out\n        /* \"#utility.yul\":1843:2551   */\n    tag_93:\n      0x00\n        /* \"#utility.yul\":1985:2036   */\n      tag_95\n        /* \"#utility.yul\":2030:2035   */\n      dup3\n        /* \"#utility.yul\":1985:2036   */\n      tag_96\n      jump\t// in\n    tag_95:\n        /* \"#utility.yul\":2052:2135   */\n      tag_97\n        /* \"#utility.yul\":2128:2134   */\n      dup2\n        /* \"#utility.yul\":2123:2126   */\n      dup6\n        /* \"#utility.yul\":2052:2135   */\n      tag_98\n      jump\t// in\n    tag_97:\n        /* \"#utility.yul\":2045:2135   */\n      swap4\n      pop\n        /* \"#utility.yul\":2159:2212   */\n      tag_99\n        /* \"#utility.yul\":2206:2211   */\n      dup4\n        /* \"#utility.yul\":2159:2212   */\n      tag_100\n      jump\t// in\n    tag_99:\n        /* \"#utility.yul\":2235:2242   */\n      dup1\n        /* \"#utility.yul\":2266:2267   */\n      0x00\n        /* \"#utility.yul\":2251:2526   */\n    tag_101:\n        /* \"#utility.yul\":2276:2282   */\n      dup4\n        /* \"#utility.yul\":2273:2274   */\n      dup2\n        /* \"#utility.yul\":2270:2283   */\n      lt\n        /* \"#utility.yul\":2251:2526   */\n      iszero\n      tag_103\n      jumpi\n        /* \"#utility.yul\":2352:2358   */\n      dup2\n        /* \"#utility.yul\":2346:2359   */\n      mload\n        /* \"#utility.yul\":2379:2436   */\n      tag_104\n        /* \"#utility.yul\":2432:2435   */\n      dup9\n        /* \"#utility.yul\":2417:2430   */\n      dup3\n        /* \"#utility.yul\":2379:2436   */\n      tag_85\n      jump\t// in\n    tag_104:\n        /* \"#utility.yul\":2372:2436   */\n      swap8\n      pop\n        /* \"#utility.yul\":2459:2516   */\n      tag_105\n        /* \"#utility.yul\":2509:2515   */\n      dup4\n        /* \"#utility.yul\":2459:2516   */\n      tag_106\n      jump\t// in\n    tag_105:\n        /* \"#utility.yul\":2449:2516   */\n      swap3\n      pop\n        /* \"#utility.yul\":2311:2526   */\n      pop\n        /* \"#utility.yul\":2298:2299   */\n      0x01\n        /* \"#utility.yul\":2295:2296   */\n      dup2\n        /* \"#utility.yul\":2291:2300   */\n      add\n        /* \"#utility.yul\":2286:2300   */\n      swap1\n      pop\n        /* \"#utility.yul\":2251:2526   */\n      jump(tag_101)\n    tag_103:\n        /* \"#utility.yul\":2255:2269   */\n      pop\n        /* \"#utility.yul\":2542:2545   */\n      dup6\n        /* \"#utility.yul\":2535:2545   */\n      swap4\n      pop\n        /* \"#utility.yul\":1961:2551   */\n      pop\n      pop\n      pop\n      swap3\n      swap2\n      pop\n      pop\n      jump\t// out\n        /* \"#utility.yul\":2585:3576   */\n    tag_107:\n      0x00\n        /* \"#utility.yul\":2753:2817   */\n      tag_109\n        /* \"#utility.yul\":2811:2816   */\n      dup3\n        /* \"#utility.yul\":2753:2817   */\n      tag_110\n      jump\t// in\n    tag_109:\n        /* \"#utility.yul\":2833:2929   */\n      tag_111\n        /* \"#utility.yul\":2922:2928   */\n      dup2\n        /* \"#utility.yul\":2917:2920   */\n      dup6\n        /* \"#utility.yul\":2833:2929   */\n      tag_112\n      jump\t// in\n    tag_111:\n        /* \"#utility.yul\":2826:2929   */\n      swap4\n      pop\n        /* \"#utility.yul\":2955:2958   */\n      dup4\n        /* \"#utility.yul\":3000:3004   */\n      0x20\n        /* \"#utility.yul\":2992:2998   */\n      dup3\n        /* \"#utility.yul\":2988:3005   */\n      mul\n        /* \"#utility.yul\":2983:2986   */\n      dup6\n        /* \"#utility.yul\":2979:3006   */\n      add\n        /* \"#utility.yul\":3030:3096   */\n      tag_113\n        /* \"#utility.yul\":3090:3095   */\n      dup6\n        /* \"#utility.yul\":3030:3096   */\n      tag_114\n      jump\t// in\n    tag_113:\n        /* \"#utility.yul\":3119:3126   */\n      dup1\n        /* \"#utility.yul\":3150:3151   */\n      0x00\n        /* \"#utility.yul\":3135:3531   */\n    tag_115:\n        /* \"#utility.yul\":3160:3166   */\n      dup6\n        /* \"#utility.yul\":3157:3158   */\n      dup2\n        /* \"#utility.yul\":3154:3167   */\n      lt\n        /* \"#utility.yul\":3135:3531   */\n      iszero\n      tag_117\n      jumpi\n        /* \"#utility.yul\":3231:3240   */\n      dup5\n        /* \"#utility.yul\":3225:3229   */\n      dup5\n        /* \"#utility.yul\":3221:3241   */\n      sub\n        /* \"#utility.yul\":3216:3219   */\n      dup10\n        /* \"#utility.yul\":3209:3242   */\n      mstore\n        /* \"#utility.yul\":3282:3288   */\n      dup2\n        /* \"#utility.yul\":3276:3289   */\n      mload\n        /* \"#utility.yul\":3310:3394   */\n      tag_118\n        /* \"#utility.yul\":3389:3393   */\n      dup6\n        /* \"#utility.yul\":3374:3387   */\n      dup3\n        /* \"#utility.yul\":3310:3394   */\n      tag_89\n      jump\t// in\n    tag_118:\n        /* \"#utility.yul\":3302:3394   */\n      swap5\n      pop\n        /* \"#utility.yul\":3417:3487   */\n      tag_119\n        /* \"#utility.yul\":3480:3486   */\n      dup4\n        /* \"#utility.yul\":3417:3487   */\n      tag_120\n      jump\t// in\n    tag_119:\n        /* \"#utility.yul\":3407:3487   */\n      swap3\n      pop\n        /* \"#utility.yul\":3516:3520   */\n      0x20\n        /* \"#utility.yul\":3511:3514   */\n      dup11\n        /* \"#utility.yul\":3507:3521   */\n      add\n        /* \"#utility.yul\":3500:3521   */\n      swap10\n      pop\n        /* \"#utility.yul\":3195:3531   */\n      pop\n        /* \"#utility.yul\":3182:3183   */\n      0x01\n        /* \"#utility.yul\":3179:3180   */\n      dup2\n        /* \"#utility.yul\":3175:3184   */\n      add\n        /* \"#utility.yul\":3170:3184   */\n      swap1\n      pop\n        /* \"#utility.yul\":3135:3531   */\n      jump(tag_115)\n    tag_117:\n        /* \"#utility.yul\":3139:3153   */\n      pop\n        /* \"#utility.yul\":3547:3551   */\n      dup3\n        /* \"#utility.yul\":3540:3551   */\n      swap8\n      pop\n        /* \"#utility.yul\":3567:3570   */\n      dup8\n        /* \"#utility.yul\":3560:3570   */\n      swap6\n      pop\n        /* \"#utility.yul\":2729:3576   */\n      pop\n      pop\n      pop\n      pop\n      pop\n      swap3\n      swap2\n      pop\n      pop\n      jump\t// out\n        /* \"#utility.yul\":3582:3681   */\n    tag_88:\n        /* \"#utility.yul\":3653:3674   */\n      tag_122\n        /* \"#utility.yul\":3668:3673   */\n      dup2\n        /* \"#utility.yul\":3653:3674   */\n      tag_123\n      jump\t// in\n    tag_122:\n        /* \"#utility.yul\":3648:3651   */\n      dup3\n        /* \"#utility.yul\":3641:3675   */\n      mstore\n        /* \"#utility.yul\":3631:3681   */\n      pop\n      pop\n      jump\t// out\n        /* \"#utility.yul\":3687:4031   */\n    tag_92:\n      0x00\n        /* \"#utility.yul\":3793:3832   */\n      tag_125\n        /* \"#utility.yul\":3826:3831   */\n      dup3\n        /* \"#utility.yul\":3793:3832   */\n      tag_126\n      jump\t// in\n    tag_125:\n        /* \"#utility.yul\":3848:3909   */\n      tag_127\n        /* \"#utility.yul\":3902:3908   */\n      dup2\n        /* \"#utility.yul\":3897:3900   */\n      dup6\n        /* \"#utility.yul\":3848:3909   */\n      tag_128\n      jump\t// in\n    tag_127:\n        /* \"#utility.yul\":3841:3909   */\n      swap4\n      pop\n        /* \"#utility.yul\":3918:3970   */\n      tag_129\n        /* \"#utility.yul\":3963:3969   */\n      dup2\n        /* \"#utility.yul\":3958:3961   */\n      dup6\n        /* \"#utility.yul\":3951:3955   */\n      0x20\n        /* \"#utility.yul\":3944:3949   */\n      dup7\n        /* \"#utility.yul\":3940:3956   */\n      add\n        /* \"#utility.yul\":3918:3970   */\n      tag_130\n      jump\t// in\n    tag_129:\n        /* \"#utility.yul\":3995:4024   */\n      tag_131\n        /* \"#utility.yul\":4017:4023   */\n      dup2\n        /* \"#utility.yul\":3995:4024   */\n      tag_132\n      jump\t// in\n    tag_131:\n        /* \"#utility.yul\":3990:3993   */\n      dup5\n        /* \"#utility.yul\":3986:4025   */\n      add\n        /* \"#utility.yul\":3979:4025   */\n      swap2\n      pop\n        /* \"#utility.yul\":3769:4031   */\n      pop\n      swap3\n      swap2\n      pop\n      pop\n      jump\t// out\n        /* \"#utility.yul\":4037:4347   */\n    tag_133:\n      0x00\n        /* \"#utility.yul\":4200:4267   */\n      tag_135\n        /* \"#utility.yul\":4264:4266   */\n      0x0c\n        /* \"#utility.yul\":4259:4262   */\n      dup4\n        /* \"#utility.yul\":4200:4267   */\n      tag_136\n      jump\t// in\n    tag_135:\n        /* \"#utility.yul\":4193:4267   */\n      swap2\n      pop\n        /* \"#utility.yul\":4297:4311   */\n      0x496e76616c6964207461736b0000000000000000000000000000000000000000\n        /* \"#utility.yul\":4293:4294   */\n      0x00\n        /* \"#utility.yul\":4288:4291   */\n      dup4\n        /* \"#utility.yul\":4284:4295   */\n      add\n        /* \"#utility.yul\":4277:4312   */\n      mstore\n        /* \"#utility.yul\":4338:4340   */\n      0x20\n        /* \"#utility.yul\":4333:4336   */\n      dup3\n        /* \"#utility.yul\":4329:4341   */\n      add\n        /* \"#utility.yul\":4322:4341   */\n      swap1\n      pop\n        /* \"#utility.yul\":4183:4347   */\n      swap2\n      swap1\n      pop\n      jump\t// out\n        /* \"#utility.yul\":4353:4668   */\n    tag_137:\n      0x00\n        /* \"#utility.yul\":4516:4583   */\n      tag_139\n        /* \"#utility.yul\":4580:4582   */\n      0x11\n        /* \"#utility.yul\":4575:4578   */\n      dup4\n        /* \"#utility.yul\":4516:4583   */\n      tag_136\n      jump\t// in\n    tag_139:\n        /* \"#utility.yul\":4509:4583   */\n      swap2\n      pop\n        /* \"#utility.yul\":4613:4632   */\n      0x416c726561647920436f6d706c65746564000000000000000000000000000000\n        /* \"#utility.yul\":4609:4610   */\n      0x00\n        /* \"#utility.yul\":4604:4607   */\n      dup4\n        /* \"#utility.yul\":4600:4611   */\n      add\n        /* \"#utility.yul\":4593:4633   */\n      mstore\n        /* \"#utility.yul\":4659:4661   */\n      0x20\n        /* \"#utility.yul\":4654:4657   */\n      dup3\n        /* \"#utility.yul\":4650:4662   */\n      add\n        /* \"#utility.yul\":4643:4662   */\n      swap1\n      pop\n        /* \"#utility.yul\":4499:4668   */\n      swap2\n      swap1\n      pop\n      jump\t// out\n        /* \"#utility.yul\":4674:4993   */\n    tag_140:\n      0x00\n        /* \"#utility.yul\":4837:4904   */\n      tag_142\n        /* \"#utility.yul\":4901:4903   */\n      0x15\n        /* \"#utility.yul\":4896:4899   */\n      dup4\n        /* \"#utility.yul\":4837:4904   */\n      tag_136\n      jump\t// in\n    tag_142:\n        /* \"#utility.yul\":4830:4904   */\n      swap2\n      pop\n        /* \"#utility.yul\":4934:4957   */\n      0x4d696e696d756d2033206c657474657220776f72640000000000000000000000\n        /* \"#utility.yul\":4930:4931   */\n      0x00\n        /* \"#utility.yul\":4925:4928   */\n      dup4\n        /* \"#utility.yul\":4921:4932   */\n      add\n        /* \"#utility.yul\":4914:4958   */\n      mstore\n        /* \"#utility.yul\":4984:4986   */\n      0x20\n        /* \"#utility.yul\":4979:4982   */\n      dup3\n        /* \"#utility.yul\":4975:4987   */\n      add\n        /* \"#utility.yul\":4968:4987   */\n      swap1\n      pop\n        /* \"#utility.yul\":4820:4993   */\n      swap2\n      swap1\n      pop\n      jump\t// out\n        /* \"#utility.yul\":4999:5661   */\n    tag_13:\n      0x00\n        /* \"#utility.yul\":5272:5274   */\n      0x40\n        /* \"#utility.yul\":5261:5270   */\n      dup3\n        /* \"#utility.yul\":5257:5275   */\n      add\n        /* \"#utility.yul\":5249:5275   */\n      swap1\n      pop\n        /* \"#utility.yul\":5321:5330   */\n      dup2\n        /* \"#utility.yul\":5315:5319   */\n      dup2\n        /* \"#utility.yul\":5311:5331   */\n      sub\n        /* \"#utility.yul\":5307:5308   */\n      0x00\n        /* \"#utility.yul\":5296:5305   */\n      dup4\n        /* \"#utility.yul\":5292:5309   */\n      add\n        /* \"#utility.yul\":5285:5332   */\n      mstore\n        /* \"#utility.yul\":5349:5477   */\n      tag_144\n        /* \"#utility.yul\":5472:5476   */\n      dup2\n        /* \"#utility.yul\":5463:5469   */\n      dup6\n        /* \"#utility.yul\":5349:5477   */\n      tag_107\n      jump\t// in\n    tag_144:\n        /* \"#utility.yul\":5341:5477   */\n      swap1\n      pop\n        /* \"#utility.yul\":5524:5533   */\n      dup2\n        /* \"#utility.yul\":5518:5522   */\n      dup2\n        /* \"#utility.yul\":5514:5534   */\n      sub\n        /* \"#utility.yul\":5509:5511   */\n      0x20\n        /* \"#utility.yul\":5498:5507   */\n      dup4\n        /* \"#utility.yul\":5494:5512   */\n      add\n        /* \"#utility.yul\":5487:5535   */\n      mstore\n        /* \"#utility.yul\":5552:5654   */\n      tag_145\n        /* \"#utility.yul\":5649:5653   */\n      dup2\n        /* \"#utility.yul\":5640:5646   */\n      dup5\n        /* \"#utility.yul\":5552:5654   */\n      tag_93\n      jump\t// in\n    tag_145:\n        /* \"#utility.yul\":5544:5654   */\n      swap1\n      pop\n        /* \"#utility.yul\":5239:5661   */\n      swap4\n      swap3\n      pop\n      pop\n      pop\n      jump\t// out\n        /* \"#utility.yul\":5667:6086   */\n    tag_49:\n      0x00\n        /* \"#utility.yul\":5871:5873   */\n      0x20\n        /* \"#utility.yul\":5860:5869   */\n      dup3\n        /* \"#utility.yul\":5856:5874   */\n      add\n        /* \"#utility.yul\":5848:5874   */\n      swap1\n      pop\n        /* \"#utility.yul\":5920:5929   */\n      dup2\n        /* \"#utility.yul\":5914:5918   */\n      dup2\n        /* \"#utility.yul\":5910:5930   */\n      sub\n        /* \"#utility.yul\":5906:5907   */\n      0x00\n        /* \"#utility.yul\":5895:5904   */\n      dup4\n        /* \"#utility.yul\":5891:5908   */\n      add\n        /* \"#utility.yul\":5884:5931   */\n      mstore\n        /* \"#utility.yul\":5948:6079   */\n      tag_147\n        /* \"#utility.yul\":6074:6078   */\n      dup2\n        /* \"#utility.yul\":5948:6079   */\n      tag_133\n      jump\t// in\n    tag_147:\n        /* \"#utility.yul\":5940:6079   */\n      swap1\n      pop\n        /* \"#utility.yul\":5838:6086   */\n      swap2\n      swap1\n      pop\n      jump\t// out\n        /* \"#utility.yul\":6092:6511   */\n    tag_46:\n      0x00\n        /* \"#utility.yul\":6296:6298   */\n      0x20\n        /* \"#utility.yul\":6285:6294   */\n      dup3\n        /* \"#utility.yul\":6281:6299   */\n      add\n        /* \"#utility.yul\":6273:6299   */\n      swap1\n      pop\n        /* \"#utility.yul\":6345:6354   */\n      dup2\n        /* \"#utility.yul\":6339:6343   */\n      dup2\n        /* \"#utility.yul\":6335:6355   */\n      sub\n        /* \"#utility.yul\":6331:6332   */\n      0x00\n        /* \"#utility.yul\":6320:6329   */\n      dup4\n        /* \"#utility.yul\":6316:6333   */\n      add\n        /* \"#utility.yul\":6309:6356   */\n      mstore\n        /* \"#utility.yul\":6373:6504   */\n      tag_149\n        /* \"#utility.yul\":6499:6503   */\n      dup2\n        /* \"#utility.yul\":6373:6504   */\n      tag_137\n      jump\t// in\n    tag_149:\n        /* \"#utility.yul\":6365:6504   */\n      swap1\n      pop\n        /* \"#utility.yul\":6263:6511   */\n      swap2\n      swap1\n      pop\n      jump\t// out\n        /* \"#utility.yul\":6517:6936   */\n    tag_21:\n      0x00\n        /* \"#utility.yul\":6721:6723   */\n      0x20\n        /* \"#utility.yul\":6710:6719   */\n      dup3\n        /* \"#utility.yul\":6706:6724   */\n      add\n        /* \"#utility.yul\":6698:6724   */\n      swap1\n      pop\n        /* \"#utility.yul\":6770:6779   */\n      dup2\n        /* \"#utility.yul\":6764:6768   */\n      dup2\n        /* \"#utility.yul\":6760:6780   */\n      sub\n        /* \"#utility.yul\":6756:6757   */\n      0x00\n        /* \"#utility.yul\":6745:6754   */\n      dup4\n        /* \"#utility.yul\":6741:6758   */\n      add\n        /* \"#utility.yul\":6734:6781   */\n      mstore\n        /* \"#utility.yul\":6798:6929   */\n      tag_151\n        /* \"#utility.yul\":6924:6928   */\n      dup2\n        /* \"#utility.yul\":6798:6929   */\n      tag_140\n      jump\t// in\n    tag_151:\n        /* \"#utility.yul\":6790:6929   */\n      swap1\n      pop\n        /* \"#utility.yul\":6688:6936   */\n      swap2\n      swap1\n      pop\n      jump\t// out\n        /* \"#utility.yul\":6942:7225   */\n    tag_66:\n      0x00\n        /* \"#utility.yul\":7008:7010   */\n      0x40\n        /* \"#utility.yul\":7002:7011   */\n      mload\n        /* \"#utility.yul\":6992:7011   */\n      swap1\n      pop\n        /* \"#utility.yul\":7050:7054   */\n      dup2\n        /* \"#utility.yul\":7042:7048   */\n      dup2\n        /* \"#utility.yul\":7038:7055   */\n      add\n        /* \"#utility.yul\":7157:7163   */\n      dup2\n        /* \"#utility.yul\":7145:7155   */\n      dup2\n        /* \"#utility.yul\":7142:7164   */\n      lt\n        /* \"#utility.yul\":7121:7139   */\n      0xffffffffffffffff\n        /* \"#utility.yul\":7109:7119   */\n      dup3\n        /* \"#utility.yul\":7106:7140   */\n      gt\n        /* \"#utility.yul\":7103:7165   */\n      or\n        /* \"#utility.yul\":7100:7102   */\n      iszero\n      tag_153\n      jumpi\n        /* \"#utility.yul\":7168:7186   */\n      tag_154\n      tag_155\n      jump\t// in\n    tag_154:\n        /* \"#utility.yul\":7100:7102   */\n    tag_153:\n        /* \"#utility.yul\":7208:7218   */\n      dup1\n        /* \"#utility.yul\":7204:7206   */\n      0x40\n        /* \"#utility.yul\":7197:7219   */\n      mstore\n        /* \"#utility.yul\":6982:7225   */\n      pop\n      swap2\n      swap1\n      pop\n      jump\t// out\n        /* \"#utility.yul\":7231:7563   */\n    tag_65:\n      0x00\n        /* \"#utility.yul\":7383:7401   */\n      0xffffffffffffffff\n        /* \"#utility.yul\":7375:7381   */\n      dup3\n        /* \"#utility.yul\":7372:7402   */\n      gt\n        /* \"#utility.yul\":7369:7371   */\n      iszero\n      tag_157\n      jumpi\n        /* \"#utility.yul\":7405:7423   */\n      tag_158\n      tag_155\n      jump\t// in\n    tag_158:\n        /* \"#utility.yul\":7369:7371   */\n    tag_157:\n        /* \"#utility.yul\":7490:7494   */\n      0x1f\n        /* \"#utility.yul\":7486:7495   */\n      not\n        /* \"#utility.yul\":7479:7483   */\n      0x1f\n        /* \"#utility.yul\":7471:7477   */\n      dup4\n        /* \"#utility.yul\":7467:7484   */\n      add\n        /* \"#utility.yul\":7463:7496   */\n      and\n        /* \"#utility.yul\":7455:7496   */\n      swap1\n      pop\n        /* \"#utility.yul\":7551:7555   */\n      0x20\n        /* \"#utility.yul\":7545:7549   */\n      dup2\n        /* \"#utility.yul\":7541:7556   */\n      add\n        /* \"#utility.yul\":7533:7556   */\n      swap1\n      pop\n        /* \"#utility.yul\":7298:7563   */\n      swap2\n      swap1\n      pop\n      jump\t// out\n        /* \"#utility.yul\":7569:7698   */\n    tag_100:\n      0x00\n        /* \"#utility.yul\":7656:7659   */\n      dup2\n        /* \"#utility.yul\":7648:7659   */\n      swap1\n      pop\n        /* \"#utility.yul\":7686:7690   */\n      0x20\n        /* \"#utility.yul\":7681:7684   */\n      dup3\n        /* \"#utility.yul\":7677:7691   */\n      add\n        /* \"#utility.yul\":7669:7691   */\n      swap1\n      pop\n        /* \"#utility.yul\":7638:7698   */\n      swap2\n      swap1\n      pop\n      jump\t// out\n        /* \"#utility.yul\":7704:7846   */\n    tag_114:\n      0x00\n        /* \"#utility.yul\":7804:7807   */\n      dup2\n        /* \"#utility.yul\":7796:7807   */\n      swap1\n      pop\n        /* \"#utility.yul\":7834:7838   */\n      0x20\n        /* \"#utility.yul\":7829:7832   */\n      dup3\n        /* \"#utility.yul\":7825:7839   */\n      add\n        /* \"#utility.yul\":7817:7839   */\n      swap1\n      pop\n        /* \"#utility.yul\":7786:7846   */\n      swap2\n      swap1\n      pop\n      jump\t// out\n        /* \"#utility.yul\":7852:7963   */\n    tag_96:\n      0x00\n        /* \"#utility.yul\":7950:7955   */\n      dup2\n        /* \"#utility.yul\":7944:7956   */\n      mload\n        /* \"#utility.yul\":7934:7956   */\n      swap1\n      pop\n        /* \"#utility.yul\":7923:7963   */\n      swap2\n      swap1\n      pop\n      jump\t// out\n        /* \"#utility.yul\":7969:8093   */\n    tag_110:\n      0x00\n        /* \"#utility.yul\":8080:8085   */\n      dup2\n        /* \"#utility.yul\":8074:8086   */\n      mload\n        /* \"#utility.yul\":8064:8086   */\n      swap1\n      pop\n        /* \"#utility.yul\":8053:8093   */\n      swap2\n      swap1\n      pop\n      jump\t// out\n        /* \"#utility.yul\":8099:8198   */\n    tag_126:\n      0x00\n        /* \"#utility.yul\":8185:8190   */\n      dup2\n        /* \"#utility.yul\":8179:8191   */\n      mload\n        /* \"#utility.yul\":8169:8191   */\n      swap1\n      pop\n        /* \"#utility.yul\":8158:8198   */\n      swap2\n      swap1\n      pop\n      jump\t// out\n        /* \"#utility.yul\":8204:8314   */\n    tag_106:\n      0x00\n        /* \"#utility.yul\":8303:8307   */\n      0x20\n        /* \"#utility.yul\":8298:8301   */\n      dup3\n        /* \"#utility.yul\":8294:8308   */\n      add\n        /* \"#utility.yul\":8286:8308   */\n      swap1\n      pop\n        /* \"#utility.yul\":8276:8314   */\n      swap2\n      swap1\n      pop\n      jump\t// out\n        /* \"#utility.yul\":8320:8443   */\n    tag_120:\n      0x00\n        /* \"#utility.yul\":8432:8436   */\n      0x20\n        /* \"#utility.yul\":8427:8430   */\n      dup3\n        /* \"#utility.yul\":8423:8437   */\n      add\n        /* \"#utility.yul\":8415:8437   */\n      swap1\n      pop\n        /* \"#utility.yul\":8405:8443   */\n      swap2\n      swap1\n      pop\n      jump\t// out\n        /* \"#utility.yul\":8449:8630   */\n    tag_98:\n      0x00\n        /* \"#utility.yul\":8579:8585   */\n      dup3\n        /* \"#utility.yul\":8574:8577   */\n      dup3\n        /* \"#utility.yul\":8567:8586   */\n      mstore\n        /* \"#utility.yul\":8619:8623   */\n      0x20\n        /* \"#utility.yul\":8614:8617   */\n      dup3\n        /* \"#utility.yul\":8610:8624   */\n      add\n        /* \"#utility.yul\":8595:8624   */\n      swap1\n      pop\n        /* \"#utility.yul\":8557:8630   */\n      swap3\n      swap2\n      pop\n      pop\n      jump\t// out\n        /* \"#utility.yul\":8636:8830   */\n    tag_112:\n      0x00\n        /* \"#utility.yul\":8779:8785   */\n      dup3\n        /* \"#utility.yul\":8774:8777   */\n      dup3\n        /* \"#utility.yul\":8767:8786   */\n      mstore\n        /* \"#utility.yul\":8819:8823   */\n      0x20\n        /* \"#utility.yul\":8814:8817   */\n      dup3\n        /* \"#utility.yul\":8810:8824   */\n      add\n        /* \"#utility.yul\":8795:8824   */\n      swap1\n      pop\n        /* \"#utility.yul\":8757:8830   */\n      swap3\n      swap2\n      pop\n      pop\n      jump\t// out\n        /* \"#utility.yul\":8836:8995   */\n    tag_128:\n      0x00\n        /* \"#utility.yul\":8944:8950   */\n      dup3\n        /* \"#utility.yul\":8939:8942   */\n      dup3\n        /* \"#utility.yul\":8932:8951   */\n      mstore\n        /* \"#utility.yul\":8984:8988   */\n      0x20\n        /* \"#utility.yul\":8979:8982   */\n      dup3\n        /* \"#utility.yul\":8975:8989   */\n      add\n        /* \"#utility.yul\":8960:8989   */\n      swap1\n      pop\n        /* \"#utility.yul\":8922:8995   */\n      swap3\n      swap2\n      pop\n      pop\n      jump\t// out\n        /* \"#utility.yul\":9001:9170   */\n    tag_136:\n      0x00\n        /* \"#utility.yul\":9119:9125   */\n      dup3\n        /* \"#utility.yul\":9114:9117   */\n      dup3\n        /* \"#utility.yul\":9107:9126   */\n      mstore\n        /* \"#utility.yul\":9159:9163   */\n      0x20\n        /* \"#utility.yul\":9154:9157   */\n      dup3\n        /* \"#utility.yul\":9150:9164   */\n      add\n        /* \"#utility.yul\":9135:9164   */\n      swap1\n      pop\n        /* \"#utility.yul\":9097:9170   */\n      swap3\n      swap2\n      pop\n      pop\n      jump\t// out\n        /* \"#utility.yul\":9176:9266   */\n    tag_123:\n      0x00\n        /* \"#utility.yul\":9253:9258   */\n      dup2\n        /* \"#utility.yul\":9246:9259   */\n      iszero\n        /* \"#utility.yul\":9239:9260   */\n      iszero\n        /* \"#utility.yul\":9228:9260   */\n      swap1\n      pop\n        /* \"#utility.yul\":9218:9266   */\n      swap2\n      swap1\n      pop\n      jump\t// out\n        /* \"#utility.yul\":9272:9349   */\n    tag_171:\n      0x00\n        /* \"#utility.yul\":9338:9343   */\n      dup2\n        /* \"#utility.yul\":9327:9343   */\n      swap1\n      pop\n        /* \"#utility.yul\":9317:9349   */\n      swap2\n      swap1\n      pop\n      jump\t// out\n        /* \"#utility.yul\":9355:9509   */\n    tag_69:\n        /* \"#utility.yul\":9439:9445   */\n      dup3\n        /* \"#utility.yul\":9434:9437   */\n      dup2\n        /* \"#utility.yul\":9429:9432   */\n      dup4\n        /* \"#utility.yul\":9416:9446   */\n      calldatacopy\n        /* \"#utility.yul\":9501:9502   */\n      0x00\n        /* \"#utility.yul\":9492:9498   */\n      dup4\n        /* \"#utility.yul\":9487:9490   */\n      dup4\n        /* \"#utility.yul\":9483:9499   */\n      add\n        /* \"#utility.yul\":9476:9503   */\n      mstore\n        /* \"#utility.yul\":9406:9509   */\n      pop\n      pop\n      pop\n      jump\t// out\n        /* \"#utility.yul\":9515:9822   */\n    tag_130:\n        /* \"#utility.yul\":9583:9584   */\n      0x00\n        /* \"#utility.yul\":9593:9706   */\n    tag_175:\n        /* \"#utility.yul\":9607:9613   */\n      dup4\n        /* \"#utility.yul\":9604:9605   */\n      dup2\n        /* \"#utility.yul\":9601:9614   */\n      lt\n        /* \"#utility.yul\":9593:9706   */\n      iszero\n      tag_177\n      jumpi\n        /* \"#utility.yul\":9692:9693   */\n      dup1\n        /* \"#utility.yul\":9687:9690   */\n      dup3\n        /* \"#utility.yul\":9683:9694   */\n      add\n        /* \"#utility.yul\":9677:9695   */\n      mload\n        /* \"#utility.yul\":9673:9674   */\n      dup2\n        /* \"#utility.yul\":9668:9671   */\n      dup5\n        /* \"#utility.yul\":9664:9675   */\n      add\n        /* \"#utility.yul\":9657:9696   */\n      mstore\n        /* \"#utility.yul\":9629:9631   */\n      0x20\n        /* \"#utility.yul\":9626:9627   */\n      dup2\n        /* \"#utility.yul\":9622:9632   */\n      add\n        /* \"#utility.yul\":9617:9632   */\n      swap1\n      pop\n        /* \"#utility.yul\":9593:9706   */\n      jump(tag_175)\n    tag_177:\n        /* \"#utility.yul\":9724:9730   */\n      dup4\n        /* \"#utility.yul\":9721:9722   */\n      dup2\n        /* \"#utility.yul\":9718:9731   */\n      gt\n        /* \"#utility.yul\":9715:9717   */\n      iszero\n      tag_178\n      jumpi\n        /* \"#utility.yul\":9804:9805   */\n      0x00\n        /* \"#utility.yul\":9795:9801   */\n      dup5\n        /* \"#utility.yul\":9790:9793   */\n      dup5\n        /* \"#utility.yul\":9786:9802   */\n      add\n        /* \"#utility.yul\":9779:9806   */\n      mstore\n        /* \"#utility.yul\":9715:9717   */\n    tag_178:\n        /* \"#utility.yul\":9564:9822   */\n      pop\n      pop\n      pop\n      pop\n      jump\t// out\n        /* \"#utility.yul\":9828:10148   */\n    tag_38:\n      0x00\n        /* \"#utility.yul\":9909:9910   */\n      0x02\n        /* \"#utility.yul\":9903:9907   */\n      dup3\n        /* \"#utility.yul\":9899:9911   */\n      div\n        /* \"#utility.yul\":9889:9911   */\n      swap1\n      pop\n        /* \"#utility.yul\":9956:9957   */\n      0x01\n        /* \"#utility.yul\":9950:9954   */\n      dup3\n        /* \"#utility.yul\":9946:9958   */\n      and\n        /* \"#utility.yul\":9977:9995   */\n      dup1\n        /* \"#utility.yul\":9967:9969   */\n      tag_180\n      jumpi\n        /* \"#utility.yul\":10033:10037   */\n      0x7f\n        /* \"#utility.yul\":10025:10031   */\n      dup3\n        /* \"#utility.yul\":10021:10038   */\n      and\n        /* \"#utility.yul\":10011:10038   */\n      swap2\n      pop\n        /* \"#utility.yul\":9967:9969   */\n    tag_180:\n        /* \"#utility.yul\":10095:10097   */\n      0x20\n        /* \"#utility.yul\":10087:10093   */\n      dup3\n        /* \"#utility.yul\":10084:10098   */\n      lt\n        /* \"#utility.yul\":10064:10082   */\n      dup2\n        /* \"#utility.yul\":10061:10099   */\n      eq\n        /* \"#utility.yul\":10058:10060   */\n      iszero\n      tag_181\n      jumpi\n        /* \"#utility.yul\":10114:10132   */\n      tag_182\n      tag_183\n      jump\t// in\n    tag_182:\n        /* \"#utility.yul\":10058:10060   */\n    tag_181:\n        /* \"#utility.yul\":9879:10148   */\n      pop\n      swap2\n      swap1\n      pop\n      jump\t// out\n        /* \"#utility.yul\":10154:10387   */\n    tag_33:\n      0x00\n        /* \"#utility.yul\":10216:10240   */\n      tag_185\n        /* \"#utility.yul\":10234:10239   */\n      dup3\n        /* \"#utility.yul\":10216:10240   */\n      tag_171\n      jump\t// in\n    tag_185:\n        /* \"#utility.yul\":10207:10240   */\n      swap2\n      pop\n        /* \"#utility.yul\":10262:10328   */\n      0xffffffffffffffffffffffffffffffffffffffffffffffffffffffffffffffff\n        /* \"#utility.yul\":10255:10260   */\n      dup3\n        /* \"#utility.yul\":10252:10329   */\n      eq\n        /* \"#utility.yul\":10249:10251   */\n      iszero\n      tag_186\n      jumpi\n        /* \"#utility.yul\":10332:10350   */\n      tag_187\n      tag_188\n      jump\t// in\n    tag_187:\n        /* \"#utility.yul\":10249:10251   */\n    tag_186:\n        /* \"#utility.yul\":10379:10380   */\n      0x01\n        /* \"#utility.yul\":10372:10377   */\n      dup3\n        /* \"#utility.yul\":10368:10381   */\n      add\n        /* \"#utility.yul\":10361:10381   */\n      swap1\n      pop\n        /* \"#utility.yul\":10197:10387   */\n      swap2\n      swap1\n      pop\n      jump\t// out\n        /* \"#utility.yul\":10393:10573   */\n    tag_188:\n        /* \"#utility.yul\":10441:10518   */\n      0x4e487b7100000000000000000000000000000000000000000000000000000000\n        /* \"#utility.yul\":10438:10439   */\n      0x00\n        /* \"#utility.yul\":10431:10519   */\n      mstore\n        /* \"#utility.yul\":10538:10542   */\n      0x11\n        /* \"#utility.yul\":10535:10536   */\n      0x04\n        /* \"#utility.yul\":10528:10543   */\n      mstore\n        /* \"#utility.yul\":10562:10566   */\n      0x24\n        /* \"#utility.yul\":10559:10560   */\n      0x00\n        /* \"#utility.yul\":10552:10567   */\n      revert\n        /* \"#utility.yul\":10579:10759   */\n    tag_183:\n        /* \"#utility.yul\":10627:10704   */\n      0x4e487b7100000000000000000000000000000000000000000000000000000000\n        /* \"#utility.yul\":10624:10625   */\n      0x00\n        /* \"#utility.yul\":10617:10705   */\n      mstore\n        /* \"#utility.yul\":10724:10728   */\n      0x22\n        /* \"#utility.yul\":10721:10722   */\n      0x04\n        /* \"#utility.yul\":10714:10729   */\n      mstore\n        /* \"#utility.yul\":10748:10752   */\n      0x24\n        /* \"#utility.yul\":10745:10746   */\n      0x00\n        /* \"#utility.yul\":10738:10753   */\n      revert\n        /* \"#utility.yul\":10765:10945   */\n    tag_155:\n        /* \"#utility.yul\":10813:10890   */\n      0x4e487b7100000000000000000000000000000000000000000000000000000000\n        /* \"#utility.yul\":10810:10811   */\n      0x00\n        /* \"#utility.yul\":10803:10891   */\n      mstore\n        /* \"#utility.yul\":10910:10914   */\n      0x41\n        /* \"#utility.yul\":10907:10908   */\n      0x04\n        /* \"#utility.yul\":10900:10915   */\n      mstore\n        /* \"#utility.yul\":10934:10938   */\n      0x24\n        /* \"#utility.yul\":10931:10932   */\n      0x00\n        /* \"#utility.yul\":10924:10939   */\n      revert\n        /* \"#utility.yul\":10951:11053   */\n    tag_132:\n      0x00\n        /* \"#utility.yul\":11043:11045   */\n      0x1f\n        /* \"#utility.yul\":11039:11046   */\n      not\n        /* \"#utility.yul\":11034:11036   */\n      0x1f\n        /* \"#utility.yul\":11027:11032   */\n      dup4\n        /* \"#utility.yul\":11023:11037   */\n      add\n        /* \"#utility.yul\":11019:11047   */\n      and\n        /* \"#utility.yul\":11009:11047   */\n      swap1\n      pop\n        /* \"#utility.yul\":10999:11053   */\n      swap2\n      swap1\n      pop\n      jump\t// out\n        /* \"#utility.yul\":11059:11181   */\n    tag_77:\n        /* \"#utility.yul\":11132:11156   */\n      tag_194\n        /* \"#utility.yul\":11150:11155   */\n      dup2\n        /* \"#utility.yul\":11132:11156   */\n      tag_171\n      jump\t// in\n    tag_194:\n        /* \"#utility.yul\":11125:11130   */\n      dup2\n        /* \"#utility.yul\":11122:11157   */\n      eq\n        /* \"#utility.yul\":11112:11114   */\n      tag_195\n      jumpi\n        /* \"#utility.yul\":11171:11172   */\n      0x00\n        /* \"#utility.yul\":11168:11169   */\n      dup1\n        /* \"#utility.yul\":11161:11173   */\n      revert\n        /* \"#utility.yul\":11112:11114   */\n    tag_195:\n        /* \"#utility.yul\":11102:11181   */\n      pop\n      jump\t// out\n\n    auxdata: 0xa26469706673582212204c3bed0faba0973ddfbb653396dea2900a85711cb4faf579ba85cc451532c06964736f6c63430008000033\n}\n",
				"bytecode": {
					"linkReferences": {},
					"object": "608060405234801561001057600080fd5b50610ac6806100206000396000f3fe608060405234801561001057600080fd5b50600436106100415760003560e01c80636723856214610046578063779900b4146100625780639e96b81814610081575b600080fd5b610060600480360381019061005b9190610500565b61009d565b005b61006a610121565b604051610078929190610771565b60405180910390f35b61009b60048036038101906100969190610541565b61030a565b005b6003815110156100e2576040517f08c379a00000000000000000000000000000000000000000000000000000000081526004016100d9906107e8565b60405180910390fd5b60008190806001815401808255809150506001900390600052602060002001600090919091909150908051906020019061011d9291906103e0565b5050565b6060806000808054905067ffffffffffffffff81111561016a577f4e487b7100000000000000000000000000000000000000000000000000000000600052604160045260246000fd5b6040519080825280602002602001820160405280156101985781602001602082028036833780820191505090505b50905060005b60008054905081101561022a576001600082815260200190815260200160002060009054906101000a900460ff16828281518110610205577f4e487b7100000000000000000000000000000000000000000000000000000000600052603260045260246000fd5b602002602001019015159081151581525050808061022290610992565b91505061019e565b5060008181805480602002602001604051908101604052809291908181526020016000905b828210156102fb57838290600052602060002001805461026e90610960565b80601f016020809104026020016040519081016040528092919081815260200182805461029a90610960565b80156102e75780601f106102bc576101008083540402835291602001916102e7565b820191906000526020600020905b8154815290600101906020018083116102ca57829003601f168201915b50505050508152602001906001019061024f565b50505050915092509250509091565b6001600082815260200190815260200160002060009054906101000a900460ff161561036b576040517f08c379a0000000000000000000000000000000000000000000000000000000008152600401610362906107c8565b60405180910390fd5b80600080549050116103b2576040517f08c379a00000000000000000000000000000000000000000000000000000000081526004016103a9906107a8565b60405180910390fd5b600180600083815260200190815260200160002060006101000a81548160ff02191690831515021790555050565b8280546103ec90610960565b90600052602060002090601f01602090048101928261040e5760008555610455565b82601f1061042757805160ff1916838001178555610455565b82800160010185558215610455579182015b82811115610454578251825591602001919060010190610439565b5b5090506104629190610466565b5090565b5b8082111561047f576000816000905550600101610467565b5090565b600061049661049184610839565b610808565b9050828152602081018484840111156104ae57600080fd5b6104b984828561091e565b509392505050565b600082601f8301126104d257600080fd5b81356104e2848260208601610483565b91505092915050565b6000813590506104fa81610a79565b92915050565b60006020828403121561051257600080fd5b600082013567ffffffffffffffff81111561052c57600080fd5b610538848285016104c1565b91505092915050565b60006020828403121561055357600080fd5b6000610561848285016104eb565b91505092915050565b60006105768383610669565b60208301905092915050565b600061058e8383610678565b905092915050565b60006105a182610889565b6105ab81856108c4565b93506105b683610869565b8060005b838110156105e75781516105ce888261056a565b97506105d9836108aa565b9250506001810190506105ba565b5085935050505092915050565b60006105ff82610894565b61060981856108d5565b93508360208202850161061b85610879565b8060005b8581101561065757848403895281516106388582610582565b9450610643836108b7565b925060208a0199505060018101905061061f565b50829750879550505050505092915050565b61067281610908565b82525050565b60006106838261089f565b61068d81856108e6565b935061069d81856020860161092d565b6106a681610a68565b840191505092915050565b60006106be600c836108f7565b91507f496e76616c6964207461736b00000000000000000000000000000000000000006000830152602082019050919050565b60006106fe6011836108f7565b91507f416c726561647920436f6d706c657465640000000000000000000000000000006000830152602082019050919050565b600061073e6015836108f7565b91507f4d696e696d756d2033206c657474657220776f726400000000000000000000006000830152602082019050919050565b6000604082019050818103600083015261078b81856105f4565b9050818103602083015261079f8184610596565b90509392505050565b600060208201905081810360008301526107c1816106b1565b9050919050565b600060208201905081810360008301526107e1816106f1565b9050919050565b6000602082019050818103600083015261080181610731565b9050919050565b6000604051905081810181811067ffffffffffffffff8211171561082f5761082e610a39565b5b8060405250919050565b600067ffffffffffffffff82111561085457610853610a39565b5b601f19601f8301169050602081019050919050565b6000819050602082019050919050565b6000819050602082019050919050565b600081519050919050565b600081519050919050565b600081519050919050565b6000602082019050919050565b6000602082019050919050565b600082825260208201905092915050565b600082825260208201905092915050565b600082825260208201905092915050565b600082825260208201905092915050565b60008115159050919050565b6000819050919050565b82818337600083830152505050565b60005b8381101561094b578082015181840152602081019050610930565b8381111561095a576000848401525b50505050565b6000600282049050600182168061097857607f821691505b6020821081141561098c5761098b610a0a565b5b50919050565b600061099d82610914565b91507fffffffffffffffffffffffffffffffffffffffffffffffffffffffffffffffff8214156109d0576109cf6109db565b5b600182019050919050565b7f4e487b7100000000000000000000000000000000000000000000000000000000600052601160045260246000fd5b7f4e487b7100000000000000000000000000000000000000000000000000000000600052602260045260246000fd5b7f4e487b7100000000000000000000000000000000000000000000000000000000600052604160045260246000fd5b6000601f19601f8301169050919050565b610a8281610914565b8114610a8d57600080fd5b5056fea26469706673582212204c3bed0faba0973ddfbb653396dea2900a85711cb4faf579ba85cc451532c06964736f6c63430008000033",
					"opcodes": "PUSH1 0x80 PUSH1 0x40 MSTORE CALLVALUE DUP1 ISZERO PUSH2 0x10 JUMPI PUSH1 0x0 DUP1 REVERT JUMPDEST POP PUSH2 0xAC6 DUP1 PUSH2 0x20 PUSH1 0x0 CODECOPY PUSH1 0x0 RETURN INVALID PUSH1 0x80 PUSH1 0x40 MSTORE CALLVALUE DUP1 ISZERO PUSH2 0x10 JUMPI PUSH1 0x0 DUP1 REVERT JUMPDEST POP PUSH1 0x4 CALLDATASIZE LT PUSH2 0x41 JUMPI PUSH1 0x0 CALLDATALOAD PUSH1 0xE0 SHR DUP1 PUSH4 0x67238562 EQ PUSH2 0x46 JUMPI DUP1 PUSH4 0x779900B4 EQ PUSH2 0x62 JUMPI DUP1 PUSH4 0x9E96B818 EQ PUSH2 0x81 JUMPI JUMPDEST PUSH1 0x0 DUP1 REVERT JUMPDEST PUSH2 0x60 PUSH1 0x4 DUP1 CALLDATASIZE SUB DUP2 ADD SWAP1 PUSH2 0x5B SWAP2 SWAP1 PUSH2 0x500 JUMP JUMPDEST PUSH2 0x9D JUMP JUMPDEST STOP JUMPDEST PUSH2 0x6A PUSH2 0x121 JUMP JUMPDEST PUSH1 0x40 MLOAD PUSH2 0x78 SWAP3 SWAP2 SWAP1 PUSH2 0x771 JUMP JUMPDEST PUSH1 0x40 MLOAD DUP1 SWAP2 SUB SWAP1 RETURN JUMPDEST PUSH2 0x9B PUSH1 0x4 DUP1 CALLDATASIZE SUB DUP2 ADD SWAP1 PUSH2 0x96 SWAP2 SWAP1 PUSH2 0x541 JUMP JUMPDEST PUSH2 0x30A JUMP JUMPDEST STOP JUMPDEST PUSH1 0x3 DUP2 MLOAD LT ISZERO PUSH2 0xE2 JUMPI PUSH1 0x40 MLOAD PUSH32 0x8C379A000000000000000000000000000000000000000000000000000000000 DUP2 MSTORE PUSH1 0x4 ADD PUSH2 0xD9 SWAP1 PUSH2 0x7E8 JUMP JUMPDEST PUSH1 0x40 MLOAD DUP1 SWAP2 SUB SWAP1 REVERT JUMPDEST PUSH1 0x0 DUP2 SWAP1 DUP1 PUSH1 0x1 DUP2 SLOAD ADD DUP1 DUP3 SSTORE DUP1 SWAP2 POP POP PUSH1 0x1 SWAP1 SUB SWAP1 PUSH1 0x0 MSTORE PUSH1 0x20 PUSH1 0x0 KECCAK256 ADD PUSH1 0x0 SWAP1 SWAP2 SWAP1 SWAP2 SWAP1 SWAP2 POP SWAP1 DUP1 MLOAD SWAP1 PUSH1 0x20 ADD SWAP1 PUSH2 0x11D SWAP3 SWAP2 SWAP1 PUSH2 0x3E0 JUMP JUMPDEST POP POP JUMP JUMPDEST PUSH1 0x60 DUP1 PUSH1 0x0 DUP1 DUP1 SLOAD SWAP1 POP PUSH8 0xFFFFFFFFFFFFFFFF DUP2 GT ISZERO PUSH2 0x16A JUMPI PUSH32 0x4E487B7100000000000000000000000000000000000000000000000000000000 PUSH1 0x0 MSTORE PUSH1 0x41 PUSH1 0x4 MSTORE PUSH1 0x24 PUSH1 0x0 REVERT JUMPDEST PUSH1 0x40 MLOAD SWAP1 DUP1 DUP3 MSTORE DUP1 PUSH1 0x20 MUL PUSH1 0x20 ADD DUP3 ADD PUSH1 0x40 MSTORE DUP1 ISZERO PUSH2 0x198 JUMPI DUP2 PUSH1 0x20 ADD PUSH1 0x20 DUP3 MUL DUP1 CALLDATASIZE DUP4 CALLDATACOPY DUP1 DUP3 ADD SWAP2 POP POP SWAP1 POP JUMPDEST POP SWAP1 POP PUSH1 0x0 JUMPDEST PUSH1 0x0 DUP1 SLOAD SWAP1 POP DUP2 LT ISZERO PUSH2 0x22A JUMPI PUSH1 0x1 PUSH1 0x0 DUP3 DUP2 MSTORE PUSH1 0x20 ADD SWAP1 DUP2 MSTORE PUSH1 0x20 ADD PUSH1 0x0 KECCAK256 PUSH1 0x0 SWAP1 SLOAD SWAP1 PUSH2 0x100 EXP SWAP1 DIV PUSH1 0xFF AND DUP3 DUP3 DUP2 MLOAD DUP2 LT PUSH2 0x205 JUMPI PUSH32 0x4E487B7100000000000000000000000000000000000000000000000000000000 PUSH1 0x0 MSTORE PUSH1 0x32 PUSH1 0x4 MSTORE PUSH1 0x24 PUSH1 0x0 REVERT JUMPDEST PUSH1 0x20 MUL PUSH1 0x20 ADD ADD SWAP1 ISZERO ISZERO SWAP1 DUP2 ISZERO ISZERO DUP2 MSTORE POP POP DUP1 DUP1 PUSH2 0x222 SWAP1 PUSH2 0x992 JUMP JUMPDEST SWAP2 POP POP PUSH2 0x19E JUMP JUMPDEST POP PUSH1 0x0 DUP2 DUP2 DUP1 SLOAD DUP1 PUSH1 0x20 MUL PUSH1 0x20 ADD PUSH1 0x40 MLOAD SWAP1 DUP2 ADD PUSH1 0x40 MSTORE DUP1 SWAP3 SWAP2 SWAP1 DUP2 DUP2 MSTORE PUSH1 0x20 ADD PUSH1 0x0 SWAP1 JUMPDEST DUP3 DUP3 LT ISZERO PUSH2 0x2FB JUMPI DUP4 DUP3 SWAP1 PUSH1 0x0 MSTORE PUSH1 0x20 PUSH1 0x0 KECCAK256 ADD DUP1 SLOAD PUSH2 0x26E SWAP1 PUSH2 0x960 JUMP JUMPDEST DUP1 PUSH1 0x1F ADD PUSH1 0x20 DUP1 SWAP2 DIV MUL PUSH1 0x20 ADD PUSH1 0x40 MLOAD SWAP1 DUP2 ADD PUSH1 0x40 MSTORE DUP1 SWAP3 SWAP2 SWAP1 DUP2 DUP2 MSTORE PUSH1 0x20 ADD DUP3 DUP1 SLOAD PUSH2 0x29A SWAP1 PUSH2 0x960 JUMP JUMPDEST DUP1 ISZERO PUSH2 0x2E7 JUMPI DUP1 PUSH1 0x1F LT PUSH2 0x2BC JUMPI PUSH2 0x100 DUP1 DUP4 SLOAD DIV MUL DUP4 MSTORE SWAP2 PUSH1 0x20 ADD SWAP2 PUSH2 0x2E7 JUMP JUMPDEST DUP3 ADD SWAP2 SWAP1 PUSH1 0x0 MSTORE PUSH1 0x20 PUSH1 0x0 KECCAK256 SWAP1 JUMPDEST DUP2 SLOAD DUP2 MSTORE SWAP1 PUSH1 0x1 ADD SWAP1 PUSH1 0x20 ADD DUP1 DUP4 GT PUSH2 0x2CA JUMPI DUP3 SWAP1 SUB PUSH1 0x1F AND DUP3 ADD SWAP2 JUMPDEST POP POP POP POP POP DUP2 MSTORE PUSH1 0x20 ADD SWAP1 PUSH1 0x1 ADD SWAP1 PUSH2 0x24F JUMP JUMPDEST POP POP POP POP SWAP2 POP SWAP3 POP SWAP3 POP POP SWAP1 SWAP2 JUMP JUMPDEST PUSH1 0x1 PUSH1 0x0 DUP3 DUP2 MSTORE PUSH1 0x20 ADD SWAP1 DUP2 MSTORE PUSH1 0x20 ADD PUSH1 0x0 KECCAK256 PUSH1 0x0 SWAP1 SLOAD SWAP1 PUSH2 0x100 EXP SWAP1 DIV PUSH1 0xFF AND ISZERO PUSH2 0x36B JUMPI PUSH1 0x40 MLOAD PUSH32 0x8C379A000000000000000000000000000000000000000000000000000000000 DUP2 MSTORE PUSH1 0x4 ADD PUSH2 0x362 SWAP1 PUSH2 0x7C8 JUMP JUMPDEST PUSH1 0x40 MLOAD DUP1 SWAP2 SUB SWAP1 REVERT JUMPDEST DUP1 PUSH1 0x0 DUP1 SLOAD SWAP1 POP GT PUSH2 0x3B2 JUMPI PUSH1 0x40 MLOAD PUSH32 0x8C379A000000000000000000000000000000000000000000000000000000000 DUP2 MSTORE PUSH1 0x4 ADD PUSH2 0x3A9 SWAP1 PUSH2 0x7A8 JUMP JUMPDEST PUSH1 0x40 MLOAD DUP1 SWAP2 SUB SWAP1 REVERT JUMPDEST PUSH1 0x1 DUP1 PUSH1 0x0 DUP4 DUP2 MSTORE PUSH1 0x20 ADD SWAP1 DUP2 MSTORE PUSH1 0x20 ADD PUSH1 0x0 KECCAK256 PUSH1 0x0 PUSH2 0x100 EXP DUP2 SLOAD DUP2 PUSH1 0xFF MUL NOT AND SWAP1 DUP4 ISZERO ISZERO MUL OR SWAP1 SSTORE POP POP JUMP JUMPDEST DUP3 DUP1 SLOAD PUSH2 0x3EC SWAP1 PUSH2 0x960 JUMP JUMPDEST SWAP1 PUSH1 0x0 MSTORE PUSH1 0x20 PUSH1 0x0 KECCAK256 SWAP1 PUSH1 0x1F ADD PUSH1 0x20 SWAP1 DIV DUP2 ADD SWAP3 DUP3 PUSH2 0x40E JUMPI PUSH1 0x0 DUP6 SSTORE PUSH2 0x455 JUMP JUMPDEST DUP3 PUSH1 0x1F LT PUSH2 0x427 JUMPI DUP1 MLOAD PUSH1 0xFF NOT AND DUP4 DUP1 ADD OR DUP6 SSTORE PUSH2 0x455 JUMP JUMPDEST DUP3 DUP1 ADD PUSH1 0x1 ADD DUP6 SSTORE DUP3 ISZERO PUSH2 0x455 JUMPI SWAP2 DUP3 ADD JUMPDEST DUP3 DUP2 GT ISZERO PUSH2 0x454 JUMPI DUP3 MLOAD DUP3 SSTORE SWAP2 PUSH1 0x20 ADD SWAP2 SWAP1 PUSH1 0x1 ADD SWAP1 PUSH2 0x439 JUMP JUMPDEST JUMPDEST POP SWAP1 POP PUSH2 0x462 SWAP2 SWAP1 PUSH2 0x466 JUMP JUMPDEST POP SWAP1 JUMP JUMPDEST JUMPDEST DUP1 DUP3 GT ISZERO PUSH2 0x47F JUMPI PUSH1 0x0 DUP2 PUSH1 0x0 SWAP1 SSTORE POP PUSH1 0x1 ADD PUSH2 0x467 JUMP JUMPDEST POP SWAP1 JUMP JUMPDEST PUSH1 0x0 PUSH2 0x496 PUSH2 0x491 DUP5 PUSH2 0x839 JUMP JUMPDEST PUSH2 0x808 JUMP JUMPDEST SWAP1 POP DUP3 DUP2 MSTORE PUSH1 0x20 DUP2 ADD DUP5 DUP5 DUP5 ADD GT ISZERO PUSH2 0x4AE JUMPI PUSH1 0x0 DUP1 REVERT JUMPDEST PUSH2 0x4B9 DUP5 DUP3 DUP6 PUSH2 0x91E JUMP JUMPDEST POP SWAP4 SWAP3 POP POP POP JUMP JUMPDEST PUSH1 0x0 DUP3 PUSH1 0x1F DUP4 ADD SLT PUSH2 0x4D2 JUMPI PUSH1 0x0 DUP1 REVERT JUMPDEST DUP2 CALLDATALOAD PUSH2 0x4E2 DUP5 DUP3 PUSH1 0x20 DUP7 ADD PUSH2 0x483 JUMP JUMPDEST SWAP2 POP POP SWAP3 SWAP2 POP POP JUMP JUMPDEST PUSH1 0x0 DUP2 CALLDATALOAD SWAP1 POP PUSH2 0x4FA DUP2 PUSH2 0xA79 JUMP JUMPDEST SWAP3 SWAP2 POP POP JUMP JUMPDEST PUSH1 0x0 PUSH1 0x20 DUP3 DUP5 SUB SLT ISZERO PUSH2 0x512 JUMPI PUSH1 0x0 DUP1 REVERT JUMPDEST PUSH1 0x0 DUP3 ADD CALLDATALOAD PUSH8 0xFFFFFFFFFFFFFFFF DUP2 GT ISZERO PUSH2 0x52C JUMPI PUSH1 0x0 DUP1 REVERT JUMPDEST PUSH2 0x538 DUP5 DUP3 DUP6 ADD PUSH2 0x4C1 JUMP JUMPDEST SWAP2 POP POP SWAP3 SWAP2 POP POP JUMP JUMPDEST PUSH1 0x0 PUSH1 0x20 DUP3 DUP5 SUB SLT ISZERO PUSH2 0x553 JUMPI PUSH1 0x0 DUP1 REVERT JUMPDEST PUSH1 0x0 PUSH2 0x561 DUP5 DUP3 DUP6 ADD PUSH2 0x4EB JUMP JUMPDEST SWAP2 POP POP SWAP3 SWAP2 POP POP JUMP JUMPDEST PUSH1 0x0 PUSH2 0x576 DUP4 DUP4 PUSH2 0x669 JUMP JUMPDEST PUSH1 0x20 DUP4 ADD SWAP1 POP SWAP3 SWAP2 POP POP JUMP JUMPDEST PUSH1 0x0 PUSH2 0x58E DUP4 DUP4 PUSH2 0x678 JUMP JUMPDEST SWAP1 POP SWAP3 SWAP2 POP POP JUMP JUMPDEST PUSH1 0x0 PUSH2 0x5A1 DUP3 PUSH2 0x889 JUMP JUMPDEST PUSH2 0x5AB DUP2 DUP6 PUSH2 0x8C4 JUMP JUMPDEST SWAP4 POP PUSH2 0x5B6 DUP4 PUSH2 0x869 JUMP JUMPDEST DUP1 PUSH1 0x0 JUMPDEST DUP4 DUP2 LT ISZERO PUSH2 0x5E7 JUMPI DUP2 MLOAD PUSH2 0x5CE DUP9 DUP3 PUSH2 0x56A JUMP JUMPDEST SWAP8 POP PUSH2 0x5D9 DUP4 PUSH2 0x8AA JUMP JUMPDEST SWAP3 POP POP PUSH1 0x1 DUP2 ADD SWAP1 POP PUSH2 0x5BA JUMP JUMPDEST POP DUP6 SWAP4 POP POP POP POP SWAP3 SWAP2 POP POP JUMP JUMPDEST PUSH1 0x0 PUSH2 0x5FF DUP3 PUSH2 0x894 JUMP JUMPDEST PUSH2 0x609 DUP2 DUP6 PUSH2 0x8D5 JUMP JUMPDEST SWAP4 POP DUP4 PUSH1 0x20 DUP3 MUL DUP6 ADD PUSH2 0x61B DUP6 PUSH2 0x879 JUMP JUMPDEST DUP1 PUSH1 0x0 JUMPDEST DUP6 DUP2 LT ISZERO PUSH2 0x657 JUMPI DUP5 DUP5 SUB DUP10 MSTORE DUP2 MLOAD PUSH2 0x638 DUP6 DUP3 PUSH2 0x582 JUMP JUMPDEST SWAP5 POP PUSH2 0x643 DUP4 PUSH2 0x8B7 JUMP JUMPDEST SWAP3 POP PUSH1 0x20 DUP11 ADD SWAP10 POP POP PUSH1 0x1 DUP2 ADD SWAP1 POP PUSH2 0x61F JUMP JUMPDEST POP DUP3 SWAP8 POP DUP8 SWAP6 POP POP POP POP POP POP SWAP3 SWAP2 POP POP JUMP JUMPDEST PUSH2 0x672 DUP2 PUSH2 0x908 JUMP JUMPDEST DUP3 MSTORE POP POP JUMP JUMPDEST PUSH1 0x0 PUSH2 0x683 DUP3 PUSH2 0x89F JUMP JUMPDEST PUSH2 0x68D DUP2 DUP6 PUSH2 0x8E6 JUMP JUMPDEST SWAP4 POP PUSH2 0x69D DUP2 DUP6 PUSH1 0x20 DUP7 ADD PUSH2 0x92D JUMP JUMPDEST PUSH2 0x6A6 DUP2 PUSH2 0xA68 JUMP JUMPDEST DUP5 ADD SWAP2 POP POP SWAP3 SWAP2 POP POP JUMP JUMPDEST PUSH1 0x0 PUSH2 0x6BE PUSH1 0xC DUP4 PUSH2 0x8F7 JUMP JUMPDEST SWAP2 POP PUSH32 0x496E76616C6964207461736B0000000000000000000000000000000000000000 PUSH1 0x0 DUP4 ADD MSTORE PUSH1 0x20 DUP3 ADD SWAP1 POP SWAP2 SWAP1 POP JUMP JUMPDEST PUSH1 0x0 PUSH2 0x6FE PUSH1 0x11 DUP4 PUSH2 0x8F7 JUMP JUMPDEST SWAP2 POP PUSH32 0x416C726561647920436F6D706C65746564000000000000000000000000000000 PUSH1 0x0 DUP4 ADD MSTORE PUSH1 0x20 DUP3 ADD SWAP1 POP SWAP2 SWAP1 POP JUMP JUMPDEST PUSH1 0x0 PUSH2 0x73E PUSH1 0x15 DUP4 PUSH2 0x8F7 JUMP JUMPDEST SWAP2 POP PUSH32 0x4D696E696D756D2033206C657474657220776F72640000000000000000000000 PUSH1 0x0 DUP4 ADD MSTORE PUSH1 0x20 DUP3 ADD SWAP1 POP SWAP2 SWAP1 POP JUMP JUMPDEST PUSH1 0x0 PUSH1 0x40 DUP3 ADD SWAP1 POP DUP2 DUP2 SUB PUSH1 0x0 DUP4 ADD MSTORE PUSH2 0x78B DUP2 DUP6 PUSH2 0x5F4 JUMP JUMPDEST SWAP1 POP DUP2 DUP2 SUB PUSH1 0x20 DUP4 ADD MSTORE PUSH2 0x79F DUP2 DUP5 PUSH2 0x596 JUMP JUMPDEST SWAP1 POP SWAP4 SWAP3 POP POP POP JUMP JUMPDEST PUSH1 0x0 PUSH1 0x20 DUP3 ADD SWAP1 POP DUP2 DUP2 SUB PUSH1 0x0 DUP4 ADD MSTORE PUSH2 0x7C1 DUP2 PUSH2 0x6B1 JUMP JUMPDEST SWAP1 POP SWAP2 SWAP1 POP JUMP JUMPDEST PUSH1 0x0 PUSH1 0x20 DUP3 ADD SWAP1 POP DUP2 DUP2 SUB PUSH1 0x0 DUP4 ADD MSTORE PUSH2 0x7E1 DUP2 PUSH2 0x6F1 JUMP JUMPDEST SWAP1 POP SWAP2 SWAP1 POP JUMP JUMPDEST PUSH1 0x0 PUSH1 0x20 DUP3 ADD SWAP1 POP DUP2 DUP2 SUB PUSH1 0x0 DUP4 ADD MSTORE PUSH2 0x801 DUP2 PUSH2 0x731 JUMP JUMPDEST SWAP1 POP SWAP2 SWAP1 POP JUMP JUMPDEST PUSH1 0x0 PUSH1 0x40 MLOAD SWAP1 POP DUP2 DUP2 ADD DUP2 DUP2 LT PUSH8 0xFFFFFFFFFFFFFFFF DUP3 GT OR ISZERO PUSH2 0x82F JUMPI PUSH2 0x82E PUSH2 0xA39 JUMP JUMPDEST JUMPDEST DUP1 PUSH1 0x40 MSTORE POP SWAP2 SWAP1 POP JUMP JUMPDEST PUSH1 0x0 PUSH8 0xFFFFFFFFFFFFFFFF DUP3 GT ISZERO PUSH2 0x854 JUMPI PUSH2 0x853 PUSH2 0xA39 JUMP JUMPDEST JUMPDEST PUSH1 0x1F NOT PUSH1 0x1F DUP4 ADD AND SWAP1 POP PUSH1 0x20 DUP2 ADD SWAP1 POP SWAP2 SWAP1 POP JUMP JUMPDEST PUSH1 0x0 DUP2 SWAP1 POP PUSH1 0x20 DUP3 ADD SWAP1 POP SWAP2 SWAP1 POP JUMP JUMPDEST PUSH1 0x0 DUP2 SWAP1 POP PUSH1 0x20 DUP3 ADD SWAP1 POP SWAP2 SWAP1 POP JUMP JUMPDEST PUSH1 0x0 DUP2 MLOAD SWAP1 POP SWAP2 SWAP1 POP JUMP JUMPDEST PUSH1 0x0 DUP2 MLOAD SWAP1 POP SWAP2 SWAP1 POP JUMP JUMPDEST PUSH1 0x0 DUP2 MLOAD SWAP1 POP SWAP2 SWAP1 POP JUMP JUMPDEST PUSH1 0x0 PUSH1 0x20 DUP3 ADD SWAP1 POP SWAP2 SWAP1 POP JUMP JUMPDEST PUSH1 0x0 PUSH1 0x20 DUP3 ADD SWAP1 POP SWAP2 SWAP1 POP JUMP JUMPDEST PUSH1 0x0 DUP3 DUP3 MSTORE PUSH1 0x20 DUP3 ADD SWAP1 POP SWAP3 SWAP2 POP POP JUMP JUMPDEST PUSH1 0x0 DUP3 DUP3 MSTORE PUSH1 0x20 DUP3 ADD SWAP1 POP SWAP3 SWAP2 POP POP JUMP JUMPDEST PUSH1 0x0 DUP3 DUP3 MSTORE PUSH1 0x20 DUP3 ADD SWAP1 POP SWAP3 SWAP2 POP POP JUMP JUMPDEST PUSH1 0x0 DUP3 DUP3 MSTORE PUSH1 0x20 DUP3 ADD SWAP1 POP SWAP3 SWAP2 POP POP JUMP JUMPDEST PUSH1 0x0 DUP2 ISZERO ISZERO SWAP1 POP SWAP2 SWAP1 POP JUMP JUMPDEST PUSH1 0x0 DUP2 SWAP1 POP SWAP2 SWAP1 POP JUMP JUMPDEST DUP3 DUP2 DUP4 CALLDATACOPY PUSH1 0x0 DUP4 DUP4 ADD MSTORE POP POP POP JUMP JUMPDEST PUSH1 0x0 JUMPDEST DUP4 DUP2 LT ISZERO PUSH2 0x94B JUMPI DUP1 DUP3 ADD MLOAD DUP2 DUP5 ADD MSTORE PUSH1 0x20 DUP2 ADD SWAP1 POP PUSH2 0x930 JUMP JUMPDEST DUP4 DUP2 GT ISZERO PUSH2 0x95A JUMPI PUSH1 0x0 DUP5 DUP5 ADD MSTORE JUMPDEST POP POP POP POP JUMP JUMPDEST PUSH1 0x0 PUSH1 0x2 DUP3 DIV SWAP1 POP PUSH1 0x1 DUP3 AND DUP1 PUSH2 0x978 JUMPI PUSH1 0x7F DUP3 AND SWAP2 POP JUMPDEST PUSH1 0x20 DUP3 LT DUP2 EQ ISZERO PUSH2 0x98C JUMPI PUSH2 0x98B PUSH2 0xA0A JUMP JUMPDEST JUMPDEST POP SWAP2 SWAP1 POP JUMP JUMPDEST PUSH1 0x0 PUSH2 0x99D DUP3 PUSH2 0x914 JUMP JUMPDEST SWAP2 POP PUSH32 0xFFFFFFFFFFFFFFFFFFFFFFFFFFFFFFFFFFFFFFFFFFFFFFFFFFFFFFFFFFFFFFFF DUP3 EQ ISZERO PUSH2 0x9D0 JUMPI PUSH2 0x9CF PUSH2 0x9DB JUMP JUMPDEST JUMPDEST PUSH1 0x1 DUP3 ADD SWAP1 POP SWAP2 SWAP1 POP JUMP JUMPDEST PUSH32 0x4E487B7100000000000000000000000000000000000000000000000000000000 PUSH1 0x0 MSTORE PUSH1 0x11 PUSH1 0x4 MSTORE PUSH1 0x24 PUSH1 0x0 REVERT JUMPDEST PUSH32 0x4E487B7100000000000000000000000000000000000000000000000000000000 PUSH1 0x0 MSTORE PUSH1 0x22 PUSH1 0x4 MSTORE PUSH1 0x24 PUSH1 0x0 REVERT JUMPDEST PUSH32 0x4E487B7100000000000000000000000000000000000000000000000000000000 PUSH1 0x0 MSTORE PUSH1 0x41 PUSH1 0x4 MSTORE PUSH1 0x24 PUSH1 0x0 REVERT JUMPDEST PUSH1 0x0 PUSH1 0x1F NOT PUSH1 0x1F DUP4 ADD AND SWAP1 POP SWAP2 SWAP1 POP JUMP JUMPDEST PUSH2 0xA82 DUP2 PUSH2 0x914 JUMP JUMPDEST DUP2 EQ PUSH2 0xA8D JUMPI PUSH1 0x0 DUP1 REVERT JUMPDEST POP JUMP INVALID LOG2 PUSH5 0x6970667358 0x22 SLT KECCAK256 0x4C EXTCODESIZE 0xED 0xF 0xAB LOG0 SWAP8 RETURNDATASIZE 0xDF 0xBB PUSH6 0x3396DEA2900A DUP6 PUSH18 0x1CB4FAF579BA85CC451532C06964736F6C63 NUMBER STOP ADDMOD STOP STOP CALLER "
				},
				"gasEstimates": {
					"creation": {
						"codeDepositCost": "551600",
						"executionCost": "587",
						"totalCost": "552187"
					},
					"external": {
						"TickTask(uint256)": "23138",
						"addTask(string)": "infinite",
						"getAllTasks()": "infinite"
					}
				},
				"methodIdentifiers": {
					"TickTask(uint256)": "9e96b818",
					"addTask(string)": "67238562",
					"getAllTasks()": "779900b4"
				}
			},
			"storageLayout": {
				"storage": [
					{
						"astId": 4,
						"contract": "Practice/ToDoList.sol:ToDo",
						"label": "tasks",
						"offset": 0,
						"slot": "0",
						"type": "t_array(t_string_storage)dyn_storage"
					},
					{
						"astId": 8,
						"contract": "Practice/ToDoList.sol:ToDo",
						"label": "isComplete",
						"offset": 0,
						"slot": "1",
						"type": "t_mapping(t_uint256,t_bool)"
					}
				],
				"types": {
					"t_array(t_string_storage)dyn_storage": {
						"base": "t_string_storage",
						"encoding": "dynamic_array",
						"label": "string[]",
						"numberOfBytes": "32"
					},
					"t_bool": {
						"encoding": "inplace",
						"label": "bool",
						"numberOfBytes": "1"
					},
					"t_mapping(t_uint256,t_bool)": {
						"encoding": "mapping",
						"key": "t_uint256",
						"label": "mapping(uint256 => bool)",
						"numberOfBytes": "32",
						"value": "t_bool"
					},
					"t_string_storage": {
						"encoding": "bytes",
						"label": "string",
						"numberOfBytes": "32"
					},
					"t_uint256": {
						"encoding": "inplace",
						"label": "uint256",
						"numberOfBytes": "32"
					}
				}
			},
			"userdoc": {
				"kind": "user",
				"methods": {},
				"version": 1
			}
		}
	}
}