{
	"Practice/passwordChecker.sol": {
		"passwordChecker": {
			"abi": [
				{
					"inputs": [
						{
							"internalType": "bytes",
							"name": "_input",
							"type": "bytes"
						}
					],
					"name": "bytestoString",
					"outputs": [
						{
							"internalType": "string",
							"name": "",
							"type": "string"
						}
					],
					"stateMutability": "pure",
					"type": "function"
				},
				{
					"inputs": [
						{
							"internalType": "string",
							"name": "input",
							"type": "string"
						}
					],
					"name": "checkPassword",
					"outputs": [
						{
							"internalType": "string",
							"name": "",
							"type": "string"
						}
					],
					"stateMutability": "view",
					"type": "function"
				},
				{
					"inputs": [
						{
							"internalType": "string",
							"name": "a",
							"type": "string"
						},
						{
							"internalType": "string",
							"name": "b",
							"type": "string"
						}
					],
					"name": "compareString",
					"outputs": [
						{
							"internalType": "bool",
							"name": "",
							"type": "bool"
						}
					],
					"stateMutability": "pure",
					"type": "function"
				},
				{
					"inputs": [],
					"name": "concat",
					"outputs": [
						{
							"internalType": "bytes",
							"name": "",
							"type": "bytes"
						}
					],
					"stateMutability": "pure",
					"type": "function"
				},
				{
					"inputs": [
						{
							"internalType": "string",
							"name": "_input",
							"type": "string"
						}
					],
					"name": "countWords",
					"outputs": [
						{
							"internalType": "uint256",
							"name": "",
							"type": "uint256"
						}
					],
					"stateMutability": "pure",
					"type": "function"
				},
				{
					"inputs": [
						{
							"internalType": "string",
							"name": "_input",
							"type": "string"
						}
					],
					"name": "getFirstByte",
					"outputs": [
						{
							"internalType": "bytes1",
							"name": "",
							"type": "bytes1"
						}
					],
					"stateMutability": "pure",
					"type": "function"
				},
				{
					"inputs": [
						{
							"internalType": "string",
							"name": "_input",
							"type": "string"
						}
					],
					"name": "password_in_bytes",
					"outputs": [
						{
							"internalType": "bytes",
							"name": "",
							"type": "bytes"
						}
					],
					"stateMutability": "pure",
					"type": "function"
				},
				{
					"inputs": [
						{
							"internalType": "string",
							"name": "_input",
							"type": "string"
						}
					],
					"name": "password_length",
					"outputs": [
						{
							"internalType": "uint256",
							"name": "",
							"type": "uint256"
						}
					],
					"stateMutability": "pure",
					"type": "function"
				},
				{
					"inputs": [
						{
							"internalType": "string",
							"name": "input",
							"type": "string"
						}
					],
					"name": "reverseString",
					"outputs": [
						{
							"internalType": "string",
							"name": "",
							"type": "string"
						}
					],
					"stateMutability": "pure",
					"type": "function"
				},
				{
					"inputs": [
						{
							"internalType": "string",
							"name": "_input",
							"type": "string"
						}
					],
					"name": "toLowercase",
					"outputs": [
						{
							"internalType": "string",
							"name": "",
							"type": "string"
						}
					],
					"stateMutability": "pure",
					"type": "function"
				},
				{
					"inputs": [
						{
							"internalType": "string",
							"name": "_input",
							"type": "string"
						}
					],
					"name": "toUppercase",
					"outputs": [
						{
							"internalType": "string",
							"name": "",
							"type": "string"
						}
					],
					"stateMutability": "pure",
					"type": "function"
				}
			],
			"devdoc": {
				"kind": "dev",
				"methods": {},
				"version": 1
			},
			"evm": {
				"assembly": "    /* \"Practice/passwordChecker.sol\":60:3516  contract passwordChecker{\r... */\n  mstore(0x40, 0x80)\n    /* \"Practice/passwordChecker.sol\":91:125  string private password = \"gurdil\" */\n  mload(0x40)\n  dup1\n  0x40\n  add\n  0x40\n  mstore\n  dup1\n  0x06\n  dup2\n  mstore\n  0x20\n  add\n  0x67757264696c0000000000000000000000000000000000000000000000000000\n  dup2\n  mstore\n  pop\n  0x00\n  swap1\n  dup1\n  mload\n  swap1\n  0x20\n  add\n  swap1\n  tag_1\n  swap3\n  swap2\n  swap1\n  tag_2\n  jump\t// in\ntag_1:\n  pop\n    /* \"Practice/passwordChecker.sol\":60:3516  contract passwordChecker{\r... */\n  callvalue\n  dup1\n  iszero\n  tag_3\n  jumpi\n  0x00\n  dup1\n  revert\ntag_3:\n  pop\n  jump(tag_4)\ntag_2:\n  dup3\n  dup1\n  sload\n  tag_5\n  swap1\n  tag_6\n  jump\t// in\ntag_5:\n  swap1\n  0x00\n  mstore\n  keccak256(0x00, 0x20)\n  swap1\n  0x1f\n  add\n  0x20\n  swap1\n  div\n  dup2\n  add\n  swap3\n  dup3\n  tag_8\n  jumpi\n  0x00\n  dup6\n  sstore\n  jump(tag_7)\ntag_8:\n  dup3\n  0x1f\n  lt\n  tag_9\n  jumpi\n  dup1\n  mload\n  not(0xff)\n  and\n  dup4\n  dup1\n  add\n  or\n  dup6\n  sstore\n  jump(tag_7)\ntag_9:\n  dup3\n  dup1\n  add\n  0x01\n  add\n  dup6\n  sstore\n  dup3\n  iszero\n  tag_7\n  jumpi\n  swap2\n  dup3\n  add\ntag_10:\n  dup3\n  dup2\n  gt\n  iszero\n  tag_11\n  jumpi\n  dup3\n  mload\n  dup3\n  sstore\n  swap2\n  0x20\n  add\n  swap2\n  swap1\n  0x01\n  add\n  swap1\n  jump(tag_10)\ntag_11:\ntag_7:\n  pop\n  swap1\n  pop\n  tag_12\n  swap2\n  swap1\n  tag_13\n  jump\t// in\ntag_12:\n  pop\n  swap1\n  jump\t// out\ntag_13:\ntag_14:\n  dup1\n  dup3\n  gt\n  iszero\n  tag_15\n  jumpi\n  0x00\n  dup2\n  0x00\n  swap1\n  sstore\n  pop\n  0x01\n  add\n  jump(tag_14)\ntag_15:\n  pop\n  swap1\n  jump\t// out\n    /* \"#utility.yul\":7:327   */\ntag_6:\n  0x00\n    /* \"#utility.yul\":88:89   */\n  0x02\n    /* \"#utility.yul\":82:86   */\n  dup3\n    /* \"#utility.yul\":78:90   */\n  div\n    /* \"#utility.yul\":68:90   */\n  swap1\n  pop\n    /* \"#utility.yul\":135:136   */\n  0x01\n    /* \"#utility.yul\":129:133   */\n  dup3\n    /* \"#utility.yul\":125:137   */\n  and\n    /* \"#utility.yul\":156:174   */\n  dup1\n    /* \"#utility.yul\":146:148   */\n  tag_18\n  jumpi\n    /* \"#utility.yul\":212:216   */\n  0x7f\n    /* \"#utility.yul\":204:210   */\n  dup3\n    /* \"#utility.yul\":200:217   */\n  and\n    /* \"#utility.yul\":190:217   */\n  swap2\n  pop\n    /* \"#utility.yul\":146:148   */\ntag_18:\n    /* \"#utility.yul\":274:276   */\n  0x20\n    /* \"#utility.yul\":266:272   */\n  dup3\n    /* \"#utility.yul\":263:277   */\n  lt\n    /* \"#utility.yul\":243:261   */\n  dup2\n    /* \"#utility.yul\":240:278   */\n  eq\n    /* \"#utility.yul\":237:239   */\n  iszero\n  tag_19\n  jumpi\n    /* \"#utility.yul\":293:311   */\n  tag_20\n  tag_21\n  jump\t// in\ntag_20:\n    /* \"#utility.yul\":237:239   */\ntag_19:\n    /* \"#utility.yul\":58:327   */\n  pop\n  swap2\n  swap1\n  pop\n  jump\t// out\n    /* \"#utility.yul\":333:513   */\ntag_21:\n    /* \"#utility.yul\":381:458   */\n  0x4e487b7100000000000000000000000000000000000000000000000000000000\n    /* \"#utility.yul\":378:379   */\n  0x00\n    /* \"#utility.yul\":371:459   */\n  mstore\n    /* \"#utility.yul\":478:482   */\n  0x22\n    /* \"#utility.yul\":475:476   */\n  0x04\n    /* \"#utility.yul\":468:483   */\n  mstore\n    /* \"#utility.yul\":502:506   */\n  0x24\n    /* \"#utility.yul\":499:500   */\n  0x00\n    /* \"#utility.yul\":492:507   */\n  revert\n    /* \"Practice/passwordChecker.sol\":60:3516  contract passwordChecker{\r... */\ntag_4:\n  dataSize(sub_0)\n  dup1\n  dataOffset(sub_0)\n  0x00\n  codecopy\n  0x00\n  return\nstop\n\nsub_0: assembly {\n        /* \"Practice/passwordChecker.sol\":60:3516  contract passwordChecker{\r... */\n      mstore(0x40, 0x80)\n      callvalue\n      dup1\n      iszero\n      tag_1\n      jumpi\n      0x00\n      dup1\n      revert\n    tag_1:\n      pop\n      jumpi(tag_2, lt(calldatasize, 0x04))\n      shr(0xe0, calldataload(0x00))\n      dup1\n      0x75b83187\n      gt\n      tag_14\n      jumpi\n      dup1\n      0x75b83187\n      eq\n      tag_8\n      jumpi\n      dup1\n      0x87e16d4d\n      eq\n      tag_9\n      jumpi\n      dup1\n      0x8b2206e7\n      eq\n      tag_10\n      jumpi\n      dup1\n      0x92d2a735\n      eq\n      tag_11\n      jumpi\n      dup1\n      0xbf99f4fb\n      eq\n      tag_12\n      jumpi\n      dup1\n      0xd546b78d\n      eq\n      tag_13\n      jumpi\n      jump(tag_2)\n    tag_14:\n      dup1\n      0x074ae3d7\n      eq\n      tag_3\n      jumpi\n      dup1\n      0x1d9b641a\n      eq\n      tag_4\n      jumpi\n      dup1\n      0x50bb0884\n      eq\n      tag_5\n      jumpi\n      dup1\n      0x5729c211\n      eq\n      tag_6\n      jumpi\n      dup1\n      0x6bdbf8e6\n      eq\n      tag_7\n      jumpi\n    tag_2:\n      0x00\n      dup1\n      revert\n        /* \"Practice/passwordChecker.sol\":1173:1677  function toUppercase(string memory _input) public pure returns(string memory){\r... */\n    tag_3:\n      tag_15\n      0x04\n      dup1\n      calldatasize\n      sub\n      dup2\n      add\n      swap1\n      tag_16\n      swap2\n      swap1\n      tag_17\n      jump\t// in\n    tag_16:\n      tag_18\n      jump\t// in\n    tag_15:\n      mload(0x40)\n      tag_19\n      swap2\n      swap1\n      tag_20\n      jump\t// in\n    tag_19:\n      mload(0x40)\n      dup1\n      swap2\n      sub\n      swap1\n      return\n        /* \"Practice/passwordChecker.sol\":510:665  function password_length(string memory _input) public pure returns(uint){\r... */\n    tag_4:\n      tag_21\n      0x04\n      dup1\n      calldatasize\n      sub\n      dup2\n      add\n      swap1\n      tag_22\n      swap2\n      swap1\n      tag_17\n      jump\t// in\n    tag_22:\n      tag_23\n      jump\t// in\n    tag_21:\n      mload(0x40)\n      tag_24\n      swap2\n      swap1\n      tag_25\n      jump\t// in\n    tag_24:\n      mload(0x40)\n      dup1\n      swap2\n      sub\n      swap1\n      return\n        /* \"Practice/passwordChecker.sol\":1685:2188  function toLowercase(string memory _input) public pure returns(string memory){\r... */\n    tag_5:\n      tag_26\n      0x04\n      dup1\n      calldatasize\n      sub\n      dup2\n      add\n      swap1\n      tag_27\n      swap2\n      swap1\n      tag_17\n      jump\t// in\n    tag_27:\n      tag_28\n      jump\t// in\n    tag_26:\n      mload(0x40)\n      tag_29\n      swap2\n      swap1\n      tag_20\n      jump\t// in\n    tag_29:\n      mload(0x40)\n      dup1\n      swap2\n      sub\n      swap1\n      return\n        /* \"Practice/passwordChecker.sol\":3228:3513  function reverseString(string memory input) public pure returns(string memory){\r... */\n    tag_6:\n      tag_30\n      0x04\n      dup1\n      calldatasize\n      sub\n      dup2\n      add\n      swap1\n      tag_31\n      swap2\n      swap1\n      tag_17\n      jump\t// in\n    tag_31:\n      tag_32\n      jump\t// in\n    tag_30:\n      mload(0x40)\n      tag_33\n      swap2\n      swap1\n      tag_20\n      jump\t// in\n    tag_33:\n      mload(0x40)\n      dup1\n      swap2\n      sub\n      swap1\n      return\n        /* \"Practice/passwordChecker.sol\":996:1165  function concat()public pure returns(bytes memory){\r... */\n    tag_7:\n      tag_34\n      tag_35\n      jump\t// in\n    tag_34:\n      mload(0x40)\n      tag_36\n      swap2\n      swap1\n      tag_37\n      jump\t// in\n    tag_36:\n      mload(0x40)\n      dup1\n      swap2\n      sub\n      swap1\n      return\n        /* \"Practice/passwordChecker.sol\":2750:3224  function compareString(string memory a, string memory b) public pure returns(bool){\r... */\n    tag_8:\n      tag_38\n      0x04\n      dup1\n      calldatasize\n      sub\n      dup2\n      add\n      swap1\n      tag_39\n      swap2\n      swap1\n      tag_40\n      jump\t// in\n    tag_39:\n      tag_41\n      jump\t// in\n    tag_38:\n      mload(0x40)\n      tag_42\n      swap2\n      swap1\n      tag_43\n      jump\t// in\n    tag_42:\n      mload(0x40)\n      dup1\n      swap2\n      sub\n      swap1\n      return\n        /* \"Practice/passwordChecker.sol\":134:367  function checkPassword(string memory input) public view returns(string memory){\r... */\n    tag_9:\n      tag_44\n      0x04\n      dup1\n      calldatasize\n      sub\n      dup2\n      add\n      swap1\n      tag_45\n      swap2\n      swap1\n      tag_17\n      jump\t// in\n    tag_45:\n      tag_46\n      jump\t// in\n    tag_44:\n      mload(0x40)\n      tag_47\n      swap2\n      swap1\n      tag_20\n      jump\t// in\n    tag_47:\n      mload(0x40)\n      dup1\n      swap2\n      sub\n      swap1\n      return\n        /* \"Practice/passwordChecker.sol\":375:496  function password_in_bytes(string memory _input) public pure returns(bytes memory){\r... */\n    tag_10:\n      tag_48\n      0x04\n      dup1\n      calldatasize\n      sub\n      dup2\n      add\n      swap1\n      tag_49\n      swap2\n      swap1\n      tag_17\n      jump\t// in\n    tag_49:\n      tag_50\n      jump\t// in\n    tag_48:\n      mload(0x40)\n      tag_51\n      swap2\n      swap1\n      tag_37\n      jump\t// in\n    tag_51:\n      mload(0x40)\n      dup1\n      swap2\n      sub\n      swap1\n      return\n        /* \"Practice/passwordChecker.sol\":870:988  function bytestoString(bytes memory _input) public pure returns(string memory){\r... */\n    tag_11:\n      tag_52\n      0x04\n      dup1\n      calldatasize\n      sub\n      dup2\n      add\n      swap1\n      tag_53\n      swap2\n      swap1\n      tag_54\n      jump\t// in\n    tag_53:\n      tag_55\n      jump\t// in\n    tag_52:\n      mload(0x40)\n      tag_56\n      swap2\n      swap1\n      tag_20\n      jump\t// in\n    tag_56:\n      mload(0x40)\n      dup1\n      swap2\n      sub\n      swap1\n      return\n        /* \"Practice/passwordChecker.sol\":673:862  function getFirstByte(string memory _input) public pure returns(bytes1){\r... */\n    tag_12:\n      tag_57\n      0x04\n      dup1\n      calldatasize\n      sub\n      dup2\n      add\n      swap1\n      tag_58\n      swap2\n      swap1\n      tag_17\n      jump\t// in\n    tag_58:\n      tag_59\n      jump\t// in\n    tag_57:\n      mload(0x40)\n      tag_60\n      swap2\n      swap1\n      tag_61\n      jump\t// in\n    tag_60:\n      mload(0x40)\n      dup1\n      swap2\n      sub\n      swap1\n      return\n        /* \"Practice/passwordChecker.sol\":2196:2746  function countWords(string memory _input) public pure returns(uint){\r... */\n    tag_13:\n      tag_62\n      0x04\n      dup1\n      calldatasize\n      sub\n      dup2\n      add\n      swap1\n      tag_63\n      swap2\n      swap1\n      tag_17\n      jump\t// in\n    tag_63:\n      tag_64\n      jump\t// in\n    tag_62:\n      mload(0x40)\n      tag_65\n      swap2\n      swap1\n      tag_25\n      jump\t// in\n    tag_65:\n      mload(0x40)\n      dup1\n      swap2\n      sub\n      swap1\n      return\n        /* \"Practice/passwordChecker.sol\":1173:1677  function toUppercase(string memory _input) public pure returns(string memory){\r... */\n    tag_18:\n        /* \"Practice/passwordChecker.sol\":1236:1249  string memory */\n      0x60\n        /* \"Practice/passwordChecker.sol\":1261:1281  bytes memory strByte */\n      0x00\n        /* \"Practice/passwordChecker.sol\":1290:1296  _input */\n      dup3\n        /* \"Practice/passwordChecker.sol\":1261:1297  bytes memory strByte = bytes(_input) */\n      swap1\n      pop\n        /* \"Practice/passwordChecker.sol\":1308:1322  uint strLength */\n      0x00\n        /* \"Practice/passwordChecker.sol\":1325:1332  strByte */\n      dup2\n        /* \"Practice/passwordChecker.sol\":1325:1339  strByte.length */\n      mload\n        /* \"Practice/passwordChecker.sol\":1308:1339  uint strLength = strByte.length */\n      swap1\n      pop\n        /* \"Practice/passwordChecker.sol\":1350:1369  bytes memory resStr */\n      0x00\n        /* \"Practice/passwordChecker.sol\":1381:1390  strLength */\n      dup2\n        /* \"Practice/passwordChecker.sol\":1371:1391  new bytes(strLength) */\n      0xffffffffffffffff\n      dup2\n      gt\n      iszero\n      tag_67\n      jumpi\n      mstore(0x00, 0x4e487b7100000000000000000000000000000000000000000000000000000000)\n      mstore(0x04, 0x41)\n      revert(0x00, 0x24)\n    tag_67:\n      mload(0x40)\n      swap1\n      dup1\n      dup3\n      mstore\n      dup1\n      0x1f\n      add\n      not(0x1f)\n      and\n      0x20\n      add\n      dup3\n      add\n      0x40\n      mstore\n      dup1\n      iszero\n      tag_68\n      jumpi\n      dup2\n      0x20\n      add\n      0x01\n      dup3\n      mul\n      dup1\n      calldatasize\n      dup4\n      calldatacopy\n      dup1\n      dup3\n      add\n      swap2\n      pop\n      pop\n      swap1\n      pop\n    tag_68:\n      pop\n        /* \"Practice/passwordChecker.sol\":1350:1391  bytes memory resStr= new bytes(strLength) */\n      swap1\n      pop\n        /* \"Practice/passwordChecker.sol\":1408:1414  uint i */\n      0x00\n        /* \"Practice/passwordChecker.sol\":1404:1636  for(uint i=0;i<strLength;i++){\r... */\n    tag_69:\n        /* \"Practice/passwordChecker.sol\":1419:1428  strLength */\n      dup3\n        /* \"Practice/passwordChecker.sol\":1417:1418  i */\n      dup2\n        /* \"Practice/passwordChecker.sol\":1417:1428  i<strLength */\n      lt\n        /* \"Practice/passwordChecker.sol\":1404:1636  for(uint i=0;i<strLength;i++){\r... */\n      iszero\n      tag_70\n      jumpi\n        /* \"Practice/passwordChecker.sol\":1470:1472  97 */\n      0x61\n        /* \"Practice/passwordChecker.sol\":1457:1464  strByte */\n      dup5\n        /* \"Practice/passwordChecker.sol\":1465:1466  i */\n      dup3\n        /* \"Practice/passwordChecker.sol\":1457:1467  strByte[i] */\n      dup2\n      mload\n      dup2\n      lt\n      tag_72\n      jumpi\n      mstore(0x00, 0x4e487b7100000000000000000000000000000000000000000000000000000000)\n      mstore(0x04, 0x32)\n      revert(0x00, 0x24)\n    tag_72:\n      0x20\n      add\n      add\n      mload\n      0xf8\n      shr\n      0xf8\n      shl\n        /* \"Practice/passwordChecker.sol\":1451:1468  uint8(strByte[i]) */\n      0xf8\n      shr\n        /* \"Practice/passwordChecker.sol\":1451:1472  uint8(strByte[i])>=97 */\n      0xff\n      and\n      lt\n      iszero\n        /* \"Practice/passwordChecker.sol\":1451:1498  uint8(strByte[i])>=97 && uint8(strByte[i])<=122 */\n      dup1\n      iszero\n      tag_73\n      jumpi\n      pop\n        /* \"Practice/passwordChecker.sol\":1495:1498  122 */\n      0x7a\n        /* \"Practice/passwordChecker.sol\":1482:1489  strByte */\n      dup5\n        /* \"Practice/passwordChecker.sol\":1490:1491  i */\n      dup3\n        /* \"Practice/passwordChecker.sol\":1482:1492  strByte[i] */\n      dup2\n      mload\n      dup2\n      lt\n      tag_74\n      jumpi\n      mstore(0x00, 0x4e487b7100000000000000000000000000000000000000000000000000000000)\n      mstore(0x04, 0x32)\n      revert(0x00, 0x24)\n    tag_74:\n      0x20\n      add\n      add\n      mload\n      0xf8\n      shr\n      0xf8\n      shl\n        /* \"Practice/passwordChecker.sol\":1476:1493  uint8(strByte[i]) */\n      0xf8\n      shr\n        /* \"Practice/passwordChecker.sol\":1476:1498  uint8(strByte[i])<=122 */\n      0xff\n      and\n      gt\n      iszero\n        /* \"Practice/passwordChecker.sol\":1451:1498  uint8(strByte[i])>=97 && uint8(strByte[i])<=122 */\n    tag_73:\n        /* \"Practice/passwordChecker.sol\":1448:1625  if(uint8(strByte[i])>=97 && uint8(strByte[i])<=122){\r... */\n      iszero\n      tag_75\n      jumpi\n        /* \"Practice/passwordChecker.sol\":1553:1555  32 */\n      0x20\n        /* \"Practice/passwordChecker.sol\":1541:1548  strByte */\n      dup5\n        /* \"Practice/passwordChecker.sol\":1549:1550  i */\n      dup3\n        /* \"Practice/passwordChecker.sol\":1541:1551  strByte[i] */\n      dup2\n      mload\n      dup2\n      lt\n      tag_76\n      jumpi\n      mstore(0x00, 0x4e487b7100000000000000000000000000000000000000000000000000000000)\n      mstore(0x04, 0x32)\n      revert(0x00, 0x24)\n    tag_76:\n      0x20\n      add\n      add\n      mload\n      0xf8\n      shr\n      0xf8\n      shl\n        /* \"Practice/passwordChecker.sol\":1535:1552  uint8(strByte[i]) */\n      0xf8\n      shr\n        /* \"Practice/passwordChecker.sol\":1535:1555  uint8(strByte[i])-32 */\n      tag_77\n      swap2\n      swap1\n      tag_78\n      jump\t// in\n    tag_77:\n        /* \"Practice/passwordChecker.sol\":1528:1556  bytes1(uint8(strByte[i])-32) */\n      0xf8\n      shl\n        /* \"Practice/passwordChecker.sol\":1516:1522  resStr */\n      dup3\n        /* \"Practice/passwordChecker.sol\":1523:1524  i */\n      dup3\n        /* \"Practice/passwordChecker.sol\":1516:1525  resStr[i] */\n      dup2\n      mload\n      dup2\n      lt\n      tag_79\n      jumpi\n      mstore(0x00, 0x4e487b7100000000000000000000000000000000000000000000000000000000)\n      mstore(0x04, 0x32)\n      revert(0x00, 0x24)\n    tag_79:\n      0x20\n      add\n      add\n        /* \"Practice/passwordChecker.sol\":1516:1556  resStr[i] = bytes1(uint8(strByte[i])-32) */\n      swap1\n      not(0xffffffffffffffffffffffffffffffffffffffffffffffffffffffffffffff)\n      and\n      swap1\n      dup2\n      0x00\n      byte\n      swap1\n      mstore8\n      pop\n        /* \"Practice/passwordChecker.sol\":1448:1625  if(uint8(strByte[i])>=97 && uint8(strByte[i])<=122){\r... */\n      jump(tag_80)\n    tag_75:\n        /* \"Practice/passwordChecker.sol\":1603:1610  strByte */\n      dup4\n        /* \"Practice/passwordChecker.sol\":1611:1612  i */\n      dup2\n        /* \"Practice/passwordChecker.sol\":1603:1613  strByte[i] */\n      dup2\n      mload\n      dup2\n      lt\n      tag_81\n      jumpi\n      mstore(0x00, 0x4e487b7100000000000000000000000000000000000000000000000000000000)\n      mstore(0x04, 0x32)\n      revert(0x00, 0x24)\n    tag_81:\n      0x20\n      add\n      add\n      mload\n      0xf8\n      shr\n      0xf8\n      shl\n        /* \"Practice/passwordChecker.sol\":1591:1597  resStr */\n      dup3\n        /* \"Practice/passwordChecker.sol\":1598:1599  i */\n      dup3\n        /* \"Practice/passwordChecker.sol\":1591:1600  resStr[i] */\n      dup2\n      mload\n      dup2\n      lt\n      tag_82\n      jumpi\n      mstore(0x00, 0x4e487b7100000000000000000000000000000000000000000000000000000000)\n      mstore(0x04, 0x32)\n      revert(0x00, 0x24)\n    tag_82:\n      0x20\n      add\n      add\n        /* \"Practice/passwordChecker.sol\":1591:1613  resStr[i] = strByte[i] */\n      swap1\n      not(0xffffffffffffffffffffffffffffffffffffffffffffffffffffffffffffff)\n      and\n      swap1\n      dup2\n      0x00\n      byte\n      swap1\n      mstore8\n      pop\n        /* \"Practice/passwordChecker.sol\":1448:1625  if(uint8(strByte[i])>=97 && uint8(strByte[i])<=122){\r... */\n    tag_80:\n        /* \"Practice/passwordChecker.sol\":1429:1432  i++ */\n      dup1\n      dup1\n      tag_83\n      swap1\n      tag_84\n      jump\t// in\n    tag_83:\n      swap2\n      pop\n      pop\n        /* \"Practice/passwordChecker.sol\":1404:1636  for(uint i=0;i<strLength;i++){\r... */\n      jump(tag_69)\n    tag_70:\n      pop\n        /* \"Practice/passwordChecker.sol\":1662:1668  resStr */\n      dup1\n        /* \"Practice/passwordChecker.sol\":1648:1669  return string(resStr) */\n      swap4\n      pop\n      pop\n      pop\n      pop\n        /* \"Practice/passwordChecker.sol\":1173:1677  function toUppercase(string memory _input) public pure returns(string memory){\r... */\n      swap2\n      swap1\n      pop\n      jump\t// out\n        /* \"Practice/passwordChecker.sol\":510:665  function password_length(string memory _input) public pure returns(uint){\r... */\n    tag_23:\n        /* \"Practice/passwordChecker.sol\":577:581  uint */\n      0x00\n        /* \"Practice/passwordChecker.sol\":593:607  uint strLength */\n      dup1\n        /* \"Practice/passwordChecker.sol\":616:622  _input */\n      dup3\n        /* \"Practice/passwordChecker.sol\":610:630  bytes(_input).length */\n      mload\n        /* \"Practice/passwordChecker.sol\":593:630  uint strLength = bytes(_input).length */\n      swap1\n      pop\n        /* \"Practice/passwordChecker.sol\":648:657  strLength */\n      dup1\n        /* \"Practice/passwordChecker.sol\":641:657  return strLength */\n      swap2\n      pop\n      pop\n        /* \"Practice/passwordChecker.sol\":510:665  function password_length(string memory _input) public pure returns(uint){\r... */\n      swap2\n      swap1\n      pop\n      jump\t// out\n        /* \"Practice/passwordChecker.sol\":1685:2188  function toLowercase(string memory _input) public pure returns(string memory){\r... */\n    tag_28:\n        /* \"Practice/passwordChecker.sol\":1748:1761  string memory */\n      0x60\n        /* \"Practice/passwordChecker.sol\":1773:1793  bytes memory strByte */\n      0x00\n        /* \"Practice/passwordChecker.sol\":1802:1808  _input */\n      dup3\n        /* \"Practice/passwordChecker.sol\":1773:1809  bytes memory strByte = bytes(_input) */\n      swap1\n      pop\n        /* \"Practice/passwordChecker.sol\":1820:1834  uint strLength */\n      0x00\n        /* \"Practice/passwordChecker.sol\":1837:1844  strByte */\n      dup2\n        /* \"Practice/passwordChecker.sol\":1837:1851  strByte.length */\n      mload\n        /* \"Practice/passwordChecker.sol\":1820:1851  uint strLength = strByte.length */\n      swap1\n      pop\n        /* \"Practice/passwordChecker.sol\":1862:1881  bytes memory resStr */\n      0x00\n        /* \"Practice/passwordChecker.sol\":1893:1902  strLength */\n      dup2\n        /* \"Practice/passwordChecker.sol\":1883:1903  new bytes(strLength) */\n      0xffffffffffffffff\n      dup2\n      gt\n      iszero\n      tag_87\n      jumpi\n      mstore(0x00, 0x4e487b7100000000000000000000000000000000000000000000000000000000)\n      mstore(0x04, 0x41)\n      revert(0x00, 0x24)\n    tag_87:\n      mload(0x40)\n      swap1\n      dup1\n      dup3\n      mstore\n      dup1\n      0x1f\n      add\n      not(0x1f)\n      and\n      0x20\n      add\n      dup3\n      add\n      0x40\n      mstore\n      dup1\n      iszero\n      tag_88\n      jumpi\n      dup2\n      0x20\n      add\n      0x01\n      dup3\n      mul\n      dup1\n      calldatasize\n      dup4\n      calldatacopy\n      dup1\n      dup3\n      add\n      swap2\n      pop\n      pop\n      swap1\n      pop\n    tag_88:\n      pop\n        /* \"Practice/passwordChecker.sol\":1862:1903  bytes memory resStr= new bytes(strLength) */\n      swap1\n      pop\n        /* \"Practice/passwordChecker.sol\":1920:1926  uint i */\n      0x00\n        /* \"Practice/passwordChecker.sol\":1916:2147  for(uint i=0;i<strLength;i++){\r... */\n    tag_89:\n        /* \"Practice/passwordChecker.sol\":1931:1940  strLength */\n      dup3\n        /* \"Practice/passwordChecker.sol\":1929:1930  i */\n      dup2\n        /* \"Practice/passwordChecker.sol\":1929:1940  i<strLength */\n      lt\n        /* \"Practice/passwordChecker.sol\":1916:2147  for(uint i=0;i<strLength;i++){\r... */\n      iszero\n      tag_90\n      jumpi\n        /* \"Practice/passwordChecker.sol\":1982:1984  65 */\n      0x41\n        /* \"Practice/passwordChecker.sol\":1969:1976  strByte */\n      dup5\n        /* \"Practice/passwordChecker.sol\":1977:1978  i */\n      dup3\n        /* \"Practice/passwordChecker.sol\":1969:1979  strByte[i] */\n      dup2\n      mload\n      dup2\n      lt\n      tag_92\n      jumpi\n      mstore(0x00, 0x4e487b7100000000000000000000000000000000000000000000000000000000)\n      mstore(0x04, 0x32)\n      revert(0x00, 0x24)\n    tag_92:\n      0x20\n      add\n      add\n      mload\n      0xf8\n      shr\n      0xf8\n      shl\n        /* \"Practice/passwordChecker.sol\":1963:1980  uint8(strByte[i]) */\n      0xf8\n      shr\n        /* \"Practice/passwordChecker.sol\":1963:1984  uint8(strByte[i])>=65 */\n      0xff\n      and\n      lt\n      iszero\n        /* \"Practice/passwordChecker.sol\":1963:2009  uint8(strByte[i])>=65 && uint8(strByte[i])<=90 */\n      dup1\n      iszero\n      tag_93\n      jumpi\n      pop\n        /* \"Practice/passwordChecker.sol\":2007:2009  90 */\n      0x5a\n        /* \"Practice/passwordChecker.sol\":1994:2001  strByte */\n      dup5\n        /* \"Practice/passwordChecker.sol\":2002:2003  i */\n      dup3\n        /* \"Practice/passwordChecker.sol\":1994:2004  strByte[i] */\n      dup2\n      mload\n      dup2\n      lt\n      tag_94\n      jumpi\n      mstore(0x00, 0x4e487b7100000000000000000000000000000000000000000000000000000000)\n      mstore(0x04, 0x32)\n      revert(0x00, 0x24)\n    tag_94:\n      0x20\n      add\n      add\n      mload\n      0xf8\n      shr\n      0xf8\n      shl\n        /* \"Practice/passwordChecker.sol\":1988:2005  uint8(strByte[i]) */\n      0xf8\n      shr\n        /* \"Practice/passwordChecker.sol\":1988:2009  uint8(strByte[i])<=90 */\n      0xff\n      and\n      gt\n      iszero\n        /* \"Practice/passwordChecker.sol\":1963:2009  uint8(strByte[i])>=65 && uint8(strByte[i])<=90 */\n    tag_93:\n        /* \"Practice/passwordChecker.sol\":1960:2136  if(uint8(strByte[i])>=65 && uint8(strByte[i])<=90){\r... */\n      iszero\n      tag_95\n      jumpi\n        /* \"Practice/passwordChecker.sol\":2064:2066  32 */\n      0x20\n        /* \"Practice/passwordChecker.sol\":2052:2059  strByte */\n      dup5\n        /* \"Practice/passwordChecker.sol\":2060:2061  i */\n      dup3\n        /* \"Practice/passwordChecker.sol\":2052:2062  strByte[i] */\n      dup2\n      mload\n      dup2\n      lt\n      tag_96\n      jumpi\n      mstore(0x00, 0x4e487b7100000000000000000000000000000000000000000000000000000000)\n      mstore(0x04, 0x32)\n      revert(0x00, 0x24)\n    tag_96:\n      0x20\n      add\n      add\n      mload\n      0xf8\n      shr\n      0xf8\n      shl\n        /* \"Practice/passwordChecker.sol\":2046:2063  uint8(strByte[i]) */\n      0xf8\n      shr\n        /* \"Practice/passwordChecker.sol\":2046:2066  uint8(strByte[i])+32 */\n      tag_97\n      swap2\n      swap1\n      tag_98\n      jump\t// in\n    tag_97:\n        /* \"Practice/passwordChecker.sol\":2039:2067  bytes1(uint8(strByte[i])+32) */\n      0xf8\n      shl\n        /* \"Practice/passwordChecker.sol\":2027:2033  resStr */\n      dup3\n        /* \"Practice/passwordChecker.sol\":2034:2035  i */\n      dup3\n        /* \"Practice/passwordChecker.sol\":2027:2036  resStr[i] */\n      dup2\n      mload\n      dup2\n      lt\n      tag_99\n      jumpi\n      mstore(0x00, 0x4e487b7100000000000000000000000000000000000000000000000000000000)\n      mstore(0x04, 0x32)\n      revert(0x00, 0x24)\n    tag_99:\n      0x20\n      add\n      add\n        /* \"Practice/passwordChecker.sol\":2027:2067  resStr[i] = bytes1(uint8(strByte[i])+32) */\n      swap1\n      not(0xffffffffffffffffffffffffffffffffffffffffffffffffffffffffffffff)\n      and\n      swap1\n      dup2\n      0x00\n      byte\n      swap1\n      mstore8\n      pop\n        /* \"Practice/passwordChecker.sol\":1960:2136  if(uint8(strByte[i])>=65 && uint8(strByte[i])<=90){\r... */\n      jump(tag_100)\n    tag_95:\n        /* \"Practice/passwordChecker.sol\":2114:2121  strByte */\n      dup4\n        /* \"Practice/passwordChecker.sol\":2122:2123  i */\n      dup2\n        /* \"Practice/passwordChecker.sol\":2114:2124  strByte[i] */\n      dup2\n      mload\n      dup2\n      lt\n      tag_101\n      jumpi\n      mstore(0x00, 0x4e487b7100000000000000000000000000000000000000000000000000000000)\n      mstore(0x04, 0x32)\n      revert(0x00, 0x24)\n    tag_101:\n      0x20\n      add\n      add\n      mload\n      0xf8\n      shr\n      0xf8\n      shl\n        /* \"Practice/passwordChecker.sol\":2102:2108  resStr */\n      dup3\n        /* \"Practice/passwordChecker.sol\":2109:2110  i */\n      dup3\n        /* \"Practice/passwordChecker.sol\":2102:2111  resStr[i] */\n      dup2\n      mload\n      dup2\n      lt\n      tag_102\n      jumpi\n      mstore(0x00, 0x4e487b7100000000000000000000000000000000000000000000000000000000)\n      mstore(0x04, 0x32)\n      revert(0x00, 0x24)\n    tag_102:\n      0x20\n      add\n      add\n        /* \"Practice/passwordChecker.sol\":2102:2124  resStr[i] = strByte[i] */\n      swap1\n      not(0xffffffffffffffffffffffffffffffffffffffffffffffffffffffffffffff)\n      and\n      swap1\n      dup2\n      0x00\n      byte\n      swap1\n      mstore8\n      pop\n        /* \"Practice/passwordChecker.sol\":1960:2136  if(uint8(strByte[i])>=65 && uint8(strByte[i])<=90){\r... */\n    tag_100:\n        /* \"Practice/passwordChecker.sol\":1941:1944  i++ */\n      dup1\n      dup1\n      tag_103\n      swap1\n      tag_84\n      jump\t// in\n    tag_103:\n      swap2\n      pop\n      pop\n        /* \"Practice/passwordChecker.sol\":1916:2147  for(uint i=0;i<strLength;i++){\r... */\n      jump(tag_89)\n    tag_90:\n      pop\n        /* \"Practice/passwordChecker.sol\":2173:2179  resStr */\n      dup1\n        /* \"Practice/passwordChecker.sol\":2159:2180  return string(resStr) */\n      swap4\n      pop\n      pop\n      pop\n      pop\n        /* \"Practice/passwordChecker.sol\":1685:2188  function toLowercase(string memory _input) public pure returns(string memory){\r... */\n      swap2\n      swap1\n      pop\n      jump\t// out\n        /* \"Practice/passwordChecker.sol\":3228:3513  function reverseString(string memory input) public pure returns(string memory){\r... */\n    tag_32:\n        /* \"Practice/passwordChecker.sol\":3292:3305  string memory */\n      0x60\n        /* \"Practice/passwordChecker.sol\":3313:3330  bytes memory bStr */\n      0x00\n        /* \"Practice/passwordChecker.sol\":3339:3344  input */\n      dup3\n        /* \"Practice/passwordChecker.sol\":3313:3345  bytes memory bStr = bytes(input) */\n      swap1\n      pop\n        /* \"Practice/passwordChecker.sol\":3352:3369  bytes memory rStr */\n      0x00\n        /* \"Practice/passwordChecker.sol\":3382:3386  bStr */\n      dup2\n        /* \"Practice/passwordChecker.sol\":3382:3393  bStr.length */\n      mload\n        /* \"Practice/passwordChecker.sol\":3372:3394  new bytes(bStr.length) */\n      0xffffffffffffffff\n      dup2\n      gt\n      iszero\n      tag_105\n      jumpi\n      mstore(0x00, 0x4e487b7100000000000000000000000000000000000000000000000000000000)\n      mstore(0x04, 0x41)\n      revert(0x00, 0x24)\n    tag_105:\n      mload(0x40)\n      swap1\n      dup1\n      dup3\n      mstore\n      dup1\n      0x1f\n      add\n      not(0x1f)\n      and\n      0x20\n      add\n      dup3\n      add\n      0x40\n      mstore\n      dup1\n      iszero\n      tag_106\n      jumpi\n      dup2\n      0x20\n      add\n      0x01\n      dup3\n      mul\n      dup1\n      calldatasize\n      dup4\n      calldatacopy\n      dup1\n      dup3\n      add\n      swap2\n      pop\n      pop\n      swap1\n      pop\n    tag_106:\n      pop\n        /* \"Practice/passwordChecker.sol\":3352:3394  bytes memory rStr = new bytes(bStr.length) */\n      swap1\n      pop\n        /* \"Practice/passwordChecker.sol\":3407:3413  uint i */\n      0x00\n        /* \"Practice/passwordChecker.sol\":3403:3484  for(uint i=0;i<bStr.length;i++){\r... */\n    tag_107:\n        /* \"Practice/passwordChecker.sol\":3418:3422  bStr */\n      dup3\n        /* \"Practice/passwordChecker.sol\":3418:3429  bStr.length */\n      mload\n        /* \"Practice/passwordChecker.sol\":3416:3417  i */\n      dup2\n        /* \"Practice/passwordChecker.sol\":3416:3429  i<bStr.length */\n      lt\n        /* \"Practice/passwordChecker.sol\":3403:3484  for(uint i=0;i<bStr.length;i++){\r... */\n      iszero\n      tag_108\n      jumpi\n        /* \"Practice/passwordChecker.sol\":3455:3459  bStr */\n      dup3\n        /* \"Practice/passwordChecker.sol\":3474:3475  i */\n      dup2\n        /* \"Practice/passwordChecker.sol\":3472:3473  1 */\n      0x01\n        /* \"Practice/passwordChecker.sol\":3460:3464  bStr */\n      dup6\n        /* \"Practice/passwordChecker.sol\":3460:3471  bStr.length */\n      mload\n        /* \"Practice/passwordChecker.sol\":3460:3473  bStr.length-1 */\n      tag_110\n      swap2\n      swap1\n      tag_111\n      jump\t// in\n    tag_110:\n        /* \"Practice/passwordChecker.sol\":3460:3475  bStr.length-1-i */\n      tag_112\n      swap2\n      swap1\n      tag_111\n      jump\t// in\n    tag_112:\n        /* \"Practice/passwordChecker.sol\":3455:3476  bStr[bStr.length-1-i] */\n      dup2\n      mload\n      dup2\n      lt\n      tag_113\n      jumpi\n      mstore(0x00, 0x4e487b7100000000000000000000000000000000000000000000000000000000)\n      mstore(0x04, 0x32)\n      revert(0x00, 0x24)\n    tag_113:\n      0x20\n      add\n      add\n      mload\n      0xf8\n      shr\n      0xf8\n      shl\n        /* \"Practice/passwordChecker.sol\":3445:3449  rStr */\n      dup3\n        /* \"Practice/passwordChecker.sol\":3450:3451  i */\n      dup3\n        /* \"Practice/passwordChecker.sol\":3445:3452  rStr[i] */\n      dup2\n      mload\n      dup2\n      lt\n      tag_114\n      jumpi\n      mstore(0x00, 0x4e487b7100000000000000000000000000000000000000000000000000000000)\n      mstore(0x04, 0x32)\n      revert(0x00, 0x24)\n    tag_114:\n      0x20\n      add\n      add\n        /* \"Practice/passwordChecker.sol\":3445:3476  rStr[i] = bStr[bStr.length-1-i] */\n      swap1\n      not(0xffffffffffffffffffffffffffffffffffffffffffffffffffffffffffffff)\n      and\n      swap1\n      dup2\n      0x00\n      byte\n      swap1\n      mstore8\n      pop\n        /* \"Practice/passwordChecker.sol\":3430:3433  i++ */\n      dup1\n      dup1\n      tag_115\n      swap1\n      tag_84\n      jump\t// in\n    tag_115:\n      swap2\n      pop\n      pop\n        /* \"Practice/passwordChecker.sol\":3403:3484  for(uint i=0;i<bStr.length;i++){\r... */\n      jump(tag_107)\n    tag_108:\n      pop\n        /* \"Practice/passwordChecker.sol\":3504:3508  rStr */\n      dup1\n        /* \"Practice/passwordChecker.sol\":3490:3509  return string(rStr) */\n      swap3\n      pop\n      pop\n      pop\n        /* \"Practice/passwordChecker.sol\":3228:3513  function reverseString(string memory input) public pure returns(string memory){\r... */\n      swap2\n      swap1\n      pop\n      jump\t// out\n        /* \"Practice/passwordChecker.sol\":996:1165  function concat()public pure returns(bytes memory){\r... */\n    tag_35:\n        /* \"Practice/passwordChecker.sol\":1033:1045  bytes memory */\n      0x60\n        /* \"Practice/passwordChecker.sol\":1056:1070  bytes memory a */\n      0x00\n        /* \"Practice/passwordChecker.sol\":1056:1080  bytes memory a = \"Hello\" */\n      mload(0x40)\n      dup1\n      0x40\n      add\n      0x40\n      mstore\n      dup1\n      0x05\n      dup2\n      mstore\n      0x20\n      add\n      0x48656c6c6f000000000000000000000000000000000000000000000000000000\n      dup2\n      mstore\n      pop\n      swap1\n      pop\n        /* \"Practice/passwordChecker.sol\":1091:1105  bytes memory b */\n      0x00\n        /* \"Practice/passwordChecker.sol\":1091:1116  bytes memory b = \"World!\" */\n      mload(0x40)\n      dup1\n      0x40\n      add\n      0x40\n      mstore\n      dup1\n      0x06\n      dup2\n      mstore\n      0x20\n      add\n      0x576f726c64210000000000000000000000000000000000000000000000000000\n      dup2\n      mstore\n      pop\n      swap1\n      pop\n        /* \"Practice/passwordChecker.sol\":1151:1152  a */\n      dup2\n        /* \"Practice/passwordChecker.sol\":1153:1154  b */\n      dup2\n        /* \"Practice/passwordChecker.sol\":1134:1155  abi.encodePacked(a,b) */\n      add(0x20, mload(0x40))\n      tag_117\n      swap3\n      swap2\n      swap1\n      tag_118\n      jump\t// in\n    tag_117:\n      mload(0x40)\n      0x20\n      dup2\n      dup4\n      sub\n      sub\n      dup2\n      mstore\n      swap1\n      0x40\n      mstore\n        /* \"Practice/passwordChecker.sol\":1126:1155  return  abi.encodePacked(a,b) */\n      swap3\n      pop\n      pop\n      pop\n        /* \"Practice/passwordChecker.sol\":996:1165  function concat()public pure returns(bytes memory){\r... */\n      swap1\n      jump\t// out\n        /* \"Practice/passwordChecker.sol\":2750:3224  function compareString(string memory a, string memory b) public pure returns(bool){\r... */\n    tag_41:\n        /* \"Practice/passwordChecker.sol\":2827:2831  bool */\n      0x00\n        /* \"Practice/passwordChecker.sol\":2839:2857  bytes memory bStr1 */\n      dup1\n        /* \"Practice/passwordChecker.sol\":2866:2867  a */\n      dup4\n        /* \"Practice/passwordChecker.sol\":2839:2868  bytes memory bStr1 = bytes(a) */\n      swap1\n      pop\n        /* \"Practice/passwordChecker.sol\":2875:2893  bytes memory bStr2 */\n      0x00\n        /* \"Practice/passwordChecker.sol\":2902:2903  b */\n      dup4\n        /* \"Practice/passwordChecker.sol\":2875:2904  bytes memory bStr2 = bytes(b) */\n      swap1\n      pop\n        /* \"Practice/passwordChecker.sol\":2911:2926  uint strLength1 */\n      0x00\n        /* \"Practice/passwordChecker.sol\":2929:2934  bStr1 */\n      dup3\n        /* \"Practice/passwordChecker.sol\":2929:2941  bStr1.length */\n      mload\n        /* \"Practice/passwordChecker.sol\":2911:2941  uint strLength1 = bStr1.length */\n      swap1\n      pop\n        /* \"Practice/passwordChecker.sol\":2948:2963  uint strLength2 */\n      0x00\n        /* \"Practice/passwordChecker.sol\":2966:2971  bStr2 */\n      dup3\n        /* \"Practice/passwordChecker.sol\":2966:2978  bStr2.length */\n      mload\n        /* \"Practice/passwordChecker.sol\":2948:2978  uint strLength2 = bStr2.length */\n      swap1\n      pop\n        /* \"Practice/passwordChecker.sol\":3007:3017  strLength2 */\n      dup1\n        /* \"Practice/passwordChecker.sol\":2993:3003  strLength1 */\n      dup3\n        /* \"Practice/passwordChecker.sol\":2993:3017  strLength1 != strLength2 */\n      eq\n        /* \"Practice/passwordChecker.sol\":2989:3058  if (strLength1 != strLength2) {\r... */\n      tag_120\n      jumpi\n        /* \"Practice/passwordChecker.sol\":3041:3046  false */\n      0x00\n        /* \"Practice/passwordChecker.sol\":3034:3046  return false */\n      swap5\n      pop\n      pop\n      pop\n      pop\n      pop\n      jump(tag_119)\n        /* \"Practice/passwordChecker.sol\":2989:3058  if (strLength1 != strLength2) {\r... */\n    tag_120:\n        /* \"Practice/passwordChecker.sol\":3075:3081  uint i */\n      0x00\n        /* \"Practice/passwordChecker.sol\":3070:3203  for (uint i = 0; i < strLength1; i++) {\r... */\n    tag_121:\n        /* \"Practice/passwordChecker.sol\":3091:3101  strLength1 */\n      dup3\n        /* \"Practice/passwordChecker.sol\":3087:3088  i */\n      dup2\n        /* \"Practice/passwordChecker.sol\":3087:3101  i < strLength1 */\n      lt\n        /* \"Practice/passwordChecker.sol\":3070:3203  for (uint i = 0; i < strLength1; i++) {\r... */\n      iszero\n      tag_122\n      jumpi\n        /* \"Practice/passwordChecker.sol\":3139:3144  bStr2 */\n      dup4\n        /* \"Practice/passwordChecker.sol\":3145:3146  i */\n      dup2\n        /* \"Practice/passwordChecker.sol\":3139:3147  bStr2[i] */\n      dup2\n      mload\n      dup2\n      lt\n      tag_124\n      jumpi\n      mstore(0x00, 0x4e487b7100000000000000000000000000000000000000000000000000000000)\n      mstore(0x04, 0x32)\n      revert(0x00, 0x24)\n    tag_124:\n      0x20\n      add\n      add\n      mload\n      0xf8\n      shr\n      0xf8\n      shl\n        /* \"Practice/passwordChecker.sol\":3127:3147  bStr1[i] != bStr2[i] */\n      not(0xffffffffffffffffffffffffffffffffffffffffffffffffffffffffffffff)\n      and\n        /* \"Practice/passwordChecker.sol\":3127:3132  bStr1 */\n      dup6\n        /* \"Practice/passwordChecker.sol\":3133:3134  i */\n      dup3\n        /* \"Practice/passwordChecker.sol\":3127:3135  bStr1[i] */\n      dup2\n      mload\n      dup2\n      lt\n      tag_125\n      jumpi\n      mstore(0x00, 0x4e487b7100000000000000000000000000000000000000000000000000000000)\n      mstore(0x04, 0x32)\n      revert(0x00, 0x24)\n    tag_125:\n      0x20\n      add\n      add\n      mload\n      0xf8\n      shr\n      0xf8\n      shl\n        /* \"Practice/passwordChecker.sol\":3127:3147  bStr1[i] != bStr2[i] */\n      not(0xffffffffffffffffffffffffffffffffffffffffffffffffffffffffffffff)\n      and\n      eq\n        /* \"Practice/passwordChecker.sol\":3123:3196  if (bStr1[i] != bStr2[i]) {\r... */\n      tag_126\n      jumpi\n        /* \"Practice/passwordChecker.sol\":3175:3180  false */\n      0x00\n        /* \"Practice/passwordChecker.sol\":3168:3180  return false */\n      swap6\n      pop\n      pop\n      pop\n      pop\n      pop\n      pop\n      jump(tag_119)\n        /* \"Practice/passwordChecker.sol\":3123:3196  if (bStr1[i] != bStr2[i]) {\r... */\n    tag_126:\n        /* \"Practice/passwordChecker.sol\":3103:3106  i++ */\n      dup1\n      dup1\n      tag_127\n      swap1\n      tag_84\n      jump\t// in\n    tag_127:\n      swap2\n      pop\n      pop\n        /* \"Practice/passwordChecker.sol\":3070:3203  for (uint i = 0; i < strLength1; i++) {\r... */\n      jump(tag_121)\n    tag_122:\n      pop\n        /* \"Practice/passwordChecker.sol\":3216:3220  true */\n      0x01\n        /* \"Practice/passwordChecker.sol\":3209:3220  return true */\n      swap5\n      pop\n      pop\n      pop\n      pop\n      pop\n        /* \"Practice/passwordChecker.sol\":2750:3224  function compareString(string memory a, string memory b) public pure returns(bool){\r... */\n    tag_119:\n      swap3\n      swap2\n      pop\n      pop\n      jump\t// out\n        /* \"Practice/passwordChecker.sol\":134:367  function checkPassword(string memory input) public view returns(string memory){\r... */\n    tag_46:\n        /* \"Practice/passwordChecker.sol\":198:211  string memory */\n      0x60\n        /* \"Practice/passwordChecker.sol\":267:275  password */\n      0x00\n        /* \"Practice/passwordChecker.sol\":251:277  keccak256(bytes(password)) */\n      mload(0x40)\n      tag_129\n      swap2\n      swap1\n      tag_130\n      jump\t// in\n    tag_129:\n      mload(0x40)\n      dup1\n      swap2\n      sub\n      swap1\n      keccak256\n        /* \"Practice/passwordChecker.sol\":242:247  input */\n      dup3\n        /* \"Practice/passwordChecker.sol\":226:249  keccak256(bytes(input)) */\n      dup1\n      mload\n      swap1\n      0x20\n      add\n      keccak256\n        /* \"Practice/passwordChecker.sol\":226:277  keccak256(bytes(input))==keccak256(bytes(password)) */\n      eq\n        /* \"Practice/passwordChecker.sol\":223:327  if(keccak256(bytes(input))==keccak256(bytes(password))){\r... */\n      iszero\n      tag_131\n      jumpi\n        /* \"Practice/passwordChecker.sol\":292:315  return \"Access Granted\" */\n      mload(0x40)\n      dup1\n      0x40\n      add\n      0x40\n      mstore\n      dup1\n      0x0e\n      dup2\n      mstore\n      0x20\n      add\n      0x416363657373204772616e746564000000000000000000000000000000000000\n      dup2\n      mstore\n      pop\n      swap1\n      pop\n      jump(tag_128)\n        /* \"Practice/passwordChecker.sol\":223:327  if(keccak256(bytes(input))==keccak256(bytes(password))){\r... */\n    tag_131:\n        /* \"Practice/passwordChecker.sol\":337:359  return \"Access Denied\" */\n      mload(0x40)\n      dup1\n      0x40\n      add\n      0x40\n      mstore\n      dup1\n      0x0d\n      dup2\n      mstore\n      0x20\n      add\n      0x4163636573732044656e69656400000000000000000000000000000000000000\n      dup2\n      mstore\n      pop\n      swap1\n      pop\n        /* \"Practice/passwordChecker.sol\":134:367  function checkPassword(string memory input) public view returns(string memory){\r... */\n    tag_128:\n      swap2\n      swap1\n      pop\n      jump\t// out\n        /* \"Practice/passwordChecker.sol\":375:496  function password_in_bytes(string memory _input) public pure returns(bytes memory){\r... */\n    tag_50:\n        /* \"Practice/passwordChecker.sol\":444:456  bytes memory */\n      0x60\n        /* \"Practice/passwordChecker.sol\":481:487  _input */\n      dup2\n        /* \"Practice/passwordChecker.sol\":468:488  return bytes(_input) */\n      swap1\n      pop\n        /* \"Practice/passwordChecker.sol\":375:496  function password_in_bytes(string memory _input) public pure returns(bytes memory){\r... */\n      swap2\n      swap1\n      pop\n      jump\t// out\n        /* \"Practice/passwordChecker.sol\":870:988  function bytestoString(bytes memory _input) public pure returns(string memory){\r... */\n    tag_55:\n        /* \"Practice/passwordChecker.sol\":934:947  string memory */\n      0x60\n        /* \"Practice/passwordChecker.sol\":973:979  _input */\n      dup2\n        /* \"Practice/passwordChecker.sol\":959:980  return string(_input) */\n      swap1\n      pop\n        /* \"Practice/passwordChecker.sol\":870:988  function bytestoString(bytes memory _input) public pure returns(string memory){\r... */\n      swap2\n      swap1\n      pop\n      jump\t// out\n        /* \"Practice/passwordChecker.sol\":673:862  function getFirstByte(string memory _input) public pure returns(bytes1){\r... */\n    tag_59:\n        /* \"Practice/passwordChecker.sol\":737:743  bytes1 */\n      0x00\n        /* \"Practice/passwordChecker.sol\":755:773  bytes memory Bytes */\n      dup1\n        /* \"Practice/passwordChecker.sol\":782:788  _input */\n      dup3\n        /* \"Practice/passwordChecker.sol\":755:789  bytes memory Bytes = bytes(_input) */\n      swap1\n      pop\n        /* \"Practice/passwordChecker.sol\":800:816  bytes1 firstByte */\n      0x00\n        /* \"Practice/passwordChecker.sol\":819:824  Bytes */\n      dup2\n        /* \"Practice/passwordChecker.sol\":825:826  5 */\n      0x05\n        /* \"Practice/passwordChecker.sol\":819:827  Bytes[5] */\n      dup2\n      mload\n      dup2\n      lt\n      tag_135\n      jumpi\n      mstore(0x00, 0x4e487b7100000000000000000000000000000000000000000000000000000000)\n      mstore(0x04, 0x32)\n      revert(0x00, 0x24)\n    tag_135:\n      0x20\n      add\n      add\n      mload\n      0xf8\n      shr\n      0xf8\n      shl\n        /* \"Practice/passwordChecker.sol\":800:827  bytes1 firstByte = Bytes[5] */\n      swap1\n      pop\n        /* \"Practice/passwordChecker.sol\":845:854  firstByte */\n      dup1\n        /* \"Practice/passwordChecker.sol\":838:854  return firstByte */\n      swap3\n      pop\n      pop\n      pop\n        /* \"Practice/passwordChecker.sol\":673:862  function getFirstByte(string memory _input) public pure returns(bytes1){\r... */\n      swap2\n      swap1\n      pop\n      jump\t// out\n        /* \"Practice/passwordChecker.sol\":2196:2746  function countWords(string memory _input) public pure returns(uint){\r... */\n    tag_64:\n        /* \"Practice/passwordChecker.sol\":2258:2262  uint */\n      0x00\n        /* \"Practice/passwordChecker.sol\":2274:2291  bytes memory bStr */\n      dup1\n        /* \"Practice/passwordChecker.sol\":2300:2306  _input */\n      dup3\n        /* \"Practice/passwordChecker.sol\":2274:2307  bytes memory bStr = bytes(_input) */\n      swap1\n      pop\n        /* \"Practice/passwordChecker.sol\":2318:2332  uint strLength */\n      0x00\n        /* \"Practice/passwordChecker.sol\":2335:2339  bStr */\n      dup2\n        /* \"Practice/passwordChecker.sol\":2335:2346  bStr.length */\n      mload\n        /* \"Practice/passwordChecker.sol\":2318:2346  uint strLength = bStr.length */\n      swap1\n      pop\n        /* \"Practice/passwordChecker.sol\":2376:2377  0 */\n      0x00\n        /* \"Practice/passwordChecker.sol\":2363:2372  strLength */\n      dup2\n        /* \"Practice/passwordChecker.sol\":2363:2377  strLength == 0 */\n      eq\n        /* \"Practice/passwordChecker.sol\":2359:2414  if (strLength == 0) {\r... */\n      iszero\n      tag_137\n      jumpi\n        /* \"Practice/passwordChecker.sol\":2401:2402  0 */\n      0x00\n        /* \"Practice/passwordChecker.sol\":2394:2402  return 0 */\n      swap3\n      pop\n      pop\n      pop\n      jump(tag_136)\n        /* \"Practice/passwordChecker.sol\":2359:2414  if (strLength == 0) {\r... */\n    tag_137:\n        /* \"Practice/passwordChecker.sol\":2426:2436  uint count */\n      0x00\n        /* \"Practice/passwordChecker.sol\":2451:2462  bool inWord */\n      dup1\n        /* \"Practice/passwordChecker.sol\":2488:2494  uint i */\n      0x00\n        /* \"Practice/passwordChecker.sol\":2483:2724  for (uint i = 0; i < strLength; i++) {\r... */\n    tag_138:\n        /* \"Practice/passwordChecker.sol\":2504:2513  strLength */\n      dup4\n        /* \"Practice/passwordChecker.sol\":2500:2501  i */\n      dup2\n        /* \"Practice/passwordChecker.sol\":2500:2513  i < strLength */\n      lt\n        /* \"Practice/passwordChecker.sol\":2483:2724  for (uint i = 0; i < strLength; i++) {\r... */\n      iszero\n      tag_139\n      jumpi\n        /* \"Practice/passwordChecker.sol\":2550:2554  0x20 */\n      0x20\n        /* \"Practice/passwordChecker.sol\":2539:2554  bStr[i] != 0x20 */\n      0xf8\n      shl\n        /* \"Practice/passwordChecker.sol\":2539:2543  bStr */\n      dup6\n        /* \"Practice/passwordChecker.sol\":2544:2545  i */\n      dup3\n        /* \"Practice/passwordChecker.sol\":2539:2546  bStr[i] */\n      dup2\n      mload\n      dup2\n      lt\n      tag_141\n      jumpi\n      mstore(0x00, 0x4e487b7100000000000000000000000000000000000000000000000000000000)\n      mstore(0x04, 0x32)\n      revert(0x00, 0x24)\n    tag_141:\n      0x20\n      add\n      add\n      mload\n      0xf8\n      shr\n      0xf8\n      shl\n        /* \"Practice/passwordChecker.sol\":2539:2554  bStr[i] != 0x20 */\n      not(0xffffffffffffffffffffffffffffffffffffffffffffffffffffffffffffff)\n      and\n      eq\n      iszero\n        /* \"Practice/passwordChecker.sol\":2539:2565  bStr[i] != 0x20 && !inWord */\n      dup1\n      iszero\n      tag_142\n      jumpi\n      pop\n        /* \"Practice/passwordChecker.sol\":2559:2565  inWord */\n      dup2\n        /* \"Practice/passwordChecker.sol\":2558:2565  !inWord */\n      iszero\n        /* \"Practice/passwordChecker.sol\":2539:2565  bStr[i] != 0x20 && !inWord */\n    tag_142:\n        /* \"Practice/passwordChecker.sol\":2535:2717  if (bStr[i] != 0x20 && !inWord) {\r... */\n      iszero\n      tag_143\n      jumpi\n        /* \"Practice/passwordChecker.sol\":2595:2599  true */\n      0x01\n        /* \"Practice/passwordChecker.sol\":2586:2599  inWord = true */\n      swap2\n      pop\n        /* \"Practice/passwordChecker.sol\":2618:2625  count++ */\n      dup3\n      dup1\n      tag_144\n      swap1\n      tag_84\n      jump\t// in\n    tag_144:\n      swap4\n      pop\n      pop\n        /* \"Practice/passwordChecker.sol\":2535:2717  if (bStr[i] != 0x20 && !inWord) {\r... */\n      jump(tag_145)\n    tag_143:\n        /* \"Practice/passwordChecker.sol\":2662:2666  0x20 */\n      0x20\n        /* \"Practice/passwordChecker.sol\":2651:2666  bStr[i] == 0x20 */\n      0xf8\n      shl\n        /* \"Practice/passwordChecker.sol\":2651:2655  bStr */\n      dup6\n        /* \"Practice/passwordChecker.sol\":2656:2657  i */\n      dup3\n        /* \"Practice/passwordChecker.sol\":2651:2658  bStr[i] */\n      dup2\n      mload\n      dup2\n      lt\n      tag_146\n      jumpi\n      mstore(0x00, 0x4e487b7100000000000000000000000000000000000000000000000000000000)\n      mstore(0x04, 0x32)\n      revert(0x00, 0x24)\n    tag_146:\n      0x20\n      add\n      add\n      mload\n      0xf8\n      shr\n      0xf8\n      shl\n        /* \"Practice/passwordChecker.sol\":2651:2666  bStr[i] == 0x20 */\n      not(0xffffffffffffffffffffffffffffffffffffffffffffffffffffffffffffff)\n      and\n      eq\n        /* \"Practice/passwordChecker.sol\":2647:2717  if (bStr[i] == 0x20) {\r... */\n      iszero\n      tag_147\n      jumpi\n        /* \"Practice/passwordChecker.sol\":2696:2701  false */\n      0x00\n        /* \"Practice/passwordChecker.sol\":2687:2701  inWord = false */\n      swap2\n      pop\n        /* \"Practice/passwordChecker.sol\":2647:2717  if (bStr[i] == 0x20) {\r... */\n    tag_147:\n        /* \"Practice/passwordChecker.sol\":2535:2717  if (bStr[i] != 0x20 && !inWord) {\r... */\n    tag_145:\n        /* \"Practice/passwordChecker.sol\":2515:2518  i++ */\n      dup1\n      dup1\n      tag_148\n      swap1\n      tag_84\n      jump\t// in\n    tag_148:\n      swap2\n      pop\n      pop\n        /* \"Practice/passwordChecker.sol\":2483:2724  for (uint i = 0; i < strLength; i++) {\r... */\n      jump(tag_138)\n    tag_139:\n      pop\n        /* \"Practice/passwordChecker.sol\":2737:2742  count */\n      dup2\n        /* \"Practice/passwordChecker.sol\":2730:2742  return count */\n      swap5\n      pop\n      pop\n      pop\n      pop\n      pop\n        /* \"Practice/passwordChecker.sol\":2196:2746  function countWords(string memory _input) public pure returns(uint){\r... */\n    tag_136:\n      swap2\n      swap1\n      pop\n      jump\t// out\n        /* \"#utility.yul\":7:349   */\n    tag_150:\n      0x00\n        /* \"#utility.yul\":109:173   */\n      tag_152\n        /* \"#utility.yul\":124:172   */\n      tag_153\n        /* \"#utility.yul\":165:171   */\n      dup5\n        /* \"#utility.yul\":124:172   */\n      tag_154\n      jump\t// in\n    tag_153:\n        /* \"#utility.yul\":109:173   */\n      tag_155\n      jump\t// in\n    tag_152:\n        /* \"#utility.yul\":100:173   */\n      swap1\n      pop\n        /* \"#utility.yul\":196:202   */\n      dup3\n        /* \"#utility.yul\":189:194   */\n      dup2\n        /* \"#utility.yul\":182:203   */\n      mstore\n        /* \"#utility.yul\":234:238   */\n      0x20\n        /* \"#utility.yul\":227:232   */\n      dup2\n        /* \"#utility.yul\":223:239   */\n      add\n        /* \"#utility.yul\":272:275   */\n      dup5\n        /* \"#utility.yul\":263:269   */\n      dup5\n        /* \"#utility.yul\":258:261   */\n      dup5\n        /* \"#utility.yul\":254:270   */\n      add\n        /* \"#utility.yul\":251:276   */\n      gt\n        /* \"#utility.yul\":248:250   */\n      iszero\n      tag_156\n      jumpi\n        /* \"#utility.yul\":289:290   */\n      0x00\n        /* \"#utility.yul\":286:287   */\n      dup1\n        /* \"#utility.yul\":279:291   */\n      revert\n        /* \"#utility.yul\":248:250   */\n    tag_156:\n        /* \"#utility.yul\":302:343   */\n      tag_157\n        /* \"#utility.yul\":336:342   */\n      dup5\n        /* \"#utility.yul\":331:334   */\n      dup3\n        /* \"#utility.yul\":326:329   */\n      dup6\n        /* \"#utility.yul\":302:343   */\n      tag_158\n      jump\t// in\n    tag_157:\n        /* \"#utility.yul\":90:349   */\n      pop\n      swap4\n      swap3\n      pop\n      pop\n      pop\n      jump\t// out\n        /* \"#utility.yul\":355:699   */\n    tag_159:\n      0x00\n        /* \"#utility.yul\":458:523   */\n      tag_161\n        /* \"#utility.yul\":473:522   */\n      tag_162\n        /* \"#utility.yul\":515:521   */\n      dup5\n        /* \"#utility.yul\":473:522   */\n      tag_163\n      jump\t// in\n    tag_162:\n        /* \"#utility.yul\":458:523   */\n      tag_155\n      jump\t// in\n    tag_161:\n        /* \"#utility.yul\":449:523   */\n      swap1\n      pop\n        /* \"#utility.yul\":546:552   */\n      dup3\n        /* \"#utility.yul\":539:544   */\n      dup2\n        /* \"#utility.yul\":532:553   */\n      mstore\n        /* \"#utility.yul\":584:588   */\n      0x20\n        /* \"#utility.yul\":577:582   */\n      dup2\n        /* \"#utility.yul\":573:589   */\n      add\n        /* \"#utility.yul\":622:625   */\n      dup5\n        /* \"#utility.yul\":613:619   */\n      dup5\n        /* \"#utility.yul\":608:611   */\n      dup5\n        /* \"#utility.yul\":604:620   */\n      add\n        /* \"#utility.yul\":601:626   */\n      gt\n        /* \"#utility.yul\":598:600   */\n      iszero\n      tag_164\n      jumpi\n        /* \"#utility.yul\":639:640   */\n      0x00\n        /* \"#utility.yul\":636:637   */\n      dup1\n        /* \"#utility.yul\":629:641   */\n      revert\n        /* \"#utility.yul\":598:600   */\n    tag_164:\n        /* \"#utility.yul\":652:693   */\n      tag_165\n        /* \"#utility.yul\":686:692   */\n      dup5\n        /* \"#utility.yul\":681:684   */\n      dup3\n        /* \"#utility.yul\":676:679   */\n      dup6\n        /* \"#utility.yul\":652:693   */\n      tag_158\n      jump\t// in\n    tag_165:\n        /* \"#utility.yul\":439:699   */\n      pop\n      swap4\n      swap3\n      pop\n      pop\n      pop\n      jump\t// out\n        /* \"#utility.yul\":718:989   */\n    tag_166:\n      0x00\n        /* \"#utility.yul\":822:825   */\n      dup3\n        /* \"#utility.yul\":815:819   */\n      0x1f\n        /* \"#utility.yul\":807:813   */\n      dup4\n        /* \"#utility.yul\":803:820   */\n      add\n        /* \"#utility.yul\":799:826   */\n      slt\n        /* \"#utility.yul\":789:791   */\n      tag_168\n      jumpi\n        /* \"#utility.yul\":840:841   */\n      0x00\n        /* \"#utility.yul\":837:838   */\n      dup1\n        /* \"#utility.yul\":830:842   */\n      revert\n        /* \"#utility.yul\":789:791   */\n    tag_168:\n        /* \"#utility.yul\":880:886   */\n      dup2\n        /* \"#utility.yul\":867:887   */\n      calldataload\n        /* \"#utility.yul\":905:983   */\n      tag_169\n        /* \"#utility.yul\":979:982   */\n      dup5\n        /* \"#utility.yul\":971:977   */\n      dup3\n        /* \"#utility.yul\":964:968   */\n      0x20\n        /* \"#utility.yul\":956:962   */\n      dup7\n        /* \"#utility.yul\":952:969   */\n      add\n        /* \"#utility.yul\":905:983   */\n      tag_150\n      jump\t// in\n    tag_169:\n        /* \"#utility.yul\":896:983   */\n      swap2\n      pop\n        /* \"#utility.yul\":779:989   */\n      pop\n      swap3\n      swap2\n      pop\n      pop\n      jump\t// out\n        /* \"#utility.yul\":1009:1282   */\n    tag_170:\n      0x00\n        /* \"#utility.yul\":1114:1117   */\n      dup3\n        /* \"#utility.yul\":1107:1111   */\n      0x1f\n        /* \"#utility.yul\":1099:1105   */\n      dup4\n        /* \"#utility.yul\":1095:1112   */\n      add\n        /* \"#utility.yul\":1091:1118   */\n      slt\n        /* \"#utility.yul\":1081:1083   */\n      tag_172\n      jumpi\n        /* \"#utility.yul\":1132:1133   */\n      0x00\n        /* \"#utility.yul\":1129:1130   */\n      dup1\n        /* \"#utility.yul\":1122:1134   */\n      revert\n        /* \"#utility.yul\":1081:1083   */\n    tag_172:\n        /* \"#utility.yul\":1172:1178   */\n      dup2\n        /* \"#utility.yul\":1159:1179   */\n      calldataload\n        /* \"#utility.yul\":1197:1276   */\n      tag_173\n        /* \"#utility.yul\":1272:1275   */\n      dup5\n        /* \"#utility.yul\":1264:1270   */\n      dup3\n        /* \"#utility.yul\":1257:1261   */\n      0x20\n        /* \"#utility.yul\":1249:1255   */\n      dup7\n        /* \"#utility.yul\":1245:1262   */\n      add\n        /* \"#utility.yul\":1197:1276   */\n      tag_159\n      jump\t// in\n    tag_173:\n        /* \"#utility.yul\":1188:1276   */\n      swap2\n      pop\n        /* \"#utility.yul\":1071:1282   */\n      pop\n      swap3\n      swap2\n      pop\n      pop\n      jump\t// out\n        /* \"#utility.yul\":1288:1661   */\n    tag_54:\n      0x00\n        /* \"#utility.yul\":1405:1407   */\n      0x20\n        /* \"#utility.yul\":1393:1402   */\n      dup3\n        /* \"#utility.yul\":1384:1391   */\n      dup5\n        /* \"#utility.yul\":1380:1403   */\n      sub\n        /* \"#utility.yul\":1376:1408   */\n      slt\n        /* \"#utility.yul\":1373:1375   */\n      iszero\n      tag_175\n      jumpi\n        /* \"#utility.yul\":1421:1422   */\n      0x00\n        /* \"#utility.yul\":1418:1419   */\n      dup1\n        /* \"#utility.yul\":1411:1423   */\n      revert\n        /* \"#utility.yul\":1373:1375   */\n    tag_175:\n        /* \"#utility.yul\":1492:1493   */\n      0x00\n        /* \"#utility.yul\":1481:1490   */\n      dup3\n        /* \"#utility.yul\":1477:1494   */\n      add\n        /* \"#utility.yul\":1464:1495   */\n      calldataload\n        /* \"#utility.yul\":1522:1540   */\n      0xffffffffffffffff\n        /* \"#utility.yul\":1514:1520   */\n      dup2\n        /* \"#utility.yul\":1511:1541   */\n      gt\n        /* \"#utility.yul\":1508:1510   */\n      iszero\n      tag_176\n      jumpi\n        /* \"#utility.yul\":1554:1555   */\n      0x00\n        /* \"#utility.yul\":1551:1552   */\n      dup1\n        /* \"#utility.yul\":1544:1556   */\n      revert\n        /* \"#utility.yul\":1508:1510   */\n    tag_176:\n        /* \"#utility.yul\":1582:1644   */\n      tag_177\n        /* \"#utility.yul\":1636:1643   */\n      dup5\n        /* \"#utility.yul\":1627:1633   */\n      dup3\n        /* \"#utility.yul\":1616:1625   */\n      dup6\n        /* \"#utility.yul\":1612:1634   */\n      add\n        /* \"#utility.yul\":1582:1644   */\n      tag_166\n      jump\t// in\n    tag_177:\n        /* \"#utility.yul\":1572:1644   */\n      swap2\n      pop\n        /* \"#utility.yul\":1435:1654   */\n      pop\n        /* \"#utility.yul\":1363:1661   */\n      swap3\n      swap2\n      pop\n      pop\n      jump\t// out\n        /* \"#utility.yul\":1667:2042   */\n    tag_17:\n      0x00\n        /* \"#utility.yul\":1785:1787   */\n      0x20\n        /* \"#utility.yul\":1773:1782   */\n      dup3\n        /* \"#utility.yul\":1764:1771   */\n      dup5\n        /* \"#utility.yul\":1760:1783   */\n      sub\n        /* \"#utility.yul\":1756:1788   */\n      slt\n        /* \"#utility.yul\":1753:1755   */\n      iszero\n      tag_179\n      jumpi\n        /* \"#utility.yul\":1801:1802   */\n      0x00\n        /* \"#utility.yul\":1798:1799   */\n      dup1\n        /* \"#utility.yul\":1791:1803   */\n      revert\n        /* \"#utility.yul\":1753:1755   */\n    tag_179:\n        /* \"#utility.yul\":1872:1873   */\n      0x00\n        /* \"#utility.yul\":1861:1870   */\n      dup3\n        /* \"#utility.yul\":1857:1874   */\n      add\n        /* \"#utility.yul\":1844:1875   */\n      calldataload\n        /* \"#utility.yul\":1902:1920   */\n      0xffffffffffffffff\n        /* \"#utility.yul\":1894:1900   */\n      dup2\n        /* \"#utility.yul\":1891:1921   */\n      gt\n        /* \"#utility.yul\":1888:1890   */\n      iszero\n      tag_180\n      jumpi\n        /* \"#utility.yul\":1934:1935   */\n      0x00\n        /* \"#utility.yul\":1931:1932   */\n      dup1\n        /* \"#utility.yul\":1924:1936   */\n      revert\n        /* \"#utility.yul\":1888:1890   */\n    tag_180:\n        /* \"#utility.yul\":1962:2025   */\n      tag_181\n        /* \"#utility.yul\":2017:2024   */\n      dup5\n        /* \"#utility.yul\":2008:2014   */\n      dup3\n        /* \"#utility.yul\":1997:2006   */\n      dup6\n        /* \"#utility.yul\":1993:2015   */\n      add\n        /* \"#utility.yul\":1962:2025   */\n      tag_170\n      jump\t// in\n    tag_181:\n        /* \"#utility.yul\":1952:2025   */\n      swap2\n      pop\n        /* \"#utility.yul\":1815:2035   */\n      pop\n        /* \"#utility.yul\":1743:2042   */\n      swap3\n      swap2\n      pop\n      pop\n      jump\t// out\n        /* \"#utility.yul\":2048:2681   */\n    tag_40:\n      0x00\n      dup1\n        /* \"#utility.yul\":2193:2195   */\n      0x40\n        /* \"#utility.yul\":2181:2190   */\n      dup4\n        /* \"#utility.yul\":2172:2179   */\n      dup6\n        /* \"#utility.yul\":2168:2191   */\n      sub\n        /* \"#utility.yul\":2164:2196   */\n      slt\n        /* \"#utility.yul\":2161:2163   */\n      iszero\n      tag_183\n      jumpi\n        /* \"#utility.yul\":2209:2210   */\n      0x00\n        /* \"#utility.yul\":2206:2207   */\n      dup1\n        /* \"#utility.yul\":2199:2211   */\n      revert\n        /* \"#utility.yul\":2161:2163   */\n    tag_183:\n        /* \"#utility.yul\":2280:2281   */\n      0x00\n        /* \"#utility.yul\":2269:2278   */\n      dup4\n        /* \"#utility.yul\":2265:2282   */\n      add\n        /* \"#utility.yul\":2252:2283   */\n      calldataload\n        /* \"#utility.yul\":2310:2328   */\n      0xffffffffffffffff\n        /* \"#utility.yul\":2302:2308   */\n      dup2\n        /* \"#utility.yul\":2299:2329   */\n      gt\n        /* \"#utility.yul\":2296:2298   */\n      iszero\n      tag_184\n      jumpi\n        /* \"#utility.yul\":2342:2343   */\n      0x00\n        /* \"#utility.yul\":2339:2340   */\n      dup1\n        /* \"#utility.yul\":2332:2344   */\n      revert\n        /* \"#utility.yul\":2296:2298   */\n    tag_184:\n        /* \"#utility.yul\":2370:2433   */\n      tag_185\n        /* \"#utility.yul\":2425:2432   */\n      dup6\n        /* \"#utility.yul\":2416:2422   */\n      dup3\n        /* \"#utility.yul\":2405:2414   */\n      dup7\n        /* \"#utility.yul\":2401:2423   */\n      add\n        /* \"#utility.yul\":2370:2433   */\n      tag_170\n      jump\t// in\n    tag_185:\n        /* \"#utility.yul\":2360:2433   */\n      swap3\n      pop\n        /* \"#utility.yul\":2223:2443   */\n      pop\n        /* \"#utility.yul\":2510:2512   */\n      0x20\n        /* \"#utility.yul\":2499:2508   */\n      dup4\n        /* \"#utility.yul\":2495:2513   */\n      add\n        /* \"#utility.yul\":2482:2514   */\n      calldataload\n        /* \"#utility.yul\":2541:2559   */\n      0xffffffffffffffff\n        /* \"#utility.yul\":2533:2539   */\n      dup2\n        /* \"#utility.yul\":2530:2560   */\n      gt\n        /* \"#utility.yul\":2527:2529   */\n      iszero\n      tag_186\n      jumpi\n        /* \"#utility.yul\":2573:2574   */\n      0x00\n        /* \"#utility.yul\":2570:2571   */\n      dup1\n        /* \"#utility.yul\":2563:2575   */\n      revert\n        /* \"#utility.yul\":2527:2529   */\n    tag_186:\n        /* \"#utility.yul\":2601:2664   */\n      tag_187\n        /* \"#utility.yul\":2656:2663   */\n      dup6\n        /* \"#utility.yul\":2647:2653   */\n      dup3\n        /* \"#utility.yul\":2636:2645   */\n      dup7\n        /* \"#utility.yul\":2632:2654   */\n      add\n        /* \"#utility.yul\":2601:2664   */\n      tag_170\n      jump\t// in\n    tag_187:\n        /* \"#utility.yul\":2591:2664   */\n      swap2\n      pop\n        /* \"#utility.yul\":2453:2674   */\n      pop\n        /* \"#utility.yul\":2151:2681   */\n      swap3\n      pop\n      swap3\n      swap1\n      pop\n      jump\t// out\n        /* \"#utility.yul\":2687:2796   */\n    tag_188:\n        /* \"#utility.yul\":2768:2789   */\n      tag_190\n        /* \"#utility.yul\":2783:2788   */\n      dup2\n        /* \"#utility.yul\":2768:2789   */\n      tag_191\n      jump\t// in\n    tag_190:\n        /* \"#utility.yul\":2763:2766   */\n      dup3\n        /* \"#utility.yul\":2756:2790   */\n      mstore\n        /* \"#utility.yul\":2746:2796   */\n      pop\n      pop\n      jump\t// out\n        /* \"#utility.yul\":2802:2917   */\n    tag_192:\n        /* \"#utility.yul\":2887:2910   */\n      tag_194\n        /* \"#utility.yul\":2904:2909   */\n      dup2\n        /* \"#utility.yul\":2887:2910   */\n      tag_195\n      jump\t// in\n    tag_194:\n        /* \"#utility.yul\":2882:2885   */\n      dup3\n        /* \"#utility.yul\":2875:2911   */\n      mstore\n        /* \"#utility.yul\":2865:2917   */\n      pop\n      pop\n      jump\t// out\n        /* \"#utility.yul\":2923:3283   */\n    tag_196:\n      0x00\n        /* \"#utility.yul\":3037:3075   */\n      tag_198\n        /* \"#utility.yul\":3069:3074   */\n      dup3\n        /* \"#utility.yul\":3037:3075   */\n      tag_199\n      jump\t// in\n    tag_198:\n        /* \"#utility.yul\":3091:3161   */\n      tag_200\n        /* \"#utility.yul\":3154:3160   */\n      dup2\n        /* \"#utility.yul\":3149:3152   */\n      dup6\n        /* \"#utility.yul\":3091:3161   */\n      tag_201\n      jump\t// in\n    tag_200:\n        /* \"#utility.yul\":3084:3161   */\n      swap4\n      pop\n        /* \"#utility.yul\":3170:3222   */\n      tag_202\n        /* \"#utility.yul\":3215:3221   */\n      dup2\n        /* \"#utility.yul\":3210:3213   */\n      dup6\n        /* \"#utility.yul\":3203:3207   */\n      0x20\n        /* \"#utility.yul\":3196:3201   */\n      dup7\n        /* \"#utility.yul\":3192:3208   */\n      add\n        /* \"#utility.yul\":3170:3222   */\n      tag_203\n      jump\t// in\n    tag_202:\n        /* \"#utility.yul\":3247:3276   */\n      tag_204\n        /* \"#utility.yul\":3269:3275   */\n      dup2\n        /* \"#utility.yul\":3247:3276   */\n      tag_205\n      jump\t// in\n    tag_204:\n        /* \"#utility.yul\":3242:3245   */\n      dup5\n        /* \"#utility.yul\":3238:3277   */\n      add\n        /* \"#utility.yul\":3231:3277   */\n      swap2\n      pop\n        /* \"#utility.yul\":3013:3283   */\n      pop\n      swap3\n      swap2\n      pop\n      pop\n      jump\t// out\n        /* \"#utility.yul\":3289:3662   */\n    tag_206:\n      0x00\n        /* \"#utility.yul\":3421:3459   */\n      tag_208\n        /* \"#utility.yul\":3453:3458   */\n      dup3\n        /* \"#utility.yul\":3421:3459   */\n      tag_199\n      jump\t// in\n    tag_208:\n        /* \"#utility.yul\":3475:3563   */\n      tag_209\n        /* \"#utility.yul\":3556:3562   */\n      dup2\n        /* \"#utility.yul\":3551:3554   */\n      dup6\n        /* \"#utility.yul\":3475:3563   */\n      tag_210\n      jump\t// in\n    tag_209:\n        /* \"#utility.yul\":3468:3563   */\n      swap4\n      pop\n        /* \"#utility.yul\":3572:3624   */\n      tag_211\n        /* \"#utility.yul\":3617:3623   */\n      dup2\n        /* \"#utility.yul\":3612:3615   */\n      dup6\n        /* \"#utility.yul\":3605:3609   */\n      0x20\n        /* \"#utility.yul\":3598:3603   */\n      dup7\n        /* \"#utility.yul\":3594:3610   */\n      add\n        /* \"#utility.yul\":3572:3624   */\n      tag_203\n      jump\t// in\n    tag_211:\n        /* \"#utility.yul\":3649:3655   */\n      dup1\n        /* \"#utility.yul\":3644:3647   */\n      dup5\n        /* \"#utility.yul\":3640:3656   */\n      add\n        /* \"#utility.yul\":3633:3656   */\n      swap2\n      pop\n        /* \"#utility.yul\":3397:3662   */\n      pop\n      swap3\n      swap2\n      pop\n      pop\n      jump\t// out\n        /* \"#utility.yul\":3690:4539   */\n    tag_212:\n      0x00\n        /* \"#utility.yul\":3832:3837   */\n      dup2\n        /* \"#utility.yul\":3826:3838   */\n      sload\n        /* \"#utility.yul\":3861:3897   */\n      tag_214\n        /* \"#utility.yul\":3887:3896   */\n      dup2\n        /* \"#utility.yul\":3861:3897   */\n      tag_215\n      jump\t// in\n    tag_214:\n        /* \"#utility.yul\":3913:4001   */\n      tag_216\n        /* \"#utility.yul\":3994:4000   */\n      dup2\n        /* \"#utility.yul\":3989:3992   */\n      dup7\n        /* \"#utility.yul\":3913:4001   */\n      tag_210\n      jump\t// in\n    tag_216:\n        /* \"#utility.yul\":3906:4001   */\n      swap5\n      pop\n        /* \"#utility.yul\":4032:4033   */\n      0x01\n        /* \"#utility.yul\":4021:4030   */\n      dup3\n        /* \"#utility.yul\":4017:4034   */\n      and\n        /* \"#utility.yul\":4048:4049   */\n      0x00\n        /* \"#utility.yul\":4043:4180   */\n      dup2\n      eq\n      tag_218\n      jumpi\n        /* \"#utility.yul\":4194:4195   */\n      0x01\n        /* \"#utility.yul\":4189:4533   */\n      dup2\n      eq\n      tag_219\n      jumpi\n        /* \"#utility.yul\":4010:4533   */\n      jump(tag_217)\n        /* \"#utility.yul\":4043:4180   */\n    tag_218:\n        /* \"#utility.yul\":4127:4131   */\n      0xff\n        /* \"#utility.yul\":4123:4132   */\n      not\n        /* \"#utility.yul\":4112:4121   */\n      dup4\n        /* \"#utility.yul\":4108:4133   */\n      and\n        /* \"#utility.yul\":4103:4106   */\n      dup7\n        /* \"#utility.yul\":4096:4134   */\n      mstore\n        /* \"#utility.yul\":4163:4169   */\n      dup2\n        /* \"#utility.yul\":4158:4161   */\n      dup7\n        /* \"#utility.yul\":4154:4170   */\n      add\n        /* \"#utility.yul\":4147:4170   */\n      swap4\n      pop\n        /* \"#utility.yul\":4043:4180   */\n      jump(tag_217)\n        /* \"#utility.yul\":4189:4533   */\n    tag_219:\n        /* \"#utility.yul\":4256:4297   */\n      tag_220\n        /* \"#utility.yul\":4291:4296   */\n      dup6\n        /* \"#utility.yul\":4256:4297   */\n      tag_221\n      jump\t// in\n    tag_220:\n        /* \"#utility.yul\":4319:4320   */\n      0x00\n        /* \"#utility.yul\":4333:4487   */\n    tag_222:\n        /* \"#utility.yul\":4347:4353   */\n      dup4\n        /* \"#utility.yul\":4344:4345   */\n      dup2\n        /* \"#utility.yul\":4341:4354   */\n      lt\n        /* \"#utility.yul\":4333:4487   */\n      iszero\n      tag_224\n      jumpi\n        /* \"#utility.yul\":4421:4428   */\n      dup2\n        /* \"#utility.yul\":4415:4429   */\n      sload\n        /* \"#utility.yul\":4411:4412   */\n      dup2\n        /* \"#utility.yul\":4406:4409   */\n      dup10\n        /* \"#utility.yul\":4402:4413   */\n      add\n        /* \"#utility.yul\":4395:4430   */\n      mstore\n        /* \"#utility.yul\":4471:4472   */\n      0x01\n        /* \"#utility.yul\":4462:4469   */\n      dup3\n        /* \"#utility.yul\":4458:4473   */\n      add\n        /* \"#utility.yul\":4447:4473   */\n      swap2\n      pop\n        /* \"#utility.yul\":4369:4373   */\n      0x20\n        /* \"#utility.yul\":4366:4367   */\n      dup2\n        /* \"#utility.yul\":4362:4374   */\n      add\n        /* \"#utility.yul\":4357:4374   */\n      swap1\n      pop\n        /* \"#utility.yul\":4333:4487   */\n      jump(tag_222)\n    tag_224:\n        /* \"#utility.yul\":4516:4522   */\n      dup4\n        /* \"#utility.yul\":4511:4514   */\n      dup9\n        /* \"#utility.yul\":4507:4523   */\n      add\n        /* \"#utility.yul\":4500:4523   */\n      swap6\n      pop\n        /* \"#utility.yul\":4196:4533   */\n      pop\n      pop\n        /* \"#utility.yul\":4010:4533   */\n    tag_217:\n      pop\n        /* \"#utility.yul\":3799:4539   */\n      pop\n      pop\n      swap3\n      swap2\n      pop\n      pop\n      jump\t// out\n        /* \"#utility.yul\":4545:4909   */\n    tag_225:\n      0x00\n        /* \"#utility.yul\":4661:4700   */\n      tag_227\n        /* \"#utility.yul\":4694:4699   */\n      dup3\n        /* \"#utility.yul\":4661:4700   */\n      tag_228\n      jump\t// in\n    tag_227:\n        /* \"#utility.yul\":4716:4787   */\n      tag_229\n        /* \"#utility.yul\":4780:4786   */\n      dup2\n        /* \"#utility.yul\":4775:4778   */\n      dup6\n        /* \"#utility.yul\":4716:4787   */\n      tag_230\n      jump\t// in\n    tag_229:\n        /* \"#utility.yul\":4709:4787   */\n      swap4\n      pop\n        /* \"#utility.yul\":4796:4848   */\n      tag_231\n        /* \"#utility.yul\":4841:4847   */\n      dup2\n        /* \"#utility.yul\":4836:4839   */\n      dup6\n        /* \"#utility.yul\":4829:4833   */\n      0x20\n        /* \"#utility.yul\":4822:4827   */\n      dup7\n        /* \"#utility.yul\":4818:4834   */\n      add\n        /* \"#utility.yul\":4796:4848   */\n      tag_203\n      jump\t// in\n    tag_231:\n        /* \"#utility.yul\":4873:4902   */\n      tag_232\n        /* \"#utility.yul\":4895:4901   */\n      dup2\n        /* \"#utility.yul\":4873:4902   */\n      tag_205\n      jump\t// in\n    tag_232:\n        /* \"#utility.yul\":4868:4871   */\n      dup5\n        /* \"#utility.yul\":4864:4903   */\n      add\n        /* \"#utility.yul\":4857:4903   */\n      swap2\n      pop\n        /* \"#utility.yul\":4637:4909   */\n      pop\n      swap3\n      swap2\n      pop\n      pop\n      jump\t// out\n        /* \"#utility.yul\":4915:5033   */\n    tag_233:\n        /* \"#utility.yul\":5002:5026   */\n      tag_235\n        /* \"#utility.yul\":5020:5025   */\n      dup2\n        /* \"#utility.yul\":5002:5026   */\n      tag_236\n      jump\t// in\n    tag_235:\n        /* \"#utility.yul\":4997:5000   */\n      dup3\n        /* \"#utility.yul\":4990:5027   */\n      mstore\n        /* \"#utility.yul\":4980:5033   */\n      pop\n      pop\n      jump\t// out\n        /* \"#utility.yul\":5039:5466   */\n    tag_118:\n      0x00\n        /* \"#utility.yul\":5237:5330   */\n      tag_238\n        /* \"#utility.yul\":5326:5329   */\n      dup3\n        /* \"#utility.yul\":5317:5323   */\n      dup6\n        /* \"#utility.yul\":5237:5330   */\n      tag_206\n      jump\t// in\n    tag_238:\n        /* \"#utility.yul\":5230:5330   */\n      swap2\n      pop\n        /* \"#utility.yul\":5347:5440   */\n      tag_239\n        /* \"#utility.yul\":5436:5439   */\n      dup3\n        /* \"#utility.yul\":5427:5433   */\n      dup5\n        /* \"#utility.yul\":5347:5440   */\n      tag_206\n      jump\t// in\n    tag_239:\n        /* \"#utility.yul\":5340:5440   */\n      swap2\n      pop\n        /* \"#utility.yul\":5457:5460   */\n      dup2\n        /* \"#utility.yul\":5450:5460   */\n      swap1\n      pop\n        /* \"#utility.yul\":5219:5466   */\n      swap4\n      swap3\n      pop\n      pop\n      pop\n      jump\t// out\n        /* \"#utility.yul\":5472:5745   */\n    tag_130:\n      0x00\n        /* \"#utility.yul\":5625:5719   */\n      tag_241\n        /* \"#utility.yul\":5715:5718   */\n      dup3\n        /* \"#utility.yul\":5706:5712   */\n      dup5\n        /* \"#utility.yul\":5625:5719   */\n      tag_212\n      jump\t// in\n    tag_241:\n        /* \"#utility.yul\":5618:5719   */\n      swap2\n      pop\n        /* \"#utility.yul\":5736:5739   */\n      dup2\n        /* \"#utility.yul\":5729:5739   */\n      swap1\n      pop\n        /* \"#utility.yul\":5607:5745   */\n      swap3\n      swap2\n      pop\n      pop\n      jump\t// out\n        /* \"#utility.yul\":5751:5961   */\n    tag_43:\n      0x00\n        /* \"#utility.yul\":5876:5878   */\n      0x20\n        /* \"#utility.yul\":5865:5874   */\n      dup3\n        /* \"#utility.yul\":5861:5879   */\n      add\n        /* \"#utility.yul\":5853:5879   */\n      swap1\n      pop\n        /* \"#utility.yul\":5889:5954   */\n      tag_243\n        /* \"#utility.yul\":5951:5952   */\n      0x00\n        /* \"#utility.yul\":5940:5949   */\n      dup4\n        /* \"#utility.yul\":5936:5953   */\n      add\n        /* \"#utility.yul\":5927:5933   */\n      dup5\n        /* \"#utility.yul\":5889:5954   */\n      tag_188\n      jump\t// in\n    tag_243:\n        /* \"#utility.yul\":5843:5961   */\n      swap3\n      swap2\n      pop\n      pop\n      jump\t// out\n        /* \"#utility.yul\":5967:6185   */\n    tag_61:\n      0x00\n        /* \"#utility.yul\":6096:6098   */\n      0x20\n        /* \"#utility.yul\":6085:6094   */\n      dup3\n        /* \"#utility.yul\":6081:6099   */\n      add\n        /* \"#utility.yul\":6073:6099   */\n      swap1\n      pop\n        /* \"#utility.yul\":6109:6178   */\n      tag_245\n        /* \"#utility.yul\":6175:6176   */\n      0x00\n        /* \"#utility.yul\":6164:6173   */\n      dup4\n        /* \"#utility.yul\":6160:6177   */\n      add\n        /* \"#utility.yul\":6151:6157   */\n      dup5\n        /* \"#utility.yul\":6109:6178   */\n      tag_192\n      jump\t// in\n    tag_245:\n        /* \"#utility.yul\":6063:6185   */\n      swap3\n      swap2\n      pop\n      pop\n      jump\t// out\n        /* \"#utility.yul\":6191:6500   */\n    tag_37:\n      0x00\n        /* \"#utility.yul\":6340:6342   */\n      0x20\n        /* \"#utility.yul\":6329:6338   */\n      dup3\n        /* \"#utility.yul\":6325:6343   */\n      add\n        /* \"#utility.yul\":6317:6343   */\n      swap1\n      pop\n        /* \"#utility.yul\":6389:6398   */\n      dup2\n        /* \"#utility.yul\":6383:6387   */\n      dup2\n        /* \"#utility.yul\":6379:6399   */\n      sub\n        /* \"#utility.yul\":6375:6376   */\n      0x00\n        /* \"#utility.yul\":6364:6373   */\n      dup4\n        /* \"#utility.yul\":6360:6377   */\n      add\n        /* \"#utility.yul\":6353:6400   */\n      mstore\n        /* \"#utility.yul\":6417:6493   */\n      tag_247\n        /* \"#utility.yul\":6488:6492   */\n      dup2\n        /* \"#utility.yul\":6479:6485   */\n      dup5\n        /* \"#utility.yul\":6417:6493   */\n      tag_196\n      jump\t// in\n    tag_247:\n        /* \"#utility.yul\":6409:6493   */\n      swap1\n      pop\n        /* \"#utility.yul\":6307:6500   */\n      swap3\n      swap2\n      pop\n      pop\n      jump\t// out\n        /* \"#utility.yul\":6506:6819   */\n    tag_20:\n      0x00\n        /* \"#utility.yul\":6657:6659   */\n      0x20\n        /* \"#utility.yul\":6646:6655   */\n      dup3\n        /* \"#utility.yul\":6642:6660   */\n      add\n        /* \"#utility.yul\":6634:6660   */\n      swap1\n      pop\n        /* \"#utility.yul\":6706:6715   */\n      dup2\n        /* \"#utility.yul\":6700:6704   */\n      dup2\n        /* \"#utility.yul\":6696:6716   */\n      sub\n        /* \"#utility.yul\":6692:6693   */\n      0x00\n        /* \"#utility.yul\":6681:6690   */\n      dup4\n        /* \"#utility.yul\":6677:6694   */\n      add\n        /* \"#utility.yul\":6670:6717   */\n      mstore\n        /* \"#utility.yul\":6734:6812   */\n      tag_249\n        /* \"#utility.yul\":6807:6811   */\n      dup2\n        /* \"#utility.yul\":6798:6804   */\n      dup5\n        /* \"#utility.yul\":6734:6812   */\n      tag_225\n      jump\t// in\n    tag_249:\n        /* \"#utility.yul\":6726:6812   */\n      swap1\n      pop\n        /* \"#utility.yul\":6624:6819   */\n      swap3\n      swap2\n      pop\n      pop\n      jump\t// out\n        /* \"#utility.yul\":6825:7047   */\n    tag_25:\n      0x00\n        /* \"#utility.yul\":6956:6958   */\n      0x20\n        /* \"#utility.yul\":6945:6954   */\n      dup3\n        /* \"#utility.yul\":6941:6959   */\n      add\n        /* \"#utility.yul\":6933:6959   */\n      swap1\n      pop\n        /* \"#utility.yul\":6969:7040   */\n      tag_251\n        /* \"#utility.yul\":7037:7038   */\n      0x00\n        /* \"#utility.yul\":7026:7035   */\n      dup4\n        /* \"#utility.yul\":7022:7039   */\n      add\n        /* \"#utility.yul\":7013:7019   */\n      dup5\n        /* \"#utility.yul\":6969:7040   */\n      tag_233\n      jump\t// in\n    tag_251:\n        /* \"#utility.yul\":6923:7047   */\n      swap3\n      swap2\n      pop\n      pop\n      jump\t// out\n        /* \"#utility.yul\":7053:7336   */\n    tag_155:\n      0x00\n        /* \"#utility.yul\":7119:7121   */\n      0x40\n        /* \"#utility.yul\":7113:7122   */\n      mload\n        /* \"#utility.yul\":7103:7122   */\n      swap1\n      pop\n        /* \"#utility.yul\":7161:7165   */\n      dup2\n        /* \"#utility.yul\":7153:7159   */\n      dup2\n        /* \"#utility.yul\":7149:7166   */\n      add\n        /* \"#utility.yul\":7268:7274   */\n      dup2\n        /* \"#utility.yul\":7256:7266   */\n      dup2\n        /* \"#utility.yul\":7253:7275   */\n      lt\n        /* \"#utility.yul\":7232:7250   */\n      0xffffffffffffffff\n        /* \"#utility.yul\":7220:7230   */\n      dup3\n        /* \"#utility.yul\":7217:7251   */\n      gt\n        /* \"#utility.yul\":7214:7276   */\n      or\n        /* \"#utility.yul\":7211:7213   */\n      iszero\n      tag_253\n      jumpi\n        /* \"#utility.yul\":7279:7297   */\n      tag_254\n      tag_255\n      jump\t// in\n    tag_254:\n        /* \"#utility.yul\":7211:7213   */\n    tag_253:\n        /* \"#utility.yul\":7319:7329   */\n      dup1\n        /* \"#utility.yul\":7315:7317   */\n      0x40\n        /* \"#utility.yul\":7308:7330   */\n      mstore\n        /* \"#utility.yul\":7093:7336   */\n      pop\n      swap2\n      swap1\n      pop\n      jump\t// out\n        /* \"#utility.yul\":7342:7673   */\n    tag_154:\n      0x00\n        /* \"#utility.yul\":7493:7511   */\n      0xffffffffffffffff\n        /* \"#utility.yul\":7485:7491   */\n      dup3\n        /* \"#utility.yul\":7482:7512   */\n      gt\n        /* \"#utility.yul\":7479:7481   */\n      iszero\n      tag_257\n      jumpi\n        /* \"#utility.yul\":7515:7533   */\n      tag_258\n      tag_255\n      jump\t// in\n    tag_258:\n        /* \"#utility.yul\":7479:7481   */\n    tag_257:\n        /* \"#utility.yul\":7600:7604   */\n      0x1f\n        /* \"#utility.yul\":7596:7605   */\n      not\n        /* \"#utility.yul\":7589:7593   */\n      0x1f\n        /* \"#utility.yul\":7581:7587   */\n      dup4\n        /* \"#utility.yul\":7577:7594   */\n      add\n        /* \"#utility.yul\":7573:7606   */\n      and\n        /* \"#utility.yul\":7565:7606   */\n      swap1\n      pop\n        /* \"#utility.yul\":7661:7665   */\n      0x20\n        /* \"#utility.yul\":7655:7659   */\n      dup2\n        /* \"#utility.yul\":7651:7666   */\n      add\n        /* \"#utility.yul\":7643:7666   */\n      swap1\n      pop\n        /* \"#utility.yul\":7408:7673   */\n      swap2\n      swap1\n      pop\n      jump\t// out\n        /* \"#utility.yul\":7679:8011   */\n    tag_163:\n      0x00\n        /* \"#utility.yul\":7831:7849   */\n      0xffffffffffffffff\n        /* \"#utility.yul\":7823:7829   */\n      dup3\n        /* \"#utility.yul\":7820:7850   */\n      gt\n        /* \"#utility.yul\":7817:7819   */\n      iszero\n      tag_260\n      jumpi\n        /* \"#utility.yul\":7853:7871   */\n      tag_261\n      tag_255\n      jump\t// in\n    tag_261:\n        /* \"#utility.yul\":7817:7819   */\n    tag_260:\n        /* \"#utility.yul\":7938:7942   */\n      0x1f\n        /* \"#utility.yul\":7934:7943   */\n      not\n        /* \"#utility.yul\":7927:7931   */\n      0x1f\n        /* \"#utility.yul\":7919:7925   */\n      dup4\n        /* \"#utility.yul\":7915:7932   */\n      add\n        /* \"#utility.yul\":7911:7944   */\n      and\n        /* \"#utility.yul\":7903:7944   */\n      swap1\n      pop\n        /* \"#utility.yul\":7999:8003   */\n      0x20\n        /* \"#utility.yul\":7993:7997   */\n      dup2\n        /* \"#utility.yul\":7989:8004   */\n      add\n        /* \"#utility.yul\":7981:8004   */\n      swap1\n      pop\n        /* \"#utility.yul\":7746:8011   */\n      swap2\n      swap1\n      pop\n      jump\t// out\n        /* \"#utility.yul\":8017:8161   */\n    tag_221:\n      0x00\n        /* \"#utility.yul\":8092:8095   */\n      dup2\n        /* \"#utility.yul\":8084:8095   */\n      swap1\n      pop\n        /* \"#utility.yul\":8115:8118   */\n      dup2\n        /* \"#utility.yul\":8112:8113   */\n      0x00\n        /* \"#utility.yul\":8105:8119   */\n      mstore\n        /* \"#utility.yul\":8149:8153   */\n      0x20\n        /* \"#utility.yul\":8146:8147   */\n      0x00\n        /* \"#utility.yul\":8136:8154   */\n      keccak256\n        /* \"#utility.yul\":8128:8154   */\n      swap1\n      pop\n        /* \"#utility.yul\":8074:8161   */\n      swap2\n      swap1\n      pop\n      jump\t// out\n        /* \"#utility.yul\":8167:8265   */\n    tag_199:\n      0x00\n        /* \"#utility.yul\":8252:8257   */\n      dup2\n        /* \"#utility.yul\":8246:8258   */\n      mload\n        /* \"#utility.yul\":8236:8258   */\n      swap1\n      pop\n        /* \"#utility.yul\":8225:8265   */\n      swap2\n      swap1\n      pop\n      jump\t// out\n        /* \"#utility.yul\":8271:8370   */\n    tag_228:\n      0x00\n        /* \"#utility.yul\":8357:8362   */\n      dup2\n        /* \"#utility.yul\":8351:8363   */\n      mload\n        /* \"#utility.yul\":8341:8363   */\n      swap1\n      pop\n        /* \"#utility.yul\":8330:8370   */\n      swap2\n      swap1\n      pop\n      jump\t// out\n        /* \"#utility.yul\":8376:8544   */\n    tag_201:\n      0x00\n        /* \"#utility.yul\":8493:8499   */\n      dup3\n        /* \"#utility.yul\":8488:8491   */\n      dup3\n        /* \"#utility.yul\":8481:8500   */\n      mstore\n        /* \"#utility.yul\":8533:8537   */\n      0x20\n        /* \"#utility.yul\":8528:8531   */\n      dup3\n        /* \"#utility.yul\":8524:8538   */\n      add\n        /* \"#utility.yul\":8509:8538   */\n      swap1\n      pop\n        /* \"#utility.yul\":8471:8544   */\n      swap3\n      swap2\n      pop\n      pop\n      jump\t// out\n        /* \"#utility.yul\":8550:8697   */\n    tag_210:\n      0x00\n        /* \"#utility.yul\":8688:8691   */\n      dup2\n        /* \"#utility.yul\":8673:8691   */\n      swap1\n      pop\n        /* \"#utility.yul\":8663:8697   */\n      swap3\n      swap2\n      pop\n      pop\n      jump\t// out\n        /* \"#utility.yul\":8703:8872   */\n    tag_230:\n      0x00\n        /* \"#utility.yul\":8821:8827   */\n      dup3\n        /* \"#utility.yul\":8816:8819   */\n      dup3\n        /* \"#utility.yul\":8809:8828   */\n      mstore\n        /* \"#utility.yul\":8861:8865   */\n      0x20\n        /* \"#utility.yul\":8856:8859   */\n      dup3\n        /* \"#utility.yul\":8852:8866   */\n      add\n        /* \"#utility.yul\":8837:8866   */\n      swap1\n      pop\n        /* \"#utility.yul\":8799:8872   */\n      swap3\n      swap2\n      pop\n      pop\n      jump\t// out\n        /* \"#utility.yul\":8878:9115   */\n    tag_98:\n      0x00\n        /* \"#utility.yul\":8935:8953   */\n      tag_269\n        /* \"#utility.yul\":8951:8952   */\n      dup3\n        /* \"#utility.yul\":8935:8953   */\n      tag_270\n      jump\t// in\n    tag_269:\n        /* \"#utility.yul\":8930:8953   */\n      swap2\n      pop\n        /* \"#utility.yul\":8967:8985   */\n      tag_271\n        /* \"#utility.yul\":8983:8984   */\n      dup4\n        /* \"#utility.yul\":8967:8985   */\n      tag_270\n      jump\t// in\n    tag_271:\n        /* \"#utility.yul\":8962:8985   */\n      swap3\n      pop\n        /* \"#utility.yul\":9057:9058   */\n      dup3\n        /* \"#utility.yul\":9051:9055   */\n      0xff\n        /* \"#utility.yul\":9047:9059   */\n      sub\n        /* \"#utility.yul\":9044:9045   */\n      dup3\n        /* \"#utility.yul\":9041:9060   */\n      gt\n        /* \"#utility.yul\":9038:9040   */\n      iszero\n      tag_272\n      jumpi\n        /* \"#utility.yul\":9063:9081   */\n      tag_273\n      tag_274\n      jump\t// in\n    tag_273:\n        /* \"#utility.yul\":9038:9040   */\n    tag_272:\n        /* \"#utility.yul\":9107:9108   */\n      dup3\n        /* \"#utility.yul\":9104:9105   */\n      dup3\n        /* \"#utility.yul\":9100:9109   */\n      add\n        /* \"#utility.yul\":9093:9109   */\n      swap1\n      pop\n        /* \"#utility.yul\":8920:9115   */\n      swap3\n      swap2\n      pop\n      pop\n      jump\t// out\n        /* \"#utility.yul\":9121:9312   */\n    tag_111:\n      0x00\n        /* \"#utility.yul\":9181:9201   */\n      tag_276\n        /* \"#utility.yul\":9199:9200   */\n      dup3\n        /* \"#utility.yul\":9181:9201   */\n      tag_236\n      jump\t// in\n    tag_276:\n        /* \"#utility.yul\":9176:9201   */\n      swap2\n      pop\n        /* \"#utility.yul\":9215:9235   */\n      tag_277\n        /* \"#utility.yul\":9233:9234   */\n      dup4\n        /* \"#utility.yul\":9215:9235   */\n      tag_236\n      jump\t// in\n    tag_277:\n        /* \"#utility.yul\":9210:9235   */\n      swap3\n      pop\n        /* \"#utility.yul\":9254:9255   */\n      dup3\n        /* \"#utility.yul\":9251:9252   */\n      dup3\n        /* \"#utility.yul\":9248:9256   */\n      lt\n        /* \"#utility.yul\":9245:9247   */\n      iszero\n      tag_278\n      jumpi\n        /* \"#utility.yul\":9259:9277   */\n      tag_279\n      tag_274\n      jump\t// in\n    tag_279:\n        /* \"#utility.yul\":9245:9247   */\n    tag_278:\n        /* \"#utility.yul\":9304:9305   */\n      dup3\n        /* \"#utility.yul\":9301:9302   */\n      dup3\n        /* \"#utility.yul\":9297:9306   */\n      sub\n        /* \"#utility.yul\":9289:9306   */\n      swap1\n      pop\n        /* \"#utility.yul\":9166:9312   */\n      swap3\n      swap2\n      pop\n      pop\n      jump\t// out\n        /* \"#utility.yul\":9318:9503   */\n    tag_78:\n      0x00\n        /* \"#utility.yul\":9376:9394   */\n      tag_281\n        /* \"#utility.yul\":9392:9393   */\n      dup3\n        /* \"#utility.yul\":9376:9394   */\n      tag_270\n      jump\t// in\n    tag_281:\n        /* \"#utility.yul\":9371:9394   */\n      swap2\n      pop\n        /* \"#utility.yul\":9408:9426   */\n      tag_282\n        /* \"#utility.yul\":9424:9425   */\n      dup4\n        /* \"#utility.yul\":9408:9426   */\n      tag_270\n      jump\t// in\n    tag_282:\n        /* \"#utility.yul\":9403:9426   */\n      swap3\n      pop\n        /* \"#utility.yul\":9445:9446   */\n      dup3\n        /* \"#utility.yul\":9442:9443   */\n      dup3\n        /* \"#utility.yul\":9439:9447   */\n      lt\n        /* \"#utility.yul\":9436:9438   */\n      iszero\n      tag_283\n      jumpi\n        /* \"#utility.yul\":9450:9468   */\n      tag_284\n      tag_274\n      jump\t// in\n    tag_284:\n        /* \"#utility.yul\":9436:9438   */\n    tag_283:\n        /* \"#utility.yul\":9495:9496   */\n      dup3\n        /* \"#utility.yul\":9492:9493   */\n      dup3\n        /* \"#utility.yul\":9488:9497   */\n      sub\n        /* \"#utility.yul\":9480:9497   */\n      swap1\n      pop\n        /* \"#utility.yul\":9361:9503   */\n      swap3\n      swap2\n      pop\n      pop\n      jump\t// out\n        /* \"#utility.yul\":9509:9599   */\n    tag_191:\n      0x00\n        /* \"#utility.yul\":9586:9591   */\n      dup2\n        /* \"#utility.yul\":9579:9592   */\n      iszero\n        /* \"#utility.yul\":9572:9593   */\n      iszero\n        /* \"#utility.yul\":9561:9593   */\n      swap1\n      pop\n        /* \"#utility.yul\":9551:9599   */\n      swap2\n      swap1\n      pop\n      jump\t// out\n        /* \"#utility.yul\":9605:9754   */\n    tag_195:\n      0x00\n        /* \"#utility.yul\":9681:9747   */\n      0xff00000000000000000000000000000000000000000000000000000000000000\n        /* \"#utility.yul\":9674:9679   */\n      dup3\n        /* \"#utility.yul\":9670:9748   */\n      and\n        /* \"#utility.yul\":9659:9748   */\n      swap1\n      pop\n        /* \"#utility.yul\":9649:9754   */\n      swap2\n      swap1\n      pop\n      jump\t// out\n        /* \"#utility.yul\":9760:9837   */\n    tag_236:\n      0x00\n        /* \"#utility.yul\":9826:9831   */\n      dup2\n        /* \"#utility.yul\":9815:9831   */\n      swap1\n      pop\n        /* \"#utility.yul\":9805:9837   */\n      swap2\n      swap1\n      pop\n      jump\t// out\n        /* \"#utility.yul\":9843:9929   */\n    tag_270:\n      0x00\n        /* \"#utility.yul\":9918:9922   */\n      0xff\n        /* \"#utility.yul\":9911:9916   */\n      dup3\n        /* \"#utility.yul\":9907:9923   */\n      and\n        /* \"#utility.yul\":9896:9923   */\n      swap1\n      pop\n        /* \"#utility.yul\":9886:9929   */\n      swap2\n      swap1\n      pop\n      jump\t// out\n        /* \"#utility.yul\":9935:10089   */\n    tag_158:\n        /* \"#utility.yul\":10019:10025   */\n      dup3\n        /* \"#utility.yul\":10014:10017   */\n      dup2\n        /* \"#utility.yul\":10009:10012   */\n      dup4\n        /* \"#utility.yul\":9996:10026   */\n      calldatacopy\n        /* \"#utility.yul\":10081:10082   */\n      0x00\n        /* \"#utility.yul\":10072:10078   */\n      dup4\n        /* \"#utility.yul\":10067:10070   */\n      dup4\n        /* \"#utility.yul\":10063:10079   */\n      add\n        /* \"#utility.yul\":10056:10083   */\n      mstore\n        /* \"#utility.yul\":9986:10089   */\n      pop\n      pop\n      pop\n      jump\t// out\n        /* \"#utility.yul\":10095:10402   */\n    tag_203:\n        /* \"#utility.yul\":10163:10164   */\n      0x00\n        /* \"#utility.yul\":10173:10286   */\n    tag_291:\n        /* \"#utility.yul\":10187:10193   */\n      dup4\n        /* \"#utility.yul\":10184:10185   */\n      dup2\n        /* \"#utility.yul\":10181:10194   */\n      lt\n        /* \"#utility.yul\":10173:10286   */\n      iszero\n      tag_293\n      jumpi\n        /* \"#utility.yul\":10272:10273   */\n      dup1\n        /* \"#utility.yul\":10267:10270   */\n      dup3\n        /* \"#utility.yul\":10263:10274   */\n      add\n        /* \"#utility.yul\":10257:10275   */\n      mload\n        /* \"#utility.yul\":10253:10254   */\n      dup2\n        /* \"#utility.yul\":10248:10251   */\n      dup5\n        /* \"#utility.yul\":10244:10255   */\n      add\n        /* \"#utility.yul\":10237:10276   */\n      mstore\n        /* \"#utility.yul\":10209:10211   */\n      0x20\n        /* \"#utility.yul\":10206:10207   */\n      dup2\n        /* \"#utility.yul\":10202:10212   */\n      add\n        /* \"#utility.yul\":10197:10212   */\n      swap1\n      pop\n        /* \"#utility.yul\":10173:10286   */\n      jump(tag_291)\n    tag_293:\n        /* \"#utility.yul\":10304:10310   */\n      dup4\n        /* \"#utility.yul\":10301:10302   */\n      dup2\n        /* \"#utility.yul\":10298:10311   */\n      gt\n        /* \"#utility.yul\":10295:10297   */\n      iszero\n      tag_294\n      jumpi\n        /* \"#utility.yul\":10384:10385   */\n      0x00\n        /* \"#utility.yul\":10375:10381   */\n      dup5\n        /* \"#utility.yul\":10370:10373   */\n      dup5\n        /* \"#utility.yul\":10366:10382   */\n      add\n        /* \"#utility.yul\":10359:10386   */\n      mstore\n        /* \"#utility.yul\":10295:10297   */\n    tag_294:\n        /* \"#utility.yul\":10144:10402   */\n      pop\n      pop\n      pop\n      pop\n      jump\t// out\n        /* \"#utility.yul\":10408:10728   */\n    tag_215:\n      0x00\n        /* \"#utility.yul\":10489:10490   */\n      0x02\n        /* \"#utility.yul\":10483:10487   */\n      dup3\n        /* \"#utility.yul\":10479:10491   */\n      div\n        /* \"#utility.yul\":10469:10491   */\n      swap1\n      pop\n        /* \"#utility.yul\":10536:10537   */\n      0x01\n        /* \"#utility.yul\":10530:10534   */\n      dup3\n        /* \"#utility.yul\":10526:10538   */\n      and\n        /* \"#utility.yul\":10557:10575   */\n      dup1\n        /* \"#utility.yul\":10547:10549   */\n      tag_296\n      jumpi\n        /* \"#utility.yul\":10613:10617   */\n      0x7f\n        /* \"#utility.yul\":10605:10611   */\n      dup3\n        /* \"#utility.yul\":10601:10618   */\n      and\n        /* \"#utility.yul\":10591:10618   */\n      swap2\n      pop\n        /* \"#utility.yul\":10547:10549   */\n    tag_296:\n        /* \"#utility.yul\":10675:10677   */\n      0x20\n        /* \"#utility.yul\":10667:10673   */\n      dup3\n        /* \"#utility.yul\":10664:10678   */\n      lt\n        /* \"#utility.yul\":10644:10662   */\n      dup2\n        /* \"#utility.yul\":10641:10679   */\n      eq\n        /* \"#utility.yul\":10638:10640   */\n      iszero\n      tag_297\n      jumpi\n        /* \"#utility.yul\":10694:10712   */\n      tag_298\n      tag_299\n      jump\t// in\n    tag_298:\n        /* \"#utility.yul\":10638:10640   */\n    tag_297:\n        /* \"#utility.yul\":10459:10728   */\n      pop\n      swap2\n      swap1\n      pop\n      jump\t// out\n        /* \"#utility.yul\":10734:10967   */\n    tag_84:\n      0x00\n        /* \"#utility.yul\":10796:10820   */\n      tag_301\n        /* \"#utility.yul\":10814:10819   */\n      dup3\n        /* \"#utility.yul\":10796:10820   */\n      tag_236\n      jump\t// in\n    tag_301:\n        /* \"#utility.yul\":10787:10820   */\n      swap2\n      pop\n        /* \"#utility.yul\":10842:10908   */\n      0xffffffffffffffffffffffffffffffffffffffffffffffffffffffffffffffff\n        /* \"#utility.yul\":10835:10840   */\n      dup3\n        /* \"#utility.yul\":10832:10909   */\n      eq\n        /* \"#utility.yul\":10829:10831   */\n      iszero\n      tag_302\n      jumpi\n        /* \"#utility.yul\":10912:10930   */\n      tag_303\n      tag_274\n      jump\t// in\n    tag_303:\n        /* \"#utility.yul\":10829:10831   */\n    tag_302:\n        /* \"#utility.yul\":10959:10960   */\n      0x01\n        /* \"#utility.yul\":10952:10957   */\n      dup3\n        /* \"#utility.yul\":10948:10961   */\n      add\n        /* \"#utility.yul\":10941:10961   */\n      swap1\n      pop\n        /* \"#utility.yul\":10777:10967   */\n      swap2\n      swap1\n      pop\n      jump\t// out\n        /* \"#utility.yul\":10973:11153   */\n    tag_274:\n        /* \"#utility.yul\":11021:11098   */\n      0x4e487b7100000000000000000000000000000000000000000000000000000000\n        /* \"#utility.yul\":11018:11019   */\n      0x00\n        /* \"#utility.yul\":11011:11099   */\n      mstore\n        /* \"#utility.yul\":11118:11122   */\n      0x11\n        /* \"#utility.yul\":11115:11116   */\n      0x04\n        /* \"#utility.yul\":11108:11123   */\n      mstore\n        /* \"#utility.yul\":11142:11146   */\n      0x24\n        /* \"#utility.yul\":11139:11140   */\n      0x00\n        /* \"#utility.yul\":11132:11147   */\n      revert\n        /* \"#utility.yul\":11159:11339   */\n    tag_299:\n        /* \"#utility.yul\":11207:11284   */\n      0x4e487b7100000000000000000000000000000000000000000000000000000000\n        /* \"#utility.yul\":11204:11205   */\n      0x00\n        /* \"#utility.yul\":11197:11285   */\n      mstore\n        /* \"#utility.yul\":11304:11308   */\n      0x22\n        /* \"#utility.yul\":11301:11302   */\n      0x04\n        /* \"#utility.yul\":11294:11309   */\n      mstore\n        /* \"#utility.yul\":11328:11332   */\n      0x24\n        /* \"#utility.yul\":11325:11326   */\n      0x00\n        /* \"#utility.yul\":11318:11333   */\n      revert\n        /* \"#utility.yul\":11345:11525   */\n    tag_255:\n        /* \"#utility.yul\":11393:11470   */\n      0x4e487b7100000000000000000000000000000000000000000000000000000000\n        /* \"#utility.yul\":11390:11391   */\n      0x00\n        /* \"#utility.yul\":11383:11471   */\n      mstore\n        /* \"#utility.yul\":11490:11494   */\n      0x41\n        /* \"#utility.yul\":11487:11488   */\n      0x04\n        /* \"#utility.yul\":11480:11495   */\n      mstore\n        /* \"#utility.yul\":11514:11518   */\n      0x24\n        /* \"#utility.yul\":11511:11512   */\n      0x00\n        /* \"#utility.yul\":11504:11519   */\n      revert\n        /* \"#utility.yul\":11531:11633   */\n    tag_205:\n      0x00\n        /* \"#utility.yul\":11623:11625   */\n      0x1f\n        /* \"#utility.yul\":11619:11626   */\n      not\n        /* \"#utility.yul\":11614:11616   */\n      0x1f\n        /* \"#utility.yul\":11607:11612   */\n      dup4\n        /* \"#utility.yul\":11603:11617   */\n      add\n        /* \"#utility.yul\":11599:11627   */\n      and\n        /* \"#utility.yul\":11589:11627   */\n      swap1\n      pop\n        /* \"#utility.yul\":11579:11633   */\n      swap2\n      swap1\n      pop\n      jump\t// out\n\n    auxdata: 0xa26469706673582212209f9e42ac7b021781c8963a51ee974565807ab5dd4abccaf2a8d488da00638fdf64736f6c63430008000033\n}\n",
				"bytecode": {
					"linkReferences": {},
					"object": "60806040526040518060400160405280600681526020017f67757264696c0000000000000000000000000000000000000000000000000000815250600090805190602001906200005192919062000066565b503480156200005f57600080fd5b506200017b565b828054620000749062000116565b90600052602060002090601f016020900481019282620000985760008555620000e4565b82601f10620000b357805160ff1916838001178555620000e4565b82800160010185558215620000e4579182015b82811115620000e3578251825591602001919060010190620000c6565b5b509050620000f39190620000f7565b5090565b5b8082111562000112576000816000905550600101620000f8565b5090565b600060028204905060018216806200012f57607f821691505b602082108114156200014657620001456200014c565b5b50919050565b7f4e487b7100000000000000000000000000000000000000000000000000000000600052602260045260246000fd5b61153b806200018b6000396000f3fe608060405234801561001057600080fd5b50600436106100a95760003560e01c806375b831871161007157806375b831871461018c57806387e16d4d146101bc5780638b2206e7146101ec57806392d2a7351461021c578063bf99f4fb1461024c578063d546b78d1461027c576100a9565b8063074ae3d7146100ae5780631d9b641a146100de57806350bb08841461010e5780635729c2111461013e5780636bdbf8e61461016e575b600080fd5b6100c860048036038101906100c39190610f07565b6102ac565b6040516100d59190611196565b60405180910390f35b6100f860048036038101906100f39190610f07565b610573565b60405161010591906111b8565b60405180910390f35b61012860048036038101906101239190610f07565b610583565b6040516101359190611196565b60405180910390f35b61015860048036038101906101539190610f07565b61084a565b6040516101659190611196565b60405180910390f35b6101766109b7565b6040516101839190611174565b60405180910390f35b6101a660048036038101906101a19190610f48565b610a56565b6040516101b3919061113e565b60405180910390f35b6101d660048036038101906101d19190610f07565b610b8e565b6040516101e39190611196565b60405180910390f35b61020660048036038101906102019190610f07565b610c30565b6040516102139190611174565b60405180910390f35b61023660048036038101906102319190610ec6565b610c3a565b6040516102439190611196565b60405180910390f35b61026660048036038101906102619190610f07565b610c44565b6040516102739190611159565b60405180910390f35b61029660048036038101906102919190610f07565b610c9d565b6040516102a391906111b8565b60405180910390f35b6060600082905060008151905060008167ffffffffffffffff8111156102fb577f4e487b7100000000000000000000000000000000000000000000000000000000600052604160045260246000fd5b6040519080825280601f01601f19166020018201604052801561032d5781602001600182028036833780820191505090505b50905060005b82811015610567576061848281518110610376577f4e487b7100000000000000000000000000000000000000000000000000000000600052603260045260246000fd5b602001015160f81c60f81b60f81c60ff16101580156103df5750607a8482815181106103cb577f4e487b7100000000000000000000000000000000000000000000000000000000600052603260045260246000fd5b602001015160f81c60f81b60f81c60ff1611155b156104a757602084828151811061041f577f4e487b7100000000000000000000000000000000000000000000000000000000600052603260045260246000fd5b602001015160f81c60f81b60f81c6104379190611327565b60f81b828281518110610473577f4e487b7100000000000000000000000000000000000000000000000000000000600052603260045260246000fd5b60200101907effffffffffffffffffffffffffffffffffffffffffffffffffffffffffffff1916908160001a905350610554565b8381815181106104e0577f4e487b7100000000000000000000000000000000000000000000000000000000600052603260045260246000fd5b602001015160f81c60f81b828281518110610524577f4e487b7100000000000000000000000000000000000000000000000000000000600052603260045260246000fd5b60200101907effffffffffffffffffffffffffffffffffffffffffffffffffffffffffffff1916908160001a9053505b808061055f9061141e565b915050610333565b50809350505050919050565b6000808251905080915050919050565b6060600082905060008151905060008167ffffffffffffffff8111156105d2577f4e487b7100000000000000000000000000000000000000000000000000000000600052604160045260246000fd5b6040519080825280601f01601f1916602001820160405280156106045781602001600182028036833780820191505090505b50905060005b8281101561083e57604184828151811061064d577f4e487b7100000000000000000000000000000000000000000000000000000000600052603260045260246000fd5b602001015160f81c60f81b60f81c60ff16101580156106b65750605a8482815181106106a2577f4e487b7100000000000000000000000000000000000000000000000000000000600052603260045260246000fd5b602001015160f81c60f81b60f81c60ff1611155b1561077e5760208482815181106106f6577f4e487b7100000000000000000000000000000000000000000000000000000000600052603260045260246000fd5b602001015160f81c60f81b60f81c61070e91906112bc565b60f81b82828151811061074a577f4e487b7100000000000000000000000000000000000000000000000000000000600052603260045260246000fd5b60200101907effffffffffffffffffffffffffffffffffffffffffffffffffffffffffffff1916908160001a90535061082b565b8381815181106107b7577f4e487b7100000000000000000000000000000000000000000000000000000000600052603260045260246000fd5b602001015160f81c60f81b8282815181106107fb577f4e487b7100000000000000000000000000000000000000000000000000000000600052603260045260246000fd5b60200101907effffffffffffffffffffffffffffffffffffffffffffffffffffffffffffff1916908160001a9053505b80806108369061141e565b91505061060a565b50809350505050919050565b606060008290506000815167ffffffffffffffff811115610894577f4e487b7100000000000000000000000000000000000000000000000000000000600052604160045260246000fd5b6040519080825280601f01601f1916602001820160405280156108c65781602001600182028036833780820191505090505b50905060005b82518110156109ac578281600185516108e591906112f3565b6108ef91906112f3565b81518110610926577f4e487b7100000000000000000000000000000000000000000000000000000000600052603260045260246000fd5b602001015160f81c60f81b82828151811061096a577f4e487b7100000000000000000000000000000000000000000000000000000000600052603260045260246000fd5b60200101907effffffffffffffffffffffffffffffffffffffffffffffffffffffffffffff1916908160001a90535080806109a49061141e565b9150506108cc565b508092505050919050565b606060006040518060400160405280600581526020017f48656c6c6f000000000000000000000000000000000000000000000000000000815250905060006040518060400160405280600681526020017f576f726c6421000000000000000000000000000000000000000000000000000081525090508181604051602001610a40929190611103565b6040516020818303038152906040529250505090565b6000808390506000839050600082519050600082519050808214610a81576000945050505050610b88565b60005b82811015610b7e57838181518110610ac5577f4e487b7100000000000000000000000000000000000000000000000000000000600052603260045260246000fd5b602001015160f81c60f81b7effffffffffffffffffffffffffffffffffffffffffffffffffffffffffffff1916858281518110610b2b577f4e487b7100000000000000000000000000000000000000000000000000000000600052603260045260246000fd5b602001015160f81c60f81b7effffffffffffffffffffffffffffffffffffffffffffffffffffffffffffff191614610b6b57600095505050505050610b88565b8080610b769061141e565b915050610a84565b5060019450505050505b92915050565b60606000604051610b9f9190611127565b604051809103902082805190602001201415610bf2576040518060400160405280600e81526020017f416363657373204772616e7465640000000000000000000000000000000000008152509050610c2b565b6040518060400160405280600d81526020017f4163636573732044656e6965640000000000000000000000000000000000000081525090505b919050565b6060819050919050565b6060819050919050565b600080829050600081600581518110610c86577f4e487b7100000000000000000000000000000000000000000000000000000000600052603260045260246000fd5b602001015160f81c60f81b90508092505050919050565b6000808290506000815190506000811415610cbd57600092505050610df1565b60008060005b83811015610de857602060f81b858281518110610d09577f4e487b7100000000000000000000000000000000000000000000000000000000600052603260045260246000fd5b602001015160f81c60f81b7effffffffffffffffffffffffffffffffffffffffffffffffffffffffffffff191614158015610d42575081155b15610d5e57600191508280610d569061141e565b935050610dd5565b602060f81b858281518110610d9c577f4e487b7100000000000000000000000000000000000000000000000000000000600052603260045260246000fd5b602001015160f81c60f81b7effffffffffffffffffffffffffffffffffffffffffffffffffffffffffffff19161415610dd457600091505b5b8080610de09061141e565b915050610cc3565b50819450505050505b919050565b6000610e09610e0484611204565b6111d3565b905082815260208101848484011115610e2157600080fd5b610e2c8482856113aa565b509392505050565b6000610e47610e4284611234565b6111d3565b905082815260208101848484011115610e5f57600080fd5b610e6a8482856113aa565b509392505050565b600082601f830112610e8357600080fd5b8135610e93848260208601610df6565b91505092915050565b600082601f830112610ead57600080fd5b8135610ebd848260208601610e34565b91505092915050565b600060208284031215610ed857600080fd5b600082013567ffffffffffffffff811115610ef257600080fd5b610efe84828501610e72565b91505092915050565b600060208284031215610f1957600080fd5b600082013567ffffffffffffffff811115610f3357600080fd5b610f3f84828501610e9c565b91505092915050565b60008060408385031215610f5b57600080fd5b600083013567ffffffffffffffff811115610f7557600080fd5b610f8185828601610e9c565b925050602083013567ffffffffffffffff811115610f9e57600080fd5b610faa85828601610e9c565b9150509250929050565b610fbd8161135b565b82525050565b610fcc81611367565b82525050565b6000610fdd82611279565b610fe7818561128f565b9350610ff78185602086016113b9565b611000816114f4565b840191505092915050565b600061101682611279565b61102081856112a0565b93506110308185602086016113b9565b80840191505092915050565b60008154611049816113ec565b61105381866112a0565b9450600182166000811461106e576001811461107f576110b2565b60ff198316865281860193506110b2565b61108885611264565b60005b838110156110aa5781548189015260018201915060208101905061108b565b838801955050505b50505092915050565b60006110c682611284565b6110d081856112ab565b93506110e08185602086016113b9565b6110e9816114f4565b840191505092915050565b6110fd81611393565b82525050565b600061110f828561100b565b915061111b828461100b565b91508190509392505050565b6000611133828461103c565b915081905092915050565b60006020820190506111536000830184610fb4565b92915050565b600060208201905061116e6000830184610fc3565b92915050565b6000602082019050818103600083015261118e8184610fd2565b905092915050565b600060208201905081810360008301526111b081846110bb565b905092915050565b60006020820190506111cd60008301846110f4565b92915050565b6000604051905081810181811067ffffffffffffffff821117156111fa576111f96114c5565b5b8060405250919050565b600067ffffffffffffffff82111561121f5761121e6114c5565b5b601f19601f8301169050602081019050919050565b600067ffffffffffffffff82111561124f5761124e6114c5565b5b601f19601f8301169050602081019050919050565b60008190508160005260206000209050919050565b600081519050919050565b600081519050919050565b600082825260208201905092915050565b600081905092915050565b600082825260208201905092915050565b60006112c78261139d565b91506112d28361139d565b92508260ff038211156112e8576112e7611467565b5b828201905092915050565b60006112fe82611393565b915061130983611393565b92508282101561131c5761131b611467565b5b828203905092915050565b60006113328261139d565b915061133d8361139d565b9250828210156113505761134f611467565b5b828203905092915050565b60008115159050919050565b60007fff0000000000000000000000000000000000000000000000000000000000000082169050919050565b6000819050919050565b600060ff82169050919050565b82818337600083830152505050565b60005b838110156113d75780820151818401526020810190506113bc565b838111156113e6576000848401525b50505050565b6000600282049050600182168061140457607f821691505b6020821081141561141857611417611496565b5b50919050565b600061142982611393565b91507fffffffffffffffffffffffffffffffffffffffffffffffffffffffffffffffff82141561145c5761145b611467565b5b600182019050919050565b7f4e487b7100000000000000000000000000000000000000000000000000000000600052601160045260246000fd5b7f4e487b7100000000000000000000000000000000000000000000000000000000600052602260045260246000fd5b7f4e487b7100000000000000000000000000000000000000000000000000000000600052604160045260246000fd5b6000601f19601f830116905091905056fea26469706673582212209f9e42ac7b021781c8963a51ee974565807ab5dd4abccaf2a8d488da00638fdf64736f6c63430008000033",
					"opcodes": "PUSH1 0x80 PUSH1 0x40 MSTORE PUSH1 0x40 MLOAD DUP1 PUSH1 0x40 ADD PUSH1 0x40 MSTORE DUP1 PUSH1 0x6 DUP2 MSTORE PUSH1 0x20 ADD PUSH32 0x67757264696C0000000000000000000000000000000000000000000000000000 DUP2 MSTORE POP PUSH1 0x0 SWAP1 DUP1 MLOAD SWAP1 PUSH1 0x20 ADD SWAP1 PUSH3 0x51 SWAP3 SWAP2 SWAP1 PUSH3 0x66 JUMP JUMPDEST POP CALLVALUE DUP1 ISZERO PUSH3 0x5F JUMPI PUSH1 0x0 DUP1 REVERT JUMPDEST POP PUSH3 0x17B JUMP JUMPDEST DUP3 DUP1 SLOAD PUSH3 0x74 SWAP1 PUSH3 0x116 JUMP JUMPDEST SWAP1 PUSH1 0x0 MSTORE PUSH1 0x20 PUSH1 0x0 KECCAK256 SWAP1 PUSH1 0x1F ADD PUSH1 0x20 SWAP1 DIV DUP2 ADD SWAP3 DUP3 PUSH3 0x98 JUMPI PUSH1 0x0 DUP6 SSTORE PUSH3 0xE4 JUMP JUMPDEST DUP3 PUSH1 0x1F LT PUSH3 0xB3 JUMPI DUP1 MLOAD PUSH1 0xFF NOT AND DUP4 DUP1 ADD OR DUP6 SSTORE PUSH3 0xE4 JUMP JUMPDEST DUP3 DUP1 ADD PUSH1 0x1 ADD DUP6 SSTORE DUP3 ISZERO PUSH3 0xE4 JUMPI SWAP2 DUP3 ADD JUMPDEST DUP3 DUP2 GT ISZERO PUSH3 0xE3 JUMPI DUP3 MLOAD DUP3 SSTORE SWAP2 PUSH1 0x20 ADD SWAP2 SWAP1 PUSH1 0x1 ADD SWAP1 PUSH3 0xC6 JUMP JUMPDEST JUMPDEST POP SWAP1 POP PUSH3 0xF3 SWAP2 SWAP1 PUSH3 0xF7 JUMP JUMPDEST POP SWAP1 JUMP JUMPDEST JUMPDEST DUP1 DUP3 GT ISZERO PUSH3 0x112 JUMPI PUSH1 0x0 DUP2 PUSH1 0x0 SWAP1 SSTORE POP PUSH1 0x1 ADD PUSH3 0xF8 JUMP JUMPDEST POP SWAP1 JUMP JUMPDEST PUSH1 0x0 PUSH1 0x2 DUP3 DIV SWAP1 POP PUSH1 0x1 DUP3 AND DUP1 PUSH3 0x12F JUMPI PUSH1 0x7F DUP3 AND SWAP2 POP JUMPDEST PUSH1 0x20 DUP3 LT DUP2 EQ ISZERO PUSH3 0x146 JUMPI PUSH3 0x145 PUSH3 0x14C JUMP JUMPDEST JUMPDEST POP SWAP2 SWAP1 POP JUMP JUMPDEST PUSH32 0x4E487B7100000000000000000000000000000000000000000000000000000000 PUSH1 0x0 MSTORE PUSH1 0x22 PUSH1 0x4 MSTORE PUSH1 0x24 PUSH1 0x0 REVERT JUMPDEST PUSH2 0x153B DUP1 PUSH3 0x18B PUSH1 0x0 CODECOPY PUSH1 0x0 RETURN INVALID PUSH1 0x80 PUSH1 0x40 MSTORE CALLVALUE DUP1 ISZERO PUSH2 0x10 JUMPI PUSH1 0x0 DUP1 REVERT JUMPDEST POP PUSH1 0x4 CALLDATASIZE LT PUSH2 0xA9 JUMPI PUSH1 0x0 CALLDATALOAD PUSH1 0xE0 SHR DUP1 PUSH4 0x75B83187 GT PUSH2 0x71 JUMPI DUP1 PUSH4 0x75B83187 EQ PUSH2 0x18C JUMPI DUP1 PUSH4 0x87E16D4D EQ PUSH2 0x1BC JUMPI DUP1 PUSH4 0x8B2206E7 EQ PUSH2 0x1EC JUMPI DUP1 PUSH4 0x92D2A735 EQ PUSH2 0x21C JUMPI DUP1 PUSH4 0xBF99F4FB EQ PUSH2 0x24C JUMPI DUP1 PUSH4 0xD546B78D EQ PUSH2 0x27C JUMPI PUSH2 0xA9 JUMP JUMPDEST DUP1 PUSH4 0x74AE3D7 EQ PUSH2 0xAE JUMPI DUP1 PUSH4 0x1D9B641A EQ PUSH2 0xDE JUMPI DUP1 PUSH4 0x50BB0884 EQ PUSH2 0x10E JUMPI DUP1 PUSH4 0x5729C211 EQ PUSH2 0x13E JUMPI DUP1 PUSH4 0x6BDBF8E6 EQ PUSH2 0x16E JUMPI JUMPDEST PUSH1 0x0 DUP1 REVERT JUMPDEST PUSH2 0xC8 PUSH1 0x4 DUP1 CALLDATASIZE SUB DUP2 ADD SWAP1 PUSH2 0xC3 SWAP2 SWAP1 PUSH2 0xF07 JUMP JUMPDEST PUSH2 0x2AC JUMP JUMPDEST PUSH1 0x40 MLOAD PUSH2 0xD5 SWAP2 SWAP1 PUSH2 0x1196 JUMP JUMPDEST PUSH1 0x40 MLOAD DUP1 SWAP2 SUB SWAP1 RETURN JUMPDEST PUSH2 0xF8 PUSH1 0x4 DUP1 CALLDATASIZE SUB DUP2 ADD SWAP1 PUSH2 0xF3 SWAP2 SWAP1 PUSH2 0xF07 JUMP JUMPDEST PUSH2 0x573 JUMP JUMPDEST PUSH1 0x40 MLOAD PUSH2 0x105 SWAP2 SWAP1 PUSH2 0x11B8 JUMP JUMPDEST PUSH1 0x40 MLOAD DUP1 SWAP2 SUB SWAP1 RETURN JUMPDEST PUSH2 0x128 PUSH1 0x4 DUP1 CALLDATASIZE SUB DUP2 ADD SWAP1 PUSH2 0x123 SWAP2 SWAP1 PUSH2 0xF07 JUMP JUMPDEST PUSH2 0x583 JUMP JUMPDEST PUSH1 0x40 MLOAD PUSH2 0x135 SWAP2 SWAP1 PUSH2 0x1196 JUMP JUMPDEST PUSH1 0x40 MLOAD DUP1 SWAP2 SUB SWAP1 RETURN JUMPDEST PUSH2 0x158 PUSH1 0x4 DUP1 CALLDATASIZE SUB DUP2 ADD SWAP1 PUSH2 0x153 SWAP2 SWAP1 PUSH2 0xF07 JUMP JUMPDEST PUSH2 0x84A JUMP JUMPDEST PUSH1 0x40 MLOAD PUSH2 0x165 SWAP2 SWAP1 PUSH2 0x1196 JUMP JUMPDEST PUSH1 0x40 MLOAD DUP1 SWAP2 SUB SWAP1 RETURN JUMPDEST PUSH2 0x176 PUSH2 0x9B7 JUMP JUMPDEST PUSH1 0x40 MLOAD PUSH2 0x183 SWAP2 SWAP1 PUSH2 0x1174 JUMP JUMPDEST PUSH1 0x40 MLOAD DUP1 SWAP2 SUB SWAP1 RETURN JUMPDEST PUSH2 0x1A6 PUSH1 0x4 DUP1 CALLDATASIZE SUB DUP2 ADD SWAP1 PUSH2 0x1A1 SWAP2 SWAP1 PUSH2 0xF48 JUMP JUMPDEST PUSH2 0xA56 JUMP JUMPDEST PUSH1 0x40 MLOAD PUSH2 0x1B3 SWAP2 SWAP1 PUSH2 0x113E JUMP JUMPDEST PUSH1 0x40 MLOAD DUP1 SWAP2 SUB SWAP1 RETURN JUMPDEST PUSH2 0x1D6 PUSH1 0x4 DUP1 CALLDATASIZE SUB DUP2 ADD SWAP1 PUSH2 0x1D1 SWAP2 SWAP1 PUSH2 0xF07 JUMP JUMPDEST PUSH2 0xB8E JUMP JUMPDEST PUSH1 0x40 MLOAD PUSH2 0x1E3 SWAP2 SWAP1 PUSH2 0x1196 JUMP JUMPDEST PUSH1 0x40 MLOAD DUP1 SWAP2 SUB SWAP1 RETURN JUMPDEST PUSH2 0x206 PUSH1 0x4 DUP1 CALLDATASIZE SUB DUP2 ADD SWAP1 PUSH2 0x201 SWAP2 SWAP1 PUSH2 0xF07 JUMP JUMPDEST PUSH2 0xC30 JUMP JUMPDEST PUSH1 0x40 MLOAD PUSH2 0x213 SWAP2 SWAP1 PUSH2 0x1174 JUMP JUMPDEST PUSH1 0x40 MLOAD DUP1 SWAP2 SUB SWAP1 RETURN JUMPDEST PUSH2 0x236 PUSH1 0x4 DUP1 CALLDATASIZE SUB DUP2 ADD SWAP1 PUSH2 0x231 SWAP2 SWAP1 PUSH2 0xEC6 JUMP JUMPDEST PUSH2 0xC3A JUMP JUMPDEST PUSH1 0x40 MLOAD PUSH2 0x243 SWAP2 SWAP1 PUSH2 0x1196 JUMP JUMPDEST PUSH1 0x40 MLOAD DUP1 SWAP2 SUB SWAP1 RETURN JUMPDEST PUSH2 0x266 PUSH1 0x4 DUP1 CALLDATASIZE SUB DUP2 ADD SWAP1 PUSH2 0x261 SWAP2 SWAP1 PUSH2 0xF07 JUMP JUMPDEST PUSH2 0xC44 JUMP JUMPDEST PUSH1 0x40 MLOAD PUSH2 0x273 SWAP2 SWAP1 PUSH2 0x1159 JUMP JUMPDEST PUSH1 0x40 MLOAD DUP1 SWAP2 SUB SWAP1 RETURN JUMPDEST PUSH2 0x296 PUSH1 0x4 DUP1 CALLDATASIZE SUB DUP2 ADD SWAP1 PUSH2 0x291 SWAP2 SWAP1 PUSH2 0xF07 JUMP JUMPDEST PUSH2 0xC9D JUMP JUMPDEST PUSH1 0x40 MLOAD PUSH2 0x2A3 SWAP2 SWAP1 PUSH2 0x11B8 JUMP JUMPDEST PUSH1 0x40 MLOAD DUP1 SWAP2 SUB SWAP1 RETURN JUMPDEST PUSH1 0x60 PUSH1 0x0 DUP3 SWAP1 POP PUSH1 0x0 DUP2 MLOAD SWAP1 POP PUSH1 0x0 DUP2 PUSH8 0xFFFFFFFFFFFFFFFF DUP2 GT ISZERO PUSH2 0x2FB JUMPI PUSH32 0x4E487B7100000000000000000000000000000000000000000000000000000000 PUSH1 0x0 MSTORE PUSH1 0x41 PUSH1 0x4 MSTORE PUSH1 0x24 PUSH1 0x0 REVERT JUMPDEST PUSH1 0x40 MLOAD SWAP1 DUP1 DUP3 MSTORE DUP1 PUSH1 0x1F ADD PUSH1 0x1F NOT AND PUSH1 0x20 ADD DUP3 ADD PUSH1 0x40 MSTORE DUP1 ISZERO PUSH2 0x32D JUMPI DUP2 PUSH1 0x20 ADD PUSH1 0x1 DUP3 MUL DUP1 CALLDATASIZE DUP4 CALLDATACOPY DUP1 DUP3 ADD SWAP2 POP POP SWAP1 POP JUMPDEST POP SWAP1 POP PUSH1 0x0 JUMPDEST DUP3 DUP2 LT ISZERO PUSH2 0x567 JUMPI PUSH1 0x61 DUP5 DUP3 DUP2 MLOAD DUP2 LT PUSH2 0x376 JUMPI PUSH32 0x4E487B7100000000000000000000000000000000000000000000000000000000 PUSH1 0x0 MSTORE PUSH1 0x32 PUSH1 0x4 MSTORE PUSH1 0x24 PUSH1 0x0 REVERT JUMPDEST PUSH1 0x20 ADD ADD MLOAD PUSH1 0xF8 SHR PUSH1 0xF8 SHL PUSH1 0xF8 SHR PUSH1 0xFF AND LT ISZERO DUP1 ISZERO PUSH2 0x3DF JUMPI POP PUSH1 0x7A DUP5 DUP3 DUP2 MLOAD DUP2 LT PUSH2 0x3CB JUMPI PUSH32 0x4E487B7100000000000000000000000000000000000000000000000000000000 PUSH1 0x0 MSTORE PUSH1 0x32 PUSH1 0x4 MSTORE PUSH1 0x24 PUSH1 0x0 REVERT JUMPDEST PUSH1 0x20 ADD ADD MLOAD PUSH1 0xF8 SHR PUSH1 0xF8 SHL PUSH1 0xF8 SHR PUSH1 0xFF AND GT ISZERO JUMPDEST ISZERO PUSH2 0x4A7 JUMPI PUSH1 0x20 DUP5 DUP3 DUP2 MLOAD DUP2 LT PUSH2 0x41F JUMPI PUSH32 0x4E487B7100000000000000000000000000000000000000000000000000000000 PUSH1 0x0 MSTORE PUSH1 0x32 PUSH1 0x4 MSTORE PUSH1 0x24 PUSH1 0x0 REVERT JUMPDEST PUSH1 0x20 ADD ADD MLOAD PUSH1 0xF8 SHR PUSH1 0xF8 SHL PUSH1 0xF8 SHR PUSH2 0x437 SWAP2 SWAP1 PUSH2 0x1327 JUMP JUMPDEST PUSH1 0xF8 SHL DUP3 DUP3 DUP2 MLOAD DUP2 LT PUSH2 0x473 JUMPI PUSH32 0x4E487B7100000000000000000000000000000000000000000000000000000000 PUSH1 0x0 MSTORE PUSH1 0x32 PUSH1 0x4 MSTORE PUSH1 0x24 PUSH1 0x0 REVERT JUMPDEST PUSH1 0x20 ADD ADD SWAP1 PUSH31 0xFFFFFFFFFFFFFFFFFFFFFFFFFFFFFFFFFFFFFFFFFFFFFFFFFFFFFFFFFFFFFF NOT AND SWAP1 DUP2 PUSH1 0x0 BYTE SWAP1 MSTORE8 POP PUSH2 0x554 JUMP JUMPDEST DUP4 DUP2 DUP2 MLOAD DUP2 LT PUSH2 0x4E0 JUMPI PUSH32 0x4E487B7100000000000000000000000000000000000000000000000000000000 PUSH1 0x0 MSTORE PUSH1 0x32 PUSH1 0x4 MSTORE PUSH1 0x24 PUSH1 0x0 REVERT JUMPDEST PUSH1 0x20 ADD ADD MLOAD PUSH1 0xF8 SHR PUSH1 0xF8 SHL DUP3 DUP3 DUP2 MLOAD DUP2 LT PUSH2 0x524 JUMPI PUSH32 0x4E487B7100000000000000000000000000000000000000000000000000000000 PUSH1 0x0 MSTORE PUSH1 0x32 PUSH1 0x4 MSTORE PUSH1 0x24 PUSH1 0x0 REVERT JUMPDEST PUSH1 0x20 ADD ADD SWAP1 PUSH31 0xFFFFFFFFFFFFFFFFFFFFFFFFFFFFFFFFFFFFFFFFFFFFFFFFFFFFFFFFFFFFFF NOT AND SWAP1 DUP2 PUSH1 0x0 BYTE SWAP1 MSTORE8 POP JUMPDEST DUP1 DUP1 PUSH2 0x55F SWAP1 PUSH2 0x141E JUMP JUMPDEST SWAP2 POP POP PUSH2 0x333 JUMP JUMPDEST POP DUP1 SWAP4 POP POP POP POP SWAP2 SWAP1 POP JUMP JUMPDEST PUSH1 0x0 DUP1 DUP3 MLOAD SWAP1 POP DUP1 SWAP2 POP POP SWAP2 SWAP1 POP JUMP JUMPDEST PUSH1 0x60 PUSH1 0x0 DUP3 SWAP1 POP PUSH1 0x0 DUP2 MLOAD SWAP1 POP PUSH1 0x0 DUP2 PUSH8 0xFFFFFFFFFFFFFFFF DUP2 GT ISZERO PUSH2 0x5D2 JUMPI PUSH32 0x4E487B7100000000000000000000000000000000000000000000000000000000 PUSH1 0x0 MSTORE PUSH1 0x41 PUSH1 0x4 MSTORE PUSH1 0x24 PUSH1 0x0 REVERT JUMPDEST PUSH1 0x40 MLOAD SWAP1 DUP1 DUP3 MSTORE DUP1 PUSH1 0x1F ADD PUSH1 0x1F NOT AND PUSH1 0x20 ADD DUP3 ADD PUSH1 0x40 MSTORE DUP1 ISZERO PUSH2 0x604 JUMPI DUP2 PUSH1 0x20 ADD PUSH1 0x1 DUP3 MUL DUP1 CALLDATASIZE DUP4 CALLDATACOPY DUP1 DUP3 ADD SWAP2 POP POP SWAP1 POP JUMPDEST POP SWAP1 POP PUSH1 0x0 JUMPDEST DUP3 DUP2 LT ISZERO PUSH2 0x83E JUMPI PUSH1 0x41 DUP5 DUP3 DUP2 MLOAD DUP2 LT PUSH2 0x64D JUMPI PUSH32 0x4E487B7100000000000000000000000000000000000000000000000000000000 PUSH1 0x0 MSTORE PUSH1 0x32 PUSH1 0x4 MSTORE PUSH1 0x24 PUSH1 0x0 REVERT JUMPDEST PUSH1 0x20 ADD ADD MLOAD PUSH1 0xF8 SHR PUSH1 0xF8 SHL PUSH1 0xF8 SHR PUSH1 0xFF AND LT ISZERO DUP1 ISZERO PUSH2 0x6B6 JUMPI POP PUSH1 0x5A DUP5 DUP3 DUP2 MLOAD DUP2 LT PUSH2 0x6A2 JUMPI PUSH32 0x4E487B7100000000000000000000000000000000000000000000000000000000 PUSH1 0x0 MSTORE PUSH1 0x32 PUSH1 0x4 MSTORE PUSH1 0x24 PUSH1 0x0 REVERT JUMPDEST PUSH1 0x20 ADD ADD MLOAD PUSH1 0xF8 SHR PUSH1 0xF8 SHL PUSH1 0xF8 SHR PUSH1 0xFF AND GT ISZERO JUMPDEST ISZERO PUSH2 0x77E JUMPI PUSH1 0x20 DUP5 DUP3 DUP2 MLOAD DUP2 LT PUSH2 0x6F6 JUMPI PUSH32 0x4E487B7100000000000000000000000000000000000000000000000000000000 PUSH1 0x0 MSTORE PUSH1 0x32 PUSH1 0x4 MSTORE PUSH1 0x24 PUSH1 0x0 REVERT JUMPDEST PUSH1 0x20 ADD ADD MLOAD PUSH1 0xF8 SHR PUSH1 0xF8 SHL PUSH1 0xF8 SHR PUSH2 0x70E SWAP2 SWAP1 PUSH2 0x12BC JUMP JUMPDEST PUSH1 0xF8 SHL DUP3 DUP3 DUP2 MLOAD DUP2 LT PUSH2 0x74A JUMPI PUSH32 0x4E487B7100000000000000000000000000000000000000000000000000000000 PUSH1 0x0 MSTORE PUSH1 0x32 PUSH1 0x4 MSTORE PUSH1 0x24 PUSH1 0x0 REVERT JUMPDEST PUSH1 0x20 ADD ADD SWAP1 PUSH31 0xFFFFFFFFFFFFFFFFFFFFFFFFFFFFFFFFFFFFFFFFFFFFFFFFFFFFFFFFFFFFFF NOT AND SWAP1 DUP2 PUSH1 0x0 BYTE SWAP1 MSTORE8 POP PUSH2 0x82B JUMP JUMPDEST DUP4 DUP2 DUP2 MLOAD DUP2 LT PUSH2 0x7B7 JUMPI PUSH32 0x4E487B7100000000000000000000000000000000000000000000000000000000 PUSH1 0x0 MSTORE PUSH1 0x32 PUSH1 0x4 MSTORE PUSH1 0x24 PUSH1 0x0 REVERT JUMPDEST PUSH1 0x20 ADD ADD MLOAD PUSH1 0xF8 SHR PUSH1 0xF8 SHL DUP3 DUP3 DUP2 MLOAD DUP2 LT PUSH2 0x7FB JUMPI PUSH32 0x4E487B7100000000000000000000000000000000000000000000000000000000 PUSH1 0x0 MSTORE PUSH1 0x32 PUSH1 0x4 MSTORE PUSH1 0x24 PUSH1 0x0 REVERT JUMPDEST PUSH1 0x20 ADD ADD SWAP1 PUSH31 0xFFFFFFFFFFFFFFFFFFFFFFFFFFFFFFFFFFFFFFFFFFFFFFFFFFFFFFFFFFFFFF NOT AND SWAP1 DUP2 PUSH1 0x0 BYTE SWAP1 MSTORE8 POP JUMPDEST DUP1 DUP1 PUSH2 0x836 SWAP1 PUSH2 0x141E JUMP JUMPDEST SWAP2 POP POP PUSH2 0x60A JUMP JUMPDEST POP DUP1 SWAP4 POP POP POP POP SWAP2 SWAP1 POP JUMP JUMPDEST PUSH1 0x60 PUSH1 0x0 DUP3 SWAP1 POP PUSH1 0x0 DUP2 MLOAD PUSH8 0xFFFFFFFFFFFFFFFF DUP2 GT ISZERO PUSH2 0x894 JUMPI PUSH32 0x4E487B7100000000000000000000000000000000000000000000000000000000 PUSH1 0x0 MSTORE PUSH1 0x41 PUSH1 0x4 MSTORE PUSH1 0x24 PUSH1 0x0 REVERT JUMPDEST PUSH1 0x40 MLOAD SWAP1 DUP1 DUP3 MSTORE DUP1 PUSH1 0x1F ADD PUSH1 0x1F NOT AND PUSH1 0x20 ADD DUP3 ADD PUSH1 0x40 MSTORE DUP1 ISZERO PUSH2 0x8C6 JUMPI DUP2 PUSH1 0x20 ADD PUSH1 0x1 DUP3 MUL DUP1 CALLDATASIZE DUP4 CALLDATACOPY DUP1 DUP3 ADD SWAP2 POP POP SWAP1 POP JUMPDEST POP SWAP1 POP PUSH1 0x0 JUMPDEST DUP3 MLOAD DUP2 LT ISZERO PUSH2 0x9AC JUMPI DUP3 DUP2 PUSH1 0x1 DUP6 MLOAD PUSH2 0x8E5 SWAP2 SWAP1 PUSH2 0x12F3 JUMP JUMPDEST PUSH2 0x8EF SWAP2 SWAP1 PUSH2 0x12F3 JUMP JUMPDEST DUP2 MLOAD DUP2 LT PUSH2 0x926 JUMPI PUSH32 0x4E487B7100000000000000000000000000000000000000000000000000000000 PUSH1 0x0 MSTORE PUSH1 0x32 PUSH1 0x4 MSTORE PUSH1 0x24 PUSH1 0x0 REVERT JUMPDEST PUSH1 0x20 ADD ADD MLOAD PUSH1 0xF8 SHR PUSH1 0xF8 SHL DUP3 DUP3 DUP2 MLOAD DUP2 LT PUSH2 0x96A JUMPI PUSH32 0x4E487B7100000000000000000000000000000000000000000000000000000000 PUSH1 0x0 MSTORE PUSH1 0x32 PUSH1 0x4 MSTORE PUSH1 0x24 PUSH1 0x0 REVERT JUMPDEST PUSH1 0x20 ADD ADD SWAP1 PUSH31 0xFFFFFFFFFFFFFFFFFFFFFFFFFFFFFFFFFFFFFFFFFFFFFFFFFFFFFFFFFFFFFF NOT AND SWAP1 DUP2 PUSH1 0x0 BYTE SWAP1 MSTORE8 POP DUP1 DUP1 PUSH2 0x9A4 SWAP1 PUSH2 0x141E JUMP JUMPDEST SWAP2 POP POP PUSH2 0x8CC JUMP JUMPDEST POP DUP1 SWAP3 POP POP POP SWAP2 SWAP1 POP JUMP JUMPDEST PUSH1 0x60 PUSH1 0x0 PUSH1 0x40 MLOAD DUP1 PUSH1 0x40 ADD PUSH1 0x40 MSTORE DUP1 PUSH1 0x5 DUP2 MSTORE PUSH1 0x20 ADD PUSH32 0x48656C6C6F000000000000000000000000000000000000000000000000000000 DUP2 MSTORE POP SWAP1 POP PUSH1 0x0 PUSH1 0x40 MLOAD DUP1 PUSH1 0x40 ADD PUSH1 0x40 MSTORE DUP1 PUSH1 0x6 DUP2 MSTORE PUSH1 0x20 ADD PUSH32 0x576F726C64210000000000000000000000000000000000000000000000000000 DUP2 MSTORE POP SWAP1 POP DUP2 DUP2 PUSH1 0x40 MLOAD PUSH1 0x20 ADD PUSH2 0xA40 SWAP3 SWAP2 SWAP1 PUSH2 0x1103 JUMP JUMPDEST PUSH1 0x40 MLOAD PUSH1 0x20 DUP2 DUP4 SUB SUB DUP2 MSTORE SWAP1 PUSH1 0x40 MSTORE SWAP3 POP POP POP SWAP1 JUMP JUMPDEST PUSH1 0x0 DUP1 DUP4 SWAP1 POP PUSH1 0x0 DUP4 SWAP1 POP PUSH1 0x0 DUP3 MLOAD SWAP1 POP PUSH1 0x0 DUP3 MLOAD SWAP1 POP DUP1 DUP3 EQ PUSH2 0xA81 JUMPI PUSH1 0x0 SWAP5 POP POP POP POP POP PUSH2 0xB88 JUMP JUMPDEST PUSH1 0x0 JUMPDEST DUP3 DUP2 LT ISZERO PUSH2 0xB7E JUMPI DUP4 DUP2 DUP2 MLOAD DUP2 LT PUSH2 0xAC5 JUMPI PUSH32 0x4E487B7100000000000000000000000000000000000000000000000000000000 PUSH1 0x0 MSTORE PUSH1 0x32 PUSH1 0x4 MSTORE PUSH1 0x24 PUSH1 0x0 REVERT JUMPDEST PUSH1 0x20 ADD ADD MLOAD PUSH1 0xF8 SHR PUSH1 0xF8 SHL PUSH31 0xFFFFFFFFFFFFFFFFFFFFFFFFFFFFFFFFFFFFFFFFFFFFFFFFFFFFFFFFFFFFFF NOT AND DUP6 DUP3 DUP2 MLOAD DUP2 LT PUSH2 0xB2B JUMPI PUSH32 0x4E487B7100000000000000000000000000000000000000000000000000000000 PUSH1 0x0 MSTORE PUSH1 0x32 PUSH1 0x4 MSTORE PUSH1 0x24 PUSH1 0x0 REVERT JUMPDEST PUSH1 0x20 ADD ADD MLOAD PUSH1 0xF8 SHR PUSH1 0xF8 SHL PUSH31 0xFFFFFFFFFFFFFFFFFFFFFFFFFFFFFFFFFFFFFFFFFFFFFFFFFFFFFFFFFFFFFF NOT AND EQ PUSH2 0xB6B JUMPI PUSH1 0x0 SWAP6 POP POP POP POP POP POP PUSH2 0xB88 JUMP JUMPDEST DUP1 DUP1 PUSH2 0xB76 SWAP1 PUSH2 0x141E JUMP JUMPDEST SWAP2 POP POP PUSH2 0xA84 JUMP JUMPDEST POP PUSH1 0x1 SWAP5 POP POP POP POP POP JUMPDEST SWAP3 SWAP2 POP POP JUMP JUMPDEST PUSH1 0x60 PUSH1 0x0 PUSH1 0x40 MLOAD PUSH2 0xB9F SWAP2 SWAP1 PUSH2 0x1127 JUMP JUMPDEST PUSH1 0x40 MLOAD DUP1 SWAP2 SUB SWAP1 KECCAK256 DUP3 DUP1 MLOAD SWAP1 PUSH1 0x20 ADD KECCAK256 EQ ISZERO PUSH2 0xBF2 JUMPI PUSH1 0x40 MLOAD DUP1 PUSH1 0x40 ADD PUSH1 0x40 MSTORE DUP1 PUSH1 0xE DUP2 MSTORE PUSH1 0x20 ADD PUSH32 0x416363657373204772616E746564000000000000000000000000000000000000 DUP2 MSTORE POP SWAP1 POP PUSH2 0xC2B JUMP JUMPDEST PUSH1 0x40 MLOAD DUP1 PUSH1 0x40 ADD PUSH1 0x40 MSTORE DUP1 PUSH1 0xD DUP2 MSTORE PUSH1 0x20 ADD PUSH32 0x4163636573732044656E69656400000000000000000000000000000000000000 DUP2 MSTORE POP SWAP1 POP JUMPDEST SWAP2 SWAP1 POP JUMP JUMPDEST PUSH1 0x60 DUP2 SWAP1 POP SWAP2 SWAP1 POP JUMP JUMPDEST PUSH1 0x60 DUP2 SWAP1 POP SWAP2 SWAP1 POP JUMP JUMPDEST PUSH1 0x0 DUP1 DUP3 SWAP1 POP PUSH1 0x0 DUP2 PUSH1 0x5 DUP2 MLOAD DUP2 LT PUSH2 0xC86 JUMPI PUSH32 0x4E487B7100000000000000000000000000000000000000000000000000000000 PUSH1 0x0 MSTORE PUSH1 0x32 PUSH1 0x4 MSTORE PUSH1 0x24 PUSH1 0x0 REVERT JUMPDEST PUSH1 0x20 ADD ADD MLOAD PUSH1 0xF8 SHR PUSH1 0xF8 SHL SWAP1 POP DUP1 SWAP3 POP POP POP SWAP2 SWAP1 POP JUMP JUMPDEST PUSH1 0x0 DUP1 DUP3 SWAP1 POP PUSH1 0x0 DUP2 MLOAD SWAP1 POP PUSH1 0x0 DUP2 EQ ISZERO PUSH2 0xCBD JUMPI PUSH1 0x0 SWAP3 POP POP POP PUSH2 0xDF1 JUMP JUMPDEST PUSH1 0x0 DUP1 PUSH1 0x0 JUMPDEST DUP4 DUP2 LT ISZERO PUSH2 0xDE8 JUMPI PUSH1 0x20 PUSH1 0xF8 SHL DUP6 DUP3 DUP2 MLOAD DUP2 LT PUSH2 0xD09 JUMPI PUSH32 0x4E487B7100000000000000000000000000000000000000000000000000000000 PUSH1 0x0 MSTORE PUSH1 0x32 PUSH1 0x4 MSTORE PUSH1 0x24 PUSH1 0x0 REVERT JUMPDEST PUSH1 0x20 ADD ADD MLOAD PUSH1 0xF8 SHR PUSH1 0xF8 SHL PUSH31 0xFFFFFFFFFFFFFFFFFFFFFFFFFFFFFFFFFFFFFFFFFFFFFFFFFFFFFFFFFFFFFF NOT AND EQ ISZERO DUP1 ISZERO PUSH2 0xD42 JUMPI POP DUP2 ISZERO JUMPDEST ISZERO PUSH2 0xD5E JUMPI PUSH1 0x1 SWAP2 POP DUP3 DUP1 PUSH2 0xD56 SWAP1 PUSH2 0x141E JUMP JUMPDEST SWAP4 POP POP PUSH2 0xDD5 JUMP JUMPDEST PUSH1 0x20 PUSH1 0xF8 SHL DUP6 DUP3 DUP2 MLOAD DUP2 LT PUSH2 0xD9C JUMPI PUSH32 0x4E487B7100000000000000000000000000000000000000000000000000000000 PUSH1 0x0 MSTORE PUSH1 0x32 PUSH1 0x4 MSTORE PUSH1 0x24 PUSH1 0x0 REVERT JUMPDEST PUSH1 0x20 ADD ADD MLOAD PUSH1 0xF8 SHR PUSH1 0xF8 SHL PUSH31 0xFFFFFFFFFFFFFFFFFFFFFFFFFFFFFFFFFFFFFFFFFFFFFFFFFFFFFFFFFFFFFF NOT AND EQ ISZERO PUSH2 0xDD4 JUMPI PUSH1 0x0 SWAP2 POP JUMPDEST JUMPDEST DUP1 DUP1 PUSH2 0xDE0 SWAP1 PUSH2 0x141E JUMP JUMPDEST SWAP2 POP POP PUSH2 0xCC3 JUMP JUMPDEST POP DUP2 SWAP5 POP POP POP POP POP JUMPDEST SWAP2 SWAP1 POP JUMP JUMPDEST PUSH1 0x0 PUSH2 0xE09 PUSH2 0xE04 DUP5 PUSH2 0x1204 JUMP JUMPDEST PUSH2 0x11D3 JUMP JUMPDEST SWAP1 POP DUP3 DUP2 MSTORE PUSH1 0x20 DUP2 ADD DUP5 DUP5 DUP5 ADD GT ISZERO PUSH2 0xE21 JUMPI PUSH1 0x0 DUP1 REVERT JUMPDEST PUSH2 0xE2C DUP5 DUP3 DUP6 PUSH2 0x13AA JUMP JUMPDEST POP SWAP4 SWAP3 POP POP POP JUMP JUMPDEST PUSH1 0x0 PUSH2 0xE47 PUSH2 0xE42 DUP5 PUSH2 0x1234 JUMP JUMPDEST PUSH2 0x11D3 JUMP JUMPDEST SWAP1 POP DUP3 DUP2 MSTORE PUSH1 0x20 DUP2 ADD DUP5 DUP5 DUP5 ADD GT ISZERO PUSH2 0xE5F JUMPI PUSH1 0x0 DUP1 REVERT JUMPDEST PUSH2 0xE6A DUP5 DUP3 DUP6 PUSH2 0x13AA JUMP JUMPDEST POP SWAP4 SWAP3 POP POP POP JUMP JUMPDEST PUSH1 0x0 DUP3 PUSH1 0x1F DUP4 ADD SLT PUSH2 0xE83 JUMPI PUSH1 0x0 DUP1 REVERT JUMPDEST DUP2 CALLDATALOAD PUSH2 0xE93 DUP5 DUP3 PUSH1 0x20 DUP7 ADD PUSH2 0xDF6 JUMP JUMPDEST SWAP2 POP POP SWAP3 SWAP2 POP POP JUMP JUMPDEST PUSH1 0x0 DUP3 PUSH1 0x1F DUP4 ADD SLT PUSH2 0xEAD JUMPI PUSH1 0x0 DUP1 REVERT JUMPDEST DUP2 CALLDATALOAD PUSH2 0xEBD DUP5 DUP3 PUSH1 0x20 DUP7 ADD PUSH2 0xE34 JUMP JUMPDEST SWAP2 POP POP SWAP3 SWAP2 POP POP JUMP JUMPDEST PUSH1 0x0 PUSH1 0x20 DUP3 DUP5 SUB SLT ISZERO PUSH2 0xED8 JUMPI PUSH1 0x0 DUP1 REVERT JUMPDEST PUSH1 0x0 DUP3 ADD CALLDATALOAD PUSH8 0xFFFFFFFFFFFFFFFF DUP2 GT ISZERO PUSH2 0xEF2 JUMPI PUSH1 0x0 DUP1 REVERT JUMPDEST PUSH2 0xEFE DUP5 DUP3 DUP6 ADD PUSH2 0xE72 JUMP JUMPDEST SWAP2 POP POP SWAP3 SWAP2 POP POP JUMP JUMPDEST PUSH1 0x0 PUSH1 0x20 DUP3 DUP5 SUB SLT ISZERO PUSH2 0xF19 JUMPI PUSH1 0x0 DUP1 REVERT JUMPDEST PUSH1 0x0 DUP3 ADD CALLDATALOAD PUSH8 0xFFFFFFFFFFFFFFFF DUP2 GT ISZERO PUSH2 0xF33 JUMPI PUSH1 0x0 DUP1 REVERT JUMPDEST PUSH2 0xF3F DUP5 DUP3 DUP6 ADD PUSH2 0xE9C JUMP JUMPDEST SWAP2 POP POP SWAP3 SWAP2 POP POP JUMP JUMPDEST PUSH1 0x0 DUP1 PUSH1 0x40 DUP4 DUP6 SUB SLT ISZERO PUSH2 0xF5B JUMPI PUSH1 0x0 DUP1 REVERT JUMPDEST PUSH1 0x0 DUP4 ADD CALLDATALOAD PUSH8 0xFFFFFFFFFFFFFFFF DUP2 GT ISZERO PUSH2 0xF75 JUMPI PUSH1 0x0 DUP1 REVERT JUMPDEST PUSH2 0xF81 DUP6 DUP3 DUP7 ADD PUSH2 0xE9C JUMP JUMPDEST SWAP3 POP POP PUSH1 0x20 DUP4 ADD CALLDATALOAD PUSH8 0xFFFFFFFFFFFFFFFF DUP2 GT ISZERO PUSH2 0xF9E JUMPI PUSH1 0x0 DUP1 REVERT JUMPDEST PUSH2 0xFAA DUP6 DUP3 DUP7 ADD PUSH2 0xE9C JUMP JUMPDEST SWAP2 POP POP SWAP3 POP SWAP3 SWAP1 POP JUMP JUMPDEST PUSH2 0xFBD DUP2 PUSH2 0x135B JUMP JUMPDEST DUP3 MSTORE POP POP JUMP JUMPDEST PUSH2 0xFCC DUP2 PUSH2 0x1367 JUMP JUMPDEST DUP3 MSTORE POP POP JUMP JUMPDEST PUSH1 0x0 PUSH2 0xFDD DUP3 PUSH2 0x1279 JUMP JUMPDEST PUSH2 0xFE7 DUP2 DUP6 PUSH2 0x128F JUMP JUMPDEST SWAP4 POP PUSH2 0xFF7 DUP2 DUP6 PUSH1 0x20 DUP7 ADD PUSH2 0x13B9 JUMP JUMPDEST PUSH2 0x1000 DUP2 PUSH2 0x14F4 JUMP JUMPDEST DUP5 ADD SWAP2 POP POP SWAP3 SWAP2 POP POP JUMP JUMPDEST PUSH1 0x0 PUSH2 0x1016 DUP3 PUSH2 0x1279 JUMP JUMPDEST PUSH2 0x1020 DUP2 DUP6 PUSH2 0x12A0 JUMP JUMPDEST SWAP4 POP PUSH2 0x1030 DUP2 DUP6 PUSH1 0x20 DUP7 ADD PUSH2 0x13B9 JUMP JUMPDEST DUP1 DUP5 ADD SWAP2 POP POP SWAP3 SWAP2 POP POP JUMP JUMPDEST PUSH1 0x0 DUP2 SLOAD PUSH2 0x1049 DUP2 PUSH2 0x13EC JUMP JUMPDEST PUSH2 0x1053 DUP2 DUP7 PUSH2 0x12A0 JUMP JUMPDEST SWAP5 POP PUSH1 0x1 DUP3 AND PUSH1 0x0 DUP2 EQ PUSH2 0x106E JUMPI PUSH1 0x1 DUP2 EQ PUSH2 0x107F JUMPI PUSH2 0x10B2 JUMP JUMPDEST PUSH1 0xFF NOT DUP4 AND DUP7 MSTORE DUP2 DUP7 ADD SWAP4 POP PUSH2 0x10B2 JUMP JUMPDEST PUSH2 0x1088 DUP6 PUSH2 0x1264 JUMP JUMPDEST PUSH1 0x0 JUMPDEST DUP4 DUP2 LT ISZERO PUSH2 0x10AA JUMPI DUP2 SLOAD DUP2 DUP10 ADD MSTORE PUSH1 0x1 DUP3 ADD SWAP2 POP PUSH1 0x20 DUP2 ADD SWAP1 POP PUSH2 0x108B JUMP JUMPDEST DUP4 DUP9 ADD SWAP6 POP POP POP JUMPDEST POP POP POP SWAP3 SWAP2 POP POP JUMP JUMPDEST PUSH1 0x0 PUSH2 0x10C6 DUP3 PUSH2 0x1284 JUMP JUMPDEST PUSH2 0x10D0 DUP2 DUP6 PUSH2 0x12AB JUMP JUMPDEST SWAP4 POP PUSH2 0x10E0 DUP2 DUP6 PUSH1 0x20 DUP7 ADD PUSH2 0x13B9 JUMP JUMPDEST PUSH2 0x10E9 DUP2 PUSH2 0x14F4 JUMP JUMPDEST DUP5 ADD SWAP2 POP POP SWAP3 SWAP2 POP POP JUMP JUMPDEST PUSH2 0x10FD DUP2 PUSH2 0x1393 JUMP JUMPDEST DUP3 MSTORE POP POP JUMP JUMPDEST PUSH1 0x0 PUSH2 0x110F DUP3 DUP6 PUSH2 0x100B JUMP JUMPDEST SWAP2 POP PUSH2 0x111B DUP3 DUP5 PUSH2 0x100B JUMP JUMPDEST SWAP2 POP DUP2 SWAP1 POP SWAP4 SWAP3 POP POP POP JUMP JUMPDEST PUSH1 0x0 PUSH2 0x1133 DUP3 DUP5 PUSH2 0x103C JUMP JUMPDEST SWAP2 POP DUP2 SWAP1 POP SWAP3 SWAP2 POP POP JUMP JUMPDEST PUSH1 0x0 PUSH1 0x20 DUP3 ADD SWAP1 POP PUSH2 0x1153 PUSH1 0x0 DUP4 ADD DUP5 PUSH2 0xFB4 JUMP JUMPDEST SWAP3 SWAP2 POP POP JUMP JUMPDEST PUSH1 0x0 PUSH1 0x20 DUP3 ADD SWAP1 POP PUSH2 0x116E PUSH1 0x0 DUP4 ADD DUP5 PUSH2 0xFC3 JUMP JUMPDEST SWAP3 SWAP2 POP POP JUMP JUMPDEST PUSH1 0x0 PUSH1 0x20 DUP3 ADD SWAP1 POP DUP2 DUP2 SUB PUSH1 0x0 DUP4 ADD MSTORE PUSH2 0x118E DUP2 DUP5 PUSH2 0xFD2 JUMP JUMPDEST SWAP1 POP SWAP3 SWAP2 POP POP JUMP JUMPDEST PUSH1 0x0 PUSH1 0x20 DUP3 ADD SWAP1 POP DUP2 DUP2 SUB PUSH1 0x0 DUP4 ADD MSTORE PUSH2 0x11B0 DUP2 DUP5 PUSH2 0x10BB JUMP JUMPDEST SWAP1 POP SWAP3 SWAP2 POP POP JUMP JUMPDEST PUSH1 0x0 PUSH1 0x20 DUP3 ADD SWAP1 POP PUSH2 0x11CD PUSH1 0x0 DUP4 ADD DUP5 PUSH2 0x10F4 JUMP JUMPDEST SWAP3 SWAP2 POP POP JUMP JUMPDEST PUSH1 0x0 PUSH1 0x40 MLOAD SWAP1 POP DUP2 DUP2 ADD DUP2 DUP2 LT PUSH8 0xFFFFFFFFFFFFFFFF DUP3 GT OR ISZERO PUSH2 0x11FA JUMPI PUSH2 0x11F9 PUSH2 0x14C5 JUMP JUMPDEST JUMPDEST DUP1 PUSH1 0x40 MSTORE POP SWAP2 SWAP1 POP JUMP JUMPDEST PUSH1 0x0 PUSH8 0xFFFFFFFFFFFFFFFF DUP3 GT ISZERO PUSH2 0x121F JUMPI PUSH2 0x121E PUSH2 0x14C5 JUMP JUMPDEST JUMPDEST PUSH1 0x1F NOT PUSH1 0x1F DUP4 ADD AND SWAP1 POP PUSH1 0x20 DUP2 ADD SWAP1 POP SWAP2 SWAP1 POP JUMP JUMPDEST PUSH1 0x0 PUSH8 0xFFFFFFFFFFFFFFFF DUP3 GT ISZERO PUSH2 0x124F JUMPI PUSH2 0x124E PUSH2 0x14C5 JUMP JUMPDEST JUMPDEST PUSH1 0x1F NOT PUSH1 0x1F DUP4 ADD AND SWAP1 POP PUSH1 0x20 DUP2 ADD SWAP1 POP SWAP2 SWAP1 POP JUMP JUMPDEST PUSH1 0x0 DUP2 SWAP1 POP DUP2 PUSH1 0x0 MSTORE PUSH1 0x20 PUSH1 0x0 KECCAK256 SWAP1 POP SWAP2 SWAP1 POP JUMP JUMPDEST PUSH1 0x0 DUP2 MLOAD SWAP1 POP SWAP2 SWAP1 POP JUMP JUMPDEST PUSH1 0x0 DUP2 MLOAD SWAP1 POP SWAP2 SWAP1 POP JUMP JUMPDEST PUSH1 0x0 DUP3 DUP3 MSTORE PUSH1 0x20 DUP3 ADD SWAP1 POP SWAP3 SWAP2 POP POP JUMP JUMPDEST PUSH1 0x0 DUP2 SWAP1 POP SWAP3 SWAP2 POP POP JUMP JUMPDEST PUSH1 0x0 DUP3 DUP3 MSTORE PUSH1 0x20 DUP3 ADD SWAP1 POP SWAP3 SWAP2 POP POP JUMP JUMPDEST PUSH1 0x0 PUSH2 0x12C7 DUP3 PUSH2 0x139D JUMP JUMPDEST SWAP2 POP PUSH2 0x12D2 DUP4 PUSH2 0x139D JUMP JUMPDEST SWAP3 POP DUP3 PUSH1 0xFF SUB DUP3 GT ISZERO PUSH2 0x12E8 JUMPI PUSH2 0x12E7 PUSH2 0x1467 JUMP JUMPDEST JUMPDEST DUP3 DUP3 ADD SWAP1 POP SWAP3 SWAP2 POP POP JUMP JUMPDEST PUSH1 0x0 PUSH2 0x12FE DUP3 PUSH2 0x1393 JUMP JUMPDEST SWAP2 POP PUSH2 0x1309 DUP4 PUSH2 0x1393 JUMP JUMPDEST SWAP3 POP DUP3 DUP3 LT ISZERO PUSH2 0x131C JUMPI PUSH2 0x131B PUSH2 0x1467 JUMP JUMPDEST JUMPDEST DUP3 DUP3 SUB SWAP1 POP SWAP3 SWAP2 POP POP JUMP JUMPDEST PUSH1 0x0 PUSH2 0x1332 DUP3 PUSH2 0x139D JUMP JUMPDEST SWAP2 POP PUSH2 0x133D DUP4 PUSH2 0x139D JUMP JUMPDEST SWAP3 POP DUP3 DUP3 LT ISZERO PUSH2 0x1350 JUMPI PUSH2 0x134F PUSH2 0x1467 JUMP JUMPDEST JUMPDEST DUP3 DUP3 SUB SWAP1 POP SWAP3 SWAP2 POP POP JUMP JUMPDEST PUSH1 0x0 DUP2 ISZERO ISZERO SWAP1 POP SWAP2 SWAP1 POP JUMP JUMPDEST PUSH1 0x0 PUSH32 0xFF00000000000000000000000000000000000000000000000000000000000000 DUP3 AND SWAP1 POP SWAP2 SWAP1 POP JUMP JUMPDEST PUSH1 0x0 DUP2 SWAP1 POP SWAP2 SWAP1 POP JUMP JUMPDEST PUSH1 0x0 PUSH1 0xFF DUP3 AND SWAP1 POP SWAP2 SWAP1 POP JUMP JUMPDEST DUP3 DUP2 DUP4 CALLDATACOPY PUSH1 0x0 DUP4 DUP4 ADD MSTORE POP POP POP JUMP JUMPDEST PUSH1 0x0 JUMPDEST DUP4 DUP2 LT ISZERO PUSH2 0x13D7 JUMPI DUP1 DUP3 ADD MLOAD DUP2 DUP5 ADD MSTORE PUSH1 0x20 DUP2 ADD SWAP1 POP PUSH2 0x13BC JUMP JUMPDEST DUP4 DUP2 GT ISZERO PUSH2 0x13E6 JUMPI PUSH1 0x0 DUP5 DUP5 ADD MSTORE JUMPDEST POP POP POP POP JUMP JUMPDEST PUSH1 0x0 PUSH1 0x2 DUP3 DIV SWAP1 POP PUSH1 0x1 DUP3 AND DUP1 PUSH2 0x1404 JUMPI PUSH1 0x7F DUP3 AND SWAP2 POP JUMPDEST PUSH1 0x20 DUP3 LT DUP2 EQ ISZERO PUSH2 0x1418 JUMPI PUSH2 0x1417 PUSH2 0x1496 JUMP JUMPDEST JUMPDEST POP SWAP2 SWAP1 POP JUMP JUMPDEST PUSH1 0x0 PUSH2 0x1429 DUP3 PUSH2 0x1393 JUMP JUMPDEST SWAP2 POP PUSH32 0xFFFFFFFFFFFFFFFFFFFFFFFFFFFFFFFFFFFFFFFFFFFFFFFFFFFFFFFFFFFFFFFF DUP3 EQ ISZERO PUSH2 0x145C JUMPI PUSH2 0x145B PUSH2 0x1467 JUMP JUMPDEST JUMPDEST PUSH1 0x1 DUP3 ADD SWAP1 POP SWAP2 SWAP1 POP JUMP JUMPDEST PUSH32 0x4E487B7100000000000000000000000000000000000000000000000000000000 PUSH1 0x0 MSTORE PUSH1 0x11 PUSH1 0x4 MSTORE PUSH1 0x24 PUSH1 0x0 REVERT JUMPDEST PUSH32 0x4E487B7100000000000000000000000000000000000000000000000000000000 PUSH1 0x0 MSTORE PUSH1 0x22 PUSH1 0x4 MSTORE PUSH1 0x24 PUSH1 0x0 REVERT JUMPDEST PUSH32 0x4E487B7100000000000000000000000000000000000000000000000000000000 PUSH1 0x0 MSTORE PUSH1 0x41 PUSH1 0x4 MSTORE PUSH1 0x24 PUSH1 0x0 REVERT JUMPDEST PUSH1 0x0 PUSH1 0x1F NOT PUSH1 0x1F DUP4 ADD AND SWAP1 POP SWAP2 SWAP1 POP JUMP INVALID LOG2 PUSH5 0x6970667358 0x22 SLT KECCAK256 SWAP16 SWAP15 TIMESTAMP 0xAC PUSH28 0x21781C8963A51EE974565807AB5DD4ABCCAF2A8D488DA00638FDF64 PUSH20 0x6F6C634300080000330000000000000000000000 "
				},
				"gasEstimates": {
					"creation": {
						"codeDepositCost": "1087000",
						"executionCost": "infinite",
						"totalCost": "infinite"
					},
					"external": {
						"bytestoString(bytes)": "infinite",
						"checkPassword(string)": "infinite",
						"compareString(string,string)": "infinite",
						"concat()": "infinite",
						"countWords(string)": "infinite",
						"getFirstByte(string)": "infinite",
						"password_in_bytes(string)": "infinite",
						"password_length(string)": "infinite",
						"reverseString(string)": "infinite",
						"toLowercase(string)": "infinite",
						"toUppercase(string)": "infinite"
					}
				},
				"methodIdentifiers": {
					"bytestoString(bytes)": "92d2a735",
					"checkPassword(string)": "87e16d4d",
					"compareString(string,string)": "75b83187",
					"concat()": "6bdbf8e6",
					"countWords(string)": "d546b78d",
					"getFirstByte(string)": "bf99f4fb",
					"password_in_bytes(string)": "8b2206e7",
					"password_length(string)": "1d9b641a",
					"reverseString(string)": "5729c211",
					"toLowercase(string)": "50bb0884",
					"toUppercase(string)": "074ae3d7"
				}
			},
			"storageLayout": {
				"storage": [
					{
						"astId": 4,
						"contract": "Practice/passwordChecker.sol:passwordChecker",
						"label": "password",
						"offset": 0,
						"slot": "0",
						"type": "t_string_storage"
					}
				],
				"types": {
					"t_string_storage": {
						"encoding": "bytes",
						"label": "string",
						"numberOfBytes": "32"
					}
				}
			},
			"userdoc": {
				"kind": "user",
				"methods": {},
				"version": 1
			}
		}
	}
}