{
	"Practice/IncreDecre.sol": {
		"IncreDecre": {
			"abi": [
				{
					"inputs": [],
					"name": "Decrement",
					"outputs": [
						{
							"internalType": "uint256",
							"name": "",
							"type": "uint256"
						}
					],
					"stateMutability": "nonpayable",
					"type": "function"
				},
				{
					"inputs": [],
					"name": "Increment",
					"outputs": [
						{
							"internalType": "uint256",
							"name": "",
							"type": "uint256"
						}
					],
					"stateMutability": "nonpayable",
					"type": "function"
				},
				{
					"inputs": [],
					"name": "value",
					"outputs": [
						{
							"internalType": "uint256",
							"name": "",
							"type": "uint256"
						}
					],
					"stateMutability": "view",
					"type": "function"
				}
			],
			"devdoc": {
				"kind": "dev",
				"methods": {},
				"version": 1
			},
			"evm": {
				"assembly": "    /* \"Practice/IncreDecre.sol\":60:313  contract IncreDecre{... */\n  mstore(0x40, 0x80)\n    /* \"Practice/IncreDecre.sol\":107:108  0 */\n  0x00\n    /* \"Practice/IncreDecre.sol\":87:108  uint public value = 0 */\n  0x00\n  sstore\n    /* \"Practice/IncreDecre.sol\":60:313  contract IncreDecre{... */\n  callvalue\n  dup1\n  iszero\n  tag_1\n  jumpi\n  revert(0x00, 0x00)\ntag_1:\n  pop\n  dataSize(sub_0)\n  dup1\n  dataOffset(sub_0)\n  0x00\n  codecopy\n  0x00\n  return\nstop\n\nsub_0: assembly {\n        /* \"Practice/IncreDecre.sol\":60:313  contract IncreDecre{... */\n      mstore(0x40, 0x80)\n      callvalue\n      dup1\n      iszero\n      tag_1\n      jumpi\n      revert(0x00, 0x00)\n    tag_1:\n      pop\n      jumpi(tag_2, lt(calldatasize, 0x04))\n      shr(0xe0, calldataload(0x00))\n      dup1\n      0x20ed8b89\n      eq\n      tag_3\n      jumpi\n      dup1\n      0x3fa4f245\n      eq\n      tag_4\n      jumpi\n      dup1\n      0x648b7ce8\n      eq\n      tag_5\n      jumpi\n    tag_2:\n      revert(0x00, 0x00)\n        /* \"Practice/IncreDecre.sol\":219:310  function Decrement() public returns(uint){... */\n    tag_3:\n      tag_6\n      tag_7\n      jump\t// in\n    tag_6:\n      mload(0x40)\n      tag_8\n      swap2\n      swap1\n      tag_9\n      jump\t// in\n    tag_8:\n      mload(0x40)\n      dup1\n      swap2\n      sub\n      swap1\n      return\n        /* \"Practice/IncreDecre.sol\":87:108  uint public value = 0 */\n    tag_4:\n      tag_10\n      tag_11\n      jump\t// in\n    tag_10:\n      mload(0x40)\n      tag_12\n      swap2\n      swap1\n      tag_9\n      jump\t// in\n    tag_12:\n      mload(0x40)\n      dup1\n      swap2\n      sub\n      swap1\n      return\n        /* \"Practice/IncreDecre.sol\":118:209  function Increment() public returns(uint){... */\n    tag_5:\n      tag_13\n      tag_14\n      jump\t// in\n    tag_13:\n      mload(0x40)\n      tag_15\n      swap2\n      swap1\n      tag_9\n      jump\t// in\n    tag_15:\n      mload(0x40)\n      dup1\n      swap2\n      sub\n      swap1\n      return\n        /* \"Practice/IncreDecre.sol\":219:310  function Decrement() public returns(uint){... */\n    tag_7:\n        /* \"Practice/IncreDecre.sol\":255:259  uint */\n      0x00\n        /* \"Practice/IncreDecre.sol\":271:276  value */\n      0x00\n      0x00\n        /* \"Practice/IncreDecre.sol\":271:278  value-- */\n      dup2\n      sload\n      dup1\n      swap3\n      swap2\n      swap1\n      tag_17\n      swap1\n      tag_18\n      jump\t// in\n    tag_17:\n      swap2\n      swap1\n      pop\n      sstore\n      pop\n        /* \"Practice/IncreDecre.sol\":296:301  value */\n      sload(0x00)\n        /* \"Practice/IncreDecre.sol\":289:301  return value */\n      swap1\n      pop\n        /* \"Practice/IncreDecre.sol\":219:310  function Decrement() public returns(uint){... */\n      swap1\n      jump\t// out\n        /* \"Practice/IncreDecre.sol\":87:108  uint public value = 0 */\n    tag_11:\n      sload(0x00)\n      dup2\n      jump\t// out\n        /* \"Practice/IncreDecre.sol\":118:209  function Increment() public returns(uint){... */\n    tag_14:\n        /* \"Practice/IncreDecre.sol\":154:158  uint */\n      0x00\n        /* \"Practice/IncreDecre.sol\":170:175  value */\n      0x00\n      0x00\n        /* \"Practice/IncreDecre.sol\":170:177  value++ */\n      dup2\n      sload\n      dup1\n      swap3\n      swap2\n      swap1\n      tag_20\n      swap1\n      tag_21\n      jump\t// in\n    tag_20:\n      swap2\n      swap1\n      pop\n      sstore\n      pop\n        /* \"Practice/IncreDecre.sol\":195:200  value */\n      sload(0x00)\n        /* \"Practice/IncreDecre.sol\":188:200  return value */\n      swap1\n      pop\n        /* \"Practice/IncreDecre.sol\":118:209  function Increment() public returns(uint){... */\n      swap1\n      jump\t// out\n        /* \"#utility.yul\":7:84   */\n    tag_22:\n        /* \"#utility.yul\":44:51   */\n      0x00\n        /* \"#utility.yul\":73:78   */\n      dup2\n        /* \"#utility.yul\":62:78   */\n      swap1\n      pop\n        /* \"#utility.yul\":7:84   */\n      swap2\n      swap1\n      pop\n      jump\t// out\n        /* \"#utility.yul\":90:208   */\n    tag_23:\n        /* \"#utility.yul\":177:201   */\n      tag_28\n        /* \"#utility.yul\":195:200   */\n      dup2\n        /* \"#utility.yul\":177:201   */\n      tag_22\n      jump\t// in\n    tag_28:\n        /* \"#utility.yul\":172:175   */\n      dup3\n        /* \"#utility.yul\":165:202   */\n      mstore\n        /* \"#utility.yul\":90:208   */\n      pop\n      pop\n      jump\t// out\n        /* \"#utility.yul\":214:436   */\n    tag_9:\n        /* \"#utility.yul\":307:311   */\n      0x00\n        /* \"#utility.yul\":345:347   */\n      0x20\n        /* \"#utility.yul\":334:343   */\n      dup3\n        /* \"#utility.yul\":330:348   */\n      add\n        /* \"#utility.yul\":322:348   */\n      swap1\n      pop\n        /* \"#utility.yul\":358:429   */\n      tag_30\n        /* \"#utility.yul\":426:427   */\n      0x00\n        /* \"#utility.yul\":415:424   */\n      dup4\n        /* \"#utility.yul\":411:428   */\n      add\n        /* \"#utility.yul\":402:408   */\n      dup5\n        /* \"#utility.yul\":358:429   */\n      tag_23\n      jump\t// in\n    tag_30:\n        /* \"#utility.yul\":214:436   */\n      swap3\n      swap2\n      pop\n      pop\n      jump\t// out\n        /* \"#utility.yul\":442:622   */\n    tag_24:\n        /* \"#utility.yul\":490:567   */\n      0x4e487b7100000000000000000000000000000000000000000000000000000000\n        /* \"#utility.yul\":487:488   */\n      0x00\n        /* \"#utility.yul\":480:568   */\n      mstore\n        /* \"#utility.yul\":587:591   */\n      0x11\n        /* \"#utility.yul\":584:585   */\n      0x04\n        /* \"#utility.yul\":577:592   */\n      mstore\n        /* \"#utility.yul\":611:615   */\n      0x24\n        /* \"#utility.yul\":608:609   */\n      0x00\n        /* \"#utility.yul\":601:616   */\n      revert\n        /* \"#utility.yul\":628:799   */\n    tag_18:\n        /* \"#utility.yul\":667:670   */\n      0x00\n        /* \"#utility.yul\":690:714   */\n      tag_33\n        /* \"#utility.yul\":708:713   */\n      dup3\n        /* \"#utility.yul\":690:714   */\n      tag_22\n      jump\t// in\n    tag_33:\n        /* \"#utility.yul\":681:714   */\n      swap2\n      pop\n        /* \"#utility.yul\":736:740   */\n      0x00\n        /* \"#utility.yul\":729:734   */\n      dup3\n        /* \"#utility.yul\":726:741   */\n      sub\n        /* \"#utility.yul\":723:764   */\n      tag_34\n      jumpi\n        /* \"#utility.yul\":744:762   */\n      tag_35\n      tag_24\n      jump\t// in\n    tag_35:\n        /* \"#utility.yul\":723:764   */\n    tag_34:\n        /* \"#utility.yul\":791:792   */\n      0x01\n        /* \"#utility.yul\":784:789   */\n      dup3\n        /* \"#utility.yul\":780:793   */\n      sub\n        /* \"#utility.yul\":773:793   */\n      swap1\n      pop\n        /* \"#utility.yul\":628:799   */\n      swap2\n      swap1\n      pop\n      jump\t// out\n        /* \"#utility.yul\":805:1038   */\n    tag_21:\n        /* \"#utility.yul\":844:847   */\n      0x00\n        /* \"#utility.yul\":867:891   */\n      tag_37\n        /* \"#utility.yul\":885:890   */\n      dup3\n        /* \"#utility.yul\":867:891   */\n      tag_22\n      jump\t// in\n    tag_37:\n        /* \"#utility.yul\":858:891   */\n      swap2\n      pop\n        /* \"#utility.yul\":913:979   */\n      0xffffffffffffffffffffffffffffffffffffffffffffffffffffffffffffffff\n        /* \"#utility.yul\":906:911   */\n      dup3\n        /* \"#utility.yul\":903:980   */\n      sub\n        /* \"#utility.yul\":900:1003   */\n      tag_38\n      jumpi\n        /* \"#utility.yul\":983:1001   */\n      tag_39\n      tag_24\n      jump\t// in\n    tag_39:\n        /* \"#utility.yul\":900:1003   */\n    tag_38:\n        /* \"#utility.yul\":1030:1031   */\n      0x01\n        /* \"#utility.yul\":1023:1028   */\n      dup3\n        /* \"#utility.yul\":1019:1032   */\n      add\n        /* \"#utility.yul\":1012:1032   */\n      swap1\n      pop\n        /* \"#utility.yul\":805:1038   */\n      swap2\n      swap1\n      pop\n      jump\t// out\n\n    auxdata: 0xa2646970667358221220c4412ca02b1042d0169be0176e0d3f46c5702d30a072451329d8c31a143a007a64736f6c63430008220033\n}\n",
				"bytecode": {
					"linkReferences": {},
					"object": "60806040525f5f553480156011575f5ffd5b506101e08061001f5f395ff3fe608060405234801561000f575f5ffd5b506004361061003f575f3560e01c806320ed8b89146100435780633fa4f24514610061578063648b7ce81461007f575b5f5ffd5b61004b61009d565b60405161005891906100f6565b60405180910390f35b6100696100bb565b60405161007691906100f6565b60405180910390f35b6100876100c0565b60405161009491906100f6565b60405180910390f35b5f5f5f8154809291906100af9061013c565b91905055505f54905090565b5f5481565b5f5f5f8154809291906100d290610163565b91905055505f54905090565b5f819050919050565b6100f0816100de565b82525050565b5f6020820190506101095f8301846100e7565b92915050565b7f4e487b71000000000000000000000000000000000000000000000000000000005f52601160045260245ffd5b5f610146826100de565b91505f82036101585761015761010f565b5b600182039050919050565b5f61016d826100de565b91507fffffffffffffffffffffffffffffffffffffffffffffffffffffffffffffffff820361019f5761019e61010f565b5b60018201905091905056fea2646970667358221220c4412ca02b1042d0169be0176e0d3f46c5702d30a072451329d8c31a143a007a64736f6c63430008220033",
					"opcodes": "PUSH1 0x80 PUSH1 0x40 MSTORE PUSH0 PUSH0 SSTORE CALLVALUE DUP1 ISZERO PUSH1 0x11 JUMPI PUSH0 PUSH0 REVERT JUMPDEST POP PUSH2 0x1E0 DUP1 PUSH2 0x1F PUSH0 CODECOPY PUSH0 RETURN INVALID PUSH1 0x80 PUSH1 0x40 MSTORE CALLVALUE DUP1 ISZERO PUSH2 0xF JUMPI PUSH0 PUSH0 REVERT JUMPDEST POP PUSH1 0x4 CALLDATASIZE LT PUSH2 0x3F JUMPI PUSH0 CALLDATALOAD PUSH1 0xE0 SHR DUP1 PUSH4 0x20ED8B89 EQ PUSH2 0x43 JUMPI DUP1 PUSH4 0x3FA4F245 EQ PUSH2 0x61 JUMPI DUP1 PUSH4 0x648B7CE8 EQ PUSH2 0x7F JUMPI JUMPDEST PUSH0 PUSH0 REVERT JUMPDEST PUSH2 0x4B PUSH2 0x9D JUMP JUMPDEST PUSH1 0x40 MLOAD PUSH2 0x58 SWAP2 SWAP1 PUSH2 0xF6 JUMP JUMPDEST PUSH1 0x40 MLOAD DUP1 SWAP2 SUB SWAP1 RETURN JUMPDEST PUSH2 0x69 PUSH2 0xBB JUMP JUMPDEST PUSH1 0x40 MLOAD PUSH2 0x76 SWAP2 SWAP1 PUSH2 0xF6 JUMP JUMPDEST PUSH1 0x40 MLOAD DUP1 SWAP2 SUB SWAP1 RETURN JUMPDEST PUSH2 0x87 PUSH2 0xC0 JUMP JUMPDEST PUSH1 0x40 MLOAD PUSH2 0x94 SWAP2 SWAP1 PUSH2 0xF6 JUMP JUMPDEST PUSH1 0x40 MLOAD DUP1 SWAP2 SUB SWAP1 RETURN JUMPDEST PUSH0 PUSH0 PUSH0 DUP2 SLOAD DUP1 SWAP3 SWAP2 SWAP1 PUSH2 0xAF SWAP1 PUSH2 0x13C JUMP JUMPDEST SWAP2 SWAP1 POP SSTORE POP PUSH0 SLOAD SWAP1 POP SWAP1 JUMP JUMPDEST PUSH0 SLOAD DUP2 JUMP JUMPDEST PUSH0 PUSH0 PUSH0 DUP2 SLOAD DUP1 SWAP3 SWAP2 SWAP1 PUSH2 0xD2 SWAP1 PUSH2 0x163 JUMP JUMPDEST SWAP2 SWAP1 POP SSTORE POP PUSH0 SLOAD SWAP1 POP SWAP1 JUMP JUMPDEST PUSH0 DUP2 SWAP1 POP SWAP2 SWAP1 POP JUMP JUMPDEST PUSH2 0xF0 DUP2 PUSH2 0xDE JUMP JUMPDEST DUP3 MSTORE POP POP JUMP JUMPDEST PUSH0 PUSH1 0x20 DUP3 ADD SWAP1 POP PUSH2 0x109 PUSH0 DUP4 ADD DUP5 PUSH2 0xE7 JUMP JUMPDEST SWAP3 SWAP2 POP POP JUMP JUMPDEST PUSH32 0x4E487B7100000000000000000000000000000000000000000000000000000000 PUSH0 MSTORE PUSH1 0x11 PUSH1 0x4 MSTORE PUSH1 0x24 PUSH0 REVERT JUMPDEST PUSH0 PUSH2 0x146 DUP3 PUSH2 0xDE JUMP JUMPDEST SWAP2 POP PUSH0 DUP3 SUB PUSH2 0x158 JUMPI PUSH2 0x157 PUSH2 0x10F JUMP JUMPDEST JUMPDEST PUSH1 0x1 DUP3 SUB SWAP1 POP SWAP2 SWAP1 POP JUMP JUMPDEST PUSH0 PUSH2 0x16D DUP3 PUSH2 0xDE JUMP JUMPDEST SWAP2 POP PUSH32 0xFFFFFFFFFFFFFFFFFFFFFFFFFFFFFFFFFFFFFFFFFFFFFFFFFFFFFFFFFFFFFFFF DUP3 SUB PUSH2 0x19F JUMPI PUSH2 0x19E PUSH2 0x10F JUMP JUMPDEST JUMPDEST PUSH1 0x1 DUP3 ADD SWAP1 POP SWAP2 SWAP1 POP JUMP INVALID LOG2 PUSH5 0x6970667358 0x22 SLT KECCAK256 0xC4 COINBASE 0x2C LOG0 0x2B LT TIMESTAMP 0xD0 AND SWAP12 RJUMP 0x176E 0xD EXTCODEHASH CHAINID 0xC5 PUSH17 0x2D30A072451329D8C31A143A007A64736F PUSH13 0x63430008220033000000000000 "
				},
				"gasEstimates": {
					"creation": {
						"codeDepositCost": "96000",
						"executionCost": "5143",
						"totalCost": "101143"
					},
					"external": {
						"Decrement()": "infinite",
						"Increment()": "infinite",
						"value()": "2424"
					}
				},
				"methodIdentifiers": {
					"Decrement()": "20ed8b89",
					"Increment()": "648b7ce8",
					"value()": "3fa4f245"
				}
			},
			"storageLayout": {
				"storage": [
					{
						"astId": 4,
						"contract": "Practice/IncreDecre.sol:IncreDecre",
						"label": "value",
						"offset": 0,
						"slot": "0",
						"type": "t_uint256"
					}
				],
				"types": {
					"t_uint256": {
						"encoding": "inplace",
						"label": "uint256",
						"numberOfBytes": "32"
					}
				}
			},
			"userdoc": {
				"kind": "user",
				"methods": {},
				"version": 1
			}
		}
	}
}