{
	"learning/CourseSelling.sol": {
		"CourseSelling": {
			"abi": [
				{
					"inputs": [],
					"stateMutability": "nonpayable",
					"type": "constructor"
				},
				{
					"inputs": [
						{
							"internalType": "uint256",
							"name": "id",
							"type": "uint256"
						},
						{
							"internalType": "string",
							"name": "name",
							"type": "string"
						},
						{
							"internalType": "string",
							"name": "duration",
							"type": "string"
						},
						{
							"internalType": "uint256",
							"name": "fees",
							"type": "uint256"
						}
					],
					"name": "addCourse",
					"outputs": [],
					"stateMutability": "nonpayable",
					"type": "function"
				},
				{
					"inputs": [
						{
							"internalType": "uint256",
							"name": "id",
							"type": "uint256"
						},
						{
							"internalType": "string",
							"name": "name",
							"type": "string"
						},
						{
							"internalType": "uint256",
							"name": "demandfees",
							"type": "uint256"
						}
					],
					"name": "addStudent",
					"outputs": [
						{
							"internalType": "uint256",
							"name": "",
							"type": "uint256"
						}
					],
					"stateMutability": "nonpayable",
					"type": "function"
				},
				{
					"inputs": [
						{
							"internalType": "uint256",
							"name": "",
							"type": "uint256"
						}
					],
					"name": "courses",
					"outputs": [
						{
							"internalType": "string",
							"name": "courseName",
							"type": "string"
						},
						{
							"internalType": "string",
							"name": "courseDuration",
							"type": "string"
						},
						{
							"internalType": "uint256",
							"name": "fees",
							"type": "uint256"
						}
					],
					"stateMutability": "view",
					"type": "function"
				},
				{
					"inputs": [
						{
							"internalType": "uint256",
							"name": "",
							"type": "uint256"
						}
					],
					"name": "students",
					"outputs": [
						{
							"internalType": "uint256",
							"name": "id",
							"type": "uint256"
						},
						{
							"internalType": "string",
							"name": "studentName",
							"type": "string"
						},
						{
							"internalType": "uint256",
							"name": "demandFees",
							"type": "uint256"
						},
						{
							"internalType": "address",
							"name": "wallet",
							"type": "address"
						}
					],
					"stateMutability": "view",
					"type": "function"
				}
			],
			"devdoc": {
				"kind": "dev",
				"methods": {},
				"version": 1
			},
			"evm": {
				"assembly": "    /* \"learning/CourseSelling.sol\":180:1250  contract CourseSelling {... */\n  mstore(0x40, 0x80)\n    /* \"learning/CourseSelling.sol\":228:277  constructor() {... */\n  callvalue\n  dup1\n  iszero\n  tag_1\n  jumpi\n  0x00\n  dup1\n  revert\ntag_1:\n  pop\n    /* \"learning/CourseSelling.sol\":260:270  msg.sender */\n  caller\n    /* \"learning/CourseSelling.sol\":252:257  owner */\n  0x00\n  dup1\n    /* \"learning/CourseSelling.sol\":252:270  owner = msg.sender */\n  0x0100\n  exp\n  dup2\n  sload\n  dup2\n  0xffffffffffffffffffffffffffffffffffffffff\n  mul\n  not\n  and\n  swap1\n  dup4\n  0xffffffffffffffffffffffffffffffffffffffff\n  and\n  mul\n  or\n  swap1\n  sstore\n  pop\n    /* \"learning/CourseSelling.sol\":180:1250  contract CourseSelling {... */\n  dataSize(sub_0)\n  dup1\n  dataOffset(sub_0)\n  0x00\n  codecopy\n  0x00\n  return\nstop\n\nsub_0: assembly {\n        /* \"learning/CourseSelling.sol\":180:1250  contract CourseSelling {... */\n      mstore(0x40, 0x80)\n      callvalue\n      dup1\n      iszero\n      tag_1\n      jumpi\n      0x00\n      dup1\n      revert\n    tag_1:\n      pop\n      jumpi(tag_2, lt(calldatasize, 0x04))\n      shr(0xe0, calldataload(0x00))\n      dup1\n      0x06ead22e\n      eq\n      tag_3\n      jumpi\n      dup1\n      0x5784a16d\n      eq\n      tag_4\n      jumpi\n      dup1\n      0x96f979d2\n      eq\n      tag_5\n      jumpi\n      dup1\n      0xc1bea1db\n      eq\n      tag_6\n      jumpi\n    tag_2:\n      0x00\n      dup1\n      revert\n        /* \"learning/CourseSelling.sol\":915:955  mapping(uint => student) public students */\n    tag_3:\n      tag_7\n      0x04\n      dup1\n      calldatasize\n      sub\n      dup2\n      add\n      swap1\n      tag_8\n      swap2\n      swap1\n      tag_9\n      jump\t// in\n    tag_8:\n      tag_10\n      jump\t// in\n    tag_7:\n      mload(0x40)\n      tag_11\n      swap5\n      swap4\n      swap3\n      swap2\n      swap1\n      tag_12\n      jump\t// in\n    tag_11:\n      mload(0x40)\n      dup1\n      swap2\n      sub\n      swap1\n      return\n        /* \"learning/CourseSelling.sol\":556:787  function addCourse(... */\n    tag_4:\n      tag_13\n      0x04\n      dup1\n      calldatasize\n      sub\n      dup2\n      add\n      swap1\n      tag_14\n      swap2\n      swap1\n      tag_15\n      jump\t// in\n    tag_14:\n      tag_16\n      jump\t// in\n    tag_13:\n      stop\n        /* \"learning/CourseSelling.sol\":486:524  mapping(uint => course) public courses */\n    tag_5:\n      tag_17\n      0x04\n      dup1\n      calldatasize\n      sub\n      dup2\n      add\n      swap1\n      tag_18\n      swap2\n      swap1\n      tag_9\n      jump\t// in\n    tag_18:\n      tag_19\n      jump\t// in\n    tag_17:\n      mload(0x40)\n      tag_20\n      swap4\n      swap3\n      swap2\n      swap1\n      tag_21\n      jump\t// in\n    tag_20:\n      mload(0x40)\n      dup1\n      swap2\n      sub\n      swap1\n      return\n        /* \"learning/CourseSelling.sol\":989:1248  function addStudent(... */\n    tag_6:\n      tag_22\n      0x04\n      dup1\n      calldatasize\n      sub\n      dup2\n      add\n      swap1\n      tag_23\n      swap2\n      swap1\n      tag_24\n      jump\t// in\n    tag_23:\n      tag_25\n      jump\t// in\n    tag_22:\n      mload(0x40)\n      tag_26\n      swap2\n      swap1\n      tag_27\n      jump\t// in\n    tag_26:\n      mload(0x40)\n      dup1\n      swap2\n      sub\n      swap1\n      return\n        /* \"learning/CourseSelling.sol\":915:955  mapping(uint => student) public students */\n    tag_10:\n      mstore(0x20, 0x03)\n      dup1\n      0x00\n      mstore\n      keccak256(0x00, 0x40)\n      0x00\n      swap2\n      pop\n      swap1\n      pop\n      dup1\n      0x00\n      add\n      sload\n      swap1\n      dup1\n      0x01\n      add\n      dup1\n      sload\n      tag_28\n      swap1\n      tag_29\n      jump\t// in\n    tag_28:\n      dup1\n      0x1f\n      add\n      0x20\n      dup1\n      swap2\n      div\n      mul\n      0x20\n      add\n      mload(0x40)\n      swap1\n      dup2\n      add\n      0x40\n      mstore\n      dup1\n      swap3\n      swap2\n      swap1\n      dup2\n      dup2\n      mstore\n      0x20\n      add\n      dup3\n      dup1\n      sload\n      tag_30\n      swap1\n      tag_29\n      jump\t// in\n    tag_30:\n      dup1\n      iszero\n      tag_31\n      jumpi\n      dup1\n      0x1f\n      lt\n      tag_32\n      jumpi\n      0x0100\n      dup1\n      dup4\n      sload\n      div\n      mul\n      dup4\n      mstore\n      swap2\n      0x20\n      add\n      swap2\n      jump(tag_31)\n    tag_32:\n      dup3\n      add\n      swap2\n      swap1\n      0x00\n      mstore\n      keccak256(0x00, 0x20)\n      swap1\n    tag_33:\n      dup2\n      sload\n      dup2\n      mstore\n      swap1\n      0x01\n      add\n      swap1\n      0x20\n      add\n      dup1\n      dup4\n      gt\n      tag_33\n      jumpi\n      dup3\n      swap1\n      sub\n      0x1f\n      and\n      dup3\n      add\n      swap2\n    tag_31:\n      pop\n      pop\n      pop\n      pop\n      pop\n      swap1\n      dup1\n      0x02\n      add\n      sload\n      swap1\n      dup1\n      0x03\n      add\n      0x00\n      swap1\n      sload\n      swap1\n      0x0100\n      exp\n      swap1\n      div\n      0xffffffffffffffffffffffffffffffffffffffff\n      and\n      swap1\n      pop\n      dup5\n      jump\t// out\n        /* \"learning/CourseSelling.sol\":556:787  function addCourse(... */\n    tag_16:\n        /* \"learning/CourseSelling.sol\":331:341  msg.sender */\n      caller\n        /* \"learning/CourseSelling.sol\":322:341  owner == msg.sender */\n      0xffffffffffffffffffffffffffffffffffffffff\n      and\n        /* \"learning/CourseSelling.sol\":322:327  owner */\n      0x00\n      dup1\n      sload\n      swap1\n      0x0100\n      exp\n      swap1\n      div\n      0xffffffffffffffffffffffffffffffffffffffff\n      and\n        /* \"learning/CourseSelling.sol\":322:341  owner == msg.sender */\n      0xffffffffffffffffffffffffffffffffffffffff\n      and\n      eq\n        /* \"learning/CourseSelling.sol\":314:359  require(owner == msg.sender, \"Access Denied\") */\n      tag_35\n      jumpi\n      mload(0x40)\n      0x08c379a000000000000000000000000000000000000000000000000000000000\n      dup2\n      mstore\n      0x04\n      add\n      tag_36\n      swap1\n      tag_37\n      jump\t// in\n    tag_36:\n      mload(0x40)\n      dup1\n      swap2\n      sub\n      swap1\n      revert\n    tag_35:\n        /* \"learning/CourseSelling.sol\":707:719  allCourseIds */\n      0x02\n        /* \"learning/CourseSelling.sol\":725:727  id */\n      dup5\n        /* \"learning/CourseSelling.sol\":707:728  allCourseIds.push(id) */\n      swap1\n      dup1\n      0x01\n      dup2\n      sload\n      add\n      dup1\n      dup3\n      sstore\n      dup1\n      swap2\n      pop\n      pop\n      0x01\n      swap1\n      sub\n      swap1\n      0x00\n      mstore\n      keccak256(0x00, 0x20)\n      add\n      0x00\n      swap1\n      swap2\n      swap1\n      swap2\n      swap1\n      swap2\n      pop\n      sstore\n        /* \"learning/CourseSelling.sol\":752:780  course(name, duration, fees) */\n      mload(0x40)\n      dup1\n      0x60\n      add\n      0x40\n      mstore\n      dup1\n        /* \"learning/CourseSelling.sol\":759:763  name */\n      dup5\n        /* \"learning/CourseSelling.sol\":752:780  course(name, duration, fees) */\n      dup2\n      mstore\n      0x20\n      add\n        /* \"learning/CourseSelling.sol\":765:773  duration */\n      dup4\n        /* \"learning/CourseSelling.sol\":752:780  course(name, duration, fees) */\n      dup2\n      mstore\n      0x20\n      add\n        /* \"learning/CourseSelling.sol\":775:779  fees */\n      dup3\n        /* \"learning/CourseSelling.sol\":752:780  course(name, duration, fees) */\n      dup2\n      mstore\n      pop\n        /* \"learning/CourseSelling.sol\":738:745  courses */\n      0x01\n        /* \"learning/CourseSelling.sol\":738:749  courses[id] */\n      0x00\n        /* \"learning/CourseSelling.sol\":746:748  id */\n      dup7\n        /* \"learning/CourseSelling.sol\":738:749  courses[id] */\n      dup2\n      mstore\n      0x20\n      add\n      swap1\n      dup2\n      mstore\n      0x20\n      add\n      0x00\n      keccak256\n        /* \"learning/CourseSelling.sol\":738:780  courses[id] = course(name, duration, fees) */\n      0x00\n      dup3\n      add\n      mload\n      dup2\n      0x00\n      add\n      swap1\n      dup1\n      mload\n      swap1\n      0x20\n      add\n      swap1\n      tag_40\n      swap3\n      swap2\n      swap1\n      tag_41\n      jump\t// in\n    tag_40:\n      pop\n      0x20\n      dup3\n      add\n      mload\n      dup2\n      0x01\n      add\n      swap1\n      dup1\n      mload\n      swap1\n      0x20\n      add\n      swap1\n      tag_42\n      swap3\n      swap2\n      swap1\n      tag_41\n      jump\t// in\n    tag_42:\n      pop\n      0x40\n      dup3\n      add\n      mload\n      dup2\n      0x02\n      add\n      sstore\n      swap1\n      pop\n      pop\n        /* \"learning/CourseSelling.sol\":556:787  function addCourse(... */\n      pop\n      pop\n      pop\n      pop\n      jump\t// out\n        /* \"learning/CourseSelling.sol\":486:524  mapping(uint => course) public courses */\n    tag_19:\n      mstore(0x20, 0x01)\n      dup1\n      0x00\n      mstore\n      keccak256(0x00, 0x40)\n      0x00\n      swap2\n      pop\n      swap1\n      pop\n      dup1\n      0x00\n      add\n      dup1\n      sload\n      tag_43\n      swap1\n      tag_29\n      jump\t// in\n    tag_43:\n      dup1\n      0x1f\n      add\n      0x20\n      dup1\n      swap2\n      div\n      mul\n      0x20\n      add\n      mload(0x40)\n      swap1\n      dup2\n      add\n      0x40\n      mstore\n      dup1\n      swap3\n      swap2\n      swap1\n      dup2\n      dup2\n      mstore\n      0x20\n      add\n      dup3\n      dup1\n      sload\n      tag_44\n      swap1\n      tag_29\n      jump\t// in\n    tag_44:\n      dup1\n      iszero\n      tag_45\n      jumpi\n      dup1\n      0x1f\n      lt\n      tag_46\n      jumpi\n      0x0100\n      dup1\n      dup4\n      sload\n      div\n      mul\n      dup4\n      mstore\n      swap2\n      0x20\n      add\n      swap2\n      jump(tag_45)\n    tag_46:\n      dup3\n      add\n      swap2\n      swap1\n      0x00\n      mstore\n      keccak256(0x00, 0x20)\n      swap1\n    tag_47:\n      dup2\n      sload\n      dup2\n      mstore\n      swap1\n      0x01\n      add\n      swap1\n      0x20\n      add\n      dup1\n      dup4\n      gt\n      tag_47\n      jumpi\n      dup3\n      swap1\n      sub\n      0x1f\n      and\n      dup3\n      add\n      swap2\n    tag_45:\n      pop\n      pop\n      pop\n      pop\n      pop\n      swap1\n      dup1\n      0x01\n      add\n      dup1\n      sload\n      tag_48\n      swap1\n      tag_29\n      jump\t// in\n    tag_48:\n      dup1\n      0x1f\n      add\n      0x20\n      dup1\n      swap2\n      div\n      mul\n      0x20\n      add\n      mload(0x40)\n      swap1\n      dup2\n      add\n      0x40\n      mstore\n      dup1\n      swap3\n      swap2\n      swap1\n      dup2\n      dup2\n      mstore\n      0x20\n      add\n      dup3\n      dup1\n      sload\n      tag_49\n      swap1\n      tag_29\n      jump\t// in\n    tag_49:\n      dup1\n      iszero\n      tag_50\n      jumpi\n      dup1\n      0x1f\n      lt\n      tag_51\n      jumpi\n      0x0100\n      dup1\n      dup4\n      sload\n      div\n      mul\n      dup4\n      mstore\n      swap2\n      0x20\n      add\n      swap2\n      jump(tag_50)\n    tag_51:\n      dup3\n      add\n      swap2\n      swap1\n      0x00\n      mstore\n      keccak256(0x00, 0x20)\n      swap1\n    tag_52:\n      dup2\n      sload\n      dup2\n      mstore\n      swap1\n      0x01\n      add\n      swap1\n      0x20\n      add\n      dup1\n      dup4\n      gt\n      tag_52\n      jumpi\n      dup3\n      swap1\n      sub\n      0x1f\n      and\n      dup3\n      add\n      swap2\n    tag_50:\n      pop\n      pop\n      pop\n      pop\n      pop\n      swap1\n      dup1\n      0x02\n      add\n      sload\n      swap1\n      pop\n      dup4\n      jump\t// out\n        /* \"learning/CourseSelling.sol\":989:1248  function addStudent(... */\n    tag_25:\n        /* \"learning/CourseSelling.sol\":1103:1107  uint */\n      0x00\n        /* \"learning/CourseSelling.sol\":1119:1133  allStudentsIds */\n      0x04\n        /* \"learning/CourseSelling.sol\":1139:1141  id */\n      dup5\n        /* \"learning/CourseSelling.sol\":1119:1142  allStudentsIds.push(id) */\n      swap1\n      dup1\n      0x01\n      dup2\n      sload\n      add\n      dup1\n      dup3\n      sstore\n      dup1\n      swap2\n      pop\n      pop\n      0x01\n      swap1\n      sub\n      swap1\n      0x00\n      mstore\n      keccak256(0x00, 0x20)\n      add\n      0x00\n      swap1\n      swap2\n      swap1\n      swap2\n      swap1\n      swap2\n      pop\n      sstore\n        /* \"learning/CourseSelling.sol\":1167:1208  student(id, name, demandfees, msg.sender) */\n      mload(0x40)\n      dup1\n      0x80\n      add\n      0x40\n      mstore\n      dup1\n        /* \"learning/CourseSelling.sol\":1175:1177  id */\n      dup6\n        /* \"learning/CourseSelling.sol\":1167:1208  student(id, name, demandfees, msg.sender) */\n      dup2\n      mstore\n      0x20\n      add\n        /* \"learning/CourseSelling.sol\":1179:1183  name */\n      dup5\n        /* \"learning/CourseSelling.sol\":1167:1208  student(id, name, demandfees, msg.sender) */\n      dup2\n      mstore\n      0x20\n      add\n        /* \"learning/CourseSelling.sol\":1185:1195  demandfees */\n      dup4\n        /* \"learning/CourseSelling.sol\":1167:1208  student(id, name, demandfees, msg.sender) */\n      dup2\n      mstore\n      0x20\n      add\n        /* \"learning/CourseSelling.sol\":1197:1207  msg.sender */\n      caller\n        /* \"learning/CourseSelling.sol\":1167:1208  student(id, name, demandfees, msg.sender) */\n      0xffffffffffffffffffffffffffffffffffffffff\n      and\n      dup2\n      mstore\n      pop\n        /* \"learning/CourseSelling.sol\":1152:1160  students */\n      0x03\n        /* \"learning/CourseSelling.sol\":1152:1164  students[id] */\n      0x00\n        /* \"learning/CourseSelling.sol\":1161:1163  id */\n      dup7\n        /* \"learning/CourseSelling.sol\":1152:1164  students[id] */\n      dup2\n      mstore\n      0x20\n      add\n      swap1\n      dup2\n      mstore\n      0x20\n      add\n      0x00\n      keccak256\n        /* \"learning/CourseSelling.sol\":1152:1208  students[id] = student(id, name, demandfees, msg.sender) */\n      0x00\n      dup3\n      add\n      mload\n      dup2\n      0x00\n      add\n      sstore\n      0x20\n      dup3\n      add\n      mload\n      dup2\n      0x01\n      add\n      swap1\n      dup1\n      mload\n      swap1\n      0x20\n      add\n      swap1\n      tag_55\n      swap3\n      swap2\n      swap1\n      tag_41\n      jump\t// in\n    tag_55:\n      pop\n      0x40\n      dup3\n      add\n      mload\n      dup2\n      0x02\n      add\n      sstore\n      0x60\n      dup3\n      add\n      mload\n      dup2\n      0x03\n      add\n      exp(0x0100, 0x00)\n      dup2\n      sload\n      dup2\n      0xffffffffffffffffffffffffffffffffffffffff\n      mul\n      not\n      and\n      swap1\n      dup4\n      0xffffffffffffffffffffffffffffffffffffffff\n      and\n      mul\n      or\n      swap1\n      sstore\n      pop\n      swap1\n      pop\n      pop\n        /* \"learning/CourseSelling.sol\":1225:1232  courses */\n      0x01\n        /* \"learning/CourseSelling.sol\":1225:1236  courses[id] */\n      0x00\n        /* \"learning/CourseSelling.sol\":1233:1235  id */\n      dup6\n        /* \"learning/CourseSelling.sol\":1225:1236  courses[id] */\n      dup2\n      mstore\n      0x20\n      add\n      swap1\n      dup2\n      mstore\n      0x20\n      add\n      0x00\n      keccak256\n        /* \"learning/CourseSelling.sol\":1225:1241  courses[id].fees */\n      0x02\n      add\n      sload\n        /* \"learning/CourseSelling.sol\":1218:1241  return courses[id].fees */\n      swap1\n      pop\n        /* \"learning/CourseSelling.sol\":989:1248  function addStudent(... */\n      swap4\n      swap3\n      pop\n      pop\n      pop\n      jump\t// out\n    tag_41:\n      dup3\n      dup1\n      sload\n      tag_56\n      swap1\n      tag_29\n      jump\t// in\n    tag_56:\n      swap1\n      0x00\n      mstore\n      keccak256(0x00, 0x20)\n      swap1\n      0x1f\n      add\n      0x20\n      swap1\n      div\n      dup2\n      add\n      swap3\n      dup3\n      tag_58\n      jumpi\n      0x00\n      dup6\n      sstore\n      jump(tag_57)\n    tag_58:\n      dup3\n      0x1f\n      lt\n      tag_59\n      jumpi\n      dup1\n      mload\n      not(0xff)\n      and\n      dup4\n      dup1\n      add\n      or\n      dup6\n      sstore\n      jump(tag_57)\n    tag_59:\n      dup3\n      dup1\n      add\n      0x01\n      add\n      dup6\n      sstore\n      dup3\n      iszero\n      tag_57\n      jumpi\n      swap2\n      dup3\n      add\n    tag_60:\n      dup3\n      dup2\n      gt\n      iszero\n      tag_61\n      jumpi\n      dup3\n      mload\n      dup3\n      sstore\n      swap2\n      0x20\n      add\n      swap2\n      swap1\n      0x01\n      add\n      swap1\n      jump(tag_60)\n    tag_61:\n    tag_57:\n      pop\n      swap1\n      pop\n      tag_62\n      swap2\n      swap1\n      tag_63\n      jump\t// in\n    tag_62:\n      pop\n      swap1\n      jump\t// out\n    tag_63:\n    tag_64:\n      dup1\n      dup3\n      gt\n      iszero\n      tag_65\n      jumpi\n      0x00\n      dup2\n      0x00\n      swap1\n      sstore\n      pop\n      0x01\n      add\n      jump(tag_64)\n    tag_65:\n      pop\n      swap1\n      jump\t// out\n        /* \"#utility.yul\":7:351   */\n    tag_67:\n      0x00\n        /* \"#utility.yul\":110:175   */\n      tag_69\n        /* \"#utility.yul\":125:174   */\n      tag_70\n        /* \"#utility.yul\":167:173   */\n      dup5\n        /* \"#utility.yul\":125:174   */\n      tag_71\n      jump\t// in\n    tag_70:\n        /* \"#utility.yul\":110:175   */\n      tag_72\n      jump\t// in\n    tag_69:\n        /* \"#utility.yul\":101:175   */\n      swap1\n      pop\n        /* \"#utility.yul\":198:204   */\n      dup3\n        /* \"#utility.yul\":191:196   */\n      dup2\n        /* \"#utility.yul\":184:205   */\n      mstore\n        /* \"#utility.yul\":236:240   */\n      0x20\n        /* \"#utility.yul\":229:234   */\n      dup2\n        /* \"#utility.yul\":225:241   */\n      add\n        /* \"#utility.yul\":274:277   */\n      dup5\n        /* \"#utility.yul\":265:271   */\n      dup5\n        /* \"#utility.yul\":260:263   */\n      dup5\n        /* \"#utility.yul\":256:272   */\n      add\n        /* \"#utility.yul\":253:278   */\n      gt\n        /* \"#utility.yul\":250:252   */\n      iszero\n      tag_73\n      jumpi\n        /* \"#utility.yul\":291:292   */\n      0x00\n        /* \"#utility.yul\":288:289   */\n      dup1\n        /* \"#utility.yul\":281:293   */\n      revert\n        /* \"#utility.yul\":250:252   */\n    tag_73:\n        /* \"#utility.yul\":304:345   */\n      tag_74\n        /* \"#utility.yul\":338:344   */\n      dup5\n        /* \"#utility.yul\":333:336   */\n      dup3\n        /* \"#utility.yul\":328:331   */\n      dup6\n        /* \"#utility.yul\":304:345   */\n      tag_75\n      jump\t// in\n    tag_74:\n        /* \"#utility.yul\":91:351   */\n      pop\n      swap4\n      swap3\n      pop\n      pop\n      pop\n      jump\t// out\n        /* \"#utility.yul\":371:644   */\n    tag_76:\n      0x00\n        /* \"#utility.yul\":476:479   */\n      dup3\n        /* \"#utility.yul\":469:473   */\n      0x1f\n        /* \"#utility.yul\":461:467   */\n      dup4\n        /* \"#utility.yul\":457:474   */\n      add\n        /* \"#utility.yul\":453:480   */\n      slt\n        /* \"#utility.yul\":443:445   */\n      tag_78\n      jumpi\n        /* \"#utility.yul\":494:495   */\n      0x00\n        /* \"#utility.yul\":491:492   */\n      dup1\n        /* \"#utility.yul\":484:496   */\n      revert\n        /* \"#utility.yul\":443:445   */\n    tag_78:\n        /* \"#utility.yul\":534:540   */\n      dup2\n        /* \"#utility.yul\":521:541   */\n      calldataload\n        /* \"#utility.yul\":559:638   */\n      tag_79\n        /* \"#utility.yul\":634:637   */\n      dup5\n        /* \"#utility.yul\":626:632   */\n      dup3\n        /* \"#utility.yul\":619:623   */\n      0x20\n        /* \"#utility.yul\":611:617   */\n      dup7\n        /* \"#utility.yul\":607:624   */\n      add\n        /* \"#utility.yul\":559:638   */\n      tag_67\n      jump\t// in\n    tag_79:\n        /* \"#utility.yul\":550:638   */\n      swap2\n      pop\n        /* \"#utility.yul\":433:644   */\n      pop\n      swap3\n      swap2\n      pop\n      pop\n      jump\t// out\n        /* \"#utility.yul\":650:789   */\n    tag_80:\n      0x00\n        /* \"#utility.yul\":734:740   */\n      dup2\n        /* \"#utility.yul\":721:741   */\n      calldataload\n        /* \"#utility.yul\":712:741   */\n      swap1\n      pop\n        /* \"#utility.yul\":750:783   */\n      tag_82\n        /* \"#utility.yul\":777:782   */\n      dup2\n        /* \"#utility.yul\":750:783   */\n      tag_83\n      jump\t// in\n    tag_82:\n        /* \"#utility.yul\":702:789   */\n      swap3\n      swap2\n      pop\n      pop\n      jump\t// out\n        /* \"#utility.yul\":795:1057   */\n    tag_9:\n      0x00\n        /* \"#utility.yul\":903:905   */\n      0x20\n        /* \"#utility.yul\":891:900   */\n      dup3\n        /* \"#utility.yul\":882:889   */\n      dup5\n        /* \"#utility.yul\":878:901   */\n      sub\n        /* \"#utility.yul\":874:906   */\n      slt\n        /* \"#utility.yul\":871:873   */\n      iszero\n      tag_85\n      jumpi\n        /* \"#utility.yul\":919:920   */\n      0x00\n        /* \"#utility.yul\":916:917   */\n      dup1\n        /* \"#utility.yul\":909:921   */\n      revert\n        /* \"#utility.yul\":871:873   */\n    tag_85:\n        /* \"#utility.yul\":962:963   */\n      0x00\n        /* \"#utility.yul\":987:1040   */\n      tag_86\n        /* \"#utility.yul\":1032:1039   */\n      dup5\n        /* \"#utility.yul\":1023:1029   */\n      dup3\n        /* \"#utility.yul\":1012:1021   */\n      dup6\n        /* \"#utility.yul\":1008:1030   */\n      add\n        /* \"#utility.yul\":987:1040   */\n      tag_80\n      jump\t// in\n    tag_86:\n        /* \"#utility.yul\":977:1040   */\n      swap2\n      pop\n        /* \"#utility.yul\":933:1050   */\n      pop\n        /* \"#utility.yul\":861:1057   */\n      swap3\n      swap2\n      pop\n      pop\n      jump\t// out\n        /* \"#utility.yul\":1063:1987   */\n    tag_15:\n      0x00\n      dup1\n      0x00\n      dup1\n        /* \"#utility.yul\":1242:1245   */\n      0x80\n        /* \"#utility.yul\":1230:1239   */\n      dup6\n        /* \"#utility.yul\":1221:1228   */\n      dup8\n        /* \"#utility.yul\":1217:1240   */\n      sub\n        /* \"#utility.yul\":1213:1246   */\n      slt\n        /* \"#utility.yul\":1210:1212   */\n      iszero\n      tag_88\n      jumpi\n        /* \"#utility.yul\":1259:1260   */\n      0x00\n        /* \"#utility.yul\":1256:1257   */\n      dup1\n        /* \"#utility.yul\":1249:1261   */\n      revert\n        /* \"#utility.yul\":1210:1212   */\n    tag_88:\n        /* \"#utility.yul\":1302:1303   */\n      0x00\n        /* \"#utility.yul\":1327:1380   */\n      tag_89\n        /* \"#utility.yul\":1372:1379   */\n      dup8\n        /* \"#utility.yul\":1363:1369   */\n      dup3\n        /* \"#utility.yul\":1352:1361   */\n      dup9\n        /* \"#utility.yul\":1348:1370   */\n      add\n        /* \"#utility.yul\":1327:1380   */\n      tag_80\n      jump\t// in\n    tag_89:\n        /* \"#utility.yul\":1317:1380   */\n      swap5\n      pop\n        /* \"#utility.yul\":1273:1390   */\n      pop\n        /* \"#utility.yul\":1457:1459   */\n      0x20\n        /* \"#utility.yul\":1446:1455   */\n      dup6\n        /* \"#utility.yul\":1442:1460   */\n      add\n        /* \"#utility.yul\":1429:1461   */\n      calldataload\n        /* \"#utility.yul\":1488:1506   */\n      0xffffffffffffffff\n        /* \"#utility.yul\":1480:1486   */\n      dup2\n        /* \"#utility.yul\":1477:1507   */\n      gt\n        /* \"#utility.yul\":1474:1476   */\n      iszero\n      tag_90\n      jumpi\n        /* \"#utility.yul\":1520:1521   */\n      0x00\n        /* \"#utility.yul\":1517:1518   */\n      dup1\n        /* \"#utility.yul\":1510:1522   */\n      revert\n        /* \"#utility.yul\":1474:1476   */\n    tag_90:\n        /* \"#utility.yul\":1548:1611   */\n      tag_91\n        /* \"#utility.yul\":1603:1610   */\n      dup8\n        /* \"#utility.yul\":1594:1600   */\n      dup3\n        /* \"#utility.yul\":1583:1592   */\n      dup9\n        /* \"#utility.yul\":1579:1601   */\n      add\n        /* \"#utility.yul\":1548:1611   */\n      tag_76\n      jump\t// in\n    tag_91:\n        /* \"#utility.yul\":1538:1611   */\n      swap4\n      pop\n        /* \"#utility.yul\":1400:1621   */\n      pop\n        /* \"#utility.yul\":1688:1690   */\n      0x40\n        /* \"#utility.yul\":1677:1686   */\n      dup6\n        /* \"#utility.yul\":1673:1691   */\n      add\n        /* \"#utility.yul\":1660:1692   */\n      calldataload\n        /* \"#utility.yul\":1719:1737   */\n      0xffffffffffffffff\n        /* \"#utility.yul\":1711:1717   */\n      dup2\n        /* \"#utility.yul\":1708:1738   */\n      gt\n        /* \"#utility.yul\":1705:1707   */\n      iszero\n      tag_92\n      jumpi\n        /* \"#utility.yul\":1751:1752   */\n      0x00\n        /* \"#utility.yul\":1748:1749   */\n      dup1\n        /* \"#utility.yul\":1741:1753   */\n      revert\n        /* \"#utility.yul\":1705:1707   */\n    tag_92:\n        /* \"#utility.yul\":1779:1842   */\n      tag_93\n        /* \"#utility.yul\":1834:1841   */\n      dup8\n        /* \"#utility.yul\":1825:1831   */\n      dup3\n        /* \"#utility.yul\":1814:1823   */\n      dup9\n        /* \"#utility.yul\":1810:1832   */\n      add\n        /* \"#utility.yul\":1779:1842   */\n      tag_76\n      jump\t// in\n    tag_93:\n        /* \"#utility.yul\":1769:1842   */\n      swap3\n      pop\n        /* \"#utility.yul\":1631:1852   */\n      pop\n        /* \"#utility.yul\":1891:1893   */\n      0x60\n        /* \"#utility.yul\":1917:1970   */\n      tag_94\n        /* \"#utility.yul\":1962:1969   */\n      dup8\n        /* \"#utility.yul\":1953:1959   */\n      dup3\n        /* \"#utility.yul\":1942:1951   */\n      dup9\n        /* \"#utility.yul\":1938:1960   */\n      add\n        /* \"#utility.yul\":1917:1970   */\n      tag_80\n      jump\t// in\n    tag_94:\n        /* \"#utility.yul\":1907:1970   */\n      swap2\n      pop\n        /* \"#utility.yul\":1862:1980   */\n      pop\n        /* \"#utility.yul\":1200:1987   */\n      swap3\n      swap6\n      swap2\n      swap5\n      pop\n      swap3\n      pop\n      jump\t// out\n        /* \"#utility.yul\":1993:2658   */\n    tag_24:\n      0x00\n      dup1\n      0x00\n        /* \"#utility.yul\":2145:2147   */\n      0x60\n        /* \"#utility.yul\":2133:2142   */\n      dup5\n        /* \"#utility.yul\":2124:2131   */\n      dup7\n        /* \"#utility.yul\":2120:2143   */\n      sub\n        /* \"#utility.yul\":2116:2148   */\n      slt\n        /* \"#utility.yul\":2113:2115   */\n      iszero\n      tag_96\n      jumpi\n        /* \"#utility.yul\":2161:2162   */\n      0x00\n        /* \"#utility.yul\":2158:2159   */\n      dup1\n        /* \"#utility.yul\":2151:2163   */\n      revert\n        /* \"#utility.yul\":2113:2115   */\n    tag_96:\n        /* \"#utility.yul\":2204:2205   */\n      0x00\n        /* \"#utility.yul\":2229:2282   */\n      tag_97\n        /* \"#utility.yul\":2274:2281   */\n      dup7\n        /* \"#utility.yul\":2265:2271   */\n      dup3\n        /* \"#utility.yul\":2254:2263   */\n      dup8\n        /* \"#utility.yul\":2250:2272   */\n      add\n        /* \"#utility.yul\":2229:2282   */\n      tag_80\n      jump\t// in\n    tag_97:\n        /* \"#utility.yul\":2219:2282   */\n      swap4\n      pop\n        /* \"#utility.yul\":2175:2292   */\n      pop\n        /* \"#utility.yul\":2359:2361   */\n      0x20\n        /* \"#utility.yul\":2348:2357   */\n      dup5\n        /* \"#utility.yul\":2344:2362   */\n      add\n        /* \"#utility.yul\":2331:2363   */\n      calldataload\n        /* \"#utility.yul\":2390:2408   */\n      0xffffffffffffffff\n        /* \"#utility.yul\":2382:2388   */\n      dup2\n        /* \"#utility.yul\":2379:2409   */\n      gt\n        /* \"#utility.yul\":2376:2378   */\n      iszero\n      tag_98\n      jumpi\n        /* \"#utility.yul\":2422:2423   */\n      0x00\n        /* \"#utility.yul\":2419:2420   */\n      dup1\n        /* \"#utility.yul\":2412:2424   */\n      revert\n        /* \"#utility.yul\":2376:2378   */\n    tag_98:\n        /* \"#utility.yul\":2450:2513   */\n      tag_99\n        /* \"#utility.yul\":2505:2512   */\n      dup7\n        /* \"#utility.yul\":2496:2502   */\n      dup3\n        /* \"#utility.yul\":2485:2494   */\n      dup8\n        /* \"#utility.yul\":2481:2503   */\n      add\n        /* \"#utility.yul\":2450:2513   */\n      tag_76\n      jump\t// in\n    tag_99:\n        /* \"#utility.yul\":2440:2513   */\n      swap3\n      pop\n        /* \"#utility.yul\":2302:2523   */\n      pop\n        /* \"#utility.yul\":2562:2564   */\n      0x40\n        /* \"#utility.yul\":2588:2641   */\n      tag_100\n        /* \"#utility.yul\":2633:2640   */\n      dup7\n        /* \"#utility.yul\":2624:2630   */\n      dup3\n        /* \"#utility.yul\":2613:2622   */\n      dup8\n        /* \"#utility.yul\":2609:2631   */\n      add\n        /* \"#utility.yul\":2588:2641   */\n      tag_80\n      jump\t// in\n    tag_100:\n        /* \"#utility.yul\":2578:2641   */\n      swap2\n      pop\n        /* \"#utility.yul\":2533:2651   */\n      pop\n        /* \"#utility.yul\":2103:2658   */\n      swap3\n      pop\n      swap3\n      pop\n      swap3\n      jump\t// out\n        /* \"#utility.yul\":2664:2782   */\n    tag_101:\n        /* \"#utility.yul\":2751:2775   */\n      tag_103\n        /* \"#utility.yul\":2769:2774   */\n      dup2\n        /* \"#utility.yul\":2751:2775   */\n      tag_104\n      jump\t// in\n    tag_103:\n        /* \"#utility.yul\":2746:2749   */\n      dup3\n        /* \"#utility.yul\":2739:2776   */\n      mstore\n        /* \"#utility.yul\":2729:2782   */\n      pop\n      pop\n      jump\t// out\n        /* \"#utility.yul\":2788:3152   */\n    tag_105:\n      0x00\n        /* \"#utility.yul\":2904:2943   */\n      tag_107\n        /* \"#utility.yul\":2937:2942   */\n      dup3\n        /* \"#utility.yul\":2904:2943   */\n      tag_108\n      jump\t// in\n    tag_107:\n        /* \"#utility.yul\":2959:3030   */\n      tag_109\n        /* \"#utility.yul\":3023:3029   */\n      dup2\n        /* \"#utility.yul\":3018:3021   */\n      dup6\n        /* \"#utility.yul\":2959:3030   */\n      tag_110\n      jump\t// in\n    tag_109:\n        /* \"#utility.yul\":2952:3030   */\n      swap4\n      pop\n        /* \"#utility.yul\":3039:3091   */\n      tag_111\n        /* \"#utility.yul\":3084:3090   */\n      dup2\n        /* \"#utility.yul\":3079:3082   */\n      dup6\n        /* \"#utility.yul\":3072:3076   */\n      0x20\n        /* \"#utility.yul\":3065:3070   */\n      dup7\n        /* \"#utility.yul\":3061:3077   */\n      add\n        /* \"#utility.yul\":3039:3091   */\n      tag_112\n      jump\t// in\n    tag_111:\n        /* \"#utility.yul\":3116:3145   */\n      tag_113\n        /* \"#utility.yul\":3138:3144   */\n      dup2\n        /* \"#utility.yul\":3116:3145   */\n      tag_114\n      jump\t// in\n    tag_113:\n        /* \"#utility.yul\":3111:3114   */\n      dup5\n        /* \"#utility.yul\":3107:3146   */\n      add\n        /* \"#utility.yul\":3100:3146   */\n      swap2\n      pop\n        /* \"#utility.yul\":2880:3152   */\n      pop\n      swap3\n      swap2\n      pop\n      pop\n      jump\t// out\n        /* \"#utility.yul\":3158:3469   */\n    tag_115:\n      0x00\n        /* \"#utility.yul\":3321:3388   */\n      tag_117\n        /* \"#utility.yul\":3385:3387   */\n      0x0d\n        /* \"#utility.yul\":3380:3383   */\n      dup4\n        /* \"#utility.yul\":3321:3388   */\n      tag_110\n      jump\t// in\n    tag_117:\n        /* \"#utility.yul\":3314:3388   */\n      swap2\n      pop\n        /* \"#utility.yul\":3418:3433   */\n      0x4163636573732044656e69656400000000000000000000000000000000000000\n        /* \"#utility.yul\":3414:3415   */\n      0x00\n        /* \"#utility.yul\":3409:3412   */\n      dup4\n        /* \"#utility.yul\":3405:3416   */\n      add\n        /* \"#utility.yul\":3398:3434   */\n      mstore\n        /* \"#utility.yul\":3460:3462   */\n      0x20\n        /* \"#utility.yul\":3455:3458   */\n      dup3\n        /* \"#utility.yul\":3451:3463   */\n      add\n        /* \"#utility.yul\":3444:3463   */\n      swap1\n      pop\n        /* \"#utility.yul\":3304:3469   */\n      swap2\n      swap1\n      pop\n      jump\t// out\n        /* \"#utility.yul\":3475:3593   */\n    tag_118:\n        /* \"#utility.yul\":3562:3586   */\n      tag_120\n        /* \"#utility.yul\":3580:3585   */\n      dup2\n        /* \"#utility.yul\":3562:3586   */\n      tag_121\n      jump\t// in\n    tag_120:\n        /* \"#utility.yul\":3557:3560   */\n      dup3\n        /* \"#utility.yul\":3550:3587   */\n      mstore\n        /* \"#utility.yul\":3540:3593   */\n      pop\n      pop\n      jump\t// out\n        /* \"#utility.yul\":3599:4223   */\n    tag_21:\n      0x00\n        /* \"#utility.yul\":3826:3828   */\n      0x60\n        /* \"#utility.yul\":3815:3824   */\n      dup3\n        /* \"#utility.yul\":3811:3829   */\n      add\n        /* \"#utility.yul\":3803:3829   */\n      swap1\n      pop\n        /* \"#utility.yul\":3875:3884   */\n      dup2\n        /* \"#utility.yul\":3869:3873   */\n      dup2\n        /* \"#utility.yul\":3865:3885   */\n      sub\n        /* \"#utility.yul\":3861:3862   */\n      0x00\n        /* \"#utility.yul\":3850:3859   */\n      dup4\n        /* \"#utility.yul\":3846:3863   */\n      add\n        /* \"#utility.yul\":3839:3886   */\n      mstore\n        /* \"#utility.yul\":3903:3981   */\n      tag_123\n        /* \"#utility.yul\":3976:3980   */\n      dup2\n        /* \"#utility.yul\":3967:3973   */\n      dup7\n        /* \"#utility.yul\":3903:3981   */\n      tag_105\n      jump\t// in\n    tag_123:\n        /* \"#utility.yul\":3895:3981   */\n      swap1\n      pop\n        /* \"#utility.yul\":4028:4037   */\n      dup2\n        /* \"#utility.yul\":4022:4026   */\n      dup2\n        /* \"#utility.yul\":4018:4038   */\n      sub\n        /* \"#utility.yul\":4013:4015   */\n      0x20\n        /* \"#utility.yul\":4002:4011   */\n      dup4\n        /* \"#utility.yul\":3998:4016   */\n      add\n        /* \"#utility.yul\":3991:4039   */\n      mstore\n        /* \"#utility.yul\":4056:4134   */\n      tag_124\n        /* \"#utility.yul\":4129:4133   */\n      dup2\n        /* \"#utility.yul\":4120:4126   */\n      dup6\n        /* \"#utility.yul\":4056:4134   */\n      tag_105\n      jump\t// in\n    tag_124:\n        /* \"#utility.yul\":4048:4134   */\n      swap1\n      pop\n        /* \"#utility.yul\":4144:4216   */\n      tag_125\n        /* \"#utility.yul\":4212:4214   */\n      0x40\n        /* \"#utility.yul\":4201:4210   */\n      dup4\n        /* \"#utility.yul\":4197:4215   */\n      add\n        /* \"#utility.yul\":4188:4194   */\n      dup5\n        /* \"#utility.yul\":4144:4216   */\n      tag_118\n      jump\t// in\n    tag_125:\n        /* \"#utility.yul\":3793:4223   */\n      swap5\n      swap4\n      pop\n      pop\n      pop\n      pop\n      jump\t// out\n        /* \"#utility.yul\":4229:4648   */\n    tag_37:\n      0x00\n        /* \"#utility.yul\":4433:4435   */\n      0x20\n        /* \"#utility.yul\":4422:4431   */\n      dup3\n        /* \"#utility.yul\":4418:4436   */\n      add\n        /* \"#utility.yul\":4410:4436   */\n      swap1\n      pop\n        /* \"#utility.yul\":4482:4491   */\n      dup2\n        /* \"#utility.yul\":4476:4480   */\n      dup2\n        /* \"#utility.yul\":4472:4492   */\n      sub\n        /* \"#utility.yul\":4468:4469   */\n      0x00\n        /* \"#utility.yul\":4457:4466   */\n      dup4\n        /* \"#utility.yul\":4453:4470   */\n      add\n        /* \"#utility.yul\":4446:4493   */\n      mstore\n        /* \"#utility.yul\":4510:4641   */\n      tag_127\n        /* \"#utility.yul\":4636:4640   */\n      dup2\n        /* \"#utility.yul\":4510:4641   */\n      tag_115\n      jump\t// in\n    tag_127:\n        /* \"#utility.yul\":4502:4641   */\n      swap1\n      pop\n        /* \"#utility.yul\":4400:4648   */\n      swap2\n      swap1\n      pop\n      jump\t// out\n        /* \"#utility.yul\":4654:4876   */\n    tag_27:\n      0x00\n        /* \"#utility.yul\":4785:4787   */\n      0x20\n        /* \"#utility.yul\":4774:4783   */\n      dup3\n        /* \"#utility.yul\":4770:4788   */\n      add\n        /* \"#utility.yul\":4762:4788   */\n      swap1\n      pop\n        /* \"#utility.yul\":4798:4869   */\n      tag_129\n        /* \"#utility.yul\":4866:4867   */\n      0x00\n        /* \"#utility.yul\":4855:4864   */\n      dup4\n        /* \"#utility.yul\":4851:4868   */\n      add\n        /* \"#utility.yul\":4842:4848   */\n      dup5\n        /* \"#utility.yul\":4798:4869   */\n      tag_118\n      jump\t// in\n    tag_129:\n        /* \"#utility.yul\":4752:4876   */\n      swap3\n      swap2\n      pop\n      pop\n      jump\t// out\n        /* \"#utility.yul\":4882:5526   */\n    tag_12:\n      0x00\n        /* \"#utility.yul\":5117:5120   */\n      0x80\n        /* \"#utility.yul\":5106:5115   */\n      dup3\n        /* \"#utility.yul\":5102:5121   */\n      add\n        /* \"#utility.yul\":5094:5121   */\n      swap1\n      pop\n        /* \"#utility.yul\":5131:5202   */\n      tag_131\n        /* \"#utility.yul\":5199:5200   */\n      0x00\n        /* \"#utility.yul\":5188:5197   */\n      dup4\n        /* \"#utility.yul\":5184:5201   */\n      add\n        /* \"#utility.yul\":5175:5181   */\n      dup8\n        /* \"#utility.yul\":5131:5202   */\n      tag_118\n      jump\t// in\n    tag_131:\n        /* \"#utility.yul\":5249:5258   */\n      dup2\n        /* \"#utility.yul\":5243:5247   */\n      dup2\n        /* \"#utility.yul\":5239:5259   */\n      sub\n        /* \"#utility.yul\":5234:5236   */\n      0x20\n        /* \"#utility.yul\":5223:5232   */\n      dup4\n        /* \"#utility.yul\":5219:5237   */\n      add\n        /* \"#utility.yul\":5212:5260   */\n      mstore\n        /* \"#utility.yul\":5277:5355   */\n      tag_132\n        /* \"#utility.yul\":5350:5354   */\n      dup2\n        /* \"#utility.yul\":5341:5347   */\n      dup7\n        /* \"#utility.yul\":5277:5355   */\n      tag_105\n      jump\t// in\n    tag_132:\n        /* \"#utility.yul\":5269:5355   */\n      swap1\n      pop\n        /* \"#utility.yul\":5365:5437   */\n      tag_133\n        /* \"#utility.yul\":5433:5435   */\n      0x40\n        /* \"#utility.yul\":5422:5431   */\n      dup4\n        /* \"#utility.yul\":5418:5436   */\n      add\n        /* \"#utility.yul\":5409:5415   */\n      dup6\n        /* \"#utility.yul\":5365:5437   */\n      tag_118\n      jump\t// in\n    tag_133:\n        /* \"#utility.yul\":5447:5519   */\n      tag_134\n        /* \"#utility.yul\":5515:5517   */\n      0x60\n        /* \"#utility.yul\":5504:5513   */\n      dup4\n        /* \"#utility.yul\":5500:5518   */\n      add\n        /* \"#utility.yul\":5491:5497   */\n      dup5\n        /* \"#utility.yul\":5447:5519   */\n      tag_101\n      jump\t// in\n    tag_134:\n        /* \"#utility.yul\":5084:5526   */\n      swap6\n      swap5\n      pop\n      pop\n      pop\n      pop\n      pop\n      jump\t// out\n        /* \"#utility.yul\":5532:5815   */\n    tag_72:\n      0x00\n        /* \"#utility.yul\":5598:5600   */\n      0x40\n        /* \"#utility.yul\":5592:5601   */\n      mload\n        /* \"#utility.yul\":5582:5601   */\n      swap1\n      pop\n        /* \"#utility.yul\":5640:5644   */\n      dup2\n        /* \"#utility.yul\":5632:5638   */\n      dup2\n        /* \"#utility.yul\":5628:5645   */\n      add\n        /* \"#utility.yul\":5747:5753   */\n      dup2\n        /* \"#utility.yul\":5735:5745   */\n      dup2\n        /* \"#utility.yul\":5732:5754   */\n      lt\n        /* \"#utility.yul\":5711:5729   */\n      0xffffffffffffffff\n        /* \"#utility.yul\":5699:5709   */\n      dup3\n        /* \"#utility.yul\":5696:5730   */\n      gt\n        /* \"#utility.yul\":5693:5755   */\n      or\n        /* \"#utility.yul\":5690:5692   */\n      iszero\n      tag_136\n      jumpi\n        /* \"#utility.yul\":5758:5776   */\n      tag_137\n      tag_138\n      jump\t// in\n    tag_137:\n        /* \"#utility.yul\":5690:5692   */\n    tag_136:\n        /* \"#utility.yul\":5798:5808   */\n      dup1\n        /* \"#utility.yul\":5794:5796   */\n      0x40\n        /* \"#utility.yul\":5787:5809   */\n      mstore\n        /* \"#utility.yul\":5572:5815   */\n      pop\n      swap2\n      swap1\n      pop\n      jump\t// out\n        /* \"#utility.yul\":5821:6153   */\n    tag_71:\n      0x00\n        /* \"#utility.yul\":5973:5991   */\n      0xffffffffffffffff\n        /* \"#utility.yul\":5965:5971   */\n      dup3\n        /* \"#utility.yul\":5962:5992   */\n      gt\n        /* \"#utility.yul\":5959:5961   */\n      iszero\n      tag_140\n      jumpi\n        /* \"#utility.yul\":5995:6013   */\n      tag_141\n      tag_138\n      jump\t// in\n    tag_141:\n        /* \"#utility.yul\":5959:5961   */\n    tag_140:\n        /* \"#utility.yul\":6080:6084   */\n      0x1f\n        /* \"#utility.yul\":6076:6085   */\n      not\n        /* \"#utility.yul\":6069:6073   */\n      0x1f\n        /* \"#utility.yul\":6061:6067   */\n      dup4\n        /* \"#utility.yul\":6057:6074   */\n      add\n        /* \"#utility.yul\":6053:6086   */\n      and\n        /* \"#utility.yul\":6045:6086   */\n      swap1\n      pop\n        /* \"#utility.yul\":6141:6145   */\n      0x20\n        /* \"#utility.yul\":6135:6139   */\n      dup2\n        /* \"#utility.yul\":6131:6146   */\n      add\n        /* \"#utility.yul\":6123:6146   */\n      swap1\n      pop\n        /* \"#utility.yul\":5888:6153   */\n      swap2\n      swap1\n      pop\n      jump\t// out\n        /* \"#utility.yul\":6159:6258   */\n    tag_108:\n      0x00\n        /* \"#utility.yul\":6245:6250   */\n      dup2\n        /* \"#utility.yul\":6239:6251   */\n      mload\n        /* \"#utility.yul\":6229:6251   */\n      swap1\n      pop\n        /* \"#utility.yul\":6218:6258   */\n      swap2\n      swap1\n      pop\n      jump\t// out\n        /* \"#utility.yul\":6264:6433   */\n    tag_110:\n      0x00\n        /* \"#utility.yul\":6382:6388   */\n      dup3\n        /* \"#utility.yul\":6377:6380   */\n      dup3\n        /* \"#utility.yul\":6370:6389   */\n      mstore\n        /* \"#utility.yul\":6422:6426   */\n      0x20\n        /* \"#utility.yul\":6417:6420   */\n      dup3\n        /* \"#utility.yul\":6413:6427   */\n      add\n        /* \"#utility.yul\":6398:6427   */\n      swap1\n      pop\n        /* \"#utility.yul\":6360:6433   */\n      swap3\n      swap2\n      pop\n      pop\n      jump\t// out\n        /* \"#utility.yul\":6439:6535   */\n    tag_104:\n      0x00\n        /* \"#utility.yul\":6505:6529   */\n      tag_145\n        /* \"#utility.yul\":6523:6528   */\n      dup3\n        /* \"#utility.yul\":6505:6529   */\n      tag_146\n      jump\t// in\n    tag_145:\n        /* \"#utility.yul\":6494:6529   */\n      swap1\n      pop\n        /* \"#utility.yul\":6484:6535   */\n      swap2\n      swap1\n      pop\n      jump\t// out\n        /* \"#utility.yul\":6541:6667   */\n    tag_146:\n      0x00\n        /* \"#utility.yul\":6618:6660   */\n      0xffffffffffffffffffffffffffffffffffffffff\n        /* \"#utility.yul\":6611:6616   */\n      dup3\n        /* \"#utility.yul\":6607:6661   */\n      and\n        /* \"#utility.yul\":6596:6661   */\n      swap1\n      pop\n        /* \"#utility.yul\":6586:6667   */\n      swap2\n      swap1\n      pop\n      jump\t// out\n        /* \"#utility.yul\":6673:6750   */\n    tag_121:\n      0x00\n        /* \"#utility.yul\":6739:6744   */\n      dup2\n        /* \"#utility.yul\":6728:6744   */\n      swap1\n      pop\n        /* \"#utility.yul\":6718:6750   */\n      swap2\n      swap1\n      pop\n      jump\t// out\n        /* \"#utility.yul\":6756:6910   */\n    tag_75:\n        /* \"#utility.yul\":6840:6846   */\n      dup3\n        /* \"#utility.yul\":6835:6838   */\n      dup2\n        /* \"#utility.yul\":6830:6833   */\n      dup4\n        /* \"#utility.yul\":6817:6847   */\n      calldatacopy\n        /* \"#utility.yul\":6902:6903   */\n      0x00\n        /* \"#utility.yul\":6893:6899   */\n      dup4\n        /* \"#utility.yul\":6888:6891   */\n      dup4\n        /* \"#utility.yul\":6884:6900   */\n      add\n        /* \"#utility.yul\":6877:6904   */\n      mstore\n        /* \"#utility.yul\":6807:6910   */\n      pop\n      pop\n      pop\n      jump\t// out\n        /* \"#utility.yul\":6916:7223   */\n    tag_112:\n        /* \"#utility.yul\":6984:6985   */\n      0x00\n        /* \"#utility.yul\":6994:7107   */\n    tag_151:\n        /* \"#utility.yul\":7008:7014   */\n      dup4\n        /* \"#utility.yul\":7005:7006   */\n      dup2\n        /* \"#utility.yul\":7002:7015   */\n      lt\n        /* \"#utility.yul\":6994:7107   */\n      iszero\n      tag_153\n      jumpi\n        /* \"#utility.yul\":7093:7094   */\n      dup1\n        /* \"#utility.yul\":7088:7091   */\n      dup3\n        /* \"#utility.yul\":7084:7095   */\n      add\n        /* \"#utility.yul\":7078:7096   */\n      mload\n        /* \"#utility.yul\":7074:7075   */\n      dup2\n        /* \"#utility.yul\":7069:7072   */\n      dup5\n        /* \"#utility.yul\":7065:7076   */\n      add\n        /* \"#utility.yul\":7058:7097   */\n      mstore\n        /* \"#utility.yul\":7030:7032   */\n      0x20\n        /* \"#utility.yul\":7027:7028   */\n      dup2\n        /* \"#utility.yul\":7023:7033   */\n      add\n        /* \"#utility.yul\":7018:7033   */\n      swap1\n      pop\n        /* \"#utility.yul\":6994:7107   */\n      jump(tag_151)\n    tag_153:\n        /* \"#utility.yul\":7125:7131   */\n      dup4\n        /* \"#utility.yul\":7122:7123   */\n      dup2\n        /* \"#utility.yul\":7119:7132   */\n      gt\n        /* \"#utility.yul\":7116:7118   */\n      iszero\n      tag_154\n      jumpi\n        /* \"#utility.yul\":7205:7206   */\n      0x00\n        /* \"#utility.yul\":7196:7202   */\n      dup5\n        /* \"#utility.yul\":7191:7194   */\n      dup5\n        /* \"#utility.yul\":7187:7203   */\n      add\n        /* \"#utility.yul\":7180:7207   */\n      mstore\n        /* \"#utility.yul\":7116:7118   */\n    tag_154:\n        /* \"#utility.yul\":6965:7223   */\n      pop\n      pop\n      pop\n      pop\n      jump\t// out\n        /* \"#utility.yul\":7229:7549   */\n    tag_29:\n      0x00\n        /* \"#utility.yul\":7310:7311   */\n      0x02\n        /* \"#utility.yul\":7304:7308   */\n      dup3\n        /* \"#utility.yul\":7300:7312   */\n      div\n        /* \"#utility.yul\":7290:7312   */\n      swap1\n      pop\n        /* \"#utility.yul\":7357:7358   */\n      0x01\n        /* \"#utility.yul\":7351:7355   */\n      dup3\n        /* \"#utility.yul\":7347:7359   */\n      and\n        /* \"#utility.yul\":7378:7396   */\n      dup1\n        /* \"#utility.yul\":7368:7370   */\n      tag_156\n      jumpi\n        /* \"#utility.yul\":7434:7438   */\n      0x7f\n        /* \"#utility.yul\":7426:7432   */\n      dup3\n        /* \"#utility.yul\":7422:7439   */\n      and\n        /* \"#utility.yul\":7412:7439   */\n      swap2\n      pop\n        /* \"#utility.yul\":7368:7370   */\n    tag_156:\n        /* \"#utility.yul\":7496:7498   */\n      0x20\n        /* \"#utility.yul\":7488:7494   */\n      dup3\n        /* \"#utility.yul\":7485:7499   */\n      lt\n        /* \"#utility.yul\":7465:7483   */\n      dup2\n        /* \"#utility.yul\":7462:7500   */\n      eq\n        /* \"#utility.yul\":7459:7461   */\n      iszero\n      tag_157\n      jumpi\n        /* \"#utility.yul\":7515:7533   */\n      tag_158\n      tag_159\n      jump\t// in\n    tag_158:\n        /* \"#utility.yul\":7459:7461   */\n    tag_157:\n        /* \"#utility.yul\":7280:7549   */\n      pop\n      swap2\n      swap1\n      pop\n      jump\t// out\n        /* \"#utility.yul\":7555:7735   */\n    tag_159:\n        /* \"#utility.yul\":7603:7680   */\n      0x4e487b7100000000000000000000000000000000000000000000000000000000\n        /* \"#utility.yul\":7600:7601   */\n      0x00\n        /* \"#utility.yul\":7593:7681   */\n      mstore\n        /* \"#utility.yul\":7700:7704   */\n      0x22\n        /* \"#utility.yul\":7697:7698   */\n      0x04\n        /* \"#utility.yul\":7690:7705   */\n      mstore\n        /* \"#utility.yul\":7724:7728   */\n      0x24\n        /* \"#utility.yul\":7721:7722   */\n      0x00\n        /* \"#utility.yul\":7714:7729   */\n      revert\n        /* \"#utility.yul\":7741:7921   */\n    tag_138:\n        /* \"#utility.yul\":7789:7866   */\n      0x4e487b7100000000000000000000000000000000000000000000000000000000\n        /* \"#utility.yul\":7786:7787   */\n      0x00\n        /* \"#utility.yul\":7779:7867   */\n      mstore\n        /* \"#utility.yul\":7886:7890   */\n      0x41\n        /* \"#utility.yul\":7883:7884   */\n      0x04\n        /* \"#utility.yul\":7876:7891   */\n      mstore\n        /* \"#utility.yul\":7910:7914   */\n      0x24\n        /* \"#utility.yul\":7907:7908   */\n      0x00\n        /* \"#utility.yul\":7900:7915   */\n      revert\n        /* \"#utility.yul\":7927:8029   */\n    tag_114:\n      0x00\n        /* \"#utility.yul\":8019:8021   */\n      0x1f\n        /* \"#utility.yul\":8015:8022   */\n      not\n        /* \"#utility.yul\":8010:8012   */\n      0x1f\n        /* \"#utility.yul\":8003:8008   */\n      dup4\n        /* \"#utility.yul\":7999:8013   */\n      add\n        /* \"#utility.yul\":7995:8023   */\n      and\n        /* \"#utility.yul\":7985:8023   */\n      swap1\n      pop\n        /* \"#utility.yul\":7975:8029   */\n      swap2\n      swap1\n      pop\n      jump\t// out\n        /* \"#utility.yul\":8035:8157   */\n    tag_83:\n        /* \"#utility.yul\":8108:8132   */\n      tag_164\n        /* \"#utility.yul\":8126:8131   */\n      dup2\n        /* \"#utility.yul\":8108:8132   */\n      tag_121\n      jump\t// in\n    tag_164:\n        /* \"#utility.yul\":8101:8106   */\n      dup2\n        /* \"#utility.yul\":8098:8133   */\n      eq\n        /* \"#utility.yul\":8088:8090   */\n      tag_165\n      jumpi\n        /* \"#utility.yul\":8147:8148   */\n      0x00\n        /* \"#utility.yul\":8144:8145   */\n      dup1\n        /* \"#utility.yul\":8137:8149   */\n      revert\n        /* \"#utility.yul\":8088:8090   */\n    tag_165:\n        /* \"#utility.yul\":8078:8157   */\n      pop\n      jump\t// out\n\n    auxdata: 0xa26469706673582212205e201538304255269911c0acc9d0bdfb1d31007bc426f97f988e31bca8333ffd64736f6c63430008000033\n}\n",
				"bytecode": {
					"linkReferences": {},
					"object": "608060405234801561001057600080fd5b50336000806101000a81548173ffffffffffffffffffffffffffffffffffffffff021916908373ffffffffffffffffffffffffffffffffffffffff160217905550610ae5806100606000396000f3fe608060405234801561001057600080fd5b506004361061004c5760003560e01c806306ead22e146100515780635784a16d1461008457806396f979d2146100a0578063c1bea1db146100d2575b600080fd5b61006b60048036038101906100669190610676565b610102565b60405161007b94939291906108b0565b60405180910390f35b61009e6004803603810190610099919061069f565b6101da565b005b6100ba60048036038101906100b59190610676565b61030c565b6040516100c993929190610830565b60405180910390f35b6100ec60048036038101906100e79190610732565b610446565b6040516100f99190610895565b60405180910390f35b600360205280600052604060002060009150905080600001549080600101805461012b906109f7565b80601f0160208091040260200160405190810160405280929190818152602001828054610157906109f7565b80156101a45780601f10610179576101008083540402835291602001916101a4565b820191906000526020600020905b81548152906001019060200180831161018757829003601f168201915b5050505050908060020154908060030160009054906101000a900473ffffffffffffffffffffffffffffffffffffffff16905084565b3373ffffffffffffffffffffffffffffffffffffffff1660008054906101000a900473ffffffffffffffffffffffffffffffffffffffff1673ffffffffffffffffffffffffffffffffffffffff1614610268576040517f08c379a000000000000000000000000000000000000000000000000000000000815260040161025f90610875565b60405180910390fd5b60028490806001815401808255809150506001900390600052602060002001600090919091909150556040518060600160405280848152602001838152602001828152506001600086815260200190815260200160002060008201518160000190805190602001906102db929190610556565b5060208201518160010190805190602001906102f8929190610556565b506040820151816002015590505050505050565b600160205280600052604060002060009150905080600001805461032f906109f7565b80601f016020809104026020016040519081016040528092919081815260200182805461035b906109f7565b80156103a85780601f1061037d576101008083540402835291602001916103a8565b820191906000526020600020905b81548152906001019060200180831161038b57829003601f168201915b5050505050908060010180546103bd906109f7565b80601f01602080910402602001604051908101604052809291908181526020018280546103e9906109f7565b80156104365780601f1061040b57610100808354040283529160200191610436565b820191906000526020600020905b81548152906001019060200180831161041957829003601f168201915b5050505050908060020154905083565b6000600484908060018154018082558091505060019003906000526020600020016000909190919091505560405180608001604052808581526020018481526020018381526020013373ffffffffffffffffffffffffffffffffffffffff16815250600360008681526020019081526020016000206000820151816000015560208201518160010190805190602001906104e1929190610556565b506040820151816002015560608201518160030160006101000a81548173ffffffffffffffffffffffffffffffffffffffff021916908373ffffffffffffffffffffffffffffffffffffffff160217905550905050600160008581526020019081526020016000206002015490509392505050565b828054610562906109f7565b90600052602060002090601f01602090048101928261058457600085556105cb565b82601f1061059d57805160ff19168380011785556105cb565b828001600101855582156105cb579182015b828111156105ca5782518255916020019190600101906105af565b5b5090506105d891906105dc565b5090565b5b808211156105f55760008160009055506001016105dd565b5090565b600061060c6106078461092d565b6108fc565b90508281526020810184848401111561062457600080fd5b61062f8482856109b5565b509392505050565b600082601f83011261064857600080fd5b81356106588482602086016105f9565b91505092915050565b60008135905061067081610a98565b92915050565b60006020828403121561068857600080fd5b600061069684828501610661565b91505092915050565b600080600080608085870312156106b557600080fd5b60006106c387828801610661565b945050602085013567ffffffffffffffff8111156106e057600080fd5b6106ec87828801610637565b935050604085013567ffffffffffffffff81111561070957600080fd5b61071587828801610637565b925050606061072687828801610661565b91505092959194509250565b60008060006060848603121561074757600080fd5b600061075586828701610661565b935050602084013567ffffffffffffffff81111561077257600080fd5b61077e86828701610637565b925050604061078f86828701610661565b9150509250925092565b6107a281610979565b82525050565b60006107b38261095d565b6107bd8185610968565b93506107cd8185602086016109c4565b6107d681610a87565b840191505092915050565b60006107ee600d83610968565b91507f4163636573732044656e696564000000000000000000000000000000000000006000830152602082019050919050565b61082a816109ab565b82525050565b6000606082019050818103600083015261084a81866107a8565b9050818103602083015261085e81856107a8565b905061086d6040830184610821565b949350505050565b6000602082019050818103600083015261088e816107e1565b9050919050565b60006020820190506108aa6000830184610821565b92915050565b60006080820190506108c56000830187610821565b81810360208301526108d781866107a8565b90506108e66040830185610821565b6108f36060830184610799565b95945050505050565b6000604051905081810181811067ffffffffffffffff8211171561092357610922610a58565b5b8060405250919050565b600067ffffffffffffffff82111561094857610947610a58565b5b601f19601f8301169050602081019050919050565b600081519050919050565b600082825260208201905092915050565b60006109848261098b565b9050919050565b600073ffffffffffffffffffffffffffffffffffffffff82169050919050565b6000819050919050565b82818337600083830152505050565b60005b838110156109e25780820151818401526020810190506109c7565b838111156109f1576000848401525b50505050565b60006002820490506001821680610a0f57607f821691505b60208210811415610a2357610a22610a29565b5b50919050565b7f4e487b7100000000000000000000000000000000000000000000000000000000600052602260045260246000fd5b7f4e487b7100000000000000000000000000000000000000000000000000000000600052604160045260246000fd5b6000601f19601f8301169050919050565b610aa1816109ab565b8114610aac57600080fd5b5056fea26469706673582212205e201538304255269911c0acc9d0bdfb1d31007bc426f97f988e31bca8333ffd64736f6c63430008000033",
					"opcodes": "PUSH1 0x80 PUSH1 0x40 MSTORE CALLVALUE DUP1 ISZERO PUSH2 0x10 JUMPI PUSH1 0x0 DUP1 REVERT JUMPDEST POP CALLER PUSH1 0x0 DUP1 PUSH2 0x100 EXP DUP2 SLOAD DUP2 PUSH20 0xFFFFFFFFFFFFFFFFFFFFFFFFFFFFFFFFFFFFFFFF MUL NOT AND SWAP1 DUP4 PUSH20 0xFFFFFFFFFFFFFFFFFFFFFFFFFFFFFFFFFFFFFFFF AND MUL OR SWAP1 SSTORE POP PUSH2 0xAE5 DUP1 PUSH2 0x60 PUSH1 0x0 CODECOPY PUSH1 0x0 RETURN INVALID PUSH1 0x80 PUSH1 0x40 MSTORE CALLVALUE DUP1 ISZERO PUSH2 0x10 JUMPI PUSH1 0x0 DUP1 REVERT JUMPDEST POP PUSH1 0x4 CALLDATASIZE LT PUSH2 0x4C JUMPI PUSH1 0x0 CALLDATALOAD PUSH1 0xE0 SHR DUP1 PUSH4 0x6EAD22E EQ PUSH2 0x51 JUMPI DUP1 PUSH4 0x5784A16D EQ PUSH2 0x84 JUMPI DUP1 PUSH4 0x96F979D2 EQ PUSH2 0xA0 JUMPI DUP1 PUSH4 0xC1BEA1DB EQ PUSH2 0xD2 JUMPI JUMPDEST PUSH1 0x0 DUP1 REVERT JUMPDEST PUSH2 0x6B PUSH1 0x4 DUP1 CALLDATASIZE SUB DUP2 ADD SWAP1 PUSH2 0x66 SWAP2 SWAP1 PUSH2 0x676 JUMP JUMPDEST PUSH2 0x102 JUMP JUMPDEST PUSH1 0x40 MLOAD PUSH2 0x7B SWAP5 SWAP4 SWAP3 SWAP2 SWAP1 PUSH2 0x8B0 JUMP JUMPDEST PUSH1 0x40 MLOAD DUP1 SWAP2 SUB SWAP1 RETURN JUMPDEST PUSH2 0x9E PUSH1 0x4 DUP1 CALLDATASIZE SUB DUP2 ADD SWAP1 PUSH2 0x99 SWAP2 SWAP1 PUSH2 0x69F JUMP JUMPDEST PUSH2 0x1DA JUMP JUMPDEST STOP JUMPDEST PUSH2 0xBA PUSH1 0x4 DUP1 CALLDATASIZE SUB DUP2 ADD SWAP1 PUSH2 0xB5 SWAP2 SWAP1 PUSH2 0x676 JUMP JUMPDEST PUSH2 0x30C JUMP JUMPDEST PUSH1 0x40 MLOAD PUSH2 0xC9 SWAP4 SWAP3 SWAP2 SWAP1 PUSH2 0x830 JUMP JUMPDEST PUSH1 0x40 MLOAD DUP1 SWAP2 SUB SWAP1 RETURN JUMPDEST PUSH2 0xEC PUSH1 0x4 DUP1 CALLDATASIZE SUB DUP2 ADD SWAP1 PUSH2 0xE7 SWAP2 SWAP1 PUSH2 0x732 JUMP JUMPDEST PUSH2 0x446 JUMP JUMPDEST PUSH1 0x40 MLOAD PUSH2 0xF9 SWAP2 SWAP1 PUSH2 0x895 JUMP JUMPDEST PUSH1 0x40 MLOAD DUP1 SWAP2 SUB SWAP1 RETURN JUMPDEST PUSH1 0x3 PUSH1 0x20 MSTORE DUP1 PUSH1 0x0 MSTORE PUSH1 0x40 PUSH1 0x0 KECCAK256 PUSH1 0x0 SWAP2 POP SWAP1 POP DUP1 PUSH1 0x0 ADD SLOAD SWAP1 DUP1 PUSH1 0x1 ADD DUP1 SLOAD PUSH2 0x12B SWAP1 PUSH2 0x9F7 JUMP JUMPDEST DUP1 PUSH1 0x1F ADD PUSH1 0x20 DUP1 SWAP2 DIV MUL PUSH1 0x20 ADD PUSH1 0x40 MLOAD SWAP1 DUP2 ADD PUSH1 0x40 MSTORE DUP1 SWAP3 SWAP2 SWAP1 DUP2 DUP2 MSTORE PUSH1 0x20 ADD DUP3 DUP1 SLOAD PUSH2 0x157 SWAP1 PUSH2 0x9F7 JUMP JUMPDEST DUP1 ISZERO PUSH2 0x1A4 JUMPI DUP1 PUSH1 0x1F LT PUSH2 0x179 JUMPI PUSH2 0x100 DUP1 DUP4 SLOAD DIV MUL DUP4 MSTORE SWAP2 PUSH1 0x20 ADD SWAP2 PUSH2 0x1A4 JUMP JUMPDEST DUP3 ADD SWAP2 SWAP1 PUSH1 0x0 MSTORE PUSH1 0x20 PUSH1 0x0 KECCAK256 SWAP1 JUMPDEST DUP2 SLOAD DUP2 MSTORE SWAP1 PUSH1 0x1 ADD SWAP1 PUSH1 0x20 ADD DUP1 DUP4 GT PUSH2 0x187 JUMPI DUP3 SWAP1 SUB PUSH1 0x1F AND DUP3 ADD SWAP2 JUMPDEST POP POP POP POP POP SWAP1 DUP1 PUSH1 0x2 ADD SLOAD SWAP1 DUP1 PUSH1 0x3 ADD PUSH1 0x0 SWAP1 SLOAD SWAP1 PUSH2 0x100 EXP SWAP1 DIV PUSH20 0xFFFFFFFFFFFFFFFFFFFFFFFFFFFFFFFFFFFFFFFF AND SWAP1 POP DUP5 JUMP JUMPDEST CALLER PUSH20 0xFFFFFFFFFFFFFFFFFFFFFFFFFFFFFFFFFFFFFFFF AND PUSH1 0x0 DUP1 SLOAD SWAP1 PUSH2 0x100 EXP SWAP1 DIV PUSH20 0xFFFFFFFFFFFFFFFFFFFFFFFFFFFFFFFFFFFFFFFF AND PUSH20 0xFFFFFFFFFFFFFFFFFFFFFFFFFFFFFFFFFFFFFFFF AND EQ PUSH2 0x268 JUMPI PUSH1 0x40 MLOAD PUSH32 0x8C379A000000000000000000000000000000000000000000000000000000000 DUP2 MSTORE PUSH1 0x4 ADD PUSH2 0x25F SWAP1 PUSH2 0x875 JUMP JUMPDEST PUSH1 0x40 MLOAD DUP1 SWAP2 SUB SWAP1 REVERT JUMPDEST PUSH1 0x2 DUP5 SWAP1 DUP1 PUSH1 0x1 DUP2 SLOAD ADD DUP1 DUP3 SSTORE DUP1 SWAP2 POP POP PUSH1 0x1 SWAP1 SUB SWAP1 PUSH1 0x0 MSTORE PUSH1 0x20 PUSH1 0x0 KECCAK256 ADD PUSH1 0x0 SWAP1 SWAP2 SWAP1 SWAP2 SWAP1 SWAP2 POP SSTORE PUSH1 0x40 MLOAD DUP1 PUSH1 0x60 ADD PUSH1 0x40 MSTORE DUP1 DUP5 DUP2 MSTORE PUSH1 0x20 ADD DUP4 DUP2 MSTORE PUSH1 0x20 ADD DUP3 DUP2 MSTORE POP PUSH1 0x1 PUSH1 0x0 DUP7 DUP2 MSTORE PUSH1 0x20 ADD SWAP1 DUP2 MSTORE PUSH1 0x20 ADD PUSH1 0x0 KECCAK256 PUSH1 0x0 DUP3 ADD MLOAD DUP2 PUSH1 0x0 ADD SWAP1 DUP1 MLOAD SWAP1 PUSH1 0x20 ADD SWAP1 PUSH2 0x2DB SWAP3 SWAP2 SWAP1 PUSH2 0x556 JUMP JUMPDEST POP PUSH1 0x20 DUP3 ADD MLOAD DUP2 PUSH1 0x1 ADD SWAP1 DUP1 MLOAD SWAP1 PUSH1 0x20 ADD SWAP1 PUSH2 0x2F8 SWAP3 SWAP2 SWAP1 PUSH2 0x556 JUMP JUMPDEST POP PUSH1 0x40 DUP3 ADD MLOAD DUP2 PUSH1 0x2 ADD SSTORE SWAP1 POP POP POP POP POP POP JUMP JUMPDEST PUSH1 0x1 PUSH1 0x20 MSTORE DUP1 PUSH1 0x0 MSTORE PUSH1 0x40 PUSH1 0x0 KECCAK256 PUSH1 0x0 SWAP2 POP SWAP1 POP DUP1 PUSH1 0x0 ADD DUP1 SLOAD PUSH2 0x32F SWAP1 PUSH2 0x9F7 JUMP JUMPDEST DUP1 PUSH1 0x1F ADD PUSH1 0x20 DUP1 SWAP2 DIV MUL PUSH1 0x20 ADD PUSH1 0x40 MLOAD SWAP1 DUP2 ADD PUSH1 0x40 MSTORE DUP1 SWAP3 SWAP2 SWAP1 DUP2 DUP2 MSTORE PUSH1 0x20 ADD DUP3 DUP1 SLOAD PUSH2 0x35B SWAP1 PUSH2 0x9F7 JUMP JUMPDEST DUP1 ISZERO PUSH2 0x3A8 JUMPI DUP1 PUSH1 0x1F LT PUSH2 0x37D JUMPI PUSH2 0x100 DUP1 DUP4 SLOAD DIV MUL DUP4 MSTORE SWAP2 PUSH1 0x20 ADD SWAP2 PUSH2 0x3A8 JUMP JUMPDEST DUP3 ADD SWAP2 SWAP1 PUSH1 0x0 MSTORE PUSH1 0x20 PUSH1 0x0 KECCAK256 SWAP1 JUMPDEST DUP2 SLOAD DUP2 MSTORE SWAP1 PUSH1 0x1 ADD SWAP1 PUSH1 0x20 ADD DUP1 DUP4 GT PUSH2 0x38B JUMPI DUP3 SWAP1 SUB PUSH1 0x1F AND DUP3 ADD SWAP2 JUMPDEST POP POP POP POP POP SWAP1 DUP1 PUSH1 0x1 ADD DUP1 SLOAD PUSH2 0x3BD SWAP1 PUSH2 0x9F7 JUMP JUMPDEST DUP1 PUSH1 0x1F ADD PUSH1 0x20 DUP1 SWAP2 DIV MUL PUSH1 0x20 ADD PUSH1 0x40 MLOAD SWAP1 DUP2 ADD PUSH1 0x40 MSTORE DUP1 SWAP3 SWAP2 SWAP1 DUP2 DUP2 MSTORE PUSH1 0x20 ADD DUP3 DUP1 SLOAD PUSH2 0x3E9 SWAP1 PUSH2 0x9F7 JUMP JUMPDEST DUP1 ISZERO PUSH2 0x436 JUMPI DUP1 PUSH1 0x1F LT PUSH2 0x40B JUMPI PUSH2 0x100 DUP1 DUP4 SLOAD DIV MUL DUP4 MSTORE SWAP2 PUSH1 0x20 ADD SWAP2 PUSH2 0x436 JUMP JUMPDEST DUP3 ADD SWAP2 SWAP1 PUSH1 0x0 MSTORE PUSH1 0x20 PUSH1 0x0 KECCAK256 SWAP1 JUMPDEST DUP2 SLOAD DUP2 MSTORE SWAP1 PUSH1 0x1 ADD SWAP1 PUSH1 0x20 ADD DUP1 DUP4 GT PUSH2 0x419 JUMPI DUP3 SWAP1 SUB PUSH1 0x1F AND DUP3 ADD SWAP2 JUMPDEST POP POP POP POP POP SWAP1 DUP1 PUSH1 0x2 ADD SLOAD SWAP1 POP DUP4 JUMP JUMPDEST PUSH1 0x0 PUSH1 0x4 DUP5 SWAP1 DUP1 PUSH1 0x1 DUP2 SLOAD ADD DUP1 DUP3 SSTORE DUP1 SWAP2 POP POP PUSH1 0x1 SWAP1 SUB SWAP1 PUSH1 0x0 MSTORE PUSH1 0x20 PUSH1 0x0 KECCAK256 ADD PUSH1 0x0 SWAP1 SWAP2 SWAP1 SWAP2 SWAP1 SWAP2 POP SSTORE PUSH1 0x40 MLOAD DUP1 PUSH1 0x80 ADD PUSH1 0x40 MSTORE DUP1 DUP6 DUP2 MSTORE PUSH1 0x20 ADD DUP5 DUP2 MSTORE PUSH1 0x20 ADD DUP4 DUP2 MSTORE PUSH1 0x20 ADD CALLER PUSH20 0xFFFFFFFFFFFFFFFFFFFFFFFFFFFFFFFFFFFFFFFF AND DUP2 MSTORE POP PUSH1 0x3 PUSH1 0x0 DUP7 DUP2 MSTORE PUSH1 0x20 ADD SWAP1 DUP2 MSTORE PUSH1 0x20 ADD PUSH1 0x0 KECCAK256 PUSH1 0x0 DUP3 ADD MLOAD DUP2 PUSH1 0x0 ADD SSTORE PUSH1 0x20 DUP3 ADD MLOAD DUP2 PUSH1 0x1 ADD SWAP1 DUP1 MLOAD SWAP1 PUSH1 0x20 ADD SWAP1 PUSH2 0x4E1 SWAP3 SWAP2 SWAP1 PUSH2 0x556 JUMP JUMPDEST POP PUSH1 0x40 DUP3 ADD MLOAD DUP2 PUSH1 0x2 ADD SSTORE PUSH1 0x60 DUP3 ADD MLOAD DUP2 PUSH1 0x3 ADD PUSH1 0x0 PUSH2 0x100 EXP DUP2 SLOAD DUP2 PUSH20 0xFFFFFFFFFFFFFFFFFFFFFFFFFFFFFFFFFFFFFFFF MUL NOT AND SWAP1 DUP4 PUSH20 0xFFFFFFFFFFFFFFFFFFFFFFFFFFFFFFFFFFFFFFFF AND MUL OR SWAP1 SSTORE POP SWAP1 POP POP PUSH1 0x1 PUSH1 0x0 DUP6 DUP2 MSTORE PUSH1 0x20 ADD SWAP1 DUP2 MSTORE PUSH1 0x20 ADD PUSH1 0x0 KECCAK256 PUSH1 0x2 ADD SLOAD SWAP1 POP SWAP4 SWAP3 POP POP POP JUMP JUMPDEST DUP3 DUP1 SLOAD PUSH2 0x562 SWAP1 PUSH2 0x9F7 JUMP JUMPDEST SWAP1 PUSH1 0x0 MSTORE PUSH1 0x20 PUSH1 0x0 KECCAK256 SWAP1 PUSH1 0x1F ADD PUSH1 0x20 SWAP1 DIV DUP2 ADD SWAP3 DUP3 PUSH2 0x584 JUMPI PUSH1 0x0 DUP6 SSTORE PUSH2 0x5CB JUMP JUMPDEST DUP3 PUSH1 0x1F LT PUSH2 0x59D JUMPI DUP1 MLOAD PUSH1 0xFF NOT AND DUP4 DUP1 ADD OR DUP6 SSTORE PUSH2 0x5CB JUMP JUMPDEST DUP3 DUP1 ADD PUSH1 0x1 ADD DUP6 SSTORE DUP3 ISZERO PUSH2 0x5CB JUMPI SWAP2 DUP3 ADD JUMPDEST DUP3 DUP2 GT ISZERO PUSH2 0x5CA JUMPI DUP3 MLOAD DUP3 SSTORE SWAP2 PUSH1 0x20 ADD SWAP2 SWAP1 PUSH1 0x1 ADD SWAP1 PUSH2 0x5AF JUMP JUMPDEST JUMPDEST POP SWAP1 POP PUSH2 0x5D8 SWAP2 SWAP1 PUSH2 0x5DC JUMP JUMPDEST POP SWAP1 JUMP JUMPDEST JUMPDEST DUP1 DUP3 GT ISZERO PUSH2 0x5F5 JUMPI PUSH1 0x0 DUP2 PUSH1 0x0 SWAP1 SSTORE POP PUSH1 0x1 ADD PUSH2 0x5DD JUMP JUMPDEST POP SWAP1 JUMP JUMPDEST PUSH1 0x0 PUSH2 0x60C PUSH2 0x607 DUP5 PUSH2 0x92D JUMP JUMPDEST PUSH2 0x8FC JUMP JUMPDEST SWAP1 POP DUP3 DUP2 MSTORE PUSH1 0x20 DUP2 ADD DUP5 DUP5 DUP5 ADD GT ISZERO PUSH2 0x624 JUMPI PUSH1 0x0 DUP1 REVERT JUMPDEST PUSH2 0x62F DUP5 DUP3 DUP6 PUSH2 0x9B5 JUMP JUMPDEST POP SWAP4 SWAP3 POP POP POP JUMP JUMPDEST PUSH1 0x0 DUP3 PUSH1 0x1F DUP4 ADD SLT PUSH2 0x648 JUMPI PUSH1 0x0 DUP1 REVERT JUMPDEST DUP2 CALLDATALOAD PUSH2 0x658 DUP5 DUP3 PUSH1 0x20 DUP7 ADD PUSH2 0x5F9 JUMP JUMPDEST SWAP2 POP POP SWAP3 SWAP2 POP POP JUMP JUMPDEST PUSH1 0x0 DUP2 CALLDATALOAD SWAP1 POP PUSH2 0x670 DUP2 PUSH2 0xA98 JUMP JUMPDEST SWAP3 SWAP2 POP POP JUMP JUMPDEST PUSH1 0x0 PUSH1 0x20 DUP3 DUP5 SUB SLT ISZERO PUSH2 0x688 JUMPI PUSH1 0x0 DUP1 REVERT JUMPDEST PUSH1 0x0 PUSH2 0x696 DUP5 DUP3 DUP6 ADD PUSH2 0x661 JUMP JUMPDEST SWAP2 POP POP SWAP3 SWAP2 POP POP JUMP JUMPDEST PUSH1 0x0 DUP1 PUSH1 0x0 DUP1 PUSH1 0x80 DUP6 DUP8 SUB SLT ISZERO PUSH2 0x6B5 JUMPI PUSH1 0x0 DUP1 REVERT JUMPDEST PUSH1 0x0 PUSH2 0x6C3 DUP8 DUP3 DUP9 ADD PUSH2 0x661 JUMP JUMPDEST SWAP5 POP POP PUSH1 0x20 DUP6 ADD CALLDATALOAD PUSH8 0xFFFFFFFFFFFFFFFF DUP2 GT ISZERO PUSH2 0x6E0 JUMPI PUSH1 0x0 DUP1 REVERT JUMPDEST PUSH2 0x6EC DUP8 DUP3 DUP9 ADD PUSH2 0x637 JUMP JUMPDEST SWAP4 POP POP PUSH1 0x40 DUP6 ADD CALLDATALOAD PUSH8 0xFFFFFFFFFFFFFFFF DUP2 GT ISZERO PUSH2 0x709 JUMPI PUSH1 0x0 DUP1 REVERT JUMPDEST PUSH2 0x715 DUP8 DUP3 DUP9 ADD PUSH2 0x637 JUMP JUMPDEST SWAP3 POP POP PUSH1 0x60 PUSH2 0x726 DUP8 DUP3 DUP9 ADD PUSH2 0x661 JUMP JUMPDEST SWAP2 POP POP SWAP3 SWAP6 SWAP2 SWAP5 POP SWAP3 POP JUMP JUMPDEST PUSH1 0x0 DUP1 PUSH1 0x0 PUSH1 0x60 DUP5 DUP7 SUB SLT ISZERO PUSH2 0x747 JUMPI PUSH1 0x0 DUP1 REVERT JUMPDEST PUSH1 0x0 PUSH2 0x755 DUP7 DUP3 DUP8 ADD PUSH2 0x661 JUMP JUMPDEST SWAP4 POP POP PUSH1 0x20 DUP5 ADD CALLDATALOAD PUSH8 0xFFFFFFFFFFFFFFFF DUP2 GT ISZERO PUSH2 0x772 JUMPI PUSH1 0x0 DUP1 REVERT JUMPDEST PUSH2 0x77E DUP7 DUP3 DUP8 ADD PUSH2 0x637 JUMP JUMPDEST SWAP3 POP POP PUSH1 0x40 PUSH2 0x78F DUP7 DUP3 DUP8 ADD PUSH2 0x661 JUMP JUMPDEST SWAP2 POP POP SWAP3 POP SWAP3 POP SWAP3 JUMP JUMPDEST PUSH2 0x7A2 DUP2 PUSH2 0x979 JUMP JUMPDEST DUP3 MSTORE POP POP JUMP JUMPDEST PUSH1 0x0 PUSH2 0x7B3 DUP3 PUSH2 0x95D JUMP JUMPDEST PUSH2 0x7BD DUP2 DUP6 PUSH2 0x968 JUMP JUMPDEST SWAP4 POP PUSH2 0x7CD DUP2 DUP6 PUSH1 0x20 DUP7 ADD PUSH2 0x9C4 JUMP JUMPDEST PUSH2 0x7D6 DUP2 PUSH2 0xA87 JUMP JUMPDEST DUP5 ADD SWAP2 POP POP SWAP3 SWAP2 POP POP JUMP JUMPDEST PUSH1 0x0 PUSH2 0x7EE PUSH1 0xD DUP4 PUSH2 0x968 JUMP JUMPDEST SWAP2 POP PUSH32 0x4163636573732044656E69656400000000000000000000000000000000000000 PUSH1 0x0 DUP4 ADD MSTORE PUSH1 0x20 DUP3 ADD SWAP1 POP SWAP2 SWAP1 POP JUMP JUMPDEST PUSH2 0x82A DUP2 PUSH2 0x9AB JUMP JUMPDEST DUP3 MSTORE POP POP JUMP JUMPDEST PUSH1 0x0 PUSH1 0x60 DUP3 ADD SWAP1 POP DUP2 DUP2 SUB PUSH1 0x0 DUP4 ADD MSTORE PUSH2 0x84A DUP2 DUP7 PUSH2 0x7A8 JUMP JUMPDEST SWAP1 POP DUP2 DUP2 SUB PUSH1 0x20 DUP4 ADD MSTORE PUSH2 0x85E DUP2 DUP6 PUSH2 0x7A8 JUMP JUMPDEST SWAP1 POP PUSH2 0x86D PUSH1 0x40 DUP4 ADD DUP5 PUSH2 0x821 JUMP JUMPDEST SWAP5 SWAP4 POP POP POP POP JUMP JUMPDEST PUSH1 0x0 PUSH1 0x20 DUP3 ADD SWAP1 POP DUP2 DUP2 SUB PUSH1 0x0 DUP4 ADD MSTORE PUSH2 0x88E DUP2 PUSH2 0x7E1 JUMP JUMPDEST SWAP1 POP SWAP2 SWAP1 POP JUMP JUMPDEST PUSH1 0x0 PUSH1 0x20 DUP3 ADD SWAP1 POP PUSH2 0x8AA PUSH1 0x0 DUP4 ADD DUP5 PUSH2 0x821 JUMP JUMPDEST SWAP3 SWAP2 POP POP JUMP JUMPDEST PUSH1 0x0 PUSH1 0x80 DUP3 ADD SWAP1 POP PUSH2 0x8C5 PUSH1 0x0 DUP4 ADD DUP8 PUSH2 0x821 JUMP JUMPDEST DUP2 DUP2 SUB PUSH1 0x20 DUP4 ADD MSTORE PUSH2 0x8D7 DUP2 DUP7 PUSH2 0x7A8 JUMP JUMPDEST SWAP1 POP PUSH2 0x8E6 PUSH1 0x40 DUP4 ADD DUP6 PUSH2 0x821 JUMP JUMPDEST PUSH2 0x8F3 PUSH1 0x60 DUP4 ADD DUP5 PUSH2 0x799 JUMP JUMPDEST SWAP6 SWAP5 POP POP POP POP POP JUMP JUMPDEST PUSH1 0x0 PUSH1 0x40 MLOAD SWAP1 POP DUP2 DUP2 ADD DUP2 DUP2 LT PUSH8 0xFFFFFFFFFFFFFFFF DUP3 GT OR ISZERO PUSH2 0x923 JUMPI PUSH2 0x922 PUSH2 0xA58 JUMP JUMPDEST JUMPDEST DUP1 PUSH1 0x40 MSTORE POP SWAP2 SWAP1 POP JUMP JUMPDEST PUSH1 0x0 PUSH8 0xFFFFFFFFFFFFFFFF DUP3 GT ISZERO PUSH2 0x948 JUMPI PUSH2 0x947 PUSH2 0xA58 JUMP JUMPDEST JUMPDEST PUSH1 0x1F NOT PUSH1 0x1F DUP4 ADD AND SWAP1 POP PUSH1 0x20 DUP2 ADD SWAP1 POP SWAP2 SWAP1 POP JUMP JUMPDEST PUSH1 0x0 DUP2 MLOAD SWAP1 POP SWAP2 SWAP1 POP JUMP JUMPDEST PUSH1 0x0 DUP3 DUP3 MSTORE PUSH1 0x20 DUP3 ADD SWAP1 POP SWAP3 SWAP2 POP POP JUMP JUMPDEST PUSH1 0x0 PUSH2 0x984 DUP3 PUSH2 0x98B JUMP JUMPDEST SWAP1 POP SWAP2 SWAP1 POP JUMP JUMPDEST PUSH1 0x0 PUSH20 0xFFFFFFFFFFFFFFFFFFFFFFFFFFFFFFFFFFFFFFFF DUP3 AND SWAP1 POP SWAP2 SWAP1 POP JUMP JUMPDEST PUSH1 0x0 DUP2 SWAP1 POP SWAP2 SWAP1 POP JUMP JUMPDEST DUP3 DUP2 DUP4 CALLDATACOPY PUSH1 0x0 DUP4 DUP4 ADD MSTORE POP POP POP JUMP JUMPDEST PUSH1 0x0 JUMPDEST DUP4 DUP2 LT ISZERO PUSH2 0x9E2 JUMPI DUP1 DUP3 ADD MLOAD DUP2 DUP5 ADD MSTORE PUSH1 0x20 DUP2 ADD SWAP1 POP PUSH2 0x9C7 JUMP JUMPDEST DUP4 DUP2 GT ISZERO PUSH2 0x9F1 JUMPI PUSH1 0x0 DUP5 DUP5 ADD MSTORE JUMPDEST POP POP POP POP JUMP JUMPDEST PUSH1 0x0 PUSH1 0x2 DUP3 DIV SWAP1 POP PUSH1 0x1 DUP3 AND DUP1 PUSH2 0xA0F JUMPI PUSH1 0x7F DUP3 AND SWAP2 POP JUMPDEST PUSH1 0x20 DUP3 LT DUP2 EQ ISZERO PUSH2 0xA23 JUMPI PUSH2 0xA22 PUSH2 0xA29 JUMP JUMPDEST JUMPDEST POP SWAP2 SWAP1 POP JUMP JUMPDEST PUSH32 0x4E487B7100000000000000000000000000000000000000000000000000000000 PUSH1 0x0 MSTORE PUSH1 0x22 PUSH1 0x4 MSTORE PUSH1 0x24 PUSH1 0x0 REVERT JUMPDEST PUSH32 0x4E487B7100000000000000000000000000000000000000000000000000000000 PUSH1 0x0 MSTORE PUSH1 0x41 PUSH1 0x4 MSTORE PUSH1 0x24 PUSH1 0x0 REVERT JUMPDEST PUSH1 0x0 PUSH1 0x1F NOT PUSH1 0x1F DUP4 ADD AND SWAP1 POP SWAP2 SWAP1 POP JUMP JUMPDEST PUSH2 0xAA1 DUP2 PUSH2 0x9AB JUMP JUMPDEST DUP2 EQ PUSH2 0xAAC JUMPI PUSH1 0x0 DUP1 REVERT JUMPDEST POP JUMP INVALID LOG2 PUSH5 0x6970667358 0x22 SLT KECCAK256 0x5E KECCAK256 ISZERO CODESIZE ADDRESS TIMESTAMP SSTORE 0x26 SWAP10 GT 0xC0 0xAC 0xC9 0xD0 0xBD 0xFB SAR BALANCE STOP PUSH28 0xC426F97F988E31BCA8333FFD64736F6C634300080000330000000000 "
				},
				"gasEstimates": {
					"creation": {
						"codeDepositCost": "557800",
						"executionCost": "21460",
						"totalCost": "579260"
					},
					"external": {
						"addCourse(uint256,string,string,uint256)": "infinite",
						"addStudent(uint256,string,uint256)": "infinite",
						"courses(uint256)": "infinite",
						"students(uint256)": "infinite"
					}
				},
				"methodIdentifiers": {
					"addCourse(uint256,string,string,uint256)": "5784a16d",
					"addStudent(uint256,string,uint256)": "c1bea1db",
					"courses(uint256)": "96f979d2",
					"students(uint256)": "06ead22e"
				}
			},
			"storageLayout": {
				"storage": [
					{
						"astId": 40,
						"contract": "learning/CourseSelling.sol:CourseSelling",
						"label": "owner",
						"offset": 0,
						"slot": "0",
						"type": "t_address"
					},
					{
						"astId": 73,
						"contract": "learning/CourseSelling.sol:CourseSelling",
						"label": "courses",
						"offset": 0,
						"slot": "1",
						"type": "t_mapping(t_uint256,t_struct(course)68_storage)"
					},
					{
						"astId": 76,
						"contract": "learning/CourseSelling.sol:CourseSelling",
						"label": "allCourseIds",
						"offset": 0,
						"slot": "2",
						"type": "t_array(t_uint256)dyn_storage"
					},
					{
						"astId": 120,
						"contract": "learning/CourseSelling.sol:CourseSelling",
						"label": "students",
						"offset": 0,
						"slot": "3",
						"type": "t_mapping(t_uint256,t_struct(student)115_storage)"
					},
					{
						"astId": 123,
						"contract": "learning/CourseSelling.sol:CourseSelling",
						"label": "allStudentsIds",
						"offset": 0,
						"slot": "4",
						"type": "t_array(t_uint256)dyn_storage"
					}
				],
				"types": {
					"t_address": {
						"encoding": "inplace",
						"label": "address",
						"numberOfBytes": "20"
					},
					"t_array(t_uint256)dyn_storage": {
						"base": "t_uint256",
						"encoding": "dynamic_array",
						"label": "uint256[]",
						"numberOfBytes": "32"
					},
					"t_mapping(t_uint256,t_struct(course)68_storage)": {
						"encoding": "mapping",
						"key": "t_uint256",
						"label": "mapping(uint256 => struct CourseSelling.course)",
						"numberOfBytes": "32",
						"value": "t_struct(course)68_storage"
					},
					"t_mapping(t_uint256,t_struct(student)115_storage)": {
						"encoding": "mapping",
						"key": "t_uint256",
						"label": "mapping(uint256 => struct CourseSelling.student)",
						"numberOfBytes": "32",
						"value": "t_struct(student)115_storage"
					},
					"t_string_storage": {
						"encoding": "bytes",
						"label": "string",
						"numberOfBytes": "32"
					},
					"t_struct(course)68_storage": {
						"encoding": "inplace",
						"label": "struct CourseSelling.course",
						"members": [
							{
								"astId": 63,
								"contract": "learning/CourseSelling.sol:CourseSelling",
								"label": "courseName",
								"offset": 0,
								"slot": "0",
								"type": "t_string_storage"
							},
							{
								"astId": 65,
								"contract": "learning/CourseSelling.sol:CourseSelling",
								"label": "courseDuration",
								"offset": 0,
								"slot": "1",
								"type": "t_string_storage"
							},
							{
								"astId": 67,
								"contract": "learning/CourseSelling.sol:CourseSelling",
								"label": "fees",
								"offset": 0,
								"slot": "2",
								"type": "t_uint256"
							}
						],
						"numberOfBytes": "96"
					},
					"t_struct(student)115_storage": {
						"encoding": "inplace",
						"label": "struct CourseSelling.student",
						"members": [
							{
								"astId": 108,
								"contract": "learning/CourseSelling.sol:CourseSelling",
								"label": "id",
								"offset": 0,
								"slot": "0",
								"type": "t_uint256"
							},
							{
								"astId": 110,
								"contract": "learning/CourseSelling.sol:CourseSelling",
								"label": "studentName",
								"offset": 0,
								"slot": "1",
								"type": "t_string_storage"
							},
							{
								"astId": 112,
								"contract": "learning/CourseSelling.sol:CourseSelling",
								"label": "demandFees",
								"offset": 0,
								"slot": "2",
								"type": "t_uint256"
							},
							{
								"astId": 114,
								"contract": "learning/CourseSelling.sol:CourseSelling",
								"label": "wallet",
								"offset": 0,
								"slot": "3",
								"type": "t_address"
							}
						],
						"numberOfBytes": "128"
					},
					"t_uint256": {
						"encoding": "inplace",
						"label": "uint256",
						"numberOfBytes": "32"
					}
				}
			},
			"userdoc": {
				"kind": "user",
				"methods": {},
				"version": 1
			}
		}
	}
}