{
	"learning/CourseBuying.sol": {
		"CourseBuying": {
			"abi": [
				{
					"inputs": [
						{
							"internalType": "address",
							"name": "linkaddress",
							"type": "address"
						}
					],
					"stateMutability": "nonpayable",
					"type": "constructor"
				},
				{
					"inputs": [
						{
							"internalType": "uint256",
							"name": "id",
							"type": "uint256"
						},
						{
							"internalType": "string",
							"name": "name",
							"type": "string"
						},
						{
							"internalType": "uint256",
							"name": "demandfees",
							"type": "uint256"
						}
					],
					"name": "addStudent",
					"outputs": [],
					"stateMutability": "nonpayable",
					"type": "function"
				}
			],
			"devdoc": {
				"kind": "dev",
				"methods": {},
				"version": 1
			},
			"evm": {
				"assembly": "    /* \"learning/CourseBuying.sol\":95:387  contract CourseBuying{\r... */\n  mstore(0x40, 0x80)\n    /* \"learning/CourseBuying.sol\":154:242  constructor(address linkaddress){\r... */\n  callvalue\n  dup1\n  iszero\n  tag_1\n  jumpi\n  0x00\n  dup1\n  revert\ntag_1:\n  pop\n  mload(0x40)\n  sub(codesize, bytecodeSize)\n  dup1\n  bytecodeSize\n  dup4\n  codecopy\n  dup2\n  dup2\n  add\n  0x40\n  mstore\n  dup2\n  add\n  swap1\n  tag_2\n  swap2\n  swap1\n  tag_3\n  jump\t// in\ntag_2:\n    /* \"learning/CourseBuying.sol\":222:233  linkaddress */\n  dup1\n    /* \"learning/CourseBuying.sol\":197:205  purchase */\n  0x00\n  dup1\n    /* \"learning/CourseBuying.sol\":197:234  purchase = CourseSelling(linkaddress) */\n  0x0100\n  exp\n  dup2\n  sload\n  dup2\n  0xffffffffffffffffffffffffffffffffffffffff\n  mul\n  not\n  and\n  swap1\n  dup4\n  0xffffffffffffffffffffffffffffffffffffffff\n  and\n  mul\n  or\n  swap1\n  sstore\n  pop\n    /* \"learning/CourseBuying.sol\":154:242  constructor(address linkaddress){\r... */\n  pop\n    /* \"learning/CourseBuying.sol\":95:387  contract CourseBuying{\r... */\n  jump(tag_6)\n    /* \"#utility.yul\":7:150   */\ntag_8:\n  0x00\n    /* \"#utility.yul\":95:101   */\n  dup2\n    /* \"#utility.yul\":89:102   */\n  mload\n    /* \"#utility.yul\":80:102   */\n  swap1\n  pop\n    /* \"#utility.yul\":111:144   */\n  tag_10\n    /* \"#utility.yul\":138:143   */\n  dup2\n    /* \"#utility.yul\":111:144   */\n  tag_11\n  jump\t// in\ntag_10:\n    /* \"#utility.yul\":70:150   */\n  swap3\n  swap2\n  pop\n  pop\n  jump\t// out\n    /* \"#utility.yul\":156:440   */\ntag_3:\n  0x00\n    /* \"#utility.yul\":275:277   */\n  0x20\n    /* \"#utility.yul\":263:272   */\n  dup3\n    /* \"#utility.yul\":254:261   */\n  dup5\n    /* \"#utility.yul\":250:273   */\n  sub\n    /* \"#utility.yul\":246:278   */\n  slt\n    /* \"#utility.yul\":243:245   */\n  iszero\n  tag_13\n  jumpi\n    /* \"#utility.yul\":291:292   */\n  0x00\n    /* \"#utility.yul\":288:289   */\n  dup1\n    /* \"#utility.yul\":281:293   */\n  revert\n    /* \"#utility.yul\":243:245   */\ntag_13:\n    /* \"#utility.yul\":334:335   */\n  0x00\n    /* \"#utility.yul\":359:423   */\n  tag_14\n    /* \"#utility.yul\":415:422   */\n  dup5\n    /* \"#utility.yul\":406:412   */\n  dup3\n    /* \"#utility.yul\":395:404   */\n  dup6\n    /* \"#utility.yul\":391:413   */\n  add\n    /* \"#utility.yul\":359:423   */\n  tag_8\n  jump\t// in\ntag_14:\n    /* \"#utility.yul\":349:423   */\n  swap2\n  pop\n    /* \"#utility.yul\":305:433   */\n  pop\n    /* \"#utility.yul\":233:440   */\n  swap3\n  swap2\n  pop\n  pop\n  jump\t// out\n    /* \"#utility.yul\":446:542   */\ntag_15:\n  0x00\n    /* \"#utility.yul\":512:536   */\n  tag_17\n    /* \"#utility.yul\":530:535   */\n  dup3\n    /* \"#utility.yul\":512:536   */\n  tag_18\n  jump\t// in\ntag_17:\n    /* \"#utility.yul\":501:536   */\n  swap1\n  pop\n    /* \"#utility.yul\":491:542   */\n  swap2\n  swap1\n  pop\n  jump\t// out\n    /* \"#utility.yul\":548:674   */\ntag_18:\n  0x00\n    /* \"#utility.yul\":625:667   */\n  0xffffffffffffffffffffffffffffffffffffffff\n    /* \"#utility.yul\":618:623   */\n  dup3\n    /* \"#utility.yul\":614:668   */\n  and\n    /* \"#utility.yul\":603:668   */\n  swap1\n  pop\n    /* \"#utility.yul\":593:674   */\n  swap2\n  swap1\n  pop\n  jump\t// out\n    /* \"#utility.yul\":680:802   */\ntag_11:\n    /* \"#utility.yul\":753:777   */\n  tag_21\n    /* \"#utility.yul\":771:776   */\n  dup2\n    /* \"#utility.yul\":753:777   */\n  tag_15\n  jump\t// in\ntag_21:\n    /* \"#utility.yul\":746:751   */\n  dup2\n    /* \"#utility.yul\":743:778   */\n  eq\n    /* \"#utility.yul\":733:735   */\n  tag_22\n  jumpi\n    /* \"#utility.yul\":792:793   */\n  0x00\n    /* \"#utility.yul\":789:790   */\n  dup1\n    /* \"#utility.yul\":782:794   */\n  revert\n    /* \"#utility.yul\":733:735   */\ntag_22:\n    /* \"#utility.yul\":723:802   */\n  pop\n  jump\t// out\n    /* \"learning/CourseBuying.sol\":95:387  contract CourseBuying{\r... */\ntag_6:\n  dataSize(sub_0)\n  dup1\n  dataOffset(sub_0)\n  0x00\n  codecopy\n  0x00\n  return\nstop\n\nsub_0: assembly {\n        /* \"learning/CourseBuying.sol\":95:387  contract CourseBuying{\r... */\n      mstore(0x40, 0x80)\n      callvalue\n      dup1\n      iszero\n      tag_1\n      jumpi\n      0x00\n      dup1\n      revert\n    tag_1:\n      pop\n      jumpi(tag_2, lt(calldatasize, 0x04))\n      shr(0xe0, calldataload(0x00))\n      dup1\n      0xc1bea1db\n      eq\n      tag_3\n      jumpi\n    tag_2:\n      0x00\n      dup1\n      revert\n        /* \"learning/CourseBuying.sol\":250:384  function addStudent(uint id, string memory name, uint demandfees) public{\r... */\n    tag_3:\n      tag_4\n      0x04\n      dup1\n      calldatasize\n      sub\n      dup2\n      add\n      swap1\n      tag_5\n      swap2\n      swap1\n      tag_6\n      jump\t// in\n    tag_5:\n      tag_7\n      jump\t// in\n    tag_4:\n      stop\n    tag_7:\n        /* \"learning/CourseBuying.sol\":335:343  purchase */\n      0x00\n      dup1\n      sload\n      swap1\n      0x0100\n      exp\n      swap1\n      div\n      0xffffffffffffffffffffffffffffffffffffffff\n      and\n        /* \"learning/CourseBuying.sol\":335:354  purchase.addStudent */\n      0xffffffffffffffffffffffffffffffffffffffff\n      and\n      0xc1bea1db\n        /* \"learning/CourseBuying.sol\":355:357  id */\n      dup5\n        /* \"learning/CourseBuying.sol\":359:363  name */\n      dup5\n        /* \"learning/CourseBuying.sol\":365:375  demandfees */\n      dup5\n        /* \"learning/CourseBuying.sol\":335:376  purchase.addStudent(id, name, demandfees) */\n      mload(0x40)\n      dup5\n      0xffffffff\n      and\n      0xe0\n      shl\n      dup2\n      mstore\n      0x04\n      add\n      tag_9\n      swap4\n      swap3\n      swap2\n      swap1\n      tag_10\n      jump\t// in\n    tag_9:\n      0x20\n      mload(0x40)\n      dup1\n      dup4\n      sub\n      dup2\n      0x00\n      dup8\n      dup1\n      extcodesize\n      iszero\n      dup1\n      iszero\n      tag_11\n      jumpi\n      0x00\n      dup1\n      revert\n    tag_11:\n      pop\n      gas\n      call\n      iszero\n      dup1\n      iszero\n      tag_13\n      jumpi\n      returndatasize\n      0x00\n      dup1\n      returndatacopy\n      revert(0x00, returndatasize)\n    tag_13:\n      pop\n      pop\n      pop\n      pop\n      mload(0x40)\n      returndatasize\n      not(0x1f)\n      0x1f\n      dup3\n      add\n      and\n      dup3\n      add\n      dup1\n      0x40\n      mstore\n      pop\n      dup2\n      add\n      swap1\n      tag_14\n      swap2\n      swap1\n      tag_15\n      jump\t// in\n    tag_14:\n      pop\n        /* \"learning/CourseBuying.sol\":250:384  function addStudent(uint id, string memory name, uint demandfees) public{\r... */\n      pop\n      pop\n      pop\n      jump\t// out\n        /* \"#utility.yul\":7:351   */\n    tag_17:\n      0x00\n        /* \"#utility.yul\":110:175   */\n      tag_19\n        /* \"#utility.yul\":125:174   */\n      tag_20\n        /* \"#utility.yul\":167:173   */\n      dup5\n        /* \"#utility.yul\":125:174   */\n      tag_21\n      jump\t// in\n    tag_20:\n        /* \"#utility.yul\":110:175   */\n      tag_22\n      jump\t// in\n    tag_19:\n        /* \"#utility.yul\":101:175   */\n      swap1\n      pop\n        /* \"#utility.yul\":198:204   */\n      dup3\n        /* \"#utility.yul\":191:196   */\n      dup2\n        /* \"#utility.yul\":184:205   */\n      mstore\n        /* \"#utility.yul\":236:240   */\n      0x20\n        /* \"#utility.yul\":229:234   */\n      dup2\n        /* \"#utility.yul\":225:241   */\n      add\n        /* \"#utility.yul\":274:277   */\n      dup5\n        /* \"#utility.yul\":265:271   */\n      dup5\n        /* \"#utility.yul\":260:263   */\n      dup5\n        /* \"#utility.yul\":256:272   */\n      add\n        /* \"#utility.yul\":253:278   */\n      gt\n        /* \"#utility.yul\":250:252   */\n      iszero\n      tag_23\n      jumpi\n        /* \"#utility.yul\":291:292   */\n      0x00\n        /* \"#utility.yul\":288:289   */\n      dup1\n        /* \"#utility.yul\":281:293   */\n      revert\n        /* \"#utility.yul\":250:252   */\n    tag_23:\n        /* \"#utility.yul\":304:345   */\n      tag_24\n        /* \"#utility.yul\":338:344   */\n      dup5\n        /* \"#utility.yul\":333:336   */\n      dup3\n        /* \"#utility.yul\":328:331   */\n      dup6\n        /* \"#utility.yul\":304:345   */\n      tag_25\n      jump\t// in\n    tag_24:\n        /* \"#utility.yul\":91:351   */\n      pop\n      swap4\n      swap3\n      pop\n      pop\n      pop\n      jump\t// out\n        /* \"#utility.yul\":371:644   */\n    tag_26:\n      0x00\n        /* \"#utility.yul\":476:479   */\n      dup3\n        /* \"#utility.yul\":469:473   */\n      0x1f\n        /* \"#utility.yul\":461:467   */\n      dup4\n        /* \"#utility.yul\":457:474   */\n      add\n        /* \"#utility.yul\":453:480   */\n      slt\n        /* \"#utility.yul\":443:445   */\n      tag_28\n      jumpi\n        /* \"#utility.yul\":494:495   */\n      0x00\n        /* \"#utility.yul\":491:492   */\n      dup1\n        /* \"#utility.yul\":484:496   */\n      revert\n        /* \"#utility.yul\":443:445   */\n    tag_28:\n        /* \"#utility.yul\":534:540   */\n      dup2\n        /* \"#utility.yul\":521:541   */\n      calldataload\n        /* \"#utility.yul\":559:638   */\n      tag_29\n        /* \"#utility.yul\":634:637   */\n      dup5\n        /* \"#utility.yul\":626:632   */\n      dup3\n        /* \"#utility.yul\":619:623   */\n      0x20\n        /* \"#utility.yul\":611:617   */\n      dup7\n        /* \"#utility.yul\":607:624   */\n      add\n        /* \"#utility.yul\":559:638   */\n      tag_17\n      jump\t// in\n    tag_29:\n        /* \"#utility.yul\":550:638   */\n      swap2\n      pop\n        /* \"#utility.yul\":433:644   */\n      pop\n      swap3\n      swap2\n      pop\n      pop\n      jump\t// out\n        /* \"#utility.yul\":650:789   */\n    tag_30:\n      0x00\n        /* \"#utility.yul\":734:740   */\n      dup2\n        /* \"#utility.yul\":721:741   */\n      calldataload\n        /* \"#utility.yul\":712:741   */\n      swap1\n      pop\n        /* \"#utility.yul\":750:783   */\n      tag_32\n        /* \"#utility.yul\":777:782   */\n      dup2\n        /* \"#utility.yul\":750:783   */\n      tag_33\n      jump\t// in\n    tag_32:\n        /* \"#utility.yul\":702:789   */\n      swap3\n      swap2\n      pop\n      pop\n      jump\t// out\n        /* \"#utility.yul\":795:938   */\n    tag_34:\n      0x00\n        /* \"#utility.yul\":883:889   */\n      dup2\n        /* \"#utility.yul\":877:890   */\n      mload\n        /* \"#utility.yul\":868:890   */\n      swap1\n      pop\n        /* \"#utility.yul\":899:932   */\n      tag_36\n        /* \"#utility.yul\":926:931   */\n      dup2\n        /* \"#utility.yul\":899:932   */\n      tag_33\n      jump\t// in\n    tag_36:\n        /* \"#utility.yul\":858:938   */\n      swap3\n      swap2\n      pop\n      pop\n      jump\t// out\n        /* \"#utility.yul\":944:1228   */\n    tag_15:\n      0x00\n        /* \"#utility.yul\":1063:1065   */\n      0x20\n        /* \"#utility.yul\":1051:1060   */\n      dup3\n        /* \"#utility.yul\":1042:1049   */\n      dup5\n        /* \"#utility.yul\":1038:1061   */\n      sub\n        /* \"#utility.yul\":1034:1066   */\n      slt\n        /* \"#utility.yul\":1031:1033   */\n      iszero\n      tag_38\n      jumpi\n        /* \"#utility.yul\":1079:1080   */\n      0x00\n        /* \"#utility.yul\":1076:1077   */\n      dup1\n        /* \"#utility.yul\":1069:1081   */\n      revert\n        /* \"#utility.yul\":1031:1033   */\n    tag_38:\n        /* \"#utility.yul\":1122:1123   */\n      0x00\n        /* \"#utility.yul\":1147:1211   */\n      tag_39\n        /* \"#utility.yul\":1203:1210   */\n      dup5\n        /* \"#utility.yul\":1194:1200   */\n      dup3\n        /* \"#utility.yul\":1183:1192   */\n      dup6\n        /* \"#utility.yul\":1179:1201   */\n      add\n        /* \"#utility.yul\":1147:1211   */\n      tag_34\n      jump\t// in\n    tag_39:\n        /* \"#utility.yul\":1137:1211   */\n      swap2\n      pop\n        /* \"#utility.yul\":1093:1221   */\n      pop\n        /* \"#utility.yul\":1021:1228   */\n      swap3\n      swap2\n      pop\n      pop\n      jump\t// out\n        /* \"#utility.yul\":1234:1899   */\n    tag_6:\n      0x00\n      dup1\n      0x00\n        /* \"#utility.yul\":1386:1388   */\n      0x60\n        /* \"#utility.yul\":1374:1383   */\n      dup5\n        /* \"#utility.yul\":1365:1372   */\n      dup7\n        /* \"#utility.yul\":1361:1384   */\n      sub\n        /* \"#utility.yul\":1357:1389   */\n      slt\n        /* \"#utility.yul\":1354:1356   */\n      iszero\n      tag_41\n      jumpi\n        /* \"#utility.yul\":1402:1403   */\n      0x00\n        /* \"#utility.yul\":1399:1400   */\n      dup1\n        /* \"#utility.yul\":1392:1404   */\n      revert\n        /* \"#utility.yul\":1354:1356   */\n    tag_41:\n        /* \"#utility.yul\":1445:1446   */\n      0x00\n        /* \"#utility.yul\":1470:1523   */\n      tag_42\n        /* \"#utility.yul\":1515:1522   */\n      dup7\n        /* \"#utility.yul\":1506:1512   */\n      dup3\n        /* \"#utility.yul\":1495:1504   */\n      dup8\n        /* \"#utility.yul\":1491:1513   */\n      add\n        /* \"#utility.yul\":1470:1523   */\n      tag_30\n      jump\t// in\n    tag_42:\n        /* \"#utility.yul\":1460:1523   */\n      swap4\n      pop\n        /* \"#utility.yul\":1416:1533   */\n      pop\n        /* \"#utility.yul\":1600:1602   */\n      0x20\n        /* \"#utility.yul\":1589:1598   */\n      dup5\n        /* \"#utility.yul\":1585:1603   */\n      add\n        /* \"#utility.yul\":1572:1604   */\n      calldataload\n        /* \"#utility.yul\":1631:1649   */\n      0xffffffffffffffff\n        /* \"#utility.yul\":1623:1629   */\n      dup2\n        /* \"#utility.yul\":1620:1650   */\n      gt\n        /* \"#utility.yul\":1617:1619   */\n      iszero\n      tag_43\n      jumpi\n        /* \"#utility.yul\":1663:1664   */\n      0x00\n        /* \"#utility.yul\":1660:1661   */\n      dup1\n        /* \"#utility.yul\":1653:1665   */\n      revert\n        /* \"#utility.yul\":1617:1619   */\n    tag_43:\n        /* \"#utility.yul\":1691:1754   */\n      tag_44\n        /* \"#utility.yul\":1746:1753   */\n      dup7\n        /* \"#utility.yul\":1737:1743   */\n      dup3\n        /* \"#utility.yul\":1726:1735   */\n      dup8\n        /* \"#utility.yul\":1722:1744   */\n      add\n        /* \"#utility.yul\":1691:1754   */\n      tag_26\n      jump\t// in\n    tag_44:\n        /* \"#utility.yul\":1681:1754   */\n      swap3\n      pop\n        /* \"#utility.yul\":1543:1764   */\n      pop\n        /* \"#utility.yul\":1803:1805   */\n      0x40\n        /* \"#utility.yul\":1829:1882   */\n      tag_45\n        /* \"#utility.yul\":1874:1881   */\n      dup7\n        /* \"#utility.yul\":1865:1871   */\n      dup3\n        /* \"#utility.yul\":1854:1863   */\n      dup8\n        /* \"#utility.yul\":1850:1872   */\n      add\n        /* \"#utility.yul\":1829:1882   */\n      tag_30\n      jump\t// in\n    tag_45:\n        /* \"#utility.yul\":1819:1882   */\n      swap2\n      pop\n        /* \"#utility.yul\":1774:1892   */\n      pop\n        /* \"#utility.yul\":1344:1899   */\n      swap3\n      pop\n      swap3\n      pop\n      swap3\n      jump\t// out\n        /* \"#utility.yul\":1905:2269   */\n    tag_46:\n      0x00\n        /* \"#utility.yul\":2021:2060   */\n      tag_48\n        /* \"#utility.yul\":2054:2059   */\n      dup3\n        /* \"#utility.yul\":2021:2060   */\n      tag_49\n      jump\t// in\n    tag_48:\n        /* \"#utility.yul\":2076:2147   */\n      tag_50\n        /* \"#utility.yul\":2140:2146   */\n      dup2\n        /* \"#utility.yul\":2135:2138   */\n      dup6\n        /* \"#utility.yul\":2076:2147   */\n      tag_51\n      jump\t// in\n    tag_50:\n        /* \"#utility.yul\":2069:2147   */\n      swap4\n      pop\n        /* \"#utility.yul\":2156:2208   */\n      tag_52\n        /* \"#utility.yul\":2201:2207   */\n      dup2\n        /* \"#utility.yul\":2196:2199   */\n      dup6\n        /* \"#utility.yul\":2189:2193   */\n      0x20\n        /* \"#utility.yul\":2182:2187   */\n      dup7\n        /* \"#utility.yul\":2178:2194   */\n      add\n        /* \"#utility.yul\":2156:2208   */\n      tag_53\n      jump\t// in\n    tag_52:\n        /* \"#utility.yul\":2233:2262   */\n      tag_54\n        /* \"#utility.yul\":2255:2261   */\n      dup2\n        /* \"#utility.yul\":2233:2262   */\n      tag_55\n      jump\t// in\n    tag_54:\n        /* \"#utility.yul\":2228:2231   */\n      dup5\n        /* \"#utility.yul\":2224:2263   */\n      add\n        /* \"#utility.yul\":2217:2263   */\n      swap2\n      pop\n        /* \"#utility.yul\":1997:2269   */\n      pop\n      swap3\n      swap2\n      pop\n      pop\n      jump\t// out\n        /* \"#utility.yul\":2275:2393   */\n    tag_56:\n        /* \"#utility.yul\":2362:2386   */\n      tag_58\n        /* \"#utility.yul\":2380:2385   */\n      dup2\n        /* \"#utility.yul\":2362:2386   */\n      tag_59\n      jump\t// in\n    tag_58:\n        /* \"#utility.yul\":2357:2360   */\n      dup3\n        /* \"#utility.yul\":2350:2387   */\n      mstore\n        /* \"#utility.yul\":2340:2393   */\n      pop\n      pop\n      jump\t// out\n        /* \"#utility.yul\":2399:2932   */\n    tag_10:\n      0x00\n        /* \"#utility.yul\":2606:2608   */\n      0x60\n        /* \"#utility.yul\":2595:2604   */\n      dup3\n        /* \"#utility.yul\":2591:2609   */\n      add\n        /* \"#utility.yul\":2583:2609   */\n      swap1\n      pop\n        /* \"#utility.yul\":2619:2690   */\n      tag_61\n        /* \"#utility.yul\":2687:2688   */\n      0x00\n        /* \"#utility.yul\":2676:2685   */\n      dup4\n        /* \"#utility.yul\":2672:2689   */\n      add\n        /* \"#utility.yul\":2663:2669   */\n      dup7\n        /* \"#utility.yul\":2619:2690   */\n      tag_56\n      jump\t// in\n    tag_61:\n        /* \"#utility.yul\":2737:2746   */\n      dup2\n        /* \"#utility.yul\":2731:2735   */\n      dup2\n        /* \"#utility.yul\":2727:2747   */\n      sub\n        /* \"#utility.yul\":2722:2724   */\n      0x20\n        /* \"#utility.yul\":2711:2720   */\n      dup4\n        /* \"#utility.yul\":2707:2725   */\n      add\n        /* \"#utility.yul\":2700:2748   */\n      mstore\n        /* \"#utility.yul\":2765:2843   */\n      tag_62\n        /* \"#utility.yul\":2838:2842   */\n      dup2\n        /* \"#utility.yul\":2829:2835   */\n      dup6\n        /* \"#utility.yul\":2765:2843   */\n      tag_46\n      jump\t// in\n    tag_62:\n        /* \"#utility.yul\":2757:2843   */\n      swap1\n      pop\n        /* \"#utility.yul\":2853:2925   */\n      tag_63\n        /* \"#utility.yul\":2921:2923   */\n      0x40\n        /* \"#utility.yul\":2910:2919   */\n      dup4\n        /* \"#utility.yul\":2906:2924   */\n      add\n        /* \"#utility.yul\":2897:2903   */\n      dup5\n        /* \"#utility.yul\":2853:2925   */\n      tag_56\n      jump\t// in\n    tag_63:\n        /* \"#utility.yul\":2573:2932   */\n      swap5\n      swap4\n      pop\n      pop\n      pop\n      pop\n      jump\t// out\n        /* \"#utility.yul\":2938:3221   */\n    tag_22:\n      0x00\n        /* \"#utility.yul\":3004:3006   */\n      0x40\n        /* \"#utility.yul\":2998:3007   */\n      mload\n        /* \"#utility.yul\":2988:3007   */\n      swap1\n      pop\n        /* \"#utility.yul\":3046:3050   */\n      dup2\n        /* \"#utility.yul\":3038:3044   */\n      dup2\n        /* \"#utility.yul\":3034:3051   */\n      add\n        /* \"#utility.yul\":3153:3159   */\n      dup2\n        /* \"#utility.yul\":3141:3151   */\n      dup2\n        /* \"#utility.yul\":3138:3160   */\n      lt\n        /* \"#utility.yul\":3117:3135   */\n      0xffffffffffffffff\n        /* \"#utility.yul\":3105:3115   */\n      dup3\n        /* \"#utility.yul\":3102:3136   */\n      gt\n        /* \"#utility.yul\":3099:3161   */\n      or\n        /* \"#utility.yul\":3096:3098   */\n      iszero\n      tag_65\n      jumpi\n        /* \"#utility.yul\":3164:3182   */\n      tag_66\n      tag_67\n      jump\t// in\n    tag_66:\n        /* \"#utility.yul\":3096:3098   */\n    tag_65:\n        /* \"#utility.yul\":3204:3214   */\n      dup1\n        /* \"#utility.yul\":3200:3202   */\n      0x40\n        /* \"#utility.yul\":3193:3215   */\n      mstore\n        /* \"#utility.yul\":2978:3221   */\n      pop\n      swap2\n      swap1\n      pop\n      jump\t// out\n        /* \"#utility.yul\":3227:3559   */\n    tag_21:\n      0x00\n        /* \"#utility.yul\":3379:3397   */\n      0xffffffffffffffff\n        /* \"#utility.yul\":3371:3377   */\n      dup3\n        /* \"#utility.yul\":3368:3398   */\n      gt\n        /* \"#utility.yul\":3365:3367   */\n      iszero\n      tag_69\n      jumpi\n        /* \"#utility.yul\":3401:3419   */\n      tag_70\n      tag_67\n      jump\t// in\n    tag_70:\n        /* \"#utility.yul\":3365:3367   */\n    tag_69:\n        /* \"#utility.yul\":3486:3490   */\n      0x1f\n        /* \"#utility.yul\":3482:3491   */\n      not\n        /* \"#utility.yul\":3475:3479   */\n      0x1f\n        /* \"#utility.yul\":3467:3473   */\n      dup4\n        /* \"#utility.yul\":3463:3480   */\n      add\n        /* \"#utility.yul\":3459:3492   */\n      and\n        /* \"#utility.yul\":3451:3492   */\n      swap1\n      pop\n        /* \"#utility.yul\":3547:3551   */\n      0x20\n        /* \"#utility.yul\":3541:3545   */\n      dup2\n        /* \"#utility.yul\":3537:3552   */\n      add\n        /* \"#utility.yul\":3529:3552   */\n      swap1\n      pop\n        /* \"#utility.yul\":3294:3559   */\n      swap2\n      swap1\n      pop\n      jump\t// out\n        /* \"#utility.yul\":3565:3664   */\n    tag_49:\n      0x00\n        /* \"#utility.yul\":3651:3656   */\n      dup2\n        /* \"#utility.yul\":3645:3657   */\n      mload\n        /* \"#utility.yul\":3635:3657   */\n      swap1\n      pop\n        /* \"#utility.yul\":3624:3664   */\n      swap2\n      swap1\n      pop\n      jump\t// out\n        /* \"#utility.yul\":3670:3839   */\n    tag_51:\n      0x00\n        /* \"#utility.yul\":3788:3794   */\n      dup3\n        /* \"#utility.yul\":3783:3786   */\n      dup3\n        /* \"#utility.yul\":3776:3795   */\n      mstore\n        /* \"#utility.yul\":3828:3832   */\n      0x20\n        /* \"#utility.yul\":3823:3826   */\n      dup3\n        /* \"#utility.yul\":3819:3833   */\n      add\n        /* \"#utility.yul\":3804:3833   */\n      swap1\n      pop\n        /* \"#utility.yul\":3766:3839   */\n      swap3\n      swap2\n      pop\n      pop\n      jump\t// out\n        /* \"#utility.yul\":3845:3922   */\n    tag_59:\n      0x00\n        /* \"#utility.yul\":3911:3916   */\n      dup2\n        /* \"#utility.yul\":3900:3916   */\n      swap1\n      pop\n        /* \"#utility.yul\":3890:3922   */\n      swap2\n      swap1\n      pop\n      jump\t// out\n        /* \"#utility.yul\":3928:4082   */\n    tag_25:\n        /* \"#utility.yul\":4012:4018   */\n      dup3\n        /* \"#utility.yul\":4007:4010   */\n      dup2\n        /* \"#utility.yul\":4002:4005   */\n      dup4\n        /* \"#utility.yul\":3989:4019   */\n      calldatacopy\n        /* \"#utility.yul\":4074:4075   */\n      0x00\n        /* \"#utility.yul\":4065:4071   */\n      dup4\n        /* \"#utility.yul\":4060:4063   */\n      dup4\n        /* \"#utility.yul\":4056:4072   */\n      add\n        /* \"#utility.yul\":4049:4076   */\n      mstore\n        /* \"#utility.yul\":3979:4082   */\n      pop\n      pop\n      pop\n      jump\t// out\n        /* \"#utility.yul\":4088:4395   */\n    tag_53:\n        /* \"#utility.yul\":4156:4157   */\n      0x00\n        /* \"#utility.yul\":4166:4279   */\n    tag_76:\n        /* \"#utility.yul\":4180:4186   */\n      dup4\n        /* \"#utility.yul\":4177:4178   */\n      dup2\n        /* \"#utility.yul\":4174:4187   */\n      lt\n        /* \"#utility.yul\":4166:4279   */\n      iszero\n      tag_78\n      jumpi\n        /* \"#utility.yul\":4265:4266   */\n      dup1\n        /* \"#utility.yul\":4260:4263   */\n      dup3\n        /* \"#utility.yul\":4256:4267   */\n      add\n        /* \"#utility.yul\":4250:4268   */\n      mload\n        /* \"#utility.yul\":4246:4247   */\n      dup2\n        /* \"#utility.yul\":4241:4244   */\n      dup5\n        /* \"#utility.yul\":4237:4248   */\n      add\n        /* \"#utility.yul\":4230:4269   */\n      mstore\n        /* \"#utility.yul\":4202:4204   */\n      0x20\n        /* \"#utility.yul\":4199:4200   */\n      dup2\n        /* \"#utility.yul\":4195:4205   */\n      add\n        /* \"#utility.yul\":4190:4205   */\n      swap1\n      pop\n        /* \"#utility.yul\":4166:4279   */\n      jump(tag_76)\n    tag_78:\n        /* \"#utility.yul\":4297:4303   */\n      dup4\n        /* \"#utility.yul\":4294:4295   */\n      dup2\n        /* \"#utility.yul\":4291:4304   */\n      gt\n        /* \"#utility.yul\":4288:4290   */\n      iszero\n      tag_79\n      jumpi\n        /* \"#utility.yul\":4377:4378   */\n      0x00\n        /* \"#utility.yul\":4368:4374   */\n      dup5\n        /* \"#utility.yul\":4363:4366   */\n      dup5\n        /* \"#utility.yul\":4359:4375   */\n      add\n        /* \"#utility.yul\":4352:4379   */\n      mstore\n        /* \"#utility.yul\":4288:4290   */\n    tag_79:\n        /* \"#utility.yul\":4137:4395   */\n      pop\n      pop\n      pop\n      pop\n      jump\t// out\n        /* \"#utility.yul\":4401:4581   */\n    tag_67:\n        /* \"#utility.yul\":4449:4526   */\n      0x4e487b7100000000000000000000000000000000000000000000000000000000\n        /* \"#utility.yul\":4446:4447   */\n      0x00\n        /* \"#utility.yul\":4439:4527   */\n      mstore\n        /* \"#utility.yul\":4546:4550   */\n      0x41\n        /* \"#utility.yul\":4543:4544   */\n      0x04\n        /* \"#utility.yul\":4536:4551   */\n      mstore\n        /* \"#utility.yul\":4570:4574   */\n      0x24\n        /* \"#utility.yul\":4567:4568   */\n      0x00\n        /* \"#utility.yul\":4560:4575   */\n      revert\n        /* \"#utility.yul\":4587:4689   */\n    tag_55:\n      0x00\n        /* \"#utility.yul\":4679:4681   */\n      0x1f\n        /* \"#utility.yul\":4675:4682   */\n      not\n        /* \"#utility.yul\":4670:4672   */\n      0x1f\n        /* \"#utility.yul\":4663:4668   */\n      dup4\n        /* \"#utility.yul\":4659:4673   */\n      add\n        /* \"#utility.yul\":4655:4683   */\n      and\n        /* \"#utility.yul\":4645:4683   */\n      swap1\n      pop\n        /* \"#utility.yul\":4635:4689   */\n      swap2\n      swap1\n      pop\n      jump\t// out\n        /* \"#utility.yul\":4695:4817   */\n    tag_33:\n        /* \"#utility.yul\":4768:4792   */\n      tag_83\n        /* \"#utility.yul\":4786:4791   */\n      dup2\n        /* \"#utility.yul\":4768:4792   */\n      tag_59\n      jump\t// in\n    tag_83:\n        /* \"#utility.yul\":4761:4766   */\n      dup2\n        /* \"#utility.yul\":4758:4793   */\n      eq\n        /* \"#utility.yul\":4748:4750   */\n      tag_84\n      jumpi\n        /* \"#utility.yul\":4807:4808   */\n      0x00\n        /* \"#utility.yul\":4804:4805   */\n      dup1\n        /* \"#utility.yul\":4797:4809   */\n      revert\n        /* \"#utility.yul\":4748:4750   */\n    tag_84:\n        /* \"#utility.yul\":4738:4817   */\n      pop\n      jump\t// out\n\n    auxdata: 0xa264697066735822122096b56d8eb5a928e5f8f1160cbde2608395115d4c39c447edcad18dfafc41753f64736f6c63430008000033\n}\n",
				"bytecode": {
					"linkReferences": {},
					"object": "608060405234801561001057600080fd5b5060405161050d38038061050d8339818101604052810190610032919061008d565b806000806101000a81548173ffffffffffffffffffffffffffffffffffffffff021916908373ffffffffffffffffffffffffffffffffffffffff160217905550506100ff565b600081519050610087816100e8565b92915050565b60006020828403121561009f57600080fd5b60006100ad84828501610078565b91505092915050565b60006100c1826100c8565b9050919050565b600073ffffffffffffffffffffffffffffffffffffffff82169050919050565b6100f1816100b6565b81146100fc57600080fd5b50565b6103ff8061010e6000396000f3fe608060405234801561001057600080fd5b506004361061002b5760003560e01c8063c1bea1db14610030575b600080fd5b61004a600480360381019061004591906101bc565b61004c565b005b60008054906101000a900473ffffffffffffffffffffffffffffffffffffffff1673ffffffffffffffffffffffffffffffffffffffff1663c1bea1db8484846040518463ffffffff1660e01b81526004016100a99392919061026b565b602060405180830381600087803b1580156100c357600080fd5b505af11580156100d7573d6000803e3d6000fd5b505050506040513d601f19601f820116820180604052508101906100fb9190610193565b50505050565b600061011461010f846102da565b6102a9565b90508281526020810184848401111561012c57600080fd5b610137848285610330565b509392505050565b600082601f83011261015057600080fd5b8135610160848260208601610101565b91505092915050565b600081359050610178816103b2565b92915050565b60008151905061018d816103b2565b92915050565b6000602082840312156101a557600080fd5b60006101b38482850161017e565b91505092915050565b6000806000606084860312156101d157600080fd5b60006101df86828701610169565b935050602084013567ffffffffffffffff8111156101fc57600080fd5b6102088682870161013f565b925050604061021986828701610169565b9150509250925092565b600061022e8261030a565b6102388185610315565b935061024881856020860161033f565b610251816103a1565b840191505092915050565b61026581610326565b82525050565b6000606082019050610280600083018661025c565b81810360208301526102928185610223565b90506102a1604083018461025c565b949350505050565b6000604051905081810181811067ffffffffffffffff821117156102d0576102cf610372565b5b8060405250919050565b600067ffffffffffffffff8211156102f5576102f4610372565b5b601f19601f8301169050602081019050919050565b600081519050919050565b600082825260208201905092915050565b6000819050919050565b82818337600083830152505050565b60005b8381101561035d578082015181840152602081019050610342565b8381111561036c576000848401525b50505050565b7f4e487b7100000000000000000000000000000000000000000000000000000000600052604160045260246000fd5b6000601f19601f8301169050919050565b6103bb81610326565b81146103c657600080fd5b5056fea264697066735822122096b56d8eb5a928e5f8f1160cbde2608395115d4c39c447edcad18dfafc41753f64736f6c63430008000033",
					"opcodes": "PUSH1 0x80 PUSH1 0x40 MSTORE CALLVALUE DUP1 ISZERO PUSH2 0x10 JUMPI PUSH1 0x0 DUP1 REVERT JUMPDEST POP PUSH1 0x40 MLOAD PUSH2 0x50D CODESIZE SUB DUP1 PUSH2 0x50D DUP4 CODECOPY DUP2 DUP2 ADD PUSH1 0x40 MSTORE DUP2 ADD SWAP1 PUSH2 0x32 SWAP2 SWAP1 PUSH2 0x8D JUMP JUMPDEST DUP1 PUSH1 0x0 DUP1 PUSH2 0x100 EXP DUP2 SLOAD DUP2 PUSH20 0xFFFFFFFFFFFFFFFFFFFFFFFFFFFFFFFFFFFFFFFF MUL NOT AND SWAP1 DUP4 PUSH20 0xFFFFFFFFFFFFFFFFFFFFFFFFFFFFFFFFFFFFFFFF AND MUL OR SWAP1 SSTORE POP POP PUSH2 0xFF JUMP JUMPDEST PUSH1 0x0 DUP2 MLOAD SWAP1 POP PUSH2 0x87 DUP2 PUSH2 0xE8 JUMP JUMPDEST SWAP3 SWAP2 POP POP JUMP JUMPDEST PUSH1 0x0 PUSH1 0x20 DUP3 DUP5 SUB SLT ISZERO PUSH2 0x9F JUMPI PUSH1 0x0 DUP1 REVERT JUMPDEST PUSH1 0x0 PUSH2 0xAD DUP5 DUP3 DUP6 ADD PUSH2 0x78 JUMP JUMPDEST SWAP2 POP POP SWAP3 SWAP2 POP POP JUMP JUMPDEST PUSH1 0x0 PUSH2 0xC1 DUP3 PUSH2 0xC8 JUMP JUMPDEST SWAP1 POP SWAP2 SWAP1 POP JUMP JUMPDEST PUSH1 0x0 PUSH20 0xFFFFFFFFFFFFFFFFFFFFFFFFFFFFFFFFFFFFFFFF DUP3 AND SWAP1 POP SWAP2 SWAP1 POP JUMP JUMPDEST PUSH2 0xF1 DUP2 PUSH2 0xB6 JUMP JUMPDEST DUP2 EQ PUSH2 0xFC JUMPI PUSH1 0x0 DUP1 REVERT JUMPDEST POP JUMP JUMPDEST PUSH2 0x3FF DUP1 PUSH2 0x10E PUSH1 0x0 CODECOPY PUSH1 0x0 RETURN INVALID PUSH1 0x80 PUSH1 0x40 MSTORE CALLVALUE DUP1 ISZERO PUSH2 0x10 JUMPI PUSH1 0x0 DUP1 REVERT JUMPDEST POP PUSH1 0x4 CALLDATASIZE LT PUSH2 0x2B JUMPI PUSH1 0x0 CALLDATALOAD PUSH1 0xE0 SHR DUP1 PUSH4 0xC1BEA1DB EQ PUSH2 0x30 JUMPI JUMPDEST PUSH1 0x0 DUP1 REVERT JUMPDEST PUSH2 0x4A PUSH1 0x4 DUP1 CALLDATASIZE SUB DUP2 ADD SWAP1 PUSH2 0x45 SWAP2 SWAP1 PUSH2 0x1BC JUMP JUMPDEST PUSH2 0x4C JUMP JUMPDEST STOP JUMPDEST PUSH1 0x0 DUP1 SLOAD SWAP1 PUSH2 0x100 EXP SWAP1 DIV PUSH20 0xFFFFFFFFFFFFFFFFFFFFFFFFFFFFFFFFFFFFFFFF AND PUSH20 0xFFFFFFFFFFFFFFFFFFFFFFFFFFFFFFFFFFFFFFFF AND PUSH4 0xC1BEA1DB DUP5 DUP5 DUP5 PUSH1 0x40 MLOAD DUP5 PUSH4 0xFFFFFFFF AND PUSH1 0xE0 SHL DUP2 MSTORE PUSH1 0x4 ADD PUSH2 0xA9 SWAP4 SWAP3 SWAP2 SWAP1 PUSH2 0x26B JUMP JUMPDEST PUSH1 0x20 PUSH1 0x40 MLOAD DUP1 DUP4 SUB DUP2 PUSH1 0x0 DUP8 DUP1 EXTCODESIZE ISZERO DUP1 ISZERO PUSH2 0xC3 JUMPI PUSH1 0x0 DUP1 REVERT JUMPDEST POP GAS CALL ISZERO DUP1 ISZERO PUSH2 0xD7 JUMPI RETURNDATASIZE PUSH1 0x0 DUP1 RETURNDATACOPY RETURNDATASIZE PUSH1 0x0 REVERT JUMPDEST POP POP POP POP PUSH1 0x40 MLOAD RETURNDATASIZE PUSH1 0x1F NOT PUSH1 0x1F DUP3 ADD AND DUP3 ADD DUP1 PUSH1 0x40 MSTORE POP DUP2 ADD SWAP1 PUSH2 0xFB SWAP2 SWAP1 PUSH2 0x193 JUMP JUMPDEST POP POP POP POP JUMP JUMPDEST PUSH1 0x0 PUSH2 0x114 PUSH2 0x10F DUP5 PUSH2 0x2DA JUMP JUMPDEST PUSH2 0x2A9 JUMP JUMPDEST SWAP1 POP DUP3 DUP2 MSTORE PUSH1 0x20 DUP2 ADD DUP5 DUP5 DUP5 ADD GT ISZERO PUSH2 0x12C JUMPI PUSH1 0x0 DUP1 REVERT JUMPDEST PUSH2 0x137 DUP5 DUP3 DUP6 PUSH2 0x330 JUMP JUMPDEST POP SWAP4 SWAP3 POP POP POP JUMP JUMPDEST PUSH1 0x0 DUP3 PUSH1 0x1F DUP4 ADD SLT PUSH2 0x150 JUMPI PUSH1 0x0 DUP1 REVERT JUMPDEST DUP2 CALLDATALOAD PUSH2 0x160 DUP5 DUP3 PUSH1 0x20 DUP7 ADD PUSH2 0x101 JUMP JUMPDEST SWAP2 POP POP SWAP3 SWAP2 POP POP JUMP JUMPDEST PUSH1 0x0 DUP2 CALLDATALOAD SWAP1 POP PUSH2 0x178 DUP2 PUSH2 0x3B2 JUMP JUMPDEST SWAP3 SWAP2 POP POP JUMP JUMPDEST PUSH1 0x0 DUP2 MLOAD SWAP1 POP PUSH2 0x18D DUP2 PUSH2 0x3B2 JUMP JUMPDEST SWAP3 SWAP2 POP POP JUMP JUMPDEST PUSH1 0x0 PUSH1 0x20 DUP3 DUP5 SUB SLT ISZERO PUSH2 0x1A5 JUMPI PUSH1 0x0 DUP1 REVERT JUMPDEST PUSH1 0x0 PUSH2 0x1B3 DUP5 DUP3 DUP6 ADD PUSH2 0x17E JUMP JUMPDEST SWAP2 POP POP SWAP3 SWAP2 POP POP JUMP JUMPDEST PUSH1 0x0 DUP1 PUSH1 0x0 PUSH1 0x60 DUP5 DUP7 SUB SLT ISZERO PUSH2 0x1D1 JUMPI PUSH1 0x0 DUP1 REVERT JUMPDEST PUSH1 0x0 PUSH2 0x1DF DUP7 DUP3 DUP8 ADD PUSH2 0x169 JUMP JUMPDEST SWAP4 POP POP PUSH1 0x20 DUP5 ADD CALLDATALOAD PUSH8 0xFFFFFFFFFFFFFFFF DUP2 GT ISZERO PUSH2 0x1FC JUMPI PUSH1 0x0 DUP1 REVERT JUMPDEST PUSH2 0x208 DUP7 DUP3 DUP8 ADD PUSH2 0x13F JUMP JUMPDEST SWAP3 POP POP PUSH1 0x40 PUSH2 0x219 DUP7 DUP3 DUP8 ADD PUSH2 0x169 JUMP JUMPDEST SWAP2 POP POP SWAP3 POP SWAP3 POP SWAP3 JUMP JUMPDEST PUSH1 0x0 PUSH2 0x22E DUP3 PUSH2 0x30A JUMP JUMPDEST PUSH2 0x238 DUP2 DUP6 PUSH2 0x315 JUMP JUMPDEST SWAP4 POP PUSH2 0x248 DUP2 DUP6 PUSH1 0x20 DUP7 ADD PUSH2 0x33F JUMP JUMPDEST PUSH2 0x251 DUP2 PUSH2 0x3A1 JUMP JUMPDEST DUP5 ADD SWAP2 POP POP SWAP3 SWAP2 POP POP JUMP JUMPDEST PUSH2 0x265 DUP2 PUSH2 0x326 JUMP JUMPDEST DUP3 MSTORE POP POP JUMP JUMPDEST PUSH1 0x0 PUSH1 0x60 DUP3 ADD SWAP1 POP PUSH2 0x280 PUSH1 0x0 DUP4 ADD DUP7 PUSH2 0x25C JUMP JUMPDEST DUP2 DUP2 SUB PUSH1 0x20 DUP4 ADD MSTORE PUSH2 0x292 DUP2 DUP6 PUSH2 0x223 JUMP JUMPDEST SWAP1 POP PUSH2 0x2A1 PUSH1 0x40 DUP4 ADD DUP5 PUSH2 0x25C JUMP JUMPDEST SWAP5 SWAP4 POP POP POP POP JUMP JUMPDEST PUSH1 0x0 PUSH1 0x40 MLOAD SWAP1 POP DUP2 DUP2 ADD DUP2 DUP2 LT PUSH8 0xFFFFFFFFFFFFFFFF DUP3 GT OR ISZERO PUSH2 0x2D0 JUMPI PUSH2 0x2CF PUSH2 0x372 JUMP JUMPDEST JUMPDEST DUP1 PUSH1 0x40 MSTORE POP SWAP2 SWAP1 POP JUMP JUMPDEST PUSH1 0x0 PUSH8 0xFFFFFFFFFFFFFFFF DUP3 GT ISZERO PUSH2 0x2F5 JUMPI PUSH2 0x2F4 PUSH2 0x372 JUMP JUMPDEST JUMPDEST PUSH1 0x1F NOT PUSH1 0x1F DUP4 ADD AND SWAP1 POP PUSH1 0x20 DUP2 ADD SWAP1 POP SWAP2 SWAP1 POP JUMP JUMPDEST PUSH1 0x0 DUP2 MLOAD SWAP1 POP SWAP2 SWAP1 POP JUMP JUMPDEST PUSH1 0x0 DUP3 DUP3 MSTORE PUSH1 0x20 DUP3 ADD SWAP1 POP SWAP3 SWAP2 POP POP JUMP JUMPDEST PUSH1 0x0 DUP2 SWAP1 POP SWAP2 SWAP1 POP JUMP JUMPDEST DUP3 DUP2 DUP4 CALLDATACOPY PUSH1 0x0 DUP4 DUP4 ADD MSTORE POP POP POP JUMP JUMPDEST PUSH1 0x0 JUMPDEST DUP4 DUP2 LT ISZERO PUSH2 0x35D JUMPI DUP1 DUP3 ADD MLOAD DUP2 DUP5 ADD MSTORE PUSH1 0x20 DUP2 ADD SWAP1 POP PUSH2 0x342 JUMP JUMPDEST DUP4 DUP2 GT ISZERO PUSH2 0x36C JUMPI PUSH1 0x0 DUP5 DUP5 ADD MSTORE JUMPDEST POP POP POP POP JUMP JUMPDEST PUSH32 0x4E487B7100000000000000000000000000000000000000000000000000000000 PUSH1 0x0 MSTORE PUSH1 0x41 PUSH1 0x4 MSTORE PUSH1 0x24 PUSH1 0x0 REVERT JUMPDEST PUSH1 0x0 PUSH1 0x1F NOT PUSH1 0x1F DUP4 ADD AND SWAP1 POP SWAP2 SWAP1 POP JUMP JUMPDEST PUSH2 0x3BB DUP2 PUSH2 0x326 JUMP JUMPDEST DUP2 EQ PUSH2 0x3C6 JUMPI PUSH1 0x0 DUP1 REVERT JUMPDEST POP JUMP INVALID LOG2 PUSH5 0x6970667358 0x22 SLT KECCAK256 SWAP7 0xB5 PUSH14 0x8EB5A928E5F8F1160CBDE2608395 GT 0x5D 0x4C CODECOPY 0xC4 SELFBALANCE 0xED 0xCA 0xD1 DUP14 STATICCALL 0xFC COINBASE PUSH22 0x3F64736F6C6343000800003300000000000000000000 "
				},
				"gasEstimates": {
					"creation": {
						"codeDepositCost": "204600",
						"executionCost": "infinite",
						"totalCost": "infinite"
					},
					"external": {
						"addStudent(uint256,string,uint256)": "infinite"
					}
				},
				"methodIdentifiers": {
					"addStudent(uint256,string,uint256)": "c1bea1db"
				}
			},
			"storageLayout": {
				"storage": [
					{
						"astId": 5,
						"contract": "learning/CourseBuying.sol:CourseBuying",
						"label": "purchase",
						"offset": 0,
						"slot": "0",
						"type": "t_contract(CourseSelling)159"
					}
				],
				"types": {
					"t_contract(CourseSelling)159": {
						"encoding": "inplace",
						"label": "contract CourseSelling",
						"numberOfBytes": "20"
					}
				}
			},
			"userdoc": {
				"kind": "user",
				"methods": {},
				"version": 1
			}
		}
	}
}