{
	"Practice/Stock.sol": {
		"Product_Inventory": {
			"abi": [
				{
					"inputs": [],
					"stateMutability": "nonpayable",
					"type": "constructor"
				},
				{
					"inputs": [
						{
							"internalType": "uint256",
							"name": "id",
							"type": "uint256"
						},
						{
							"internalType": "uint256",
							"name": "quantity",
							"type": "uint256"
						}
					],
					"name": "addProductID",
					"outputs": [],
					"stateMutability": "nonpayable",
					"type": "function"
				},
				{
					"inputs": [
						{
							"internalType": "uint256",
							"name": "id",
							"type": "uint256"
						},
						{
							"internalType": "uint256",
							"name": "quantity",
							"type": "uint256"
						}
					],
					"name": "buyProduct",
					"outputs": [],
					"stateMutability": "nonpayable",
					"type": "function"
				},
				{
					"inputs": [],
					"name": "getFullDetails",
					"outputs": [
						{
							"internalType": "uint256[]",
							"name": "",
							"type": "uint256[]"
						},
						{
							"internalType": "uint256[]",
							"name": "",
							"type": "uint256[]"
						}
					],
					"stateMutability": "view",
					"type": "function"
				}
			],
			"devdoc": {
				"kind": "dev",
				"methods": {},
				"version": 1
			},
			"evm": {
				"assembly": "    /* \"Practice/Stock.sol\":905:1955  contract Product_Inventory{... */\n  mstore(0x40, 0x80)\n    /* \"Practice/Stock.sol\":1059:1105  constructor(){... */\n  callvalue\n  dup1\n  iszero\n  tag_1\n  jumpi\n  0x00\n  dup1\n  revert\ntag_1:\n  pop\n    /* \"Practice/Stock.sol\":1088:1098  msg.sender */\n  caller\n    /* \"Practice/Stock.sol\":1082:1087  owner */\n  0x00\n  dup1\n    /* \"Practice/Stock.sol\":1082:1098  owner=msg.sender */\n  0x0100\n  exp\n  dup2\n  sload\n  dup2\n  0xffffffffffffffffffffffffffffffffffffffff\n  mul\n  not\n  and\n  swap1\n  dup4\n  0xffffffffffffffffffffffffffffffffffffffff\n  and\n  mul\n  or\n  swap1\n  sstore\n  pop\n    /* \"Practice/Stock.sol\":905:1955  contract Product_Inventory{... */\n  dataSize(sub_0)\n  dup1\n  dataOffset(sub_0)\n  0x00\n  codecopy\n  0x00\n  return\nstop\n\nsub_0: assembly {\n        /* \"Practice/Stock.sol\":905:1955  contract Product_Inventory{... */\n      mstore(0x40, 0x80)\n      callvalue\n      dup1\n      iszero\n      tag_1\n      jumpi\n      0x00\n      dup1\n      revert\n    tag_1:\n      pop\n      jumpi(tag_2, lt(calldatasize, 0x04))\n      shr(0xe0, calldataload(0x00))\n      dup1\n      0x39ec6514\n      eq\n      tag_3\n      jumpi\n      dup1\n      0x53b62866\n      eq\n      tag_4\n      jumpi\n      dup1\n      0x7253d6a0\n      eq\n      tag_5\n      jumpi\n    tag_2:\n      0x00\n      dup1\n      revert\n        /* \"Practice/Stock.sol\":1206:1416  function addProductID(uint id,uint quantity) public{... */\n    tag_3:\n      tag_6\n      0x04\n      dup1\n      calldatasize\n      sub\n      dup2\n      add\n      swap1\n      tag_7\n      swap2\n      swap1\n      tag_8\n      jump\t// in\n    tag_7:\n      tag_9\n      jump\t// in\n    tag_6:\n      stop\n        /* \"Practice/Stock.sol\":1422:1632  function buyProduct(uint id, uint quantity) public{... */\n    tag_4:\n      tag_10\n      0x04\n      dup1\n      calldatasize\n      sub\n      dup2\n      add\n      swap1\n      tag_11\n      swap2\n      swap1\n      tag_8\n      jump\t// in\n    tag_11:\n      tag_12\n      jump\t// in\n    tag_10:\n      stop\n        /* \"Practice/Stock.sol\":1639:1953  function getFullDetails() public view returns (uint[] memory, uint[] memory) {... */\n    tag_5:\n      tag_13\n      tag_14\n      jump\t// in\n    tag_13:\n      mload(0x40)\n      tag_15\n      swap3\n      swap2\n      swap1\n      tag_16\n      jump\t// in\n    tag_15:\n      mload(0x40)\n      dup1\n      swap2\n      sub\n      swap1\n      return\n        /* \"Practice/Stock.sol\":1206:1416  function addProductID(uint id,uint quantity) public{... */\n    tag_9:\n        /* \"Practice/Stock.sol\":1276:1285  isExisted */\n      0x03\n        /* \"Practice/Stock.sol\":1276:1289  isExisted[id] */\n      0x00\n        /* \"Practice/Stock.sol\":1286:1288  id */\n      dup4\n        /* \"Practice/Stock.sol\":1276:1289  isExisted[id] */\n      dup2\n      mstore\n      0x20\n      add\n      swap1\n      dup2\n      mstore\n      0x20\n      add\n      0x00\n      keccak256\n      0x00\n      swap1\n      sload\n      swap1\n      0x0100\n      exp\n      swap1\n      div\n      0xff\n      and\n        /* \"Practice/Stock.sol\":1275:1289  !isExisted[id] */\n      iszero\n        /* \"Practice/Stock.sol\":1267:1309  require(!isExisted[id],\"Id already exist\") */\n      tag_18\n      jumpi\n      mload(0x40)\n      0x08c379a000000000000000000000000000000000000000000000000000000000\n      dup2\n      mstore\n      0x04\n      add\n      tag_19\n      swap1\n      tag_20\n      jump\t// in\n    tag_19:\n      mload(0x40)\n      dup1\n      swap2\n      sub\n      swap1\n      revert\n    tag_18:\n        /* \"Practice/Stock.sol\":1327:1336  productID */\n      0x01\n        /* \"Practice/Stock.sol\":1342:1344  id */\n      dup3\n        /* \"Practice/Stock.sol\":1327:1345  productID.push(id) */\n      swap1\n      dup1\n      0x01\n      dup2\n      sload\n      add\n      dup1\n      dup3\n      sstore\n      dup1\n      swap2\n      pop\n      pop\n      0x01\n      swap1\n      sub\n      swap1\n      0x00\n      mstore\n      keccak256(0x00, 0x20)\n      add\n      0x00\n      swap1\n      swap2\n      swap1\n      swap2\n      swap1\n      swap2\n      pop\n      sstore\n        /* \"Practice/Stock.sol\":1373:1381  quantity */\n      dup1\n        /* \"Practice/Stock.sol\":1355:1368  product_stock */\n      0x02\n        /* \"Practice/Stock.sol\":1355:1372  product_stock[id] */\n      0x00\n        /* \"Practice/Stock.sol\":1369:1371  id */\n      dup5\n        /* \"Practice/Stock.sol\":1355:1372  product_stock[id] */\n      dup2\n      mstore\n      0x20\n      add\n      swap1\n      dup2\n      mstore\n      0x20\n      add\n      0x00\n      keccak256\n        /* \"Practice/Stock.sol\":1355:1381  product_stock[id]=quantity */\n      dup2\n      swap1\n      sstore\n      pop\n        /* \"Practice/Stock.sol\":1405:1409  true */\n      0x01\n        /* \"Practice/Stock.sol\":1391:1400  isExisted */\n      0x03\n        /* \"Practice/Stock.sol\":1391:1404  isExisted[id] */\n      0x00\n        /* \"Practice/Stock.sol\":1401:1403  id */\n      dup5\n        /* \"Practice/Stock.sol\":1391:1404  isExisted[id] */\n      dup2\n      mstore\n      0x20\n      add\n      swap1\n      dup2\n      mstore\n      0x20\n      add\n      0x00\n      keccak256\n      0x00\n        /* \"Practice/Stock.sol\":1391:1409  isExisted[id]=true */\n      0x0100\n      exp\n      dup2\n      sload\n      dup2\n      0xff\n      mul\n      not\n      and\n      swap1\n      dup4\n      iszero\n      iszero\n      mul\n      or\n      swap1\n      sstore\n      pop\n        /* \"Practice/Stock.sol\":1206:1416  function addProductID(uint id,uint quantity) public{... */\n      pop\n      pop\n      jump\t// out\n        /* \"Practice/Stock.sol\":1422:1632  function buyProduct(uint id, uint quantity) public{... */\n    tag_12:\n        /* \"Practice/Stock.sol\":1490:1499  isExisted */\n      0x03\n        /* \"Practice/Stock.sol\":1490:1503  isExisted[id] */\n      0x00\n        /* \"Practice/Stock.sol\":1500:1502  id */\n      dup4\n        /* \"Practice/Stock.sol\":1490:1503  isExisted[id] */\n      dup2\n      mstore\n      0x20\n      add\n      swap1\n      dup2\n      mstore\n      0x20\n      add\n      0x00\n      keccak256\n      0x00\n      swap1\n      sload\n      swap1\n      0x0100\n      exp\n      swap1\n      div\n      0xff\n      and\n        /* \"Practice/Stock.sol\":1482:1517  require(isExisted[id],\"Invalid Id\") */\n      tag_23\n      jumpi\n      mload(0x40)\n      0x08c379a000000000000000000000000000000000000000000000000000000000\n      dup2\n      mstore\n      0x04\n      add\n      tag_24\n      swap1\n      tag_25\n      jump\t// in\n    tag_24:\n      mload(0x40)\n      dup1\n      swap2\n      sub\n      swap1\n      revert\n    tag_23:\n        /* \"Practice/Stock.sol\":1554:1562  quantity */\n      dup1\n        /* \"Practice/Stock.sol\":1535:1548  product_stock */\n      0x02\n        /* \"Practice/Stock.sol\":1535:1552  product_stock[id] */\n      0x00\n        /* \"Practice/Stock.sol\":1549:1551  id */\n      dup5\n        /* \"Practice/Stock.sol\":1535:1552  product_stock[id] */\n      dup2\n      mstore\n      0x20\n      add\n      swap1\n      dup2\n      mstore\n      0x20\n      add\n      0x00\n      keccak256\n      sload\n        /* \"Practice/Stock.sol\":1535:1562  product_stock[id]>=quantity */\n      lt\n      iszero\n        /* \"Practice/Stock.sol\":1527:1582  require(product_stock[id]>=quantity,\"Invalid quantity\") */\n      tag_26\n      jumpi\n      mload(0x40)\n      0x08c379a000000000000000000000000000000000000000000000000000000000\n      dup2\n      mstore\n      0x04\n      add\n      tag_27\n      swap1\n      tag_28\n      jump\t// in\n    tag_27:\n      mload(0x40)\n      dup1\n      swap2\n      sub\n      swap1\n      revert\n    tag_26:\n        /* \"Practice/Stock.sol\":1617:1625  quantity */\n      dup1\n        /* \"Practice/Stock.sol\":1598:1611  product_stock */\n      0x02\n        /* \"Practice/Stock.sol\":1598:1615  product_stock[id] */\n      0x00\n        /* \"Practice/Stock.sol\":1612:1614  id */\n      dup5\n        /* \"Practice/Stock.sol\":1598:1615  product_stock[id] */\n      dup2\n      mstore\n      0x20\n      add\n      swap1\n      dup2\n      mstore\n      0x20\n      add\n      0x00\n      keccak256\n      0x00\n        /* \"Practice/Stock.sol\":1598:1625  product_stock[id]-=quantity */\n      dup3\n      dup3\n      sload\n      tag_29\n      swap2\n      swap1\n      tag_30\n      jump\t// in\n    tag_29:\n      swap3\n      pop\n      pop\n      dup2\n      swap1\n      sstore\n      pop\n        /* \"Practice/Stock.sol\":1422:1632  function buyProduct(uint id, uint quantity) public{... */\n      pop\n      pop\n      jump\t// out\n        /* \"Practice/Stock.sol\":1639:1953  function getFullDetails() public view returns (uint[] memory, uint[] memory) {... */\n    tag_14:\n        /* \"Practice/Stock.sol\":1686:1699  uint[] memory */\n      0x60\n        /* \"Practice/Stock.sol\":1701:1714  uint[] memory */\n      dup1\n        /* \"Practice/Stock.sol\":1726:1752  uint[] memory all_products */\n      0x00\n        /* \"Practice/Stock.sol\":1764:1773  productID */\n      0x01\n        /* \"Practice/Stock.sol\":1764:1780  productID.length */\n      dup1\n      sload\n      swap1\n      pop\n        /* \"Practice/Stock.sol\":1753:1781  new uint[](productID.length) */\n      0xffffffffffffffff\n      dup2\n      gt\n      iszero\n      tag_32\n      jumpi\n      mstore(0x00, 0x4e487b7100000000000000000000000000000000000000000000000000000000)\n      mstore(0x04, 0x41)\n      revert(0x00, 0x24)\n    tag_32:\n      mload(0x40)\n      swap1\n      dup1\n      dup3\n      mstore\n      dup1\n      0x20\n      mul\n      0x20\n      add\n      dup3\n      add\n      0x40\n      mstore\n      dup1\n      iszero\n      tag_33\n      jumpi\n      dup2\n      0x20\n      add\n      0x20\n      dup3\n      mul\n      dup1\n      calldatasize\n      dup4\n      calldatacopy\n      dup1\n      dup3\n      add\n      swap2\n      pop\n      pop\n      swap1\n      pop\n    tag_33:\n      pop\n        /* \"Practice/Stock.sol\":1726:1781  uint[] memory all_products=new uint[](productID.length) */\n      swap1\n      pop\n        /* \"Practice/Stock.sol\":1796:1802  uint i */\n      0x00\n        /* \"Practice/Stock.sol\":1791:1904  for (uint i = 0; i < productID.length; i++) {... */\n    tag_34:\n        /* \"Practice/Stock.sol\":1812:1821  productID */\n      0x01\n        /* \"Practice/Stock.sol\":1812:1828  productID.length */\n      dup1\n      sload\n      swap1\n      pop\n        /* \"Practice/Stock.sol\":1808:1809  i */\n      dup2\n        /* \"Practice/Stock.sol\":1808:1828  i < productID.length */\n      lt\n        /* \"Practice/Stock.sol\":1791:1904  for (uint i = 0; i < productID.length; i++) {... */\n      iszero\n      tag_35\n      jumpi\n        /* \"Practice/Stock.sol\":1866:1879  product_stock */\n      0x02\n        /* \"Practice/Stock.sol\":1866:1893  product_stock[productID[i]] */\n      0x00\n        /* \"Practice/Stock.sol\":1880:1889  productID */\n      0x01\n        /* \"Practice/Stock.sol\":1890:1891  i */\n      dup4\n        /* \"Practice/Stock.sol\":1880:1892  productID[i] */\n      dup2\n      sload\n      dup2\n      lt\n      tag_37\n      jumpi\n      mstore(0x00, 0x4e487b7100000000000000000000000000000000000000000000000000000000)\n      mstore(0x04, 0x32)\n      revert(0x00, 0x24)\n    tag_37:\n      swap1\n      0x00\n      mstore\n      keccak256(0x00, 0x20)\n      add\n      sload\n        /* \"Practice/Stock.sol\":1866:1893  product_stock[productID[i]] */\n      dup2\n      mstore\n      0x20\n      add\n      swap1\n      dup2\n      mstore\n      0x20\n      add\n      0x00\n      keccak256\n      sload\n        /* \"Practice/Stock.sol\":1849:1861  all_products */\n      dup3\n        /* \"Practice/Stock.sol\":1862:1863  i */\n      dup3\n        /* \"Practice/Stock.sol\":1849:1864  all_products[i] */\n      dup2\n      mload\n      dup2\n      lt\n      tag_39\n      jumpi\n      mstore(0x00, 0x4e487b7100000000000000000000000000000000000000000000000000000000)\n      mstore(0x04, 0x32)\n      revert(0x00, 0x24)\n    tag_39:\n      0x20\n      mul\n      0x20\n      add\n      add\n        /* \"Practice/Stock.sol\":1849:1893  all_products[i]= product_stock[productID[i]] */\n      dup2\n      dup2\n      mstore\n      pop\n      pop\n        /* \"Practice/Stock.sol\":1830:1833  i++ */\n      dup1\n      dup1\n      tag_40\n      swap1\n      tag_41\n      jump\t// in\n    tag_40:\n      swap2\n      pop\n      pop\n        /* \"Practice/Stock.sol\":1791:1904  for (uint i = 0; i < productID.length; i++) {... */\n      jump(tag_34)\n    tag_35:\n      pop\n        /* \"Practice/Stock.sol\":1922:1931  productID */\n      0x01\n        /* \"Practice/Stock.sol\":1933:1945  all_products */\n      dup2\n        /* \"Practice/Stock.sol\":1914:1946  return (productID, all_products) */\n      dup2\n      dup1\n      sload\n      dup1\n      0x20\n      mul\n      0x20\n      add\n      mload(0x40)\n      swap1\n      dup2\n      add\n      0x40\n      mstore\n      dup1\n      swap3\n      swap2\n      swap1\n      dup2\n      dup2\n      mstore\n      0x20\n      add\n      dup3\n      dup1\n      sload\n      dup1\n      iszero\n      tag_42\n      jumpi\n      0x20\n      mul\n      dup3\n      add\n      swap2\n      swap1\n      0x00\n      mstore\n      keccak256(0x00, 0x20)\n      swap1\n    tag_43:\n      dup2\n      sload\n      dup2\n      mstore\n      0x20\n      add\n      swap1\n      0x01\n      add\n      swap1\n      dup1\n      dup4\n      gt\n      tag_43\n      jumpi\n    tag_42:\n      pop\n      pop\n      pop\n      pop\n      pop\n      swap2\n      pop\n      swap3\n      pop\n      swap3\n      pop\n      pop\n        /* \"Practice/Stock.sol\":1639:1953  function getFullDetails() public view returns (uint[] memory, uint[] memory) {... */\n      swap1\n      swap2\n      jump\t// out\n        /* \"#utility.yul\":7:146   */\n    tag_45:\n      0x00\n        /* \"#utility.yul\":91:97   */\n      dup2\n        /* \"#utility.yul\":78:98   */\n      calldataload\n        /* \"#utility.yul\":69:98   */\n      swap1\n      pop\n        /* \"#utility.yul\":107:140   */\n      tag_47\n        /* \"#utility.yul\":134:139   */\n      dup2\n        /* \"#utility.yul\":107:140   */\n      tag_48\n      jump\t// in\n    tag_47:\n        /* \"#utility.yul\":59:146   */\n      swap3\n      swap2\n      pop\n      pop\n      jump\t// out\n        /* \"#utility.yul\":152:559   */\n    tag_8:\n      0x00\n      dup1\n        /* \"#utility.yul\":277:279   */\n      0x40\n        /* \"#utility.yul\":265:274   */\n      dup4\n        /* \"#utility.yul\":256:263   */\n      dup6\n        /* \"#utility.yul\":252:275   */\n      sub\n        /* \"#utility.yul\":248:280   */\n      slt\n        /* \"#utility.yul\":245:247   */\n      iszero\n      tag_50\n      jumpi\n        /* \"#utility.yul\":293:294   */\n      0x00\n        /* \"#utility.yul\":290:291   */\n      dup1\n        /* \"#utility.yul\":283:295   */\n      revert\n        /* \"#utility.yul\":245:247   */\n    tag_50:\n        /* \"#utility.yul\":336:337   */\n      0x00\n        /* \"#utility.yul\":361:414   */\n      tag_51\n        /* \"#utility.yul\":406:413   */\n      dup6\n        /* \"#utility.yul\":397:403   */\n      dup3\n        /* \"#utility.yul\":386:395   */\n      dup7\n        /* \"#utility.yul\":382:404   */\n      add\n        /* \"#utility.yul\":361:414   */\n      tag_45\n      jump\t// in\n    tag_51:\n        /* \"#utility.yul\":351:414   */\n      swap3\n      pop\n        /* \"#utility.yul\":307:424   */\n      pop\n        /* \"#utility.yul\":463:465   */\n      0x20\n        /* \"#utility.yul\":489:542   */\n      tag_52\n        /* \"#utility.yul\":534:541   */\n      dup6\n        /* \"#utility.yul\":525:531   */\n      dup3\n        /* \"#utility.yul\":514:523   */\n      dup7\n        /* \"#utility.yul\":510:532   */\n      add\n        /* \"#utility.yul\":489:542   */\n      tag_45\n      jump\t// in\n    tag_52:\n        /* \"#utility.yul\":479:542   */\n      swap2\n      pop\n        /* \"#utility.yul\":434:552   */\n      pop\n        /* \"#utility.yul\":235:559   */\n      swap3\n      pop\n      swap3\n      swap1\n      pop\n      jump\t// out\n        /* \"#utility.yul\":565:744   */\n    tag_53:\n      0x00\n        /* \"#utility.yul\":655:701   */\n      tag_55\n        /* \"#utility.yul\":697:700   */\n      dup4\n        /* \"#utility.yul\":689:695   */\n      dup4\n        /* \"#utility.yul\":655:701   */\n      tag_56\n      jump\t// in\n    tag_55:\n        /* \"#utility.yul\":733:737   */\n      0x20\n        /* \"#utility.yul\":728:731   */\n      dup4\n        /* \"#utility.yul\":724:738   */\n      add\n        /* \"#utility.yul\":710:738   */\n      swap1\n      pop\n        /* \"#utility.yul\":645:744   */\n      swap3\n      swap2\n      pop\n      pop\n      jump\t// out\n        /* \"#utility.yul\":780:1512   */\n    tag_57:\n      0x00\n        /* \"#utility.yul\":928:982   */\n      tag_59\n        /* \"#utility.yul\":976:981   */\n      dup3\n        /* \"#utility.yul\":928:982   */\n      tag_60\n      jump\t// in\n    tag_59:\n        /* \"#utility.yul\":998:1084   */\n      tag_61\n        /* \"#utility.yul\":1077:1083   */\n      dup2\n        /* \"#utility.yul\":1072:1075   */\n      dup6\n        /* \"#utility.yul\":998:1084   */\n      tag_62\n      jump\t// in\n    tag_61:\n        /* \"#utility.yul\":991:1084   */\n      swap4\n      pop\n        /* \"#utility.yul\":1108:1164   */\n      tag_63\n        /* \"#utility.yul\":1158:1163   */\n      dup4\n        /* \"#utility.yul\":1108:1164   */\n      tag_64\n      jump\t// in\n    tag_63:\n        /* \"#utility.yul\":1187:1194   */\n      dup1\n        /* \"#utility.yul\":1218:1219   */\n      0x00\n        /* \"#utility.yul\":1203:1487   */\n    tag_65:\n        /* \"#utility.yul\":1228:1234   */\n      dup4\n        /* \"#utility.yul\":1225:1226   */\n      dup2\n        /* \"#utility.yul\":1222:1235   */\n      lt\n        /* \"#utility.yul\":1203:1487   */\n      iszero\n      tag_67\n      jumpi\n        /* \"#utility.yul\":1304:1310   */\n      dup2\n        /* \"#utility.yul\":1298:1311   */\n      mload\n        /* \"#utility.yul\":1331:1394   */\n      tag_68\n        /* \"#utility.yul\":1390:1393   */\n      dup9\n        /* \"#utility.yul\":1375:1388   */\n      dup3\n        /* \"#utility.yul\":1331:1394   */\n      tag_53\n      jump\t// in\n    tag_68:\n        /* \"#utility.yul\":1324:1394   */\n      swap8\n      pop\n        /* \"#utility.yul\":1417:1477   */\n      tag_69\n        /* \"#utility.yul\":1470:1476   */\n      dup4\n        /* \"#utility.yul\":1417:1477   */\n      tag_70\n      jump\t// in\n    tag_69:\n        /* \"#utility.yul\":1407:1477   */\n      swap3\n      pop\n        /* \"#utility.yul\":1263:1487   */\n      pop\n        /* \"#utility.yul\":1250:1251   */\n      0x01\n        /* \"#utility.yul\":1247:1248   */\n      dup2\n        /* \"#utility.yul\":1243:1252   */\n      add\n        /* \"#utility.yul\":1238:1252   */\n      swap1\n      pop\n        /* \"#utility.yul\":1203:1487   */\n      jump(tag_65)\n    tag_67:\n        /* \"#utility.yul\":1207:1221   */\n      pop\n        /* \"#utility.yul\":1503:1506   */\n      dup6\n        /* \"#utility.yul\":1496:1506   */\n      swap4\n      pop\n        /* \"#utility.yul\":904:1512   */\n      pop\n      pop\n      pop\n      swap3\n      swap2\n      pop\n      pop\n      jump\t// out\n        /* \"#utility.yul\":1518:1826   */\n    tag_71:\n      0x00\n        /* \"#utility.yul\":1681:1748   */\n      tag_73\n        /* \"#utility.yul\":1745:1747   */\n      0x0a\n        /* \"#utility.yul\":1740:1743   */\n      dup4\n        /* \"#utility.yul\":1681:1748   */\n      tag_74\n      jump\t// in\n    tag_73:\n        /* \"#utility.yul\":1674:1748   */\n      swap2\n      pop\n        /* \"#utility.yul\":1778:1790   */\n      0x496e76616c696420496400000000000000000000000000000000000000000000\n        /* \"#utility.yul\":1774:1775   */\n      0x00\n        /* \"#utility.yul\":1769:1772   */\n      dup4\n        /* \"#utility.yul\":1765:1776   */\n      add\n        /* \"#utility.yul\":1758:1791   */\n      mstore\n        /* \"#utility.yul\":1817:1819   */\n      0x20\n        /* \"#utility.yul\":1812:1815   */\n      dup3\n        /* \"#utility.yul\":1808:1820   */\n      add\n        /* \"#utility.yul\":1801:1820   */\n      swap1\n      pop\n        /* \"#utility.yul\":1664:1826   */\n      swap2\n      swap1\n      pop\n      jump\t// out\n        /* \"#utility.yul\":1832:2146   */\n    tag_75:\n      0x00\n        /* \"#utility.yul\":1995:2062   */\n      tag_77\n        /* \"#utility.yul\":2059:2061   */\n      0x10\n        /* \"#utility.yul\":2054:2057   */\n      dup4\n        /* \"#utility.yul\":1995:2062   */\n      tag_74\n      jump\t// in\n    tag_77:\n        /* \"#utility.yul\":1988:2062   */\n      swap2\n      pop\n        /* \"#utility.yul\":2092:2110   */\n      0x496420616c726561647920657869737400000000000000000000000000000000\n        /* \"#utility.yul\":2088:2089   */\n      0x00\n        /* \"#utility.yul\":2083:2086   */\n      dup4\n        /* \"#utility.yul\":2079:2090   */\n      add\n        /* \"#utility.yul\":2072:2111   */\n      mstore\n        /* \"#utility.yul\":2137:2139   */\n      0x20\n        /* \"#utility.yul\":2132:2135   */\n      dup3\n        /* \"#utility.yul\":2128:2140   */\n      add\n        /* \"#utility.yul\":2121:2140   */\n      swap1\n      pop\n        /* \"#utility.yul\":1978:2146   */\n      swap2\n      swap1\n      pop\n      jump\t// out\n        /* \"#utility.yul\":2152:2466   */\n    tag_78:\n      0x00\n        /* \"#utility.yul\":2315:2382   */\n      tag_80\n        /* \"#utility.yul\":2379:2381   */\n      0x10\n        /* \"#utility.yul\":2374:2377   */\n      dup4\n        /* \"#utility.yul\":2315:2382   */\n      tag_74\n      jump\t// in\n    tag_80:\n        /* \"#utility.yul\":2308:2382   */\n      swap2\n      pop\n        /* \"#utility.yul\":2412:2430   */\n      0x496e76616c6964207175616e7469747900000000000000000000000000000000\n        /* \"#utility.yul\":2408:2409   */\n      0x00\n        /* \"#utility.yul\":2403:2406   */\n      dup4\n        /* \"#utility.yul\":2399:2410   */\n      add\n        /* \"#utility.yul\":2392:2431   */\n      mstore\n        /* \"#utility.yul\":2457:2459   */\n      0x20\n        /* \"#utility.yul\":2452:2455   */\n      dup3\n        /* \"#utility.yul\":2448:2460   */\n      add\n        /* \"#utility.yul\":2441:2460   */\n      swap1\n      pop\n        /* \"#utility.yul\":2298:2466   */\n      swap2\n      swap1\n      pop\n      jump\t// out\n        /* \"#utility.yul\":2472:2580   */\n    tag_56:\n        /* \"#utility.yul\":2549:2573   */\n      tag_82\n        /* \"#utility.yul\":2567:2572   */\n      dup2\n        /* \"#utility.yul\":2549:2573   */\n      tag_83\n      jump\t// in\n    tag_82:\n        /* \"#utility.yul\":2544:2547   */\n      dup3\n        /* \"#utility.yul\":2537:2574   */\n      mstore\n        /* \"#utility.yul\":2527:2580   */\n      pop\n      pop\n      jump\t// out\n        /* \"#utility.yul\":2586:3220   */\n    tag_16:\n      0x00\n        /* \"#utility.yul\":2845:2847   */\n      0x40\n        /* \"#utility.yul\":2834:2843   */\n      dup3\n        /* \"#utility.yul\":2830:2848   */\n      add\n        /* \"#utility.yul\":2822:2848   */\n      swap1\n      pop\n        /* \"#utility.yul\":2894:2903   */\n      dup2\n        /* \"#utility.yul\":2888:2892   */\n      dup2\n        /* \"#utility.yul\":2884:2904   */\n      sub\n        /* \"#utility.yul\":2880:2881   */\n      0x00\n        /* \"#utility.yul\":2869:2878   */\n      dup4\n        /* \"#utility.yul\":2865:2882   */\n      add\n        /* \"#utility.yul\":2858:2905   */\n      mstore\n        /* \"#utility.yul\":2922:3030   */\n      tag_85\n        /* \"#utility.yul\":3025:3029   */\n      dup2\n        /* \"#utility.yul\":3016:3022   */\n      dup6\n        /* \"#utility.yul\":2922:3030   */\n      tag_57\n      jump\t// in\n    tag_85:\n        /* \"#utility.yul\":2914:3030   */\n      swap1\n      pop\n        /* \"#utility.yul\":3077:3086   */\n      dup2\n        /* \"#utility.yul\":3071:3075   */\n      dup2\n        /* \"#utility.yul\":3067:3087   */\n      sub\n        /* \"#utility.yul\":3062:3064   */\n      0x20\n        /* \"#utility.yul\":3051:3060   */\n      dup4\n        /* \"#utility.yul\":3047:3065   */\n      add\n        /* \"#utility.yul\":3040:3088   */\n      mstore\n        /* \"#utility.yul\":3105:3213   */\n      tag_86\n        /* \"#utility.yul\":3208:3212   */\n      dup2\n        /* \"#utility.yul\":3199:3205   */\n      dup5\n        /* \"#utility.yul\":3105:3213   */\n      tag_57\n      jump\t// in\n    tag_86:\n        /* \"#utility.yul\":3097:3213   */\n      swap1\n      pop\n        /* \"#utility.yul\":2812:3220   */\n      swap4\n      swap3\n      pop\n      pop\n      pop\n      jump\t// out\n        /* \"#utility.yul\":3226:3645   */\n    tag_25:\n      0x00\n        /* \"#utility.yul\":3430:3432   */\n      0x20\n        /* \"#utility.yul\":3419:3428   */\n      dup3\n        /* \"#utility.yul\":3415:3433   */\n      add\n        /* \"#utility.yul\":3407:3433   */\n      swap1\n      pop\n        /* \"#utility.yul\":3479:3488   */\n      dup2\n        /* \"#utility.yul\":3473:3477   */\n      dup2\n        /* \"#utility.yul\":3469:3489   */\n      sub\n        /* \"#utility.yul\":3465:3466   */\n      0x00\n        /* \"#utility.yul\":3454:3463   */\n      dup4\n        /* \"#utility.yul\":3450:3467   */\n      add\n        /* \"#utility.yul\":3443:3490   */\n      mstore\n        /* \"#utility.yul\":3507:3638   */\n      tag_88\n        /* \"#utility.yul\":3633:3637   */\n      dup2\n        /* \"#utility.yul\":3507:3638   */\n      tag_71\n      jump\t// in\n    tag_88:\n        /* \"#utility.yul\":3499:3638   */\n      swap1\n      pop\n        /* \"#utility.yul\":3397:3645   */\n      swap2\n      swap1\n      pop\n      jump\t// out\n        /* \"#utility.yul\":3651:4070   */\n    tag_20:\n      0x00\n        /* \"#utility.yul\":3855:3857   */\n      0x20\n        /* \"#utility.yul\":3844:3853   */\n      dup3\n        /* \"#utility.yul\":3840:3858   */\n      add\n        /* \"#utility.yul\":3832:3858   */\n      swap1\n      pop\n        /* \"#utility.yul\":3904:3913   */\n      dup2\n        /* \"#utility.yul\":3898:3902   */\n      dup2\n        /* \"#utility.yul\":3894:3914   */\n      sub\n        /* \"#utility.yul\":3890:3891   */\n      0x00\n        /* \"#utility.yul\":3879:3888   */\n      dup4\n        /* \"#utility.yul\":3875:3892   */\n      add\n        /* \"#utility.yul\":3868:3915   */\n      mstore\n        /* \"#utility.yul\":3932:4063   */\n      tag_90\n        /* \"#utility.yul\":4058:4062   */\n      dup2\n        /* \"#utility.yul\":3932:4063   */\n      tag_75\n      jump\t// in\n    tag_90:\n        /* \"#utility.yul\":3924:4063   */\n      swap1\n      pop\n        /* \"#utility.yul\":3822:4070   */\n      swap2\n      swap1\n      pop\n      jump\t// out\n        /* \"#utility.yul\":4076:4495   */\n    tag_28:\n      0x00\n        /* \"#utility.yul\":4280:4282   */\n      0x20\n        /* \"#utility.yul\":4269:4278   */\n      dup3\n        /* \"#utility.yul\":4265:4283   */\n      add\n        /* \"#utility.yul\":4257:4283   */\n      swap1\n      pop\n        /* \"#utility.yul\":4329:4338   */\n      dup2\n        /* \"#utility.yul\":4323:4327   */\n      dup2\n        /* \"#utility.yul\":4319:4339   */\n      sub\n        /* \"#utility.yul\":4315:4316   */\n      0x00\n        /* \"#utility.yul\":4304:4313   */\n      dup4\n        /* \"#utility.yul\":4300:4317   */\n      add\n        /* \"#utility.yul\":4293:4340   */\n      mstore\n        /* \"#utility.yul\":4357:4488   */\n      tag_92\n        /* \"#utility.yul\":4483:4487   */\n      dup2\n        /* \"#utility.yul\":4357:4488   */\n      tag_78\n      jump\t// in\n    tag_92:\n        /* \"#utility.yul\":4349:4488   */\n      swap1\n      pop\n        /* \"#utility.yul\":4247:4495   */\n      swap2\n      swap1\n      pop\n      jump\t// out\n        /* \"#utility.yul\":4501:4633   */\n    tag_64:\n      0x00\n        /* \"#utility.yul\":4591:4594   */\n      dup2\n        /* \"#utility.yul\":4583:4594   */\n      swap1\n      pop\n        /* \"#utility.yul\":4621:4625   */\n      0x20\n        /* \"#utility.yul\":4616:4619   */\n      dup3\n        /* \"#utility.yul\":4612:4626   */\n      add\n        /* \"#utility.yul\":4604:4626   */\n      swap1\n      pop\n        /* \"#utility.yul\":4573:4633   */\n      swap2\n      swap1\n      pop\n      jump\t// out\n        /* \"#utility.yul\":4639:4753   */\n    tag_60:\n      0x00\n        /* \"#utility.yul\":4740:4745   */\n      dup2\n        /* \"#utility.yul\":4734:4746   */\n      mload\n        /* \"#utility.yul\":4724:4746   */\n      swap1\n      pop\n        /* \"#utility.yul\":4713:4753   */\n      swap2\n      swap1\n      pop\n      jump\t// out\n        /* \"#utility.yul\":4759:4872   */\n    tag_70:\n      0x00\n        /* \"#utility.yul\":4861:4865   */\n      0x20\n        /* \"#utility.yul\":4856:4859   */\n      dup3\n        /* \"#utility.yul\":4852:4866   */\n      add\n        /* \"#utility.yul\":4844:4866   */\n      swap1\n      pop\n        /* \"#utility.yul\":4834:4872   */\n      swap2\n      swap1\n      pop\n      jump\t// out\n        /* \"#utility.yul\":4878:5062   */\n    tag_62:\n      0x00\n        /* \"#utility.yul\":5011:5017   */\n      dup3\n        /* \"#utility.yul\":5006:5009   */\n      dup3\n        /* \"#utility.yul\":4999:5018   */\n      mstore\n        /* \"#utility.yul\":5051:5055   */\n      0x20\n        /* \"#utility.yul\":5046:5049   */\n      dup3\n        /* \"#utility.yul\":5042:5056   */\n      add\n        /* \"#utility.yul\":5027:5056   */\n      swap1\n      pop\n        /* \"#utility.yul\":4989:5062   */\n      swap3\n      swap2\n      pop\n      pop\n      jump\t// out\n        /* \"#utility.yul\":5068:5237   */\n    tag_74:\n      0x00\n        /* \"#utility.yul\":5186:5192   */\n      dup3\n        /* \"#utility.yul\":5181:5184   */\n      dup3\n        /* \"#utility.yul\":5174:5193   */\n      mstore\n        /* \"#utility.yul\":5226:5230   */\n      0x20\n        /* \"#utility.yul\":5221:5224   */\n      dup3\n        /* \"#utility.yul\":5217:5231   */\n      add\n        /* \"#utility.yul\":5202:5231   */\n      swap1\n      pop\n        /* \"#utility.yul\":5164:5237   */\n      swap3\n      swap2\n      pop\n      pop\n      jump\t// out\n        /* \"#utility.yul\":5243:5434   */\n    tag_30:\n      0x00\n        /* \"#utility.yul\":5303:5323   */\n      tag_99\n        /* \"#utility.yul\":5321:5322   */\n      dup3\n        /* \"#utility.yul\":5303:5323   */\n      tag_83\n      jump\t// in\n    tag_99:\n        /* \"#utility.yul\":5298:5323   */\n      swap2\n      pop\n        /* \"#utility.yul\":5337:5357   */\n      tag_100\n        /* \"#utility.yul\":5355:5356   */\n      dup4\n        /* \"#utility.yul\":5337:5357   */\n      tag_83\n      jump\t// in\n    tag_100:\n        /* \"#utility.yul\":5332:5357   */\n      swap3\n      pop\n        /* \"#utility.yul\":5376:5377   */\n      dup3\n        /* \"#utility.yul\":5373:5374   */\n      dup3\n        /* \"#utility.yul\":5370:5378   */\n      lt\n        /* \"#utility.yul\":5367:5369   */\n      iszero\n      tag_101\n      jumpi\n        /* \"#utility.yul\":5381:5399   */\n      tag_102\n      tag_103\n      jump\t// in\n    tag_102:\n        /* \"#utility.yul\":5367:5369   */\n    tag_101:\n        /* \"#utility.yul\":5426:5427   */\n      dup3\n        /* \"#utility.yul\":5423:5424   */\n      dup3\n        /* \"#utility.yul\":5419:5428   */\n      sub\n        /* \"#utility.yul\":5411:5428   */\n      swap1\n      pop\n        /* \"#utility.yul\":5288:5434   */\n      swap3\n      swap2\n      pop\n      pop\n      jump\t// out\n        /* \"#utility.yul\":5440:5517   */\n    tag_83:\n      0x00\n        /* \"#utility.yul\":5506:5511   */\n      dup2\n        /* \"#utility.yul\":5495:5511   */\n      swap1\n      pop\n        /* \"#utility.yul\":5485:5517   */\n      swap2\n      swap1\n      pop\n      jump\t// out\n        /* \"#utility.yul\":5523:5756   */\n    tag_41:\n      0x00\n        /* \"#utility.yul\":5585:5609   */\n      tag_106\n        /* \"#utility.yul\":5603:5608   */\n      dup3\n        /* \"#utility.yul\":5585:5609   */\n      tag_83\n      jump\t// in\n    tag_106:\n        /* \"#utility.yul\":5576:5609   */\n      swap2\n      pop\n        /* \"#utility.yul\":5631:5697   */\n      0xffffffffffffffffffffffffffffffffffffffffffffffffffffffffffffffff\n        /* \"#utility.yul\":5624:5629   */\n      dup3\n        /* \"#utility.yul\":5621:5698   */\n      eq\n        /* \"#utility.yul\":5618:5620   */\n      iszero\n      tag_107\n      jumpi\n        /* \"#utility.yul\":5701:5719   */\n      tag_108\n      tag_103\n      jump\t// in\n    tag_108:\n        /* \"#utility.yul\":5618:5620   */\n    tag_107:\n        /* \"#utility.yul\":5748:5749   */\n      0x01\n        /* \"#utility.yul\":5741:5746   */\n      dup3\n        /* \"#utility.yul\":5737:5750   */\n      add\n        /* \"#utility.yul\":5730:5750   */\n      swap1\n      pop\n        /* \"#utility.yul\":5566:5756   */\n      swap2\n      swap1\n      pop\n      jump\t// out\n        /* \"#utility.yul\":5762:5942   */\n    tag_103:\n        /* \"#utility.yul\":5810:5887   */\n      0x4e487b7100000000000000000000000000000000000000000000000000000000\n        /* \"#utility.yul\":5807:5808   */\n      0x00\n        /* \"#utility.yul\":5800:5888   */\n      mstore\n        /* \"#utility.yul\":5907:5911   */\n      0x11\n        /* \"#utility.yul\":5904:5905   */\n      0x04\n        /* \"#utility.yul\":5897:5912   */\n      mstore\n        /* \"#utility.yul\":5931:5935   */\n      0x24\n        /* \"#utility.yul\":5928:5929   */\n      0x00\n        /* \"#utility.yul\":5921:5936   */\n      revert\n        /* \"#utility.yul\":5948:6070   */\n    tag_48:\n        /* \"#utility.yul\":6021:6045   */\n      tag_111\n        /* \"#utility.yul\":6039:6044   */\n      dup2\n        /* \"#utility.yul\":6021:6045   */\n      tag_83\n      jump\t// in\n    tag_111:\n        /* \"#utility.yul\":6014:6019   */\n      dup2\n        /* \"#utility.yul\":6011:6046   */\n      eq\n        /* \"#utility.yul\":6001:6003   */\n      tag_112\n      jumpi\n        /* \"#utility.yul\":6060:6061   */\n      0x00\n        /* \"#utility.yul\":6057:6058   */\n      dup1\n        /* \"#utility.yul\":6050:6062   */\n      revert\n        /* \"#utility.yul\":6001:6003   */\n    tag_112:\n        /* \"#utility.yul\":5991:6070   */\n      pop\n      jump\t// out\n\n    auxdata: 0xa2646970667358221220b98f15082a40fbd07046aa17aee78a587ea44dfc55a8837076762dbb2a2bdc7364736f6c63430008000033\n}\n",
				"bytecode": {
					"linkReferences": {},
					"object": "608060405234801561001057600080fd5b50336000806101000a81548173ffffffffffffffffffffffffffffffffffffffff021916908373ffffffffffffffffffffffffffffffffffffffff160217905550610767806100606000396000f3fe608060405234801561001057600080fd5b50600436106100415760003560e01c806339ec65141461004657806353b62866146100625780637253d6a01461007e575b600080fd5b610060600480360381019061005b9190610402565b61009d565b005b61007c60048036038101906100779190610402565b61016f565b005b610086610253565b604051610094929190610583565b60405180910390f35b6003600083815260200190815260200160002060009054906101000a900460ff16156100fe576040517f08c379a00000000000000000000000000000000000000000000000000000000081526004016100f5906105da565b60405180910390fd5b600182908060018154018082558091505060019003906000526020600020016000909190919091505580600260008481526020019081526020016000208190555060016003600084815260200190815260200160002060006101000a81548160ff0219169083151502179055505050565b6003600083815260200190815260200160002060009054906101000a900460ff166101cf576040517f08c379a00000000000000000000000000000000000000000000000000000000081526004016101c6906105ba565b60405180910390fd5b8060026000848152602001908152602001600020541015610225576040517f08c379a000000000000000000000000000000000000000000000000000000000815260040161021c906105fa565b60405180910390fd5b806002600084815260200190815260200160002060008282546102489190610664565b925050819055505050565b606080600060018054905067ffffffffffffffff81111561029d577f4e487b7100000000000000000000000000000000000000000000000000000000600052604160045260246000fd5b6040519080825280602002602001820160405280156102cb5781602001602082028036833780820191505090505b50905060005b60018054905081101561038e57600260006001838154811061031c577f4e487b7100000000000000000000000000000000000000000000000000000000600052603260045260246000fd5b906000526020600020015481526020019081526020016000205482828151811061036f577f4e487b7100000000000000000000000000000000000000000000000000000000600052603260045260246000fd5b6020026020010181815250508080610386906106a2565b9150506102d1565b50600181818054806020026020016040519081016040528092919081815260200182805480156103dd57602002820191906000526020600020905b8154815260200190600101908083116103c9575b5050505050915092509250509091565b6000813590506103fc8161071a565b92915050565b6000806040838503121561041557600080fd5b6000610423858286016103ed565b9250506020610434858286016103ed565b9150509250929050565b600061044a8383610574565b60208301905092915050565b60006104618261062a565b61046b8185610642565b93506104768361061a565b8060005b838110156104a757815161048e888261043e565b975061049983610635565b92505060018101905061047a565b5085935050505092915050565b60006104c1600a83610653565b91507f496e76616c6964204964000000000000000000000000000000000000000000006000830152602082019050919050565b6000610501601083610653565b91507f496420616c7265616479206578697374000000000000000000000000000000006000830152602082019050919050565b6000610541601083610653565b91507f496e76616c6964207175616e74697479000000000000000000000000000000006000830152602082019050919050565b61057d81610698565b82525050565b6000604082019050818103600083015261059d8185610456565b905081810360208301526105b18184610456565b90509392505050565b600060208201905081810360008301526105d3816104b4565b9050919050565b600060208201905081810360008301526105f3816104f4565b9050919050565b6000602082019050818103600083015261061381610534565b9050919050565b6000819050602082019050919050565b600081519050919050565b6000602082019050919050565b600082825260208201905092915050565b600082825260208201905092915050565b600061066f82610698565b915061067a83610698565b92508282101561068d5761068c6106eb565b5b828203905092915050565b6000819050919050565b60006106ad82610698565b91507fffffffffffffffffffffffffffffffffffffffffffffffffffffffffffffffff8214156106e0576106df6106eb565b5b600182019050919050565b7f4e487b7100000000000000000000000000000000000000000000000000000000600052601160045260246000fd5b61072381610698565b811461072e57600080fd5b5056fea2646970667358221220b98f15082a40fbd07046aa17aee78a587ea44dfc55a8837076762dbb2a2bdc7364736f6c63430008000033",
					"opcodes": "PUSH1 0x80 PUSH1 0x40 MSTORE CALLVALUE DUP1 ISZERO PUSH2 0x10 JUMPI PUSH1 0x0 DUP1 REVERT JUMPDEST POP CALLER PUSH1 0x0 DUP1 PUSH2 0x100 EXP DUP2 SLOAD DUP2 PUSH20 0xFFFFFFFFFFFFFFFFFFFFFFFFFFFFFFFFFFFFFFFF MUL NOT AND SWAP1 DUP4 PUSH20 0xFFFFFFFFFFFFFFFFFFFFFFFFFFFFFFFFFFFFFFFF AND MUL OR SWAP1 SSTORE POP PUSH2 0x767 DUP1 PUSH2 0x60 PUSH1 0x0 CODECOPY PUSH1 0x0 RETURN INVALID PUSH1 0x80 PUSH1 0x40 MSTORE CALLVALUE DUP1 ISZERO PUSH2 0x10 JUMPI PUSH1 0x0 DUP1 REVERT JUMPDEST POP PUSH1 0x4 CALLDATASIZE LT PUSH2 0x41 JUMPI PUSH1 0x0 CALLDATALOAD PUSH1 0xE0 SHR DUP1 PUSH4 0x39EC6514 EQ PUSH2 0x46 JUMPI DUP1 PUSH4 0x53B62866 EQ PUSH2 0x62 JUMPI DUP1 PUSH4 0x7253D6A0 EQ PUSH2 0x7E JUMPI JUMPDEST PUSH1 0x0 DUP1 REVERT JUMPDEST PUSH2 0x60 PUSH1 0x4 DUP1 CALLDATASIZE SUB DUP2 ADD SWAP1 PUSH2 0x5B SWAP2 SWAP1 PUSH2 0x402 JUMP JUMPDEST PUSH2 0x9D JUMP JUMPDEST STOP JUMPDEST PUSH2 0x7C PUSH1 0x4 DUP1 CALLDATASIZE SUB DUP2 ADD SWAP1 PUSH2 0x77 SWAP2 SWAP1 PUSH2 0x402 JUMP JUMPDEST PUSH2 0x16F JUMP JUMPDEST STOP JUMPDEST PUSH2 0x86 PUSH2 0x253 JUMP JUMPDEST PUSH1 0x40 MLOAD PUSH2 0x94 SWAP3 SWAP2 SWAP1 PUSH2 0x583 JUMP JUMPDEST PUSH1 0x40 MLOAD DUP1 SWAP2 SUB SWAP1 RETURN JUMPDEST PUSH1 0x3 PUSH1 0x0 DUP4 DUP2 MSTORE PUSH1 0x20 ADD SWAP1 DUP2 MSTORE PUSH1 0x20 ADD PUSH1 0x0 KECCAK256 PUSH1 0x0 SWAP1 SLOAD SWAP1 PUSH2 0x100 EXP SWAP1 DIV PUSH1 0xFF AND ISZERO PUSH2 0xFE JUMPI PUSH1 0x40 MLOAD PUSH32 0x8C379A000000000000000000000000000000000000000000000000000000000 DUP2 MSTORE PUSH1 0x4 ADD PUSH2 0xF5 SWAP1 PUSH2 0x5DA JUMP JUMPDEST PUSH1 0x40 MLOAD DUP1 SWAP2 SUB SWAP1 REVERT JUMPDEST PUSH1 0x1 DUP3 SWAP1 DUP1 PUSH1 0x1 DUP2 SLOAD ADD DUP1 DUP3 SSTORE DUP1 SWAP2 POP POP PUSH1 0x1 SWAP1 SUB SWAP1 PUSH1 0x0 MSTORE PUSH1 0x20 PUSH1 0x0 KECCAK256 ADD PUSH1 0x0 SWAP1 SWAP2 SWAP1 SWAP2 SWAP1 SWAP2 POP SSTORE DUP1 PUSH1 0x2 PUSH1 0x0 DUP5 DUP2 MSTORE PUSH1 0x20 ADD SWAP1 DUP2 MSTORE PUSH1 0x20 ADD PUSH1 0x0 KECCAK256 DUP2 SWAP1 SSTORE POP PUSH1 0x1 PUSH1 0x3 PUSH1 0x0 DUP5 DUP2 MSTORE PUSH1 0x20 ADD SWAP1 DUP2 MSTORE PUSH1 0x20 ADD PUSH1 0x0 KECCAK256 PUSH1 0x0 PUSH2 0x100 EXP DUP2 SLOAD DUP2 PUSH1 0xFF MUL NOT AND SWAP1 DUP4 ISZERO ISZERO MUL OR SWAP1 SSTORE POP POP POP JUMP JUMPDEST PUSH1 0x3 PUSH1 0x0 DUP4 DUP2 MSTORE PUSH1 0x20 ADD SWAP1 DUP2 MSTORE PUSH1 0x20 ADD PUSH1 0x0 KECCAK256 PUSH1 0x0 SWAP1 SLOAD SWAP1 PUSH2 0x100 EXP SWAP1 DIV PUSH1 0xFF AND PUSH2 0x1CF JUMPI PUSH1 0x40 MLOAD PUSH32 0x8C379A000000000000000000000000000000000000000000000000000000000 DUP2 MSTORE PUSH1 0x4 ADD PUSH2 0x1C6 SWAP1 PUSH2 0x5BA JUMP JUMPDEST PUSH1 0x40 MLOAD DUP1 SWAP2 SUB SWAP1 REVERT JUMPDEST DUP1 PUSH1 0x2 PUSH1 0x0 DUP5 DUP2 MSTORE PUSH1 0x20 ADD SWAP1 DUP2 MSTORE PUSH1 0x20 ADD PUSH1 0x0 KECCAK256 SLOAD LT ISZERO PUSH2 0x225 JUMPI PUSH1 0x40 MLOAD PUSH32 0x8C379A000000000000000000000000000000000000000000000000000000000 DUP2 MSTORE PUSH1 0x4 ADD PUSH2 0x21C SWAP1 PUSH2 0x5FA JUMP JUMPDEST PUSH1 0x40 MLOAD DUP1 SWAP2 SUB SWAP1 REVERT JUMPDEST DUP1 PUSH1 0x2 PUSH1 0x0 DUP5 DUP2 MSTORE PUSH1 0x20 ADD SWAP1 DUP2 MSTORE PUSH1 0x20 ADD PUSH1 0x0 KECCAK256 PUSH1 0x0 DUP3 DUP3 SLOAD PUSH2 0x248 SWAP2 SWAP1 PUSH2 0x664 JUMP JUMPDEST SWAP3 POP POP DUP2 SWAP1 SSTORE POP POP POP JUMP JUMPDEST PUSH1 0x60 DUP1 PUSH1 0x0 PUSH1 0x1 DUP1 SLOAD SWAP1 POP PUSH8 0xFFFFFFFFFFFFFFFF DUP2 GT ISZERO PUSH2 0x29D JUMPI PUSH32 0x4E487B7100000000000000000000000000000000000000000000000000000000 PUSH1 0x0 MSTORE PUSH1 0x41 PUSH1 0x4 MSTORE PUSH1 0x24 PUSH1 0x0 REVERT JUMPDEST PUSH1 0x40 MLOAD SWAP1 DUP1 DUP3 MSTORE DUP1 PUSH1 0x20 MUL PUSH1 0x20 ADD DUP3 ADD PUSH1 0x40 MSTORE DUP1 ISZERO PUSH2 0x2CB JUMPI DUP2 PUSH1 0x20 ADD PUSH1 0x20 DUP3 MUL DUP1 CALLDATASIZE DUP4 CALLDATACOPY DUP1 DUP3 ADD SWAP2 POP POP SWAP1 POP JUMPDEST POP SWAP1 POP PUSH1 0x0 JUMPDEST PUSH1 0x1 DUP1 SLOAD SWAP1 POP DUP2 LT ISZERO PUSH2 0x38E JUMPI PUSH1 0x2 PUSH1 0x0 PUSH1 0x1 DUP4 DUP2 SLOAD DUP2 LT PUSH2 0x31C JUMPI PUSH32 0x4E487B7100000000000000000000000000000000000000000000000000000000 PUSH1 0x0 MSTORE PUSH1 0x32 PUSH1 0x4 MSTORE PUSH1 0x24 PUSH1 0x0 REVERT JUMPDEST SWAP1 PUSH1 0x0 MSTORE PUSH1 0x20 PUSH1 0x0 KECCAK256 ADD SLOAD DUP2 MSTORE PUSH1 0x20 ADD SWAP1 DUP2 MSTORE PUSH1 0x20 ADD PUSH1 0x0 KECCAK256 SLOAD DUP3 DUP3 DUP2 MLOAD DUP2 LT PUSH2 0x36F JUMPI PUSH32 0x4E487B7100000000000000000000000000000000000000000000000000000000 PUSH1 0x0 MSTORE PUSH1 0x32 PUSH1 0x4 MSTORE PUSH1 0x24 PUSH1 0x0 REVERT JUMPDEST PUSH1 0x20 MUL PUSH1 0x20 ADD ADD DUP2 DUP2 MSTORE POP POP DUP1 DUP1 PUSH2 0x386 SWAP1 PUSH2 0x6A2 JUMP JUMPDEST SWAP2 POP POP PUSH2 0x2D1 JUMP JUMPDEST POP PUSH1 0x1 DUP2 DUP2 DUP1 SLOAD DUP1 PUSH1 0x20 MUL PUSH1 0x20 ADD PUSH1 0x40 MLOAD SWAP1 DUP2 ADD PUSH1 0x40 MSTORE DUP1 SWAP3 SWAP2 SWAP1 DUP2 DUP2 MSTORE PUSH1 0x20 ADD DUP3 DUP1 SLOAD DUP1 ISZERO PUSH2 0x3DD JUMPI PUSH1 0x20 MUL DUP3 ADD SWAP2 SWAP1 PUSH1 0x0 MSTORE PUSH1 0x20 PUSH1 0x0 KECCAK256 SWAP1 JUMPDEST DUP2 SLOAD DUP2 MSTORE PUSH1 0x20 ADD SWAP1 PUSH1 0x1 ADD SWAP1 DUP1 DUP4 GT PUSH2 0x3C9 JUMPI JUMPDEST POP POP POP POP POP SWAP2 POP SWAP3 POP SWAP3 POP POP SWAP1 SWAP2 JUMP JUMPDEST PUSH1 0x0 DUP2 CALLDATALOAD SWAP1 POP PUSH2 0x3FC DUP2 PUSH2 0x71A JUMP JUMPDEST SWAP3 SWAP2 POP POP JUMP JUMPDEST PUSH1 0x0 DUP1 PUSH1 0x40 DUP4 DUP6 SUB SLT ISZERO PUSH2 0x415 JUMPI PUSH1 0x0 DUP1 REVERT JUMPDEST PUSH1 0x0 PUSH2 0x423 DUP6 DUP3 DUP7 ADD PUSH2 0x3ED JUMP JUMPDEST SWAP3 POP POP PUSH1 0x20 PUSH2 0x434 DUP6 DUP3 DUP7 ADD PUSH2 0x3ED JUMP JUMPDEST SWAP2 POP POP SWAP3 POP SWAP3 SWAP1 POP JUMP JUMPDEST PUSH1 0x0 PUSH2 0x44A DUP4 DUP4 PUSH2 0x574 JUMP JUMPDEST PUSH1 0x20 DUP4 ADD SWAP1 POP SWAP3 SWAP2 POP POP JUMP JUMPDEST PUSH1 0x0 PUSH2 0x461 DUP3 PUSH2 0x62A JUMP JUMPDEST PUSH2 0x46B DUP2 DUP6 PUSH2 0x642 JUMP JUMPDEST SWAP4 POP PUSH2 0x476 DUP4 PUSH2 0x61A JUMP JUMPDEST DUP1 PUSH1 0x0 JUMPDEST DUP4 DUP2 LT ISZERO PUSH2 0x4A7 JUMPI DUP2 MLOAD PUSH2 0x48E DUP9 DUP3 PUSH2 0x43E JUMP JUMPDEST SWAP8 POP PUSH2 0x499 DUP4 PUSH2 0x635 JUMP JUMPDEST SWAP3 POP POP PUSH1 0x1 DUP2 ADD SWAP1 POP PUSH2 0x47A JUMP JUMPDEST POP DUP6 SWAP4 POP POP POP POP SWAP3 SWAP2 POP POP JUMP JUMPDEST PUSH1 0x0 PUSH2 0x4C1 PUSH1 0xA DUP4 PUSH2 0x653 JUMP JUMPDEST SWAP2 POP PUSH32 0x496E76616C696420496400000000000000000000000000000000000000000000 PUSH1 0x0 DUP4 ADD MSTORE PUSH1 0x20 DUP3 ADD SWAP1 POP SWAP2 SWAP1 POP JUMP JUMPDEST PUSH1 0x0 PUSH2 0x501 PUSH1 0x10 DUP4 PUSH2 0x653 JUMP JUMPDEST SWAP2 POP PUSH32 0x496420616C726561647920657869737400000000000000000000000000000000 PUSH1 0x0 DUP4 ADD MSTORE PUSH1 0x20 DUP3 ADD SWAP1 POP SWAP2 SWAP1 POP JUMP JUMPDEST PUSH1 0x0 PUSH2 0x541 PUSH1 0x10 DUP4 PUSH2 0x653 JUMP JUMPDEST SWAP2 POP PUSH32 0x496E76616C6964207175616E7469747900000000000000000000000000000000 PUSH1 0x0 DUP4 ADD MSTORE PUSH1 0x20 DUP3 ADD SWAP1 POP SWAP2 SWAP1 POP JUMP JUMPDEST PUSH2 0x57D DUP2 PUSH2 0x698 JUMP JUMPDEST DUP3 MSTORE POP POP JUMP JUMPDEST PUSH1 0x0 PUSH1 0x40 DUP3 ADD SWAP1 POP DUP2 DUP2 SUB PUSH1 0x0 DUP4 ADD MSTORE PUSH2 0x59D DUP2 DUP6 PUSH2 0x456 JUMP JUMPDEST SWAP1 POP DUP2 DUP2 SUB PUSH1 0x20 DUP4 ADD MSTORE PUSH2 0x5B1 DUP2 DUP5 PUSH2 0x456 JUMP JUMPDEST SWAP1 POP SWAP4 SWAP3 POP POP POP JUMP JUMPDEST PUSH1 0x0 PUSH1 0x20 DUP3 ADD SWAP1 POP DUP2 DUP2 SUB PUSH1 0x0 DUP4 ADD MSTORE PUSH2 0x5D3 DUP2 PUSH2 0x4B4 JUMP JUMPDEST SWAP1 POP SWAP2 SWAP1 POP JUMP JUMPDEST PUSH1 0x0 PUSH1 0x20 DUP3 ADD SWAP1 POP DUP2 DUP2 SUB PUSH1 0x0 DUP4 ADD MSTORE PUSH2 0x5F3 DUP2 PUSH2 0x4F4 JUMP JUMPDEST SWAP1 POP SWAP2 SWAP1 POP JUMP JUMPDEST PUSH1 0x0 PUSH1 0x20 DUP3 ADD SWAP1 POP DUP2 DUP2 SUB PUSH1 0x0 DUP4 ADD MSTORE PUSH2 0x613 DUP2 PUSH2 0x534 JUMP JUMPDEST SWAP1 POP SWAP2 SWAP1 POP JUMP JUMPDEST PUSH1 0x0 DUP2 SWAP1 POP PUSH1 0x20 DUP3 ADD SWAP1 POP SWAP2 SWAP1 POP JUMP JUMPDEST PUSH1 0x0 DUP2 MLOAD SWAP1 POP SWAP2 SWAP1 POP JUMP JUMPDEST PUSH1 0x0 PUSH1 0x20 DUP3 ADD SWAP1 POP SWAP2 SWAP1 POP JUMP JUMPDEST PUSH1 0x0 DUP3 DUP3 MSTORE PUSH1 0x20 DUP3 ADD SWAP1 POP SWAP3 SWAP2 POP POP JUMP JUMPDEST PUSH1 0x0 DUP3 DUP3 MSTORE PUSH1 0x20 DUP3 ADD SWAP1 POP SWAP3 SWAP2 POP POP JUMP JUMPDEST PUSH1 0x0 PUSH2 0x66F DUP3 PUSH2 0x698 JUMP JUMPDEST SWAP2 POP PUSH2 0x67A DUP4 PUSH2 0x698 JUMP JUMPDEST SWAP3 POP DUP3 DUP3 LT ISZERO PUSH2 0x68D JUMPI PUSH2 0x68C PUSH2 0x6EB JUMP JUMPDEST JUMPDEST DUP3 DUP3 SUB SWAP1 POP SWAP3 SWAP2 POP POP JUMP JUMPDEST PUSH1 0x0 DUP2 SWAP1 POP SWAP2 SWAP1 POP JUMP JUMPDEST PUSH1 0x0 PUSH2 0x6AD DUP3 PUSH2 0x698 JUMP JUMPDEST SWAP2 POP PUSH32 0xFFFFFFFFFFFFFFFFFFFFFFFFFFFFFFFFFFFFFFFFFFFFFFFFFFFFFFFFFFFFFFFF DUP3 EQ ISZERO PUSH2 0x6E0 JUMPI PUSH2 0x6DF PUSH2 0x6EB JUMP JUMPDEST JUMPDEST PUSH1 0x1 DUP3 ADD SWAP1 POP SWAP2 SWAP1 POP JUMP JUMPDEST PUSH32 0x4E487B7100000000000000000000000000000000000000000000000000000000 PUSH1 0x0 MSTORE PUSH1 0x11 PUSH1 0x4 MSTORE PUSH1 0x24 PUSH1 0x0 REVERT JUMPDEST PUSH2 0x723 DUP2 PUSH2 0x698 JUMP JUMPDEST DUP2 EQ PUSH2 0x72E JUMPI PUSH1 0x0 DUP1 REVERT JUMPDEST POP JUMP INVALID LOG2 PUSH5 0x6970667358 0x22 SLT KECCAK256 0xB9 DUP16 ISZERO ADDMOD 0x2A BLOCKHASH 0xFB 0xD0 PUSH17 0x46AA17AEE78A587EA44DFC55A883707676 0x2D 0xBB 0x2A 0x2B 0xDC PUSH20 0x64736F6C63430008000033000000000000000000 "
				},
				"gasEstimates": {
					"creation": {
						"codeDepositCost": "379000",
						"executionCost": "21284",
						"totalCost": "400284"
					},
					"external": {
						"addProductID(uint256,uint256)": "infinite",
						"buyProduct(uint256,uint256)": "infinite",
						"getFullDetails()": "infinite"
					}
				},
				"methodIdentifiers": {
					"addProductID(uint256,uint256)": "39ec6514",
					"buyProduct(uint256,uint256)": "53b62866",
					"getFullDetails()": "7253d6a0"
				}
			},
			"storageLayout": {
				"storage": [
					{
						"astId": 3,
						"contract": "Practice/Stock.sol:Product_Inventory",
						"label": "owner",
						"offset": 0,
						"slot": "0",
						"type": "t_address"
					},
					{
						"astId": 6,
						"contract": "Practice/Stock.sol:Product_Inventory",
						"label": "productID",
						"offset": 0,
						"slot": "1",
						"type": "t_array(t_uint256)dyn_storage"
					},
					{
						"astId": 10,
						"contract": "Practice/Stock.sol:Product_Inventory",
						"label": "product_stock",
						"offset": 0,
						"slot": "2",
						"type": "t_mapping(t_uint256,t_uint256)"
					},
					{
						"astId": 14,
						"contract": "Practice/Stock.sol:Product_Inventory",
						"label": "isExisted",
						"offset": 0,
						"slot": "3",
						"type": "t_mapping(t_uint256,t_bool)"
					}
				],
				"types": {
					"t_address": {
						"encoding": "inplace",
						"label": "address",
						"numberOfBytes": "20"
					},
					"t_array(t_uint256)dyn_storage": {
						"base": "t_uint256",
						"encoding": "dynamic_array",
						"label": "uint256[]",
						"numberOfBytes": "32"
					},
					"t_bool": {
						"encoding": "inplace",
						"label": "bool",
						"numberOfBytes": "1"
					},
					"t_mapping(t_uint256,t_bool)": {
						"encoding": "mapping",
						"key": "t_uint256",
						"label": "mapping(uint256 => bool)",
						"numberOfBytes": "32",
						"value": "t_bool"
					},
					"t_mapping(t_uint256,t_uint256)": {
						"encoding": "mapping",
						"key": "t_uint256",
						"label": "mapping(uint256 => uint256)",
						"numberOfBytes": "32",
						"value": "t_uint256"
					},
					"t_uint256": {
						"encoding": "inplace",
						"label": "uint256",
						"numberOfBytes": "32"
					}
				}
			},
			"userdoc": {
				"kind": "user",
				"methods": {},
				"version": 1
			}
		}
	}
}