{
	"Practice/MultiModifiers.sol": {
		"MutliModifier": {
			"abi": [
				{
					"inputs": [],
					"stateMutability": "nonpayable",
					"type": "constructor"
				},
				{
					"inputs": [
						{
							"internalType": "uint256",
							"name": "value",
							"type": "uint256"
						}
					],
					"name": "Transfer",
					"outputs": [],
					"stateMutability": "nonpayable",
					"type": "function"
				},
				{
					"inputs": [],
					"name": "amount",
					"outputs": [
						{
							"internalType": "uint256",
							"name": "",
							"type": "uint256"
						}
					],
					"stateMutability": "view",
					"type": "function"
				},
				{
					"inputs": [
						{
							"internalType": "uint256",
							"name": "value",
							"type": "uint256"
						}
					],
					"name": "number",
					"outputs": [],
					"stateMutability": "nonpayable",
					"type": "function"
				}
			],
			"devdoc": {
				"kind": "dev",
				"methods": {},
				"version": 1
			},
			"evm": {
				"assembly": "    /* \"Practice/MultiModifiers.sol\":60:617  contract MutliModifier{\r... */\n  mstore(0x40, 0x80)\n    /* \"Practice/MultiModifiers.sol\":136:184  constructor(){\r... */\n  callvalue\n  dup1\n  iszero\n  tag_1\n  jumpi\n  0x00\n  dup1\n  revert\ntag_1:\n  pop\n    /* \"Practice/MultiModifiers.sol\":166:176  msg.sender */\n  caller\n    /* \"Practice/MultiModifiers.sol\":160:165  owner */\n  0x00\n  dup1\n    /* \"Practice/MultiModifiers.sol\":160:176  owner=msg.sender */\n  0x0100\n  exp\n  dup2\n  sload\n  dup2\n  0xffffffffffffffffffffffffffffffffffffffff\n  mul\n  not\n  and\n  swap1\n  dup4\n  0xffffffffffffffffffffffffffffffffffffffff\n  and\n  mul\n  or\n  swap1\n  sstore\n  pop\n    /* \"Practice/MultiModifiers.sol\":60:617  contract MutliModifier{\r... */\n  dataSize(sub_0)\n  dup1\n  dataOffset(sub_0)\n  0x00\n  codecopy\n  0x00\n  return\nstop\n\nsub_0: assembly {\n        /* \"Practice/MultiModifiers.sol\":60:617  contract MutliModifier{\r... */\n      mstore(0x40, 0x80)\n      callvalue\n      dup1\n      iszero\n      tag_1\n      jumpi\n      0x00\n      dup1\n      revert\n    tag_1:\n      pop\n      jumpi(tag_2, lt(calldatasize, 0x04))\n      shr(0xe0, calldataload(0x00))\n      dup1\n      0x248dd407\n      eq\n      tag_3\n      jumpi\n      dup1\n      0x431aabc2\n      eq\n      tag_4\n      jumpi\n      dup1\n      0xaa8c217c\n      eq\n      tag_5\n      jumpi\n    tag_2:\n      0x00\n      dup1\n      revert\n        /* \"Practice/MultiModifiers.sol\":511:614  function Transfer(uint value) public moneyTransfer(value){\r... */\n    tag_3:\n      tag_6\n      0x04\n      dup1\n      calldatasize\n      sub\n      dup2\n      add\n      swap1\n      tag_7\n      swap2\n      swap1\n      tag_8\n      jump\t// in\n    tag_7:\n      tag_9\n      jump\t// in\n    tag_6:\n      stop\n        /* \"Practice/MultiModifiers.sol\":424:503  function number(uint value) public checkOwner{\r... */\n    tag_4:\n      tag_10\n      0x04\n      dup1\n      calldatasize\n      sub\n      dup2\n      add\n      swap1\n      tag_11\n      swap2\n      swap1\n      tag_8\n      jump\t// in\n    tag_11:\n      tag_12\n      jump\t// in\n    tag_10:\n      stop\n        /* \"Practice/MultiModifiers.sol\":109:127  uint public amount */\n    tag_5:\n      tag_13\n      tag_14\n      jump\t// in\n    tag_13:\n      mload(0x40)\n      tag_15\n      swap2\n      swap1\n      tag_16\n      jump\t// in\n    tag_15:\n      mload(0x40)\n      dup1\n      swap2\n      sub\n      swap1\n      return\n        /* \"Practice/MultiModifiers.sol\":511:614  function Transfer(uint value) public moneyTransfer(value){\r... */\n    tag_9:\n        /* \"Practice/MultiModifiers.sol\":562:567  value */\n      dup1\n        /* \"Practice/MultiModifiers.sol\":345:348  100 */\n      0x64\n        /* \"Practice/MultiModifiers.sol\":338:343  value */\n      dup2\n        /* \"Practice/MultiModifiers.sol\":338:348  value>=100 */\n      lt\n      iszero\n        /* \"Practice/MultiModifiers.sol\":330:397  require(value>=100,\"Amount should be greater than or equal to 100\") */\n      tag_18\n      jumpi\n      mload(0x40)\n      0x08c379a000000000000000000000000000000000000000000000000000000000\n      dup2\n      mstore\n      0x04\n      add\n      tag_19\n      swap1\n      tag_20\n      jump\t// in\n    tag_19:\n      mload(0x40)\n      dup1\n      swap2\n      sub\n      swap1\n      revert\n    tag_18:\n        /* \"Practice/MultiModifiers.sol\":601:606  value */\n      dup2\n        /* \"Practice/MultiModifiers.sol\":593:599  amount */\n      0x01\n      0x00\n        /* \"Practice/MultiModifiers.sol\":593:606  amount-=value */\n      dup3\n      dup3\n      sload\n      tag_22\n      swap2\n      swap1\n      tag_23\n      jump\t// in\n    tag_22:\n      swap3\n      pop\n      pop\n      dup2\n      swap1\n      sstore\n      pop\n        /* \"Practice/MultiModifiers.sol\":511:614  function Transfer(uint value) public moneyTransfer(value){\r... */\n      pop\n      pop\n      jump\t// out\n        /* \"Practice/MultiModifiers.sol\":424:503  function number(uint value) public checkOwner{\r... */\n    tag_12:\n        /* \"Practice/MultiModifiers.sol\":236:246  msg.sender */\n      caller\n        /* \"Practice/MultiModifiers.sol\":229:246  owner==msg.sender */\n      0xffffffffffffffffffffffffffffffffffffffff\n      and\n        /* \"Practice/MultiModifiers.sol\":229:234  owner */\n      0x00\n      dup1\n      sload\n      swap1\n      0x0100\n      exp\n      swap1\n      div\n      0xffffffffffffffffffffffffffffffffffffffff\n      and\n        /* \"Practice/MultiModifiers.sol\":229:246  owner==msg.sender */\n      0xffffffffffffffffffffffffffffffffffffffff\n      and\n      eq\n        /* \"Practice/MultiModifiers.sol\":221:259  require(owner==msg.sender,\"Not Owner\") */\n      tag_25\n      jumpi\n      mload(0x40)\n      0x08c379a000000000000000000000000000000000000000000000000000000000\n      dup2\n      mstore\n      0x04\n      add\n      tag_26\n      swap1\n      tag_27\n      jump\t// in\n    tag_26:\n      mload(0x40)\n      dup1\n      swap2\n      sub\n      swap1\n      revert\n    tag_25:\n        /* \"Practice/MultiModifiers.sol\":490:495  value */\n      dup1\n        /* \"Practice/MultiModifiers.sol\":482:488  amount */\n      0x01\n      0x00\n        /* \"Practice/MultiModifiers.sol\":482:495  amount+=value */\n      dup3\n      dup3\n      sload\n      tag_29\n      swap2\n      swap1\n      tag_30\n      jump\t// in\n    tag_29:\n      swap3\n      pop\n      pop\n      dup2\n      swap1\n      sstore\n      pop\n        /* \"Practice/MultiModifiers.sol\":424:503  function number(uint value) public checkOwner{\r... */\n      pop\n      jump\t// out\n        /* \"Practice/MultiModifiers.sol\":109:127  uint public amount */\n    tag_14:\n      sload(0x01)\n      dup2\n      jump\t// out\n        /* \"#utility.yul\":7:146   */\n    tag_32:\n      0x00\n        /* \"#utility.yul\":91:97   */\n      dup2\n        /* \"#utility.yul\":78:98   */\n      calldataload\n        /* \"#utility.yul\":69:98   */\n      swap1\n      pop\n        /* \"#utility.yul\":107:140   */\n      tag_34\n        /* \"#utility.yul\":134:139   */\n      dup2\n        /* \"#utility.yul\":107:140   */\n      tag_35\n      jump\t// in\n    tag_34:\n        /* \"#utility.yul\":59:146   */\n      swap3\n      swap2\n      pop\n      pop\n      jump\t// out\n        /* \"#utility.yul\":152:414   */\n    tag_8:\n      0x00\n        /* \"#utility.yul\":260:262   */\n      0x20\n        /* \"#utility.yul\":248:257   */\n      dup3\n        /* \"#utility.yul\":239:246   */\n      dup5\n        /* \"#utility.yul\":235:258   */\n      sub\n        /* \"#utility.yul\":231:263   */\n      slt\n        /* \"#utility.yul\":228:230   */\n      iszero\n      tag_37\n      jumpi\n        /* \"#utility.yul\":276:277   */\n      0x00\n        /* \"#utility.yul\":273:274   */\n      dup1\n        /* \"#utility.yul\":266:278   */\n      revert\n        /* \"#utility.yul\":228:230   */\n    tag_37:\n        /* \"#utility.yul\":319:320   */\n      0x00\n        /* \"#utility.yul\":344:397   */\n      tag_38\n        /* \"#utility.yul\":389:396   */\n      dup5\n        /* \"#utility.yul\":380:386   */\n      dup3\n        /* \"#utility.yul\":369:378   */\n      dup6\n        /* \"#utility.yul\":365:387   */\n      add\n        /* \"#utility.yul\":344:397   */\n      tag_32\n      jump\t// in\n    tag_38:\n        /* \"#utility.yul\":334:397   */\n      swap2\n      pop\n        /* \"#utility.yul\":290:407   */\n      pop\n        /* \"#utility.yul\":218:414   */\n      swap3\n      swap2\n      pop\n      pop\n      jump\t// out\n        /* \"#utility.yul\":420:726   */\n    tag_39:\n      0x00\n        /* \"#utility.yul\":583:649   */\n      tag_41\n        /* \"#utility.yul\":647:648   */\n      0x09\n        /* \"#utility.yul\":642:645   */\n      dup4\n        /* \"#utility.yul\":583:649   */\n      tag_42\n      jump\t// in\n    tag_41:\n        /* \"#utility.yul\":576:649   */\n      swap2\n      pop\n        /* \"#utility.yul\":679:690   */\n      0x4e6f74204f776e65720000000000000000000000000000000000000000000000\n        /* \"#utility.yul\":675:676   */\n      0x00\n        /* \"#utility.yul\":670:673   */\n      dup4\n        /* \"#utility.yul\":666:677   */\n      add\n        /* \"#utility.yul\":659:691   */\n      mstore\n        /* \"#utility.yul\":717:719   */\n      0x20\n        /* \"#utility.yul\":712:715   */\n      dup3\n        /* \"#utility.yul\":708:720   */\n      add\n        /* \"#utility.yul\":701:720   */\n      swap1\n      pop\n        /* \"#utility.yul\":566:726   */\n      swap2\n      swap1\n      pop\n      jump\t// out\n        /* \"#utility.yul\":732:1109   */\n    tag_43:\n      0x00\n        /* \"#utility.yul\":895:962   */\n      tag_45\n        /* \"#utility.yul\":959:961   */\n      0x2d\n        /* \"#utility.yul\":954:957   */\n      dup4\n        /* \"#utility.yul\":895:962   */\n      tag_42\n      jump\t// in\n    tag_45:\n        /* \"#utility.yul\":888:962   */\n      swap2\n      pop\n        /* \"#utility.yul\":992:1026   */\n      0x416d6f756e742073686f756c642062652067726561746572207468616e206f72\n        /* \"#utility.yul\":988:989   */\n      0x00\n        /* \"#utility.yul\":983:986   */\n      dup4\n        /* \"#utility.yul\":979:990   */\n      add\n        /* \"#utility.yul\":972:1027   */\n      mstore\n        /* \"#utility.yul\":1058:1073   */\n      0x20657175616c20746f2031303000000000000000000000000000000000000000\n        /* \"#utility.yul\":1053:1055   */\n      0x20\n        /* \"#utility.yul\":1048:1051   */\n      dup4\n        /* \"#utility.yul\":1044:1056   */\n      add\n        /* \"#utility.yul\":1037:1074   */\n      mstore\n        /* \"#utility.yul\":1100:1102   */\n      0x40\n        /* \"#utility.yul\":1095:1098   */\n      dup3\n        /* \"#utility.yul\":1091:1103   */\n      add\n        /* \"#utility.yul\":1084:1103   */\n      swap1\n      pop\n        /* \"#utility.yul\":878:1109   */\n      swap2\n      swap1\n      pop\n      jump\t// out\n        /* \"#utility.yul\":1115:1233   */\n    tag_46:\n        /* \"#utility.yul\":1202:1226   */\n      tag_48\n        /* \"#utility.yul\":1220:1225   */\n      dup2\n        /* \"#utility.yul\":1202:1226   */\n      tag_49\n      jump\t// in\n    tag_48:\n        /* \"#utility.yul\":1197:1200   */\n      dup3\n        /* \"#utility.yul\":1190:1227   */\n      mstore\n        /* \"#utility.yul\":1180:1233   */\n      pop\n      pop\n      jump\t// out\n        /* \"#utility.yul\":1239:1658   */\n    tag_27:\n      0x00\n        /* \"#utility.yul\":1443:1445   */\n      0x20\n        /* \"#utility.yul\":1432:1441   */\n      dup3\n        /* \"#utility.yul\":1428:1446   */\n      add\n        /* \"#utility.yul\":1420:1446   */\n      swap1\n      pop\n        /* \"#utility.yul\":1492:1501   */\n      dup2\n        /* \"#utility.yul\":1486:1490   */\n      dup2\n        /* \"#utility.yul\":1482:1502   */\n      sub\n        /* \"#utility.yul\":1478:1479   */\n      0x00\n        /* \"#utility.yul\":1467:1476   */\n      dup4\n        /* \"#utility.yul\":1463:1480   */\n      add\n        /* \"#utility.yul\":1456:1503   */\n      mstore\n        /* \"#utility.yul\":1520:1651   */\n      tag_51\n        /* \"#utility.yul\":1646:1650   */\n      dup2\n        /* \"#utility.yul\":1520:1651   */\n      tag_39\n      jump\t// in\n    tag_51:\n        /* \"#utility.yul\":1512:1651   */\n      swap1\n      pop\n        /* \"#utility.yul\":1410:1658   */\n      swap2\n      swap1\n      pop\n      jump\t// out\n        /* \"#utility.yul\":1664:2083   */\n    tag_20:\n      0x00\n        /* \"#utility.yul\":1868:1870   */\n      0x20\n        /* \"#utility.yul\":1857:1866   */\n      dup3\n        /* \"#utility.yul\":1853:1871   */\n      add\n        /* \"#utility.yul\":1845:1871   */\n      swap1\n      pop\n        /* \"#utility.yul\":1917:1926   */\n      dup2\n        /* \"#utility.yul\":1911:1915   */\n      dup2\n        /* \"#utility.yul\":1907:1927   */\n      sub\n        /* \"#utility.yul\":1903:1904   */\n      0x00\n        /* \"#utility.yul\":1892:1901   */\n      dup4\n        /* \"#utility.yul\":1888:1905   */\n      add\n        /* \"#utility.yul\":1881:1928   */\n      mstore\n        /* \"#utility.yul\":1945:2076   */\n      tag_53\n        /* \"#utility.yul\":2071:2075   */\n      dup2\n        /* \"#utility.yul\":1945:2076   */\n      tag_43\n      jump\t// in\n    tag_53:\n        /* \"#utility.yul\":1937:2076   */\n      swap1\n      pop\n        /* \"#utility.yul\":1835:2083   */\n      swap2\n      swap1\n      pop\n      jump\t// out\n        /* \"#utility.yul\":2089:2311   */\n    tag_16:\n      0x00\n        /* \"#utility.yul\":2220:2222   */\n      0x20\n        /* \"#utility.yul\":2209:2218   */\n      dup3\n        /* \"#utility.yul\":2205:2223   */\n      add\n        /* \"#utility.yul\":2197:2223   */\n      swap1\n      pop\n        /* \"#utility.yul\":2233:2304   */\n      tag_55\n        /* \"#utility.yul\":2301:2302   */\n      0x00\n        /* \"#utility.yul\":2290:2299   */\n      dup4\n        /* \"#utility.yul\":2286:2303   */\n      add\n        /* \"#utility.yul\":2277:2283   */\n      dup5\n        /* \"#utility.yul\":2233:2304   */\n      tag_46\n      jump\t// in\n    tag_55:\n        /* \"#utility.yul\":2187:2311   */\n      swap3\n      swap2\n      pop\n      pop\n      jump\t// out\n        /* \"#utility.yul\":2317:2486   */\n    tag_42:\n      0x00\n        /* \"#utility.yul\":2435:2441   */\n      dup3\n        /* \"#utility.yul\":2430:2433   */\n      dup3\n        /* \"#utility.yul\":2423:2442   */\n      mstore\n        /* \"#utility.yul\":2475:2479   */\n      0x20\n        /* \"#utility.yul\":2470:2473   */\n      dup3\n        /* \"#utility.yul\":2466:2480   */\n      add\n        /* \"#utility.yul\":2451:2480   */\n      swap1\n      pop\n        /* \"#utility.yul\":2413:2486   */\n      swap3\n      swap2\n      pop\n      pop\n      jump\t// out\n        /* \"#utility.yul\":2492:2797   */\n    tag_30:\n      0x00\n        /* \"#utility.yul\":2551:2571   */\n      tag_58\n        /* \"#utility.yul\":2569:2570   */\n      dup3\n        /* \"#utility.yul\":2551:2571   */\n      tag_49\n      jump\t// in\n    tag_58:\n        /* \"#utility.yul\":2546:2571   */\n      swap2\n      pop\n        /* \"#utility.yul\":2585:2605   */\n      tag_59\n        /* \"#utility.yul\":2603:2604   */\n      dup4\n        /* \"#utility.yul\":2585:2605   */\n      tag_49\n      jump\t// in\n    tag_59:\n        /* \"#utility.yul\":2580:2605   */\n      swap3\n      pop\n        /* \"#utility.yul\":2739:2740   */\n      dup3\n        /* \"#utility.yul\":2671:2737   */\n      0xffffffffffffffffffffffffffffffffffffffffffffffffffffffffffffffff\n        /* \"#utility.yul\":2667:2741   */\n      sub\n        /* \"#utility.yul\":2664:2665   */\n      dup3\n        /* \"#utility.yul\":2661:2742   */\n      gt\n        /* \"#utility.yul\":2658:2660   */\n      iszero\n      tag_60\n      jumpi\n        /* \"#utility.yul\":2745:2763   */\n      tag_61\n      tag_62\n      jump\t// in\n    tag_61:\n        /* \"#utility.yul\":2658:2660   */\n    tag_60:\n        /* \"#utility.yul\":2789:2790   */\n      dup3\n        /* \"#utility.yul\":2786:2787   */\n      dup3\n        /* \"#utility.yul\":2782:2791   */\n      add\n        /* \"#utility.yul\":2775:2791   */\n      swap1\n      pop\n        /* \"#utility.yul\":2536:2797   */\n      swap3\n      swap2\n      pop\n      pop\n      jump\t// out\n        /* \"#utility.yul\":2803:2994   */\n    tag_23:\n      0x00\n        /* \"#utility.yul\":2863:2883   */\n      tag_64\n        /* \"#utility.yul\":2881:2882   */\n      dup3\n        /* \"#utility.yul\":2863:2883   */\n      tag_49\n      jump\t// in\n    tag_64:\n        /* \"#utility.yul\":2858:2883   */\n      swap2\n      pop\n        /* \"#utility.yul\":2897:2917   */\n      tag_65\n        /* \"#utility.yul\":2915:2916   */\n      dup4\n        /* \"#utility.yul\":2897:2917   */\n      tag_49\n      jump\t// in\n    tag_65:\n        /* \"#utility.yul\":2892:2917   */\n      swap3\n      pop\n        /* \"#utility.yul\":2936:2937   */\n      dup3\n        /* \"#utility.yul\":2933:2934   */\n      dup3\n        /* \"#utility.yul\":2930:2938   */\n      lt\n        /* \"#utility.yul\":2927:2929   */\n      iszero\n      tag_66\n      jumpi\n        /* \"#utility.yul\":2941:2959   */\n      tag_67\n      tag_62\n      jump\t// in\n    tag_67:\n        /* \"#utility.yul\":2927:2929   */\n    tag_66:\n        /* \"#utility.yul\":2986:2987   */\n      dup3\n        /* \"#utility.yul\":2983:2984   */\n      dup3\n        /* \"#utility.yul\":2979:2988   */\n      sub\n        /* \"#utility.yul\":2971:2988   */\n      swap1\n      pop\n        /* \"#utility.yul\":2848:2994   */\n      swap3\n      swap2\n      pop\n      pop\n      jump\t// out\n        /* \"#utility.yul\":3000:3077   */\n    tag_49:\n      0x00\n        /* \"#utility.yul\":3066:3071   */\n      dup2\n        /* \"#utility.yul\":3055:3071   */\n      swap1\n      pop\n        /* \"#utility.yul\":3045:3077   */\n      swap2\n      swap1\n      pop\n      jump\t// out\n        /* \"#utility.yul\":3083:3263   */\n    tag_62:\n        /* \"#utility.yul\":3131:3208   */\n      0x4e487b7100000000000000000000000000000000000000000000000000000000\n        /* \"#utility.yul\":3128:3129   */\n      0x00\n        /* \"#utility.yul\":3121:3209   */\n      mstore\n        /* \"#utility.yul\":3228:3232   */\n      0x11\n        /* \"#utility.yul\":3225:3226   */\n      0x04\n        /* \"#utility.yul\":3218:3233   */\n      mstore\n        /* \"#utility.yul\":3252:3256   */\n      0x24\n        /* \"#utility.yul\":3249:3250   */\n      0x00\n        /* \"#utility.yul\":3242:3257   */\n      revert\n        /* \"#utility.yul\":3269:3391   */\n    tag_35:\n        /* \"#utility.yul\":3342:3366   */\n      tag_71\n        /* \"#utility.yul\":3360:3365   */\n      dup2\n        /* \"#utility.yul\":3342:3366   */\n      tag_49\n      jump\t// in\n    tag_71:\n        /* \"#utility.yul\":3335:3340   */\n      dup2\n        /* \"#utility.yul\":3332:3367   */\n      eq\n        /* \"#utility.yul\":3322:3324   */\n      tag_72\n      jumpi\n        /* \"#utility.yul\":3381:3382   */\n      0x00\n        /* \"#utility.yul\":3378:3379   */\n      dup1\n        /* \"#utility.yul\":3371:3383   */\n      revert\n        /* \"#utility.yul\":3322:3324   */\n    tag_72:\n        /* \"#utility.yul\":3312:3391   */\n      pop\n      jump\t// out\n\n    auxdata: 0xa2646970667358221220a28997d825ba94acbc19bda34c52741362032b9de22ecfe9d59008cc48872cdf64736f6c63430008000033\n}\n",
				"bytecode": {
					"linkReferences": {},
					"object": "608060405234801561001057600080fd5b50336000806101000a81548173ffffffffffffffffffffffffffffffffffffffff021916908373ffffffffffffffffffffffffffffffffffffffff16021790555061041d806100606000396000f3fe608060405234801561001057600080fd5b50600436106100415760003560e01c8063248dd40714610046578063431aabc214610062578063aa8c217c1461007e575b600080fd5b610060600480360381019061005b91906101c3565b61009c565b005b61007c600480360381019061007791906101c3565b6100fe565b005b6100866101a8565b60405161009391906102e1565b60405180910390f35b8060648110156100e1576040517f08c379a00000000000000000000000000000000000000000000000000000000081526004016100d8906102c1565b60405180910390fd5b81600160008282546100f39190610363565b925050819055505050565b3373ffffffffffffffffffffffffffffffffffffffff1660008054906101000a900473ffffffffffffffffffffffffffffffffffffffff1673ffffffffffffffffffffffffffffffffffffffff161461018c576040517f08c379a0000000000000000000000000000000000000000000000000000000008152600401610183906102a1565b60405180910390fd5b806001600082825461019e919061030d565b9250508190555050565b60015481565b6000813590506101bd816103d0565b92915050565b6000602082840312156101d557600080fd5b60006101e3848285016101ae565b91505092915050565b60006101f96009836102fc565b91507f4e6f74204f776e657200000000000000000000000000000000000000000000006000830152602082019050919050565b6000610239602d836102fc565b91507f416d6f756e742073686f756c642062652067726561746572207468616e206f7260008301527f20657175616c20746f20313030000000000000000000000000000000000000006020830152604082019050919050565b61029b81610397565b82525050565b600060208201905081810360008301526102ba816101ec565b9050919050565b600060208201905081810360008301526102da8161022c565b9050919050565b60006020820190506102f66000830184610292565b92915050565b600082825260208201905092915050565b600061031882610397565b915061032383610397565b9250827fffffffffffffffffffffffffffffffffffffffffffffffffffffffffffffffff03821115610358576103576103a1565b5b828201905092915050565b600061036e82610397565b915061037983610397565b92508282101561038c5761038b6103a1565b5b828203905092915050565b6000819050919050565b7f4e487b7100000000000000000000000000000000000000000000000000000000600052601160045260246000fd5b6103d981610397565b81146103e457600080fd5b5056fea2646970667358221220a28997d825ba94acbc19bda34c52741362032b9de22ecfe9d59008cc48872cdf64736f6c63430008000033",
					"opcodes": "PUSH1 0x80 PUSH1 0x40 MSTORE CALLVALUE DUP1 ISZERO PUSH2 0x10 JUMPI PUSH1 0x0 DUP1 REVERT JUMPDEST POP CALLER PUSH1 0x0 DUP1 PUSH2 0x100 EXP DUP2 SLOAD DUP2 PUSH20 0xFFFFFFFFFFFFFFFFFFFFFFFFFFFFFFFFFFFFFFFF MUL NOT AND SWAP1 DUP4 PUSH20 0xFFFFFFFFFFFFFFFFFFFFFFFFFFFFFFFFFFFFFFFF AND MUL OR SWAP1 SSTORE POP PUSH2 0x41D DUP1 PUSH2 0x60 PUSH1 0x0 CODECOPY PUSH1 0x0 RETURN INVALID PUSH1 0x80 PUSH1 0x40 MSTORE CALLVALUE DUP1 ISZERO PUSH2 0x10 JUMPI PUSH1 0x0 DUP1 REVERT JUMPDEST POP PUSH1 0x4 CALLDATASIZE LT PUSH2 0x41 JUMPI PUSH1 0x0 CALLDATALOAD PUSH1 0xE0 SHR DUP1 PUSH4 0x248DD407 EQ PUSH2 0x46 JUMPI DUP1 PUSH4 0x431AABC2 EQ PUSH2 0x62 JUMPI DUP1 PUSH4 0xAA8C217C EQ PUSH2 0x7E JUMPI JUMPDEST PUSH1 0x0 DUP1 REVERT JUMPDEST PUSH2 0x60 PUSH1 0x4 DUP1 CALLDATASIZE SUB DUP2 ADD SWAP1 PUSH2 0x5B SWAP2 SWAP1 PUSH2 0x1C3 JUMP JUMPDEST PUSH2 0x9C JUMP JUMPDEST STOP JUMPDEST PUSH2 0x7C PUSH1 0x4 DUP1 CALLDATASIZE SUB DUP2 ADD SWAP1 PUSH2 0x77 SWAP2 SWAP1 PUSH2 0x1C3 JUMP JUMPDEST PUSH2 0xFE JUMP JUMPDEST STOP JUMPDEST PUSH2 0x86 PUSH2 0x1A8 JUMP JUMPDEST PUSH1 0x40 MLOAD PUSH2 0x93 SWAP2 SWAP1 PUSH2 0x2E1 JUMP JUMPDEST PUSH1 0x40 MLOAD DUP1 SWAP2 SUB SWAP1 RETURN JUMPDEST DUP1 PUSH1 0x64 DUP2 LT ISZERO PUSH2 0xE1 JUMPI PUSH1 0x40 MLOAD PUSH32 0x8C379A000000000000000000000000000000000000000000000000000000000 DUP2 MSTORE PUSH1 0x4 ADD PUSH2 0xD8 SWAP1 PUSH2 0x2C1 JUMP JUMPDEST PUSH1 0x40 MLOAD DUP1 SWAP2 SUB SWAP1 REVERT JUMPDEST DUP2 PUSH1 0x1 PUSH1 0x0 DUP3 DUP3 SLOAD PUSH2 0xF3 SWAP2 SWAP1 PUSH2 0x363 JUMP JUMPDEST SWAP3 POP POP DUP2 SWAP1 SSTORE POP POP POP JUMP JUMPDEST CALLER PUSH20 0xFFFFFFFFFFFFFFFFFFFFFFFFFFFFFFFFFFFFFFFF AND PUSH1 0x0 DUP1 SLOAD SWAP1 PUSH2 0x100 EXP SWAP1 DIV PUSH20 0xFFFFFFFFFFFFFFFFFFFFFFFFFFFFFFFFFFFFFFFF AND PUSH20 0xFFFFFFFFFFFFFFFFFFFFFFFFFFFFFFFFFFFFFFFF AND EQ PUSH2 0x18C JUMPI PUSH1 0x40 MLOAD PUSH32 0x8C379A000000000000000000000000000000000000000000000000000000000 DUP2 MSTORE PUSH1 0x4 ADD PUSH2 0x183 SWAP1 PUSH2 0x2A1 JUMP JUMPDEST PUSH1 0x40 MLOAD DUP1 SWAP2 SUB SWAP1 REVERT JUMPDEST DUP1 PUSH1 0x1 PUSH1 0x0 DUP3 DUP3 SLOAD PUSH2 0x19E SWAP2 SWAP1 PUSH2 0x30D JUMP JUMPDEST SWAP3 POP POP DUP2 SWAP1 SSTORE POP POP JUMP JUMPDEST PUSH1 0x1 SLOAD DUP2 JUMP JUMPDEST PUSH1 0x0 DUP2 CALLDATALOAD SWAP1 POP PUSH2 0x1BD DUP2 PUSH2 0x3D0 JUMP JUMPDEST SWAP3 SWAP2 POP POP JUMP JUMPDEST PUSH1 0x0 PUSH1 0x20 DUP3 DUP5 SUB SLT ISZERO PUSH2 0x1D5 JUMPI PUSH1 0x0 DUP1 REVERT JUMPDEST PUSH1 0x0 PUSH2 0x1E3 DUP5 DUP3 DUP6 ADD PUSH2 0x1AE JUMP JUMPDEST SWAP2 POP POP SWAP3 SWAP2 POP POP JUMP JUMPDEST PUSH1 0x0 PUSH2 0x1F9 PUSH1 0x9 DUP4 PUSH2 0x2FC JUMP JUMPDEST SWAP2 POP PUSH32 0x4E6F74204F776E65720000000000000000000000000000000000000000000000 PUSH1 0x0 DUP4 ADD MSTORE PUSH1 0x20 DUP3 ADD SWAP1 POP SWAP2 SWAP1 POP JUMP JUMPDEST PUSH1 0x0 PUSH2 0x239 PUSH1 0x2D DUP4 PUSH2 0x2FC JUMP JUMPDEST SWAP2 POP PUSH32 0x416D6F756E742073686F756C642062652067726561746572207468616E206F72 PUSH1 0x0 DUP4 ADD MSTORE PUSH32 0x20657175616C20746F2031303000000000000000000000000000000000000000 PUSH1 0x20 DUP4 ADD MSTORE PUSH1 0x40 DUP3 ADD SWAP1 POP SWAP2 SWAP1 POP JUMP JUMPDEST PUSH2 0x29B DUP2 PUSH2 0x397 JUMP JUMPDEST DUP3 MSTORE POP POP JUMP JUMPDEST PUSH1 0x0 PUSH1 0x20 DUP3 ADD SWAP1 POP DUP2 DUP2 SUB PUSH1 0x0 DUP4 ADD MSTORE PUSH2 0x2BA DUP2 PUSH2 0x1EC JUMP JUMPDEST SWAP1 POP SWAP2 SWAP1 POP JUMP JUMPDEST PUSH1 0x0 PUSH1 0x20 DUP3 ADD SWAP1 POP DUP2 DUP2 SUB PUSH1 0x0 DUP4 ADD MSTORE PUSH2 0x2DA DUP2 PUSH2 0x22C JUMP JUMPDEST SWAP1 POP SWAP2 SWAP1 POP JUMP JUMPDEST PUSH1 0x0 PUSH1 0x20 DUP3 ADD SWAP1 POP PUSH2 0x2F6 PUSH1 0x0 DUP4 ADD DUP5 PUSH2 0x292 JUMP JUMPDEST SWAP3 SWAP2 POP POP JUMP JUMPDEST PUSH1 0x0 DUP3 DUP3 MSTORE PUSH1 0x20 DUP3 ADD SWAP1 POP SWAP3 SWAP2 POP POP JUMP JUMPDEST PUSH1 0x0 PUSH2 0x318 DUP3 PUSH2 0x397 JUMP JUMPDEST SWAP2 POP PUSH2 0x323 DUP4 PUSH2 0x397 JUMP JUMPDEST SWAP3 POP DUP3 PUSH32 0xFFFFFFFFFFFFFFFFFFFFFFFFFFFFFFFFFFFFFFFFFFFFFFFFFFFFFFFFFFFFFFFF SUB DUP3 GT ISZERO PUSH2 0x358 JUMPI PUSH2 0x357 PUSH2 0x3A1 JUMP JUMPDEST JUMPDEST DUP3 DUP3 ADD SWAP1 POP SWAP3 SWAP2 POP POP JUMP JUMPDEST PUSH1 0x0 PUSH2 0x36E DUP3 PUSH2 0x397 JUMP JUMPDEST SWAP2 POP PUSH2 0x379 DUP4 PUSH2 0x397 JUMP JUMPDEST SWAP3 POP DUP3 DUP3 LT ISZERO PUSH2 0x38C JUMPI PUSH2 0x38B PUSH2 0x3A1 JUMP JUMPDEST JUMPDEST DUP3 DUP3 SUB SWAP1 POP SWAP3 SWAP2 POP POP JUMP JUMPDEST PUSH1 0x0 DUP2 SWAP1 POP SWAP2 SWAP1 POP JUMP JUMPDEST PUSH32 0x4E487B7100000000000000000000000000000000000000000000000000000000 PUSH1 0x0 MSTORE PUSH1 0x11 PUSH1 0x4 MSTORE PUSH1 0x24 PUSH1 0x0 REVERT JUMPDEST PUSH2 0x3D9 DUP2 PUSH2 0x397 JUMP JUMPDEST DUP2 EQ PUSH2 0x3E4 JUMPI PUSH1 0x0 DUP1 REVERT JUMPDEST POP JUMP INVALID LOG2 PUSH5 0x6970667358 0x22 SLT KECCAK256 LOG2 DUP10 SWAP8 0xD8 0x25 0xBA SWAP5 0xAC 0xBC NOT 0xBD LOG3 0x4C MSTORE PUSH21 0x1362032B9DE22ECFE9D59008CC48872CDF64736F6C PUSH4 0x43000800 STOP CALLER "
				},
				"gasEstimates": {
					"creation": {
						"codeDepositCost": "210600",
						"executionCost": "21117",
						"totalCost": "231717"
					},
					"external": {
						"Transfer(uint256)": "infinite",
						"amount()": "1151",
						"number(uint256)": "infinite"
					}
				},
				"methodIdentifiers": {
					"Transfer(uint256)": "248dd407",
					"amount()": "aa8c217c",
					"number(uint256)": "431aabc2"
				}
			},
			"storageLayout": {
				"storage": [
					{
						"astId": 3,
						"contract": "Practice/MultiModifiers.sol:MutliModifier",
						"label": "owner",
						"offset": 0,
						"slot": "0",
						"type": "t_address"
					},
					{
						"astId": 5,
						"contract": "Practice/MultiModifiers.sol:MutliModifier",
						"label": "amount",
						"offset": 0,
						"slot": "1",
						"type": "t_uint256"
					}
				],
				"types": {
					"t_address": {
						"encoding": "inplace",
						"label": "address",
						"numberOfBytes": "20"
					},
					"t_uint256": {
						"encoding": "inplace",
						"label": "uint256",
						"numberOfBytes": "32"
					}
				}
			},
			"userdoc": {
				"kind": "user",
				"methods": {},
				"version": 1
			}
		}
	}
}