{
	"Practice/crowdFunding.sol": {
		"crowdFunding": {
			"abi": [
				{
					"inputs": [
						{
							"internalType": "uint256",
							"name": "_goal",
							"type": "uint256"
						},
						{
							"internalType": "uint256",
							"name": "_min",
							"type": "uint256"
						}
					],
					"stateMutability": "nonpayable",
					"type": "constructor"
				},
				{
					"anonymous": false,
					"inputs": [
						{
							"indexed": true,
							"internalType": "address",
							"name": "sender",
							"type": "address"
						},
						{
							"indexed": false,
							"internalType": "uint256",
							"name": "amount",
							"type": "uint256"
						}
					],
					"name": "addingFunds",
					"type": "event"
				},
				{
					"anonymous": false,
					"inputs": [
						{
							"indexed": false,
							"internalType": "address",
							"name": "receiver",
							"type": "address"
						},
						{
							"indexed": false,
							"internalType": "uint256",
							"name": "amount",
							"type": "uint256"
						}
					],
					"name": "refund_funds",
					"type": "event"
				},
				{
					"anonymous": false,
					"inputs": [
						{
							"indexed": false,
							"internalType": "uint256",
							"name": "time",
							"type": "uint256"
						}
					],
					"name": "remaining_time",
					"type": "event"
				},
				{
					"anonymous": false,
					"inputs": [
						{
							"indexed": false,
							"internalType": "address",
							"name": "Owner",
							"type": "address"
						},
						{
							"indexed": false,
							"internalType": "uint256",
							"name": "goal",
							"type": "uint256"
						}
					],
					"name": "startCrowdFunding",
					"type": "event"
				},
				{
					"anonymous": false,
					"inputs": [
						{
							"indexed": false,
							"internalType": "uint256",
							"name": "amount",
							"type": "uint256"
						}
					],
					"name": "withdraw_funds",
					"type": "event"
				},
				{
					"inputs": [],
					"name": "addFunds",
					"outputs": [],
					"stateMutability": "payable",
					"type": "function"
				},
				{
					"inputs": [
						{
							"internalType": "address",
							"name": "",
							"type": "address"
						}
					],
					"name": "contributions",
					"outputs": [
						{
							"internalType": "uint256",
							"name": "",
							"type": "uint256"
						}
					],
					"stateMutability": "view",
					"type": "function"
				},
				{
					"inputs": [],
					"name": "goal",
					"outputs": [
						{
							"internalType": "uint256",
							"name": "",
							"type": "uint256"
						}
					],
					"stateMutability": "view",
					"type": "function"
				},
				{
					"inputs": [],
					"name": "refund",
					"outputs": [],
					"stateMutability": "payable",
					"type": "function"
				},
				{
					"inputs": [],
					"name": "timeleft",
					"outputs": [
						{
							"internalType": "uint256",
							"name": "",
							"type": "uint256"
						}
					],
					"stateMutability": "nonpayable",
					"type": "function"
				},
				{
					"inputs": [],
					"name": "totalFunds",
					"outputs": [
						{
							"internalType": "uint256",
							"name": "",
							"type": "uint256"
						}
					],
					"stateMutability": "view",
					"type": "function"
				},
				{
					"inputs": [],
					"name": "withdraw",
					"outputs": [],
					"stateMutability": "payable",
					"type": "function"
				}
			],
			"devdoc": {
				"kind": "dev",
				"methods": {},
				"version": 1
			},
			"evm": {
				"assembly": "    /* \"Practice/crowdFunding.sol\":60:2055  contract crowdFunding{\r... */\n  mstore(0x40, 0x80)\n    /* \"Practice/crowdFunding.sol\":419:585  constructor(uint _goal, uint _min){\r... */\n  callvalue\n  dup1\n  iszero\n  tag_1\n  jumpi\n  0x00\n  dup1\n  revert\ntag_1:\n  pop\n  mload(0x40)\n  sub(codesize, bytecodeSize)\n  dup1\n  bytecodeSize\n  dup4\n  codecopy\n  dup2\n  dup2\n  add\n  0x40\n  mstore\n  dup2\n  add\n  swap1\n  tag_2\n  swap2\n  swap1\n  tag_3\n  jump\t// in\ntag_2:\n    /* \"Practice/crowdFunding.sol\":476:486  msg.sender */\n  caller\n    /* \"Practice/crowdFunding.sol\":468:473  owner */\n  0x00\n  dup1\n    /* \"Practice/crowdFunding.sol\":468:486  owner = msg.sender */\n  0x0100\n  exp\n  dup2\n  sload\n  dup2\n  0xffffffffffffffffffffffffffffffffffffffff\n  mul\n  not\n  and\n  swap1\n  dup4\n  0xffffffffffffffffffffffffffffffffffffffff\n  and\n  mul\n  or\n  swap1\n  sstore\n  pop\n    /* \"Practice/crowdFunding.sol\":508:513  _goal */\n  dup2\n    /* \"Practice/crowdFunding.sol\":501:505  goal */\n  0x01\n    /* \"Practice/crowdFunding.sol\":501:513  goal = _goal */\n  dup2\n  swap1\n  sstore\n  pop\n    /* \"Practice/crowdFunding.sol\":564:573  1 minutes */\n  0x3c\n    /* \"Practice/crowdFunding.sol\":557:561  _min */\n  dup2\n    /* \"Practice/crowdFunding.sol\":557:573  _min * 1 minutes */\n  tag_6\n  swap2\n  swap1\n  tag_7\n  jump\t// in\ntag_6:\n    /* \"Practice/crowdFunding.sol\":539:554  block.timestamp */\n  timestamp\n    /* \"Practice/crowdFunding.sol\":539:573  block.timestamp + _min * 1 minutes */\n  tag_8\n  swap2\n  swap1\n  tag_9\n  jump\t// in\ntag_8:\n    /* \"Practice/crowdFunding.sol\":528:536  deadline */\n  0x03\n    /* \"Practice/crowdFunding.sol\":528:573  deadline = block.timestamp + _min * 1 minutes */\n  dup2\n  swap1\n  sstore\n  pop\n    /* \"Practice/crowdFunding.sol\":419:585  constructor(uint _goal, uint _min){\r... */\n  pop\n  pop\n    /* \"Practice/crowdFunding.sol\":60:2055  contract crowdFunding{\r... */\n  jump(tag_10)\n    /* \"#utility.yul\":7:150   */\ntag_12:\n  0x00\n    /* \"#utility.yul\":95:101   */\n  dup2\n    /* \"#utility.yul\":89:102   */\n  mload\n    /* \"#utility.yul\":80:102   */\n  swap1\n  pop\n    /* \"#utility.yul\":111:144   */\n  tag_14\n    /* \"#utility.yul\":138:143   */\n  dup2\n    /* \"#utility.yul\":111:144   */\n  tag_15\n  jump\t// in\ntag_14:\n    /* \"#utility.yul\":70:150   */\n  swap3\n  swap2\n  pop\n  pop\n  jump\t// out\n    /* \"#utility.yul\":156:596   */\ntag_3:\n  0x00\n  dup1\n    /* \"#utility.yul\":292:294   */\n  0x40\n    /* \"#utility.yul\":280:289   */\n  dup4\n    /* \"#utility.yul\":271:278   */\n  dup6\n    /* \"#utility.yul\":267:290   */\n  sub\n    /* \"#utility.yul\":263:295   */\n  slt\n    /* \"#utility.yul\":260:262   */\n  iszero\n  tag_17\n  jumpi\n    /* \"#utility.yul\":308:309   */\n  0x00\n    /* \"#utility.yul\":305:306   */\n  dup1\n    /* \"#utility.yul\":298:310   */\n  revert\n    /* \"#utility.yul\":260:262   */\ntag_17:\n    /* \"#utility.yul\":351:352   */\n  0x00\n    /* \"#utility.yul\":376:440   */\n  tag_18\n    /* \"#utility.yul\":432:439   */\n  dup6\n    /* \"#utility.yul\":423:429   */\n  dup3\n    /* \"#utility.yul\":412:421   */\n  dup7\n    /* \"#utility.yul\":408:430   */\n  add\n    /* \"#utility.yul\":376:440   */\n  tag_12\n  jump\t// in\ntag_18:\n    /* \"#utility.yul\":366:440   */\n  swap3\n  pop\n    /* \"#utility.yul\":322:450   */\n  pop\n    /* \"#utility.yul\":489:491   */\n  0x20\n    /* \"#utility.yul\":515:579   */\n  tag_19\n    /* \"#utility.yul\":571:578   */\n  dup6\n    /* \"#utility.yul\":562:568   */\n  dup3\n    /* \"#utility.yul\":551:560   */\n  dup7\n    /* \"#utility.yul\":547:569   */\n  add\n    /* \"#utility.yul\":515:579   */\n  tag_12\n  jump\t// in\ntag_19:\n    /* \"#utility.yul\":505:579   */\n  swap2\n  pop\n    /* \"#utility.yul\":460:589   */\n  pop\n    /* \"#utility.yul\":250:596   */\n  swap3\n  pop\n  swap3\n  swap1\n  pop\n  jump\t// out\n    /* \"#utility.yul\":602:907   */\ntag_9:\n  0x00\n    /* \"#utility.yul\":661:681   */\n  tag_21\n    /* \"#utility.yul\":679:680   */\n  dup3\n    /* \"#utility.yul\":661:681   */\n  tag_22\n  jump\t// in\ntag_21:\n    /* \"#utility.yul\":656:681   */\n  swap2\n  pop\n    /* \"#utility.yul\":695:715   */\n  tag_23\n    /* \"#utility.yul\":713:714   */\n  dup4\n    /* \"#utility.yul\":695:715   */\n  tag_22\n  jump\t// in\ntag_23:\n    /* \"#utility.yul\":690:715   */\n  swap3\n  pop\n    /* \"#utility.yul\":849:850   */\n  dup3\n    /* \"#utility.yul\":781:847   */\n  0xffffffffffffffffffffffffffffffffffffffffffffffffffffffffffffffff\n    /* \"#utility.yul\":777:851   */\n  sub\n    /* \"#utility.yul\":774:775   */\n  dup3\n    /* \"#utility.yul\":771:852   */\n  gt\n    /* \"#utility.yul\":768:770   */\n  iszero\n  tag_24\n  jumpi\n    /* \"#utility.yul\":855:873   */\n  tag_25\n  tag_26\n  jump\t// in\ntag_25:\n    /* \"#utility.yul\":768:770   */\ntag_24:\n    /* \"#utility.yul\":899:900   */\n  dup3\n    /* \"#utility.yul\":896:897   */\n  dup3\n    /* \"#utility.yul\":892:901   */\n  add\n    /* \"#utility.yul\":885:901   */\n  swap1\n  pop\n    /* \"#utility.yul\":646:907   */\n  swap3\n  swap2\n  pop\n  pop\n  jump\t// out\n    /* \"#utility.yul\":913:1261   */\ntag_7:\n  0x00\n    /* \"#utility.yul\":976:996   */\n  tag_28\n    /* \"#utility.yul\":994:995   */\n  dup3\n    /* \"#utility.yul\":976:996   */\n  tag_22\n  jump\t// in\ntag_28:\n    /* \"#utility.yul\":971:996   */\n  swap2\n  pop\n    /* \"#utility.yul\":1010:1030   */\n  tag_29\n    /* \"#utility.yul\":1028:1029   */\n  dup4\n    /* \"#utility.yul\":1010:1030   */\n  tag_22\n  jump\t// in\ntag_29:\n    /* \"#utility.yul\":1005:1030   */\n  swap3\n  pop\n    /* \"#utility.yul\":1198:1199   */\n  dup2\n    /* \"#utility.yul\":1130:1196   */\n  0xffffffffffffffffffffffffffffffffffffffffffffffffffffffffffffffff\n    /* \"#utility.yul\":1126:1200   */\n  div\n    /* \"#utility.yul\":1123:1124   */\n  dup4\n    /* \"#utility.yul\":1120:1201   */\n  gt\n    /* \"#utility.yul\":1115:1116   */\n  dup3\n    /* \"#utility.yul\":1108:1117   */\n  iszero\n    /* \"#utility.yul\":1101:1118   */\n  iszero\n    /* \"#utility.yul\":1097:1202   */\n  and\n    /* \"#utility.yul\":1094:1096   */\n  iszero\n  tag_30\n  jumpi\n    /* \"#utility.yul\":1205:1223   */\n  tag_31\n  tag_26\n  jump\t// in\ntag_31:\n    /* \"#utility.yul\":1094:1096   */\ntag_30:\n    /* \"#utility.yul\":1253:1254   */\n  dup3\n    /* \"#utility.yul\":1250:1251   */\n  dup3\n    /* \"#utility.yul\":1246:1255   */\n  mul\n    /* \"#utility.yul\":1235:1255   */\n  swap1\n  pop\n    /* \"#utility.yul\":961:1261   */\n  swap3\n  swap2\n  pop\n  pop\n  jump\t// out\n    /* \"#utility.yul\":1267:1344   */\ntag_22:\n  0x00\n    /* \"#utility.yul\":1333:1338   */\n  dup2\n    /* \"#utility.yul\":1322:1338   */\n  swap1\n  pop\n    /* \"#utility.yul\":1312:1344   */\n  swap2\n  swap1\n  pop\n  jump\t// out\n    /* \"#utility.yul\":1350:1530   */\ntag_26:\n    /* \"#utility.yul\":1398:1475   */\n  0x4e487b7100000000000000000000000000000000000000000000000000000000\n    /* \"#utility.yul\":1395:1396   */\n  0x00\n    /* \"#utility.yul\":1388:1476   */\n  mstore\n    /* \"#utility.yul\":1495:1499   */\n  0x11\n    /* \"#utility.yul\":1492:1493   */\n  0x04\n    /* \"#utility.yul\":1485:1500   */\n  mstore\n    /* \"#utility.yul\":1519:1523   */\n  0x24\n    /* \"#utility.yul\":1516:1517   */\n  0x00\n    /* \"#utility.yul\":1509:1524   */\n  revert\n    /* \"#utility.yul\":1536:1658   */\ntag_15:\n    /* \"#utility.yul\":1609:1633   */\n  tag_35\n    /* \"#utility.yul\":1627:1632   */\n  dup2\n    /* \"#utility.yul\":1609:1633   */\n  tag_22\n  jump\t// in\ntag_35:\n    /* \"#utility.yul\":1602:1607   */\n  dup2\n    /* \"#utility.yul\":1599:1634   */\n  eq\n    /* \"#utility.yul\":1589:1591   */\n  tag_36\n  jumpi\n    /* \"#utility.yul\":1648:1649   */\n  0x00\n    /* \"#utility.yul\":1645:1646   */\n  dup1\n    /* \"#utility.yul\":1638:1650   */\n  revert\n    /* \"#utility.yul\":1589:1591   */\ntag_36:\n    /* \"#utility.yul\":1579:1658   */\n  pop\n  jump\t// out\n    /* \"Practice/crowdFunding.sol\":60:2055  contract crowdFunding{\r... */\ntag_10:\n  dataSize(sub_0)\n  dup1\n  dataOffset(sub_0)\n  0x00\n  codecopy\n  0x00\n  return\nstop\n\nsub_0: assembly {\n        /* \"Practice/crowdFunding.sol\":60:2055  contract crowdFunding{\r... */\n      mstore(0x40, 0x80)\n      jumpi(tag_1, lt(calldatasize, 0x04))\n      shr(0xe0, calldataload(0x00))\n      dup1\n      0x590e1ae3\n      gt\n      tag_9\n      jumpi\n      dup1\n      0x590e1ae3\n      eq\n      tag_5\n      jumpi\n      dup1\n      0x68c74b53\n      eq\n      tag_6\n      jumpi\n      dup1\n      0x968ed600\n      eq\n      tag_7\n      jumpi\n      dup1\n      0xa26759cb\n      eq\n      tag_8\n      jumpi\n      jump(tag_1)\n    tag_9:\n      dup1\n      0x3ccfd60b\n      eq\n      tag_2\n      jumpi\n      dup1\n      0x40193883\n      eq\n      tag_3\n      jumpi\n      dup1\n      0x42e94c90\n      eq\n      tag_4\n      jumpi\n    tag_1:\n      0x00\n      dup1\n      revert\n        /* \"Practice/crowdFunding.sol\":1394:1677  function withdraw() public payable {\r... */\n    tag_2:\n      tag_10\n      tag_11\n      jump\t// in\n    tag_10:\n      stop\n        /* \"Practice/crowdFunding.sol\":118:134  uint public goal */\n    tag_3:\n      callvalue\n      dup1\n      iszero\n      tag_12\n      jumpi\n      0x00\n      dup1\n      revert\n    tag_12:\n      pop\n      tag_13\n      tag_14\n      jump\t// in\n    tag_13:\n      mload(0x40)\n      tag_15\n      swap2\n      swap1\n      tag_16\n      jump\t// in\n    tag_15:\n      mload(0x40)\n      dup1\n      swap2\n      sub\n      swap1\n      return\n        /* \"Practice/crowdFunding.sol\":604:650  mapping (address => uint) public contributions */\n    tag_4:\n      callvalue\n      dup1\n      iszero\n      tag_17\n      jumpi\n      0x00\n      dup1\n      revert\n    tag_17:\n      pop\n      tag_18\n      0x04\n      dup1\n      calldatasize\n      sub\n      dup2\n      add\n      swap1\n      tag_19\n      swap2\n      swap1\n      tag_20\n      jump\t// in\n    tag_19:\n      tag_21\n      jump\t// in\n    tag_18:\n      mload(0x40)\n      tag_22\n      swap2\n      swap1\n      tag_16\n      jump\t// in\n    tag_22:\n      mload(0x40)\n      dup1\n      swap2\n      sub\n      swap1\n      return\n        /* \"Practice/crowdFunding.sol\":1689:2042  function refund() public payable{\r... */\n    tag_5:\n      tag_23\n      tag_24\n      jump\t// in\n    tag_23:\n      stop\n        /* \"Practice/crowdFunding.sol\":1056:1381  function timeleft() public returns(uint){\r... */\n    tag_6:\n      callvalue\n      dup1\n      iszero\n      tag_25\n      jumpi\n      0x00\n      dup1\n      revert\n    tag_25:\n      pop\n      tag_26\n      tag_27\n      jump\t// in\n    tag_26:\n      mload(0x40)\n      tag_28\n      swap2\n      swap1\n      tag_16\n      jump\t// in\n    tag_28:\n      mload(0x40)\n      dup1\n      swap2\n      sub\n      swap1\n      return\n        /* \"Practice/crowdFunding.sol\":145:167  uint public totalFunds */\n    tag_7:\n      callvalue\n      dup1\n      iszero\n      tag_29\n      jumpi\n      0x00\n      dup1\n      revert\n    tag_29:\n      pop\n      tag_30\n      tag_31\n      jump\t// in\n    tag_30:\n      mload(0x40)\n      tag_32\n      swap2\n      swap1\n      tag_16\n      jump\t// in\n    tag_32:\n      mload(0x40)\n      dup1\n      swap2\n      sub\n      swap1\n      return\n        /* \"Practice/crowdFunding.sol\":723:1044  function addFunds() public payable {\r... */\n    tag_8:\n      tag_33\n      tag_34\n      jump\t// in\n    tag_33:\n      stop\n        /* \"Practice/crowdFunding.sol\":1394:1677  function withdraw() public payable {\r... */\n    tag_11:\n        /* \"Practice/crowdFunding.sol\":1464:1469  owner */\n      0x00\n      dup1\n      sload\n      swap1\n      0x0100\n      exp\n      swap1\n      div\n      0xffffffffffffffffffffffffffffffffffffffff\n      and\n        /* \"Practice/crowdFunding.sol\":1452:1469  msg.sender==owner */\n      0xffffffffffffffffffffffffffffffffffffffff\n      and\n        /* \"Practice/crowdFunding.sol\":1452:1462  msg.sender */\n      caller\n        /* \"Practice/crowdFunding.sol\":1452:1469  msg.sender==owner */\n      0xffffffffffffffffffffffffffffffffffffffff\n      and\n      eq\n        /* \"Practice/crowdFunding.sol\":1444:1486  require(msg.sender==owner,\"Access Denied\") */\n      tag_36\n      jumpi\n      mload(0x40)\n      0x08c379a000000000000000000000000000000000000000000000000000000000\n      dup2\n      mstore\n      0x04\n      add\n      tag_37\n      swap1\n      tag_38\n      jump\t// in\n    tag_37:\n      mload(0x40)\n      dup1\n      swap2\n      sub\n      swap1\n      revert\n    tag_36:\n        /* \"Practice/crowdFunding.sol\":1517:1527  totalFunds */\n      sload(0x02)\n        /* \"Practice/crowdFunding.sol\":1509:1513  goal */\n      sload(0x01)\n        /* \"Practice/crowdFunding.sol\":1509:1527  goal <= totalFunds */\n      gt\n      iszero\n        /* \"Practice/crowdFunding.sol\":1501:1547  require(goal <= totalFunds,\"Goal not reached\") */\n      tag_39\n      jumpi\n      mload(0x40)\n      0x08c379a000000000000000000000000000000000000000000000000000000000\n      dup2\n      mstore\n      0x04\n      add\n      tag_40\n      swap1\n      tag_41\n      jump\t// in\n    tag_40:\n      mload(0x40)\n      dup1\n      swap2\n      sub\n      swap1\n      revert\n    tag_39:\n        /* \"Practice/crowdFunding.sol\":1567:1604  withdraw_funds(address(this).balance) */\n      0x5d2c53a72c10924170e1ac3709c2b6b2ef35e928c1b722a2b43691f4a3cc1bac\n        /* \"Practice/crowdFunding.sol\":1582:1603  address(this).balance */\n      selfbalance\n        /* \"Practice/crowdFunding.sol\":1567:1604  withdraw_funds(address(this).balance) */\n      mload(0x40)\n      tag_42\n      swap2\n      swap1\n      tag_16\n      jump\t// in\n    tag_42:\n      mload(0x40)\n      dup1\n      swap2\n      sub\n      swap1\n      log1\n        /* \"Practice/crowdFunding.sol\":1627:1632  owner */\n      0x00\n      dup1\n      sload\n      swap1\n      0x0100\n      exp\n      swap1\n      div\n      0xffffffffffffffffffffffffffffffffffffffff\n      and\n        /* \"Practice/crowdFunding.sol\":1619:1642  payable(owner).transfer */\n      0xffffffffffffffffffffffffffffffffffffffff\n      and\n        /* \"Practice/crowdFunding.sol\":1619:1665  payable(owner).transfer(address(this).balance) */\n      0x08fc\n        /* \"Practice/crowdFunding.sol\":1643:1664  address(this).balance */\n      selfbalance\n        /* \"Practice/crowdFunding.sol\":1619:1665  payable(owner).transfer(address(this).balance) */\n      swap1\n      dup2\n      iszero\n      mul\n      swap1\n      mload(0x40)\n      0x00\n      mload(0x40)\n      dup1\n      dup4\n      sub\n      dup2\n      dup6\n      dup9\n      dup9\n      call\n      swap4\n      pop\n      pop\n      pop\n      pop\n      iszero\n      dup1\n      iszero\n      tag_44\n      jumpi\n      returndatasize\n      0x00\n      dup1\n      returndatacopy\n      revert(0x00, returndatasize)\n    tag_44:\n      pop\n        /* \"Practice/crowdFunding.sol\":1394:1677  function withdraw() public payable {\r... */\n      jump\t// out\n        /* \"Practice/crowdFunding.sol\":118:134  uint public goal */\n    tag_14:\n      sload(0x01)\n      dup2\n      jump\t// out\n        /* \"Practice/crowdFunding.sol\":604:650  mapping (address => uint) public contributions */\n    tag_21:\n      mstore(0x20, 0x04)\n      dup1\n      0x00\n      mstore\n      keccak256(0x00, 0x40)\n      0x00\n      swap2\n      pop\n      swap1\n      pop\n      sload\n      dup2\n      jump\t// out\n        /* \"Practice/crowdFunding.sol\":1689:2042  function refund() public payable{\r... */\n    tag_24:\n        /* \"Practice/crowdFunding.sol\":1755:1770  block.timestamp */\n      timestamp\n        /* \"Practice/crowdFunding.sol\":1744:1752  deadline */\n      sload(0x03)\n        /* \"Practice/crowdFunding.sol\":1744:1770  deadline < block.timestamp */\n      lt\n        /* \"Practice/crowdFunding.sol\":1736:1795  require(deadline < block.timestamp,\"Campaign still active\") */\n      tag_46\n      jumpi\n      mload(0x40)\n      0x08c379a000000000000000000000000000000000000000000000000000000000\n      dup2\n      mstore\n      0x04\n      add\n      tag_47\n      swap1\n      tag_48\n      jump\t// in\n    tag_47:\n      mload(0x40)\n      dup1\n      swap2\n      sub\n      swap1\n      revert\n    tag_46:\n        /* \"Practice/crowdFunding.sol\":1810:1821  uint amount */\n      0x00\n        /* \"Practice/crowdFunding.sol\":1824:1837  contributions */\n      0x04\n        /* \"Practice/crowdFunding.sol\":1824:1849  contributions[msg.sender] */\n      0x00\n        /* \"Practice/crowdFunding.sol\":1838:1848  msg.sender */\n      caller\n        /* \"Practice/crowdFunding.sol\":1824:1849  contributions[msg.sender] */\n      0xffffffffffffffffffffffffffffffffffffffff\n      and\n      0xffffffffffffffffffffffffffffffffffffffff\n      and\n      dup2\n      mstore\n      0x20\n      add\n      swap1\n      dup2\n      mstore\n      0x20\n      add\n      0x00\n      keccak256\n      sload\n        /* \"Practice/crowdFunding.sol\":1810:1849  uint amount = contributions[msg.sender] */\n      swap1\n      pop\n        /* \"Practice/crowdFunding.sol\":1890:1891  0 */\n      0x00\n        /* \"Practice/crowdFunding.sol\":1864:1877  contributions */\n      0x04\n        /* \"Practice/crowdFunding.sol\":1864:1889  contributions[msg.sender] */\n      0x00\n        /* \"Practice/crowdFunding.sol\":1878:1888  msg.sender */\n      caller\n        /* \"Practice/crowdFunding.sol\":1864:1889  contributions[msg.sender] */\n      0xffffffffffffffffffffffffffffffffffffffff\n      and\n      0xffffffffffffffffffffffffffffffffffffffff\n      and\n      dup2\n      mstore\n      0x20\n      add\n      swap1\n      dup2\n      mstore\n      0x20\n      add\n      0x00\n      keccak256\n        /* \"Practice/crowdFunding.sol\":1864:1891  contributions[msg.sender]=0 */\n      dup2\n      swap1\n      sstore\n      pop\n        /* \"Practice/crowdFunding.sol\":1914:1924  msg.sender */\n      caller\n        /* \"Practice/crowdFunding.sol\":1906:1934  payable(msg.sender).transfer */\n      0xffffffffffffffffffffffffffffffffffffffff\n      and\n        /* \"Practice/crowdFunding.sol\":1906:1942  payable(msg.sender).transfer(amount) */\n      0x08fc\n        /* \"Practice/crowdFunding.sol\":1935:1941  amount */\n      dup3\n        /* \"Practice/crowdFunding.sol\":1906:1942  payable(msg.sender).transfer(amount) */\n      swap1\n      dup2\n      iszero\n      mul\n      swap1\n      mload(0x40)\n      0x00\n      mload(0x40)\n      dup1\n      dup4\n      sub\n      dup2\n      dup6\n      dup9\n      dup9\n      call\n      swap4\n      pop\n      pop\n      pop\n      pop\n      iszero\n      dup1\n      iszero\n      tag_50\n      jumpi\n      returndatasize\n      0x00\n      dup1\n      returndatacopy\n      revert(0x00, returndatasize)\n    tag_50:\n      pop\n        /* \"Practice/crowdFunding.sol\":1971:1977  amount */\n      dup1\n        /* \"Practice/crowdFunding.sol\":1957:1967  totalFunds */\n      0x02\n      0x00\n        /* \"Practice/crowdFunding.sol\":1957:1977  totalFunds -= amount */\n      dup3\n      dup3\n      sload\n      tag_51\n      swap2\n      swap1\n      tag_52\n      jump\t// in\n    tag_51:\n      swap3\n      pop\n      pop\n      dup2\n      swap1\n      sstore\n      pop\n        /* \"Practice/crowdFunding.sol\":1999:2030  refund_funds(msg.sender,amount) */\n      0x325d1fdeb5914a66d4a1bdf5eebdf0a147362c26eae7e302232ff4c14dec52ce\n        /* \"Practice/crowdFunding.sol\":2012:2022  msg.sender */\n      caller\n        /* \"Practice/crowdFunding.sol\":2023:2029  amount */\n      dup3\n        /* \"Practice/crowdFunding.sol\":1999:2030  refund_funds(msg.sender,amount) */\n      mload(0x40)\n      tag_53\n      swap3\n      swap2\n      swap1\n      tag_54\n      jump\t// in\n    tag_53:\n      mload(0x40)\n      dup1\n      swap2\n      sub\n      swap1\n      log1\n        /* \"Practice/crowdFunding.sol\":1689:2042  function refund() public payable{\r... */\n      pop\n      jump\t// out\n        /* \"Practice/crowdFunding.sol\":1056:1381  function timeleft() public returns(uint){\r... */\n    tag_27:\n        /* \"Practice/crowdFunding.sol\":1091:1095  uint */\n      0x00\n        /* \"Practice/crowdFunding.sol\":1125:1140  block.timestamp */\n      timestamp\n        /* \"Practice/crowdFunding.sol\":1114:1122  deadline */\n      sload(0x03)\n        /* \"Practice/crowdFunding.sol\":1114:1140  deadline > block.timestamp */\n      gt\n        /* \"Practice/crowdFunding.sol\":1111:1356  if(deadline > block.timestamp){\r... */\n      iszero\n      tag_56\n      jumpi\n        /* \"Practice/crowdFunding.sol\":1165:1205  remaining_time(deadline-block.timestamp) */\n      0x3f328329dbe9901a2abb5f978aa8c3a9646a5e711e7fc378bdcfcd2d8faf83bf\n        /* \"Practice/crowdFunding.sol\":1189:1204  block.timestamp */\n      timestamp\n        /* \"Practice/crowdFunding.sol\":1180:1188  deadline */\n      sload(0x03)\n        /* \"Practice/crowdFunding.sol\":1180:1204  deadline-block.timestamp */\n      tag_57\n      swap2\n      swap1\n      tag_52\n      jump\t// in\n    tag_57:\n        /* \"Practice/crowdFunding.sol\":1165:1205  remaining_time(deadline-block.timestamp) */\n      mload(0x40)\n      tag_58\n      swap2\n      swap1\n      tag_16\n      jump\t// in\n    tag_58:\n      mload(0x40)\n      dup1\n      swap2\n      sub\n      swap1\n      log1\n        /* \"Practice/crowdFunding.sol\":1240:1255  block.timestamp */\n      timestamp\n        /* \"Practice/crowdFunding.sol\":1231:1239  deadline */\n      sload(0x03)\n        /* \"Practice/crowdFunding.sol\":1231:1255  deadline-block.timestamp */\n      tag_59\n      swap2\n      swap1\n      tag_52\n      jump\t// in\n    tag_59:\n        /* \"Practice/crowdFunding.sol\":1223:1256  return (deadline-block.timestamp) */\n      swap1\n      pop\n      jump(tag_55)\n        /* \"Practice/crowdFunding.sol\":1111:1356  if(deadline > block.timestamp){\r... */\n    tag_56:\n        /* \"Practice/crowdFunding.sol\":1300:1317  remaining_time(0) */\n      0x3f328329dbe9901a2abb5f978aa8c3a9646a5e711e7fc378bdcfcd2d8faf83bf\n        /* \"Practice/crowdFunding.sol\":1315:1316  0 */\n      0x00\n        /* \"Practice/crowdFunding.sol\":1300:1317  remaining_time(0) */\n      mload(0x40)\n      tag_61\n      swap2\n      swap1\n      tag_62\n      jump\t// in\n    tag_61:\n      mload(0x40)\n      dup1\n      swap2\n      sub\n      swap1\n      log1\n        /* \"Practice/crowdFunding.sol\":1339:1340  0 */\n      0x00\n        /* \"Practice/crowdFunding.sol\":1332:1340  return 0 */\n      swap1\n      pop\n        /* \"Practice/crowdFunding.sol\":1056:1381  function timeleft() public returns(uint){\r... */\n    tag_55:\n      swap1\n      jump\t// out\n        /* \"Practice/crowdFunding.sol\":145:167  uint public totalFunds */\n    tag_31:\n      sload(0x02)\n      dup2\n      jump\t// out\n        /* \"Practice/crowdFunding.sol\":723:1044  function addFunds() public payable {\r... */\n    tag_34:\n        /* \"Practice/crowdFunding.sol\":795:799  goal */\n      sload(0x01)\n        /* \"Practice/crowdFunding.sol\":781:791  totalFunds */\n      sload(0x02)\n        /* \"Practice/crowdFunding.sol\":781:799  totalFunds <= goal */\n      gt\n      iszero\n        /* \"Practice/crowdFunding.sol\":773:815  require(totalFunds <= goal,\"Goal Reached\") */\n      tag_64\n      jumpi\n      mload(0x40)\n      0x08c379a000000000000000000000000000000000000000000000000000000000\n      dup2\n      mstore\n      0x04\n      add\n      tag_65\n      swap1\n      tag_66\n      jump\t// in\n    tag_65:\n      mload(0x40)\n      dup1\n      swap2\n      sub\n      swap1\n      revert\n    tag_64:\n        /* \"Practice/crowdFunding.sol\":850:865  block.timestamp */\n      timestamp\n        /* \"Practice/crowdFunding.sol\":838:846  deadline */\n      sload(0x03)\n        /* \"Practice/crowdFunding.sol\":838:865  deadline >= block.timestamp */\n      lt\n      iszero\n        /* \"Practice/crowdFunding.sol\":830:885  require(deadline >= block.timestamp,\"Campaign is over\") */\n      tag_67\n      jumpi\n      mload(0x40)\n      0x08c379a000000000000000000000000000000000000000000000000000000000\n      dup2\n      mstore\n      0x04\n      add\n      tag_68\n      swap1\n      tag_69\n      jump\t// in\n    tag_68:\n      mload(0x40)\n      dup1\n      swap2\n      sub\n      swap1\n      revert\n    tag_67:\n        /* \"Practice/crowdFunding.sol\":929:938  msg.value */\n      callvalue\n        /* \"Practice/crowdFunding.sol\":900:913  contributions */\n      0x04\n        /* \"Practice/crowdFunding.sol\":900:925  contributions[msg.sender] */\n      0x00\n        /* \"Practice/crowdFunding.sol\":914:924  msg.sender */\n      caller\n        /* \"Practice/crowdFunding.sol\":900:925  contributions[msg.sender] */\n      0xffffffffffffffffffffffffffffffffffffffff\n      and\n      0xffffffffffffffffffffffffffffffffffffffff\n      and\n      dup2\n      mstore\n      0x20\n      add\n      swap1\n      dup2\n      mstore\n      0x20\n      add\n      0x00\n      keccak256\n      0x00\n        /* \"Practice/crowdFunding.sol\":900:938  contributions[msg.sender] += msg.value */\n      dup3\n      dup3\n      sload\n      tag_70\n      swap2\n      swap1\n      tag_71\n      jump\t// in\n    tag_70:\n      swap3\n      pop\n      pop\n      dup2\n      swap1\n      sstore\n      pop\n        /* \"Practice/crowdFunding.sol\":967:976  msg.value */\n      callvalue\n        /* \"Practice/crowdFunding.sol\":953:963  totalFunds */\n      0x02\n      0x00\n        /* \"Practice/crowdFunding.sol\":953:976  totalFunds += msg.value */\n      dup3\n      dup3\n      sload\n      tag_72\n      swap2\n      swap1\n      tag_71\n      jump\t// in\n    tag_72:\n      swap3\n      pop\n      pop\n      dup2\n      swap1\n      sstore\n      pop\n        /* \"Practice/crowdFunding.sol\":1010:1020  msg.sender */\n      caller\n        /* \"Practice/crowdFunding.sol\":998:1032  addingFunds(msg.sender, msg.value) */\n      0xffffffffffffffffffffffffffffffffffffffff\n      and\n      0x74da0170b67ce89213b0cd234d30d303d1dd4b6dd04fe05c3fa4a28b597aec3a\n        /* \"Practice/crowdFunding.sol\":1022:1031  msg.value */\n      callvalue\n        /* \"Practice/crowdFunding.sol\":998:1032  addingFunds(msg.sender, msg.value) */\n      mload(0x40)\n      tag_73\n      swap2\n      swap1\n      tag_16\n      jump\t// in\n    tag_73:\n      mload(0x40)\n      dup1\n      swap2\n      sub\n      swap1\n      log2\n        /* \"Practice/crowdFunding.sol\":723:1044  function addFunds() public payable {\r... */\n      jump\t// out\n        /* \"#utility.yul\":7:146   */\n    tag_75:\n      0x00\n        /* \"#utility.yul\":91:97   */\n      dup2\n        /* \"#utility.yul\":78:98   */\n      calldataload\n        /* \"#utility.yul\":69:98   */\n      swap1\n      pop\n        /* \"#utility.yul\":107:140   */\n      tag_77\n        /* \"#utility.yul\":134:139   */\n      dup2\n        /* \"#utility.yul\":107:140   */\n      tag_78\n      jump\t// in\n    tag_77:\n        /* \"#utility.yul\":59:146   */\n      swap3\n      swap2\n      pop\n      pop\n      jump\t// out\n        /* \"#utility.yul\":152:414   */\n    tag_20:\n      0x00\n        /* \"#utility.yul\":260:262   */\n      0x20\n        /* \"#utility.yul\":248:257   */\n      dup3\n        /* \"#utility.yul\":239:246   */\n      dup5\n        /* \"#utility.yul\":235:258   */\n      sub\n        /* \"#utility.yul\":231:263   */\n      slt\n        /* \"#utility.yul\":228:230   */\n      iszero\n      tag_80\n      jumpi\n        /* \"#utility.yul\":276:277   */\n      0x00\n        /* \"#utility.yul\":273:274   */\n      dup1\n        /* \"#utility.yul\":266:278   */\n      revert\n        /* \"#utility.yul\":228:230   */\n    tag_80:\n        /* \"#utility.yul\":319:320   */\n      0x00\n        /* \"#utility.yul\":344:397   */\n      tag_81\n        /* \"#utility.yul\":389:396   */\n      dup5\n        /* \"#utility.yul\":380:386   */\n      dup3\n        /* \"#utility.yul\":369:378   */\n      dup6\n        /* \"#utility.yul\":365:387   */\n      add\n        /* \"#utility.yul\":344:397   */\n      tag_75\n      jump\t// in\n    tag_81:\n        /* \"#utility.yul\":334:397   */\n      swap2\n      pop\n        /* \"#utility.yul\":290:407   */\n      pop\n        /* \"#utility.yul\":218:414   */\n      swap3\n      swap2\n      pop\n      pop\n      jump\t// out\n        /* \"#utility.yul\":420:538   */\n    tag_82:\n        /* \"#utility.yul\":507:531   */\n      tag_84\n        /* \"#utility.yul\":525:530   */\n      dup2\n        /* \"#utility.yul\":507:531   */\n      tag_85\n      jump\t// in\n    tag_84:\n        /* \"#utility.yul\":502:505   */\n      dup3\n        /* \"#utility.yul\":495:532   */\n      mstore\n        /* \"#utility.yul\":485:538   */\n      pop\n      pop\n      jump\t// out\n        /* \"#utility.yul\":544:691   */\n    tag_86:\n        /* \"#utility.yul\":639:684   */\n      tag_88\n        /* \"#utility.yul\":678:683   */\n      dup2\n        /* \"#utility.yul\":639:684   */\n      tag_89\n      jump\t// in\n    tag_88:\n        /* \"#utility.yul\":634:637   */\n      dup3\n        /* \"#utility.yul\":627:685   */\n      mstore\n        /* \"#utility.yul\":617:691   */\n      pop\n      pop\n      jump\t// out\n        /* \"#utility.yul\":697:1007   */\n    tag_90:\n      0x00\n        /* \"#utility.yul\":860:927   */\n      tag_92\n        /* \"#utility.yul\":924:926   */\n      0x0c\n        /* \"#utility.yul\":919:922   */\n      dup4\n        /* \"#utility.yul\":860:927   */\n      tag_93\n      jump\t// in\n    tag_92:\n        /* \"#utility.yul\":853:927   */\n      swap2\n      pop\n        /* \"#utility.yul\":957:971   */\n      0x476f616c20526561636865640000000000000000000000000000000000000000\n        /* \"#utility.yul\":953:954   */\n      0x00\n        /* \"#utility.yul\":948:951   */\n      dup4\n        /* \"#utility.yul\":944:955   */\n      add\n        /* \"#utility.yul\":937:972   */\n      mstore\n        /* \"#utility.yul\":998:1000   */\n      0x20\n        /* \"#utility.yul\":993:996   */\n      dup3\n        /* \"#utility.yul\":989:1001   */\n      add\n        /* \"#utility.yul\":982:1001   */\n      swap1\n      pop\n        /* \"#utility.yul\":843:1007   */\n      swap2\n      swap1\n      pop\n      jump\t// out\n        /* \"#utility.yul\":1013:1327   */\n    tag_94:\n      0x00\n        /* \"#utility.yul\":1176:1243   */\n      tag_96\n        /* \"#utility.yul\":1240:1242   */\n      0x10\n        /* \"#utility.yul\":1235:1238   */\n      dup4\n        /* \"#utility.yul\":1176:1243   */\n      tag_93\n      jump\t// in\n    tag_96:\n        /* \"#utility.yul\":1169:1243   */\n      swap2\n      pop\n        /* \"#utility.yul\":1273:1291   */\n      0x43616d706169676e206973206f76657200000000000000000000000000000000\n        /* \"#utility.yul\":1269:1270   */\n      0x00\n        /* \"#utility.yul\":1264:1267   */\n      dup4\n        /* \"#utility.yul\":1260:1271   */\n      add\n        /* \"#utility.yul\":1253:1292   */\n      mstore\n        /* \"#utility.yul\":1318:1320   */\n      0x20\n        /* \"#utility.yul\":1313:1316   */\n      dup3\n        /* \"#utility.yul\":1309:1321   */\n      add\n        /* \"#utility.yul\":1302:1321   */\n      swap1\n      pop\n        /* \"#utility.yul\":1159:1327   */\n      swap2\n      swap1\n      pop\n      jump\t// out\n        /* \"#utility.yul\":1333:1644   */\n    tag_97:\n      0x00\n        /* \"#utility.yul\":1496:1563   */\n      tag_99\n        /* \"#utility.yul\":1560:1562   */\n      0x0d\n        /* \"#utility.yul\":1555:1558   */\n      dup4\n        /* \"#utility.yul\":1496:1563   */\n      tag_93\n      jump\t// in\n    tag_99:\n        /* \"#utility.yul\":1489:1563   */\n      swap2\n      pop\n        /* \"#utility.yul\":1593:1608   */\n      0x4163636573732044656e69656400000000000000000000000000000000000000\n        /* \"#utility.yul\":1589:1590   */\n      0x00\n        /* \"#utility.yul\":1584:1587   */\n      dup4\n        /* \"#utility.yul\":1580:1591   */\n      add\n        /* \"#utility.yul\":1573:1609   */\n      mstore\n        /* \"#utility.yul\":1635:1637   */\n      0x20\n        /* \"#utility.yul\":1630:1633   */\n      dup3\n        /* \"#utility.yul\":1626:1638   */\n      add\n        /* \"#utility.yul\":1619:1638   */\n      swap1\n      pop\n        /* \"#utility.yul\":1479:1644   */\n      swap2\n      swap1\n      pop\n      jump\t// out\n        /* \"#utility.yul\":1650:1969   */\n    tag_100:\n      0x00\n        /* \"#utility.yul\":1813:1880   */\n      tag_102\n        /* \"#utility.yul\":1877:1879   */\n      0x15\n        /* \"#utility.yul\":1872:1875   */\n      dup4\n        /* \"#utility.yul\":1813:1880   */\n      tag_93\n      jump\t// in\n    tag_102:\n        /* \"#utility.yul\":1806:1880   */\n      swap2\n      pop\n        /* \"#utility.yul\":1910:1933   */\n      0x43616d706169676e207374696c6c206163746976650000000000000000000000\n        /* \"#utility.yul\":1906:1907   */\n      0x00\n        /* \"#utility.yul\":1901:1904   */\n      dup4\n        /* \"#utility.yul\":1897:1908   */\n      add\n        /* \"#utility.yul\":1890:1934   */\n      mstore\n        /* \"#utility.yul\":1960:1962   */\n      0x20\n        /* \"#utility.yul\":1955:1958   */\n      dup3\n        /* \"#utility.yul\":1951:1963   */\n      add\n        /* \"#utility.yul\":1944:1963   */\n      swap1\n      pop\n        /* \"#utility.yul\":1796:1969   */\n      swap2\n      swap1\n      pop\n      jump\t// out\n        /* \"#utility.yul\":1975:2289   */\n    tag_103:\n      0x00\n        /* \"#utility.yul\":2138:2205   */\n      tag_105\n        /* \"#utility.yul\":2202:2204   */\n      0x10\n        /* \"#utility.yul\":2197:2200   */\n      dup4\n        /* \"#utility.yul\":2138:2205   */\n      tag_93\n      jump\t// in\n    tag_105:\n        /* \"#utility.yul\":2131:2205   */\n      swap2\n      pop\n        /* \"#utility.yul\":2235:2253   */\n      0x476f616c206e6f74207265616368656400000000000000000000000000000000\n        /* \"#utility.yul\":2231:2232   */\n      0x00\n        /* \"#utility.yul\":2226:2229   */\n      dup4\n        /* \"#utility.yul\":2222:2233   */\n      add\n        /* \"#utility.yul\":2215:2254   */\n      mstore\n        /* \"#utility.yul\":2280:2282   */\n      0x20\n        /* \"#utility.yul\":2275:2278   */\n      dup3\n        /* \"#utility.yul\":2271:2283   */\n      add\n        /* \"#utility.yul\":2264:2283   */\n      swap1\n      pop\n        /* \"#utility.yul\":2121:2289   */\n      swap2\n      swap1\n      pop\n      jump\t// out\n        /* \"#utility.yul\":2295:2413   */\n    tag_106:\n        /* \"#utility.yul\":2382:2406   */\n      tag_108\n        /* \"#utility.yul\":2400:2405   */\n      dup2\n        /* \"#utility.yul\":2382:2406   */\n      tag_109\n      jump\t// in\n    tag_108:\n        /* \"#utility.yul\":2377:2380   */\n      dup3\n        /* \"#utility.yul\":2370:2407   */\n      mstore\n        /* \"#utility.yul\":2360:2413   */\n      pop\n      pop\n      jump\t// out\n        /* \"#utility.yul\":2419:2751   */\n    tag_54:\n      0x00\n        /* \"#utility.yul\":2578:2580   */\n      0x40\n        /* \"#utility.yul\":2567:2576   */\n      dup3\n        /* \"#utility.yul\":2563:2581   */\n      add\n        /* \"#utility.yul\":2555:2581   */\n      swap1\n      pop\n        /* \"#utility.yul\":2591:2662   */\n      tag_111\n        /* \"#utility.yul\":2659:2660   */\n      0x00\n        /* \"#utility.yul\":2648:2657   */\n      dup4\n        /* \"#utility.yul\":2644:2661   */\n      add\n        /* \"#utility.yul\":2635:2641   */\n      dup6\n        /* \"#utility.yul\":2591:2662   */\n      tag_82\n      jump\t// in\n    tag_111:\n        /* \"#utility.yul\":2672:2744   */\n      tag_112\n        /* \"#utility.yul\":2740:2742   */\n      0x20\n        /* \"#utility.yul\":2729:2738   */\n      dup4\n        /* \"#utility.yul\":2725:2743   */\n      add\n        /* \"#utility.yul\":2716:2722   */\n      dup5\n        /* \"#utility.yul\":2672:2744   */\n      tag_106\n      jump\t// in\n    tag_112:\n        /* \"#utility.yul\":2545:2751   */\n      swap4\n      swap3\n      pop\n      pop\n      pop\n      jump\t// out\n        /* \"#utility.yul\":2757:2995   */\n    tag_62:\n      0x00\n        /* \"#utility.yul\":2896:2898   */\n      0x20\n        /* \"#utility.yul\":2885:2894   */\n      dup3\n        /* \"#utility.yul\":2881:2899   */\n      add\n        /* \"#utility.yul\":2873:2899   */\n      swap1\n      pop\n        /* \"#utility.yul\":2909:2988   */\n      tag_114\n        /* \"#utility.yul\":2985:2986   */\n      0x00\n        /* \"#utility.yul\":2974:2983   */\n      dup4\n        /* \"#utility.yul\":2970:2987   */\n      add\n        /* \"#utility.yul\":2961:2967   */\n      dup5\n        /* \"#utility.yul\":2909:2988   */\n      tag_86\n      jump\t// in\n    tag_114:\n        /* \"#utility.yul\":2863:2995   */\n      swap3\n      swap2\n      pop\n      pop\n      jump\t// out\n        /* \"#utility.yul\":3001:3420   */\n    tag_66:\n      0x00\n        /* \"#utility.yul\":3205:3207   */\n      0x20\n        /* \"#utility.yul\":3194:3203   */\n      dup3\n        /* \"#utility.yul\":3190:3208   */\n      add\n        /* \"#utility.yul\":3182:3208   */\n      swap1\n      pop\n        /* \"#utility.yul\":3254:3263   */\n      dup2\n        /* \"#utility.yul\":3248:3252   */\n      dup2\n        /* \"#utility.yul\":3244:3264   */\n      sub\n        /* \"#utility.yul\":3240:3241   */\n      0x00\n        /* \"#utility.yul\":3229:3238   */\n      dup4\n        /* \"#utility.yul\":3225:3242   */\n      add\n        /* \"#utility.yul\":3218:3265   */\n      mstore\n        /* \"#utility.yul\":3282:3413   */\n      tag_116\n        /* \"#utility.yul\":3408:3412   */\n      dup2\n        /* \"#utility.yul\":3282:3413   */\n      tag_90\n      jump\t// in\n    tag_116:\n        /* \"#utility.yul\":3274:3413   */\n      swap1\n      pop\n        /* \"#utility.yul\":3172:3420   */\n      swap2\n      swap1\n      pop\n      jump\t// out\n        /* \"#utility.yul\":3426:3845   */\n    tag_69:\n      0x00\n        /* \"#utility.yul\":3630:3632   */\n      0x20\n        /* \"#utility.yul\":3619:3628   */\n      dup3\n        /* \"#utility.yul\":3615:3633   */\n      add\n        /* \"#utility.yul\":3607:3633   */\n      swap1\n      pop\n        /* \"#utility.yul\":3679:3688   */\n      dup2\n        /* \"#utility.yul\":3673:3677   */\n      dup2\n        /* \"#utility.yul\":3669:3689   */\n      sub\n        /* \"#utility.yul\":3665:3666   */\n      0x00\n        /* \"#utility.yul\":3654:3663   */\n      dup4\n        /* \"#utility.yul\":3650:3667   */\n      add\n        /* \"#utility.yul\":3643:3690   */\n      mstore\n        /* \"#utility.yul\":3707:3838   */\n      tag_118\n        /* \"#utility.yul\":3833:3837   */\n      dup2\n        /* \"#utility.yul\":3707:3838   */\n      tag_94\n      jump\t// in\n    tag_118:\n        /* \"#utility.yul\":3699:3838   */\n      swap1\n      pop\n        /* \"#utility.yul\":3597:3845   */\n      swap2\n      swap1\n      pop\n      jump\t// out\n        /* \"#utility.yul\":3851:4270   */\n    tag_38:\n      0x00\n        /* \"#utility.yul\":4055:4057   */\n      0x20\n        /* \"#utility.yul\":4044:4053   */\n      dup3\n        /* \"#utility.yul\":4040:4058   */\n      add\n        /* \"#utility.yul\":4032:4058   */\n      swap1\n      pop\n        /* \"#utility.yul\":4104:4113   */\n      dup2\n        /* \"#utility.yul\":4098:4102   */\n      dup2\n        /* \"#utility.yul\":4094:4114   */\n      sub\n        /* \"#utility.yul\":4090:4091   */\n      0x00\n        /* \"#utility.yul\":4079:4088   */\n      dup4\n        /* \"#utility.yul\":4075:4092   */\n      add\n        /* \"#utility.yul\":4068:4115   */\n      mstore\n        /* \"#utility.yul\":4132:4263   */\n      tag_120\n        /* \"#utility.yul\":4258:4262   */\n      dup2\n        /* \"#utility.yul\":4132:4263   */\n      tag_97\n      jump\t// in\n    tag_120:\n        /* \"#utility.yul\":4124:4263   */\n      swap1\n      pop\n        /* \"#utility.yul\":4022:4270   */\n      swap2\n      swap1\n      pop\n      jump\t// out\n        /* \"#utility.yul\":4276:4695   */\n    tag_48:\n      0x00\n        /* \"#utility.yul\":4480:4482   */\n      0x20\n        /* \"#utility.yul\":4469:4478   */\n      dup3\n        /* \"#utility.yul\":4465:4483   */\n      add\n        /* \"#utility.yul\":4457:4483   */\n      swap1\n      pop\n        /* \"#utility.yul\":4529:4538   */\n      dup2\n        /* \"#utility.yul\":4523:4527   */\n      dup2\n        /* \"#utility.yul\":4519:4539   */\n      sub\n        /* \"#utility.yul\":4515:4516   */\n      0x00\n        /* \"#utility.yul\":4504:4513   */\n      dup4\n        /* \"#utility.yul\":4500:4517   */\n      add\n        /* \"#utility.yul\":4493:4540   */\n      mstore\n        /* \"#utility.yul\":4557:4688   */\n      tag_122\n        /* \"#utility.yul\":4683:4687   */\n      dup2\n        /* \"#utility.yul\":4557:4688   */\n      tag_100\n      jump\t// in\n    tag_122:\n        /* \"#utility.yul\":4549:4688   */\n      swap1\n      pop\n        /* \"#utility.yul\":4447:4695   */\n      swap2\n      swap1\n      pop\n      jump\t// out\n        /* \"#utility.yul\":4701:5120   */\n    tag_41:\n      0x00\n        /* \"#utility.yul\":4905:4907   */\n      0x20\n        /* \"#utility.yul\":4894:4903   */\n      dup3\n        /* \"#utility.yul\":4890:4908   */\n      add\n        /* \"#utility.yul\":4882:4908   */\n      swap1\n      pop\n        /* \"#utility.yul\":4954:4963   */\n      dup2\n        /* \"#utility.yul\":4948:4952   */\n      dup2\n        /* \"#utility.yul\":4944:4964   */\n      sub\n        /* \"#utility.yul\":4940:4941   */\n      0x00\n        /* \"#utility.yul\":4929:4938   */\n      dup4\n        /* \"#utility.yul\":4925:4942   */\n      add\n        /* \"#utility.yul\":4918:4965   */\n      mstore\n        /* \"#utility.yul\":4982:5113   */\n      tag_124\n        /* \"#utility.yul\":5108:5112   */\n      dup2\n        /* \"#utility.yul\":4982:5113   */\n      tag_103\n      jump\t// in\n    tag_124:\n        /* \"#utility.yul\":4974:5113   */\n      swap1\n      pop\n        /* \"#utility.yul\":4872:5120   */\n      swap2\n      swap1\n      pop\n      jump\t// out\n        /* \"#utility.yul\":5126:5348   */\n    tag_16:\n      0x00\n        /* \"#utility.yul\":5257:5259   */\n      0x20\n        /* \"#utility.yul\":5246:5255   */\n      dup3\n        /* \"#utility.yul\":5242:5260   */\n      add\n        /* \"#utility.yul\":5234:5260   */\n      swap1\n      pop\n        /* \"#utility.yul\":5270:5341   */\n      tag_126\n        /* \"#utility.yul\":5338:5339   */\n      0x00\n        /* \"#utility.yul\":5327:5336   */\n      dup4\n        /* \"#utility.yul\":5323:5340   */\n      add\n        /* \"#utility.yul\":5314:5320   */\n      dup5\n        /* \"#utility.yul\":5270:5341   */\n      tag_106\n      jump\t// in\n    tag_126:\n        /* \"#utility.yul\":5224:5348   */\n      swap3\n      swap2\n      pop\n      pop\n      jump\t// out\n        /* \"#utility.yul\":5354:5523   */\n    tag_93:\n      0x00\n        /* \"#utility.yul\":5472:5478   */\n      dup3\n        /* \"#utility.yul\":5467:5470   */\n      dup3\n        /* \"#utility.yul\":5460:5479   */\n      mstore\n        /* \"#utility.yul\":5512:5516   */\n      0x20\n        /* \"#utility.yul\":5507:5510   */\n      dup3\n        /* \"#utility.yul\":5503:5517   */\n      add\n        /* \"#utility.yul\":5488:5517   */\n      swap1\n      pop\n        /* \"#utility.yul\":5450:5523   */\n      swap3\n      swap2\n      pop\n      pop\n      jump\t// out\n        /* \"#utility.yul\":5529:5834   */\n    tag_71:\n      0x00\n        /* \"#utility.yul\":5588:5608   */\n      tag_129\n        /* \"#utility.yul\":5606:5607   */\n      dup3\n        /* \"#utility.yul\":5588:5608   */\n      tag_109\n      jump\t// in\n    tag_129:\n        /* \"#utility.yul\":5583:5608   */\n      swap2\n      pop\n        /* \"#utility.yul\":5622:5642   */\n      tag_130\n        /* \"#utility.yul\":5640:5641   */\n      dup4\n        /* \"#utility.yul\":5622:5642   */\n      tag_109\n      jump\t// in\n    tag_130:\n        /* \"#utility.yul\":5617:5642   */\n      swap3\n      pop\n        /* \"#utility.yul\":5776:5777   */\n      dup3\n        /* \"#utility.yul\":5708:5774   */\n      0xffffffffffffffffffffffffffffffffffffffffffffffffffffffffffffffff\n        /* \"#utility.yul\":5704:5778   */\n      sub\n        /* \"#utility.yul\":5701:5702   */\n      dup3\n        /* \"#utility.yul\":5698:5779   */\n      gt\n        /* \"#utility.yul\":5695:5697   */\n      iszero\n      tag_131\n      jumpi\n        /* \"#utility.yul\":5782:5800   */\n      tag_132\n      tag_133\n      jump\t// in\n    tag_132:\n        /* \"#utility.yul\":5695:5697   */\n    tag_131:\n        /* \"#utility.yul\":5826:5827   */\n      dup3\n        /* \"#utility.yul\":5823:5824   */\n      dup3\n        /* \"#utility.yul\":5819:5828   */\n      add\n        /* \"#utility.yul\":5812:5828   */\n      swap1\n      pop\n        /* \"#utility.yul\":5573:5834   */\n      swap3\n      swap2\n      pop\n      pop\n      jump\t// out\n        /* \"#utility.yul\":5840:6031   */\n    tag_52:\n      0x00\n        /* \"#utility.yul\":5900:5920   */\n      tag_135\n        /* \"#utility.yul\":5918:5919   */\n      dup3\n        /* \"#utility.yul\":5900:5920   */\n      tag_109\n      jump\t// in\n    tag_135:\n        /* \"#utility.yul\":5895:5920   */\n      swap2\n      pop\n        /* \"#utility.yul\":5934:5954   */\n      tag_136\n        /* \"#utility.yul\":5952:5953   */\n      dup4\n        /* \"#utility.yul\":5934:5954   */\n      tag_109\n      jump\t// in\n    tag_136:\n        /* \"#utility.yul\":5929:5954   */\n      swap3\n      pop\n        /* \"#utility.yul\":5973:5974   */\n      dup3\n        /* \"#utility.yul\":5970:5971   */\n      dup3\n        /* \"#utility.yul\":5967:5975   */\n      lt\n        /* \"#utility.yul\":5964:5966   */\n      iszero\n      tag_137\n      jumpi\n        /* \"#utility.yul\":5978:5996   */\n      tag_138\n      tag_133\n      jump\t// in\n    tag_138:\n        /* \"#utility.yul\":5964:5966   */\n    tag_137:\n        /* \"#utility.yul\":6023:6024   */\n      dup3\n        /* \"#utility.yul\":6020:6021   */\n      dup3\n        /* \"#utility.yul\":6016:6025   */\n      sub\n        /* \"#utility.yul\":6008:6025   */\n      swap1\n      pop\n        /* \"#utility.yul\":5885:6031   */\n      swap3\n      swap2\n      pop\n      pop\n      jump\t// out\n        /* \"#utility.yul\":6037:6133   */\n    tag_85:\n      0x00\n        /* \"#utility.yul\":6103:6127   */\n      tag_140\n        /* \"#utility.yul\":6121:6126   */\n      dup3\n        /* \"#utility.yul\":6103:6127   */\n      tag_141\n      jump\t// in\n    tag_140:\n        /* \"#utility.yul\":6092:6127   */\n      swap1\n      pop\n        /* \"#utility.yul\":6082:6133   */\n      swap2\n      swap1\n      pop\n      jump\t// out\n        /* \"#utility.yul\":6139:6265   */\n    tag_141:\n      0x00\n        /* \"#utility.yul\":6216:6258   */\n      0xffffffffffffffffffffffffffffffffffffffff\n        /* \"#utility.yul\":6209:6214   */\n      dup3\n        /* \"#utility.yul\":6205:6259   */\n      and\n        /* \"#utility.yul\":6194:6259   */\n      swap1\n      pop\n        /* \"#utility.yul\":6184:6265   */\n      swap2\n      swap1\n      pop\n      jump\t// out\n        /* \"#utility.yul\":6271:6348   */\n    tag_109:\n      0x00\n        /* \"#utility.yul\":6337:6342   */\n      dup2\n        /* \"#utility.yul\":6326:6342   */\n      swap1\n      pop\n        /* \"#utility.yul\":6316:6348   */\n      swap2\n      swap1\n      pop\n      jump\t// out\n        /* \"#utility.yul\":6354:6475   */\n    tag_89:\n      0x00\n        /* \"#utility.yul\":6445:6469   */\n      tag_145\n        /* \"#utility.yul\":6463:6468   */\n      dup3\n        /* \"#utility.yul\":6445:6469   */\n      tag_109\n      jump\t// in\n    tag_145:\n        /* \"#utility.yul\":6432:6469   */\n      swap1\n      pop\n        /* \"#utility.yul\":6422:6475   */\n      swap2\n      swap1\n      pop\n      jump\t// out\n        /* \"#utility.yul\":6481:6661   */\n    tag_133:\n        /* \"#utility.yul\":6529:6606   */\n      0x4e487b7100000000000000000000000000000000000000000000000000000000\n        /* \"#utility.yul\":6526:6527   */\n      0x00\n        /* \"#utility.yul\":6519:6607   */\n      mstore\n        /* \"#utility.yul\":6626:6630   */\n      0x11\n        /* \"#utility.yul\":6623:6624   */\n      0x04\n        /* \"#utility.yul\":6616:6631   */\n      mstore\n        /* \"#utility.yul\":6650:6654   */\n      0x24\n        /* \"#utility.yul\":6647:6648   */\n      0x00\n        /* \"#utility.yul\":6640:6655   */\n      revert\n        /* \"#utility.yul\":6667:6789   */\n    tag_78:\n        /* \"#utility.yul\":6740:6764   */\n      tag_148\n        /* \"#utility.yul\":6758:6763   */\n      dup2\n        /* \"#utility.yul\":6740:6764   */\n      tag_85\n      jump\t// in\n    tag_148:\n        /* \"#utility.yul\":6733:6738   */\n      dup2\n        /* \"#utility.yul\":6730:6765   */\n      eq\n        /* \"#utility.yul\":6720:6722   */\n      tag_149\n      jumpi\n        /* \"#utility.yul\":6779:6780   */\n      0x00\n        /* \"#utility.yul\":6776:6777   */\n      dup1\n        /* \"#utility.yul\":6769:6781   */\n      revert\n        /* \"#utility.yul\":6720:6722   */\n    tag_149:\n        /* \"#utility.yul\":6710:6789   */\n      pop\n      jump\t// out\n\n    auxdata: 0xa2646970667358221220427f9149bd0dcd2a032a3ce5d4327875abd6b0e92baea30e74e6872faf8a350f64736f6c63430008000033\n}\n",
				"bytecode": {
					"linkReferences": {},
					"object": "60806040523480156200001157600080fd5b5060405162000c7338038062000c738339818101604052810190620000379190620000bf565b336000806101000a81548173ffffffffffffffffffffffffffffffffffffffff021916908373ffffffffffffffffffffffffffffffffffffffff16021790555081600181905550603c816200008d91906200015d565b426200009a919062000100565b600381905550505062000211565b600081519050620000b981620001f7565b92915050565b60008060408385031215620000d357600080fd5b6000620000e385828601620000a8565b9250506020620000f685828601620000a8565b9150509250929050565b60006200010d82620001be565b91506200011a83620001be565b9250827fffffffffffffffffffffffffffffffffffffffffffffffffffffffffffffffff03821115620001525762000151620001c8565b5b828201905092915050565b60006200016a82620001be565b91506200017783620001be565b9250817fffffffffffffffffffffffffffffffffffffffffffffffffffffffffffffffff0483118215151615620001b357620001b2620001c8565b5b828202905092915050565b6000819050919050565b7f4e487b7100000000000000000000000000000000000000000000000000000000600052601160045260246000fd5b6200020281620001be565b81146200020e57600080fd5b50565b610a5280620002216000396000f3fe6080604052600436106100705760003560e01c8063590e1ae31161004e578063590e1ae3146100e757806368c74b53146100f1578063968ed6001461011c578063a26759cb1461014757610070565b80633ccfd60b14610075578063401938831461007f57806342e94c90146100aa575b600080fd5b61007d610151565b005b34801561008b57600080fd5b506100946102c6565b6040516100a191906108d2565b60405180910390f35b3480156100b657600080fd5b506100d160048036038101906100cc9190610658565b6102cc565b6040516100de91906108d2565b60405180910390f35b6100ef6102e4565b005b3480156100fd57600080fd5b5061010661044d565b60405161011391906108d2565b60405180910390f35b34801561012857600080fd5b506101316104f2565b60405161013e91906108d2565b60405180910390f35b61014f6104f8565b005b60008054906101000a900473ffffffffffffffffffffffffffffffffffffffff1673ffffffffffffffffffffffffffffffffffffffff163373ffffffffffffffffffffffffffffffffffffffff16146101df576040517f08c379a00000000000000000000000000000000000000000000000000000000081526004016101d690610872565b60405180910390fd5b6002546001541115610226576040517f08c379a000000000000000000000000000000000000000000000000000000000815260040161021d906108b2565b60405180910390fd5b7f5d2c53a72c10924170e1ac3709c2b6b2ef35e928c1b722a2b43691f4a3cc1bac4760405161025591906108d2565b60405180910390a160008054906101000a900473ffffffffffffffffffffffffffffffffffffffff1673ffffffffffffffffffffffffffffffffffffffff166108fc479081150290604051600060405180830381858888f193505050501580156102c3573d6000803e3d6000fd5b50565b60015481565b60046020528060005260406000206000915090505481565b4260035410610328576040517f08c379a000000000000000000000000000000000000000000000000000000000815260040161031f90610892565b60405180910390fd5b6000600460003373ffffffffffffffffffffffffffffffffffffffff1673ffffffffffffffffffffffffffffffffffffffff1681526020019081526020016000205490506000600460003373ffffffffffffffffffffffffffffffffffffffff1673ffffffffffffffffffffffffffffffffffffffff168152602001908152602001600020819055503373ffffffffffffffffffffffffffffffffffffffff166108fc829081150290604051600060405180830381858888f193505050501580156103f7573d6000803e3d6000fd5b50806002600082825461040a9190610954565b925050819055507f325d1fdeb5914a66d4a1bdf5eebdf0a147362c26eae7e302232ff4c14dec52ce33826040516104429291906107ee565b60405180910390a150565b60004260035411156104b2577f3f328329dbe9901a2abb5f978aa8c3a9646a5e711e7fc378bdcfcd2d8faf83bf426003546104889190610954565b60405161049591906108d2565b60405180910390a1426003546104ab9190610954565b90506104ef565b7f3f328329dbe9901a2abb5f978aa8c3a9646a5e711e7fc378bdcfcd2d8faf83bf60006040516104e29190610817565b60405180910390a1600090505b90565b60025481565b600154600254111561053f576040517f08c379a000000000000000000000000000000000000000000000000000000000815260040161053690610832565b60405180910390fd5b426003541015610584576040517f08c379a000000000000000000000000000000000000000000000000000000000815260040161057b90610852565b60405180910390fd5b34600460003373ffffffffffffffffffffffffffffffffffffffff1673ffffffffffffffffffffffffffffffffffffffff16815260200190815260200160002060008282546105d391906108fe565b9250508190555034600260008282546105ec91906108fe565b925050819055503373ffffffffffffffffffffffffffffffffffffffff167f74da0170b67ce89213b0cd234d30d303d1dd4b6dd04fe05c3fa4a28b597aec3a3460405161063991906108d2565b60405180910390a2565b60008135905061065281610a05565b92915050565b60006020828403121561066a57600080fd5b600061067884828501610643565b91505092915050565b61068a81610988565b82525050565b610699816109c4565b82525050565b60006106ac600c836108ed565b91507f476f616c205265616368656400000000000000000000000000000000000000006000830152602082019050919050565b60006106ec6010836108ed565b91507f43616d706169676e206973206f766572000000000000000000000000000000006000830152602082019050919050565b600061072c600d836108ed565b91507f4163636573732044656e696564000000000000000000000000000000000000006000830152602082019050919050565b600061076c6015836108ed565b91507f43616d706169676e207374696c6c2061637469766500000000000000000000006000830152602082019050919050565b60006107ac6010836108ed565b91507f476f616c206e6f742072656163686564000000000000000000000000000000006000830152602082019050919050565b6107e8816109ba565b82525050565b60006040820190506108036000830185610681565b61081060208301846107df565b9392505050565b600060208201905061082c6000830184610690565b92915050565b6000602082019050818103600083015261084b8161069f565b9050919050565b6000602082019050818103600083015261086b816106df565b9050919050565b6000602082019050818103600083015261088b8161071f565b9050919050565b600060208201905081810360008301526108ab8161075f565b9050919050565b600060208201905081810360008301526108cb8161079f565b9050919050565b60006020820190506108e760008301846107df565b92915050565b600082825260208201905092915050565b6000610909826109ba565b9150610914836109ba565b9250827fffffffffffffffffffffffffffffffffffffffffffffffffffffffffffffffff03821115610949576109486109d6565b5b828201905092915050565b600061095f826109ba565b915061096a836109ba565b92508282101561097d5761097c6109d6565b5b828203905092915050565b60006109938261099a565b9050919050565b600073ffffffffffffffffffffffffffffffffffffffff82169050919050565b6000819050919050565b60006109cf826109ba565b9050919050565b7f4e487b7100000000000000000000000000000000000000000000000000000000600052601160045260246000fd5b610a0e81610988565b8114610a1957600080fd5b5056fea2646970667358221220427f9149bd0dcd2a032a3ce5d4327875abd6b0e92baea30e74e6872faf8a350f64736f6c63430008000033",
					"opcodes": "PUSH1 0x80 PUSH1 0x40 MSTORE CALLVALUE DUP1 ISZERO PUSH3 0x11 JUMPI PUSH1 0x0 DUP1 REVERT JUMPDEST POP PUSH1 0x40 MLOAD PUSH3 0xC73 CODESIZE SUB DUP1 PUSH3 0xC73 DUP4 CODECOPY DUP2 DUP2 ADD PUSH1 0x40 MSTORE DUP2 ADD SWAP1 PUSH3 0x37 SWAP2 SWAP1 PUSH3 0xBF JUMP JUMPDEST CALLER PUSH1 0x0 DUP1 PUSH2 0x100 EXP DUP2 SLOAD DUP2 PUSH20 0xFFFFFFFFFFFFFFFFFFFFFFFFFFFFFFFFFFFFFFFF MUL NOT AND SWAP1 DUP4 PUSH20 0xFFFFFFFFFFFFFFFFFFFFFFFFFFFFFFFFFFFFFFFF AND MUL OR SWAP1 SSTORE POP DUP2 PUSH1 0x1 DUP2 SWAP1 SSTORE POP PUSH1 0x3C DUP2 PUSH3 0x8D SWAP2 SWAP1 PUSH3 0x15D JUMP JUMPDEST TIMESTAMP PUSH3 0x9A SWAP2 SWAP1 PUSH3 0x100 JUMP JUMPDEST PUSH1 0x3 DUP2 SWAP1 SSTORE POP POP POP PUSH3 0x211 JUMP JUMPDEST PUSH1 0x0 DUP2 MLOAD SWAP1 POP PUSH3 0xB9 DUP2 PUSH3 0x1F7 JUMP JUMPDEST SWAP3 SWAP2 POP POP JUMP JUMPDEST PUSH1 0x0 DUP1 PUSH1 0x40 DUP4 DUP6 SUB SLT ISZERO PUSH3 0xD3 JUMPI PUSH1 0x0 DUP1 REVERT JUMPDEST PUSH1 0x0 PUSH3 0xE3 DUP6 DUP3 DUP7 ADD PUSH3 0xA8 JUMP JUMPDEST SWAP3 POP POP PUSH1 0x20 PUSH3 0xF6 DUP6 DUP3 DUP7 ADD PUSH3 0xA8 JUMP JUMPDEST SWAP2 POP POP SWAP3 POP SWAP3 SWAP1 POP JUMP JUMPDEST PUSH1 0x0 PUSH3 0x10D DUP3 PUSH3 0x1BE JUMP JUMPDEST SWAP2 POP PUSH3 0x11A DUP4 PUSH3 0x1BE JUMP JUMPDEST SWAP3 POP DUP3 PUSH32 0xFFFFFFFFFFFFFFFFFFFFFFFFFFFFFFFFFFFFFFFFFFFFFFFFFFFFFFFFFFFFFFFF SUB DUP3 GT ISZERO PUSH3 0x152 JUMPI PUSH3 0x151 PUSH3 0x1C8 JUMP JUMPDEST JUMPDEST DUP3 DUP3 ADD SWAP1 POP SWAP3 SWAP2 POP POP JUMP JUMPDEST PUSH1 0x0 PUSH3 0x16A DUP3 PUSH3 0x1BE JUMP JUMPDEST SWAP2 POP PUSH3 0x177 DUP4 PUSH3 0x1BE JUMP JUMPDEST SWAP3 POP DUP2 PUSH32 0xFFFFFFFFFFFFFFFFFFFFFFFFFFFFFFFFFFFFFFFFFFFFFFFFFFFFFFFFFFFFFFFF DIV DUP4 GT DUP3 ISZERO ISZERO AND ISZERO PUSH3 0x1B3 JUMPI PUSH3 0x1B2 PUSH3 0x1C8 JUMP JUMPDEST JUMPDEST DUP3 DUP3 MUL SWAP1 POP SWAP3 SWAP2 POP POP JUMP JUMPDEST PUSH1 0x0 DUP2 SWAP1 POP SWAP2 SWAP1 POP JUMP JUMPDEST PUSH32 0x4E487B7100000000000000000000000000000000000000000000000000000000 PUSH1 0x0 MSTORE PUSH1 0x11 PUSH1 0x4 MSTORE PUSH1 0x24 PUSH1 0x0 REVERT JUMPDEST PUSH3 0x202 DUP2 PUSH3 0x1BE JUMP JUMPDEST DUP2 EQ PUSH3 0x20E JUMPI PUSH1 0x0 DUP1 REVERT JUMPDEST POP JUMP JUMPDEST PUSH2 0xA52 DUP1 PUSH3 0x221 PUSH1 0x0 CODECOPY PUSH1 0x0 RETURN INVALID PUSH1 0x80 PUSH1 0x40 MSTORE PUSH1 0x4 CALLDATASIZE LT PUSH2 0x70 JUMPI PUSH1 0x0 CALLDATALOAD PUSH1 0xE0 SHR DUP1 PUSH4 0x590E1AE3 GT PUSH2 0x4E JUMPI DUP1 PUSH4 0x590E1AE3 EQ PUSH2 0xE7 JUMPI DUP1 PUSH4 0x68C74B53 EQ PUSH2 0xF1 JUMPI DUP1 PUSH4 0x968ED600 EQ PUSH2 0x11C JUMPI DUP1 PUSH4 0xA26759CB EQ PUSH2 0x147 JUMPI PUSH2 0x70 JUMP JUMPDEST DUP1 PUSH4 0x3CCFD60B EQ PUSH2 0x75 JUMPI DUP1 PUSH4 0x40193883 EQ PUSH2 0x7F JUMPI DUP1 PUSH4 0x42E94C90 EQ PUSH2 0xAA JUMPI JUMPDEST PUSH1 0x0 DUP1 REVERT JUMPDEST PUSH2 0x7D PUSH2 0x151 JUMP JUMPDEST STOP JUMPDEST CALLVALUE DUP1 ISZERO PUSH2 0x8B JUMPI PUSH1 0x0 DUP1 REVERT JUMPDEST POP PUSH2 0x94 PUSH2 0x2C6 JUMP JUMPDEST PUSH1 0x40 MLOAD PUSH2 0xA1 SWAP2 SWAP1 PUSH2 0x8D2 JUMP JUMPDEST PUSH1 0x40 MLOAD DUP1 SWAP2 SUB SWAP1 RETURN JUMPDEST CALLVALUE DUP1 ISZERO PUSH2 0xB6 JUMPI PUSH1 0x0 DUP1 REVERT JUMPDEST POP PUSH2 0xD1 PUSH1 0x4 DUP1 CALLDATASIZE SUB DUP2 ADD SWAP1 PUSH2 0xCC SWAP2 SWAP1 PUSH2 0x658 JUMP JUMPDEST PUSH2 0x2CC JUMP JUMPDEST PUSH1 0x40 MLOAD PUSH2 0xDE SWAP2 SWAP1 PUSH2 0x8D2 JUMP JUMPDEST PUSH1 0x40 MLOAD DUP1 SWAP2 SUB SWAP1 RETURN JUMPDEST PUSH2 0xEF PUSH2 0x2E4 JUMP JUMPDEST STOP JUMPDEST CALLVALUE DUP1 ISZERO PUSH2 0xFD JUMPI PUSH1 0x0 DUP1 REVERT JUMPDEST POP PUSH2 0x106 PUSH2 0x44D JUMP JUMPDEST PUSH1 0x40 MLOAD PUSH2 0x113 SWAP2 SWAP1 PUSH2 0x8D2 JUMP JUMPDEST PUSH1 0x40 MLOAD DUP1 SWAP2 SUB SWAP1 RETURN JUMPDEST CALLVALUE DUP1 ISZERO PUSH2 0x128 JUMPI PUSH1 0x0 DUP1 REVERT JUMPDEST POP PUSH2 0x131 PUSH2 0x4F2 JUMP JUMPDEST PUSH1 0x40 MLOAD PUSH2 0x13E SWAP2 SWAP1 PUSH2 0x8D2 JUMP JUMPDEST PUSH1 0x40 MLOAD DUP1 SWAP2 SUB SWAP1 RETURN JUMPDEST PUSH2 0x14F PUSH2 0x4F8 JUMP JUMPDEST STOP JUMPDEST PUSH1 0x0 DUP1 SLOAD SWAP1 PUSH2 0x100 EXP SWAP1 DIV PUSH20 0xFFFFFFFFFFFFFFFFFFFFFFFFFFFFFFFFFFFFFFFF AND PUSH20 0xFFFFFFFFFFFFFFFFFFFFFFFFFFFFFFFFFFFFFFFF AND CALLER PUSH20 0xFFFFFFFFFFFFFFFFFFFFFFFFFFFFFFFFFFFFFFFF AND EQ PUSH2 0x1DF JUMPI PUSH1 0x40 MLOAD PUSH32 0x8C379A000000000000000000000000000000000000000000000000000000000 DUP2 MSTORE PUSH1 0x4 ADD PUSH2 0x1D6 SWAP1 PUSH2 0x872 JUMP JUMPDEST PUSH1 0x40 MLOAD DUP1 SWAP2 SUB SWAP1 REVERT JUMPDEST PUSH1 0x2 SLOAD PUSH1 0x1 SLOAD GT ISZERO PUSH2 0x226 JUMPI PUSH1 0x40 MLOAD PUSH32 0x8C379A000000000000000000000000000000000000000000000000000000000 DUP2 MSTORE PUSH1 0x4 ADD PUSH2 0x21D SWAP1 PUSH2 0x8B2 JUMP JUMPDEST PUSH1 0x40 MLOAD DUP1 SWAP2 SUB SWAP1 REVERT JUMPDEST PUSH32 0x5D2C53A72C10924170E1AC3709C2B6B2EF35E928C1B722A2B43691F4A3CC1BAC SELFBALANCE PUSH1 0x40 MLOAD PUSH2 0x255 SWAP2 SWAP1 PUSH2 0x8D2 JUMP JUMPDEST PUSH1 0x40 MLOAD DUP1 SWAP2 SUB SWAP1 LOG1 PUSH1 0x0 DUP1 SLOAD SWAP1 PUSH2 0x100 EXP SWAP1 DIV PUSH20 0xFFFFFFFFFFFFFFFFFFFFFFFFFFFFFFFFFFFFFFFF AND PUSH20 0xFFFFFFFFFFFFFFFFFFFFFFFFFFFFFFFFFFFFFFFF AND PUSH2 0x8FC SELFBALANCE SWAP1 DUP2 ISZERO MUL SWAP1 PUSH1 0x40 MLOAD PUSH1 0x0 PUSH1 0x40 MLOAD DUP1 DUP4 SUB DUP2 DUP6 DUP9 DUP9 CALL SWAP4 POP POP POP POP ISZERO DUP1 ISZERO PUSH2 0x2C3 JUMPI RETURNDATASIZE PUSH1 0x0 DUP1 RETURNDATACOPY RETURNDATASIZE PUSH1 0x0 REVERT JUMPDEST POP JUMP JUMPDEST PUSH1 0x1 SLOAD DUP2 JUMP JUMPDEST PUSH1 0x4 PUSH1 0x20 MSTORE DUP1 PUSH1 0x0 MSTORE PUSH1 0x40 PUSH1 0x0 KECCAK256 PUSH1 0x0 SWAP2 POP SWAP1 POP SLOAD DUP2 JUMP JUMPDEST TIMESTAMP PUSH1 0x3 SLOAD LT PUSH2 0x328 JUMPI PUSH1 0x40 MLOAD PUSH32 0x8C379A000000000000000000000000000000000000000000000000000000000 DUP2 MSTORE PUSH1 0x4 ADD PUSH2 0x31F SWAP1 PUSH2 0x892 JUMP JUMPDEST PUSH1 0x40 MLOAD DUP1 SWAP2 SUB SWAP1 REVERT JUMPDEST PUSH1 0x0 PUSH1 0x4 PUSH1 0x0 CALLER PUSH20 0xFFFFFFFFFFFFFFFFFFFFFFFFFFFFFFFFFFFFFFFF AND PUSH20 0xFFFFFFFFFFFFFFFFFFFFFFFFFFFFFFFFFFFFFFFF AND DUP2 MSTORE PUSH1 0x20 ADD SWAP1 DUP2 MSTORE PUSH1 0x20 ADD PUSH1 0x0 KECCAK256 SLOAD SWAP1 POP PUSH1 0x0 PUSH1 0x4 PUSH1 0x0 CALLER PUSH20 0xFFFFFFFFFFFFFFFFFFFFFFFFFFFFFFFFFFFFFFFF AND PUSH20 0xFFFFFFFFFFFFFFFFFFFFFFFFFFFFFFFFFFFFFFFF AND DUP2 MSTORE PUSH1 0x20 ADD SWAP1 DUP2 MSTORE PUSH1 0x20 ADD PUSH1 0x0 KECCAK256 DUP2 SWAP1 SSTORE POP CALLER PUSH20 0xFFFFFFFFFFFFFFFFFFFFFFFFFFFFFFFFFFFFFFFF AND PUSH2 0x8FC DUP3 SWAP1 DUP2 ISZERO MUL SWAP1 PUSH1 0x40 MLOAD PUSH1 0x0 PUSH1 0x40 MLOAD DUP1 DUP4 SUB DUP2 DUP6 DUP9 DUP9 CALL SWAP4 POP POP POP POP ISZERO DUP1 ISZERO PUSH2 0x3F7 JUMPI RETURNDATASIZE PUSH1 0x0 DUP1 RETURNDATACOPY RETURNDATASIZE PUSH1 0x0 REVERT JUMPDEST POP DUP1 PUSH1 0x2 PUSH1 0x0 DUP3 DUP3 SLOAD PUSH2 0x40A SWAP2 SWAP1 PUSH2 0x954 JUMP JUMPDEST SWAP3 POP POP DUP2 SWAP1 SSTORE POP PUSH32 0x325D1FDEB5914A66D4A1BDF5EEBDF0A147362C26EAE7E302232FF4C14DEC52CE CALLER DUP3 PUSH1 0x40 MLOAD PUSH2 0x442 SWAP3 SWAP2 SWAP1 PUSH2 0x7EE JUMP JUMPDEST PUSH1 0x40 MLOAD DUP1 SWAP2 SUB SWAP1 LOG1 POP JUMP JUMPDEST PUSH1 0x0 TIMESTAMP PUSH1 0x3 SLOAD GT ISZERO PUSH2 0x4B2 JUMPI PUSH32 0x3F328329DBE9901A2ABB5F978AA8C3A9646A5E711E7FC378BDCFCD2D8FAF83BF TIMESTAMP PUSH1 0x3 SLOAD PUSH2 0x488 SWAP2 SWAP1 PUSH2 0x954 JUMP JUMPDEST PUSH1 0x40 MLOAD PUSH2 0x495 SWAP2 SWAP1 PUSH2 0x8D2 JUMP JUMPDEST PUSH1 0x40 MLOAD DUP1 SWAP2 SUB SWAP1 LOG1 TIMESTAMP PUSH1 0x3 SLOAD PUSH2 0x4AB SWAP2 SWAP1 PUSH2 0x954 JUMP JUMPDEST SWAP1 POP PUSH2 0x4EF JUMP JUMPDEST PUSH32 0x3F328329DBE9901A2ABB5F978AA8C3A9646A5E711E7FC378BDCFCD2D8FAF83BF PUSH1 0x0 PUSH1 0x40 MLOAD PUSH2 0x4E2 SWAP2 SWAP1 PUSH2 0x817 JUMP JUMPDEST PUSH1 0x40 MLOAD DUP1 SWAP2 SUB SWAP1 LOG1 PUSH1 0x0 SWAP1 POP JUMPDEST SWAP1 JUMP JUMPDEST PUSH1 0x2 SLOAD DUP2 JUMP JUMPDEST PUSH1 0x1 SLOAD PUSH1 0x2 SLOAD GT ISZERO PUSH2 0x53F JUMPI PUSH1 0x40 MLOAD PUSH32 0x8C379A000000000000000000000000000000000000000000000000000000000 DUP2 MSTORE PUSH1 0x4 ADD PUSH2 0x536 SWAP1 PUSH2 0x832 JUMP JUMPDEST PUSH1 0x40 MLOAD DUP1 SWAP2 SUB SWAP1 REVERT JUMPDEST TIMESTAMP PUSH1 0x3 SLOAD LT ISZERO PUSH2 0x584 JUMPI PUSH1 0x40 MLOAD PUSH32 0x8C379A000000000000000000000000000000000000000000000000000000000 DUP2 MSTORE PUSH1 0x4 ADD PUSH2 0x57B SWAP1 PUSH2 0x852 JUMP JUMPDEST PUSH1 0x40 MLOAD DUP1 SWAP2 SUB SWAP1 REVERT JUMPDEST CALLVALUE PUSH1 0x4 PUSH1 0x0 CALLER PUSH20 0xFFFFFFFFFFFFFFFFFFFFFFFFFFFFFFFFFFFFFFFF AND PUSH20 0xFFFFFFFFFFFFFFFFFFFFFFFFFFFFFFFFFFFFFFFF AND DUP2 MSTORE PUSH1 0x20 ADD SWAP1 DUP2 MSTORE PUSH1 0x20 ADD PUSH1 0x0 KECCAK256 PUSH1 0x0 DUP3 DUP3 SLOAD PUSH2 0x5D3 SWAP2 SWAP1 PUSH2 0x8FE JUMP JUMPDEST SWAP3 POP POP DUP2 SWAP1 SSTORE POP CALLVALUE PUSH1 0x2 PUSH1 0x0 DUP3 DUP3 SLOAD PUSH2 0x5EC SWAP2 SWAP1 PUSH2 0x8FE JUMP JUMPDEST SWAP3 POP POP DUP2 SWAP1 SSTORE POP CALLER PUSH20 0xFFFFFFFFFFFFFFFFFFFFFFFFFFFFFFFFFFFFFFFF AND PUSH32 0x74DA0170B67CE89213B0CD234D30D303D1DD4B6DD04FE05C3FA4A28B597AEC3A CALLVALUE PUSH1 0x40 MLOAD PUSH2 0x639 SWAP2 SWAP1 PUSH2 0x8D2 JUMP JUMPDEST PUSH1 0x40 MLOAD DUP1 SWAP2 SUB SWAP1 LOG2 JUMP JUMPDEST PUSH1 0x0 DUP2 CALLDATALOAD SWAP1 POP PUSH2 0x652 DUP2 PUSH2 0xA05 JUMP JUMPDEST SWAP3 SWAP2 POP POP JUMP JUMPDEST PUSH1 0x0 PUSH1 0x20 DUP3 DUP5 SUB SLT ISZERO PUSH2 0x66A JUMPI PUSH1 0x0 DUP1 REVERT JUMPDEST PUSH1 0x0 PUSH2 0x678 DUP5 DUP3 DUP6 ADD PUSH2 0x643 JUMP JUMPDEST SWAP2 POP POP SWAP3 SWAP2 POP POP JUMP JUMPDEST PUSH2 0x68A DUP2 PUSH2 0x988 JUMP JUMPDEST DUP3 MSTORE POP POP JUMP JUMPDEST PUSH2 0x699 DUP2 PUSH2 0x9C4 JUMP JUMPDEST DUP3 MSTORE POP POP JUMP JUMPDEST PUSH1 0x0 PUSH2 0x6AC PUSH1 0xC DUP4 PUSH2 0x8ED JUMP JUMPDEST SWAP2 POP PUSH32 0x476F616C20526561636865640000000000000000000000000000000000000000 PUSH1 0x0 DUP4 ADD MSTORE PUSH1 0x20 DUP3 ADD SWAP1 POP SWAP2 SWAP1 POP JUMP JUMPDEST PUSH1 0x0 PUSH2 0x6EC PUSH1 0x10 DUP4 PUSH2 0x8ED JUMP JUMPDEST SWAP2 POP PUSH32 0x43616D706169676E206973206F76657200000000000000000000000000000000 PUSH1 0x0 DUP4 ADD MSTORE PUSH1 0x20 DUP3 ADD SWAP1 POP SWAP2 SWAP1 POP JUMP JUMPDEST PUSH1 0x0 PUSH2 0x72C PUSH1 0xD DUP4 PUSH2 0x8ED JUMP JUMPDEST SWAP2 POP PUSH32 0x4163636573732044656E69656400000000000000000000000000000000000000 PUSH1 0x0 DUP4 ADD MSTORE PUSH1 0x20 DUP3 ADD SWAP1 POP SWAP2 SWAP1 POP JUMP JUMPDEST PUSH1 0x0 PUSH2 0x76C PUSH1 0x15 DUP4 PUSH2 0x8ED JUMP JUMPDEST SWAP2 POP PUSH32 0x43616D706169676E207374696C6C206163746976650000000000000000000000 PUSH1 0x0 DUP4 ADD MSTORE PUSH1 0x20 DUP3 ADD SWAP1 POP SWAP2 SWAP1 POP JUMP JUMPDEST PUSH1 0x0 PUSH2 0x7AC PUSH1 0x10 DUP4 PUSH2 0x8ED JUMP JUMPDEST SWAP2 POP PUSH32 0x476F616C206E6F74207265616368656400000000000000000000000000000000 PUSH1 0x0 DUP4 ADD MSTORE PUSH1 0x20 DUP3 ADD SWAP1 POP SWAP2 SWAP1 POP JUMP JUMPDEST PUSH2 0x7E8 DUP2 PUSH2 0x9BA JUMP JUMPDEST DUP3 MSTORE POP POP JUMP JUMPDEST PUSH1 0x0 PUSH1 0x40 DUP3 ADD SWAP1 POP PUSH2 0x803 PUSH1 0x0 DUP4 ADD DUP6 PUSH2 0x681 JUMP JUMPDEST PUSH2 0x810 PUSH1 0x20 DUP4 ADD DUP5 PUSH2 0x7DF JUMP JUMPDEST SWAP4 SWAP3 POP POP POP JUMP JUMPDEST PUSH1 0x0 PUSH1 0x20 DUP3 ADD SWAP1 POP PUSH2 0x82C PUSH1 0x0 DUP4 ADD DUP5 PUSH2 0x690 JUMP JUMPDEST SWAP3 SWAP2 POP POP JUMP JUMPDEST PUSH1 0x0 PUSH1 0x20 DUP3 ADD SWAP1 POP DUP2 DUP2 SUB PUSH1 0x0 DUP4 ADD MSTORE PUSH2 0x84B DUP2 PUSH2 0x69F JUMP JUMPDEST SWAP1 POP SWAP2 SWAP1 POP JUMP JUMPDEST PUSH1 0x0 PUSH1 0x20 DUP3 ADD SWAP1 POP DUP2 DUP2 SUB PUSH1 0x0 DUP4 ADD MSTORE PUSH2 0x86B DUP2 PUSH2 0x6DF JUMP JUMPDEST SWAP1 POP SWAP2 SWAP1 POP JUMP JUMPDEST PUSH1 0x0 PUSH1 0x20 DUP3 ADD SWAP1 POP DUP2 DUP2 SUB PUSH1 0x0 DUP4 ADD MSTORE PUSH2 0x88B DUP2 PUSH2 0x71F JUMP JUMPDEST SWAP1 POP SWAP2 SWAP1 POP JUMP JUMPDEST PUSH1 0x0 PUSH1 0x20 DUP3 ADD SWAP1 POP DUP2 DUP2 SUB PUSH1 0x0 DUP4 ADD MSTORE PUSH2 0x8AB DUP2 PUSH2 0x75F JUMP JUMPDEST SWAP1 POP SWAP2 SWAP1 POP JUMP JUMPDEST PUSH1 0x0 PUSH1 0x20 DUP3 ADD SWAP1 POP DUP2 DUP2 SUB PUSH1 0x0 DUP4 ADD MSTORE PUSH2 0x8CB DUP2 PUSH2 0x79F JUMP JUMPDEST SWAP1 POP SWAP2 SWAP1 POP JUMP JUMPDEST PUSH1 0x0 PUSH1 0x20 DUP3 ADD SWAP1 POP PUSH2 0x8E7 PUSH1 0x0 DUP4 ADD DUP5 PUSH2 0x7DF JUMP JUMPDEST SWAP3 SWAP2 POP POP JUMP JUMPDEST PUSH1 0x0 DUP3 DUP3 MSTORE PUSH1 0x20 DUP3 ADD SWAP1 POP SWAP3 SWAP2 POP POP JUMP JUMPDEST PUSH1 0x0 PUSH2 0x909 DUP3 PUSH2 0x9BA JUMP JUMPDEST SWAP2 POP PUSH2 0x914 DUP4 PUSH2 0x9BA JUMP JUMPDEST SWAP3 POP DUP3 PUSH32 0xFFFFFFFFFFFFFFFFFFFFFFFFFFFFFFFFFFFFFFFFFFFFFFFFFFFFFFFFFFFFFFFF SUB DUP3 GT ISZERO PUSH2 0x949 JUMPI PUSH2 0x948 PUSH2 0x9D6 JUMP JUMPDEST JUMPDEST DUP3 DUP3 ADD SWAP1 POP SWAP3 SWAP2 POP POP JUMP JUMPDEST PUSH1 0x0 PUSH2 0x95F DUP3 PUSH2 0x9BA JUMP JUMPDEST SWAP2 POP PUSH2 0x96A DUP4 PUSH2 0x9BA JUMP JUMPDEST SWAP3 POP DUP3 DUP3 LT ISZERO PUSH2 0x97D JUMPI PUSH2 0x97C PUSH2 0x9D6 JUMP JUMPDEST JUMPDEST DUP3 DUP3 SUB SWAP1 POP SWAP3 SWAP2 POP POP JUMP JUMPDEST PUSH1 0x0 PUSH2 0x993 DUP3 PUSH2 0x99A JUMP JUMPDEST SWAP1 POP SWAP2 SWAP1 POP JUMP JUMPDEST PUSH1 0x0 PUSH20 0xFFFFFFFFFFFFFFFFFFFFFFFFFFFFFFFFFFFFFFFF DUP3 AND SWAP1 POP SWAP2 SWAP1 POP JUMP JUMPDEST PUSH1 0x0 DUP2 SWAP1 POP SWAP2 SWAP1 POP JUMP JUMPDEST PUSH1 0x0 PUSH2 0x9CF DUP3 PUSH2 0x9BA JUMP JUMPDEST SWAP1 POP SWAP2 SWAP1 POP JUMP JUMPDEST PUSH32 0x4E487B7100000000000000000000000000000000000000000000000000000000 PUSH1 0x0 MSTORE PUSH1 0x11 PUSH1 0x4 MSTORE PUSH1 0x24 PUSH1 0x0 REVERT JUMPDEST PUSH2 0xA0E DUP2 PUSH2 0x988 JUMP JUMPDEST DUP2 EQ PUSH2 0xA19 JUMPI PUSH1 0x0 DUP1 REVERT JUMPDEST POP JUMP INVALID LOG2 PUSH5 0x6970667358 0x22 SLT KECCAK256 TIMESTAMP PUSH32 0x9149BD0DCD2A032A3CE5D4327875ABD6B0E92BAEA30E74E6872FAF8A350F6473 PUSH16 0x6C634300080000330000000000000000 "
				},
				"gasEstimates": {
					"creation": {
						"codeDepositCost": "528400",
						"executionCost": "infinite",
						"totalCost": "infinite"
					},
					"external": {
						"addFunds()": "infinite",
						"contributions(address)": "1559",
						"goal()": "1152",
						"refund()": "infinite",
						"timeleft()": "infinite",
						"totalFunds()": "1173",
						"withdraw()": "infinite"
					}
				},
				"methodIdentifiers": {
					"addFunds()": "a26759cb",
					"contributions(address)": "42e94c90",
					"goal()": "40193883",
					"refund()": "590e1ae3",
					"timeleft()": "68c74b53",
					"totalFunds()": "968ed600",
					"withdraw()": "3ccfd60b"
				}
			},
			"storageLayout": {
				"storage": [
					{
						"astId": 3,
						"contract": "Practice/crowdFunding.sol:crowdFunding",
						"label": "owner",
						"offset": 0,
						"slot": "0",
						"type": "t_address"
					},
					{
						"astId": 5,
						"contract": "Practice/crowdFunding.sol:crowdFunding",
						"label": "goal",
						"offset": 0,
						"slot": "1",
						"type": "t_uint256"
					},
					{
						"astId": 7,
						"contract": "Practice/crowdFunding.sol:crowdFunding",
						"label": "totalFunds",
						"offset": 0,
						"slot": "2",
						"type": "t_uint256"
					},
					{
						"astId": 9,
						"contract": "Practice/crowdFunding.sol:crowdFunding",
						"label": "deadline",
						"offset": 0,
						"slot": "3",
						"type": "t_uint256"
					},
					{
						"astId": 59,
						"contract": "Practice/crowdFunding.sol:crowdFunding",
						"label": "contributions",
						"offset": 0,
						"slot": "4",
						"type": "t_mapping(t_address,t_uint256)"
					}
				],
				"types": {
					"t_address": {
						"encoding": "inplace",
						"label": "address",
						"numberOfBytes": "20"
					},
					"t_mapping(t_address,t_uint256)": {
						"encoding": "mapping",
						"key": "t_address",
						"label": "mapping(address => uint256)",
						"numberOfBytes": "32",
						"value": "t_uint256"
					},
					"t_uint256": {
						"encoding": "inplace",
						"label": "uint256",
						"numberOfBytes": "32"
					}
				}
			},
			"userdoc": {
				"kind": "user",
				"methods": {},
				"version": 1
			}
		}
	}
}