{
	"Practice/Stock.sol": {
		"Inventory_Management": {
			"abi": [
				{
					"inputs": [],
					"stateMutability": "nonpayable",
					"type": "constructor"
				},
				{
					"inputs": [
						{
							"internalType": "uint256",
							"name": "id",
							"type": "uint256"
						},
						{
							"internalType": "uint256",
							"name": "quantity",
							"type": "uint256"
						}
					],
					"name": "addProduct",
					"outputs": [],
					"stateMutability": "nonpayable",
					"type": "function"
				},
				{
					"inputs": [
						{
							"internalType": "uint256",
							"name": "id",
							"type": "uint256"
						},
						{
							"internalType": "uint256",
							"name": "quantity",
							"type": "uint256"
						}
					],
					"name": "buyProduct",
					"outputs": [],
					"stateMutability": "nonpayable",
					"type": "function"
				},
				{
					"inputs": [],
					"name": "getFullDetails",
					"outputs": [
						{
							"internalType": "uint256[]",
							"name": "",
							"type": "uint256[]"
						},
						{
							"internalType": "uint256[]",
							"name": "",
							"type": "uint256[]"
						}
					],
					"stateMutability": "view",
					"type": "function"
				},
				{
					"inputs": [
						{
							"internalType": "uint256",
							"name": "id",
							"type": "uint256"
						},
						{
							"internalType": "uint256",
							"name": "quantity",
							"type": "uint256"
						}
					],
					"name": "updateProduct",
					"outputs": [],
					"stateMutability": "nonpayable",
					"type": "function"
				}
			],
			"devdoc": {
				"kind": "dev",
				"methods": {},
				"version": 1
			},
			"evm": {
				"assembly": "    /* \"Practice/Stock.sol\":430:1760  contract Inventory_Management{... */\n  mstore(0x40, 0x80)\n    /* \"Practice/Stock.sol\":587:633  constructor(){... */\n  callvalue\n  dup1\n  iszero\n  tag_1\n  jumpi\n  0x00\n  dup1\n  revert\ntag_1:\n  pop\n    /* \"Practice/Stock.sol\":616:626  msg.sender */\n  caller\n    /* \"Practice/Stock.sol\":610:615  owner */\n  0x00\n  dup1\n    /* \"Practice/Stock.sol\":610:626  owner=msg.sender */\n  0x0100\n  exp\n  dup2\n  sload\n  dup2\n  0xffffffffffffffffffffffffffffffffffffffff\n  mul\n  not\n  and\n  swap1\n  dup4\n  0xffffffffffffffffffffffffffffffffffffffff\n  and\n  mul\n  or\n  swap1\n  sstore\n  pop\n    /* \"Practice/Stock.sol\":430:1760  contract Inventory_Management{... */\n  dataSize(sub_0)\n  dup1\n  dataOffset(sub_0)\n  0x00\n  codecopy\n  0x00\n  return\nstop\n\nsub_0: assembly {\n        /* \"Practice/Stock.sol\":430:1760  contract Inventory_Management{... */\n      mstore(0x40, 0x80)\n      callvalue\n      dup1\n      iszero\n      tag_1\n      jumpi\n      0x00\n      dup1\n      revert\n    tag_1:\n      pop\n      jumpi(tag_2, lt(calldatasize, 0x04))\n      shr(0xe0, calldataload(0x00))\n      dup1\n      0x31f45cab\n      eq\n      tag_3\n      jumpi\n      dup1\n      0x53b62866\n      eq\n      tag_4\n      jumpi\n      dup1\n      0x7253d6a0\n      eq\n      tag_5\n      jumpi\n      dup1\n      0x8b692479\n      eq\n      tag_6\n      jumpi\n    tag_2:\n      0x00\n      dup1\n      revert\n        /* \"Practice/Stock.sol\":959:1181  function updateProduct(uint id,uint quantity) public checkOwner{... */\n    tag_3:\n      tag_7\n      0x04\n      dup1\n      calldatasize\n      sub\n      dup2\n      add\n      swap1\n      tag_8\n      swap2\n      swap1\n      tag_9\n      jump\t// in\n    tag_8:\n      tag_10\n      jump\t// in\n    tag_7:\n      stop\n        /* \"Practice/Stock.sol\":1187:1437  function buyProduct(uint id, uint quantity) public {... */\n    tag_4:\n      tag_11\n      0x04\n      dup1\n      calldatasize\n      sub\n      dup2\n      add\n      swap1\n      tag_12\n      swap2\n      swap1\n      tag_9\n      jump\t// in\n    tag_12:\n      tag_13\n      jump\t// in\n    tag_11:\n      stop\n        /* \"Practice/Stock.sol\":1444:1758  function getFullDetails() public view returns (uint[] memory, uint[] memory) {... */\n    tag_5:\n      tag_14\n      tag_15\n      jump\t// in\n    tag_14:\n      mload(0x40)\n      tag_16\n      swap3\n      swap2\n      swap1\n      tag_17\n      jump\t// in\n    tag_16:\n      mload(0x40)\n      dup1\n      swap2\n      sub\n      swap1\n      return\n        /* \"Practice/Stock.sol\":734:953  function addProduct(uint id,uint quantity) public checkOwner{... */\n    tag_6:\n      tag_18\n      0x04\n      dup1\n      calldatasize\n      sub\n      dup2\n      add\n      swap1\n      tag_19\n      swap2\n      swap1\n      tag_9\n      jump\t// in\n    tag_19:\n      tag_20\n      jump\t// in\n    tag_18:\n      stop\n        /* \"Practice/Stock.sol\":959:1181  function updateProduct(uint id,uint quantity) public checkOwner{... */\n    tag_10:\n        /* \"Practice/Stock.sol\":683:693  msg.sender */\n      caller\n        /* \"Practice/Stock.sol\":676:693  owner==msg.sender */\n      0xffffffffffffffffffffffffffffffffffffffff\n      and\n        /* \"Practice/Stock.sol\":676:681  owner */\n      0x00\n      dup1\n      sload\n      swap1\n      0x0100\n      exp\n      swap1\n      div\n      0xffffffffffffffffffffffffffffffffffffffff\n      and\n        /* \"Practice/Stock.sol\":676:693  owner==msg.sender */\n      0xffffffffffffffffffffffffffffffffffffffff\n      and\n      eq\n        /* \"Practice/Stock.sol\":668:710  require(owner==msg.sender,\"Access Denied\") */\n      tag_22\n      jumpi\n      mload(0x40)\n      0x08c379a000000000000000000000000000000000000000000000000000000000\n      dup2\n      mstore\n      0x04\n      add\n      tag_23\n      swap1\n      tag_24\n      jump\t// in\n    tag_23:\n      mload(0x40)\n      dup1\n      swap2\n      sub\n      swap1\n      revert\n    tag_22:\n        /* \"Practice/Stock.sol\":1041:1050  isExisted */\n      0x03\n        /* \"Practice/Stock.sol\":1041:1054  isExisted[id] */\n      0x00\n        /* \"Practice/Stock.sol\":1051:1053  id */\n      dup4\n        /* \"Practice/Stock.sol\":1041:1054  isExisted[id] */\n      dup2\n      mstore\n      0x20\n      add\n      swap1\n      dup2\n      mstore\n      0x20\n      add\n      0x00\n      keccak256\n      0x00\n      swap1\n      sload\n      swap1\n      0x0100\n      exp\n      swap1\n      div\n      0xff\n      and\n        /* \"Practice/Stock.sol\":1040:1054  !isExisted[id] */\n      iszero\n        /* \"Practice/Stock.sol\":1032:1074  require(!isExisted[id],\"Id already exist\") */\n      tag_26\n      jumpi\n      mload(0x40)\n      0x08c379a000000000000000000000000000000000000000000000000000000000\n      dup2\n      mstore\n      0x04\n      add\n      tag_27\n      swap1\n      tag_28\n      jump\t// in\n    tag_27:\n      mload(0x40)\n      dup1\n      swap2\n      sub\n      swap1\n      revert\n    tag_26:\n        /* \"Practice/Stock.sol\":1092:1101  productID */\n      0x01\n        /* \"Practice/Stock.sol\":1107:1109  id */\n      dup3\n        /* \"Practice/Stock.sol\":1092:1110  productID.push(id) */\n      swap1\n      dup1\n      0x01\n      dup2\n      sload\n      add\n      dup1\n      dup3\n      sstore\n      dup1\n      swap2\n      pop\n      pop\n      0x01\n      swap1\n      sub\n      swap1\n      0x00\n      mstore\n      keccak256(0x00, 0x20)\n      add\n      0x00\n      swap1\n      swap2\n      swap1\n      swap2\n      swap1\n      swap2\n      pop\n      sstore\n        /* \"Practice/Stock.sol\":1138:1146  quantity */\n      dup1\n        /* \"Practice/Stock.sol\":1120:1133  product_stock */\n      0x02\n        /* \"Practice/Stock.sol\":1120:1137  product_stock[id] */\n      0x00\n        /* \"Practice/Stock.sol\":1134:1136  id */\n      dup5\n        /* \"Practice/Stock.sol\":1120:1137  product_stock[id] */\n      dup2\n      mstore\n      0x20\n      add\n      swap1\n      dup2\n      mstore\n      0x20\n      add\n      0x00\n      keccak256\n        /* \"Practice/Stock.sol\":1120:1146  product_stock[id]=quantity */\n      dup2\n      swap1\n      sstore\n      pop\n        /* \"Practice/Stock.sol\":1170:1174  true */\n      0x01\n        /* \"Practice/Stock.sol\":1156:1165  isExisted */\n      0x03\n        /* \"Practice/Stock.sol\":1156:1169  isExisted[id] */\n      0x00\n        /* \"Practice/Stock.sol\":1166:1168  id */\n      dup5\n        /* \"Practice/Stock.sol\":1156:1169  isExisted[id] */\n      dup2\n      mstore\n      0x20\n      add\n      swap1\n      dup2\n      mstore\n      0x20\n      add\n      0x00\n      keccak256\n      0x00\n        /* \"Practice/Stock.sol\":1156:1174  isExisted[id]=true */\n      0x0100\n      exp\n      dup2\n      sload\n      dup2\n      0xff\n      mul\n      not\n      and\n      swap1\n      dup4\n      iszero\n      iszero\n      mul\n      or\n      swap1\n      sstore\n      pop\n        /* \"Practice/Stock.sol\":959:1181  function updateProduct(uint id,uint quantity) public checkOwner{... */\n      pop\n      pop\n      jump\t// out\n        /* \"Practice/Stock.sol\":1187:1437  function buyProduct(uint id, uint quantity) public {... */\n    tag_13:\n        /* \"Practice/Stock.sol\":1256:1265  isExisted */\n      0x03\n        /* \"Practice/Stock.sol\":1256:1269  isExisted[id] */\n      0x00\n        /* \"Practice/Stock.sol\":1266:1268  id */\n      dup4\n        /* \"Practice/Stock.sol\":1256:1269  isExisted[id] */\n      dup2\n      mstore\n      0x20\n      add\n      swap1\n      dup2\n      mstore\n      0x20\n      add\n      0x00\n      keccak256\n      0x00\n      swap1\n      sload\n      swap1\n      0x0100\n      exp\n      swap1\n      div\n      0xff\n      and\n        /* \"Practice/Stock.sol\":1248:1283  require(isExisted[id],\"Invalid Id\") */\n      tag_31\n      jumpi\n      mload(0x40)\n      0x08c379a000000000000000000000000000000000000000000000000000000000\n      dup2\n      mstore\n      0x04\n      add\n      tag_32\n      swap1\n      tag_33\n      jump\t// in\n    tag_32:\n      mload(0x40)\n      dup1\n      swap2\n      sub\n      swap1\n      revert\n    tag_31:\n        /* \"Practice/Stock.sol\":1320:1328  quantity */\n      dup1\n        /* \"Practice/Stock.sol\":1301:1314  product_stock */\n      0x02\n        /* \"Practice/Stock.sol\":1301:1318  product_stock[id] */\n      0x00\n        /* \"Practice/Stock.sol\":1315:1317  id */\n      dup5\n        /* \"Practice/Stock.sol\":1301:1318  product_stock[id] */\n      dup2\n      mstore\n      0x20\n      add\n      swap1\n      dup2\n      mstore\n      0x20\n      add\n      0x00\n      keccak256\n      sload\n        /* \"Practice/Stock.sol\":1301:1328  product_stock[id]>=quantity */\n      lt\n      iszero\n        /* \"Practice/Stock.sol\":1293:1348  require(product_stock[id]>=quantity,\"Invalid quantity\") */\n      tag_34\n      jumpi\n      mload(0x40)\n      0x08c379a000000000000000000000000000000000000000000000000000000000\n      dup2\n      mstore\n      0x04\n      add\n      tag_35\n      swap1\n      tag_36\n      jump\t// in\n    tag_35:\n      mload(0x40)\n      dup1\n      swap2\n      sub\n      swap1\n      revert\n    tag_34:\n        /* \"Practice/Stock.sol\":1383:1391  quantity */\n      dup1\n        /* \"Practice/Stock.sol\":1364:1377  product_stock */\n      0x02\n        /* \"Practice/Stock.sol\":1364:1381  product_stock[id] */\n      0x00\n        /* \"Practice/Stock.sol\":1378:1380  id */\n      dup5\n        /* \"Practice/Stock.sol\":1364:1381  product_stock[id] */\n      dup2\n      mstore\n      0x20\n      add\n      swap1\n      dup2\n      mstore\n      0x20\n      add\n      0x00\n      keccak256\n      0x00\n        /* \"Practice/Stock.sol\":1364:1391  product_stock[id]-=quantity */\n      dup3\n      dup3\n      sload\n      tag_37\n      swap2\n      swap1\n      tag_38\n      jump\t// in\n    tag_37:\n      swap3\n      pop\n      pop\n      dup2\n      swap1\n      sstore\n      pop\n        /* \"Practice/Stock.sol\":1428:1429  0 */\n      0x00\n        /* \"Practice/Stock.sol\":1409:1422  product_stock */\n      0x02\n        /* \"Practice/Stock.sol\":1409:1426  product_stock[id] */\n      0x00\n        /* \"Practice/Stock.sol\":1423:1425  id */\n      dup5\n        /* \"Practice/Stock.sol\":1409:1426  product_stock[id] */\n      dup2\n      mstore\n      0x20\n      add\n      swap1\n      dup2\n      mstore\n      0x20\n      add\n      0x00\n      keccak256\n      sload\n        /* \"Practice/Stock.sol\":1409:1429  product_stock[id]>=0 */\n      lt\n      iszero\n        /* \"Practice/Stock.sol\":1402:1430  assert(product_stock[id]>=0) */\n      tag_39\n      jumpi\n      mstore(0x00, 0x4e487b7100000000000000000000000000000000000000000000000000000000)\n      mstore(0x04, 0x01)\n      revert(0x00, 0x24)\n    tag_39:\n        /* \"Practice/Stock.sol\":1187:1437  function buyProduct(uint id, uint quantity) public {... */\n      pop\n      pop\n      jump\t// out\n        /* \"Practice/Stock.sol\":1444:1758  function getFullDetails() public view returns (uint[] memory, uint[] memory) {... */\n    tag_15:\n        /* \"Practice/Stock.sol\":1491:1504  uint[] memory */\n      0x60\n        /* \"Practice/Stock.sol\":1506:1519  uint[] memory */\n      dup1\n        /* \"Practice/Stock.sol\":1531:1557  uint[] memory all_products */\n      0x00\n        /* \"Practice/Stock.sol\":1569:1578  productID */\n      0x01\n        /* \"Practice/Stock.sol\":1569:1585  productID.length */\n      dup1\n      sload\n      swap1\n      pop\n        /* \"Practice/Stock.sol\":1558:1586  new uint[](productID.length) */\n      0xffffffffffffffff\n      dup2\n      gt\n      iszero\n      tag_41\n      jumpi\n      mstore(0x00, 0x4e487b7100000000000000000000000000000000000000000000000000000000)\n      mstore(0x04, 0x41)\n      revert(0x00, 0x24)\n    tag_41:\n      mload(0x40)\n      swap1\n      dup1\n      dup3\n      mstore\n      dup1\n      0x20\n      mul\n      0x20\n      add\n      dup3\n      add\n      0x40\n      mstore\n      dup1\n      iszero\n      tag_42\n      jumpi\n      dup2\n      0x20\n      add\n      0x20\n      dup3\n      mul\n      dup1\n      calldatasize\n      dup4\n      calldatacopy\n      dup1\n      dup3\n      add\n      swap2\n      pop\n      pop\n      swap1\n      pop\n    tag_42:\n      pop\n        /* \"Practice/Stock.sol\":1531:1586  uint[] memory all_products=new uint[](productID.length) */\n      swap1\n      pop\n        /* \"Practice/Stock.sol\":1601:1607  uint i */\n      0x00\n        /* \"Practice/Stock.sol\":1596:1709  for (uint i = 0; i < productID.length; i++) {... */\n    tag_43:\n        /* \"Practice/Stock.sol\":1617:1626  productID */\n      0x01\n        /* \"Practice/Stock.sol\":1617:1633  productID.length */\n      dup1\n      sload\n      swap1\n      pop\n        /* \"Practice/Stock.sol\":1613:1614  i */\n      dup2\n        /* \"Practice/Stock.sol\":1613:1633  i < productID.length */\n      lt\n        /* \"Practice/Stock.sol\":1596:1709  for (uint i = 0; i < productID.length; i++) {... */\n      iszero\n      tag_44\n      jumpi\n        /* \"Practice/Stock.sol\":1671:1684  product_stock */\n      0x02\n        /* \"Practice/Stock.sol\":1671:1698  product_stock[productID[i]] */\n      0x00\n        /* \"Practice/Stock.sol\":1685:1694  productID */\n      0x01\n        /* \"Practice/Stock.sol\":1695:1696  i */\n      dup4\n        /* \"Practice/Stock.sol\":1685:1697  productID[i] */\n      dup2\n      sload\n      dup2\n      lt\n      tag_46\n      jumpi\n      mstore(0x00, 0x4e487b7100000000000000000000000000000000000000000000000000000000)\n      mstore(0x04, 0x32)\n      revert(0x00, 0x24)\n    tag_46:\n      swap1\n      0x00\n      mstore\n      keccak256(0x00, 0x20)\n      add\n      sload\n        /* \"Practice/Stock.sol\":1671:1698  product_stock[productID[i]] */\n      dup2\n      mstore\n      0x20\n      add\n      swap1\n      dup2\n      mstore\n      0x20\n      add\n      0x00\n      keccak256\n      sload\n        /* \"Practice/Stock.sol\":1654:1666  all_products */\n      dup3\n        /* \"Practice/Stock.sol\":1667:1668  i */\n      dup3\n        /* \"Practice/Stock.sol\":1654:1669  all_products[i] */\n      dup2\n      mload\n      dup2\n      lt\n      tag_48\n      jumpi\n      mstore(0x00, 0x4e487b7100000000000000000000000000000000000000000000000000000000)\n      mstore(0x04, 0x32)\n      revert(0x00, 0x24)\n    tag_48:\n      0x20\n      mul\n      0x20\n      add\n      add\n        /* \"Practice/Stock.sol\":1654:1698  all_products[i]= product_stock[productID[i]] */\n      dup2\n      dup2\n      mstore\n      pop\n      pop\n        /* \"Practice/Stock.sol\":1635:1638  i++ */\n      dup1\n      dup1\n      tag_49\n      swap1\n      tag_50\n      jump\t// in\n    tag_49:\n      swap2\n      pop\n      pop\n        /* \"Practice/Stock.sol\":1596:1709  for (uint i = 0; i < productID.length; i++) {... */\n      jump(tag_43)\n    tag_44:\n      pop\n        /* \"Practice/Stock.sol\":1727:1736  productID */\n      0x01\n        /* \"Practice/Stock.sol\":1738:1750  all_products */\n      dup2\n        /* \"Practice/Stock.sol\":1719:1751  return (productID, all_products) */\n      dup2\n      dup1\n      sload\n      dup1\n      0x20\n      mul\n      0x20\n      add\n      mload(0x40)\n      swap1\n      dup2\n      add\n      0x40\n      mstore\n      dup1\n      swap3\n      swap2\n      swap1\n      dup2\n      dup2\n      mstore\n      0x20\n      add\n      dup3\n      dup1\n      sload\n      dup1\n      iszero\n      tag_51\n      jumpi\n      0x20\n      mul\n      dup3\n      add\n      swap2\n      swap1\n      0x00\n      mstore\n      keccak256(0x00, 0x20)\n      swap1\n    tag_52:\n      dup2\n      sload\n      dup2\n      mstore\n      0x20\n      add\n      swap1\n      0x01\n      add\n      swap1\n      dup1\n      dup4\n      gt\n      tag_52\n      jumpi\n    tag_51:\n      pop\n      pop\n      pop\n      pop\n      pop\n      swap2\n      pop\n      swap3\n      pop\n      swap3\n      pop\n      pop\n        /* \"Practice/Stock.sol\":1444:1758  function getFullDetails() public view returns (uint[] memory, uint[] memory) {... */\n      swap1\n      swap2\n      jump\t// out\n        /* \"Practice/Stock.sol\":734:953  function addProduct(uint id,uint quantity) public checkOwner{... */\n    tag_20:\n        /* \"Practice/Stock.sol\":683:693  msg.sender */\n      caller\n        /* \"Practice/Stock.sol\":676:693  owner==msg.sender */\n      0xffffffffffffffffffffffffffffffffffffffff\n      and\n        /* \"Practice/Stock.sol\":676:681  owner */\n      0x00\n      dup1\n      sload\n      swap1\n      0x0100\n      exp\n      swap1\n      div\n      0xffffffffffffffffffffffffffffffffffffffff\n      and\n        /* \"Practice/Stock.sol\":676:693  owner==msg.sender */\n      0xffffffffffffffffffffffffffffffffffffffff\n      and\n      eq\n        /* \"Practice/Stock.sol\":668:710  require(owner==msg.sender,\"Access Denied\") */\n      tag_54\n      jumpi\n      mload(0x40)\n      0x08c379a000000000000000000000000000000000000000000000000000000000\n      dup2\n      mstore\n      0x04\n      add\n      tag_55\n      swap1\n      tag_24\n      jump\t// in\n    tag_55:\n      mload(0x40)\n      dup1\n      swap2\n      sub\n      swap1\n      revert\n    tag_54:\n        /* \"Practice/Stock.sol\":813:822  isExisted */\n      0x03\n        /* \"Practice/Stock.sol\":813:826  isExisted[id] */\n      0x00\n        /* \"Practice/Stock.sol\":823:825  id */\n      dup4\n        /* \"Practice/Stock.sol\":813:826  isExisted[id] */\n      dup2\n      mstore\n      0x20\n      add\n      swap1\n      dup2\n      mstore\n      0x20\n      add\n      0x00\n      keccak256\n      0x00\n      swap1\n      sload\n      swap1\n      0x0100\n      exp\n      swap1\n      div\n      0xff\n      and\n        /* \"Practice/Stock.sol\":812:826  !isExisted[id] */\n      iszero\n        /* \"Practice/Stock.sol\":804:846  require(!isExisted[id],\"Id already exist\") */\n      tag_57\n      jumpi\n      mload(0x40)\n      0x08c379a000000000000000000000000000000000000000000000000000000000\n      dup2\n      mstore\n      0x04\n      add\n      tag_58\n      swap1\n      tag_28\n      jump\t// in\n    tag_58:\n      mload(0x40)\n      dup1\n      swap2\n      sub\n      swap1\n      revert\n    tag_57:\n        /* \"Practice/Stock.sol\":864:873  productID */\n      0x01\n        /* \"Practice/Stock.sol\":879:881  id */\n      dup3\n        /* \"Practice/Stock.sol\":864:882  productID.push(id) */\n      swap1\n      dup1\n      0x01\n      dup2\n      sload\n      add\n      dup1\n      dup3\n      sstore\n      dup1\n      swap2\n      pop\n      pop\n      0x01\n      swap1\n      sub\n      swap1\n      0x00\n      mstore\n      keccak256(0x00, 0x20)\n      add\n      0x00\n      swap1\n      swap2\n      swap1\n      swap2\n      swap1\n      swap2\n      pop\n      sstore\n        /* \"Practice/Stock.sol\":910:918  quantity */\n      dup1\n        /* \"Practice/Stock.sol\":892:905  product_stock */\n      0x02\n        /* \"Practice/Stock.sol\":892:909  product_stock[id] */\n      0x00\n        /* \"Practice/Stock.sol\":906:908  id */\n      dup5\n        /* \"Practice/Stock.sol\":892:909  product_stock[id] */\n      dup2\n      mstore\n      0x20\n      add\n      swap1\n      dup2\n      mstore\n      0x20\n      add\n      0x00\n      keccak256\n        /* \"Practice/Stock.sol\":892:918  product_stock[id]=quantity */\n      dup2\n      swap1\n      sstore\n      pop\n        /* \"Practice/Stock.sol\":942:946  true */\n      0x01\n        /* \"Practice/Stock.sol\":928:937  isExisted */\n      0x03\n        /* \"Practice/Stock.sol\":928:941  isExisted[id] */\n      0x00\n        /* \"Practice/Stock.sol\":938:940  id */\n      dup5\n        /* \"Practice/Stock.sol\":928:941  isExisted[id] */\n      dup2\n      mstore\n      0x20\n      add\n      swap1\n      dup2\n      mstore\n      0x20\n      add\n      0x00\n      keccak256\n      0x00\n        /* \"Practice/Stock.sol\":928:946  isExisted[id]=true */\n      0x0100\n      exp\n      dup2\n      sload\n      dup2\n      0xff\n      mul\n      not\n      and\n      swap1\n      dup4\n      iszero\n      iszero\n      mul\n      or\n      swap1\n      sstore\n      pop\n        /* \"Practice/Stock.sol\":734:953  function addProduct(uint id,uint quantity) public checkOwner{... */\n      pop\n      pop\n      jump\t// out\n        /* \"#utility.yul\":7:146   */\n    tag_61:\n      0x00\n        /* \"#utility.yul\":91:97   */\n      dup2\n        /* \"#utility.yul\":78:98   */\n      calldataload\n        /* \"#utility.yul\":69:98   */\n      swap1\n      pop\n        /* \"#utility.yul\":107:140   */\n      tag_63\n        /* \"#utility.yul\":134:139   */\n      dup2\n        /* \"#utility.yul\":107:140   */\n      tag_64\n      jump\t// in\n    tag_63:\n        /* \"#utility.yul\":59:146   */\n      swap3\n      swap2\n      pop\n      pop\n      jump\t// out\n        /* \"#utility.yul\":152:559   */\n    tag_9:\n      0x00\n      dup1\n        /* \"#utility.yul\":277:279   */\n      0x40\n        /* \"#utility.yul\":265:274   */\n      dup4\n        /* \"#utility.yul\":256:263   */\n      dup6\n        /* \"#utility.yul\":252:275   */\n      sub\n        /* \"#utility.yul\":248:280   */\n      slt\n        /* \"#utility.yul\":245:247   */\n      iszero\n      tag_66\n      jumpi\n        /* \"#utility.yul\":293:294   */\n      0x00\n        /* \"#utility.yul\":290:291   */\n      dup1\n        /* \"#utility.yul\":283:295   */\n      revert\n        /* \"#utility.yul\":245:247   */\n    tag_66:\n        /* \"#utility.yul\":336:337   */\n      0x00\n        /* \"#utility.yul\":361:414   */\n      tag_67\n        /* \"#utility.yul\":406:413   */\n      dup6\n        /* \"#utility.yul\":397:403   */\n      dup3\n        /* \"#utility.yul\":386:395   */\n      dup7\n        /* \"#utility.yul\":382:404   */\n      add\n        /* \"#utility.yul\":361:414   */\n      tag_61\n      jump\t// in\n    tag_67:\n        /* \"#utility.yul\":351:414   */\n      swap3\n      pop\n        /* \"#utility.yul\":307:424   */\n      pop\n        /* \"#utility.yul\":463:465   */\n      0x20\n        /* \"#utility.yul\":489:542   */\n      tag_68\n        /* \"#utility.yul\":534:541   */\n      dup6\n        /* \"#utility.yul\":525:531   */\n      dup3\n        /* \"#utility.yul\":514:523   */\n      dup7\n        /* \"#utility.yul\":510:532   */\n      add\n        /* \"#utility.yul\":489:542   */\n      tag_61\n      jump\t// in\n    tag_68:\n        /* \"#utility.yul\":479:542   */\n      swap2\n      pop\n        /* \"#utility.yul\":434:552   */\n      pop\n        /* \"#utility.yul\":235:559   */\n      swap3\n      pop\n      swap3\n      swap1\n      pop\n      jump\t// out\n        /* \"#utility.yul\":565:744   */\n    tag_69:\n      0x00\n        /* \"#utility.yul\":655:701   */\n      tag_71\n        /* \"#utility.yul\":697:700   */\n      dup4\n        /* \"#utility.yul\":689:695   */\n      dup4\n        /* \"#utility.yul\":655:701   */\n      tag_72\n      jump\t// in\n    tag_71:\n        /* \"#utility.yul\":733:737   */\n      0x20\n        /* \"#utility.yul\":728:731   */\n      dup4\n        /* \"#utility.yul\":724:738   */\n      add\n        /* \"#utility.yul\":710:738   */\n      swap1\n      pop\n        /* \"#utility.yul\":645:744   */\n      swap3\n      swap2\n      pop\n      pop\n      jump\t// out\n        /* \"#utility.yul\":780:1512   */\n    tag_73:\n      0x00\n        /* \"#utility.yul\":928:982   */\n      tag_75\n        /* \"#utility.yul\":976:981   */\n      dup3\n        /* \"#utility.yul\":928:982   */\n      tag_76\n      jump\t// in\n    tag_75:\n        /* \"#utility.yul\":998:1084   */\n      tag_77\n        /* \"#utility.yul\":1077:1083   */\n      dup2\n        /* \"#utility.yul\":1072:1075   */\n      dup6\n        /* \"#utility.yul\":998:1084   */\n      tag_78\n      jump\t// in\n    tag_77:\n        /* \"#utility.yul\":991:1084   */\n      swap4\n      pop\n        /* \"#utility.yul\":1108:1164   */\n      tag_79\n        /* \"#utility.yul\":1158:1163   */\n      dup4\n        /* \"#utility.yul\":1108:1164   */\n      tag_80\n      jump\t// in\n    tag_79:\n        /* \"#utility.yul\":1187:1194   */\n      dup1\n        /* \"#utility.yul\":1218:1219   */\n      0x00\n        /* \"#utility.yul\":1203:1487   */\n    tag_81:\n        /* \"#utility.yul\":1228:1234   */\n      dup4\n        /* \"#utility.yul\":1225:1226   */\n      dup2\n        /* \"#utility.yul\":1222:1235   */\n      lt\n        /* \"#utility.yul\":1203:1487   */\n      iszero\n      tag_83\n      jumpi\n        /* \"#utility.yul\":1304:1310   */\n      dup2\n        /* \"#utility.yul\":1298:1311   */\n      mload\n        /* \"#utility.yul\":1331:1394   */\n      tag_84\n        /* \"#utility.yul\":1390:1393   */\n      dup9\n        /* \"#utility.yul\":1375:1388   */\n      dup3\n        /* \"#utility.yul\":1331:1394   */\n      tag_69\n      jump\t// in\n    tag_84:\n        /* \"#utility.yul\":1324:1394   */\n      swap8\n      pop\n        /* \"#utility.yul\":1417:1477   */\n      tag_85\n        /* \"#utility.yul\":1470:1476   */\n      dup4\n        /* \"#utility.yul\":1417:1477   */\n      tag_86\n      jump\t// in\n    tag_85:\n        /* \"#utility.yul\":1407:1477   */\n      swap3\n      pop\n        /* \"#utility.yul\":1263:1487   */\n      pop\n        /* \"#utility.yul\":1250:1251   */\n      0x01\n        /* \"#utility.yul\":1247:1248   */\n      dup2\n        /* \"#utility.yul\":1243:1252   */\n      add\n        /* \"#utility.yul\":1238:1252   */\n      swap1\n      pop\n        /* \"#utility.yul\":1203:1487   */\n      jump(tag_81)\n    tag_83:\n        /* \"#utility.yul\":1207:1221   */\n      pop\n        /* \"#utility.yul\":1503:1506   */\n      dup6\n        /* \"#utility.yul\":1496:1506   */\n      swap4\n      pop\n        /* \"#utility.yul\":904:1512   */\n      pop\n      pop\n      pop\n      swap3\n      swap2\n      pop\n      pop\n      jump\t// out\n        /* \"#utility.yul\":1518:1829   */\n    tag_87:\n      0x00\n        /* \"#utility.yul\":1681:1748   */\n      tag_89\n        /* \"#utility.yul\":1745:1747   */\n      0x0d\n        /* \"#utility.yul\":1740:1743   */\n      dup4\n        /* \"#utility.yul\":1681:1748   */\n      tag_90\n      jump\t// in\n    tag_89:\n        /* \"#utility.yul\":1674:1748   */\n      swap2\n      pop\n        /* \"#utility.yul\":1778:1793   */\n      0x4163636573732044656e69656400000000000000000000000000000000000000\n        /* \"#utility.yul\":1774:1775   */\n      0x00\n        /* \"#utility.yul\":1769:1772   */\n      dup4\n        /* \"#utility.yul\":1765:1776   */\n      add\n        /* \"#utility.yul\":1758:1794   */\n      mstore\n        /* \"#utility.yul\":1820:1822   */\n      0x20\n        /* \"#utility.yul\":1815:1818   */\n      dup3\n        /* \"#utility.yul\":1811:1823   */\n      add\n        /* \"#utility.yul\":1804:1823   */\n      swap1\n      pop\n        /* \"#utility.yul\":1664:1829   */\n      swap2\n      swap1\n      pop\n      jump\t// out\n        /* \"#utility.yul\":1835:2143   */\n    tag_91:\n      0x00\n        /* \"#utility.yul\":1998:2065   */\n      tag_93\n        /* \"#utility.yul\":2062:2064   */\n      0x0a\n        /* \"#utility.yul\":2057:2060   */\n      dup4\n        /* \"#utility.yul\":1998:2065   */\n      tag_90\n      jump\t// in\n    tag_93:\n        /* \"#utility.yul\":1991:2065   */\n      swap2\n      pop\n        /* \"#utility.yul\":2095:2107   */\n      0x496e76616c696420496400000000000000000000000000000000000000000000\n        /* \"#utility.yul\":2091:2092   */\n      0x00\n        /* \"#utility.yul\":2086:2089   */\n      dup4\n        /* \"#utility.yul\":2082:2093   */\n      add\n        /* \"#utility.yul\":2075:2108   */\n      mstore\n        /* \"#utility.yul\":2134:2136   */\n      0x20\n        /* \"#utility.yul\":2129:2132   */\n      dup3\n        /* \"#utility.yul\":2125:2137   */\n      add\n        /* \"#utility.yul\":2118:2137   */\n      swap1\n      pop\n        /* \"#utility.yul\":1981:2143   */\n      swap2\n      swap1\n      pop\n      jump\t// out\n        /* \"#utility.yul\":2149:2463   */\n    tag_94:\n      0x00\n        /* \"#utility.yul\":2312:2379   */\n      tag_96\n        /* \"#utility.yul\":2376:2378   */\n      0x10\n        /* \"#utility.yul\":2371:2374   */\n      dup4\n        /* \"#utility.yul\":2312:2379   */\n      tag_90\n      jump\t// in\n    tag_96:\n        /* \"#utility.yul\":2305:2379   */\n      swap2\n      pop\n        /* \"#utility.yul\":2409:2427   */\n      0x496420616c726561647920657869737400000000000000000000000000000000\n        /* \"#utility.yul\":2405:2406   */\n      0x00\n        /* \"#utility.yul\":2400:2403   */\n      dup4\n        /* \"#utility.yul\":2396:2407   */\n      add\n        /* \"#utility.yul\":2389:2428   */\n      mstore\n        /* \"#utility.yul\":2454:2456   */\n      0x20\n        /* \"#utility.yul\":2449:2452   */\n      dup3\n        /* \"#utility.yul\":2445:2457   */\n      add\n        /* \"#utility.yul\":2438:2457   */\n      swap1\n      pop\n        /* \"#utility.yul\":2295:2463   */\n      swap2\n      swap1\n      pop\n      jump\t// out\n        /* \"#utility.yul\":2469:2783   */\n    tag_97:\n      0x00\n        /* \"#utility.yul\":2632:2699   */\n      tag_99\n        /* \"#utility.yul\":2696:2698   */\n      0x10\n        /* \"#utility.yul\":2691:2694   */\n      dup4\n        /* \"#utility.yul\":2632:2699   */\n      tag_90\n      jump\t// in\n    tag_99:\n        /* \"#utility.yul\":2625:2699   */\n      swap2\n      pop\n        /* \"#utility.yul\":2729:2747   */\n      0x496e76616c6964207175616e7469747900000000000000000000000000000000\n        /* \"#utility.yul\":2725:2726   */\n      0x00\n        /* \"#utility.yul\":2720:2723   */\n      dup4\n        /* \"#utility.yul\":2716:2727   */\n      add\n        /* \"#utility.yul\":2709:2748   */\n      mstore\n        /* \"#utility.yul\":2774:2776   */\n      0x20\n        /* \"#utility.yul\":2769:2772   */\n      dup3\n        /* \"#utility.yul\":2765:2777   */\n      add\n        /* \"#utility.yul\":2758:2777   */\n      swap1\n      pop\n        /* \"#utility.yul\":2615:2783   */\n      swap2\n      swap1\n      pop\n      jump\t// out\n        /* \"#utility.yul\":2789:2897   */\n    tag_72:\n        /* \"#utility.yul\":2866:2890   */\n      tag_101\n        /* \"#utility.yul\":2884:2889   */\n      dup2\n        /* \"#utility.yul\":2866:2890   */\n      tag_102\n      jump\t// in\n    tag_101:\n        /* \"#utility.yul\":2861:2864   */\n      dup3\n        /* \"#utility.yul\":2854:2891   */\n      mstore\n        /* \"#utility.yul\":2844:2897   */\n      pop\n      pop\n      jump\t// out\n        /* \"#utility.yul\":2903:3537   */\n    tag_17:\n      0x00\n        /* \"#utility.yul\":3162:3164   */\n      0x40\n        /* \"#utility.yul\":3151:3160   */\n      dup3\n        /* \"#utility.yul\":3147:3165   */\n      add\n        /* \"#utility.yul\":3139:3165   */\n      swap1\n      pop\n        /* \"#utility.yul\":3211:3220   */\n      dup2\n        /* \"#utility.yul\":3205:3209   */\n      dup2\n        /* \"#utility.yul\":3201:3221   */\n      sub\n        /* \"#utility.yul\":3197:3198   */\n      0x00\n        /* \"#utility.yul\":3186:3195   */\n      dup4\n        /* \"#utility.yul\":3182:3199   */\n      add\n        /* \"#utility.yul\":3175:3222   */\n      mstore\n        /* \"#utility.yul\":3239:3347   */\n      tag_104\n        /* \"#utility.yul\":3342:3346   */\n      dup2\n        /* \"#utility.yul\":3333:3339   */\n      dup6\n        /* \"#utility.yul\":3239:3347   */\n      tag_73\n      jump\t// in\n    tag_104:\n        /* \"#utility.yul\":3231:3347   */\n      swap1\n      pop\n        /* \"#utility.yul\":3394:3403   */\n      dup2\n        /* \"#utility.yul\":3388:3392   */\n      dup2\n        /* \"#utility.yul\":3384:3404   */\n      sub\n        /* \"#utility.yul\":3379:3381   */\n      0x20\n        /* \"#utility.yul\":3368:3377   */\n      dup4\n        /* \"#utility.yul\":3364:3382   */\n      add\n        /* \"#utility.yul\":3357:3405   */\n      mstore\n        /* \"#utility.yul\":3422:3530   */\n      tag_105\n        /* \"#utility.yul\":3525:3529   */\n      dup2\n        /* \"#utility.yul\":3516:3522   */\n      dup5\n        /* \"#utility.yul\":3422:3530   */\n      tag_73\n      jump\t// in\n    tag_105:\n        /* \"#utility.yul\":3414:3530   */\n      swap1\n      pop\n        /* \"#utility.yul\":3129:3537   */\n      swap4\n      swap3\n      pop\n      pop\n      pop\n      jump\t// out\n        /* \"#utility.yul\":3543:3962   */\n    tag_24:\n      0x00\n        /* \"#utility.yul\":3747:3749   */\n      0x20\n        /* \"#utility.yul\":3736:3745   */\n      dup3\n        /* \"#utility.yul\":3732:3750   */\n      add\n        /* \"#utility.yul\":3724:3750   */\n      swap1\n      pop\n        /* \"#utility.yul\":3796:3805   */\n      dup2\n        /* \"#utility.yul\":3790:3794   */\n      dup2\n        /* \"#utility.yul\":3786:3806   */\n      sub\n        /* \"#utility.yul\":3782:3783   */\n      0x00\n        /* \"#utility.yul\":3771:3780   */\n      dup4\n        /* \"#utility.yul\":3767:3784   */\n      add\n        /* \"#utility.yul\":3760:3807   */\n      mstore\n        /* \"#utility.yul\":3824:3955   */\n      tag_107\n        /* \"#utility.yul\":3950:3954   */\n      dup2\n        /* \"#utility.yul\":3824:3955   */\n      tag_87\n      jump\t// in\n    tag_107:\n        /* \"#utility.yul\":3816:3955   */\n      swap1\n      pop\n        /* \"#utility.yul\":3714:3962   */\n      swap2\n      swap1\n      pop\n      jump\t// out\n        /* \"#utility.yul\":3968:4387   */\n    tag_33:\n      0x00\n        /* \"#utility.yul\":4172:4174   */\n      0x20\n        /* \"#utility.yul\":4161:4170   */\n      dup3\n        /* \"#utility.yul\":4157:4175   */\n      add\n        /* \"#utility.yul\":4149:4175   */\n      swap1\n      pop\n        /* \"#utility.yul\":4221:4230   */\n      dup2\n        /* \"#utility.yul\":4215:4219   */\n      dup2\n        /* \"#utility.yul\":4211:4231   */\n      sub\n        /* \"#utility.yul\":4207:4208   */\n      0x00\n        /* \"#utility.yul\":4196:4205   */\n      dup4\n        /* \"#utility.yul\":4192:4209   */\n      add\n        /* \"#utility.yul\":4185:4232   */\n      mstore\n        /* \"#utility.yul\":4249:4380   */\n      tag_109\n        /* \"#utility.yul\":4375:4379   */\n      dup2\n        /* \"#utility.yul\":4249:4380   */\n      tag_91\n      jump\t// in\n    tag_109:\n        /* \"#utility.yul\":4241:4380   */\n      swap1\n      pop\n        /* \"#utility.yul\":4139:4387   */\n      swap2\n      swap1\n      pop\n      jump\t// out\n        /* \"#utility.yul\":4393:4812   */\n    tag_28:\n      0x00\n        /* \"#utility.yul\":4597:4599   */\n      0x20\n        /* \"#utility.yul\":4586:4595   */\n      dup3\n        /* \"#utility.yul\":4582:4600   */\n      add\n        /* \"#utility.yul\":4574:4600   */\n      swap1\n      pop\n        /* \"#utility.yul\":4646:4655   */\n      dup2\n        /* \"#utility.yul\":4640:4644   */\n      dup2\n        /* \"#utility.yul\":4636:4656   */\n      sub\n        /* \"#utility.yul\":4632:4633   */\n      0x00\n        /* \"#utility.yul\":4621:4630   */\n      dup4\n        /* \"#utility.yul\":4617:4634   */\n      add\n        /* \"#utility.yul\":4610:4657   */\n      mstore\n        /* \"#utility.yul\":4674:4805   */\n      tag_111\n        /* \"#utility.yul\":4800:4804   */\n      dup2\n        /* \"#utility.yul\":4674:4805   */\n      tag_94\n      jump\t// in\n    tag_111:\n        /* \"#utility.yul\":4666:4805   */\n      swap1\n      pop\n        /* \"#utility.yul\":4564:4812   */\n      swap2\n      swap1\n      pop\n      jump\t// out\n        /* \"#utility.yul\":4818:5237   */\n    tag_36:\n      0x00\n        /* \"#utility.yul\":5022:5024   */\n      0x20\n        /* \"#utility.yul\":5011:5020   */\n      dup3\n        /* \"#utility.yul\":5007:5025   */\n      add\n        /* \"#utility.yul\":4999:5025   */\n      swap1\n      pop\n        /* \"#utility.yul\":5071:5080   */\n      dup2\n        /* \"#utility.yul\":5065:5069   */\n      dup2\n        /* \"#utility.yul\":5061:5081   */\n      sub\n        /* \"#utility.yul\":5057:5058   */\n      0x00\n        /* \"#utility.yul\":5046:5055   */\n      dup4\n        /* \"#utility.yul\":5042:5059   */\n      add\n        /* \"#utility.yul\":5035:5082   */\n      mstore\n        /* \"#utility.yul\":5099:5230   */\n      tag_113\n        /* \"#utility.yul\":5225:5229   */\n      dup2\n        /* \"#utility.yul\":5099:5230   */\n      tag_97\n      jump\t// in\n    tag_113:\n        /* \"#utility.yul\":5091:5230   */\n      swap1\n      pop\n        /* \"#utility.yul\":4989:5237   */\n      swap2\n      swap1\n      pop\n      jump\t// out\n        /* \"#utility.yul\":5243:5375   */\n    tag_80:\n      0x00\n        /* \"#utility.yul\":5333:5336   */\n      dup2\n        /* \"#utility.yul\":5325:5336   */\n      swap1\n      pop\n        /* \"#utility.yul\":5363:5367   */\n      0x20\n        /* \"#utility.yul\":5358:5361   */\n      dup3\n        /* \"#utility.yul\":5354:5368   */\n      add\n        /* \"#utility.yul\":5346:5368   */\n      swap1\n      pop\n        /* \"#utility.yul\":5315:5375   */\n      swap2\n      swap1\n      pop\n      jump\t// out\n        /* \"#utility.yul\":5381:5495   */\n    tag_76:\n      0x00\n        /* \"#utility.yul\":5482:5487   */\n      dup2\n        /* \"#utility.yul\":5476:5488   */\n      mload\n        /* \"#utility.yul\":5466:5488   */\n      swap1\n      pop\n        /* \"#utility.yul\":5455:5495   */\n      swap2\n      swap1\n      pop\n      jump\t// out\n        /* \"#utility.yul\":5501:5614   */\n    tag_86:\n      0x00\n        /* \"#utility.yul\":5603:5607   */\n      0x20\n        /* \"#utility.yul\":5598:5601   */\n      dup3\n        /* \"#utility.yul\":5594:5608   */\n      add\n        /* \"#utility.yul\":5586:5608   */\n      swap1\n      pop\n        /* \"#utility.yul\":5576:5614   */\n      swap2\n      swap1\n      pop\n      jump\t// out\n        /* \"#utility.yul\":5620:5804   */\n    tag_78:\n      0x00\n        /* \"#utility.yul\":5753:5759   */\n      dup3\n        /* \"#utility.yul\":5748:5751   */\n      dup3\n        /* \"#utility.yul\":5741:5760   */\n      mstore\n        /* \"#utility.yul\":5793:5797   */\n      0x20\n        /* \"#utility.yul\":5788:5791   */\n      dup3\n        /* \"#utility.yul\":5784:5798   */\n      add\n        /* \"#utility.yul\":5769:5798   */\n      swap1\n      pop\n        /* \"#utility.yul\":5731:5804   */\n      swap3\n      swap2\n      pop\n      pop\n      jump\t// out\n        /* \"#utility.yul\":5810:5979   */\n    tag_90:\n      0x00\n        /* \"#utility.yul\":5928:5934   */\n      dup3\n        /* \"#utility.yul\":5923:5926   */\n      dup3\n        /* \"#utility.yul\":5916:5935   */\n      mstore\n        /* \"#utility.yul\":5968:5972   */\n      0x20\n        /* \"#utility.yul\":5963:5966   */\n      dup3\n        /* \"#utility.yul\":5959:5973   */\n      add\n        /* \"#utility.yul\":5944:5973   */\n      swap1\n      pop\n        /* \"#utility.yul\":5906:5979   */\n      swap3\n      swap2\n      pop\n      pop\n      jump\t// out\n        /* \"#utility.yul\":5985:6176   */\n    tag_38:\n      0x00\n        /* \"#utility.yul\":6045:6065   */\n      tag_120\n        /* \"#utility.yul\":6063:6064   */\n      dup3\n        /* \"#utility.yul\":6045:6065   */\n      tag_102\n      jump\t// in\n    tag_120:\n        /* \"#utility.yul\":6040:6065   */\n      swap2\n      pop\n        /* \"#utility.yul\":6079:6099   */\n      tag_121\n        /* \"#utility.yul\":6097:6098   */\n      dup4\n        /* \"#utility.yul\":6079:6099   */\n      tag_102\n      jump\t// in\n    tag_121:\n        /* \"#utility.yul\":6074:6099   */\n      swap3\n      pop\n        /* \"#utility.yul\":6118:6119   */\n      dup3\n        /* \"#utility.yul\":6115:6116   */\n      dup3\n        /* \"#utility.yul\":6112:6120   */\n      lt\n        /* \"#utility.yul\":6109:6111   */\n      iszero\n      tag_122\n      jumpi\n        /* \"#utility.yul\":6123:6141   */\n      tag_123\n      tag_124\n      jump\t// in\n    tag_123:\n        /* \"#utility.yul\":6109:6111   */\n    tag_122:\n        /* \"#utility.yul\":6168:6169   */\n      dup3\n        /* \"#utility.yul\":6165:6166   */\n      dup3\n        /* \"#utility.yul\":6161:6170   */\n      sub\n        /* \"#utility.yul\":6153:6170   */\n      swap1\n      pop\n        /* \"#utility.yul\":6030:6176   */\n      swap3\n      swap2\n      pop\n      pop\n      jump\t// out\n        /* \"#utility.yul\":6182:6259   */\n    tag_102:\n      0x00\n        /* \"#utility.yul\":6248:6253   */\n      dup2\n        /* \"#utility.yul\":6237:6253   */\n      swap1\n      pop\n        /* \"#utility.yul\":6227:6259   */\n      swap2\n      swap1\n      pop\n      jump\t// out\n        /* \"#utility.yul\":6265:6498   */\n    tag_50:\n      0x00\n        /* \"#utility.yul\":6327:6351   */\n      tag_127\n        /* \"#utility.yul\":6345:6350   */\n      dup3\n        /* \"#utility.yul\":6327:6351   */\n      tag_102\n      jump\t// in\n    tag_127:\n        /* \"#utility.yul\":6318:6351   */\n      swap2\n      pop\n        /* \"#utility.yul\":6373:6439   */\n      0xffffffffffffffffffffffffffffffffffffffffffffffffffffffffffffffff\n        /* \"#utility.yul\":6366:6371   */\n      dup3\n        /* \"#utility.yul\":6363:6440   */\n      eq\n        /* \"#utility.yul\":6360:6362   */\n      iszero\n      tag_128\n      jumpi\n        /* \"#utility.yul\":6443:6461   */\n      tag_129\n      tag_124\n      jump\t// in\n    tag_129:\n        /* \"#utility.yul\":6360:6362   */\n    tag_128:\n        /* \"#utility.yul\":6490:6491   */\n      0x01\n        /* \"#utility.yul\":6483:6488   */\n      dup3\n        /* \"#utility.yul\":6479:6492   */\n      add\n        /* \"#utility.yul\":6472:6492   */\n      swap1\n      pop\n        /* \"#utility.yul\":6308:6498   */\n      swap2\n      swap1\n      pop\n      jump\t// out\n        /* \"#utility.yul\":6504:6684   */\n    tag_124:\n        /* \"#utility.yul\":6552:6629   */\n      0x4e487b7100000000000000000000000000000000000000000000000000000000\n        /* \"#utility.yul\":6549:6550   */\n      0x00\n        /* \"#utility.yul\":6542:6630   */\n      mstore\n        /* \"#utility.yul\":6649:6653   */\n      0x11\n        /* \"#utility.yul\":6646:6647   */\n      0x04\n        /* \"#utility.yul\":6639:6654   */\n      mstore\n        /* \"#utility.yul\":6673:6677   */\n      0x24\n        /* \"#utility.yul\":6670:6671   */\n      0x00\n        /* \"#utility.yul\":6663:6678   */\n      revert\n        /* \"#utility.yul\":6690:6812   */\n    tag_64:\n        /* \"#utility.yul\":6763:6787   */\n      tag_132\n        /* \"#utility.yul\":6781:6786   */\n      dup2\n        /* \"#utility.yul\":6763:6787   */\n      tag_102\n      jump\t// in\n    tag_132:\n        /* \"#utility.yul\":6756:6761   */\n      dup2\n        /* \"#utility.yul\":6753:6788   */\n      eq\n        /* \"#utility.yul\":6743:6745   */\n      tag_133\n      jumpi\n        /* \"#utility.yul\":6802:6803   */\n      0x00\n        /* \"#utility.yul\":6799:6800   */\n      dup1\n        /* \"#utility.yul\":6792:6804   */\n      revert\n        /* \"#utility.yul\":6743:6745   */\n    tag_133:\n        /* \"#utility.yul\":6733:6812   */\n      pop\n      jump\t// out\n\n    auxdata: 0xa2646970667358221220c65b91f3873e74d7eb4796db63a66f86eaa0688dade36b070b62a5fd8e31f1fe64736f6c63430008000033\n}\n",
				"bytecode": {
					"linkReferences": {},
					"object": "608060405234801561001057600080fd5b50336000806101000a81548173ffffffffffffffffffffffffffffffffffffffff021916908373ffffffffffffffffffffffffffffffffffffffff160217905550610a27806100606000396000f3fe608060405234801561001057600080fd5b506004361061004c5760003560e01c806331f45cab1461005157806353b628661461006d5780637253d6a0146100895780638b692479146100a8575b600080fd5b61006b60048036038101906100669190610662565b6100c4565b005b61008760048036038101906100829190610662565b610224565b005b610091610353565b60405161009f929190610823565b60405180910390f35b6100c260048036038101906100bd9190610662565b6104ed565b005b3373ffffffffffffffffffffffffffffffffffffffff1660008054906101000a900473ffffffffffffffffffffffffffffffffffffffff1673ffffffffffffffffffffffffffffffffffffffff1614610152576040517f08c379a00000000000000000000000000000000000000000000000000000000081526004016101499061085a565b60405180910390fd5b6003600083815260200190815260200160002060009054906101000a900460ff16156101b3576040517f08c379a00000000000000000000000000000000000000000000000000000000081526004016101aa9061089a565b60405180910390fd5b600182908060018154018082558091505060019003906000526020600020016000909190919091505580600260008481526020019081526020016000208190555060016003600084815260200190815260200160002060006101000a81548160ff0219169083151502179055505050565b6003600083815260200190815260200160002060009054906101000a900460ff16610284576040517f08c379a000000000000000000000000000000000000000000000000000000000815260040161027b9061087a565b60405180910390fd5b80600260008481526020019081526020016000205410156102da576040517f08c379a00000000000000000000000000000000000000000000000000000000081526004016102d1906108ba565b60405180910390fd5b806002600084815260200190815260200160002060008282546102fd9190610924565b9250508190555060006002600084815260200190815260200160002054101561034f577f4e487b7100000000000000000000000000000000000000000000000000000000600052600160045260246000fd5b5050565b606080600060018054905067ffffffffffffffff81111561039d577f4e487b7100000000000000000000000000000000000000000000000000000000600052604160045260246000fd5b6040519080825280602002602001820160405280156103cb5781602001602082028036833780820191505090505b50905060005b60018054905081101561048e57600260006001838154811061041c577f4e487b7100000000000000000000000000000000000000000000000000000000600052603260045260246000fd5b906000526020600020015481526020019081526020016000205482828151811061046f577f4e487b7100000000000000000000000000000000000000000000000000000000600052603260045260246000fd5b602002602001018181525050808061048690610962565b9150506103d1565b50600181818054806020026020016040519081016040528092919081815260200182805480156104dd57602002820191906000526020600020905b8154815260200190600101908083116104c9575b5050505050915092509250509091565b3373ffffffffffffffffffffffffffffffffffffffff1660008054906101000a900473ffffffffffffffffffffffffffffffffffffffff1673ffffffffffffffffffffffffffffffffffffffff161461057b576040517f08c379a00000000000000000000000000000000000000000000000000000000081526004016105729061085a565b60405180910390fd5b6003600083815260200190815260200160002060009054906101000a900460ff16156105dc576040517f08c379a00000000000000000000000000000000000000000000000000000000081526004016105d39061089a565b60405180910390fd5b600182908060018154018082558091505060019003906000526020600020016000909190919091505580600260008481526020019081526020016000208190555060016003600084815260200190815260200160002060006101000a81548160ff0219169083151502179055505050565b60008135905061065c816109da565b92915050565b6000806040838503121561067557600080fd5b60006106838582860161064d565b92505060206106948582860161064d565b9150509250929050565b60006106aa8383610814565b60208301905092915050565b60006106c1826108ea565b6106cb8185610902565b93506106d6836108da565b8060005b838110156107075781516106ee888261069e565b97506106f9836108f5565b9250506001810190506106da565b5085935050505092915050565b6000610721600d83610913565b91507f4163636573732044656e696564000000000000000000000000000000000000006000830152602082019050919050565b6000610761600a83610913565b91507f496e76616c6964204964000000000000000000000000000000000000000000006000830152602082019050919050565b60006107a1601083610913565b91507f496420616c7265616479206578697374000000000000000000000000000000006000830152602082019050919050565b60006107e1601083610913565b91507f496e76616c6964207175616e74697479000000000000000000000000000000006000830152602082019050919050565b61081d81610958565b82525050565b6000604082019050818103600083015261083d81856106b6565b9050818103602083015261085181846106b6565b90509392505050565b6000602082019050818103600083015261087381610714565b9050919050565b6000602082019050818103600083015261089381610754565b9050919050565b600060208201905081810360008301526108b381610794565b9050919050565b600060208201905081810360008301526108d3816107d4565b9050919050565b6000819050602082019050919050565b600081519050919050565b6000602082019050919050565b600082825260208201905092915050565b600082825260208201905092915050565b600061092f82610958565b915061093a83610958565b92508282101561094d5761094c6109ab565b5b828203905092915050565b6000819050919050565b600061096d82610958565b91507fffffffffffffffffffffffffffffffffffffffffffffffffffffffffffffffff8214156109a05761099f6109ab565b5b600182019050919050565b7f4e487b7100000000000000000000000000000000000000000000000000000000600052601160045260246000fd5b6109e381610958565b81146109ee57600080fd5b5056fea2646970667358221220c65b91f3873e74d7eb4796db63a66f86eaa0688dade36b070b62a5fd8e31f1fe64736f6c63430008000033",
					"opcodes": "PUSH1 0x80 PUSH1 0x40 MSTORE CALLVALUE DUP1 ISZERO PUSH2 0x10 JUMPI PUSH1 0x0 DUP1 REVERT JUMPDEST POP CALLER PUSH1 0x0 DUP1 PUSH2 0x100 EXP DUP2 SLOAD DUP2 PUSH20 0xFFFFFFFFFFFFFFFFFFFFFFFFFFFFFFFFFFFFFFFF MUL NOT AND SWAP1 DUP4 PUSH20 0xFFFFFFFFFFFFFFFFFFFFFFFFFFFFFFFFFFFFFFFF AND MUL OR SWAP1 SSTORE POP PUSH2 0xA27 DUP1 PUSH2 0x60 PUSH1 0x0 CODECOPY PUSH1 0x0 RETURN INVALID PUSH1 0x80 PUSH1 0x40 MSTORE CALLVALUE DUP1 ISZERO PUSH2 0x10 JUMPI PUSH1 0x0 DUP1 REVERT JUMPDEST POP PUSH1 0x4 CALLDATASIZE LT PUSH2 0x4C JUMPI PUSH1 0x0 CALLDATALOAD PUSH1 0xE0 SHR DUP1 PUSH4 0x31F45CAB EQ PUSH2 0x51 JUMPI DUP1 PUSH4 0x53B62866 EQ PUSH2 0x6D JUMPI DUP1 PUSH4 0x7253D6A0 EQ PUSH2 0x89 JUMPI DUP1 PUSH4 0x8B692479 EQ PUSH2 0xA8 JUMPI JUMPDEST PUSH1 0x0 DUP1 REVERT JUMPDEST PUSH2 0x6B PUSH1 0x4 DUP1 CALLDATASIZE SUB DUP2 ADD SWAP1 PUSH2 0x66 SWAP2 SWAP1 PUSH2 0x662 JUMP JUMPDEST PUSH2 0xC4 JUMP JUMPDEST STOP JUMPDEST PUSH2 0x87 PUSH1 0x4 DUP1 CALLDATASIZE SUB DUP2 ADD SWAP1 PUSH2 0x82 SWAP2 SWAP1 PUSH2 0x662 JUMP JUMPDEST PUSH2 0x224 JUMP JUMPDEST STOP JUMPDEST PUSH2 0x91 PUSH2 0x353 JUMP JUMPDEST PUSH1 0x40 MLOAD PUSH2 0x9F SWAP3 SWAP2 SWAP1 PUSH2 0x823 JUMP JUMPDEST PUSH1 0x40 MLOAD DUP1 SWAP2 SUB SWAP1 RETURN JUMPDEST PUSH2 0xC2 PUSH1 0x4 DUP1 CALLDATASIZE SUB DUP2 ADD SWAP1 PUSH2 0xBD SWAP2 SWAP1 PUSH2 0x662 JUMP JUMPDEST PUSH2 0x4ED JUMP JUMPDEST STOP JUMPDEST CALLER PUSH20 0xFFFFFFFFFFFFFFFFFFFFFFFFFFFFFFFFFFFFFFFF AND PUSH1 0x0 DUP1 SLOAD SWAP1 PUSH2 0x100 EXP SWAP1 DIV PUSH20 0xFFFFFFFFFFFFFFFFFFFFFFFFFFFFFFFFFFFFFFFF AND PUSH20 0xFFFFFFFFFFFFFFFFFFFFFFFFFFFFFFFFFFFFFFFF AND EQ PUSH2 0x152 JUMPI PUSH1 0x40 MLOAD PUSH32 0x8C379A000000000000000000000000000000000000000000000000000000000 DUP2 MSTORE PUSH1 0x4 ADD PUSH2 0x149 SWAP1 PUSH2 0x85A JUMP JUMPDEST PUSH1 0x40 MLOAD DUP1 SWAP2 SUB SWAP1 REVERT JUMPDEST PUSH1 0x3 PUSH1 0x0 DUP4 DUP2 MSTORE PUSH1 0x20 ADD SWAP1 DUP2 MSTORE PUSH1 0x20 ADD PUSH1 0x0 KECCAK256 PUSH1 0x0 SWAP1 SLOAD SWAP1 PUSH2 0x100 EXP SWAP1 DIV PUSH1 0xFF AND ISZERO PUSH2 0x1B3 JUMPI PUSH1 0x40 MLOAD PUSH32 0x8C379A000000000000000000000000000000000000000000000000000000000 DUP2 MSTORE PUSH1 0x4 ADD PUSH2 0x1AA SWAP1 PUSH2 0x89A JUMP JUMPDEST PUSH1 0x40 MLOAD DUP1 SWAP2 SUB SWAP1 REVERT JUMPDEST PUSH1 0x1 DUP3 SWAP1 DUP1 PUSH1 0x1 DUP2 SLOAD ADD DUP1 DUP3 SSTORE DUP1 SWAP2 POP POP PUSH1 0x1 SWAP1 SUB SWAP1 PUSH1 0x0 MSTORE PUSH1 0x20 PUSH1 0x0 KECCAK256 ADD PUSH1 0x0 SWAP1 SWAP2 SWAP1 SWAP2 SWAP1 SWAP2 POP SSTORE DUP1 PUSH1 0x2 PUSH1 0x0 DUP5 DUP2 MSTORE PUSH1 0x20 ADD SWAP1 DUP2 MSTORE PUSH1 0x20 ADD PUSH1 0x0 KECCAK256 DUP2 SWAP1 SSTORE POP PUSH1 0x1 PUSH1 0x3 PUSH1 0x0 DUP5 DUP2 MSTORE PUSH1 0x20 ADD SWAP1 DUP2 MSTORE PUSH1 0x20 ADD PUSH1 0x0 KECCAK256 PUSH1 0x0 PUSH2 0x100 EXP DUP2 SLOAD DUP2 PUSH1 0xFF MUL NOT AND SWAP1 DUP4 ISZERO ISZERO MUL OR SWAP1 SSTORE POP POP POP JUMP JUMPDEST PUSH1 0x3 PUSH1 0x0 DUP4 DUP2 MSTORE PUSH1 0x20 ADD SWAP1 DUP2 MSTORE PUSH1 0x20 ADD PUSH1 0x0 KECCAK256 PUSH1 0x0 SWAP1 SLOAD SWAP1 PUSH2 0x100 EXP SWAP1 DIV PUSH1 0xFF AND PUSH2 0x284 JUMPI PUSH1 0x40 MLOAD PUSH32 0x8C379A000000000000000000000000000000000000000000000000000000000 DUP2 MSTORE PUSH1 0x4 ADD PUSH2 0x27B SWAP1 PUSH2 0x87A JUMP JUMPDEST PUSH1 0x40 MLOAD DUP1 SWAP2 SUB SWAP1 REVERT JUMPDEST DUP1 PUSH1 0x2 PUSH1 0x0 DUP5 DUP2 MSTORE PUSH1 0x20 ADD SWAP1 DUP2 MSTORE PUSH1 0x20 ADD PUSH1 0x0 KECCAK256 SLOAD LT ISZERO PUSH2 0x2DA JUMPI PUSH1 0x40 MLOAD PUSH32 0x8C379A000000000000000000000000000000000000000000000000000000000 DUP2 MSTORE PUSH1 0x4 ADD PUSH2 0x2D1 SWAP1 PUSH2 0x8BA JUMP JUMPDEST PUSH1 0x40 MLOAD DUP1 SWAP2 SUB SWAP1 REVERT JUMPDEST DUP1 PUSH1 0x2 PUSH1 0x0 DUP5 DUP2 MSTORE PUSH1 0x20 ADD SWAP1 DUP2 MSTORE PUSH1 0x20 ADD PUSH1 0x0 KECCAK256 PUSH1 0x0 DUP3 DUP3 SLOAD PUSH2 0x2FD SWAP2 SWAP1 PUSH2 0x924 JUMP JUMPDEST SWAP3 POP POP DUP2 SWAP1 SSTORE POP PUSH1 0x0 PUSH1 0x2 PUSH1 0x0 DUP5 DUP2 MSTORE PUSH1 0x20 ADD SWAP1 DUP2 MSTORE PUSH1 0x20 ADD PUSH1 0x0 KECCAK256 SLOAD LT ISZERO PUSH2 0x34F JUMPI PUSH32 0x4E487B7100000000000000000000000000000000000000000000000000000000 PUSH1 0x0 MSTORE PUSH1 0x1 PUSH1 0x4 MSTORE PUSH1 0x24 PUSH1 0x0 REVERT JUMPDEST POP POP JUMP JUMPDEST PUSH1 0x60 DUP1 PUSH1 0x0 PUSH1 0x1 DUP1 SLOAD SWAP1 POP PUSH8 0xFFFFFFFFFFFFFFFF DUP2 GT ISZERO PUSH2 0x39D JUMPI PUSH32 0x4E487B7100000000000000000000000000000000000000000000000000000000 PUSH1 0x0 MSTORE PUSH1 0x41 PUSH1 0x4 MSTORE PUSH1 0x24 PUSH1 0x0 REVERT JUMPDEST PUSH1 0x40 MLOAD SWAP1 DUP1 DUP3 MSTORE DUP1 PUSH1 0x20 MUL PUSH1 0x20 ADD DUP3 ADD PUSH1 0x40 MSTORE DUP1 ISZERO PUSH2 0x3CB JUMPI DUP2 PUSH1 0x20 ADD PUSH1 0x20 DUP3 MUL DUP1 CALLDATASIZE DUP4 CALLDATACOPY DUP1 DUP3 ADD SWAP2 POP POP SWAP1 POP JUMPDEST POP SWAP1 POP PUSH1 0x0 JUMPDEST PUSH1 0x1 DUP1 SLOAD SWAP1 POP DUP2 LT ISZERO PUSH2 0x48E JUMPI PUSH1 0x2 PUSH1 0x0 PUSH1 0x1 DUP4 DUP2 SLOAD DUP2 LT PUSH2 0x41C JUMPI PUSH32 0x4E487B7100000000000000000000000000000000000000000000000000000000 PUSH1 0x0 MSTORE PUSH1 0x32 PUSH1 0x4 MSTORE PUSH1 0x24 PUSH1 0x0 REVERT JUMPDEST SWAP1 PUSH1 0x0 MSTORE PUSH1 0x20 PUSH1 0x0 KECCAK256 ADD SLOAD DUP2 MSTORE PUSH1 0x20 ADD SWAP1 DUP2 MSTORE PUSH1 0x20 ADD PUSH1 0x0 KECCAK256 SLOAD DUP3 DUP3 DUP2 MLOAD DUP2 LT PUSH2 0x46F JUMPI PUSH32 0x4E487B7100000000000000000000000000000000000000000000000000000000 PUSH1 0x0 MSTORE PUSH1 0x32 PUSH1 0x4 MSTORE PUSH1 0x24 PUSH1 0x0 REVERT JUMPDEST PUSH1 0x20 MUL PUSH1 0x20 ADD ADD DUP2 DUP2 MSTORE POP POP DUP1 DUP1 PUSH2 0x486 SWAP1 PUSH2 0x962 JUMP JUMPDEST SWAP2 POP POP PUSH2 0x3D1 JUMP JUMPDEST POP PUSH1 0x1 DUP2 DUP2 DUP1 SLOAD DUP1 PUSH1 0x20 MUL PUSH1 0x20 ADD PUSH1 0x40 MLOAD SWAP1 DUP2 ADD PUSH1 0x40 MSTORE DUP1 SWAP3 SWAP2 SWAP1 DUP2 DUP2 MSTORE PUSH1 0x20 ADD DUP3 DUP1 SLOAD DUP1 ISZERO PUSH2 0x4DD JUMPI PUSH1 0x20 MUL DUP3 ADD SWAP2 SWAP1 PUSH1 0x0 MSTORE PUSH1 0x20 PUSH1 0x0 KECCAK256 SWAP1 JUMPDEST DUP2 SLOAD DUP2 MSTORE PUSH1 0x20 ADD SWAP1 PUSH1 0x1 ADD SWAP1 DUP1 DUP4 GT PUSH2 0x4C9 JUMPI JUMPDEST POP POP POP POP POP SWAP2 POP SWAP3 POP SWAP3 POP POP SWAP1 SWAP2 JUMP JUMPDEST CALLER PUSH20 0xFFFFFFFFFFFFFFFFFFFFFFFFFFFFFFFFFFFFFFFF AND PUSH1 0x0 DUP1 SLOAD SWAP1 PUSH2 0x100 EXP SWAP1 DIV PUSH20 0xFFFFFFFFFFFFFFFFFFFFFFFFFFFFFFFFFFFFFFFF AND PUSH20 0xFFFFFFFFFFFFFFFFFFFFFFFFFFFFFFFFFFFFFFFF AND EQ PUSH2 0x57B JUMPI PUSH1 0x40 MLOAD PUSH32 0x8C379A000000000000000000000000000000000000000000000000000000000 DUP2 MSTORE PUSH1 0x4 ADD PUSH2 0x572 SWAP1 PUSH2 0x85A JUMP JUMPDEST PUSH1 0x40 MLOAD DUP1 SWAP2 SUB SWAP1 REVERT JUMPDEST PUSH1 0x3 PUSH1 0x0 DUP4 DUP2 MSTORE PUSH1 0x20 ADD SWAP1 DUP2 MSTORE PUSH1 0x20 ADD PUSH1 0x0 KECCAK256 PUSH1 0x0 SWAP1 SLOAD SWAP1 PUSH2 0x100 EXP SWAP1 DIV PUSH1 0xFF AND ISZERO PUSH2 0x5DC JUMPI PUSH1 0x40 MLOAD PUSH32 0x8C379A000000000000000000000000000000000000000000000000000000000 DUP2 MSTORE PUSH1 0x4 ADD PUSH2 0x5D3 SWAP1 PUSH2 0x89A JUMP JUMPDEST PUSH1 0x40 MLOAD DUP1 SWAP2 SUB SWAP1 REVERT JUMPDEST PUSH1 0x1 DUP3 SWAP1 DUP1 PUSH1 0x1 DUP2 SLOAD ADD DUP1 DUP3 SSTORE DUP1 SWAP2 POP POP PUSH1 0x1 SWAP1 SUB SWAP1 PUSH1 0x0 MSTORE PUSH1 0x20 PUSH1 0x0 KECCAK256 ADD PUSH1 0x0 SWAP1 SWAP2 SWAP1 SWAP2 SWAP1 SWAP2 POP SSTORE DUP1 PUSH1 0x2 PUSH1 0x0 DUP5 DUP2 MSTORE PUSH1 0x20 ADD SWAP1 DUP2 MSTORE PUSH1 0x20 ADD PUSH1 0x0 KECCAK256 DUP2 SWAP1 SSTORE POP PUSH1 0x1 PUSH1 0x3 PUSH1 0x0 DUP5 DUP2 MSTORE PUSH1 0x20 ADD SWAP1 DUP2 MSTORE PUSH1 0x20 ADD PUSH1 0x0 KECCAK256 PUSH1 0x0 PUSH2 0x100 EXP DUP2 SLOAD DUP2 PUSH1 0xFF MUL NOT AND SWAP1 DUP4 ISZERO ISZERO MUL OR SWAP1 SSTORE POP POP POP JUMP JUMPDEST PUSH1 0x0 DUP2 CALLDATALOAD SWAP1 POP PUSH2 0x65C DUP2 PUSH2 0x9DA JUMP JUMPDEST SWAP3 SWAP2 POP POP JUMP JUMPDEST PUSH1 0x0 DUP1 PUSH1 0x40 DUP4 DUP6 SUB SLT ISZERO PUSH2 0x675 JUMPI PUSH1 0x0 DUP1 REVERT JUMPDEST PUSH1 0x0 PUSH2 0x683 DUP6 DUP3 DUP7 ADD PUSH2 0x64D JUMP JUMPDEST SWAP3 POP POP PUSH1 0x20 PUSH2 0x694 DUP6 DUP3 DUP7 ADD PUSH2 0x64D JUMP JUMPDEST SWAP2 POP POP SWAP3 POP SWAP3 SWAP1 POP JUMP JUMPDEST PUSH1 0x0 PUSH2 0x6AA DUP4 DUP4 PUSH2 0x814 JUMP JUMPDEST PUSH1 0x20 DUP4 ADD SWAP1 POP SWAP3 SWAP2 POP POP JUMP JUMPDEST PUSH1 0x0 PUSH2 0x6C1 DUP3 PUSH2 0x8EA JUMP JUMPDEST PUSH2 0x6CB DUP2 DUP6 PUSH2 0x902 JUMP JUMPDEST SWAP4 POP PUSH2 0x6D6 DUP4 PUSH2 0x8DA JUMP JUMPDEST DUP1 PUSH1 0x0 JUMPDEST DUP4 DUP2 LT ISZERO PUSH2 0x707 JUMPI DUP2 MLOAD PUSH2 0x6EE DUP9 DUP3 PUSH2 0x69E JUMP JUMPDEST SWAP8 POP PUSH2 0x6F9 DUP4 PUSH2 0x8F5 JUMP JUMPDEST SWAP3 POP POP PUSH1 0x1 DUP2 ADD SWAP1 POP PUSH2 0x6DA JUMP JUMPDEST POP DUP6 SWAP4 POP POP POP POP SWAP3 SWAP2 POP POP JUMP JUMPDEST PUSH1 0x0 PUSH2 0x721 PUSH1 0xD DUP4 PUSH2 0x913 JUMP JUMPDEST SWAP2 POP PUSH32 0x4163636573732044656E69656400000000000000000000000000000000000000 PUSH1 0x0 DUP4 ADD MSTORE PUSH1 0x20 DUP3 ADD SWAP1 POP SWAP2 SWAP1 POP JUMP JUMPDEST PUSH1 0x0 PUSH2 0x761 PUSH1 0xA DUP4 PUSH2 0x913 JUMP JUMPDEST SWAP2 POP PUSH32 0x496E76616C696420496400000000000000000000000000000000000000000000 PUSH1 0x0 DUP4 ADD MSTORE PUSH1 0x20 DUP3 ADD SWAP1 POP SWAP2 SWAP1 POP JUMP JUMPDEST PUSH1 0x0 PUSH2 0x7A1 PUSH1 0x10 DUP4 PUSH2 0x913 JUMP JUMPDEST SWAP2 POP PUSH32 0x496420616C726561647920657869737400000000000000000000000000000000 PUSH1 0x0 DUP4 ADD MSTORE PUSH1 0x20 DUP3 ADD SWAP1 POP SWAP2 SWAP1 POP JUMP JUMPDEST PUSH1 0x0 PUSH2 0x7E1 PUSH1 0x10 DUP4 PUSH2 0x913 JUMP JUMPDEST SWAP2 POP PUSH32 0x496E76616C6964207175616E7469747900000000000000000000000000000000 PUSH1 0x0 DUP4 ADD MSTORE PUSH1 0x20 DUP3 ADD SWAP1 POP SWAP2 SWAP1 POP JUMP JUMPDEST PUSH2 0x81D DUP2 PUSH2 0x958 JUMP JUMPDEST DUP3 MSTORE POP POP JUMP JUMPDEST PUSH1 0x0 PUSH1 0x40 DUP3 ADD SWAP1 POP DUP2 DUP2 SUB PUSH1 0x0 DUP4 ADD MSTORE PUSH2 0x83D DUP2 DUP6 PUSH2 0x6B6 JUMP JUMPDEST SWAP1 POP DUP2 DUP2 SUB PUSH1 0x20 DUP4 ADD MSTORE PUSH2 0x851 DUP2 DUP5 PUSH2 0x6B6 JUMP JUMPDEST SWAP1 POP SWAP4 SWAP3 POP POP POP JUMP JUMPDEST PUSH1 0x0 PUSH1 0x20 DUP3 ADD SWAP1 POP DUP2 DUP2 SUB PUSH1 0x0 DUP4 ADD MSTORE PUSH2 0x873 DUP2 PUSH2 0x714 JUMP JUMPDEST SWAP1 POP SWAP2 SWAP1 POP JUMP JUMPDEST PUSH1 0x0 PUSH1 0x20 DUP3 ADD SWAP1 POP DUP2 DUP2 SUB PUSH1 0x0 DUP4 ADD MSTORE PUSH2 0x893 DUP2 PUSH2 0x754 JUMP JUMPDEST SWAP1 POP SWAP2 SWAP1 POP JUMP JUMPDEST PUSH1 0x0 PUSH1 0x20 DUP3 ADD SWAP1 POP DUP2 DUP2 SUB PUSH1 0x0 DUP4 ADD MSTORE PUSH2 0x8B3 DUP2 PUSH2 0x794 JUMP JUMPDEST SWAP1 POP SWAP2 SWAP1 POP JUMP JUMPDEST PUSH1 0x0 PUSH1 0x20 DUP3 ADD SWAP1 POP DUP2 DUP2 SUB PUSH1 0x0 DUP4 ADD MSTORE PUSH2 0x8D3 DUP2 PUSH2 0x7D4 JUMP JUMPDEST SWAP1 POP SWAP2 SWAP1 POP JUMP JUMPDEST PUSH1 0x0 DUP2 SWAP1 POP PUSH1 0x20 DUP3 ADD SWAP1 POP SWAP2 SWAP1 POP JUMP JUMPDEST PUSH1 0x0 DUP2 MLOAD SWAP1 POP SWAP2 SWAP1 POP JUMP JUMPDEST PUSH1 0x0 PUSH1 0x20 DUP3 ADD SWAP1 POP SWAP2 SWAP1 POP JUMP JUMPDEST PUSH1 0x0 DUP3 DUP3 MSTORE PUSH1 0x20 DUP3 ADD SWAP1 POP SWAP3 SWAP2 POP POP JUMP JUMPDEST PUSH1 0x0 DUP3 DUP3 MSTORE PUSH1 0x20 DUP3 ADD SWAP1 POP SWAP3 SWAP2 POP POP JUMP JUMPDEST PUSH1 0x0 PUSH2 0x92F DUP3 PUSH2 0x958 JUMP JUMPDEST SWAP2 POP PUSH2 0x93A DUP4 PUSH2 0x958 JUMP JUMPDEST SWAP3 POP DUP3 DUP3 LT ISZERO PUSH2 0x94D JUMPI PUSH2 0x94C PUSH2 0x9AB JUMP JUMPDEST JUMPDEST DUP3 DUP3 SUB SWAP1 POP SWAP3 SWAP2 POP POP JUMP JUMPDEST PUSH1 0x0 DUP2 SWAP1 POP SWAP2 SWAP1 POP JUMP JUMPDEST PUSH1 0x0 PUSH2 0x96D DUP3 PUSH2 0x958 JUMP JUMPDEST SWAP2 POP PUSH32 0xFFFFFFFFFFFFFFFFFFFFFFFFFFFFFFFFFFFFFFFFFFFFFFFFFFFFFFFFFFFFFFFF DUP3 EQ ISZERO PUSH2 0x9A0 JUMPI PUSH2 0x99F PUSH2 0x9AB JUMP JUMPDEST JUMPDEST PUSH1 0x1 DUP3 ADD SWAP1 POP SWAP2 SWAP1 POP JUMP JUMPDEST PUSH32 0x4E487B7100000000000000000000000000000000000000000000000000000000 PUSH1 0x0 MSTORE PUSH1 0x11 PUSH1 0x4 MSTORE PUSH1 0x24 PUSH1 0x0 REVERT JUMPDEST PUSH2 0x9E3 DUP2 PUSH2 0x958 JUMP JUMPDEST DUP2 EQ PUSH2 0x9EE JUMPI PUSH1 0x0 DUP1 REVERT JUMPDEST POP JUMP INVALID LOG2 PUSH5 0x6970667358 0x22 SLT KECCAK256 0xC6 JUMPDEST SWAP2 RETURN DUP8 RETURNDATACOPY PUSH21 0xD7EB4796DB63A66F86EAA0688DADE36B070B62A5FD DUP15 BALANCE CALL INVALID PUSH5 0x736F6C6343 STOP ADDMOD STOP STOP CALLER "
				},
				"gasEstimates": {
					"creation": {
						"codeDepositCost": "519800",
						"executionCost": "21422",
						"totalCost": "541222"
					},
					"external": {
						"addProduct(uint256,uint256)": "infinite",
						"buyProduct(uint256,uint256)": "infinite",
						"getFullDetails()": "infinite",
						"updateProduct(uint256,uint256)": "infinite"
					}
				},
				"methodIdentifiers": {
					"addProduct(uint256,uint256)": "8b692479",
					"buyProduct(uint256,uint256)": "53b62866",
					"getFullDetails()": "7253d6a0",
					"updateProduct(uint256,uint256)": "31f45cab"
				}
			},
			"storageLayout": {
				"storage": [
					{
						"astId": 3,
						"contract": "Practice/Stock.sol:Inventory_Management",
						"label": "owner",
						"offset": 0,
						"slot": "0",
						"type": "t_address"
					},
					{
						"astId": 6,
						"contract": "Practice/Stock.sol:Inventory_Management",
						"label": "productID",
						"offset": 0,
						"slot": "1",
						"type": "t_array(t_uint256)dyn_storage"
					},
					{
						"astId": 10,
						"contract": "Practice/Stock.sol:Inventory_Management",
						"label": "product_stock",
						"offset": 0,
						"slot": "2",
						"type": "t_mapping(t_uint256,t_uint256)"
					},
					{
						"astId": 14,
						"contract": "Practice/Stock.sol:Inventory_Management",
						"label": "isExisted",
						"offset": 0,
						"slot": "3",
						"type": "t_mapping(t_uint256,t_bool)"
					}
				],
				"types": {
					"t_address": {
						"encoding": "inplace",
						"label": "address",
						"numberOfBytes": "20"
					},
					"t_array(t_uint256)dyn_storage": {
						"base": "t_uint256",
						"encoding": "dynamic_array",
						"label": "uint256[]",
						"numberOfBytes": "32"
					},
					"t_bool": {
						"encoding": "inplace",
						"label": "bool",
						"numberOfBytes": "1"
					},
					"t_mapping(t_uint256,t_bool)": {
						"encoding": "mapping",
						"key": "t_uint256",
						"label": "mapping(uint256 => bool)",
						"numberOfBytes": "32",
						"value": "t_bool"
					},
					"t_mapping(t_uint256,t_uint256)": {
						"encoding": "mapping",
						"key": "t_uint256",
						"label": "mapping(uint256 => uint256)",
						"numberOfBytes": "32",
						"value": "t_uint256"
					},
					"t_uint256": {
						"encoding": "inplace",
						"label": "uint256",
						"numberOfBytes": "32"
					}
				}
			},
			"userdoc": {
				"kind": "user",
				"methods": {},
				"version": 1
			}
		}
	}
}