{
	"Practice/currencyConversion.sol": {
		"currencyConversion": {
			"abi": [
				{
					"inputs": [],
					"stateMutability": "nonpayable",
					"type": "constructor"
				},
				{
					"inputs": [
						{
							"internalType": "string",
							"name": "currency",
							"type": "string"
						},
						{
							"internalType": "uint256",
							"name": "amount",
							"type": "uint256"
						}
					],
					"name": "convert",
					"outputs": [
						{
							"internalType": "uint256",
							"name": "",
							"type": "uint256"
						}
					],
					"stateMutability": "view",
					"type": "function"
				},
				{
					"inputs": [],
					"name": "owner",
					"outputs": [
						{
							"internalType": "address",
							"name": "",
							"type": "address"
						}
					],
					"stateMutability": "view",
					"type": "function"
				},
				{
					"inputs": [
						{
							"internalType": "string",
							"name": "",
							"type": "string"
						}
					],
					"name": "rates",
					"outputs": [
						{
							"internalType": "uint256",
							"name": "",
							"type": "uint256"
						}
					],
					"stateMutability": "view",
					"type": "function"
				},
				{
					"inputs": [
						{
							"internalType": "string",
							"name": "currency",
							"type": "string"
						},
						{
							"internalType": "uint256",
							"name": "rate",
							"type": "uint256"
						}
					],
					"name": "setRate",
					"outputs": [],
					"stateMutability": "nonpayable",
					"type": "function"
				}
			],
			"devdoc": {
				"kind": "dev",
				"methods": {},
				"version": 1
			},
			"evm": {
				"assembly": "    /* \"Practice/currencyConversion.sol\":60:657  contract currencyConversion{\r... */\n  mstore(0x40, 0x80)\n    /* \"Practice/currencyConversion.sol\":123:174  constructor() {\r... */\n  callvalue\n  dup1\n  iszero\n  tag_1\n  jumpi\n  0x00\n  dup1\n  revert\ntag_1:\n  pop\n    /* \"Practice/currencyConversion.sol\":156:166  msg.sender */\n  caller\n    /* \"Practice/currencyConversion.sol\":148:153  owner */\n  0x00\n  dup1\n    /* \"Practice/currencyConversion.sol\":148:166  owner = msg.sender */\n  0x0100\n  exp\n  dup2\n  sload\n  dup2\n  0xffffffffffffffffffffffffffffffffffffffff\n  mul\n  not\n  and\n  swap1\n  dup4\n  0xffffffffffffffffffffffffffffffffffffffff\n  and\n  mul\n  or\n  swap1\n  sstore\n  pop\n    /* \"Practice/currencyConversion.sol\":60:657  contract currencyConversion{\r... */\n  dataSize(sub_0)\n  dup1\n  dataOffset(sub_0)\n  0x00\n  codecopy\n  0x00\n  return\nstop\n\nsub_0: assembly {\n        /* \"Practice/currencyConversion.sol\":60:657  contract currencyConversion{\r... */\n      mstore(0x40, 0x80)\n      callvalue\n      dup1\n      iszero\n      tag_1\n      jumpi\n      0x00\n      dup1\n      revert\n    tag_1:\n      pop\n      jumpi(tag_2, lt(calldatasize, 0x04))\n      shr(0xe0, calldataload(0x00))\n      dup1\n      0x1181dfc5\n      eq\n      tag_3\n      jumpi\n      dup1\n      0x705f964b\n      eq\n      tag_4\n      jumpi\n      dup1\n      0x8da5cb5b\n      eq\n      tag_5\n      jumpi\n      dup1\n      0xc84cda0f\n      eq\n      tag_6\n      jumpi\n    tag_2:\n      0x00\n      dup1\n      revert\n        /* \"Practice/currencyConversion.sol\":448:654  function convert(string memory currency, uint amount) external view returns (uint) {\r... */\n    tag_3:\n      tag_7\n      0x04\n      dup1\n      calldatasize\n      sub\n      dup2\n      add\n      swap1\n      tag_8\n      swap2\n      swap1\n      tag_9\n      jump\t// in\n    tag_8:\n      tag_10\n      jump\t// in\n    tag_7:\n      mload(0x40)\n      tag_11\n      swap2\n      swap1\n      tag_12\n      jump\t// in\n    tag_11:\n      mload(0x40)\n      dup1\n      swap2\n      sub\n      swap1\n      return\n        /* \"Practice/currencyConversion.sol\":283:319  mapping(string => uint) public rates */\n    tag_4:\n      tag_13\n      0x04\n      dup1\n      calldatasize\n      sub\n      dup2\n      add\n      swap1\n      tag_14\n      swap2\n      swap1\n      tag_15\n      jump\t// in\n    tag_14:\n      tag_16\n      jump\t// in\n    tag_13:\n      mload(0x40)\n      tag_17\n      swap2\n      swap1\n      tag_12\n      jump\t// in\n    tag_17:\n      mload(0x40)\n      dup1\n      swap2\n      sub\n      swap1\n      return\n        /* \"Practice/currencyConversion.sol\":94:114  address public owner */\n    tag_5:\n      tag_18\n      tag_19\n      jump\t// in\n    tag_18:\n      mload(0x40)\n      tag_20\n      swap2\n      swap1\n      tag_21\n      jump\t// in\n    tag_20:\n      mload(0x40)\n      dup1\n      swap2\n      sub\n      swap1\n      return\n        /* \"Practice/currencyConversion.sol\":328:440  function setRate(string memory currency, uint rate) external onlyOwner {\r... */\n    tag_6:\n      tag_22\n      0x04\n      dup1\n      calldatasize\n      sub\n      dup2\n      add\n      swap1\n      tag_23\n      swap2\n      swap1\n      tag_9\n      jump\t// in\n    tag_23:\n      tag_24\n      jump\t// in\n    tag_22:\n      stop\n        /* \"Practice/currencyConversion.sol\":448:654  function convert(string memory currency, uint amount) external view returns (uint) {\r... */\n    tag_10:\n        /* \"Practice/currencyConversion.sol\":525:529  uint */\n      0x00\n        /* \"Practice/currencyConversion.sol\":542:551  uint rate */\n      dup1\n        /* \"Practice/currencyConversion.sol\":554:559  rates */\n      0x01\n        /* \"Practice/currencyConversion.sol\":560:568  currency */\n      dup5\n        /* \"Practice/currencyConversion.sol\":554:569  rates[currency] */\n      mload(0x40)\n      tag_26\n      swap2\n      swap1\n      tag_27\n      jump\t// in\n    tag_26:\n      swap1\n      dup2\n      mstore\n      0x20\n      add\n      mload(0x40)\n      dup1\n      swap2\n      sub\n      swap1\n      keccak256\n      sload\n        /* \"Practice/currencyConversion.sol\":542:569  uint rate = rates[currency] */\n      swap1\n      pop\n        /* \"Practice/currencyConversion.sol\":595:596  0 */\n      0x00\n        /* \"Practice/currencyConversion.sol\":588:592  rate */\n      dup2\n        /* \"Practice/currencyConversion.sol\":588:596  rate > 0 */\n      gt\n        /* \"Practice/currencyConversion.sol\":580:613  require(rate > 0, \"Rate not set\") */\n      tag_28\n      jumpi\n      mload(0x40)\n      0x08c379a000000000000000000000000000000000000000000000000000000000\n      dup2\n      mstore\n      0x04\n      add\n      tag_29\n      swap1\n      tag_30\n      jump\t// in\n    tag_29:\n      mload(0x40)\n      dup1\n      swap2\n      sub\n      swap1\n      revert\n    tag_28:\n        /* \"Practice/currencyConversion.sol\":642:646  rate */\n      dup1\n        /* \"Practice/currencyConversion.sol\":633:639  amount */\n      dup4\n        /* \"Practice/currencyConversion.sol\":633:646  amount * rate */\n      tag_31\n      swap2\n      swap1\n      tag_32\n      jump\t// in\n    tag_31:\n        /* \"Practice/currencyConversion.sol\":626:646  return amount * rate */\n      swap2\n      pop\n      pop\n        /* \"Practice/currencyConversion.sol\":448:654  function convert(string memory currency, uint amount) external view returns (uint) {\r... */\n      swap3\n      swap2\n      pop\n      pop\n      jump\t// out\n        /* \"Practice/currencyConversion.sol\":283:319  mapping(string => uint) public rates */\n    tag_16:\n      0x01\n      dup2\n      dup1\n      mload\n      0x20\n      dup2\n      add\n      dup3\n      add\n      dup1\n      mload\n      dup5\n      dup3\n      mstore\n      0x20\n      dup4\n      add\n      0x20\n      dup6\n      add\n      keccak256\n      dup2\n      dup4\n      mstore\n      dup1\n      swap6\n      pop\n      pop\n      pop\n      pop\n      pop\n      pop\n      0x00\n      swap2\n      pop\n      swap1\n      pop\n      sload\n      dup2\n      jump\t// out\n        /* \"Practice/currencyConversion.sol\":94:114  address public owner */\n    tag_19:\n      0x00\n      dup1\n      sload\n      swap1\n      0x0100\n      exp\n      swap1\n      div\n      0xffffffffffffffffffffffffffffffffffffffff\n      and\n      dup2\n      jump\t// out\n        /* \"Practice/currencyConversion.sol\":328:440  function setRate(string memory currency, uint rate) external onlyOwner {\r... */\n    tag_24:\n        /* \"Practice/currencyConversion.sol\":236:241  owner */\n      0x00\n      dup1\n      sload\n      swap1\n      0x0100\n      exp\n      swap1\n      div\n      0xffffffffffffffffffffffffffffffffffffffff\n      and\n        /* \"Practice/currencyConversion.sol\":222:241  msg.sender == owner */\n      0xffffffffffffffffffffffffffffffffffffffff\n      and\n        /* \"Practice/currencyConversion.sol\":222:232  msg.sender */\n      caller\n        /* \"Practice/currencyConversion.sol\":222:241  msg.sender == owner */\n      0xffffffffffffffffffffffffffffffffffffffff\n      and\n      eq\n        /* \"Practice/currencyConversion.sol\":214:255  require(msg.sender == owner, \"Not owner\") */\n      tag_34\n      jumpi\n      mload(0x40)\n      0x08c379a000000000000000000000000000000000000000000000000000000000\n      dup2\n      mstore\n      0x04\n      add\n      tag_35\n      swap1\n      tag_36\n      jump\t// in\n    tag_35:\n      mload(0x40)\n      dup1\n      swap2\n      sub\n      swap1\n      revert\n    tag_34:\n        /* \"Practice/currencyConversion.sol\":428:432  rate */\n      dup1\n        /* \"Practice/currencyConversion.sol\":410:415  rates */\n      0x01\n        /* \"Practice/currencyConversion.sol\":416:424  currency */\n      dup4\n        /* \"Practice/currencyConversion.sol\":410:425  rates[currency] */\n      mload(0x40)\n      tag_38\n      swap2\n      swap1\n      tag_27\n      jump\t// in\n    tag_38:\n      swap1\n      dup2\n      mstore\n      0x20\n      add\n      mload(0x40)\n      dup1\n      swap2\n      sub\n      swap1\n      keccak256\n        /* \"Practice/currencyConversion.sol\":410:432  rates[currency] = rate */\n      dup2\n      swap1\n      sstore\n      pop\n        /* \"Practice/currencyConversion.sol\":328:440  function setRate(string memory currency, uint rate) external onlyOwner {\r... */\n      pop\n      pop\n      jump\t// out\n        /* \"#utility.yul\":7:351   */\n    tag_40:\n      0x00\n        /* \"#utility.yul\":110:175   */\n      tag_42\n        /* \"#utility.yul\":125:174   */\n      tag_43\n        /* \"#utility.yul\":167:173   */\n      dup5\n        /* \"#utility.yul\":125:174   */\n      tag_44\n      jump\t// in\n    tag_43:\n        /* \"#utility.yul\":110:175   */\n      tag_45\n      jump\t// in\n    tag_42:\n        /* \"#utility.yul\":101:175   */\n      swap1\n      pop\n        /* \"#utility.yul\":198:204   */\n      dup3\n        /* \"#utility.yul\":191:196   */\n      dup2\n        /* \"#utility.yul\":184:205   */\n      mstore\n        /* \"#utility.yul\":236:240   */\n      0x20\n        /* \"#utility.yul\":229:234   */\n      dup2\n        /* \"#utility.yul\":225:241   */\n      add\n        /* \"#utility.yul\":274:277   */\n      dup5\n        /* \"#utility.yul\":265:271   */\n      dup5\n        /* \"#utility.yul\":260:263   */\n      dup5\n        /* \"#utility.yul\":256:272   */\n      add\n        /* \"#utility.yul\":253:278   */\n      gt\n        /* \"#utility.yul\":250:252   */\n      iszero\n      tag_46\n      jumpi\n        /* \"#utility.yul\":291:292   */\n      0x00\n        /* \"#utility.yul\":288:289   */\n      dup1\n        /* \"#utility.yul\":281:293   */\n      revert\n        /* \"#utility.yul\":250:252   */\n    tag_46:\n        /* \"#utility.yul\":304:345   */\n      tag_47\n        /* \"#utility.yul\":338:344   */\n      dup5\n        /* \"#utility.yul\":333:336   */\n      dup3\n        /* \"#utility.yul\":328:331   */\n      dup6\n        /* \"#utility.yul\":304:345   */\n      tag_48\n      jump\t// in\n    tag_47:\n        /* \"#utility.yul\":91:351   */\n      pop\n      swap4\n      swap3\n      pop\n      pop\n      pop\n      jump\t// out\n        /* \"#utility.yul\":371:644   */\n    tag_49:\n      0x00\n        /* \"#utility.yul\":476:479   */\n      dup3\n        /* \"#utility.yul\":469:473   */\n      0x1f\n        /* \"#utility.yul\":461:467   */\n      dup4\n        /* \"#utility.yul\":457:474   */\n      add\n        /* \"#utility.yul\":453:480   */\n      slt\n        /* \"#utility.yul\":443:445   */\n      tag_51\n      jumpi\n        /* \"#utility.yul\":494:495   */\n      0x00\n        /* \"#utility.yul\":491:492   */\n      dup1\n        /* \"#utility.yul\":484:496   */\n      revert\n        /* \"#utility.yul\":443:445   */\n    tag_51:\n        /* \"#utility.yul\":534:540   */\n      dup2\n        /* \"#utility.yul\":521:541   */\n      calldataload\n        /* \"#utility.yul\":559:638   */\n      tag_52\n        /* \"#utility.yul\":634:637   */\n      dup5\n        /* \"#utility.yul\":626:632   */\n      dup3\n        /* \"#utility.yul\":619:623   */\n      0x20\n        /* \"#utility.yul\":611:617   */\n      dup7\n        /* \"#utility.yul\":607:624   */\n      add\n        /* \"#utility.yul\":559:638   */\n      tag_40\n      jump\t// in\n    tag_52:\n        /* \"#utility.yul\":550:638   */\n      swap2\n      pop\n        /* \"#utility.yul\":433:644   */\n      pop\n      swap3\n      swap2\n      pop\n      pop\n      jump\t// out\n        /* \"#utility.yul\":650:789   */\n    tag_53:\n      0x00\n        /* \"#utility.yul\":734:740   */\n      dup2\n        /* \"#utility.yul\":721:741   */\n      calldataload\n        /* \"#utility.yul\":712:741   */\n      swap1\n      pop\n        /* \"#utility.yul\":750:783   */\n      tag_55\n        /* \"#utility.yul\":777:782   */\n      dup2\n        /* \"#utility.yul\":750:783   */\n      tag_56\n      jump\t// in\n    tag_55:\n        /* \"#utility.yul\":702:789   */\n      swap3\n      swap2\n      pop\n      pop\n      jump\t// out\n        /* \"#utility.yul\":795:1170   */\n    tag_15:\n      0x00\n        /* \"#utility.yul\":913:915   */\n      0x20\n        /* \"#utility.yul\":901:910   */\n      dup3\n        /* \"#utility.yul\":892:899   */\n      dup5\n        /* \"#utility.yul\":888:911   */\n      sub\n        /* \"#utility.yul\":884:916   */\n      slt\n        /* \"#utility.yul\":881:883   */\n      iszero\n      tag_58\n      jumpi\n        /* \"#utility.yul\":929:930   */\n      0x00\n        /* \"#utility.yul\":926:927   */\n      dup1\n        /* \"#utility.yul\":919:931   */\n      revert\n        /* \"#utility.yul\":881:883   */\n    tag_58:\n        /* \"#utility.yul\":1000:1001   */\n      0x00\n        /* \"#utility.yul\":989:998   */\n      dup3\n        /* \"#utility.yul\":985:1002   */\n      add\n        /* \"#utility.yul\":972:1003   */\n      calldataload\n        /* \"#utility.yul\":1030:1048   */\n      0xffffffffffffffff\n        /* \"#utility.yul\":1022:1028   */\n      dup2\n        /* \"#utility.yul\":1019:1049   */\n      gt\n        /* \"#utility.yul\":1016:1018   */\n      iszero\n      tag_59\n      jumpi\n        /* \"#utility.yul\":1062:1063   */\n      0x00\n        /* \"#utility.yul\":1059:1060   */\n      dup1\n        /* \"#utility.yul\":1052:1064   */\n      revert\n        /* \"#utility.yul\":1016:1018   */\n    tag_59:\n        /* \"#utility.yul\":1090:1153   */\n      tag_60\n        /* \"#utility.yul\":1145:1152   */\n      dup5\n        /* \"#utility.yul\":1136:1142   */\n      dup3\n        /* \"#utility.yul\":1125:1134   */\n      dup6\n        /* \"#utility.yul\":1121:1143   */\n      add\n        /* \"#utility.yul\":1090:1153   */\n      tag_49\n      jump\t// in\n    tag_60:\n        /* \"#utility.yul\":1080:1153   */\n      swap2\n      pop\n        /* \"#utility.yul\":943:1163   */\n      pop\n        /* \"#utility.yul\":871:1170   */\n      swap3\n      swap2\n      pop\n      pop\n      jump\t// out\n        /* \"#utility.yul\":1176:1696   */\n    tag_9:\n      0x00\n      dup1\n        /* \"#utility.yul\":1311:1313   */\n      0x40\n        /* \"#utility.yul\":1299:1308   */\n      dup4\n        /* \"#utility.yul\":1290:1297   */\n      dup6\n        /* \"#utility.yul\":1286:1309   */\n      sub\n        /* \"#utility.yul\":1282:1314   */\n      slt\n        /* \"#utility.yul\":1279:1281   */\n      iszero\n      tag_62\n      jumpi\n        /* \"#utility.yul\":1327:1328   */\n      0x00\n        /* \"#utility.yul\":1324:1325   */\n      dup1\n        /* \"#utility.yul\":1317:1329   */\n      revert\n        /* \"#utility.yul\":1279:1281   */\n    tag_62:\n        /* \"#utility.yul\":1398:1399   */\n      0x00\n        /* \"#utility.yul\":1387:1396   */\n      dup4\n        /* \"#utility.yul\":1383:1400   */\n      add\n        /* \"#utility.yul\":1370:1401   */\n      calldataload\n        /* \"#utility.yul\":1428:1446   */\n      0xffffffffffffffff\n        /* \"#utility.yul\":1420:1426   */\n      dup2\n        /* \"#utility.yul\":1417:1447   */\n      gt\n        /* \"#utility.yul\":1414:1416   */\n      iszero\n      tag_63\n      jumpi\n        /* \"#utility.yul\":1460:1461   */\n      0x00\n        /* \"#utility.yul\":1457:1458   */\n      dup1\n        /* \"#utility.yul\":1450:1462   */\n      revert\n        /* \"#utility.yul\":1414:1416   */\n    tag_63:\n        /* \"#utility.yul\":1488:1551   */\n      tag_64\n        /* \"#utility.yul\":1543:1550   */\n      dup6\n        /* \"#utility.yul\":1534:1540   */\n      dup3\n        /* \"#utility.yul\":1523:1532   */\n      dup7\n        /* \"#utility.yul\":1519:1541   */\n      add\n        /* \"#utility.yul\":1488:1551   */\n      tag_49\n      jump\t// in\n    tag_64:\n        /* \"#utility.yul\":1478:1551   */\n      swap3\n      pop\n        /* \"#utility.yul\":1341:1561   */\n      pop\n        /* \"#utility.yul\":1600:1602   */\n      0x20\n        /* \"#utility.yul\":1626:1679   */\n      tag_65\n        /* \"#utility.yul\":1671:1678   */\n      dup6\n        /* \"#utility.yul\":1662:1668   */\n      dup3\n        /* \"#utility.yul\":1651:1660   */\n      dup7\n        /* \"#utility.yul\":1647:1669   */\n      add\n        /* \"#utility.yul\":1626:1679   */\n      tag_53\n      jump\t// in\n    tag_65:\n        /* \"#utility.yul\":1616:1679   */\n      swap2\n      pop\n        /* \"#utility.yul\":1571:1689   */\n      pop\n        /* \"#utility.yul\":1269:1696   */\n      swap3\n      pop\n      swap3\n      swap1\n      pop\n      jump\t// out\n        /* \"#utility.yul\":1702:1820   */\n    tag_66:\n        /* \"#utility.yul\":1789:1813   */\n      tag_68\n        /* \"#utility.yul\":1807:1812   */\n      dup2\n        /* \"#utility.yul\":1789:1813   */\n      tag_69\n      jump\t// in\n    tag_68:\n        /* \"#utility.yul\":1784:1787   */\n      dup3\n        /* \"#utility.yul\":1777:1814   */\n      mstore\n        /* \"#utility.yul\":1767:1820   */\n      pop\n      pop\n      jump\t// out\n        /* \"#utility.yul\":1826:2203   */\n    tag_70:\n      0x00\n        /* \"#utility.yul\":1960:1999   */\n      tag_72\n        /* \"#utility.yul\":1993:1998   */\n      dup3\n        /* \"#utility.yul\":1960:1999   */\n      tag_73\n      jump\t// in\n    tag_72:\n        /* \"#utility.yul\":2015:2104   */\n      tag_74\n        /* \"#utility.yul\":2097:2103   */\n      dup2\n        /* \"#utility.yul\":2092:2095   */\n      dup6\n        /* \"#utility.yul\":2015:2104   */\n      tag_75\n      jump\t// in\n    tag_74:\n        /* \"#utility.yul\":2008:2104   */\n      swap4\n      pop\n        /* \"#utility.yul\":2113:2165   */\n      tag_76\n        /* \"#utility.yul\":2158:2164   */\n      dup2\n        /* \"#utility.yul\":2153:2156   */\n      dup6\n        /* \"#utility.yul\":2146:2150   */\n      0x20\n        /* \"#utility.yul\":2139:2144   */\n      dup7\n        /* \"#utility.yul\":2135:2151   */\n      add\n        /* \"#utility.yul\":2113:2165   */\n      tag_77\n      jump\t// in\n    tag_76:\n        /* \"#utility.yul\":2190:2196   */\n      dup1\n        /* \"#utility.yul\":2185:2188   */\n      dup5\n        /* \"#utility.yul\":2181:2197   */\n      add\n        /* \"#utility.yul\":2174:2197   */\n      swap2\n      pop\n        /* \"#utility.yul\":1936:2203   */\n      pop\n      swap3\n      swap2\n      pop\n      pop\n      jump\t// out\n        /* \"#utility.yul\":2209:2515   */\n    tag_78:\n      0x00\n        /* \"#utility.yul\":2372:2438   */\n      tag_80\n        /* \"#utility.yul\":2436:2437   */\n      0x09\n        /* \"#utility.yul\":2431:2434   */\n      dup4\n        /* \"#utility.yul\":2372:2438   */\n      tag_81\n      jump\t// in\n    tag_80:\n        /* \"#utility.yul\":2365:2438   */\n      swap2\n      pop\n        /* \"#utility.yul\":2468:2479   */\n      0x4e6f74206f776e65720000000000000000000000000000000000000000000000\n        /* \"#utility.yul\":2464:2465   */\n      0x00\n        /* \"#utility.yul\":2459:2462   */\n      dup4\n        /* \"#utility.yul\":2455:2466   */\n      add\n        /* \"#utility.yul\":2448:2480   */\n      mstore\n        /* \"#utility.yul\":2506:2508   */\n      0x20\n        /* \"#utility.yul\":2501:2504   */\n      dup3\n        /* \"#utility.yul\":2497:2509   */\n      add\n        /* \"#utility.yul\":2490:2509   */\n      swap1\n      pop\n        /* \"#utility.yul\":2355:2515   */\n      swap2\n      swap1\n      pop\n      jump\t// out\n        /* \"#utility.yul\":2521:2831   */\n    tag_82:\n      0x00\n        /* \"#utility.yul\":2684:2751   */\n      tag_84\n        /* \"#utility.yul\":2748:2750   */\n      0x0c\n        /* \"#utility.yul\":2743:2746   */\n      dup4\n        /* \"#utility.yul\":2684:2751   */\n      tag_81\n      jump\t// in\n    tag_84:\n        /* \"#utility.yul\":2677:2751   */\n      swap2\n      pop\n        /* \"#utility.yul\":2781:2795   */\n      0x52617465206e6f74207365740000000000000000000000000000000000000000\n        /* \"#utility.yul\":2777:2778   */\n      0x00\n        /* \"#utility.yul\":2772:2775   */\n      dup4\n        /* \"#utility.yul\":2768:2779   */\n      add\n        /* \"#utility.yul\":2761:2796   */\n      mstore\n        /* \"#utility.yul\":2822:2824   */\n      0x20\n        /* \"#utility.yul\":2817:2820   */\n      dup3\n        /* \"#utility.yul\":2813:2825   */\n      add\n        /* \"#utility.yul\":2806:2825   */\n      swap1\n      pop\n        /* \"#utility.yul\":2667:2831   */\n      swap2\n      swap1\n      pop\n      jump\t// out\n        /* \"#utility.yul\":2837:2955   */\n    tag_85:\n        /* \"#utility.yul\":2924:2948   */\n      tag_87\n        /* \"#utility.yul\":2942:2947   */\n      dup2\n        /* \"#utility.yul\":2924:2948   */\n      tag_88\n      jump\t// in\n    tag_87:\n        /* \"#utility.yul\":2919:2922   */\n      dup3\n        /* \"#utility.yul\":2912:2949   */\n      mstore\n        /* \"#utility.yul\":2902:2955   */\n      pop\n      pop\n      jump\t// out\n        /* \"#utility.yul\":2961:3236   */\n    tag_27:\n      0x00\n        /* \"#utility.yul\":3115:3210   */\n      tag_90\n        /* \"#utility.yul\":3206:3209   */\n      dup3\n        /* \"#utility.yul\":3197:3203   */\n      dup5\n        /* \"#utility.yul\":3115:3210   */\n      tag_70\n      jump\t// in\n    tag_90:\n        /* \"#utility.yul\":3108:3210   */\n      swap2\n      pop\n        /* \"#utility.yul\":3227:3230   */\n      dup2\n        /* \"#utility.yul\":3220:3230   */\n      swap1\n      pop\n        /* \"#utility.yul\":3097:3236   */\n      swap3\n      swap2\n      pop\n      pop\n      jump\t// out\n        /* \"#utility.yul\":3242:3464   */\n    tag_21:\n      0x00\n        /* \"#utility.yul\":3373:3375   */\n      0x20\n        /* \"#utility.yul\":3362:3371   */\n      dup3\n        /* \"#utility.yul\":3358:3376   */\n      add\n        /* \"#utility.yul\":3350:3376   */\n      swap1\n      pop\n        /* \"#utility.yul\":3386:3457   */\n      tag_92\n        /* \"#utility.yul\":3454:3455   */\n      0x00\n        /* \"#utility.yul\":3443:3452   */\n      dup4\n        /* \"#utility.yul\":3439:3456   */\n      add\n        /* \"#utility.yul\":3430:3436   */\n      dup5\n        /* \"#utility.yul\":3386:3457   */\n      tag_66\n      jump\t// in\n    tag_92:\n        /* \"#utility.yul\":3340:3464   */\n      swap3\n      swap2\n      pop\n      pop\n      jump\t// out\n        /* \"#utility.yul\":3470:3889   */\n    tag_36:\n      0x00\n        /* \"#utility.yul\":3674:3676   */\n      0x20\n        /* \"#utility.yul\":3663:3672   */\n      dup3\n        /* \"#utility.yul\":3659:3677   */\n      add\n        /* \"#utility.yul\":3651:3677   */\n      swap1\n      pop\n        /* \"#utility.yul\":3723:3732   */\n      dup2\n        /* \"#utility.yul\":3717:3721   */\n      dup2\n        /* \"#utility.yul\":3713:3733   */\n      sub\n        /* \"#utility.yul\":3709:3710   */\n      0x00\n        /* \"#utility.yul\":3698:3707   */\n      dup4\n        /* \"#utility.yul\":3694:3711   */\n      add\n        /* \"#utility.yul\":3687:3734   */\n      mstore\n        /* \"#utility.yul\":3751:3882   */\n      tag_94\n        /* \"#utility.yul\":3877:3881   */\n      dup2\n        /* \"#utility.yul\":3751:3882   */\n      tag_78\n      jump\t// in\n    tag_94:\n        /* \"#utility.yul\":3743:3882   */\n      swap1\n      pop\n        /* \"#utility.yul\":3641:3889   */\n      swap2\n      swap1\n      pop\n      jump\t// out\n        /* \"#utility.yul\":3895:4314   */\n    tag_30:\n      0x00\n        /* \"#utility.yul\":4099:4101   */\n      0x20\n        /* \"#utility.yul\":4088:4097   */\n      dup3\n        /* \"#utility.yul\":4084:4102   */\n      add\n        /* \"#utility.yul\":4076:4102   */\n      swap1\n      pop\n        /* \"#utility.yul\":4148:4157   */\n      dup2\n        /* \"#utility.yul\":4142:4146   */\n      dup2\n        /* \"#utility.yul\":4138:4158   */\n      sub\n        /* \"#utility.yul\":4134:4135   */\n      0x00\n        /* \"#utility.yul\":4123:4132   */\n      dup4\n        /* \"#utility.yul\":4119:4136   */\n      add\n        /* \"#utility.yul\":4112:4159   */\n      mstore\n        /* \"#utility.yul\":4176:4307   */\n      tag_96\n        /* \"#utility.yul\":4302:4306   */\n      dup2\n        /* \"#utility.yul\":4176:4307   */\n      tag_82\n      jump\t// in\n    tag_96:\n        /* \"#utility.yul\":4168:4307   */\n      swap1\n      pop\n        /* \"#utility.yul\":4066:4314   */\n      swap2\n      swap1\n      pop\n      jump\t// out\n        /* \"#utility.yul\":4320:4542   */\n    tag_12:\n      0x00\n        /* \"#utility.yul\":4451:4453   */\n      0x20\n        /* \"#utility.yul\":4440:4449   */\n      dup3\n        /* \"#utility.yul\":4436:4454   */\n      add\n        /* \"#utility.yul\":4428:4454   */\n      swap1\n      pop\n        /* \"#utility.yul\":4464:4535   */\n      tag_98\n        /* \"#utility.yul\":4532:4533   */\n      0x00\n        /* \"#utility.yul\":4521:4530   */\n      dup4\n        /* \"#utility.yul\":4517:4534   */\n      add\n        /* \"#utility.yul\":4508:4514   */\n      dup5\n        /* \"#utility.yul\":4464:4535   */\n      tag_85\n      jump\t// in\n    tag_98:\n        /* \"#utility.yul\":4418:4542   */\n      swap3\n      swap2\n      pop\n      pop\n      jump\t// out\n        /* \"#utility.yul\":4548:4831   */\n    tag_45:\n      0x00\n        /* \"#utility.yul\":4614:4616   */\n      0x40\n        /* \"#utility.yul\":4608:4617   */\n      mload\n        /* \"#utility.yul\":4598:4617   */\n      swap1\n      pop\n        /* \"#utility.yul\":4656:4660   */\n      dup2\n        /* \"#utility.yul\":4648:4654   */\n      dup2\n        /* \"#utility.yul\":4644:4661   */\n      add\n        /* \"#utility.yul\":4763:4769   */\n      dup2\n        /* \"#utility.yul\":4751:4761   */\n      dup2\n        /* \"#utility.yul\":4748:4770   */\n      lt\n        /* \"#utility.yul\":4727:4745   */\n      0xffffffffffffffff\n        /* \"#utility.yul\":4715:4725   */\n      dup3\n        /* \"#utility.yul\":4712:4746   */\n      gt\n        /* \"#utility.yul\":4709:4771   */\n      or\n        /* \"#utility.yul\":4706:4708   */\n      iszero\n      tag_100\n      jumpi\n        /* \"#utility.yul\":4774:4792   */\n      tag_101\n      tag_102\n      jump\t// in\n    tag_101:\n        /* \"#utility.yul\":4706:4708   */\n    tag_100:\n        /* \"#utility.yul\":4814:4824   */\n      dup1\n        /* \"#utility.yul\":4810:4812   */\n      0x40\n        /* \"#utility.yul\":4803:4825   */\n      mstore\n        /* \"#utility.yul\":4588:4831   */\n      pop\n      swap2\n      swap1\n      pop\n      jump\t// out\n        /* \"#utility.yul\":4837:5169   */\n    tag_44:\n      0x00\n        /* \"#utility.yul\":4989:5007   */\n      0xffffffffffffffff\n        /* \"#utility.yul\":4981:4987   */\n      dup3\n        /* \"#utility.yul\":4978:5008   */\n      gt\n        /* \"#utility.yul\":4975:4977   */\n      iszero\n      tag_104\n      jumpi\n        /* \"#utility.yul\":5011:5029   */\n      tag_105\n      tag_102\n      jump\t// in\n    tag_105:\n        /* \"#utility.yul\":4975:4977   */\n    tag_104:\n        /* \"#utility.yul\":5096:5100   */\n      0x1f\n        /* \"#utility.yul\":5092:5101   */\n      not\n        /* \"#utility.yul\":5085:5089   */\n      0x1f\n        /* \"#utility.yul\":5077:5083   */\n      dup4\n        /* \"#utility.yul\":5073:5090   */\n      add\n        /* \"#utility.yul\":5069:5102   */\n      and\n        /* \"#utility.yul\":5061:5102   */\n      swap1\n      pop\n        /* \"#utility.yul\":5157:5161   */\n      0x20\n        /* \"#utility.yul\":5151:5155   */\n      dup2\n        /* \"#utility.yul\":5147:5162   */\n      add\n        /* \"#utility.yul\":5139:5162   */\n      swap1\n      pop\n        /* \"#utility.yul\":4904:5169   */\n      swap2\n      swap1\n      pop\n      jump\t// out\n        /* \"#utility.yul\":5175:5274   */\n    tag_73:\n      0x00\n        /* \"#utility.yul\":5261:5266   */\n      dup2\n        /* \"#utility.yul\":5255:5267   */\n      mload\n        /* \"#utility.yul\":5245:5267   */\n      swap1\n      pop\n        /* \"#utility.yul\":5234:5274   */\n      swap2\n      swap1\n      pop\n      jump\t// out\n        /* \"#utility.yul\":5280:5449   */\n    tag_81:\n      0x00\n        /* \"#utility.yul\":5398:5404   */\n      dup3\n        /* \"#utility.yul\":5393:5396   */\n      dup3\n        /* \"#utility.yul\":5386:5405   */\n      mstore\n        /* \"#utility.yul\":5438:5442   */\n      0x20\n        /* \"#utility.yul\":5433:5436   */\n      dup3\n        /* \"#utility.yul\":5429:5443   */\n      add\n        /* \"#utility.yul\":5414:5443   */\n      swap1\n      pop\n        /* \"#utility.yul\":5376:5449   */\n      swap3\n      swap2\n      pop\n      pop\n      jump\t// out\n        /* \"#utility.yul\":5455:5603   */\n    tag_75:\n      0x00\n        /* \"#utility.yul\":5594:5597   */\n      dup2\n        /* \"#utility.yul\":5579:5597   */\n      swap1\n      pop\n        /* \"#utility.yul\":5569:5603   */\n      swap3\n      swap2\n      pop\n      pop\n      jump\t// out\n        /* \"#utility.yul\":5609:5957   */\n    tag_32:\n      0x00\n        /* \"#utility.yul\":5672:5692   */\n      tag_110\n        /* \"#utility.yul\":5690:5691   */\n      dup3\n        /* \"#utility.yul\":5672:5692   */\n      tag_88\n      jump\t// in\n    tag_110:\n        /* \"#utility.yul\":5667:5692   */\n      swap2\n      pop\n        /* \"#utility.yul\":5706:5726   */\n      tag_111\n        /* \"#utility.yul\":5724:5725   */\n      dup4\n        /* \"#utility.yul\":5706:5726   */\n      tag_88\n      jump\t// in\n    tag_111:\n        /* \"#utility.yul\":5701:5726   */\n      swap3\n      pop\n        /* \"#utility.yul\":5894:5895   */\n      dup2\n        /* \"#utility.yul\":5826:5892   */\n      0xffffffffffffffffffffffffffffffffffffffffffffffffffffffffffffffff\n        /* \"#utility.yul\":5822:5896   */\n      div\n        /* \"#utility.yul\":5819:5820   */\n      dup4\n        /* \"#utility.yul\":5816:5897   */\n      gt\n        /* \"#utility.yul\":5811:5812   */\n      dup3\n        /* \"#utility.yul\":5804:5813   */\n      iszero\n        /* \"#utility.yul\":5797:5814   */\n      iszero\n        /* \"#utility.yul\":5793:5898   */\n      and\n        /* \"#utility.yul\":5790:5792   */\n      iszero\n      tag_112\n      jumpi\n        /* \"#utility.yul\":5901:5919   */\n      tag_113\n      tag_114\n      jump\t// in\n    tag_113:\n        /* \"#utility.yul\":5790:5792   */\n    tag_112:\n        /* \"#utility.yul\":5949:5950   */\n      dup3\n        /* \"#utility.yul\":5946:5947   */\n      dup3\n        /* \"#utility.yul\":5942:5951   */\n      mul\n        /* \"#utility.yul\":5931:5951   */\n      swap1\n      pop\n        /* \"#utility.yul\":5657:5957   */\n      swap3\n      swap2\n      pop\n      pop\n      jump\t// out\n        /* \"#utility.yul\":5963:6059   */\n    tag_69:\n      0x00\n        /* \"#utility.yul\":6029:6053   */\n      tag_116\n        /* \"#utility.yul\":6047:6052   */\n      dup3\n        /* \"#utility.yul\":6029:6053   */\n      tag_117\n      jump\t// in\n    tag_116:\n        /* \"#utility.yul\":6018:6053   */\n      swap1\n      pop\n        /* \"#utility.yul\":6008:6059   */\n      swap2\n      swap1\n      pop\n      jump\t// out\n        /* \"#utility.yul\":6065:6191   */\n    tag_117:\n      0x00\n        /* \"#utility.yul\":6142:6184   */\n      0xffffffffffffffffffffffffffffffffffffffff\n        /* \"#utility.yul\":6135:6140   */\n      dup3\n        /* \"#utility.yul\":6131:6185   */\n      and\n        /* \"#utility.yul\":6120:6185   */\n      swap1\n      pop\n        /* \"#utility.yul\":6110:6191   */\n      swap2\n      swap1\n      pop\n      jump\t// out\n        /* \"#utility.yul\":6197:6274   */\n    tag_88:\n      0x00\n        /* \"#utility.yul\":6263:6268   */\n      dup2\n        /* \"#utility.yul\":6252:6268   */\n      swap1\n      pop\n        /* \"#utility.yul\":6242:6274   */\n      swap2\n      swap1\n      pop\n      jump\t// out\n        /* \"#utility.yul\":6280:6434   */\n    tag_48:\n        /* \"#utility.yul\":6364:6370   */\n      dup3\n        /* \"#utility.yul\":6359:6362   */\n      dup2\n        /* \"#utility.yul\":6354:6357   */\n      dup4\n        /* \"#utility.yul\":6341:6371   */\n      calldatacopy\n        /* \"#utility.yul\":6426:6427   */\n      0x00\n        /* \"#utility.yul\":6417:6423   */\n      dup4\n        /* \"#utility.yul\":6412:6415   */\n      dup4\n        /* \"#utility.yul\":6408:6424   */\n      add\n        /* \"#utility.yul\":6401:6428   */\n      mstore\n        /* \"#utility.yul\":6331:6434   */\n      pop\n      pop\n      pop\n      jump\t// out\n        /* \"#utility.yul\":6440:6747   */\n    tag_77:\n        /* \"#utility.yul\":6508:6509   */\n      0x00\n        /* \"#utility.yul\":6518:6631   */\n    tag_122:\n        /* \"#utility.yul\":6532:6538   */\n      dup4\n        /* \"#utility.yul\":6529:6530   */\n      dup2\n        /* \"#utility.yul\":6526:6539   */\n      lt\n        /* \"#utility.yul\":6518:6631   */\n      iszero\n      tag_124\n      jumpi\n        /* \"#utility.yul\":6617:6618   */\n      dup1\n        /* \"#utility.yul\":6612:6615   */\n      dup3\n        /* \"#utility.yul\":6608:6619   */\n      add\n        /* \"#utility.yul\":6602:6620   */\n      mload\n        /* \"#utility.yul\":6598:6599   */\n      dup2\n        /* \"#utility.yul\":6593:6596   */\n      dup5\n        /* \"#utility.yul\":6589:6600   */\n      add\n        /* \"#utility.yul\":6582:6621   */\n      mstore\n        /* \"#utility.yul\":6554:6556   */\n      0x20\n        /* \"#utility.yul\":6551:6552   */\n      dup2\n        /* \"#utility.yul\":6547:6557   */\n      add\n        /* \"#utility.yul\":6542:6557   */\n      swap1\n      pop\n        /* \"#utility.yul\":6518:6631   */\n      jump(tag_122)\n    tag_124:\n        /* \"#utility.yul\":6649:6655   */\n      dup4\n        /* \"#utility.yul\":6646:6647   */\n      dup2\n        /* \"#utility.yul\":6643:6656   */\n      gt\n        /* \"#utility.yul\":6640:6642   */\n      iszero\n      tag_125\n      jumpi\n        /* \"#utility.yul\":6729:6730   */\n      0x00\n        /* \"#utility.yul\":6720:6726   */\n      dup5\n        /* \"#utility.yul\":6715:6718   */\n      dup5\n        /* \"#utility.yul\":6711:6727   */\n      add\n        /* \"#utility.yul\":6704:6731   */\n      mstore\n        /* \"#utility.yul\":6640:6642   */\n    tag_125:\n        /* \"#utility.yul\":6489:6747   */\n      pop\n      pop\n      pop\n      pop\n      jump\t// out\n        /* \"#utility.yul\":6753:6933   */\n    tag_114:\n        /* \"#utility.yul\":6801:6878   */\n      0x4e487b7100000000000000000000000000000000000000000000000000000000\n        /* \"#utility.yul\":6798:6799   */\n      0x00\n        /* \"#utility.yul\":6791:6879   */\n      mstore\n        /* \"#utility.yul\":6898:6902   */\n      0x11\n        /* \"#utility.yul\":6895:6896   */\n      0x04\n        /* \"#utility.yul\":6888:6903   */\n      mstore\n        /* \"#utility.yul\":6922:6926   */\n      0x24\n        /* \"#utility.yul\":6919:6920   */\n      0x00\n        /* \"#utility.yul\":6912:6927   */\n      revert\n        /* \"#utility.yul\":6939:7119   */\n    tag_102:\n        /* \"#utility.yul\":6987:7064   */\n      0x4e487b7100000000000000000000000000000000000000000000000000000000\n        /* \"#utility.yul\":6984:6985   */\n      0x00\n        /* \"#utility.yul\":6977:7065   */\n      mstore\n        /* \"#utility.yul\":7084:7088   */\n      0x41\n        /* \"#utility.yul\":7081:7082   */\n      0x04\n        /* \"#utility.yul\":7074:7089   */\n      mstore\n        /* \"#utility.yul\":7108:7112   */\n      0x24\n        /* \"#utility.yul\":7105:7106   */\n      0x00\n        /* \"#utility.yul\":7098:7113   */\n      revert\n        /* \"#utility.yul\":7125:7247   */\n    tag_56:\n        /* \"#utility.yul\":7198:7222   */\n      tag_129\n        /* \"#utility.yul\":7216:7221   */\n      dup2\n        /* \"#utility.yul\":7198:7222   */\n      tag_88\n      jump\t// in\n    tag_129:\n        /* \"#utility.yul\":7191:7196   */\n      dup2\n        /* \"#utility.yul\":7188:7223   */\n      eq\n        /* \"#utility.yul\":7178:7180   */\n      tag_130\n      jumpi\n        /* \"#utility.yul\":7237:7238   */\n      0x00\n        /* \"#utility.yul\":7234:7235   */\n      dup1\n        /* \"#utility.yul\":7227:7239   */\n      revert\n        /* \"#utility.yul\":7178:7180   */\n    tag_130:\n        /* \"#utility.yul\":7168:7247   */\n      pop\n      jump\t// out\n\n    auxdata: 0xa26469706673582212204645b58e659cfb848904c2c2ddc463d27d2ee31c6e6b2a8febc925543b93134764736f6c63430008000033\n}\n",
				"bytecode": {
					"linkReferences": {},
					"object": "608060405234801561001057600080fd5b50336000806101000a81548173ffffffffffffffffffffffffffffffffffffffff021916908373ffffffffffffffffffffffffffffffffffffffff1602179055506106e7806100606000396000f3fe608060405234801561001057600080fd5b506004361061004c5760003560e01c80631181dfc514610051578063705f964b146100815780638da5cb5b146100b1578063c84cda0f146100cf575b600080fd5b61006b6004803603810190610066919061032c565b6100eb565b60405161007891906104c1565b60405180910390f35b61009b600480360381019061009691906102eb565b610167565b6040516100a891906104c1565b60405180910390f35b6100b9610195565b6040516100c69190610466565b60405180910390f35b6100e960048036038101906100e4919061032c565b6101b9565b005b6000806001846040516100fe919061044f565b908152602001604051809103902054905060008111610152576040517f08c379a0000000000000000000000000000000000000000000000000000000008152600401610149906104a1565b60405180910390fd5b808361015e9190610564565b91505092915050565b6001818051602081018201805184825260208301602085012081835280955050505050506000915090505481565b60008054906101000a900473ffffffffffffffffffffffffffffffffffffffff1681565b60008054906101000a900473ffffffffffffffffffffffffffffffffffffffff1673ffffffffffffffffffffffffffffffffffffffff163373ffffffffffffffffffffffffffffffffffffffff1614610247576040517f08c379a000000000000000000000000000000000000000000000000000000000815260040161023e90610481565b60405180910390fd5b80600183604051610258919061044f565b9081526020016040518091039020819055505050565b600061028161027c8461050d565b6104dc565b90508281526020810184848401111561029957600080fd5b6102a48482856105fa565b509392505050565b600082601f8301126102bd57600080fd5b81356102cd84826020860161026e565b91505092915050565b6000813590506102e58161069a565b92915050565b6000602082840312156102fd57600080fd5b600082013567ffffffffffffffff81111561031757600080fd5b610323848285016102ac565b91505092915050565b6000806040838503121561033f57600080fd5b600083013567ffffffffffffffff81111561035957600080fd5b610365858286016102ac565b9250506020610376858286016102d6565b9150509250929050565b610389816105be565b82525050565b600061039a8261053d565b6103a48185610559565b93506103b4818560208601610609565b80840191505092915050565b60006103cd600983610548565b91507f4e6f74206f776e657200000000000000000000000000000000000000000000006000830152602082019050919050565b600061040d600c83610548565b91507f52617465206e6f742073657400000000000000000000000000000000000000006000830152602082019050919050565b610449816105f0565b82525050565b600061045b828461038f565b915081905092915050565b600060208201905061047b6000830184610380565b92915050565b6000602082019050818103600083015261049a816103c0565b9050919050565b600060208201905081810360008301526104ba81610400565b9050919050565b60006020820190506104d66000830184610440565b92915050565b6000604051905081810181811067ffffffffffffffff821117156105035761050261066b565b5b8060405250919050565b600067ffffffffffffffff8211156105285761052761066b565b5b601f19601f8301169050602081019050919050565b600081519050919050565b600082825260208201905092915050565b600081905092915050565b600061056f826105f0565b915061057a836105f0565b9250817fffffffffffffffffffffffffffffffffffffffffffffffffffffffffffffffff04831182151516156105b3576105b261063c565b5b828202905092915050565b60006105c9826105d0565b9050919050565b600073ffffffffffffffffffffffffffffffffffffffff82169050919050565b6000819050919050565b82818337600083830152505050565b60005b8381101561062757808201518184015260208101905061060c565b83811115610636576000848401525b50505050565b7f4e487b7100000000000000000000000000000000000000000000000000000000600052601160045260246000fd5b7f4e487b7100000000000000000000000000000000000000000000000000000000600052604160045260246000fd5b6106a3816105f0565b81146106ae57600080fd5b5056fea26469706673582212204645b58e659cfb848904c2c2ddc463d27d2ee31c6e6b2a8febc925543b93134764736f6c63430008000033",
					"opcodes": "PUSH1 0x80 PUSH1 0x40 MSTORE CALLVALUE DUP1 ISZERO PUSH2 0x10 JUMPI PUSH1 0x0 DUP1 REVERT JUMPDEST POP CALLER PUSH1 0x0 DUP1 PUSH2 0x100 EXP DUP2 SLOAD DUP2 PUSH20 0xFFFFFFFFFFFFFFFFFFFFFFFFFFFFFFFFFFFFFFFF MUL NOT AND SWAP1 DUP4 PUSH20 0xFFFFFFFFFFFFFFFFFFFFFFFFFFFFFFFFFFFFFFFF AND MUL OR SWAP1 SSTORE POP PUSH2 0x6E7 DUP1 PUSH2 0x60 PUSH1 0x0 CODECOPY PUSH1 0x0 RETURN INVALID PUSH1 0x80 PUSH1 0x40 MSTORE CALLVALUE DUP1 ISZERO PUSH2 0x10 JUMPI PUSH1 0x0 DUP1 REVERT JUMPDEST POP PUSH1 0x4 CALLDATASIZE LT PUSH2 0x4C JUMPI PUSH1 0x0 CALLDATALOAD PUSH1 0xE0 SHR DUP1 PUSH4 0x1181DFC5 EQ PUSH2 0x51 JUMPI DUP1 PUSH4 0x705F964B EQ PUSH2 0x81 JUMPI DUP1 PUSH4 0x8DA5CB5B EQ PUSH2 0xB1 JUMPI DUP1 PUSH4 0xC84CDA0F EQ PUSH2 0xCF JUMPI JUMPDEST PUSH1 0x0 DUP1 REVERT JUMPDEST PUSH2 0x6B PUSH1 0x4 DUP1 CALLDATASIZE SUB DUP2 ADD SWAP1 PUSH2 0x66 SWAP2 SWAP1 PUSH2 0x32C JUMP JUMPDEST PUSH2 0xEB JUMP JUMPDEST PUSH1 0x40 MLOAD PUSH2 0x78 SWAP2 SWAP1 PUSH2 0x4C1 JUMP JUMPDEST PUSH1 0x40 MLOAD DUP1 SWAP2 SUB SWAP1 RETURN JUMPDEST PUSH2 0x9B PUSH1 0x4 DUP1 CALLDATASIZE SUB DUP2 ADD SWAP1 PUSH2 0x96 SWAP2 SWAP1 PUSH2 0x2EB JUMP JUMPDEST PUSH2 0x167 JUMP JUMPDEST PUSH1 0x40 MLOAD PUSH2 0xA8 SWAP2 SWAP1 PUSH2 0x4C1 JUMP JUMPDEST PUSH1 0x40 MLOAD DUP1 SWAP2 SUB SWAP1 RETURN JUMPDEST PUSH2 0xB9 PUSH2 0x195 JUMP JUMPDEST PUSH1 0x40 MLOAD PUSH2 0xC6 SWAP2 SWAP1 PUSH2 0x466 JUMP JUMPDEST PUSH1 0x40 MLOAD DUP1 SWAP2 SUB SWAP1 RETURN JUMPDEST PUSH2 0xE9 PUSH1 0x4 DUP1 CALLDATASIZE SUB DUP2 ADD SWAP1 PUSH2 0xE4 SWAP2 SWAP1 PUSH2 0x32C JUMP JUMPDEST PUSH2 0x1B9 JUMP JUMPDEST STOP JUMPDEST PUSH1 0x0 DUP1 PUSH1 0x1 DUP5 PUSH1 0x40 MLOAD PUSH2 0xFE SWAP2 SWAP1 PUSH2 0x44F JUMP JUMPDEST SWAP1 DUP2 MSTORE PUSH1 0x20 ADD PUSH1 0x40 MLOAD DUP1 SWAP2 SUB SWAP1 KECCAK256 SLOAD SWAP1 POP PUSH1 0x0 DUP2 GT PUSH2 0x152 JUMPI PUSH1 0x40 MLOAD PUSH32 0x8C379A000000000000000000000000000000000000000000000000000000000 DUP2 MSTORE PUSH1 0x4 ADD PUSH2 0x149 SWAP1 PUSH2 0x4A1 JUMP JUMPDEST PUSH1 0x40 MLOAD DUP1 SWAP2 SUB SWAP1 REVERT JUMPDEST DUP1 DUP4 PUSH2 0x15E SWAP2 SWAP1 PUSH2 0x564 JUMP JUMPDEST SWAP2 POP POP SWAP3 SWAP2 POP POP JUMP JUMPDEST PUSH1 0x1 DUP2 DUP1 MLOAD PUSH1 0x20 DUP2 ADD DUP3 ADD DUP1 MLOAD DUP5 DUP3 MSTORE PUSH1 0x20 DUP4 ADD PUSH1 0x20 DUP6 ADD KECCAK256 DUP2 DUP4 MSTORE DUP1 SWAP6 POP POP POP POP POP POP PUSH1 0x0 SWAP2 POP SWAP1 POP SLOAD DUP2 JUMP JUMPDEST PUSH1 0x0 DUP1 SLOAD SWAP1 PUSH2 0x100 EXP SWAP1 DIV PUSH20 0xFFFFFFFFFFFFFFFFFFFFFFFFFFFFFFFFFFFFFFFF AND DUP2 JUMP JUMPDEST PUSH1 0x0 DUP1 SLOAD SWAP1 PUSH2 0x100 EXP SWAP1 DIV PUSH20 0xFFFFFFFFFFFFFFFFFFFFFFFFFFFFFFFFFFFFFFFF AND PUSH20 0xFFFFFFFFFFFFFFFFFFFFFFFFFFFFFFFFFFFFFFFF AND CALLER PUSH20 0xFFFFFFFFFFFFFFFFFFFFFFFFFFFFFFFFFFFFFFFF AND EQ PUSH2 0x247 JUMPI PUSH1 0x40 MLOAD PUSH32 0x8C379A000000000000000000000000000000000000000000000000000000000 DUP2 MSTORE PUSH1 0x4 ADD PUSH2 0x23E SWAP1 PUSH2 0x481 JUMP JUMPDEST PUSH1 0x40 MLOAD DUP1 SWAP2 SUB SWAP1 REVERT JUMPDEST DUP1 PUSH1 0x1 DUP4 PUSH1 0x40 MLOAD PUSH2 0x258 SWAP2 SWAP1 PUSH2 0x44F JUMP JUMPDEST SWAP1 DUP2 MSTORE PUSH1 0x20 ADD PUSH1 0x40 MLOAD DUP1 SWAP2 SUB SWAP1 KECCAK256 DUP2 SWAP1 SSTORE POP POP POP JUMP JUMPDEST PUSH1 0x0 PUSH2 0x281 PUSH2 0x27C DUP5 PUSH2 0x50D JUMP JUMPDEST PUSH2 0x4DC JUMP JUMPDEST SWAP1 POP DUP3 DUP2 MSTORE PUSH1 0x20 DUP2 ADD DUP5 DUP5 DUP5 ADD GT ISZERO PUSH2 0x299 JUMPI PUSH1 0x0 DUP1 REVERT JUMPDEST PUSH2 0x2A4 DUP5 DUP3 DUP6 PUSH2 0x5FA JUMP JUMPDEST POP SWAP4 SWAP3 POP POP POP JUMP JUMPDEST PUSH1 0x0 DUP3 PUSH1 0x1F DUP4 ADD SLT PUSH2 0x2BD JUMPI PUSH1 0x0 DUP1 REVERT JUMPDEST DUP2 CALLDATALOAD PUSH2 0x2CD DUP5 DUP3 PUSH1 0x20 DUP7 ADD PUSH2 0x26E JUMP JUMPDEST SWAP2 POP POP SWAP3 SWAP2 POP POP JUMP JUMPDEST PUSH1 0x0 DUP2 CALLDATALOAD SWAP1 POP PUSH2 0x2E5 DUP2 PUSH2 0x69A JUMP JUMPDEST SWAP3 SWAP2 POP POP JUMP JUMPDEST PUSH1 0x0 PUSH1 0x20 DUP3 DUP5 SUB SLT ISZERO PUSH2 0x2FD JUMPI PUSH1 0x0 DUP1 REVERT JUMPDEST PUSH1 0x0 DUP3 ADD CALLDATALOAD PUSH8 0xFFFFFFFFFFFFFFFF DUP2 GT ISZERO PUSH2 0x317 JUMPI PUSH1 0x0 DUP1 REVERT JUMPDEST PUSH2 0x323 DUP5 DUP3 DUP6 ADD PUSH2 0x2AC JUMP JUMPDEST SWAP2 POP POP SWAP3 SWAP2 POP POP JUMP JUMPDEST PUSH1 0x0 DUP1 PUSH1 0x40 DUP4 DUP6 SUB SLT ISZERO PUSH2 0x33F JUMPI PUSH1 0x0 DUP1 REVERT JUMPDEST PUSH1 0x0 DUP4 ADD CALLDATALOAD PUSH8 0xFFFFFFFFFFFFFFFF DUP2 GT ISZERO PUSH2 0x359 JUMPI PUSH1 0x0 DUP1 REVERT JUMPDEST PUSH2 0x365 DUP6 DUP3 DUP7 ADD PUSH2 0x2AC JUMP JUMPDEST SWAP3 POP POP PUSH1 0x20 PUSH2 0x376 DUP6 DUP3 DUP7 ADD PUSH2 0x2D6 JUMP JUMPDEST SWAP2 POP POP SWAP3 POP SWAP3 SWAP1 POP JUMP JUMPDEST PUSH2 0x389 DUP2 PUSH2 0x5BE JUMP JUMPDEST DUP3 MSTORE POP POP JUMP JUMPDEST PUSH1 0x0 PUSH2 0x39A DUP3 PUSH2 0x53D JUMP JUMPDEST PUSH2 0x3A4 DUP2 DUP6 PUSH2 0x559 JUMP JUMPDEST SWAP4 POP PUSH2 0x3B4 DUP2 DUP6 PUSH1 0x20 DUP7 ADD PUSH2 0x609 JUMP JUMPDEST DUP1 DUP5 ADD SWAP2 POP POP SWAP3 SWAP2 POP POP JUMP JUMPDEST PUSH1 0x0 PUSH2 0x3CD PUSH1 0x9 DUP4 PUSH2 0x548 JUMP JUMPDEST SWAP2 POP PUSH32 0x4E6F74206F776E65720000000000000000000000000000000000000000000000 PUSH1 0x0 DUP4 ADD MSTORE PUSH1 0x20 DUP3 ADD SWAP1 POP SWAP2 SWAP1 POP JUMP JUMPDEST PUSH1 0x0 PUSH2 0x40D PUSH1 0xC DUP4 PUSH2 0x548 JUMP JUMPDEST SWAP2 POP PUSH32 0x52617465206E6F74207365740000000000000000000000000000000000000000 PUSH1 0x0 DUP4 ADD MSTORE PUSH1 0x20 DUP3 ADD SWAP1 POP SWAP2 SWAP1 POP JUMP JUMPDEST PUSH2 0x449 DUP2 PUSH2 0x5F0 JUMP JUMPDEST DUP3 MSTORE POP POP JUMP JUMPDEST PUSH1 0x0 PUSH2 0x45B DUP3 DUP5 PUSH2 0x38F JUMP JUMPDEST SWAP2 POP DUP2 SWAP1 POP SWAP3 SWAP2 POP POP JUMP JUMPDEST PUSH1 0x0 PUSH1 0x20 DUP3 ADD SWAP1 POP PUSH2 0x47B PUSH1 0x0 DUP4 ADD DUP5 PUSH2 0x380 JUMP JUMPDEST SWAP3 SWAP2 POP POP JUMP JUMPDEST PUSH1 0x0 PUSH1 0x20 DUP3 ADD SWAP1 POP DUP2 DUP2 SUB PUSH1 0x0 DUP4 ADD MSTORE PUSH2 0x49A DUP2 PUSH2 0x3C0 JUMP JUMPDEST SWAP1 POP SWAP2 SWAP1 POP JUMP JUMPDEST PUSH1 0x0 PUSH1 0x20 DUP3 ADD SWAP1 POP DUP2 DUP2 SUB PUSH1 0x0 DUP4 ADD MSTORE PUSH2 0x4BA DUP2 PUSH2 0x400 JUMP JUMPDEST SWAP1 POP SWAP2 SWAP1 POP JUMP JUMPDEST PUSH1 0x0 PUSH1 0x20 DUP3 ADD SWAP1 POP PUSH2 0x4D6 PUSH1 0x0 DUP4 ADD DUP5 PUSH2 0x440 JUMP JUMPDEST SWAP3 SWAP2 POP POP JUMP JUMPDEST PUSH1 0x0 PUSH1 0x40 MLOAD SWAP1 POP DUP2 DUP2 ADD DUP2 DUP2 LT PUSH8 0xFFFFFFFFFFFFFFFF DUP3 GT OR ISZERO PUSH2 0x503 JUMPI PUSH2 0x502 PUSH2 0x66B JUMP JUMPDEST JUMPDEST DUP1 PUSH1 0x40 MSTORE POP SWAP2 SWAP1 POP JUMP JUMPDEST PUSH1 0x0 PUSH8 0xFFFFFFFFFFFFFFFF DUP3 GT ISZERO PUSH2 0x528 JUMPI PUSH2 0x527 PUSH2 0x66B JUMP JUMPDEST JUMPDEST PUSH1 0x1F NOT PUSH1 0x1F DUP4 ADD AND SWAP1 POP PUSH1 0x20 DUP2 ADD SWAP1 POP SWAP2 SWAP1 POP JUMP JUMPDEST PUSH1 0x0 DUP2 MLOAD SWAP1 POP SWAP2 SWAP1 POP JUMP JUMPDEST PUSH1 0x0 DUP3 DUP3 MSTORE PUSH1 0x20 DUP3 ADD SWAP1 POP SWAP3 SWAP2 POP POP JUMP JUMPDEST PUSH1 0x0 DUP2 SWAP1 POP SWAP3 SWAP2 POP POP JUMP JUMPDEST PUSH1 0x0 PUSH2 0x56F DUP3 PUSH2 0x5F0 JUMP JUMPDEST SWAP2 POP PUSH2 0x57A DUP4 PUSH2 0x5F0 JUMP JUMPDEST SWAP3 POP DUP2 PUSH32 0xFFFFFFFFFFFFFFFFFFFFFFFFFFFFFFFFFFFFFFFFFFFFFFFFFFFFFFFFFFFFFFFF DIV DUP4 GT DUP3 ISZERO ISZERO AND ISZERO PUSH2 0x5B3 JUMPI PUSH2 0x5B2 PUSH2 0x63C JUMP JUMPDEST JUMPDEST DUP3 DUP3 MUL SWAP1 POP SWAP3 SWAP2 POP POP JUMP JUMPDEST PUSH1 0x0 PUSH2 0x5C9 DUP3 PUSH2 0x5D0 JUMP JUMPDEST SWAP1 POP SWAP2 SWAP1 POP JUMP JUMPDEST PUSH1 0x0 PUSH20 0xFFFFFFFFFFFFFFFFFFFFFFFFFFFFFFFFFFFFFFFF DUP3 AND SWAP1 POP SWAP2 SWAP1 POP JUMP JUMPDEST PUSH1 0x0 DUP2 SWAP1 POP SWAP2 SWAP1 POP JUMP JUMPDEST DUP3 DUP2 DUP4 CALLDATACOPY PUSH1 0x0 DUP4 DUP4 ADD MSTORE POP POP POP JUMP JUMPDEST PUSH1 0x0 JUMPDEST DUP4 DUP2 LT ISZERO PUSH2 0x627 JUMPI DUP1 DUP3 ADD MLOAD DUP2 DUP5 ADD MSTORE PUSH1 0x20 DUP2 ADD SWAP1 POP PUSH2 0x60C JUMP JUMPDEST DUP4 DUP2 GT ISZERO PUSH2 0x636 JUMPI PUSH1 0x0 DUP5 DUP5 ADD MSTORE JUMPDEST POP POP POP POP JUMP JUMPDEST PUSH32 0x4E487B7100000000000000000000000000000000000000000000000000000000 PUSH1 0x0 MSTORE PUSH1 0x11 PUSH1 0x4 MSTORE PUSH1 0x24 PUSH1 0x0 REVERT JUMPDEST PUSH32 0x4E487B7100000000000000000000000000000000000000000000000000000000 PUSH1 0x0 MSTORE PUSH1 0x41 PUSH1 0x4 MSTORE PUSH1 0x24 PUSH1 0x0 REVERT JUMPDEST PUSH2 0x6A3 DUP2 PUSH2 0x5F0 JUMP JUMPDEST DUP2 EQ PUSH2 0x6AE JUMPI PUSH1 0x0 DUP1 REVERT JUMPDEST POP JUMP INVALID LOG2 PUSH5 0x6970667358 0x22 SLT KECCAK256 CHAINID GASLIMIT 0xB5 DUP15 PUSH6 0x9CFB848904C2 0xC2 0xDD 0xC4 PUSH4 0xD27D2EE3 SHR PUSH15 0x6B2A8FEBC925543B93134764736F6C PUSH4 0x43000800 STOP CALLER "
				},
				"gasEstimates": {
					"creation": {
						"codeDepositCost": "353400",
						"executionCost": "21259",
						"totalCost": "374659"
					},
					"external": {
						"convert(string,uint256)": "infinite",
						"owner()": "1233",
						"rates(string)": "infinite",
						"setRate(string,uint256)": "infinite"
					}
				},
				"methodIdentifiers": {
					"convert(string,uint256)": "1181dfc5",
					"owner()": "8da5cb5b",
					"rates(string)": "705f964b",
					"setRate(string,uint256)": "c84cda0f"
				}
			},
			"storageLayout": {
				"storage": [
					{
						"astId": 3,
						"contract": "Practice/currencyConversion.sol:currencyConversion",
						"label": "owner",
						"offset": 0,
						"slot": "0",
						"type": "t_address"
					},
					{
						"astId": 28,
						"contract": "Practice/currencyConversion.sol:currencyConversion",
						"label": "rates",
						"offset": 0,
						"slot": "1",
						"type": "t_mapping(t_string_memory_ptr,t_uint256)"
					}
				],
				"types": {
					"t_address": {
						"encoding": "inplace",
						"label": "address",
						"numberOfBytes": "20"
					},
					"t_mapping(t_string_memory_ptr,t_uint256)": {
						"encoding": "mapping",
						"key": "t_string_memory_ptr",
						"label": "mapping(string => uint256)",
						"numberOfBytes": "32",
						"value": "t_uint256"
					},
					"t_string_memory_ptr": {
						"encoding": "bytes",
						"label": "string",
						"numberOfBytes": "32"
					},
					"t_uint256": {
						"encoding": "inplace",
						"label": "uint256",
						"numberOfBytes": "32"
					}
				}
			},
			"userdoc": {
				"kind": "user",
				"methods": {},
				"version": 1
			}
		}
	}
}