{
	"Practice/eCommerce.sol": {
		"Ecommerce": {
			"abi": [
				{
					"inputs": [],
					"stateMutability": "nonpayable",
					"type": "constructor"
				},
				{
					"anonymous": false,
					"inputs": [
						{
							"indexed": false,
							"internalType": "uint256",
							"name": "id",
							"type": "uint256"
						},
						{
							"indexed": false,
							"internalType": "string",
							"name": "name",
							"type": "string"
						},
						{
							"indexed": false,
							"internalType": "uint256",
							"name": "price",
							"type": "uint256"
						},
						{
							"indexed": false,
							"internalType": "address",
							"name": "seller",
							"type": "address"
						}
					],
					"name": "ProductAdded",
					"type": "event"
				},
				{
					"anonymous": false,
					"inputs": [
						{
							"indexed": false,
							"internalType": "uint256",
							"name": "orderId",
							"type": "uint256"
						},
						{
							"indexed": false,
							"internalType": "uint256",
							"name": "productId",
							"type": "uint256"
						},
						{
							"indexed": false,
							"internalType": "address",
							"name": "buyer",
							"type": "address"
						},
						{
							"indexed": false,
							"internalType": "uint256",
							"name": "amount",
							"type": "uint256"
						}
					],
					"name": "ProductPurchased",
					"type": "event"
				},
				{
					"anonymous": false,
					"inputs": [
						{
							"indexed": false,
							"internalType": "uint256",
							"name": "productId",
							"type": "uint256"
						}
					],
					"name": "ProductRemoved",
					"type": "event"
				},
				{
					"inputs": [
						{
							"internalType": "string",
							"name": "_name",
							"type": "string"
						},
						{
							"internalType": "uint256",
							"name": "_price",
							"type": "uint256"
						},
						{
							"internalType": "uint256",
							"name": "_quantity",
							"type": "uint256"
						}
					],
					"name": "addProduct",
					"outputs": [],
					"stateMutability": "nonpayable",
					"type": "function"
				},
				{
					"inputs": [
						{
							"internalType": "uint256",
							"name": "_productId",
							"type": "uint256"
						},
						{
							"internalType": "uint256",
							"name": "_quantity",
							"type": "uint256"
						}
					],
					"name": "buyProduct",
					"outputs": [],
					"stateMutability": "payable",
					"type": "function"
				},
				{
					"inputs": [],
					"name": "orderCount",
					"outputs": [
						{
							"internalType": "uint256",
							"name": "",
							"type": "uint256"
						}
					],
					"stateMutability": "view",
					"type": "function"
				},
				{
					"inputs": [
						{
							"internalType": "uint256",
							"name": "",
							"type": "uint256"
						}
					],
					"name": "orders",
					"outputs": [
						{
							"internalType": "uint256",
							"name": "id",
							"type": "uint256"
						},
						{
							"internalType": "uint256",
							"name": "productId",
							"type": "uint256"
						},
						{
							"internalType": "address",
							"name": "buyer",
							"type": "address"
						},
						{
							"internalType": "uint256",
							"name": "amount",
							"type": "uint256"
						}
					],
					"stateMutability": "view",
					"type": "function"
				},
				{
					"inputs": [],
					"name": "owner",
					"outputs": [
						{
							"internalType": "address",
							"name": "",
							"type": "address"
						}
					],
					"stateMutability": "view",
					"type": "function"
				},
				{
					"inputs": [],
					"name": "productCount",
					"outputs": [
						{
							"internalType": "uint256",
							"name": "",
							"type": "uint256"
						}
					],
					"stateMutability": "view",
					"type": "function"
				},
				{
					"inputs": [
						{
							"internalType": "uint256",
							"name": "",
							"type": "uint256"
						}
					],
					"name": "products",
					"outputs": [
						{
							"internalType": "uint256",
							"name": "id",
							"type": "uint256"
						},
						{
							"internalType": "string",
							"name": "name",
							"type": "string"
						},
						{
							"internalType": "uint256",
							"name": "price",
							"type": "uint256"
						},
						{
							"internalType": "address payable",
							"name": "seller",
							"type": "address"
						},
						{
							"internalType": "bool",
							"name": "available",
							"type": "bool"
						},
						{
							"internalType": "uint256",
							"name": "quantity",
							"type": "uint256"
						}
					],
					"stateMutability": "view",
					"type": "function"
				},
				{
					"inputs": [
						{
							"internalType": "uint256",
							"name": "_productId",
							"type": "uint256"
						}
					],
					"name": "removeProduct",
					"outputs": [],
					"stateMutability": "nonpayable",
					"type": "function"
				}
			],
			"devdoc": {
				"kind": "dev",
				"methods": {},
				"version": 1
			},
			"evm": {
				"assembly": "    /* \"Practice/eCommerce.sol\":60:2454  contract Ecommerce {\r... */\n  mstore(0x40, 0x80)\n    /* \"Practice/eCommerce.sol\":177:228  constructor() {\r... */\n  callvalue\n  dup1\n  iszero\n  tag_1\n  jumpi\n  0x00\n  dup1\n  revert\ntag_1:\n  pop\n    /* \"Practice/eCommerce.sol\":210:220  msg.sender */\n  caller\n    /* \"Practice/eCommerce.sol\":202:207  owner */\n  0x00\n  dup1\n    /* \"Practice/eCommerce.sol\":202:220  owner = msg.sender */\n  0x0100\n  exp\n  dup2\n  sload\n  dup2\n  0xffffffffffffffffffffffffffffffffffffffff\n  mul\n  not\n  and\n  swap1\n  dup4\n  0xffffffffffffffffffffffffffffffffffffffff\n  and\n  mul\n  or\n  swap1\n  sstore\n  pop\n    /* \"Practice/eCommerce.sol\":60:2454  contract Ecommerce {\r... */\n  dataSize(sub_0)\n  dup1\n  dataOffset(sub_0)\n  0x00\n  codecopy\n  0x00\n  return\nstop\n\nsub_0: assembly {\n        /* \"Practice/eCommerce.sol\":60:2454  contract Ecommerce {\r... */\n      mstore(0x40, 0x80)\n      jumpi(tag_1, lt(calldatasize, 0x04))\n      shr(0xe0, calldataload(0x00))\n      dup1\n      0x7acc0b20\n      gt\n      tag_10\n      jumpi\n      dup1\n      0x7acc0b20\n      eq\n      tag_6\n      jumpi\n      dup1\n      0x8da5cb5b\n      eq\n      tag_7\n      jumpi\n      dup1\n      0xa85c38ef\n      eq\n      tag_8\n      jumpi\n      dup1\n      0xe0f6ef87\n      eq\n      tag_9\n      jumpi\n      jump(tag_1)\n    tag_10:\n      dup1\n      0x125b0b34\n      eq\n      tag_2\n      jumpi\n      dup1\n      0x2453ffa8\n      eq\n      tag_3\n      jumpi\n      dup1\n      0x53b62866\n      eq\n      tag_4\n      jumpi\n      dup1\n      0x5ee95cae\n      eq\n      tag_5\n      jumpi\n    tag_1:\n      0x00\n      dup1\n      revert\n        /* \"Practice/eCommerce.sol\":936:1291  function addProduct(string memory _name, uint _price, uint _quantity) public {\r... */\n    tag_2:\n      callvalue\n      dup1\n      iszero\n      tag_11\n      jumpi\n      0x00\n      dup1\n      revert\n    tag_11:\n      pop\n      tag_12\n      0x04\n      dup1\n      calldatasize\n      sub\n      dup2\n      add\n      swap1\n      tag_13\n      swap2\n      swap1\n      tag_14\n      jump\t// in\n    tag_13:\n      tag_15\n      jump\t// in\n    tag_12:\n      stop\n        /* \"Practice/eCommerce.sol\":146:168  uint public orderCount */\n    tag_3:\n      callvalue\n      dup1\n      iszero\n      tag_16\n      jumpi\n      0x00\n      dup1\n      revert\n    tag_16:\n      pop\n      tag_17\n      tag_18\n      jump\t// in\n    tag_17:\n      mload(0x40)\n      tag_19\n      swap2\n      swap1\n      tag_20\n      jump\t// in\n    tag_19:\n      mload(0x40)\n      dup1\n      swap2\n      sub\n      swap1\n      return\n        /* \"Practice/eCommerce.sol\":1320:2161  function buyProduct(uint _productId,uint _quantity) public payable {\r... */\n    tag_4:\n      tag_21\n      0x04\n      dup1\n      calldatasize\n      sub\n      dup2\n      add\n      swap1\n      tag_22\n      swap2\n      swap1\n      tag_23\n      jump\t// in\n    tag_22:\n      tag_24\n      jump\t// in\n    tag_21:\n      stop\n        /* \"Practice/eCommerce.sol\":2193:2451  function removeProduct(uint _productId) public {\r... */\n    tag_5:\n      callvalue\n      dup1\n      iszero\n      tag_25\n      jumpi\n      0x00\n      dup1\n      revert\n    tag_25:\n      pop\n      tag_26\n      0x04\n      dup1\n      calldatasize\n      sub\n      dup2\n      add\n      swap1\n      tag_27\n      swap2\n      swap1\n      tag_28\n      jump\t// in\n    tag_27:\n      tag_29\n      jump\t// in\n    tag_26:\n      stop\n        /* \"Practice/eCommerce.sol\":600:640  mapping(uint => Product) public products */\n    tag_6:\n      callvalue\n      dup1\n      iszero\n      tag_30\n      jumpi\n      0x00\n      dup1\n      revert\n    tag_30:\n      pop\n      tag_31\n      0x04\n      dup1\n      calldatasize\n      sub\n      dup2\n      add\n      swap1\n      tag_32\n      swap2\n      swap1\n      tag_28\n      jump\t// in\n    tag_32:\n      tag_33\n      jump\t// in\n    tag_31:\n      mload(0x40)\n      tag_34\n      swap7\n      swap6\n      swap5\n      swap4\n      swap3\n      swap2\n      swap1\n      tag_35\n      jump\t// in\n    tag_34:\n      mload(0x40)\n      dup1\n      swap2\n      sub\n      swap1\n      return\n        /* \"Practice/eCommerce.sol\":88:108  address public owner */\n    tag_7:\n      callvalue\n      dup1\n      iszero\n      tag_36\n      jumpi\n      0x00\n      dup1\n      revert\n    tag_36:\n      pop\n      tag_37\n      tag_38\n      jump\t// in\n    tag_37:\n      mload(0x40)\n      tag_39\n      swap2\n      swap1\n      tag_40\n      jump\t// in\n    tag_39:\n      mload(0x40)\n      dup1\n      swap2\n      sub\n      swap1\n      return\n        /* \"Practice/eCommerce.sol\":647:683  mapping(uint => Order) public orders */\n    tag_8:\n      callvalue\n      dup1\n      iszero\n      tag_41\n      jumpi\n      0x00\n      dup1\n      revert\n    tag_41:\n      pop\n      tag_42\n      0x04\n      dup1\n      calldatasize\n      sub\n      dup2\n      add\n      swap1\n      tag_43\n      swap2\n      swap1\n      tag_28\n      jump\t// in\n    tag_43:\n      tag_44\n      jump\t// in\n    tag_42:\n      mload(0x40)\n      tag_45\n      swap5\n      swap4\n      swap3\n      swap2\n      swap1\n      tag_46\n      jump\t// in\n    tag_45:\n      mload(0x40)\n      dup1\n      swap2\n      sub\n      swap1\n      return\n        /* \"Practice/eCommerce.sol\":115:139  uint public productCount */\n    tag_9:\n      callvalue\n      dup1\n      iszero\n      tag_47\n      jumpi\n      0x00\n      dup1\n      revert\n    tag_47:\n      pop\n      tag_48\n      tag_49\n      jump\t// in\n    tag_48:\n      mload(0x40)\n      tag_50\n      swap2\n      swap1\n      tag_20\n      jump\t// in\n    tag_50:\n      mload(0x40)\n      dup1\n      swap2\n      sub\n      swap1\n      return\n        /* \"Practice/eCommerce.sol\":936:1291  function addProduct(string memory _name, uint _price, uint _quantity) public {\r... */\n    tag_15:\n        /* \"Practice/eCommerce.sol\":1041:1042  0 */\n      0x00\n        /* \"Practice/eCommerce.sol\":1032:1038  _price */\n      dup3\n        /* \"Practice/eCommerce.sol\":1032:1042  _price > 0 */\n      gt\n        /* \"Practice/eCommerce.sol\":1024:1075  require(_price > 0, \"Price must be greater than 0\") */\n      tag_52\n      jumpi\n      mload(0x40)\n      0x08c379a000000000000000000000000000000000000000000000000000000000\n      dup2\n      mstore\n      0x04\n      add\n      tag_53\n      swap1\n      tag_54\n      jump\t// in\n    tag_53:\n      mload(0x40)\n      dup1\n      swap2\n      sub\n      swap1\n      revert\n    tag_52:\n        /* \"Practice/eCommerce.sol\":1088:1100  productCount */\n      0x01\n      0x00\n        /* \"Practice/eCommerce.sol\":1088:1102  productCount++ */\n      dup2\n      sload\n      dup1\n      swap3\n      swap2\n      swap1\n      tag_55\n      swap1\n      tag_56\n      jump\t// in\n    tag_55:\n      swap2\n      swap1\n      pop\n      sstore\n      pop\n        /* \"Practice/eCommerce.sol\":1140:1212  Product(productCount, _name, _price, payable(msg.sender),true,_quantity) */\n      mload(0x40)\n      dup1\n      0xc0\n      add\n      0x40\n      mstore\n      dup1\n        /* \"Practice/eCommerce.sol\":1148:1160  productCount */\n      sload(0x01)\n        /* \"Practice/eCommerce.sol\":1140:1212  Product(productCount, _name, _price, payable(msg.sender),true,_quantity) */\n      dup2\n      mstore\n      0x20\n      add\n        /* \"Practice/eCommerce.sol\":1162:1167  _name */\n      dup5\n        /* \"Practice/eCommerce.sol\":1140:1212  Product(productCount, _name, _price, payable(msg.sender),true,_quantity) */\n      dup2\n      mstore\n      0x20\n      add\n        /* \"Practice/eCommerce.sol\":1169:1175  _price */\n      dup4\n        /* \"Practice/eCommerce.sol\":1140:1212  Product(productCount, _name, _price, payable(msg.sender),true,_quantity) */\n      dup2\n      mstore\n      0x20\n      add\n        /* \"Practice/eCommerce.sol\":1185:1195  msg.sender */\n      caller\n        /* \"Practice/eCommerce.sol\":1140:1212  Product(productCount, _name, _price, payable(msg.sender),true,_quantity) */\n      0xffffffffffffffffffffffffffffffffffffffff\n      and\n      dup2\n      mstore\n      0x20\n      add\n        /* \"Practice/eCommerce.sol\":1197:1201  true */\n      0x01\n        /* \"Practice/eCommerce.sol\":1140:1212  Product(productCount, _name, _price, payable(msg.sender),true,_quantity) */\n      iszero\n      iszero\n      dup2\n      mstore\n      0x20\n      add\n        /* \"Practice/eCommerce.sol\":1202:1211  _quantity */\n      dup3\n        /* \"Practice/eCommerce.sol\":1140:1212  Product(productCount, _name, _price, payable(msg.sender),true,_quantity) */\n      dup2\n      mstore\n      pop\n        /* \"Practice/eCommerce.sol\":1115:1123  products */\n      0x03\n        /* \"Practice/eCommerce.sol\":1115:1137  products[productCount] */\n      0x00\n        /* \"Practice/eCommerce.sol\":1124:1136  productCount */\n      sload(0x01)\n        /* \"Practice/eCommerce.sol\":1115:1137  products[productCount] */\n      dup2\n      mstore\n      0x20\n      add\n      swap1\n      dup2\n      mstore\n      0x20\n      add\n      0x00\n      keccak256\n        /* \"Practice/eCommerce.sol\":1115:1212  products[productCount] = Product(productCount, _name, _price, payable(msg.sender),true,_quantity) */\n      0x00\n      dup3\n      add\n      mload\n      dup2\n      0x00\n      add\n      sstore\n      0x20\n      dup3\n      add\n      mload\n      dup2\n      0x01\n      add\n      swap1\n      dup1\n      mload\n      swap1\n      0x20\n      add\n      swap1\n      tag_57\n      swap3\n      swap2\n      swap1\n      tag_58\n      jump\t// in\n    tag_57:\n      pop\n      0x40\n      dup3\n      add\n      mload\n      dup2\n      0x02\n      add\n      sstore\n      0x60\n      dup3\n      add\n      mload\n      dup2\n      0x03\n      add\n      exp(0x0100, 0x00)\n      dup2\n      sload\n      dup2\n      0xffffffffffffffffffffffffffffffffffffffff\n      mul\n      not\n      and\n      swap1\n      dup4\n      0xffffffffffffffffffffffffffffffffffffffff\n      and\n      mul\n      or\n      swap1\n      sstore\n      pop\n      0x80\n      dup3\n      add\n      mload\n      dup2\n      0x03\n      add\n      exp(0x0100, 0x14)\n      dup2\n      sload\n      dup2\n      0xff\n      mul\n      not\n      and\n      swap1\n      dup4\n      iszero\n      iszero\n      mul\n      or\n      swap1\n      sstore\n      pop\n      0xa0\n      dup3\n      add\n      mload\n      dup2\n      0x04\n      add\n      sstore\n      swap1\n      pop\n      pop\n        /* \"Practice/eCommerce.sol\":1230:1283  ProductAdded(productCount, _name, _price, msg.sender) */\n      0x52402cafb2ecec722b103e8f203f83362148c168659dc96678c2c6850d12dd9f\n        /* \"Practice/eCommerce.sol\":1243:1255  productCount */\n      sload(0x01)\n        /* \"Practice/eCommerce.sol\":1257:1262  _name */\n      dup5\n        /* \"Practice/eCommerce.sol\":1264:1270  _price */\n      dup5\n        /* \"Practice/eCommerce.sol\":1272:1282  msg.sender */\n      caller\n        /* \"Practice/eCommerce.sol\":1230:1283  ProductAdded(productCount, _name, _price, msg.sender) */\n      mload(0x40)\n      tag_59\n      swap5\n      swap4\n      swap3\n      swap2\n      swap1\n      tag_60\n      jump\t// in\n    tag_59:\n      mload(0x40)\n      dup1\n      swap2\n      sub\n      swap1\n      log1\n        /* \"Practice/eCommerce.sol\":936:1291  function addProduct(string memory _name, uint _price, uint _quantity) public {\r... */\n      pop\n      pop\n      pop\n      jump\t// out\n        /* \"Practice/eCommerce.sol\":146:168  uint public orderCount */\n    tag_18:\n      sload(0x02)\n      dup2\n      jump\t// out\n        /* \"Practice/eCommerce.sol\":1320:2161  function buyProduct(uint _productId,uint _quantity) public payable {\r... */\n    tag_24:\n        /* \"Practice/eCommerce.sol\":1398:1421  Product storage product */\n      0x00\n        /* \"Practice/eCommerce.sol\":1424:1432  products */\n      0x03\n        /* \"Practice/eCommerce.sol\":1424:1444  products[_productId] */\n      0x00\n        /* \"Practice/eCommerce.sol\":1433:1443  _productId */\n      dup5\n        /* \"Practice/eCommerce.sol\":1424:1444  products[_productId] */\n      dup2\n      mstore\n      0x20\n      add\n      swap1\n      dup2\n      mstore\n      0x20\n      add\n      0x00\n      keccak256\n        /* \"Practice/eCommerce.sol\":1398:1444  Product storage product = products[_productId] */\n      swap1\n      pop\n        /* \"Practice/eCommerce.sol\":1465:1472  product */\n      dup1\n        /* \"Practice/eCommerce.sol\":1465:1482  product.available */\n      0x03\n      add\n      0x14\n      swap1\n      sload\n      swap1\n      0x0100\n      exp\n      swap1\n      div\n      0xff\n      and\n        /* \"Practice/eCommerce.sol\":1457:1508  require(product.available, \"Product not available\") */\n      tag_62\n      jumpi\n      mload(0x40)\n      0x08c379a000000000000000000000000000000000000000000000000000000000\n      dup2\n      mstore\n      0x04\n      add\n      tag_63\n      swap1\n      tag_64\n      jump\t// in\n    tag_63:\n      mload(0x40)\n      dup1\n      swap2\n      sub\n      swap1\n      revert\n    tag_62:\n        /* \"Practice/eCommerce.sol\":1540:1547  product */\n      dup1\n        /* \"Practice/eCommerce.sol\":1540:1553  product.price */\n      0x02\n      add\n      sload\n        /* \"Practice/eCommerce.sol\":1527:1536  msg.value */\n      callvalue\n        /* \"Practice/eCommerce.sol\":1527:1553  msg.value == product.price */\n      eq\n        /* \"Practice/eCommerce.sol\":1519:1573  require(msg.value == product.price, \"Incorrect price\") */\n      tag_65\n      jumpi\n      mload(0x40)\n      0x08c379a000000000000000000000000000000000000000000000000000000000\n      dup2\n      mstore\n      0x04\n      add\n      tag_66\n      swap1\n      tag_67\n      jump\t// in\n    tag_66:\n      mload(0x40)\n      dup1\n      swap2\n      sub\n      swap1\n      revert\n    tag_65:\n        /* \"Practice/eCommerce.sol\":1635:1636  0 */\n      0x00\n        /* \"Practice/eCommerce.sol\":1622:1631  _quantity */\n      dup3\n        /* \"Practice/eCommerce.sol\":1592:1600  products */\n      0x03\n        /* \"Practice/eCommerce.sol\":1592:1612  products[_productId] */\n      0x00\n        /* \"Practice/eCommerce.sol\":1601:1611  _productId */\n      dup7\n        /* \"Practice/eCommerce.sol\":1592:1612  products[_productId] */\n      dup2\n      mstore\n      0x20\n      add\n      swap1\n      dup2\n      mstore\n      0x20\n      add\n      0x00\n      keccak256\n        /* \"Practice/eCommerce.sol\":1592:1621  products[_productId].quantity */\n      0x04\n      add\n      sload\n        /* \"Practice/eCommerce.sol\":1592:1631  products[_productId].quantity-_quantity */\n      tag_68\n      swap2\n      swap1\n      tag_69\n      jump\t// in\n    tag_68:\n        /* \"Practice/eCommerce.sol\":1592:1636  products[_productId].quantity-_quantity >= 0 */\n      lt\n      iszero\n        /* \"Practice/eCommerce.sol\":1584:1659  require(products[_productId].quantity-_quantity >= 0,\"not enough quantity\") */\n      tag_70\n      jumpi\n      mload(0x40)\n      0x08c379a000000000000000000000000000000000000000000000000000000000\n      dup2\n      mstore\n      0x04\n      add\n      tag_71\n      swap1\n      tag_72\n      jump\t// in\n    tag_71:\n      mload(0x40)\n      dup1\n      swap2\n      sub\n      swap1\n      revert\n    tag_70:\n        /* \"Practice/eCommerce.sol\":1672:1682  orderCount */\n      0x02\n      0x00\n        /* \"Practice/eCommerce.sol\":1672:1684  orderCount++ */\n      dup2\n      sload\n      dup1\n      swap3\n      swap2\n      swap1\n      tag_73\n      swap1\n      tag_56\n      jump\t// in\n    tag_73:\n      swap2\n      swap1\n      pop\n      sstore\n      pop\n        /* \"Practice/eCommerce.sol\":1741:1791  Order(orderCount,_productId,msg.sender, msg.value) */\n      mload(0x40)\n      dup1\n      0x80\n      add\n      0x40\n      mstore\n      dup1\n        /* \"Practice/eCommerce.sol\":1747:1757  orderCount */\n      sload(0x02)\n        /* \"Practice/eCommerce.sol\":1741:1791  Order(orderCount,_productId,msg.sender, msg.value) */\n      dup2\n      mstore\n      0x20\n      add\n        /* \"Practice/eCommerce.sol\":1758:1768  _productId */\n      dup5\n        /* \"Practice/eCommerce.sol\":1741:1791  Order(orderCount,_productId,msg.sender, msg.value) */\n      dup2\n      mstore\n      0x20\n      add\n        /* \"Practice/eCommerce.sol\":1769:1779  msg.sender */\n      caller\n        /* \"Practice/eCommerce.sol\":1741:1791  Order(orderCount,_productId,msg.sender, msg.value) */\n      0xffffffffffffffffffffffffffffffffffffffff\n      and\n      dup2\n      mstore\n      0x20\n      add\n        /* \"Practice/eCommerce.sol\":1781:1790  msg.value */\n      callvalue\n        /* \"Practice/eCommerce.sol\":1741:1791  Order(orderCount,_productId,msg.sender, msg.value) */\n      dup2\n      mstore\n      pop\n        /* \"Practice/eCommerce.sol\":1720:1726  orders */\n      0x04\n        /* \"Practice/eCommerce.sol\":1720:1738  orders[orderCount] */\n      0x00\n        /* \"Practice/eCommerce.sol\":1727:1737  orderCount */\n      sload(0x02)\n        /* \"Practice/eCommerce.sol\":1720:1738  orders[orderCount] */\n      dup2\n      mstore\n      0x20\n      add\n      swap1\n      dup2\n      mstore\n      0x20\n      add\n      0x00\n      keccak256\n        /* \"Practice/eCommerce.sol\":1720:1791  orders[orderCount] = Order(orderCount,_productId,msg.sender, msg.value) */\n      0x00\n      dup3\n      add\n      mload\n      dup2\n      0x00\n      add\n      sstore\n      0x20\n      dup3\n      add\n      mload\n      dup2\n      0x01\n      add\n      sstore\n      0x40\n      dup3\n      add\n      mload\n      dup2\n      0x02\n      add\n      exp(0x0100, 0x00)\n      dup2\n      sload\n      dup2\n      0xffffffffffffffffffffffffffffffffffffffff\n      mul\n      not\n      and\n      swap1\n      dup4\n      0xffffffffffffffffffffffffffffffffffffffff\n      and\n      mul\n      or\n      swap1\n      sstore\n      pop\n      0x60\n      dup3\n      add\n      mload\n      dup2\n      0x03\n      add\n      sstore\n      swap1\n      pop\n      pop\n        /* \"Practice/eCommerce.sol\":1839:1846  product */\n      dup1\n        /* \"Practice/eCommerce.sol\":1839:1853  product.seller */\n      0x03\n      add\n      0x00\n      swap1\n      sload\n      swap1\n      0x0100\n      exp\n      swap1\n      div\n      0xffffffffffffffffffffffffffffffffffffffff\n      and\n        /* \"Practice/eCommerce.sol\":1839:1862  product.seller.transfer */\n      0xffffffffffffffffffffffffffffffffffffffff\n      and\n        /* \"Practice/eCommerce.sol\":1839:1873  product.seller.transfer(msg.value) */\n      0x08fc\n        /* \"Practice/eCommerce.sol\":1863:1872  msg.value */\n      callvalue\n        /* \"Practice/eCommerce.sol\":1839:1873  product.seller.transfer(msg.value) */\n      swap1\n      dup2\n      iszero\n      mul\n      swap1\n      mload(0x40)\n      0x00\n      mload(0x40)\n      dup1\n      dup4\n      sub\n      dup2\n      dup6\n      dup9\n      dup9\n      call\n      swap4\n      pop\n      pop\n      pop\n      pop\n      iszero\n      dup1\n      iszero\n      tag_75\n      jumpi\n      returndatasize\n      0x00\n      dup1\n      returndatacopy\n      revert(0x00, returndatasize)\n    tag_75:\n      pop\n        /* \"Practice/eCommerce.sol\":1909:2067  Product(_productId, products[_productId].name , products[_productId].price, payable(products[_productId].seller),true,products[_productId].quantity-_quantity) */\n      mload(0x40)\n      dup1\n      0xc0\n      add\n      0x40\n      mstore\n      dup1\n        /* \"Practice/eCommerce.sol\":1917:1927  _productId */\n      dup5\n        /* \"Practice/eCommerce.sol\":1909:2067  Product(_productId, products[_productId].name , products[_productId].price, payable(products[_productId].seller),true,products[_productId].quantity-_quantity) */\n      dup2\n      mstore\n      0x20\n      add\n        /* \"Practice/eCommerce.sol\":1929:1937  products */\n      0x03\n        /* \"Practice/eCommerce.sol\":1929:1949  products[_productId] */\n      0x00\n        /* \"Practice/eCommerce.sol\":1938:1948  _productId */\n      dup7\n        /* \"Practice/eCommerce.sol\":1929:1949  products[_productId] */\n      dup2\n      mstore\n      0x20\n      add\n      swap1\n      dup2\n      mstore\n      0x20\n      add\n      0x00\n      keccak256\n        /* \"Practice/eCommerce.sol\":1929:1954  products[_productId].name */\n      0x01\n      add\n        /* \"Practice/eCommerce.sol\":1909:2067  Product(_productId, products[_productId].name , products[_productId].price, payable(products[_productId].seller),true,products[_productId].quantity-_quantity) */\n      dup1\n      sload\n      tag_76\n      swap1\n      tag_77\n      jump\t// in\n    tag_76:\n      dup1\n      0x1f\n      add\n      0x20\n      dup1\n      swap2\n      div\n      mul\n      0x20\n      add\n      mload(0x40)\n      swap1\n      dup2\n      add\n      0x40\n      mstore\n      dup1\n      swap3\n      swap2\n      swap1\n      dup2\n      dup2\n      mstore\n      0x20\n      add\n      dup3\n      dup1\n      sload\n      tag_78\n      swap1\n      tag_77\n      jump\t// in\n    tag_78:\n      dup1\n      iszero\n      tag_79\n      jumpi\n      dup1\n      0x1f\n      lt\n      tag_80\n      jumpi\n      0x0100\n      dup1\n      dup4\n      sload\n      div\n      mul\n      dup4\n      mstore\n      swap2\n      0x20\n      add\n      swap2\n      jump(tag_79)\n    tag_80:\n      dup3\n      add\n      swap2\n      swap1\n      0x00\n      mstore\n      keccak256(0x00, 0x20)\n      swap1\n    tag_81:\n      dup2\n      sload\n      dup2\n      mstore\n      swap1\n      0x01\n      add\n      swap1\n      0x20\n      add\n      dup1\n      dup4\n      gt\n      tag_81\n      jumpi\n      dup3\n      swap1\n      sub\n      0x1f\n      and\n      dup3\n      add\n      swap2\n    tag_79:\n      pop\n      pop\n      pop\n      pop\n      pop\n      dup2\n      mstore\n      0x20\n      add\n        /* \"Practice/eCommerce.sol\":1957:1965  products */\n      0x03\n        /* \"Practice/eCommerce.sol\":1957:1977  products[_productId] */\n      0x00\n        /* \"Practice/eCommerce.sol\":1966:1976  _productId */\n      dup7\n        /* \"Practice/eCommerce.sol\":1957:1977  products[_productId] */\n      dup2\n      mstore\n      0x20\n      add\n      swap1\n      dup2\n      mstore\n      0x20\n      add\n      0x00\n      keccak256\n        /* \"Practice/eCommerce.sol\":1957:1983  products[_productId].price */\n      0x02\n      add\n      sload\n        /* \"Practice/eCommerce.sol\":1909:2067  Product(_productId, products[_productId].name , products[_productId].price, payable(products[_productId].seller),true,products[_productId].quantity-_quantity) */\n      dup2\n      mstore\n      0x20\n      add\n        /* \"Practice/eCommerce.sol\":1993:2001  products */\n      0x03\n        /* \"Practice/eCommerce.sol\":1993:2013  products[_productId] */\n      0x00\n        /* \"Practice/eCommerce.sol\":2002:2012  _productId */\n      dup7\n        /* \"Practice/eCommerce.sol\":1993:2013  products[_productId] */\n      dup2\n      mstore\n      0x20\n      add\n      swap1\n      dup2\n      mstore\n      0x20\n      add\n      0x00\n      keccak256\n        /* \"Practice/eCommerce.sol\":1993:2020  products[_productId].seller */\n      0x03\n      add\n      0x00\n      swap1\n      sload\n      swap1\n      0x0100\n      exp\n      swap1\n      div\n      0xffffffffffffffffffffffffffffffffffffffff\n      and\n        /* \"Practice/eCommerce.sol\":1909:2067  Product(_productId, products[_productId].name , products[_productId].price, payable(products[_productId].seller),true,products[_productId].quantity-_quantity) */\n      0xffffffffffffffffffffffffffffffffffffffff\n      and\n      dup2\n      mstore\n      0x20\n      add\n        /* \"Practice/eCommerce.sol\":2022:2026  true */\n      0x01\n        /* \"Practice/eCommerce.sol\":1909:2067  Product(_productId, products[_productId].name , products[_productId].price, payable(products[_productId].seller),true,products[_productId].quantity-_quantity) */\n      iszero\n      iszero\n      dup2\n      mstore\n      0x20\n      add\n        /* \"Practice/eCommerce.sol\":2057:2066  _quantity */\n      dup4\n        /* \"Practice/eCommerce.sol\":2027:2035  products */\n      0x03\n        /* \"Practice/eCommerce.sol\":2027:2047  products[_productId] */\n      0x00\n        /* \"Practice/eCommerce.sol\":2036:2046  _productId */\n      dup8\n        /* \"Practice/eCommerce.sol\":2027:2047  products[_productId] */\n      dup2\n      mstore\n      0x20\n      add\n      swap1\n      dup2\n      mstore\n      0x20\n      add\n      0x00\n      keccak256\n        /* \"Practice/eCommerce.sol\":2027:2056  products[_productId].quantity */\n      0x04\n      add\n      sload\n        /* \"Practice/eCommerce.sol\":2027:2066  products[_productId].quantity-_quantity */\n      tag_82\n      swap2\n      swap1\n      tag_69\n      jump\t// in\n    tag_82:\n        /* \"Practice/eCommerce.sol\":1909:2067  Product(_productId, products[_productId].name , products[_productId].price, payable(products[_productId].seller),true,products[_productId].quantity-_quantity) */\n      dup2\n      mstore\n      pop\n        /* \"Practice/eCommerce.sol\":1886:1894  products */\n      0x03\n        /* \"Practice/eCommerce.sol\":1886:1906  products[_productId] */\n      0x00\n        /* \"Practice/eCommerce.sol\":1895:1905  _productId */\n      dup6\n        /* \"Practice/eCommerce.sol\":1886:1906  products[_productId] */\n      dup2\n      mstore\n      0x20\n      add\n      swap1\n      dup2\n      mstore\n      0x20\n      add\n      0x00\n      keccak256\n        /* \"Practice/eCommerce.sol\":1886:2067  products[_productId] = Product(_productId, products[_productId].name , products[_productId].price, payable(products[_productId].seller),true,products[_productId].quantity-_quantity) */\n      0x00\n      dup3\n      add\n      mload\n      dup2\n      0x00\n      add\n      sstore\n      0x20\n      dup3\n      add\n      mload\n      dup2\n      0x01\n      add\n      swap1\n      dup1\n      mload\n      swap1\n      0x20\n      add\n      swap1\n      tag_83\n      swap3\n      swap2\n      swap1\n      tag_58\n      jump\t// in\n    tag_83:\n      pop\n      0x40\n      dup3\n      add\n      mload\n      dup2\n      0x02\n      add\n      sstore\n      0x60\n      dup3\n      add\n      mload\n      dup2\n      0x03\n      add\n      exp(0x0100, 0x00)\n      dup2\n      sload\n      dup2\n      0xffffffffffffffffffffffffffffffffffffffff\n      mul\n      not\n      and\n      swap1\n      dup4\n      0xffffffffffffffffffffffffffffffffffffffff\n      and\n      mul\n      or\n      swap1\n      sstore\n      pop\n      0x80\n      dup3\n      add\n      mload\n      dup2\n      0x03\n      add\n      exp(0x0100, 0x14)\n      dup2\n      sload\n      dup2\n      0xff\n      mul\n      not\n      and\n      swap1\n      dup4\n      iszero\n      iszero\n      mul\n      or\n      swap1\n      sstore\n      pop\n      0xa0\n      dup3\n      add\n      mload\n      dup2\n      0x04\n      add\n      sstore\n      swap1\n      pop\n      pop\n        /* \"Practice/eCommerce.sol\":2090:2153  ProductPurchased(orderCount, _productId, msg.sender, msg.value) */\n      0xbd67bb7090da70936c907049a5337912b1a6489a2e4c7dd279e6ef50d6e8437b\n        /* \"Practice/eCommerce.sol\":2107:2117  orderCount */\n      sload(0x02)\n        /* \"Practice/eCommerce.sol\":2119:2129  _productId */\n      dup5\n        /* \"Practice/eCommerce.sol\":2131:2141  msg.sender */\n      caller\n        /* \"Practice/eCommerce.sol\":2143:2152  msg.value */\n      callvalue\n        /* \"Practice/eCommerce.sol\":2090:2153  ProductPurchased(orderCount, _productId, msg.sender, msg.value) */\n      mload(0x40)\n      tag_84\n      swap5\n      swap4\n      swap3\n      swap2\n      swap1\n      tag_46\n      jump\t// in\n    tag_84:\n      mload(0x40)\n      dup1\n      swap2\n      sub\n      swap1\n      log1\n        /* \"Practice/eCommerce.sol\":1320:2161  function buyProduct(uint _productId,uint _quantity) public payable {\r... */\n      pop\n      pop\n      pop\n      jump\t// out\n        /* \"Practice/eCommerce.sol\":2193:2451  function removeProduct(uint _productId) public {\r... */\n    tag_29:\n        /* \"Practice/eCommerce.sol\":2251:2274  Product storage product */\n      0x00\n        /* \"Practice/eCommerce.sol\":2277:2285  products */\n      0x03\n        /* \"Practice/eCommerce.sol\":2277:2297  products[_productId] */\n      0x00\n        /* \"Practice/eCommerce.sol\":2286:2296  _productId */\n      dup4\n        /* \"Practice/eCommerce.sol\":2277:2297  products[_productId] */\n      dup2\n      mstore\n      0x20\n      add\n      swap1\n      dup2\n      mstore\n      0x20\n      add\n      0x00\n      keccak256\n        /* \"Practice/eCommerce.sol\":2251:2297  Product storage product = products[_productId] */\n      swap1\n      pop\n        /* \"Practice/eCommerce.sol\":2332:2339  product */\n      dup1\n        /* \"Practice/eCommerce.sol\":2332:2346  product.seller */\n      0x03\n      add\n      0x00\n      swap1\n      sload\n      swap1\n      0x0100\n      exp\n      swap1\n      div\n      0xffffffffffffffffffffffffffffffffffffffff\n      and\n        /* \"Practice/eCommerce.sol\":2318:2346  msg.sender == product.seller */\n      0xffffffffffffffffffffffffffffffffffffffff\n      and\n        /* \"Practice/eCommerce.sol\":2318:2328  msg.sender */\n      caller\n        /* \"Practice/eCommerce.sol\":2318:2346  msg.sender == product.seller */\n      0xffffffffffffffffffffffffffffffffffffffff\n      and\n      eq\n        /* \"Practice/eCommerce.sol\":2310:2361  require(msg.sender == product.seller, \"Not seller\") */\n      tag_86\n      jumpi\n      mload(0x40)\n      0x08c379a000000000000000000000000000000000000000000000000000000000\n      dup2\n      mstore\n      0x04\n      add\n      tag_87\n      swap1\n      tag_88\n      jump\t// in\n    tag_87:\n      mload(0x40)\n      dup1\n      swap2\n      sub\n      swap1\n      revert\n    tag_86:\n        /* \"Practice/eCommerce.sol\":2394:2399  false */\n      0x00\n        /* \"Practice/eCommerce.sol\":2374:2381  product */\n      dup2\n        /* \"Practice/eCommerce.sol\":2374:2391  product.available */\n      0x03\n      add\n      0x14\n        /* \"Practice/eCommerce.sol\":2374:2399  product.available = false */\n      0x0100\n      exp\n      dup2\n      sload\n      dup2\n      0xff\n      mul\n      not\n      and\n      swap1\n      dup4\n      iszero\n      iszero\n      mul\n      or\n      swap1\n      sstore\n      pop\n        /* \"Practice/eCommerce.sol\":2417:2443  ProductRemoved(_productId) */\n      0x07015631cff457b5b13492c2045e70c6305a0a4aa773e432e79abbe2cf52c1eb\n        /* \"Practice/eCommerce.sol\":2432:2442  _productId */\n      dup3\n        /* \"Practice/eCommerce.sol\":2417:2443  ProductRemoved(_productId) */\n      mload(0x40)\n      tag_89\n      swap2\n      swap1\n      tag_20\n      jump\t// in\n    tag_89:\n      mload(0x40)\n      dup1\n      swap2\n      sub\n      swap1\n      log1\n        /* \"Practice/eCommerce.sol\":2193:2451  function removeProduct(uint _productId) public {\r... */\n      pop\n      pop\n      jump\t// out\n        /* \"Practice/eCommerce.sol\":600:640  mapping(uint => Product) public products */\n    tag_33:\n      mstore(0x20, 0x03)\n      dup1\n      0x00\n      mstore\n      keccak256(0x00, 0x40)\n      0x00\n      swap2\n      pop\n      swap1\n      pop\n      dup1\n      0x00\n      add\n      sload\n      swap1\n      dup1\n      0x01\n      add\n      dup1\n      sload\n      tag_90\n      swap1\n      tag_77\n      jump\t// in\n    tag_90:\n      dup1\n      0x1f\n      add\n      0x20\n      dup1\n      swap2\n      div\n      mul\n      0x20\n      add\n      mload(0x40)\n      swap1\n      dup2\n      add\n      0x40\n      mstore\n      dup1\n      swap3\n      swap2\n      swap1\n      dup2\n      dup2\n      mstore\n      0x20\n      add\n      dup3\n      dup1\n      sload\n      tag_91\n      swap1\n      tag_77\n      jump\t// in\n    tag_91:\n      dup1\n      iszero\n      tag_92\n      jumpi\n      dup1\n      0x1f\n      lt\n      tag_93\n      jumpi\n      0x0100\n      dup1\n      dup4\n      sload\n      div\n      mul\n      dup4\n      mstore\n      swap2\n      0x20\n      add\n      swap2\n      jump(tag_92)\n    tag_93:\n      dup3\n      add\n      swap2\n      swap1\n      0x00\n      mstore\n      keccak256(0x00, 0x20)\n      swap1\n    tag_94:\n      dup2\n      sload\n      dup2\n      mstore\n      swap1\n      0x01\n      add\n      swap1\n      0x20\n      add\n      dup1\n      dup4\n      gt\n      tag_94\n      jumpi\n      dup3\n      swap1\n      sub\n      0x1f\n      and\n      dup3\n      add\n      swap2\n    tag_92:\n      pop\n      pop\n      pop\n      pop\n      pop\n      swap1\n      dup1\n      0x02\n      add\n      sload\n      swap1\n      dup1\n      0x03\n      add\n      0x00\n      swap1\n      sload\n      swap1\n      0x0100\n      exp\n      swap1\n      div\n      0xffffffffffffffffffffffffffffffffffffffff\n      and\n      swap1\n      dup1\n      0x03\n      add\n      0x14\n      swap1\n      sload\n      swap1\n      0x0100\n      exp\n      swap1\n      div\n      0xff\n      and\n      swap1\n      dup1\n      0x04\n      add\n      sload\n      swap1\n      pop\n      dup7\n      jump\t// out\n        /* \"Practice/eCommerce.sol\":88:108  address public owner */\n    tag_38:\n      0x00\n      dup1\n      sload\n      swap1\n      0x0100\n      exp\n      swap1\n      div\n      0xffffffffffffffffffffffffffffffffffffffff\n      and\n      dup2\n      jump\t// out\n        /* \"Practice/eCommerce.sol\":647:683  mapping(uint => Order) public orders */\n    tag_44:\n      mstore(0x20, 0x04)\n      dup1\n      0x00\n      mstore\n      keccak256(0x00, 0x40)\n      0x00\n      swap2\n      pop\n      swap1\n      pop\n      dup1\n      0x00\n      add\n      sload\n      swap1\n      dup1\n      0x01\n      add\n      sload\n      swap1\n      dup1\n      0x02\n      add\n      0x00\n      swap1\n      sload\n      swap1\n      0x0100\n      exp\n      swap1\n      div\n      0xffffffffffffffffffffffffffffffffffffffff\n      and\n      swap1\n      dup1\n      0x03\n      add\n      sload\n      swap1\n      pop\n      dup5\n      jump\t// out\n        /* \"Practice/eCommerce.sol\":115:139  uint public productCount */\n    tag_49:\n      sload(0x01)\n      dup2\n      jump\t// out\n    tag_58:\n      dup3\n      dup1\n      sload\n      tag_95\n      swap1\n      tag_77\n      jump\t// in\n    tag_95:\n      swap1\n      0x00\n      mstore\n      keccak256(0x00, 0x20)\n      swap1\n      0x1f\n      add\n      0x20\n      swap1\n      div\n      dup2\n      add\n      swap3\n      dup3\n      tag_97\n      jumpi\n      0x00\n      dup6\n      sstore\n      jump(tag_96)\n    tag_97:\n      dup3\n      0x1f\n      lt\n      tag_98\n      jumpi\n      dup1\n      mload\n      not(0xff)\n      and\n      dup4\n      dup1\n      add\n      or\n      dup6\n      sstore\n      jump(tag_96)\n    tag_98:\n      dup3\n      dup1\n      add\n      0x01\n      add\n      dup6\n      sstore\n      dup3\n      iszero\n      tag_96\n      jumpi\n      swap2\n      dup3\n      add\n    tag_99:\n      dup3\n      dup2\n      gt\n      iszero\n      tag_100\n      jumpi\n      dup3\n      mload\n      dup3\n      sstore\n      swap2\n      0x20\n      add\n      swap2\n      swap1\n      0x01\n      add\n      swap1\n      jump(tag_99)\n    tag_100:\n    tag_96:\n      pop\n      swap1\n      pop\n      tag_101\n      swap2\n      swap1\n      tag_102\n      jump\t// in\n    tag_101:\n      pop\n      swap1\n      jump\t// out\n    tag_102:\n    tag_103:\n      dup1\n      dup3\n      gt\n      iszero\n      tag_104\n      jumpi\n      0x00\n      dup2\n      0x00\n      swap1\n      sstore\n      pop\n      0x01\n      add\n      jump(tag_103)\n    tag_104:\n      pop\n      swap1\n      jump\t// out\n        /* \"#utility.yul\":7:351   */\n    tag_106:\n      0x00\n        /* \"#utility.yul\":110:175   */\n      tag_108\n        /* \"#utility.yul\":125:174   */\n      tag_109\n        /* \"#utility.yul\":167:173   */\n      dup5\n        /* \"#utility.yul\":125:174   */\n      tag_110\n      jump\t// in\n    tag_109:\n        /* \"#utility.yul\":110:175   */\n      tag_111\n      jump\t// in\n    tag_108:\n        /* \"#utility.yul\":101:175   */\n      swap1\n      pop\n        /* \"#utility.yul\":198:204   */\n      dup3\n        /* \"#utility.yul\":191:196   */\n      dup2\n        /* \"#utility.yul\":184:205   */\n      mstore\n        /* \"#utility.yul\":236:240   */\n      0x20\n        /* \"#utility.yul\":229:234   */\n      dup2\n        /* \"#utility.yul\":225:241   */\n      add\n        /* \"#utility.yul\":274:277   */\n      dup5\n        /* \"#utility.yul\":265:271   */\n      dup5\n        /* \"#utility.yul\":260:263   */\n      dup5\n        /* \"#utility.yul\":256:272   */\n      add\n        /* \"#utility.yul\":253:278   */\n      gt\n        /* \"#utility.yul\":250:252   */\n      iszero\n      tag_112\n      jumpi\n        /* \"#utility.yul\":291:292   */\n      0x00\n        /* \"#utility.yul\":288:289   */\n      dup1\n        /* \"#utility.yul\":281:293   */\n      revert\n        /* \"#utility.yul\":250:252   */\n    tag_112:\n        /* \"#utility.yul\":304:345   */\n      tag_113\n        /* \"#utility.yul\":338:344   */\n      dup5\n        /* \"#utility.yul\":333:336   */\n      dup3\n        /* \"#utility.yul\":328:331   */\n      dup6\n        /* \"#utility.yul\":304:345   */\n      tag_114\n      jump\t// in\n    tag_113:\n        /* \"#utility.yul\":91:351   */\n      pop\n      swap4\n      swap3\n      pop\n      pop\n      pop\n      jump\t// out\n        /* \"#utility.yul\":371:644   */\n    tag_115:\n      0x00\n        /* \"#utility.yul\":476:479   */\n      dup3\n        /* \"#utility.yul\":469:473   */\n      0x1f\n        /* \"#utility.yul\":461:467   */\n      dup4\n        /* \"#utility.yul\":457:474   */\n      add\n        /* \"#utility.yul\":453:480   */\n      slt\n        /* \"#utility.yul\":443:445   */\n      tag_117\n      jumpi\n        /* \"#utility.yul\":494:495   */\n      0x00\n        /* \"#utility.yul\":491:492   */\n      dup1\n        /* \"#utility.yul\":484:496   */\n      revert\n        /* \"#utility.yul\":443:445   */\n    tag_117:\n        /* \"#utility.yul\":534:540   */\n      dup2\n        /* \"#utility.yul\":521:541   */\n      calldataload\n        /* \"#utility.yul\":559:638   */\n      tag_118\n        /* \"#utility.yul\":634:637   */\n      dup5\n        /* \"#utility.yul\":626:632   */\n      dup3\n        /* \"#utility.yul\":619:623   */\n      0x20\n        /* \"#utility.yul\":611:617   */\n      dup7\n        /* \"#utility.yul\":607:624   */\n      add\n        /* \"#utility.yul\":559:638   */\n      tag_106\n      jump\t// in\n    tag_118:\n        /* \"#utility.yul\":550:638   */\n      swap2\n      pop\n        /* \"#utility.yul\":433:644   */\n      pop\n      swap3\n      swap2\n      pop\n      pop\n      jump\t// out\n        /* \"#utility.yul\":650:789   */\n    tag_119:\n      0x00\n        /* \"#utility.yul\":734:740   */\n      dup2\n        /* \"#utility.yul\":721:741   */\n      calldataload\n        /* \"#utility.yul\":712:741   */\n      swap1\n      pop\n        /* \"#utility.yul\":750:783   */\n      tag_121\n        /* \"#utility.yul\":777:782   */\n      dup2\n        /* \"#utility.yul\":750:783   */\n      tag_122\n      jump\t// in\n    tag_121:\n        /* \"#utility.yul\":702:789   */\n      swap3\n      swap2\n      pop\n      pop\n      jump\t// out\n        /* \"#utility.yul\":795:1460   */\n    tag_14:\n      0x00\n      dup1\n      0x00\n        /* \"#utility.yul\":947:949   */\n      0x60\n        /* \"#utility.yul\":935:944   */\n      dup5\n        /* \"#utility.yul\":926:933   */\n      dup7\n        /* \"#utility.yul\":922:945   */\n      sub\n        /* \"#utility.yul\":918:950   */\n      slt\n        /* \"#utility.yul\":915:917   */\n      iszero\n      tag_124\n      jumpi\n        /* \"#utility.yul\":963:964   */\n      0x00\n        /* \"#utility.yul\":960:961   */\n      dup1\n        /* \"#utility.yul\":953:965   */\n      revert\n        /* \"#utility.yul\":915:917   */\n    tag_124:\n        /* \"#utility.yul\":1034:1035   */\n      0x00\n        /* \"#utility.yul\":1023:1032   */\n      dup5\n        /* \"#utility.yul\":1019:1036   */\n      add\n        /* \"#utility.yul\":1006:1037   */\n      calldataload\n        /* \"#utility.yul\":1064:1082   */\n      0xffffffffffffffff\n        /* \"#utility.yul\":1056:1062   */\n      dup2\n        /* \"#utility.yul\":1053:1083   */\n      gt\n        /* \"#utility.yul\":1050:1052   */\n      iszero\n      tag_125\n      jumpi\n        /* \"#utility.yul\":1096:1097   */\n      0x00\n        /* \"#utility.yul\":1093:1094   */\n      dup1\n        /* \"#utility.yul\":1086:1098   */\n      revert\n        /* \"#utility.yul\":1050:1052   */\n    tag_125:\n        /* \"#utility.yul\":1124:1187   */\n      tag_126\n        /* \"#utility.yul\":1179:1186   */\n      dup7\n        /* \"#utility.yul\":1170:1176   */\n      dup3\n        /* \"#utility.yul\":1159:1168   */\n      dup8\n        /* \"#utility.yul\":1155:1177   */\n      add\n        /* \"#utility.yul\":1124:1187   */\n      tag_115\n      jump\t// in\n    tag_126:\n        /* \"#utility.yul\":1114:1187   */\n      swap4\n      pop\n        /* \"#utility.yul\":977:1197   */\n      pop\n        /* \"#utility.yul\":1236:1238   */\n      0x20\n        /* \"#utility.yul\":1262:1315   */\n      tag_127\n        /* \"#utility.yul\":1307:1314   */\n      dup7\n        /* \"#utility.yul\":1298:1304   */\n      dup3\n        /* \"#utility.yul\":1287:1296   */\n      dup8\n        /* \"#utility.yul\":1283:1305   */\n      add\n        /* \"#utility.yul\":1262:1315   */\n      tag_119\n      jump\t// in\n    tag_127:\n        /* \"#utility.yul\":1252:1315   */\n      swap3\n      pop\n        /* \"#utility.yul\":1207:1325   */\n      pop\n        /* \"#utility.yul\":1364:1366   */\n      0x40\n        /* \"#utility.yul\":1390:1443   */\n      tag_128\n        /* \"#utility.yul\":1435:1442   */\n      dup7\n        /* \"#utility.yul\":1426:1432   */\n      dup3\n        /* \"#utility.yul\":1415:1424   */\n      dup8\n        /* \"#utility.yul\":1411:1433   */\n      add\n        /* \"#utility.yul\":1390:1443   */\n      tag_119\n      jump\t// in\n    tag_128:\n        /* \"#utility.yul\":1380:1443   */\n      swap2\n      pop\n        /* \"#utility.yul\":1335:1453   */\n      pop\n        /* \"#utility.yul\":905:1460   */\n      swap3\n      pop\n      swap3\n      pop\n      swap3\n      jump\t// out\n        /* \"#utility.yul\":1466:1728   */\n    tag_28:\n      0x00\n        /* \"#utility.yul\":1574:1576   */\n      0x20\n        /* \"#utility.yul\":1562:1571   */\n      dup3\n        /* \"#utility.yul\":1553:1560   */\n      dup5\n        /* \"#utility.yul\":1549:1572   */\n      sub\n        /* \"#utility.yul\":1545:1577   */\n      slt\n        /* \"#utility.yul\":1542:1544   */\n      iszero\n      tag_130\n      jumpi\n        /* \"#utility.yul\":1590:1591   */\n      0x00\n        /* \"#utility.yul\":1587:1588   */\n      dup1\n        /* \"#utility.yul\":1580:1592   */\n      revert\n        /* \"#utility.yul\":1542:1544   */\n    tag_130:\n        /* \"#utility.yul\":1633:1634   */\n      0x00\n        /* \"#utility.yul\":1658:1711   */\n      tag_131\n        /* \"#utility.yul\":1703:1710   */\n      dup5\n        /* \"#utility.yul\":1694:1700   */\n      dup3\n        /* \"#utility.yul\":1683:1692   */\n      dup6\n        /* \"#utility.yul\":1679:1701   */\n      add\n        /* \"#utility.yul\":1658:1711   */\n      tag_119\n      jump\t// in\n    tag_131:\n        /* \"#utility.yul\":1648:1711   */\n      swap2\n      pop\n        /* \"#utility.yul\":1604:1721   */\n      pop\n        /* \"#utility.yul\":1532:1728   */\n      swap3\n      swap2\n      pop\n      pop\n      jump\t// out\n        /* \"#utility.yul\":1734:2141   */\n    tag_23:\n      0x00\n      dup1\n        /* \"#utility.yul\":1859:1861   */\n      0x40\n        /* \"#utility.yul\":1847:1856   */\n      dup4\n        /* \"#utility.yul\":1838:1845   */\n      dup6\n        /* \"#utility.yul\":1834:1857   */\n      sub\n        /* \"#utility.yul\":1830:1862   */\n      slt\n        /* \"#utility.yul\":1827:1829   */\n      iszero\n      tag_133\n      jumpi\n        /* \"#utility.yul\":1875:1876   */\n      0x00\n        /* \"#utility.yul\":1872:1873   */\n      dup1\n        /* \"#utility.yul\":1865:1877   */\n      revert\n        /* \"#utility.yul\":1827:1829   */\n    tag_133:\n        /* \"#utility.yul\":1918:1919   */\n      0x00\n        /* \"#utility.yul\":1943:1996   */\n      tag_134\n        /* \"#utility.yul\":1988:1995   */\n      dup6\n        /* \"#utility.yul\":1979:1985   */\n      dup3\n        /* \"#utility.yul\":1968:1977   */\n      dup7\n        /* \"#utility.yul\":1964:1986   */\n      add\n        /* \"#utility.yul\":1943:1996   */\n      tag_119\n      jump\t// in\n    tag_134:\n        /* \"#utility.yul\":1933:1996   */\n      swap3\n      pop\n        /* \"#utility.yul\":1889:2006   */\n      pop\n        /* \"#utility.yul\":2045:2047   */\n      0x20\n        /* \"#utility.yul\":2071:2124   */\n      tag_135\n        /* \"#utility.yul\":2116:2123   */\n      dup6\n        /* \"#utility.yul\":2107:2113   */\n      dup3\n        /* \"#utility.yul\":2096:2105   */\n      dup7\n        /* \"#utility.yul\":2092:2114   */\n      add\n        /* \"#utility.yul\":2071:2124   */\n      tag_119\n      jump\t// in\n    tag_135:\n        /* \"#utility.yul\":2061:2124   */\n      swap2\n      pop\n        /* \"#utility.yul\":2016:2134   */\n      pop\n        /* \"#utility.yul\":1817:2141   */\n      swap3\n      pop\n      swap3\n      swap1\n      pop\n      jump\t// out\n        /* \"#utility.yul\":2147:2289   */\n    tag_136:\n        /* \"#utility.yul\":2250:2282   */\n      tag_138\n        /* \"#utility.yul\":2276:2281   */\n      dup2\n        /* \"#utility.yul\":2250:2282   */\n      tag_139\n      jump\t// in\n    tag_138:\n        /* \"#utility.yul\":2245:2248   */\n      dup3\n        /* \"#utility.yul\":2238:2283   */\n      mstore\n        /* \"#utility.yul\":2228:2289   */\n      pop\n      pop\n      jump\t// out\n        /* \"#utility.yul\":2295:2413   */\n    tag_140:\n        /* \"#utility.yul\":2382:2406   */\n      tag_142\n        /* \"#utility.yul\":2400:2405   */\n      dup2\n        /* \"#utility.yul\":2382:2406   */\n      tag_143\n      jump\t// in\n    tag_142:\n        /* \"#utility.yul\":2377:2380   */\n      dup3\n        /* \"#utility.yul\":2370:2407   */\n      mstore\n        /* \"#utility.yul\":2360:2413   */\n      pop\n      pop\n      jump\t// out\n        /* \"#utility.yul\":2419:2528   */\n    tag_144:\n        /* \"#utility.yul\":2500:2521   */\n      tag_146\n        /* \"#utility.yul\":2515:2520   */\n      dup2\n        /* \"#utility.yul\":2500:2521   */\n      tag_147\n      jump\t// in\n    tag_146:\n        /* \"#utility.yul\":2495:2498   */\n      dup3\n        /* \"#utility.yul\":2488:2522   */\n      mstore\n        /* \"#utility.yul\":2478:2528   */\n      pop\n      pop\n      jump\t// out\n        /* \"#utility.yul\":2534:2898   */\n    tag_148:\n      0x00\n        /* \"#utility.yul\":2650:2689   */\n      tag_150\n        /* \"#utility.yul\":2683:2688   */\n      dup3\n        /* \"#utility.yul\":2650:2689   */\n      tag_151\n      jump\t// in\n    tag_150:\n        /* \"#utility.yul\":2705:2776   */\n      tag_152\n        /* \"#utility.yul\":2769:2775   */\n      dup2\n        /* \"#utility.yul\":2764:2767   */\n      dup6\n        /* \"#utility.yul\":2705:2776   */\n      tag_153\n      jump\t// in\n    tag_152:\n        /* \"#utility.yul\":2698:2776   */\n      swap4\n      pop\n        /* \"#utility.yul\":2785:2837   */\n      tag_154\n        /* \"#utility.yul\":2830:2836   */\n      dup2\n        /* \"#utility.yul\":2825:2828   */\n      dup6\n        /* \"#utility.yul\":2818:2822   */\n      0x20\n        /* \"#utility.yul\":2811:2816   */\n      dup7\n        /* \"#utility.yul\":2807:2823   */\n      add\n        /* \"#utility.yul\":2785:2837   */\n      tag_155\n      jump\t// in\n    tag_154:\n        /* \"#utility.yul\":2862:2891   */\n      tag_156\n        /* \"#utility.yul\":2884:2890   */\n      dup2\n        /* \"#utility.yul\":2862:2891   */\n      tag_157\n      jump\t// in\n    tag_156:\n        /* \"#utility.yul\":2857:2860   */\n      dup5\n        /* \"#utility.yul\":2853:2892   */\n      add\n        /* \"#utility.yul\":2846:2892   */\n      swap2\n      pop\n        /* \"#utility.yul\":2626:2898   */\n      pop\n      swap3\n      swap2\n      pop\n      pop\n      jump\t// out\n        /* \"#utility.yul\":2904:3217   */\n    tag_158:\n      0x00\n        /* \"#utility.yul\":3067:3134   */\n      tag_160\n        /* \"#utility.yul\":3131:3133   */\n      0x0f\n        /* \"#utility.yul\":3126:3129   */\n      dup4\n        /* \"#utility.yul\":3067:3134   */\n      tag_153\n      jump\t// in\n    tag_160:\n        /* \"#utility.yul\":3060:3134   */\n      swap2\n      pop\n        /* \"#utility.yul\":3164:3181   */\n      0x496e636f72726563742070726963650000000000000000000000000000000000\n        /* \"#utility.yul\":3160:3161   */\n      0x00\n        /* \"#utility.yul\":3155:3158   */\n      dup4\n        /* \"#utility.yul\":3151:3162   */\n      add\n        /* \"#utility.yul\":3144:3182   */\n      mstore\n        /* \"#utility.yul\":3208:3210   */\n      0x20\n        /* \"#utility.yul\":3203:3206   */\n      dup3\n        /* \"#utility.yul\":3199:3211   */\n      add\n        /* \"#utility.yul\":3192:3211   */\n      swap1\n      pop\n        /* \"#utility.yul\":3050:3217   */\n      swap2\n      swap1\n      pop\n      jump\t// out\n        /* \"#utility.yul\":3223:3542   */\n    tag_161:\n      0x00\n        /* \"#utility.yul\":3386:3453   */\n      tag_163\n        /* \"#utility.yul\":3450:3452   */\n      0x15\n        /* \"#utility.yul\":3445:3448   */\n      dup4\n        /* \"#utility.yul\":3386:3453   */\n      tag_153\n      jump\t// in\n    tag_163:\n        /* \"#utility.yul\":3379:3453   */\n      swap2\n      pop\n        /* \"#utility.yul\":3483:3506   */\n      0x50726f64756374206e6f7420617661696c61626c650000000000000000000000\n        /* \"#utility.yul\":3479:3480   */\n      0x00\n        /* \"#utility.yul\":3474:3477   */\n      dup4\n        /* \"#utility.yul\":3470:3481   */\n      add\n        /* \"#utility.yul\":3463:3507   */\n      mstore\n        /* \"#utility.yul\":3533:3535   */\n      0x20\n        /* \"#utility.yul\":3528:3531   */\n      dup3\n        /* \"#utility.yul\":3524:3536   */\n      add\n        /* \"#utility.yul\":3517:3536   */\n      swap1\n      pop\n        /* \"#utility.yul\":3369:3542   */\n      swap2\n      swap1\n      pop\n      jump\t// out\n        /* \"#utility.yul\":3548:3856   */\n    tag_164:\n      0x00\n        /* \"#utility.yul\":3711:3778   */\n      tag_166\n        /* \"#utility.yul\":3775:3777   */\n      0x0a\n        /* \"#utility.yul\":3770:3773   */\n      dup4\n        /* \"#utility.yul\":3711:3778   */\n      tag_153\n      jump\t// in\n    tag_166:\n        /* \"#utility.yul\":3704:3778   */\n      swap2\n      pop\n        /* \"#utility.yul\":3808:3820   */\n      0x4e6f742073656c6c657200000000000000000000000000000000000000000000\n        /* \"#utility.yul\":3804:3805   */\n      0x00\n        /* \"#utility.yul\":3799:3802   */\n      dup4\n        /* \"#utility.yul\":3795:3806   */\n      add\n        /* \"#utility.yul\":3788:3821   */\n      mstore\n        /* \"#utility.yul\":3847:3849   */\n      0x20\n        /* \"#utility.yul\":3842:3845   */\n      dup3\n        /* \"#utility.yul\":3838:3850   */\n      add\n        /* \"#utility.yul\":3831:3850   */\n      swap1\n      pop\n        /* \"#utility.yul\":3694:3856   */\n      swap2\n      swap1\n      pop\n      jump\t// out\n        /* \"#utility.yul\":3862:4179   */\n    tag_167:\n      0x00\n        /* \"#utility.yul\":4025:4092   */\n      tag_169\n        /* \"#utility.yul\":4089:4091   */\n      0x13\n        /* \"#utility.yul\":4084:4087   */\n      dup4\n        /* \"#utility.yul\":4025:4092   */\n      tag_153\n      jump\t// in\n    tag_169:\n        /* \"#utility.yul\":4018:4092   */\n      swap2\n      pop\n        /* \"#utility.yul\":4122:4143   */\n      0x6e6f7420656e6f756768207175616e7469747900000000000000000000000000\n        /* \"#utility.yul\":4118:4119   */\n      0x00\n        /* \"#utility.yul\":4113:4116   */\n      dup4\n        /* \"#utility.yul\":4109:4120   */\n      add\n        /* \"#utility.yul\":4102:4144   */\n      mstore\n        /* \"#utility.yul\":4170:4172   */\n      0x20\n        /* \"#utility.yul\":4165:4168   */\n      dup3\n        /* \"#utility.yul\":4161:4173   */\n      add\n        /* \"#utility.yul\":4154:4173   */\n      swap1\n      pop\n        /* \"#utility.yul\":4008:4179   */\n      swap2\n      swap1\n      pop\n      jump\t// out\n        /* \"#utility.yul\":4185:4511   */\n    tag_170:\n      0x00\n        /* \"#utility.yul\":4348:4415   */\n      tag_172\n        /* \"#utility.yul\":4412:4414   */\n      0x1c\n        /* \"#utility.yul\":4407:4410   */\n      dup4\n        /* \"#utility.yul\":4348:4415   */\n      tag_153\n      jump\t// in\n    tag_172:\n        /* \"#utility.yul\":4341:4415   */\n      swap2\n      pop\n        /* \"#utility.yul\":4445:4475   */\n      0x5072696365206d7573742062652067726561746572207468616e203000000000\n        /* \"#utility.yul\":4441:4442   */\n      0x00\n        /* \"#utility.yul\":4436:4439   */\n      dup4\n        /* \"#utility.yul\":4432:4443   */\n      add\n        /* \"#utility.yul\":4425:4476   */\n      mstore\n        /* \"#utility.yul\":4502:4504   */\n      0x20\n        /* \"#utility.yul\":4497:4500   */\n      dup3\n        /* \"#utility.yul\":4493:4505   */\n      add\n        /* \"#utility.yul\":4486:4505   */\n      swap1\n      pop\n        /* \"#utility.yul\":4331:4511   */\n      swap2\n      swap1\n      pop\n      jump\t// out\n        /* \"#utility.yul\":4517:4635   */\n    tag_173:\n        /* \"#utility.yul\":4604:4628   */\n      tag_175\n        /* \"#utility.yul\":4622:4627   */\n      dup2\n        /* \"#utility.yul\":4604:4628   */\n      tag_176\n      jump\t// in\n    tag_175:\n        /* \"#utility.yul\":4599:4602   */\n      dup3\n        /* \"#utility.yul\":4592:4629   */\n      mstore\n        /* \"#utility.yul\":4582:4635   */\n      pop\n      pop\n      jump\t// out\n        /* \"#utility.yul\":4641:4863   */\n    tag_40:\n      0x00\n        /* \"#utility.yul\":4772:4774   */\n      0x20\n        /* \"#utility.yul\":4761:4770   */\n      dup3\n        /* \"#utility.yul\":4757:4775   */\n      add\n        /* \"#utility.yul\":4749:4775   */\n      swap1\n      pop\n        /* \"#utility.yul\":4785:4856   */\n      tag_178\n        /* \"#utility.yul\":4853:4854   */\n      0x00\n        /* \"#utility.yul\":4842:4851   */\n      dup4\n        /* \"#utility.yul\":4838:4855   */\n      add\n        /* \"#utility.yul\":4829:4835   */\n      dup5\n        /* \"#utility.yul\":4785:4856   */\n      tag_140\n      jump\t// in\n    tag_178:\n        /* \"#utility.yul\":4739:4863   */\n      swap3\n      swap2\n      pop\n      pop\n      jump\t// out\n        /* \"#utility.yul\":4869:5288   */\n    tag_67:\n      0x00\n        /* \"#utility.yul\":5073:5075   */\n      0x20\n        /* \"#utility.yul\":5062:5071   */\n      dup3\n        /* \"#utility.yul\":5058:5076   */\n      add\n        /* \"#utility.yul\":5050:5076   */\n      swap1\n      pop\n        /* \"#utility.yul\":5122:5131   */\n      dup2\n        /* \"#utility.yul\":5116:5120   */\n      dup2\n        /* \"#utility.yul\":5112:5132   */\n      sub\n        /* \"#utility.yul\":5108:5109   */\n      0x00\n        /* \"#utility.yul\":5097:5106   */\n      dup4\n        /* \"#utility.yul\":5093:5110   */\n      add\n        /* \"#utility.yul\":5086:5133   */\n      mstore\n        /* \"#utility.yul\":5150:5281   */\n      tag_180\n        /* \"#utility.yul\":5276:5280   */\n      dup2\n        /* \"#utility.yul\":5150:5281   */\n      tag_158\n      jump\t// in\n    tag_180:\n        /* \"#utility.yul\":5142:5281   */\n      swap1\n      pop\n        /* \"#utility.yul\":5040:5288   */\n      swap2\n      swap1\n      pop\n      jump\t// out\n        /* \"#utility.yul\":5294:5713   */\n    tag_64:\n      0x00\n        /* \"#utility.yul\":5498:5500   */\n      0x20\n        /* \"#utility.yul\":5487:5496   */\n      dup3\n        /* \"#utility.yul\":5483:5501   */\n      add\n        /* \"#utility.yul\":5475:5501   */\n      swap1\n      pop\n        /* \"#utility.yul\":5547:5556   */\n      dup2\n        /* \"#utility.yul\":5541:5545   */\n      dup2\n        /* \"#utility.yul\":5537:5557   */\n      sub\n        /* \"#utility.yul\":5533:5534   */\n      0x00\n        /* \"#utility.yul\":5522:5531   */\n      dup4\n        /* \"#utility.yul\":5518:5535   */\n      add\n        /* \"#utility.yul\":5511:5558   */\n      mstore\n        /* \"#utility.yul\":5575:5706   */\n      tag_182\n        /* \"#utility.yul\":5701:5705   */\n      dup2\n        /* \"#utility.yul\":5575:5706   */\n      tag_161\n      jump\t// in\n    tag_182:\n        /* \"#utility.yul\":5567:5706   */\n      swap1\n      pop\n        /* \"#utility.yul\":5465:5713   */\n      swap2\n      swap1\n      pop\n      jump\t// out\n        /* \"#utility.yul\":5719:6138   */\n    tag_88:\n      0x00\n        /* \"#utility.yul\":5923:5925   */\n      0x20\n        /* \"#utility.yul\":5912:5921   */\n      dup3\n        /* \"#utility.yul\":5908:5926   */\n      add\n        /* \"#utility.yul\":5900:5926   */\n      swap1\n      pop\n        /* \"#utility.yul\":5972:5981   */\n      dup2\n        /* \"#utility.yul\":5966:5970   */\n      dup2\n        /* \"#utility.yul\":5962:5982   */\n      sub\n        /* \"#utility.yul\":5958:5959   */\n      0x00\n        /* \"#utility.yul\":5947:5956   */\n      dup4\n        /* \"#utility.yul\":5943:5960   */\n      add\n        /* \"#utility.yul\":5936:5983   */\n      mstore\n        /* \"#utility.yul\":6000:6131   */\n      tag_184\n        /* \"#utility.yul\":6126:6130   */\n      dup2\n        /* \"#utility.yul\":6000:6131   */\n      tag_164\n      jump\t// in\n    tag_184:\n        /* \"#utility.yul\":5992:6131   */\n      swap1\n      pop\n        /* \"#utility.yul\":5890:6138   */\n      swap2\n      swap1\n      pop\n      jump\t// out\n        /* \"#utility.yul\":6144:6563   */\n    tag_72:\n      0x00\n        /* \"#utility.yul\":6348:6350   */\n      0x20\n        /* \"#utility.yul\":6337:6346   */\n      dup3\n        /* \"#utility.yul\":6333:6351   */\n      add\n        /* \"#utility.yul\":6325:6351   */\n      swap1\n      pop\n        /* \"#utility.yul\":6397:6406   */\n      dup2\n        /* \"#utility.yul\":6391:6395   */\n      dup2\n        /* \"#utility.yul\":6387:6407   */\n      sub\n        /* \"#utility.yul\":6383:6384   */\n      0x00\n        /* \"#utility.yul\":6372:6381   */\n      dup4\n        /* \"#utility.yul\":6368:6385   */\n      add\n        /* \"#utility.yul\":6361:6408   */\n      mstore\n        /* \"#utility.yul\":6425:6556   */\n      tag_186\n        /* \"#utility.yul\":6551:6555   */\n      dup2\n        /* \"#utility.yul\":6425:6556   */\n      tag_167\n      jump\t// in\n    tag_186:\n        /* \"#utility.yul\":6417:6556   */\n      swap1\n      pop\n        /* \"#utility.yul\":6315:6563   */\n      swap2\n      swap1\n      pop\n      jump\t// out\n        /* \"#utility.yul\":6569:6988   */\n    tag_54:\n      0x00\n        /* \"#utility.yul\":6773:6775   */\n      0x20\n        /* \"#utility.yul\":6762:6771   */\n      dup3\n        /* \"#utility.yul\":6758:6776   */\n      add\n        /* \"#utility.yul\":6750:6776   */\n      swap1\n      pop\n        /* \"#utility.yul\":6822:6831   */\n      dup2\n        /* \"#utility.yul\":6816:6820   */\n      dup2\n        /* \"#utility.yul\":6812:6832   */\n      sub\n        /* \"#utility.yul\":6808:6809   */\n      0x00\n        /* \"#utility.yul\":6797:6806   */\n      dup4\n        /* \"#utility.yul\":6793:6810   */\n      add\n        /* \"#utility.yul\":6786:6833   */\n      mstore\n        /* \"#utility.yul\":6850:6981   */\n      tag_188\n        /* \"#utility.yul\":6976:6980   */\n      dup2\n        /* \"#utility.yul\":6850:6981   */\n      tag_170\n      jump\t// in\n    tag_188:\n        /* \"#utility.yul\":6842:6981   */\n      swap1\n      pop\n        /* \"#utility.yul\":6740:6988   */\n      swap2\n      swap1\n      pop\n      jump\t// out\n        /* \"#utility.yul\":6994:7216   */\n    tag_20:\n      0x00\n        /* \"#utility.yul\":7125:7127   */\n      0x20\n        /* \"#utility.yul\":7114:7123   */\n      dup3\n        /* \"#utility.yul\":7110:7128   */\n      add\n        /* \"#utility.yul\":7102:7128   */\n      swap1\n      pop\n        /* \"#utility.yul\":7138:7209   */\n      tag_190\n        /* \"#utility.yul\":7206:7207   */\n      0x00\n        /* \"#utility.yul\":7195:7204   */\n      dup4\n        /* \"#utility.yul\":7191:7208   */\n      add\n        /* \"#utility.yul\":7182:7188   */\n      dup5\n        /* \"#utility.yul\":7138:7209   */\n      tag_173\n      jump\t// in\n    tag_190:\n        /* \"#utility.yul\":7092:7216   */\n      swap3\n      swap2\n      pop\n      pop\n      jump\t// out\n        /* \"#utility.yul\":7222:7866   */\n    tag_60:\n      0x00\n        /* \"#utility.yul\":7457:7460   */\n      0x80\n        /* \"#utility.yul\":7446:7455   */\n      dup3\n        /* \"#utility.yul\":7442:7461   */\n      add\n        /* \"#utility.yul\":7434:7461   */\n      swap1\n      pop\n        /* \"#utility.yul\":7471:7542   */\n      tag_192\n        /* \"#utility.yul\":7539:7540   */\n      0x00\n        /* \"#utility.yul\":7528:7537   */\n      dup4\n        /* \"#utility.yul\":7524:7541   */\n      add\n        /* \"#utility.yul\":7515:7521   */\n      dup8\n        /* \"#utility.yul\":7471:7542   */\n      tag_173\n      jump\t// in\n    tag_192:\n        /* \"#utility.yul\":7589:7598   */\n      dup2\n        /* \"#utility.yul\":7583:7587   */\n      dup2\n        /* \"#utility.yul\":7579:7599   */\n      sub\n        /* \"#utility.yul\":7574:7576   */\n      0x20\n        /* \"#utility.yul\":7563:7572   */\n      dup4\n        /* \"#utility.yul\":7559:7577   */\n      add\n        /* \"#utility.yul\":7552:7600   */\n      mstore\n        /* \"#utility.yul\":7617:7695   */\n      tag_193\n        /* \"#utility.yul\":7690:7694   */\n      dup2\n        /* \"#utility.yul\":7681:7687   */\n      dup7\n        /* \"#utility.yul\":7617:7695   */\n      tag_148\n      jump\t// in\n    tag_193:\n        /* \"#utility.yul\":7609:7695   */\n      swap1\n      pop\n        /* \"#utility.yul\":7705:7777   */\n      tag_194\n        /* \"#utility.yul\":7773:7775   */\n      0x40\n        /* \"#utility.yul\":7762:7771   */\n      dup4\n        /* \"#utility.yul\":7758:7776   */\n      add\n        /* \"#utility.yul\":7749:7755   */\n      dup6\n        /* \"#utility.yul\":7705:7777   */\n      tag_173\n      jump\t// in\n    tag_194:\n        /* \"#utility.yul\":7787:7859   */\n      tag_195\n        /* \"#utility.yul\":7855:7857   */\n      0x60\n        /* \"#utility.yul\":7844:7853   */\n      dup4\n        /* \"#utility.yul\":7840:7858   */\n      add\n        /* \"#utility.yul\":7831:7837   */\n      dup5\n        /* \"#utility.yul\":7787:7859   */\n      tag_140\n      jump\t// in\n    tag_195:\n        /* \"#utility.yul\":7424:7866   */\n      swap6\n      swap5\n      pop\n      pop\n      pop\n      pop\n      pop\n      jump\t// out\n        /* \"#utility.yul\":7872:8758   */\n    tag_35:\n      0x00\n        /* \"#utility.yul\":8173:8176   */\n      0xc0\n        /* \"#utility.yul\":8162:8171   */\n      dup3\n        /* \"#utility.yul\":8158:8177   */\n      add\n        /* \"#utility.yul\":8150:8177   */\n      swap1\n      pop\n        /* \"#utility.yul\":8187:8258   */\n      tag_197\n        /* \"#utility.yul\":8255:8256   */\n      0x00\n        /* \"#utility.yul\":8244:8253   */\n      dup4\n        /* \"#utility.yul\":8240:8257   */\n      add\n        /* \"#utility.yul\":8231:8237   */\n      dup10\n        /* \"#utility.yul\":8187:8258   */\n      tag_173\n      jump\t// in\n    tag_197:\n        /* \"#utility.yul\":8305:8314   */\n      dup2\n        /* \"#utility.yul\":8299:8303   */\n      dup2\n        /* \"#utility.yul\":8295:8315   */\n      sub\n        /* \"#utility.yul\":8290:8292   */\n      0x20\n        /* \"#utility.yul\":8279:8288   */\n      dup4\n        /* \"#utility.yul\":8275:8293   */\n      add\n        /* \"#utility.yul\":8268:8316   */\n      mstore\n        /* \"#utility.yul\":8333:8411   */\n      tag_198\n        /* \"#utility.yul\":8406:8410   */\n      dup2\n        /* \"#utility.yul\":8397:8403   */\n      dup9\n        /* \"#utility.yul\":8333:8411   */\n      tag_148\n      jump\t// in\n    tag_198:\n        /* \"#utility.yul\":8325:8411   */\n      swap1\n      pop\n        /* \"#utility.yul\":8421:8493   */\n      tag_199\n        /* \"#utility.yul\":8489:8491   */\n      0x40\n        /* \"#utility.yul\":8478:8487   */\n      dup4\n        /* \"#utility.yul\":8474:8492   */\n      add\n        /* \"#utility.yul\":8465:8471   */\n      dup8\n        /* \"#utility.yul\":8421:8493   */\n      tag_173\n      jump\t// in\n    tag_199:\n        /* \"#utility.yul\":8503:8591   */\n      tag_200\n        /* \"#utility.yul\":8587:8589   */\n      0x60\n        /* \"#utility.yul\":8576:8585   */\n      dup4\n        /* \"#utility.yul\":8572:8590   */\n      add\n        /* \"#utility.yul\":8563:8569   */\n      dup7\n        /* \"#utility.yul\":8503:8591   */\n      tag_136\n      jump\t// in\n    tag_200:\n        /* \"#utility.yul\":8601:8668   */\n      tag_201\n        /* \"#utility.yul\":8663:8666   */\n      0x80\n        /* \"#utility.yul\":8652:8661   */\n      dup4\n        /* \"#utility.yul\":8648:8667   */\n      add\n        /* \"#utility.yul\":8639:8645   */\n      dup6\n        /* \"#utility.yul\":8601:8668   */\n      tag_144\n      jump\t// in\n    tag_201:\n        /* \"#utility.yul\":8678:8751   */\n      tag_202\n        /* \"#utility.yul\":8746:8749   */\n      0xa0\n        /* \"#utility.yul\":8735:8744   */\n      dup4\n        /* \"#utility.yul\":8731:8750   */\n      add\n        /* \"#utility.yul\":8722:8728   */\n      dup5\n        /* \"#utility.yul\":8678:8751   */\n      tag_173\n      jump\t// in\n    tag_202:\n        /* \"#utility.yul\":8140:8758   */\n      swap8\n      swap7\n      pop\n      pop\n      pop\n      pop\n      pop\n      pop\n      pop\n      jump\t// out\n        /* \"#utility.yul\":8764:9317   */\n    tag_46:\n      0x00\n        /* \"#utility.yul\":8979:8982   */\n      0x80\n        /* \"#utility.yul\":8968:8977   */\n      dup3\n        /* \"#utility.yul\":8964:8983   */\n      add\n        /* \"#utility.yul\":8956:8983   */\n      swap1\n      pop\n        /* \"#utility.yul\":8993:9064   */\n      tag_204\n        /* \"#utility.yul\":9061:9062   */\n      0x00\n        /* \"#utility.yul\":9050:9059   */\n      dup4\n        /* \"#utility.yul\":9046:9063   */\n      add\n        /* \"#utility.yul\":9037:9043   */\n      dup8\n        /* \"#utility.yul\":8993:9064   */\n      tag_173\n      jump\t// in\n    tag_204:\n        /* \"#utility.yul\":9074:9146   */\n      tag_205\n        /* \"#utility.yul\":9142:9144   */\n      0x20\n        /* \"#utility.yul\":9131:9140   */\n      dup4\n        /* \"#utility.yul\":9127:9145   */\n      add\n        /* \"#utility.yul\":9118:9124   */\n      dup7\n        /* \"#utility.yul\":9074:9146   */\n      tag_173\n      jump\t// in\n    tag_205:\n        /* \"#utility.yul\":9156:9228   */\n      tag_206\n        /* \"#utility.yul\":9224:9226   */\n      0x40\n        /* \"#utility.yul\":9213:9222   */\n      dup4\n        /* \"#utility.yul\":9209:9227   */\n      add\n        /* \"#utility.yul\":9200:9206   */\n      dup6\n        /* \"#utility.yul\":9156:9228   */\n      tag_140\n      jump\t// in\n    tag_206:\n        /* \"#utility.yul\":9238:9310   */\n      tag_207\n        /* \"#utility.yul\":9306:9308   */\n      0x60\n        /* \"#utility.yul\":9295:9304   */\n      dup4\n        /* \"#utility.yul\":9291:9309   */\n      add\n        /* \"#utility.yul\":9282:9288   */\n      dup5\n        /* \"#utility.yul\":9238:9310   */\n      tag_173\n      jump\t// in\n    tag_207:\n        /* \"#utility.yul\":8946:9317   */\n      swap6\n      swap5\n      pop\n      pop\n      pop\n      pop\n      pop\n      jump\t// out\n        /* \"#utility.yul\":9323:9606   */\n    tag_111:\n      0x00\n        /* \"#utility.yul\":9389:9391   */\n      0x40\n        /* \"#utility.yul\":9383:9392   */\n      mload\n        /* \"#utility.yul\":9373:9392   */\n      swap1\n      pop\n        /* \"#utility.yul\":9431:9435   */\n      dup2\n        /* \"#utility.yul\":9423:9429   */\n      dup2\n        /* \"#utility.yul\":9419:9436   */\n      add\n        /* \"#utility.yul\":9538:9544   */\n      dup2\n        /* \"#utility.yul\":9526:9536   */\n      dup2\n        /* \"#utility.yul\":9523:9545   */\n      lt\n        /* \"#utility.yul\":9502:9520   */\n      0xffffffffffffffff\n        /* \"#utility.yul\":9490:9500   */\n      dup3\n        /* \"#utility.yul\":9487:9521   */\n      gt\n        /* \"#utility.yul\":9484:9546   */\n      or\n        /* \"#utility.yul\":9481:9483   */\n      iszero\n      tag_209\n      jumpi\n        /* \"#utility.yul\":9549:9567   */\n      tag_210\n      tag_211\n      jump\t// in\n    tag_210:\n        /* \"#utility.yul\":9481:9483   */\n    tag_209:\n        /* \"#utility.yul\":9589:9599   */\n      dup1\n        /* \"#utility.yul\":9585:9587   */\n      0x40\n        /* \"#utility.yul\":9578:9600   */\n      mstore\n        /* \"#utility.yul\":9363:9606   */\n      pop\n      swap2\n      swap1\n      pop\n      jump\t// out\n        /* \"#utility.yul\":9612:9944   */\n    tag_110:\n      0x00\n        /* \"#utility.yul\":9764:9782   */\n      0xffffffffffffffff\n        /* \"#utility.yul\":9756:9762   */\n      dup3\n        /* \"#utility.yul\":9753:9783   */\n      gt\n        /* \"#utility.yul\":9750:9752   */\n      iszero\n      tag_213\n      jumpi\n        /* \"#utility.yul\":9786:9804   */\n      tag_214\n      tag_211\n      jump\t// in\n    tag_214:\n        /* \"#utility.yul\":9750:9752   */\n    tag_213:\n        /* \"#utility.yul\":9871:9875   */\n      0x1f\n        /* \"#utility.yul\":9867:9876   */\n      not\n        /* \"#utility.yul\":9860:9864   */\n      0x1f\n        /* \"#utility.yul\":9852:9858   */\n      dup4\n        /* \"#utility.yul\":9848:9865   */\n      add\n        /* \"#utility.yul\":9844:9877   */\n      and\n        /* \"#utility.yul\":9836:9877   */\n      swap1\n      pop\n        /* \"#utility.yul\":9932:9936   */\n      0x20\n        /* \"#utility.yul\":9926:9930   */\n      dup2\n        /* \"#utility.yul\":9922:9937   */\n      add\n        /* \"#utility.yul\":9914:9937   */\n      swap1\n      pop\n        /* \"#utility.yul\":9679:9944   */\n      swap2\n      swap1\n      pop\n      jump\t// out\n        /* \"#utility.yul\":9950:10049   */\n    tag_151:\n      0x00\n        /* \"#utility.yul\":10036:10041   */\n      dup2\n        /* \"#utility.yul\":10030:10042   */\n      mload\n        /* \"#utility.yul\":10020:10042   */\n      swap1\n      pop\n        /* \"#utility.yul\":10009:10049   */\n      swap2\n      swap1\n      pop\n      jump\t// out\n        /* \"#utility.yul\":10055:10224   */\n    tag_153:\n      0x00\n        /* \"#utility.yul\":10173:10179   */\n      dup3\n        /* \"#utility.yul\":10168:10171   */\n      dup3\n        /* \"#utility.yul\":10161:10180   */\n      mstore\n        /* \"#utility.yul\":10213:10217   */\n      0x20\n        /* \"#utility.yul\":10208:10211   */\n      dup3\n        /* \"#utility.yul\":10204:10218   */\n      add\n        /* \"#utility.yul\":10189:10218   */\n      swap1\n      pop\n        /* \"#utility.yul\":10151:10224   */\n      swap3\n      swap2\n      pop\n      pop\n      jump\t// out\n        /* \"#utility.yul\":10230:10421   */\n    tag_69:\n      0x00\n        /* \"#utility.yul\":10290:10310   */\n      tag_218\n        /* \"#utility.yul\":10308:10309   */\n      dup3\n        /* \"#utility.yul\":10290:10310   */\n      tag_176\n      jump\t// in\n    tag_218:\n        /* \"#utility.yul\":10285:10310   */\n      swap2\n      pop\n        /* \"#utility.yul\":10324:10344   */\n      tag_219\n        /* \"#utility.yul\":10342:10343   */\n      dup4\n        /* \"#utility.yul\":10324:10344   */\n      tag_176\n      jump\t// in\n    tag_219:\n        /* \"#utility.yul\":10319:10344   */\n      swap3\n      pop\n        /* \"#utility.yul\":10363:10364   */\n      dup3\n        /* \"#utility.yul\":10360:10361   */\n      dup3\n        /* \"#utility.yul\":10357:10365   */\n      lt\n        /* \"#utility.yul\":10354:10356   */\n      iszero\n      tag_220\n      jumpi\n        /* \"#utility.yul\":10368:10386   */\n      tag_221\n      tag_222\n      jump\t// in\n    tag_221:\n        /* \"#utility.yul\":10354:10356   */\n    tag_220:\n        /* \"#utility.yul\":10413:10414   */\n      dup3\n        /* \"#utility.yul\":10410:10411   */\n      dup3\n        /* \"#utility.yul\":10406:10415   */\n      sub\n        /* \"#utility.yul\":10398:10415   */\n      swap1\n      pop\n        /* \"#utility.yul\":10275:10421   */\n      swap3\n      swap2\n      pop\n      pop\n      jump\t// out\n        /* \"#utility.yul\":10427:10523   */\n    tag_143:\n      0x00\n        /* \"#utility.yul\":10493:10517   */\n      tag_224\n        /* \"#utility.yul\":10511:10516   */\n      dup3\n        /* \"#utility.yul\":10493:10517   */\n      tag_225\n      jump\t// in\n    tag_224:\n        /* \"#utility.yul\":10482:10517   */\n      swap1\n      pop\n        /* \"#utility.yul\":10472:10523   */\n      swap2\n      swap1\n      pop\n      jump\t// out\n        /* \"#utility.yul\":10529:10633   */\n    tag_139:\n      0x00\n        /* \"#utility.yul\":10603:10627   */\n      tag_227\n        /* \"#utility.yul\":10621:10626   */\n      dup3\n        /* \"#utility.yul\":10603:10627   */\n      tag_225\n      jump\t// in\n    tag_227:\n        /* \"#utility.yul\":10592:10627   */\n      swap1\n      pop\n        /* \"#utility.yul\":10582:10633   */\n      swap2\n      swap1\n      pop\n      jump\t// out\n        /* \"#utility.yul\":10639:10729   */\n    tag_147:\n      0x00\n        /* \"#utility.yul\":10716:10721   */\n      dup2\n        /* \"#utility.yul\":10709:10722   */\n      iszero\n        /* \"#utility.yul\":10702:10723   */\n      iszero\n        /* \"#utility.yul\":10691:10723   */\n      swap1\n      pop\n        /* \"#utility.yul\":10681:10729   */\n      swap2\n      swap1\n      pop\n      jump\t// out\n        /* \"#utility.yul\":10735:10861   */\n    tag_225:\n      0x00\n        /* \"#utility.yul\":10812:10854   */\n      0xffffffffffffffffffffffffffffffffffffffff\n        /* \"#utility.yul\":10805:10810   */\n      dup3\n        /* \"#utility.yul\":10801:10855   */\n      and\n        /* \"#utility.yul\":10790:10855   */\n      swap1\n      pop\n        /* \"#utility.yul\":10780:10861   */\n      swap2\n      swap1\n      pop\n      jump\t// out\n        /* \"#utility.yul\":10867:10944   */\n    tag_176:\n      0x00\n        /* \"#utility.yul\":10933:10938   */\n      dup2\n        /* \"#utility.yul\":10922:10938   */\n      swap1\n      pop\n        /* \"#utility.yul\":10912:10944   */\n      swap2\n      swap1\n      pop\n      jump\t// out\n        /* \"#utility.yul\":10950:11104   */\n    tag_114:\n        /* \"#utility.yul\":11034:11040   */\n      dup3\n        /* \"#utility.yul\":11029:11032   */\n      dup2\n        /* \"#utility.yul\":11024:11027   */\n      dup4\n        /* \"#utility.yul\":11011:11041   */\n      calldatacopy\n        /* \"#utility.yul\":11096:11097   */\n      0x00\n        /* \"#utility.yul\":11087:11093   */\n      dup4\n        /* \"#utility.yul\":11082:11085   */\n      dup4\n        /* \"#utility.yul\":11078:11094   */\n      add\n        /* \"#utility.yul\":11071:11098   */\n      mstore\n        /* \"#utility.yul\":11001:11104   */\n      pop\n      pop\n      pop\n      jump\t// out\n        /* \"#utility.yul\":11110:11417   */\n    tag_155:\n        /* \"#utility.yul\":11178:11179   */\n      0x00\n        /* \"#utility.yul\":11188:11301   */\n    tag_233:\n        /* \"#utility.yul\":11202:11208   */\n      dup4\n        /* \"#utility.yul\":11199:11200   */\n      dup2\n        /* \"#utility.yul\":11196:11209   */\n      lt\n        /* \"#utility.yul\":11188:11301   */\n      iszero\n      tag_235\n      jumpi\n        /* \"#utility.yul\":11287:11288   */\n      dup1\n        /* \"#utility.yul\":11282:11285   */\n      dup3\n        /* \"#utility.yul\":11278:11289   */\n      add\n        /* \"#utility.yul\":11272:11290   */\n      mload\n        /* \"#utility.yul\":11268:11269   */\n      dup2\n        /* \"#utility.yul\":11263:11266   */\n      dup5\n        /* \"#utility.yul\":11259:11270   */\n      add\n        /* \"#utility.yul\":11252:11291   */\n      mstore\n        /* \"#utility.yul\":11224:11226   */\n      0x20\n        /* \"#utility.yul\":11221:11222   */\n      dup2\n        /* \"#utility.yul\":11217:11227   */\n      add\n        /* \"#utility.yul\":11212:11227   */\n      swap1\n      pop\n        /* \"#utility.yul\":11188:11301   */\n      jump(tag_233)\n    tag_235:\n        /* \"#utility.yul\":11319:11325   */\n      dup4\n        /* \"#utility.yul\":11316:11317   */\n      dup2\n        /* \"#utility.yul\":11313:11326   */\n      gt\n        /* \"#utility.yul\":11310:11312   */\n      iszero\n      tag_236\n      jumpi\n        /* \"#utility.yul\":11399:11400   */\n      0x00\n        /* \"#utility.yul\":11390:11396   */\n      dup5\n        /* \"#utility.yul\":11385:11388   */\n      dup5\n        /* \"#utility.yul\":11381:11397   */\n      add\n        /* \"#utility.yul\":11374:11401   */\n      mstore\n        /* \"#utility.yul\":11310:11312   */\n    tag_236:\n        /* \"#utility.yul\":11159:11417   */\n      pop\n      pop\n      pop\n      pop\n      jump\t// out\n        /* \"#utility.yul\":11423:11743   */\n    tag_77:\n      0x00\n        /* \"#utility.yul\":11504:11505   */\n      0x02\n        /* \"#utility.yul\":11498:11502   */\n      dup3\n        /* \"#utility.yul\":11494:11506   */\n      div\n        /* \"#utility.yul\":11484:11506   */\n      swap1\n      pop\n        /* \"#utility.yul\":11551:11552   */\n      0x01\n        /* \"#utility.yul\":11545:11549   */\n      dup3\n        /* \"#utility.yul\":11541:11553   */\n      and\n        /* \"#utility.yul\":11572:11590   */\n      dup1\n        /* \"#utility.yul\":11562:11564   */\n      tag_238\n      jumpi\n        /* \"#utility.yul\":11628:11632   */\n      0x7f\n        /* \"#utility.yul\":11620:11626   */\n      dup3\n        /* \"#utility.yul\":11616:11633   */\n      and\n        /* \"#utility.yul\":11606:11633   */\n      swap2\n      pop\n        /* \"#utility.yul\":11562:11564   */\n    tag_238:\n        /* \"#utility.yul\":11690:11692   */\n      0x20\n        /* \"#utility.yul\":11682:11688   */\n      dup3\n        /* \"#utility.yul\":11679:11693   */\n      lt\n        /* \"#utility.yul\":11659:11677   */\n      dup2\n        /* \"#utility.yul\":11656:11694   */\n      eq\n        /* \"#utility.yul\":11653:11655   */\n      iszero\n      tag_239\n      jumpi\n        /* \"#utility.yul\":11709:11727   */\n      tag_240\n      tag_241\n      jump\t// in\n    tag_240:\n        /* \"#utility.yul\":11653:11655   */\n    tag_239:\n        /* \"#utility.yul\":11474:11743   */\n      pop\n      swap2\n      swap1\n      pop\n      jump\t// out\n        /* \"#utility.yul\":11749:11982   */\n    tag_56:\n      0x00\n        /* \"#utility.yul\":11811:11835   */\n      tag_243\n        /* \"#utility.yul\":11829:11834   */\n      dup3\n        /* \"#utility.yul\":11811:11835   */\n      tag_176\n      jump\t// in\n    tag_243:\n        /* \"#utility.yul\":11802:11835   */\n      swap2\n      pop\n        /* \"#utility.yul\":11857:11923   */\n      0xffffffffffffffffffffffffffffffffffffffffffffffffffffffffffffffff\n        /* \"#utility.yul\":11850:11855   */\n      dup3\n        /* \"#utility.yul\":11847:11924   */\n      eq\n        /* \"#utility.yul\":11844:11846   */\n      iszero\n      tag_244\n      jumpi\n        /* \"#utility.yul\":11927:11945   */\n      tag_245\n      tag_222\n      jump\t// in\n    tag_245:\n        /* \"#utility.yul\":11844:11846   */\n    tag_244:\n        /* \"#utility.yul\":11974:11975   */\n      0x01\n        /* \"#utility.yul\":11967:11972   */\n      dup3\n        /* \"#utility.yul\":11963:11976   */\n      add\n        /* \"#utility.yul\":11956:11976   */\n      swap1\n      pop\n        /* \"#utility.yul\":11792:11982   */\n      swap2\n      swap1\n      pop\n      jump\t// out\n        /* \"#utility.yul\":11988:12168   */\n    tag_222:\n        /* \"#utility.yul\":12036:12113   */\n      0x4e487b7100000000000000000000000000000000000000000000000000000000\n        /* \"#utility.yul\":12033:12034   */\n      0x00\n        /* \"#utility.yul\":12026:12114   */\n      mstore\n        /* \"#utility.yul\":12133:12137   */\n      0x11\n        /* \"#utility.yul\":12130:12131   */\n      0x04\n        /* \"#utility.yul\":12123:12138   */\n      mstore\n        /* \"#utility.yul\":12157:12161   */\n      0x24\n        /* \"#utility.yul\":12154:12155   */\n      0x00\n        /* \"#utility.yul\":12147:12162   */\n      revert\n        /* \"#utility.yul\":12174:12354   */\n    tag_241:\n        /* \"#utility.yul\":12222:12299   */\n      0x4e487b7100000000000000000000000000000000000000000000000000000000\n        /* \"#utility.yul\":12219:12220   */\n      0x00\n        /* \"#utility.yul\":12212:12300   */\n      mstore\n        /* \"#utility.yul\":12319:12323   */\n      0x22\n        /* \"#utility.yul\":12316:12317   */\n      0x04\n        /* \"#utility.yul\":12309:12324   */\n      mstore\n        /* \"#utility.yul\":12343:12347   */\n      0x24\n        /* \"#utility.yul\":12340:12341   */\n      0x00\n        /* \"#utility.yul\":12333:12348   */\n      revert\n        /* \"#utility.yul\":12360:12540   */\n    tag_211:\n        /* \"#utility.yul\":12408:12485   */\n      0x4e487b7100000000000000000000000000000000000000000000000000000000\n        /* \"#utility.yul\":12405:12406   */\n      0x00\n        /* \"#utility.yul\":12398:12486   */\n      mstore\n        /* \"#utility.yul\":12505:12509   */\n      0x41\n        /* \"#utility.yul\":12502:12503   */\n      0x04\n        /* \"#utility.yul\":12495:12510   */\n      mstore\n        /* \"#utility.yul\":12529:12533   */\n      0x24\n        /* \"#utility.yul\":12526:12527   */\n      0x00\n        /* \"#utility.yul\":12519:12534   */\n      revert\n        /* \"#utility.yul\":12546:12648   */\n    tag_157:\n      0x00\n        /* \"#utility.yul\":12638:12640   */\n      0x1f\n        /* \"#utility.yul\":12634:12641   */\n      not\n        /* \"#utility.yul\":12629:12631   */\n      0x1f\n        /* \"#utility.yul\":12622:12627   */\n      dup4\n        /* \"#utility.yul\":12618:12632   */\n      add\n        /* \"#utility.yul\":12614:12642   */\n      and\n        /* \"#utility.yul\":12604:12642   */\n      swap1\n      pop\n        /* \"#utility.yul\":12594:12648   */\n      swap2\n      swap1\n      pop\n      jump\t// out\n        /* \"#utility.yul\":12654:12776   */\n    tag_122:\n        /* \"#utility.yul\":12727:12751   */\n      tag_251\n        /* \"#utility.yul\":12745:12750   */\n      dup2\n        /* \"#utility.yul\":12727:12751   */\n      tag_176\n      jump\t// in\n    tag_251:\n        /* \"#utility.yul\":12720:12725   */\n      dup2\n        /* \"#utility.yul\":12717:12752   */\n      eq\n        /* \"#utility.yul\":12707:12709   */\n      tag_252\n      jumpi\n        /* \"#utility.yul\":12766:12767   */\n      0x00\n        /* \"#utility.yul\":12763:12764   */\n      dup1\n        /* \"#utility.yul\":12756:12768   */\n      revert\n        /* \"#utility.yul\":12707:12709   */\n    tag_252:\n        /* \"#utility.yul\":12697:12776   */\n      pop\n      jump\t// out\n\n    auxdata: 0xa26469706673582212208f9b821d0bfa99206bfb03d6005c4e38e906ce922012036f2a9efcd6b175b82464736f6c63430008000033\n}\n",
				"bytecode": {
					"linkReferences": {},
					"object": "608060405234801561001057600080fd5b50336000806101000a81548173ffffffffffffffffffffffffffffffffffffffff021916908373ffffffffffffffffffffffffffffffffffffffff1602179055506112c0806100606000396000f3fe60806040526004361061007b5760003560e01c80637acc0b201161004e5780637acc0b20146101195780638da5cb5b1461015b578063a85c38ef14610186578063e0f6ef87146101c65761007b565b8063125b0b34146100805780632453ffa8146100a957806353b62866146100d45780635ee95cae146100f0575b600080fd5b34801561008c57600080fd5b506100a760048036038101906100a29190610bbd565b6101f1565b005b3480156100b557600080fd5b506100be610392565b6040516100cb9190610ef9565b60405180910390f35b6100ee60048036038101906100e99190610c4d565b610398565b005b3480156100fc57600080fd5b5061011760048036038101906101129190610c24565b610831565b005b34801561012557600080fd5b50610140600480360381019061013b9190610c24565b610932565b60405161015296959493929190610f60565b60405180910390f35b34801561016757600080fd5b50610170610a23565b60405161017d9190610e3e565b60405180910390f35b34801561019257600080fd5b506101ad60048036038101906101a89190610c24565b610a47565b6040516101bd9493929190610fc8565b60405180910390f35b3480156101d257600080fd5b506101db610a97565b6040516101e89190610ef9565b60405180910390f35b60008211610234576040517f08c379a000000000000000000000000000000000000000000000000000000000815260040161022b90610ed9565b60405180910390fd5b600160008154809291906102479061118c565b91905055506040518060c0016040528060015481526020018481526020018381526020013373ffffffffffffffffffffffffffffffffffffffff168152602001600115158152602001828152506003600060015481526020019081526020016000206000820151816000015560208201518160010190805190602001906102cf929190610a9d565b506040820151816002015560608201518160030160006101000a81548173ffffffffffffffffffffffffffffffffffffffff021916908373ffffffffffffffffffffffffffffffffffffffff16021790555060808201518160030160146101000a81548160ff02191690831515021790555060a082015181600401559050507f52402cafb2ecec722b103e8f203f83362148c168659dc96678c2c6850d12dd9f6001548484336040516103859493929190610f14565b60405180910390a1505050565b60025481565b60006003600084815260200190815260200160002090508060030160149054906101000a900460ff16610400576040517f08c379a00000000000000000000000000000000000000000000000000000000081526004016103f790610e79565b60405180910390fd5b80600201543414610446576040517f08c379a000000000000000000000000000000000000000000000000000000000815260040161043d90610e59565b60405180910390fd5b600082600360008681526020019081526020016000206004015461046a919061108a565b10156104ab576040517f08c379a00000000000000000000000000000000000000000000000000000000081526004016104a290610eb9565b60405180910390fd5b600260008154809291906104be9061118c565b9190505550604051806080016040528060025481526020018481526020013373ffffffffffffffffffffffffffffffffffffffff16815260200134815250600460006002548152602001908152602001600020600082015181600001556020820151816001015560408201518160020160006101000a81548173ffffffffffffffffffffffffffffffffffffffff021916908373ffffffffffffffffffffffffffffffffffffffff160217905550606082015181600301559050508060030160009054906101000a900473ffffffffffffffffffffffffffffffffffffffff1673ffffffffffffffffffffffffffffffffffffffff166108fc349081150290604051600060405180830381858888f193505050501580156105e3573d6000803e3d6000fd5b506040518060c001604052808481526020016003600086815260200190815260200160002060010180546106169061115a565b80601f01602080910402602001604051908101604052809291908181526020018280546106429061115a565b801561068f5780601f106106645761010080835404028352916020019161068f565b820191906000526020600020905b81548152906001019060200180831161067257829003601f168201915b50505050508152602001600360008681526020019081526020016000206002015481526020016003600086815260200190815260200160002060030160009054906101000a900473ffffffffffffffffffffffffffffffffffffffff1673ffffffffffffffffffffffffffffffffffffffff168152602001600115158152602001836003600087815260200190815260200160002060040154610732919061108a565b8152506003600085815260200190815260200160002060008201518160000155602082015181600101908051906020019061076e929190610a9d565b506040820151816002015560608201518160030160006101000a81548173ffffffffffffffffffffffffffffffffffffffff021916908373ffffffffffffffffffffffffffffffffffffffff16021790555060808201518160030160146101000a81548160ff02191690831515021790555060a082015181600401559050507fbd67bb7090da70936c907049a5337912b1a6489a2e4c7dd279e6ef50d6e8437b6002548433346040516108249493929190610fc8565b60405180910390a1505050565b60006003600083815260200190815260200160002090508060030160009054906101000a900473ffffffffffffffffffffffffffffffffffffffff1673ffffffffffffffffffffffffffffffffffffffff163373ffffffffffffffffffffffffffffffffffffffff16146108da576040517f08c379a00000000000000000000000000000000000000000000000000000000081526004016108d190610e99565b60405180910390fd5b60008160030160146101000a81548160ff0219169083151502179055507f07015631cff457b5b13492c2045e70c6305a0a4aa773e432e79abbe2cf52c1eb826040516109269190610ef9565b60405180910390a15050565b600360205280600052604060002060009150905080600001549080600101805461095b9061115a565b80601f01602080910402602001604051908101604052809291908181526020018280546109879061115a565b80156109d45780601f106109a9576101008083540402835291602001916109d4565b820191906000526020600020905b8154815290600101906020018083116109b757829003601f168201915b5050505050908060020154908060030160009054906101000a900473ffffffffffffffffffffffffffffffffffffffff16908060030160149054906101000a900460ff16908060040154905086565b60008054906101000a900473ffffffffffffffffffffffffffffffffffffffff1681565b60046020528060005260406000206000915090508060000154908060010154908060020160009054906101000a900473ffffffffffffffffffffffffffffffffffffffff16908060030154905084565b60015481565b828054610aa99061115a565b90600052602060002090601f016020900481019282610acb5760008555610b12565b82601f10610ae457805160ff1916838001178555610b12565b82800160010185558215610b12579182015b82811115610b11578251825591602001919060010190610af6565b5b509050610b1f9190610b23565b5090565b5b80821115610b3c576000816000905550600101610b24565b5090565b6000610b53610b4e8461103e565b61100d565b905082815260208101848484011115610b6b57600080fd5b610b76848285611118565b509392505050565b600082601f830112610b8f57600080fd5b8135610b9f848260208601610b40565b91505092915050565b600081359050610bb781611273565b92915050565b600080600060608486031215610bd257600080fd5b600084013567ffffffffffffffff811115610bec57600080fd5b610bf886828701610b7e565b9350506020610c0986828701610ba8565b9250506040610c1a86828701610ba8565b9150509250925092565b600060208284031215610c3657600080fd5b6000610c4484828501610ba8565b91505092915050565b60008060408385031215610c6057600080fd5b6000610c6e85828601610ba8565b9250506020610c7f85828601610ba8565b9150509250929050565b610c92816110d0565b82525050565b610ca1816110be565b82525050565b610cb0816110e2565b82525050565b6000610cc18261106e565b610ccb8185611079565b9350610cdb818560208601611127565b610ce481611262565b840191505092915050565b6000610cfc600f83611079565b91507f496e636f727265637420707269636500000000000000000000000000000000006000830152602082019050919050565b6000610d3c601583611079565b91507f50726f64756374206e6f7420617661696c61626c6500000000000000000000006000830152602082019050919050565b6000610d7c600a83611079565b91507f4e6f742073656c6c6572000000000000000000000000000000000000000000006000830152602082019050919050565b6000610dbc601383611079565b91507f6e6f7420656e6f756768207175616e74697479000000000000000000000000006000830152602082019050919050565b6000610dfc601c83611079565b91507f5072696365206d7573742062652067726561746572207468616e2030000000006000830152602082019050919050565b610e388161110e565b82525050565b6000602082019050610e536000830184610c98565b92915050565b60006020820190508181036000830152610e7281610cef565b9050919050565b60006020820190508181036000830152610e9281610d2f565b9050919050565b60006020820190508181036000830152610eb281610d6f565b9050919050565b60006020820190508181036000830152610ed281610daf565b9050919050565b60006020820190508181036000830152610ef281610def565b9050919050565b6000602082019050610f0e6000830184610e2f565b92915050565b6000608082019050610f296000830187610e2f565b8181036020830152610f3b8186610cb6565b9050610f4a6040830185610e2f565b610f576060830184610c98565b95945050505050565b600060c082019050610f756000830189610e2f565b8181036020830152610f878188610cb6565b9050610f966040830187610e2f565b610fa36060830186610c89565b610fb06080830185610ca7565b610fbd60a0830184610e2f565b979650505050505050565b6000608082019050610fdd6000830187610e2f565b610fea6020830186610e2f565b610ff76040830185610c98565b6110046060830184610e2f565b95945050505050565b6000604051905081810181811067ffffffffffffffff8211171561103457611033611233565b5b8060405250919050565b600067ffffffffffffffff82111561105957611058611233565b5b601f19601f8301169050602081019050919050565b600081519050919050565b600082825260208201905092915050565b60006110958261110e565b91506110a08361110e565b9250828210156110b3576110b26111d5565b5b828203905092915050565b60006110c9826110ee565b9050919050565b60006110db826110ee565b9050919050565b60008115159050919050565b600073ffffffffffffffffffffffffffffffffffffffff82169050919050565b6000819050919050565b82818337600083830152505050565b60005b8381101561114557808201518184015260208101905061112a565b83811115611154576000848401525b50505050565b6000600282049050600182168061117257607f821691505b6020821081141561118657611185611204565b5b50919050565b60006111978261110e565b91507fffffffffffffffffffffffffffffffffffffffffffffffffffffffffffffffff8214156111ca576111c96111d5565b5b600182019050919050565b7f4e487b7100000000000000000000000000000000000000000000000000000000600052601160045260246000fd5b7f4e487b7100000000000000000000000000000000000000000000000000000000600052602260045260246000fd5b7f4e487b7100000000000000000000000000000000000000000000000000000000600052604160045260246000fd5b6000601f19601f8301169050919050565b61127c8161110e565b811461128757600080fd5b5056fea26469706673582212208f9b821d0bfa99206bfb03d6005c4e38e906ce922012036f2a9efcd6b175b82464736f6c63430008000033",
					"opcodes": "PUSH1 0x80 PUSH1 0x40 MSTORE CALLVALUE DUP1 ISZERO PUSH2 0x10 JUMPI PUSH1 0x0 DUP1 REVERT JUMPDEST POP CALLER PUSH1 0x0 DUP1 PUSH2 0x100 EXP DUP2 SLOAD DUP2 PUSH20 0xFFFFFFFFFFFFFFFFFFFFFFFFFFFFFFFFFFFFFFFF MUL NOT AND SWAP1 DUP4 PUSH20 0xFFFFFFFFFFFFFFFFFFFFFFFFFFFFFFFFFFFFFFFF AND MUL OR SWAP1 SSTORE POP PUSH2 0x12C0 DUP1 PUSH2 0x60 PUSH1 0x0 CODECOPY PUSH1 0x0 RETURN INVALID PUSH1 0x80 PUSH1 0x40 MSTORE PUSH1 0x4 CALLDATASIZE LT PUSH2 0x7B JUMPI PUSH1 0x0 CALLDATALOAD PUSH1 0xE0 SHR DUP1 PUSH4 0x7ACC0B20 GT PUSH2 0x4E JUMPI DUP1 PUSH4 0x7ACC0B20 EQ PUSH2 0x119 JUMPI DUP1 PUSH4 0x8DA5CB5B EQ PUSH2 0x15B JUMPI DUP1 PUSH4 0xA85C38EF EQ PUSH2 0x186 JUMPI DUP1 PUSH4 0xE0F6EF87 EQ PUSH2 0x1C6 JUMPI PUSH2 0x7B JUMP JUMPDEST DUP1 PUSH4 0x125B0B34 EQ PUSH2 0x80 JUMPI DUP1 PUSH4 0x2453FFA8 EQ PUSH2 0xA9 JUMPI DUP1 PUSH4 0x53B62866 EQ PUSH2 0xD4 JUMPI DUP1 PUSH4 0x5EE95CAE EQ PUSH2 0xF0 JUMPI JUMPDEST PUSH1 0x0 DUP1 REVERT JUMPDEST CALLVALUE DUP1 ISZERO PUSH2 0x8C JUMPI PUSH1 0x0 DUP1 REVERT JUMPDEST POP PUSH2 0xA7 PUSH1 0x4 DUP1 CALLDATASIZE SUB DUP2 ADD SWAP1 PUSH2 0xA2 SWAP2 SWAP1 PUSH2 0xBBD JUMP JUMPDEST PUSH2 0x1F1 JUMP JUMPDEST STOP JUMPDEST CALLVALUE DUP1 ISZERO PUSH2 0xB5 JUMPI PUSH1 0x0 DUP1 REVERT JUMPDEST POP PUSH2 0xBE PUSH2 0x392 JUMP JUMPDEST PUSH1 0x40 MLOAD PUSH2 0xCB SWAP2 SWAP1 PUSH2 0xEF9 JUMP JUMPDEST PUSH1 0x40 MLOAD DUP1 SWAP2 SUB SWAP1 RETURN JUMPDEST PUSH2 0xEE PUSH1 0x4 DUP1 CALLDATASIZE SUB DUP2 ADD SWAP1 PUSH2 0xE9 SWAP2 SWAP1 PUSH2 0xC4D JUMP JUMPDEST PUSH2 0x398 JUMP JUMPDEST STOP JUMPDEST CALLVALUE DUP1 ISZERO PUSH2 0xFC JUMPI PUSH1 0x0 DUP1 REVERT JUMPDEST POP PUSH2 0x117 PUSH1 0x4 DUP1 CALLDATASIZE SUB DUP2 ADD SWAP1 PUSH2 0x112 SWAP2 SWAP1 PUSH2 0xC24 JUMP JUMPDEST PUSH2 0x831 JUMP JUMPDEST STOP JUMPDEST CALLVALUE DUP1 ISZERO PUSH2 0x125 JUMPI PUSH1 0x0 DUP1 REVERT JUMPDEST POP PUSH2 0x140 PUSH1 0x4 DUP1 CALLDATASIZE SUB DUP2 ADD SWAP1 PUSH2 0x13B SWAP2 SWAP1 PUSH2 0xC24 JUMP JUMPDEST PUSH2 0x932 JUMP JUMPDEST PUSH1 0x40 MLOAD PUSH2 0x152 SWAP7 SWAP6 SWAP5 SWAP4 SWAP3 SWAP2 SWAP1 PUSH2 0xF60 JUMP JUMPDEST PUSH1 0x40 MLOAD DUP1 SWAP2 SUB SWAP1 RETURN JUMPDEST CALLVALUE DUP1 ISZERO PUSH2 0x167 JUMPI PUSH1 0x0 DUP1 REVERT JUMPDEST POP PUSH2 0x170 PUSH2 0xA23 JUMP JUMPDEST PUSH1 0x40 MLOAD PUSH2 0x17D SWAP2 SWAP1 PUSH2 0xE3E JUMP JUMPDEST PUSH1 0x40 MLOAD DUP1 SWAP2 SUB SWAP1 RETURN JUMPDEST CALLVALUE DUP1 ISZERO PUSH2 0x192 JUMPI PUSH1 0x0 DUP1 REVERT JUMPDEST POP PUSH2 0x1AD PUSH1 0x4 DUP1 CALLDATASIZE SUB DUP2 ADD SWAP1 PUSH2 0x1A8 SWAP2 SWAP1 PUSH2 0xC24 JUMP JUMPDEST PUSH2 0xA47 JUMP JUMPDEST PUSH1 0x40 MLOAD PUSH2 0x1BD SWAP5 SWAP4 SWAP3 SWAP2 SWAP1 PUSH2 0xFC8 JUMP JUMPDEST PUSH1 0x40 MLOAD DUP1 SWAP2 SUB SWAP1 RETURN JUMPDEST CALLVALUE DUP1 ISZERO PUSH2 0x1D2 JUMPI PUSH1 0x0 DUP1 REVERT JUMPDEST POP PUSH2 0x1DB PUSH2 0xA97 JUMP JUMPDEST PUSH1 0x40 MLOAD PUSH2 0x1E8 SWAP2 SWAP1 PUSH2 0xEF9 JUMP JUMPDEST PUSH1 0x40 MLOAD DUP1 SWAP2 SUB SWAP1 RETURN JUMPDEST PUSH1 0x0 DUP3 GT PUSH2 0x234 JUMPI PUSH1 0x40 MLOAD PUSH32 0x8C379A000000000000000000000000000000000000000000000000000000000 DUP2 MSTORE PUSH1 0x4 ADD PUSH2 0x22B SWAP1 PUSH2 0xED9 JUMP JUMPDEST PUSH1 0x40 MLOAD DUP1 SWAP2 SUB SWAP1 REVERT JUMPDEST PUSH1 0x1 PUSH1 0x0 DUP2 SLOAD DUP1 SWAP3 SWAP2 SWAP1 PUSH2 0x247 SWAP1 PUSH2 0x118C JUMP JUMPDEST SWAP2 SWAP1 POP SSTORE POP PUSH1 0x40 MLOAD DUP1 PUSH1 0xC0 ADD PUSH1 0x40 MSTORE DUP1 PUSH1 0x1 SLOAD DUP2 MSTORE PUSH1 0x20 ADD DUP5 DUP2 MSTORE PUSH1 0x20 ADD DUP4 DUP2 MSTORE PUSH1 0x20 ADD CALLER PUSH20 0xFFFFFFFFFFFFFFFFFFFFFFFFFFFFFFFFFFFFFFFF AND DUP2 MSTORE PUSH1 0x20 ADD PUSH1 0x1 ISZERO ISZERO DUP2 MSTORE PUSH1 0x20 ADD DUP3 DUP2 MSTORE POP PUSH1 0x3 PUSH1 0x0 PUSH1 0x1 SLOAD DUP2 MSTORE PUSH1 0x20 ADD SWAP1 DUP2 MSTORE PUSH1 0x20 ADD PUSH1 0x0 KECCAK256 PUSH1 0x0 DUP3 ADD MLOAD DUP2 PUSH1 0x0 ADD SSTORE PUSH1 0x20 DUP3 ADD MLOAD DUP2 PUSH1 0x1 ADD SWAP1 DUP1 MLOAD SWAP1 PUSH1 0x20 ADD SWAP1 PUSH2 0x2CF SWAP3 SWAP2 SWAP1 PUSH2 0xA9D JUMP JUMPDEST POP PUSH1 0x40 DUP3 ADD MLOAD DUP2 PUSH1 0x2 ADD SSTORE PUSH1 0x60 DUP3 ADD MLOAD DUP2 PUSH1 0x3 ADD PUSH1 0x0 PUSH2 0x100 EXP DUP2 SLOAD DUP2 PUSH20 0xFFFFFFFFFFFFFFFFFFFFFFFFFFFFFFFFFFFFFFFF MUL NOT AND SWAP1 DUP4 PUSH20 0xFFFFFFFFFFFFFFFFFFFFFFFFFFFFFFFFFFFFFFFF AND MUL OR SWAP1 SSTORE POP PUSH1 0x80 DUP3 ADD MLOAD DUP2 PUSH1 0x3 ADD PUSH1 0x14 PUSH2 0x100 EXP DUP2 SLOAD DUP2 PUSH1 0xFF MUL NOT AND SWAP1 DUP4 ISZERO ISZERO MUL OR SWAP1 SSTORE POP PUSH1 0xA0 DUP3 ADD MLOAD DUP2 PUSH1 0x4 ADD SSTORE SWAP1 POP POP PUSH32 0x52402CAFB2ECEC722B103E8F203F83362148C168659DC96678C2C6850D12DD9F PUSH1 0x1 SLOAD DUP5 DUP5 CALLER PUSH1 0x40 MLOAD PUSH2 0x385 SWAP5 SWAP4 SWAP3 SWAP2 SWAP1 PUSH2 0xF14 JUMP JUMPDEST PUSH1 0x40 MLOAD DUP1 SWAP2 SUB SWAP1 LOG1 POP POP POP JUMP JUMPDEST PUSH1 0x2 SLOAD DUP2 JUMP JUMPDEST PUSH1 0x0 PUSH1 0x3 PUSH1 0x0 DUP5 DUP2 MSTORE PUSH1 0x20 ADD SWAP1 DUP2 MSTORE PUSH1 0x20 ADD PUSH1 0x0 KECCAK256 SWAP1 POP DUP1 PUSH1 0x3 ADD PUSH1 0x14 SWAP1 SLOAD SWAP1 PUSH2 0x100 EXP SWAP1 DIV PUSH1 0xFF AND PUSH2 0x400 JUMPI PUSH1 0x40 MLOAD PUSH32 0x8C379A000000000000000000000000000000000000000000000000000000000 DUP2 MSTORE PUSH1 0x4 ADD PUSH2 0x3F7 SWAP1 PUSH2 0xE79 JUMP JUMPDEST PUSH1 0x40 MLOAD DUP1 SWAP2 SUB SWAP1 REVERT JUMPDEST DUP1 PUSH1 0x2 ADD SLOAD CALLVALUE EQ PUSH2 0x446 JUMPI PUSH1 0x40 MLOAD PUSH32 0x8C379A000000000000000000000000000000000000000000000000000000000 DUP2 MSTORE PUSH1 0x4 ADD PUSH2 0x43D SWAP1 PUSH2 0xE59 JUMP JUMPDEST PUSH1 0x40 MLOAD DUP1 SWAP2 SUB SWAP1 REVERT JUMPDEST PUSH1 0x0 DUP3 PUSH1 0x3 PUSH1 0x0 DUP7 DUP2 MSTORE PUSH1 0x20 ADD SWAP1 DUP2 MSTORE PUSH1 0x20 ADD PUSH1 0x0 KECCAK256 PUSH1 0x4 ADD SLOAD PUSH2 0x46A SWAP2 SWAP1 PUSH2 0x108A JUMP JUMPDEST LT ISZERO PUSH2 0x4AB JUMPI PUSH1 0x40 MLOAD PUSH32 0x8C379A000000000000000000000000000000000000000000000000000000000 DUP2 MSTORE PUSH1 0x4 ADD PUSH2 0x4A2 SWAP1 PUSH2 0xEB9 JUMP JUMPDEST PUSH1 0x40 MLOAD DUP1 SWAP2 SUB SWAP1 REVERT JUMPDEST PUSH1 0x2 PUSH1 0x0 DUP2 SLOAD DUP1 SWAP3 SWAP2 SWAP1 PUSH2 0x4BE SWAP1 PUSH2 0x118C JUMP JUMPDEST SWAP2 SWAP1 POP SSTORE POP PUSH1 0x40 MLOAD DUP1 PUSH1 0x80 ADD PUSH1 0x40 MSTORE DUP1 PUSH1 0x2 SLOAD DUP2 MSTORE PUSH1 0x20 ADD DUP5 DUP2 MSTORE PUSH1 0x20 ADD CALLER PUSH20 0xFFFFFFFFFFFFFFFFFFFFFFFFFFFFFFFFFFFFFFFF AND DUP2 MSTORE PUSH1 0x20 ADD CALLVALUE DUP2 MSTORE POP PUSH1 0x4 PUSH1 0x0 PUSH1 0x2 SLOAD DUP2 MSTORE PUSH1 0x20 ADD SWAP1 DUP2 MSTORE PUSH1 0x20 ADD PUSH1 0x0 KECCAK256 PUSH1 0x0 DUP3 ADD MLOAD DUP2 PUSH1 0x0 ADD SSTORE PUSH1 0x20 DUP3 ADD MLOAD DUP2 PUSH1 0x1 ADD SSTORE PUSH1 0x40 DUP3 ADD MLOAD DUP2 PUSH1 0x2 ADD PUSH1 0x0 PUSH2 0x100 EXP DUP2 SLOAD DUP2 PUSH20 0xFFFFFFFFFFFFFFFFFFFFFFFFFFFFFFFFFFFFFFFF MUL NOT AND SWAP1 DUP4 PUSH20 0xFFFFFFFFFFFFFFFFFFFFFFFFFFFFFFFFFFFFFFFF AND MUL OR SWAP1 SSTORE POP PUSH1 0x60 DUP3 ADD MLOAD DUP2 PUSH1 0x3 ADD SSTORE SWAP1 POP POP DUP1 PUSH1 0x3 ADD PUSH1 0x0 SWAP1 SLOAD SWAP1 PUSH2 0x100 EXP SWAP1 DIV PUSH20 0xFFFFFFFFFFFFFFFFFFFFFFFFFFFFFFFFFFFFFFFF AND PUSH20 0xFFFFFFFFFFFFFFFFFFFFFFFFFFFFFFFFFFFFFFFF AND PUSH2 0x8FC CALLVALUE SWAP1 DUP2 ISZERO MUL SWAP1 PUSH1 0x40 MLOAD PUSH1 0x0 PUSH1 0x40 MLOAD DUP1 DUP4 SUB DUP2 DUP6 DUP9 DUP9 CALL SWAP4 POP POP POP POP ISZERO DUP1 ISZERO PUSH2 0x5E3 JUMPI RETURNDATASIZE PUSH1 0x0 DUP1 RETURNDATACOPY RETURNDATASIZE PUSH1 0x0 REVERT JUMPDEST POP PUSH1 0x40 MLOAD DUP1 PUSH1 0xC0 ADD PUSH1 0x40 MSTORE DUP1 DUP5 DUP2 MSTORE PUSH1 0x20 ADD PUSH1 0x3 PUSH1 0x0 DUP7 DUP2 MSTORE PUSH1 0x20 ADD SWAP1 DUP2 MSTORE PUSH1 0x20 ADD PUSH1 0x0 KECCAK256 PUSH1 0x1 ADD DUP1 SLOAD PUSH2 0x616 SWAP1 PUSH2 0x115A JUMP JUMPDEST DUP1 PUSH1 0x1F ADD PUSH1 0x20 DUP1 SWAP2 DIV MUL PUSH1 0x20 ADD PUSH1 0x40 MLOAD SWAP1 DUP2 ADD PUSH1 0x40 MSTORE DUP1 SWAP3 SWAP2 SWAP1 DUP2 DUP2 MSTORE PUSH1 0x20 ADD DUP3 DUP1 SLOAD PUSH2 0x642 SWAP1 PUSH2 0x115A JUMP JUMPDEST DUP1 ISZERO PUSH2 0x68F JUMPI DUP1 PUSH1 0x1F LT PUSH2 0x664 JUMPI PUSH2 0x100 DUP1 DUP4 SLOAD DIV MUL DUP4 MSTORE SWAP2 PUSH1 0x20 ADD SWAP2 PUSH2 0x68F JUMP JUMPDEST DUP3 ADD SWAP2 SWAP1 PUSH1 0x0 MSTORE PUSH1 0x20 PUSH1 0x0 KECCAK256 SWAP1 JUMPDEST DUP2 SLOAD DUP2 MSTORE SWAP1 PUSH1 0x1 ADD SWAP1 PUSH1 0x20 ADD DUP1 DUP4 GT PUSH2 0x672 JUMPI DUP3 SWAP1 SUB PUSH1 0x1F AND DUP3 ADD SWAP2 JUMPDEST POP POP POP POP POP DUP2 MSTORE PUSH1 0x20 ADD PUSH1 0x3 PUSH1 0x0 DUP7 DUP2 MSTORE PUSH1 0x20 ADD SWAP1 DUP2 MSTORE PUSH1 0x20 ADD PUSH1 0x0 KECCAK256 PUSH1 0x2 ADD SLOAD DUP2 MSTORE PUSH1 0x20 ADD PUSH1 0x3 PUSH1 0x0 DUP7 DUP2 MSTORE PUSH1 0x20 ADD SWAP1 DUP2 MSTORE PUSH1 0x20 ADD PUSH1 0x0 KECCAK256 PUSH1 0x3 ADD PUSH1 0x0 SWAP1 SLOAD SWAP1 PUSH2 0x100 EXP SWAP1 DIV PUSH20 0xFFFFFFFFFFFFFFFFFFFFFFFFFFFFFFFFFFFFFFFF AND PUSH20 0xFFFFFFFFFFFFFFFFFFFFFFFFFFFFFFFFFFFFFFFF AND DUP2 MSTORE PUSH1 0x20 ADD PUSH1 0x1 ISZERO ISZERO DUP2 MSTORE PUSH1 0x20 ADD DUP4 PUSH1 0x3 PUSH1 0x0 DUP8 DUP2 MSTORE PUSH1 0x20 ADD SWAP1 DUP2 MSTORE PUSH1 0x20 ADD PUSH1 0x0 KECCAK256 PUSH1 0x4 ADD SLOAD PUSH2 0x732 SWAP2 SWAP1 PUSH2 0x108A JUMP JUMPDEST DUP2 MSTORE POP PUSH1 0x3 PUSH1 0x0 DUP6 DUP2 MSTORE PUSH1 0x20 ADD SWAP1 DUP2 MSTORE PUSH1 0x20 ADD PUSH1 0x0 KECCAK256 PUSH1 0x0 DUP3 ADD MLOAD DUP2 PUSH1 0x0 ADD SSTORE PUSH1 0x20 DUP3 ADD MLOAD DUP2 PUSH1 0x1 ADD SWAP1 DUP1 MLOAD SWAP1 PUSH1 0x20 ADD SWAP1 PUSH2 0x76E SWAP3 SWAP2 SWAP1 PUSH2 0xA9D JUMP JUMPDEST POP PUSH1 0x40 DUP3 ADD MLOAD DUP2 PUSH1 0x2 ADD SSTORE PUSH1 0x60 DUP3 ADD MLOAD DUP2 PUSH1 0x3 ADD PUSH1 0x0 PUSH2 0x100 EXP DUP2 SLOAD DUP2 PUSH20 0xFFFFFFFFFFFFFFFFFFFFFFFFFFFFFFFFFFFFFFFF MUL NOT AND SWAP1 DUP4 PUSH20 0xFFFFFFFFFFFFFFFFFFFFFFFFFFFFFFFFFFFFFFFF AND MUL OR SWAP1 SSTORE POP PUSH1 0x80 DUP3 ADD MLOAD DUP2 PUSH1 0x3 ADD PUSH1 0x14 PUSH2 0x100 EXP DUP2 SLOAD DUP2 PUSH1 0xFF MUL NOT AND SWAP1 DUP4 ISZERO ISZERO MUL OR SWAP1 SSTORE POP PUSH1 0xA0 DUP3 ADD MLOAD DUP2 PUSH1 0x4 ADD SSTORE SWAP1 POP POP PUSH32 0xBD67BB7090DA70936C907049A5337912B1A6489A2E4C7DD279E6EF50D6E8437B PUSH1 0x2 SLOAD DUP5 CALLER CALLVALUE PUSH1 0x40 MLOAD PUSH2 0x824 SWAP5 SWAP4 SWAP3 SWAP2 SWAP1 PUSH2 0xFC8 JUMP JUMPDEST PUSH1 0x40 MLOAD DUP1 SWAP2 SUB SWAP1 LOG1 POP POP POP JUMP JUMPDEST PUSH1 0x0 PUSH1 0x3 PUSH1 0x0 DUP4 DUP2 MSTORE PUSH1 0x20 ADD SWAP1 DUP2 MSTORE PUSH1 0x20 ADD PUSH1 0x0 KECCAK256 SWAP1 POP DUP1 PUSH1 0x3 ADD PUSH1 0x0 SWAP1 SLOAD SWAP1 PUSH2 0x100 EXP SWAP1 DIV PUSH20 0xFFFFFFFFFFFFFFFFFFFFFFFFFFFFFFFFFFFFFFFF AND PUSH20 0xFFFFFFFFFFFFFFFFFFFFFFFFFFFFFFFFFFFFFFFF AND CALLER PUSH20 0xFFFFFFFFFFFFFFFFFFFFFFFFFFFFFFFFFFFFFFFF AND EQ PUSH2 0x8DA JUMPI PUSH1 0x40 MLOAD PUSH32 0x8C379A000000000000000000000000000000000000000000000000000000000 DUP2 MSTORE PUSH1 0x4 ADD PUSH2 0x8D1 SWAP1 PUSH2 0xE99 JUMP JUMPDEST PUSH1 0x40 MLOAD DUP1 SWAP2 SUB SWAP1 REVERT JUMPDEST PUSH1 0x0 DUP2 PUSH1 0x3 ADD PUSH1 0x14 PUSH2 0x100 EXP DUP2 SLOAD DUP2 PUSH1 0xFF MUL NOT AND SWAP1 DUP4 ISZERO ISZERO MUL OR SWAP1 SSTORE POP PUSH32 0x7015631CFF457B5B13492C2045E70C6305A0A4AA773E432E79ABBE2CF52C1EB DUP3 PUSH1 0x40 MLOAD PUSH2 0x926 SWAP2 SWAP1 PUSH2 0xEF9 JUMP JUMPDEST PUSH1 0x40 MLOAD DUP1 SWAP2 SUB SWAP1 LOG1 POP POP JUMP JUMPDEST PUSH1 0x3 PUSH1 0x20 MSTORE DUP1 PUSH1 0x0 MSTORE PUSH1 0x40 PUSH1 0x0 KECCAK256 PUSH1 0x0 SWAP2 POP SWAP1 POP DUP1 PUSH1 0x0 ADD SLOAD SWAP1 DUP1 PUSH1 0x1 ADD DUP1 SLOAD PUSH2 0x95B SWAP1 PUSH2 0x115A JUMP JUMPDEST DUP1 PUSH1 0x1F ADD PUSH1 0x20 DUP1 SWAP2 DIV MUL PUSH1 0x20 ADD PUSH1 0x40 MLOAD SWAP1 DUP2 ADD PUSH1 0x40 MSTORE DUP1 SWAP3 SWAP2 SWAP1 DUP2 DUP2 MSTORE PUSH1 0x20 ADD DUP3 DUP1 SLOAD PUSH2 0x987 SWAP1 PUSH2 0x115A JUMP JUMPDEST DUP1 ISZERO PUSH2 0x9D4 JUMPI DUP1 PUSH1 0x1F LT PUSH2 0x9A9 JUMPI PUSH2 0x100 DUP1 DUP4 SLOAD DIV MUL DUP4 MSTORE SWAP2 PUSH1 0x20 ADD SWAP2 PUSH2 0x9D4 JUMP JUMPDEST DUP3 ADD SWAP2 SWAP1 PUSH1 0x0 MSTORE PUSH1 0x20 PUSH1 0x0 KECCAK256 SWAP1 JUMPDEST DUP2 SLOAD DUP2 MSTORE SWAP1 PUSH1 0x1 ADD SWAP1 PUSH1 0x20 ADD DUP1 DUP4 GT PUSH2 0x9B7 JUMPI DUP3 SWAP1 SUB PUSH1 0x1F AND DUP3 ADD SWAP2 JUMPDEST POP POP POP POP POP SWAP1 DUP1 PUSH1 0x2 ADD SLOAD SWAP1 DUP1 PUSH1 0x3 ADD PUSH1 0x0 SWAP1 SLOAD SWAP1 PUSH2 0x100 EXP SWAP1 DIV PUSH20 0xFFFFFFFFFFFFFFFFFFFFFFFFFFFFFFFFFFFFFFFF AND SWAP1 DUP1 PUSH1 0x3 ADD PUSH1 0x14 SWAP1 SLOAD SWAP1 PUSH2 0x100 EXP SWAP1 DIV PUSH1 0xFF AND SWAP1 DUP1 PUSH1 0x4 ADD SLOAD SWAP1 POP DUP7 JUMP JUMPDEST PUSH1 0x0 DUP1 SLOAD SWAP1 PUSH2 0x100 EXP SWAP1 DIV PUSH20 0xFFFFFFFFFFFFFFFFFFFFFFFFFFFFFFFFFFFFFFFF AND DUP2 JUMP JUMPDEST PUSH1 0x4 PUSH1 0x20 MSTORE DUP1 PUSH1 0x0 MSTORE PUSH1 0x40 PUSH1 0x0 KECCAK256 PUSH1 0x0 SWAP2 POP SWAP1 POP DUP1 PUSH1 0x0 ADD SLOAD SWAP1 DUP1 PUSH1 0x1 ADD SLOAD SWAP1 DUP1 PUSH1 0x2 ADD PUSH1 0x0 SWAP1 SLOAD SWAP1 PUSH2 0x100 EXP SWAP1 DIV PUSH20 0xFFFFFFFFFFFFFFFFFFFFFFFFFFFFFFFFFFFFFFFF AND SWAP1 DUP1 PUSH1 0x3 ADD SLOAD SWAP1 POP DUP5 JUMP JUMPDEST PUSH1 0x1 SLOAD DUP2 JUMP JUMPDEST DUP3 DUP1 SLOAD PUSH2 0xAA9 SWAP1 PUSH2 0x115A JUMP JUMPDEST SWAP1 PUSH1 0x0 MSTORE PUSH1 0x20 PUSH1 0x0 KECCAK256 SWAP1 PUSH1 0x1F ADD PUSH1 0x20 SWAP1 DIV DUP2 ADD SWAP3 DUP3 PUSH2 0xACB JUMPI PUSH1 0x0 DUP6 SSTORE PUSH2 0xB12 JUMP JUMPDEST DUP3 PUSH1 0x1F LT PUSH2 0xAE4 JUMPI DUP1 MLOAD PUSH1 0xFF NOT AND DUP4 DUP1 ADD OR DUP6 SSTORE PUSH2 0xB12 JUMP JUMPDEST DUP3 DUP1 ADD PUSH1 0x1 ADD DUP6 SSTORE DUP3 ISZERO PUSH2 0xB12 JUMPI SWAP2 DUP3 ADD JUMPDEST DUP3 DUP2 GT ISZERO PUSH2 0xB11 JUMPI DUP3 MLOAD DUP3 SSTORE SWAP2 PUSH1 0x20 ADD SWAP2 SWAP1 PUSH1 0x1 ADD SWAP1 PUSH2 0xAF6 JUMP JUMPDEST JUMPDEST POP SWAP1 POP PUSH2 0xB1F SWAP2 SWAP1 PUSH2 0xB23 JUMP JUMPDEST POP SWAP1 JUMP JUMPDEST JUMPDEST DUP1 DUP3 GT ISZERO PUSH2 0xB3C JUMPI PUSH1 0x0 DUP2 PUSH1 0x0 SWAP1 SSTORE POP PUSH1 0x1 ADD PUSH2 0xB24 JUMP JUMPDEST POP SWAP1 JUMP JUMPDEST PUSH1 0x0 PUSH2 0xB53 PUSH2 0xB4E DUP5 PUSH2 0x103E JUMP JUMPDEST PUSH2 0x100D JUMP JUMPDEST SWAP1 POP DUP3 DUP2 MSTORE PUSH1 0x20 DUP2 ADD DUP5 DUP5 DUP5 ADD GT ISZERO PUSH2 0xB6B JUMPI PUSH1 0x0 DUP1 REVERT JUMPDEST PUSH2 0xB76 DUP5 DUP3 DUP6 PUSH2 0x1118 JUMP JUMPDEST POP SWAP4 SWAP3 POP POP POP JUMP JUMPDEST PUSH1 0x0 DUP3 PUSH1 0x1F DUP4 ADD SLT PUSH2 0xB8F JUMPI PUSH1 0x0 DUP1 REVERT JUMPDEST DUP2 CALLDATALOAD PUSH2 0xB9F DUP5 DUP3 PUSH1 0x20 DUP7 ADD PUSH2 0xB40 JUMP JUMPDEST SWAP2 POP POP SWAP3 SWAP2 POP POP JUMP JUMPDEST PUSH1 0x0 DUP2 CALLDATALOAD SWAP1 POP PUSH2 0xBB7 DUP2 PUSH2 0x1273 JUMP JUMPDEST SWAP3 SWAP2 POP POP JUMP JUMPDEST PUSH1 0x0 DUP1 PUSH1 0x0 PUSH1 0x60 DUP5 DUP7 SUB SLT ISZERO PUSH2 0xBD2 JUMPI PUSH1 0x0 DUP1 REVERT JUMPDEST PUSH1 0x0 DUP5 ADD CALLDATALOAD PUSH8 0xFFFFFFFFFFFFFFFF DUP2 GT ISZERO PUSH2 0xBEC JUMPI PUSH1 0x0 DUP1 REVERT JUMPDEST PUSH2 0xBF8 DUP7 DUP3 DUP8 ADD PUSH2 0xB7E JUMP JUMPDEST SWAP4 POP POP PUSH1 0x20 PUSH2 0xC09 DUP7 DUP3 DUP8 ADD PUSH2 0xBA8 JUMP JUMPDEST SWAP3 POP POP PUSH1 0x40 PUSH2 0xC1A DUP7 DUP3 DUP8 ADD PUSH2 0xBA8 JUMP JUMPDEST SWAP2 POP POP SWAP3 POP SWAP3 POP SWAP3 JUMP JUMPDEST PUSH1 0x0 PUSH1 0x20 DUP3 DUP5 SUB SLT ISZERO PUSH2 0xC36 JUMPI PUSH1 0x0 DUP1 REVERT JUMPDEST PUSH1 0x0 PUSH2 0xC44 DUP5 DUP3 DUP6 ADD PUSH2 0xBA8 JUMP JUMPDEST SWAP2 POP POP SWAP3 SWAP2 POP POP JUMP JUMPDEST PUSH1 0x0 DUP1 PUSH1 0x40 DUP4 DUP6 SUB SLT ISZERO PUSH2 0xC60 JUMPI PUSH1 0x0 DUP1 REVERT JUMPDEST PUSH1 0x0 PUSH2 0xC6E DUP6 DUP3 DUP7 ADD PUSH2 0xBA8 JUMP JUMPDEST SWAP3 POP POP PUSH1 0x20 PUSH2 0xC7F DUP6 DUP3 DUP7 ADD PUSH2 0xBA8 JUMP JUMPDEST SWAP2 POP POP SWAP3 POP SWAP3 SWAP1 POP JUMP JUMPDEST PUSH2 0xC92 DUP2 PUSH2 0x10D0 JUMP JUMPDEST DUP3 MSTORE POP POP JUMP JUMPDEST PUSH2 0xCA1 DUP2 PUSH2 0x10BE JUMP JUMPDEST DUP3 MSTORE POP POP JUMP JUMPDEST PUSH2 0xCB0 DUP2 PUSH2 0x10E2 JUMP JUMPDEST DUP3 MSTORE POP POP JUMP JUMPDEST PUSH1 0x0 PUSH2 0xCC1 DUP3 PUSH2 0x106E JUMP JUMPDEST PUSH2 0xCCB DUP2 DUP6 PUSH2 0x1079 JUMP JUMPDEST SWAP4 POP PUSH2 0xCDB DUP2 DUP6 PUSH1 0x20 DUP7 ADD PUSH2 0x1127 JUMP JUMPDEST PUSH2 0xCE4 DUP2 PUSH2 0x1262 JUMP JUMPDEST DUP5 ADD SWAP2 POP POP SWAP3 SWAP2 POP POP JUMP JUMPDEST PUSH1 0x0 PUSH2 0xCFC PUSH1 0xF DUP4 PUSH2 0x1079 JUMP JUMPDEST SWAP2 POP PUSH32 0x496E636F72726563742070726963650000000000000000000000000000000000 PUSH1 0x0 DUP4 ADD MSTORE PUSH1 0x20 DUP3 ADD SWAP1 POP SWAP2 SWAP1 POP JUMP JUMPDEST PUSH1 0x0 PUSH2 0xD3C PUSH1 0x15 DUP4 PUSH2 0x1079 JUMP JUMPDEST SWAP2 POP PUSH32 0x50726F64756374206E6F7420617661696C61626C650000000000000000000000 PUSH1 0x0 DUP4 ADD MSTORE PUSH1 0x20 DUP3 ADD SWAP1 POP SWAP2 SWAP1 POP JUMP JUMPDEST PUSH1 0x0 PUSH2 0xD7C PUSH1 0xA DUP4 PUSH2 0x1079 JUMP JUMPDEST SWAP2 POP PUSH32 0x4E6F742073656C6C657200000000000000000000000000000000000000000000 PUSH1 0x0 DUP4 ADD MSTORE PUSH1 0x20 DUP3 ADD SWAP1 POP SWAP2 SWAP1 POP JUMP JUMPDEST PUSH1 0x0 PUSH2 0xDBC PUSH1 0x13 DUP4 PUSH2 0x1079 JUMP JUMPDEST SWAP2 POP PUSH32 0x6E6F7420656E6F756768207175616E7469747900000000000000000000000000 PUSH1 0x0 DUP4 ADD MSTORE PUSH1 0x20 DUP3 ADD SWAP1 POP SWAP2 SWAP1 POP JUMP JUMPDEST PUSH1 0x0 PUSH2 0xDFC PUSH1 0x1C DUP4 PUSH2 0x1079 JUMP JUMPDEST SWAP2 POP PUSH32 0x5072696365206D7573742062652067726561746572207468616E203000000000 PUSH1 0x0 DUP4 ADD MSTORE PUSH1 0x20 DUP3 ADD SWAP1 POP SWAP2 SWAP1 POP JUMP JUMPDEST PUSH2 0xE38 DUP2 PUSH2 0x110E JUMP JUMPDEST DUP3 MSTORE POP POP JUMP JUMPDEST PUSH1 0x0 PUSH1 0x20 DUP3 ADD SWAP1 POP PUSH2 0xE53 PUSH1 0x0 DUP4 ADD DUP5 PUSH2 0xC98 JUMP JUMPDEST SWAP3 SWAP2 POP POP JUMP JUMPDEST PUSH1 0x0 PUSH1 0x20 DUP3 ADD SWAP1 POP DUP2 DUP2 SUB PUSH1 0x0 DUP4 ADD MSTORE PUSH2 0xE72 DUP2 PUSH2 0xCEF JUMP JUMPDEST SWAP1 POP SWAP2 SWAP1 POP JUMP JUMPDEST PUSH1 0x0 PUSH1 0x20 DUP3 ADD SWAP1 POP DUP2 DUP2 SUB PUSH1 0x0 DUP4 ADD MSTORE PUSH2 0xE92 DUP2 PUSH2 0xD2F JUMP JUMPDEST SWAP1 POP SWAP2 SWAP1 POP JUMP JUMPDEST PUSH1 0x0 PUSH1 0x20 DUP3 ADD SWAP1 POP DUP2 DUP2 SUB PUSH1 0x0 DUP4 ADD MSTORE PUSH2 0xEB2 DUP2 PUSH2 0xD6F JUMP JUMPDEST SWAP1 POP SWAP2 SWAP1 POP JUMP JUMPDEST PUSH1 0x0 PUSH1 0x20 DUP3 ADD SWAP1 POP DUP2 DUP2 SUB PUSH1 0x0 DUP4 ADD MSTORE PUSH2 0xED2 DUP2 PUSH2 0xDAF JUMP JUMPDEST SWAP1 POP SWAP2 SWAP1 POP JUMP JUMPDEST PUSH1 0x0 PUSH1 0x20 DUP3 ADD SWAP1 POP DUP2 DUP2 SUB PUSH1 0x0 DUP4 ADD MSTORE PUSH2 0xEF2 DUP2 PUSH2 0xDEF JUMP JUMPDEST SWAP1 POP SWAP2 SWAP1 POP JUMP JUMPDEST PUSH1 0x0 PUSH1 0x20 DUP3 ADD SWAP1 POP PUSH2 0xF0E PUSH1 0x0 DUP4 ADD DUP5 PUSH2 0xE2F JUMP JUMPDEST SWAP3 SWAP2 POP POP JUMP JUMPDEST PUSH1 0x0 PUSH1 0x80 DUP3 ADD SWAP1 POP PUSH2 0xF29 PUSH1 0x0 DUP4 ADD DUP8 PUSH2 0xE2F JUMP JUMPDEST DUP2 DUP2 SUB PUSH1 0x20 DUP4 ADD MSTORE PUSH2 0xF3B DUP2 DUP7 PUSH2 0xCB6 JUMP JUMPDEST SWAP1 POP PUSH2 0xF4A PUSH1 0x40 DUP4 ADD DUP6 PUSH2 0xE2F JUMP JUMPDEST PUSH2 0xF57 PUSH1 0x60 DUP4 ADD DUP5 PUSH2 0xC98 JUMP JUMPDEST SWAP6 SWAP5 POP POP POP POP POP JUMP JUMPDEST PUSH1 0x0 PUSH1 0xC0 DUP3 ADD SWAP1 POP PUSH2 0xF75 PUSH1 0x0 DUP4 ADD DUP10 PUSH2 0xE2F JUMP JUMPDEST DUP2 DUP2 SUB PUSH1 0x20 DUP4 ADD MSTORE PUSH2 0xF87 DUP2 DUP9 PUSH2 0xCB6 JUMP JUMPDEST SWAP1 POP PUSH2 0xF96 PUSH1 0x40 DUP4 ADD DUP8 PUSH2 0xE2F JUMP JUMPDEST PUSH2 0xFA3 PUSH1 0x60 DUP4 ADD DUP7 PUSH2 0xC89 JUMP JUMPDEST PUSH2 0xFB0 PUSH1 0x80 DUP4 ADD DUP6 PUSH2 0xCA7 JUMP JUMPDEST PUSH2 0xFBD PUSH1 0xA0 DUP4 ADD DUP5 PUSH2 0xE2F JUMP JUMPDEST SWAP8 SWAP7 POP POP POP POP POP POP POP JUMP JUMPDEST PUSH1 0x0 PUSH1 0x80 DUP3 ADD SWAP1 POP PUSH2 0xFDD PUSH1 0x0 DUP4 ADD DUP8 PUSH2 0xE2F JUMP JUMPDEST PUSH2 0xFEA PUSH1 0x20 DUP4 ADD DUP7 PUSH2 0xE2F JUMP JUMPDEST PUSH2 0xFF7 PUSH1 0x40 DUP4 ADD DUP6 PUSH2 0xC98 JUMP JUMPDEST PUSH2 0x1004 PUSH1 0x60 DUP4 ADD DUP5 PUSH2 0xE2F JUMP JUMPDEST SWAP6 SWAP5 POP POP POP POP POP JUMP JUMPDEST PUSH1 0x0 PUSH1 0x40 MLOAD SWAP1 POP DUP2 DUP2 ADD DUP2 DUP2 LT PUSH8 0xFFFFFFFFFFFFFFFF DUP3 GT OR ISZERO PUSH2 0x1034 JUMPI PUSH2 0x1033 PUSH2 0x1233 JUMP JUMPDEST JUMPDEST DUP1 PUSH1 0x40 MSTORE POP SWAP2 SWAP1 POP JUMP JUMPDEST PUSH1 0x0 PUSH8 0xFFFFFFFFFFFFFFFF DUP3 GT ISZERO PUSH2 0x1059 JUMPI PUSH2 0x1058 PUSH2 0x1233 JUMP JUMPDEST JUMPDEST PUSH1 0x1F NOT PUSH1 0x1F DUP4 ADD AND SWAP1 POP PUSH1 0x20 DUP2 ADD SWAP1 POP SWAP2 SWAP1 POP JUMP JUMPDEST PUSH1 0x0 DUP2 MLOAD SWAP1 POP SWAP2 SWAP1 POP JUMP JUMPDEST PUSH1 0x0 DUP3 DUP3 MSTORE PUSH1 0x20 DUP3 ADD SWAP1 POP SWAP3 SWAP2 POP POP JUMP JUMPDEST PUSH1 0x0 PUSH2 0x1095 DUP3 PUSH2 0x110E JUMP JUMPDEST SWAP2 POP PUSH2 0x10A0 DUP4 PUSH2 0x110E JUMP JUMPDEST SWAP3 POP DUP3 DUP3 LT ISZERO PUSH2 0x10B3 JUMPI PUSH2 0x10B2 PUSH2 0x11D5 JUMP JUMPDEST JUMPDEST DUP3 DUP3 SUB SWAP1 POP SWAP3 SWAP2 POP POP JUMP JUMPDEST PUSH1 0x0 PUSH2 0x10C9 DUP3 PUSH2 0x10EE JUMP JUMPDEST SWAP1 POP SWAP2 SWAP1 POP JUMP JUMPDEST PUSH1 0x0 PUSH2 0x10DB DUP3 PUSH2 0x10EE JUMP JUMPDEST SWAP1 POP SWAP2 SWAP1 POP JUMP JUMPDEST PUSH1 0x0 DUP2 ISZERO ISZERO SWAP1 POP SWAP2 SWAP1 POP JUMP JUMPDEST PUSH1 0x0 PUSH20 0xFFFFFFFFFFFFFFFFFFFFFFFFFFFFFFFFFFFFFFFF DUP3 AND SWAP1 POP SWAP2 SWAP1 POP JUMP JUMPDEST PUSH1 0x0 DUP2 SWAP1 POP SWAP2 SWAP1 POP JUMP JUMPDEST DUP3 DUP2 DUP4 CALLDATACOPY PUSH1 0x0 DUP4 DUP4 ADD MSTORE POP POP POP JUMP JUMPDEST PUSH1 0x0 JUMPDEST DUP4 DUP2 LT ISZERO PUSH2 0x1145 JUMPI DUP1 DUP3 ADD MLOAD DUP2 DUP5 ADD MSTORE PUSH1 0x20 DUP2 ADD SWAP1 POP PUSH2 0x112A JUMP JUMPDEST DUP4 DUP2 GT ISZERO PUSH2 0x1154 JUMPI PUSH1 0x0 DUP5 DUP5 ADD MSTORE JUMPDEST POP POP POP POP JUMP JUMPDEST PUSH1 0x0 PUSH1 0x2 DUP3 DIV SWAP1 POP PUSH1 0x1 DUP3 AND DUP1 PUSH2 0x1172 JUMPI PUSH1 0x7F DUP3 AND SWAP2 POP JUMPDEST PUSH1 0x20 DUP3 LT DUP2 EQ ISZERO PUSH2 0x1186 JUMPI PUSH2 0x1185 PUSH2 0x1204 JUMP JUMPDEST JUMPDEST POP SWAP2 SWAP1 POP JUMP JUMPDEST PUSH1 0x0 PUSH2 0x1197 DUP3 PUSH2 0x110E JUMP JUMPDEST SWAP2 POP PUSH32 0xFFFFFFFFFFFFFFFFFFFFFFFFFFFFFFFFFFFFFFFFFFFFFFFFFFFFFFFFFFFFFFFF DUP3 EQ ISZERO PUSH2 0x11CA JUMPI PUSH2 0x11C9 PUSH2 0x11D5 JUMP JUMPDEST JUMPDEST PUSH1 0x1 DUP3 ADD SWAP1 POP SWAP2 SWAP1 POP JUMP JUMPDEST PUSH32 0x4E487B7100000000000000000000000000000000000000000000000000000000 PUSH1 0x0 MSTORE PUSH1 0x11 PUSH1 0x4 MSTORE PUSH1 0x24 PUSH1 0x0 REVERT JUMPDEST PUSH32 0x4E487B7100000000000000000000000000000000000000000000000000000000 PUSH1 0x0 MSTORE PUSH1 0x22 PUSH1 0x4 MSTORE PUSH1 0x24 PUSH1 0x0 REVERT JUMPDEST PUSH32 0x4E487B7100000000000000000000000000000000000000000000000000000000 PUSH1 0x0 MSTORE PUSH1 0x41 PUSH1 0x4 MSTORE PUSH1 0x24 PUSH1 0x0 REVERT JUMPDEST PUSH1 0x0 PUSH1 0x1F NOT PUSH1 0x1F DUP4 ADD AND SWAP1 POP SWAP2 SWAP1 POP JUMP JUMPDEST PUSH2 0x127C DUP2 PUSH2 0x110E JUMP JUMPDEST DUP2 EQ PUSH2 0x1287 JUMPI PUSH1 0x0 DUP1 REVERT JUMPDEST POP JUMP INVALID LOG2 PUSH5 0x6970667358 0x22 SLT KECCAK256 DUP16 SWAP12 DUP3 SAR SIGNEXTEND STATICCALL SWAP10 KECCAK256 PUSH12 0xFB03D6005C4E38E906CE9220 SLT SUB PUSH16 0x2A9EFCD6B175B82464736F6C63430008 STOP STOP CALLER "
				},
				"gasEstimates": {
					"creation": {
						"codeDepositCost": "960000",
						"executionCost": "21860",
						"totalCost": "981860"
					},
					"external": {
						"addProduct(string,uint256,uint256)": "infinite",
						"buyProduct(uint256,uint256)": "infinite",
						"orderCount()": "1152",
						"orders(uint256)": "infinite",
						"owner()": "1233",
						"productCount()": "1195",
						"products(uint256)": "infinite",
						"removeProduct(uint256)": "infinite"
					}
				},
				"methodIdentifiers": {
					"addProduct(string,uint256,uint256)": "125b0b34",
					"buyProduct(uint256,uint256)": "53b62866",
					"orderCount()": "2453ffa8",
					"orders(uint256)": "a85c38ef",
					"owner()": "8da5cb5b",
					"productCount()": "e0f6ef87",
					"products(uint256)": "7acc0b20",
					"removeProduct(uint256)": "5ee95cae"
				}
			},
			"storageLayout": {
				"storage": [
					{
						"astId": 3,
						"contract": "Practice/eCommerce.sol:Ecommerce",
						"label": "owner",
						"offset": 0,
						"slot": "0",
						"type": "t_address"
					},
					{
						"astId": 5,
						"contract": "Practice/eCommerce.sol:Ecommerce",
						"label": "productCount",
						"offset": 0,
						"slot": "1",
						"type": "t_uint256"
					},
					{
						"astId": 7,
						"contract": "Practice/eCommerce.sol:Ecommerce",
						"label": "orderCount",
						"offset": 0,
						"slot": "2",
						"type": "t_uint256"
					},
					{
						"astId": 43,
						"contract": "Practice/eCommerce.sol:Ecommerce",
						"label": "products",
						"offset": 0,
						"slot": "3",
						"type": "t_mapping(t_uint256,t_struct(Product)29_storage)"
					},
					{
						"astId": 48,
						"contract": "Practice/eCommerce.sol:Ecommerce",
						"label": "orders",
						"offset": 0,
						"slot": "4",
						"type": "t_mapping(t_uint256,t_struct(Order)38_storage)"
					}
				],
				"types": {
					"t_address": {
						"encoding": "inplace",
						"label": "address",
						"numberOfBytes": "20"
					},
					"t_address_payable": {
						"encoding": "inplace",
						"label": "address payable",
						"numberOfBytes": "20"
					},
					"t_bool": {
						"encoding": "inplace",
						"label": "bool",
						"numberOfBytes": "1"
					},
					"t_mapping(t_uint256,t_struct(Order)38_storage)": {
						"encoding": "mapping",
						"key": "t_uint256",
						"label": "mapping(uint256 => struct Ecommerce.Order)",
						"numberOfBytes": "32",
						"value": "t_struct(Order)38_storage"
					},
					"t_mapping(t_uint256,t_struct(Product)29_storage)": {
						"encoding": "mapping",
						"key": "t_uint256",
						"label": "mapping(uint256 => struct Ecommerce.Product)",
						"numberOfBytes": "32",
						"value": "t_struct(Product)29_storage"
					},
					"t_string_storage": {
						"encoding": "bytes",
						"label": "string",
						"numberOfBytes": "32"
					},
					"t_struct(Order)38_storage": {
						"encoding": "inplace",
						"label": "struct Ecommerce.Order",
						"members": [
							{
								"astId": 31,
								"contract": "Practice/eCommerce.sol:Ecommerce",
								"label": "id",
								"offset": 0,
								"slot": "0",
								"type": "t_uint256"
							},
							{
								"astId": 33,
								"contract": "Practice/eCommerce.sol:Ecommerce",
								"label": "productId",
								"offset": 0,
								"slot": "1",
								"type": "t_uint256"
							},
							{
								"astId": 35,
								"contract": "Practice/eCommerce.sol:Ecommerce",
								"label": "buyer",
								"offset": 0,
								"slot": "2",
								"type": "t_address"
							},
							{
								"astId": 37,
								"contract": "Practice/eCommerce.sol:Ecommerce",
								"label": "amount",
								"offset": 0,
								"slot": "3",
								"type": "t_uint256"
							}
						],
						"numberOfBytes": "128"
					},
					"t_struct(Product)29_storage": {
						"encoding": "inplace",
						"label": "struct Ecommerce.Product",
						"members": [
							{
								"astId": 18,
								"contract": "Practice/eCommerce.sol:Ecommerce",
								"label": "id",
								"offset": 0,
								"slot": "0",
								"type": "t_uint256"
							},
							{
								"astId": 20,
								"contract": "Practice/eCommerce.sol:Ecommerce",
								"label": "name",
								"offset": 0,
								"slot": "1",
								"type": "t_string_storage"
							},
							{
								"astId": 22,
								"contract": "Practice/eCommerce.sol:Ecommerce",
								"label": "price",
								"offset": 0,
								"slot": "2",
								"type": "t_uint256"
							},
							{
								"astId": 24,
								"contract": "Practice/eCommerce.sol:Ecommerce",
								"label": "seller",
								"offset": 0,
								"slot": "3",
								"type": "t_address_payable"
							},
							{
								"astId": 26,
								"contract": "Practice/eCommerce.sol:Ecommerce",
								"label": "available",
								"offset": 20,
								"slot": "3",
								"type": "t_bool"
							},
							{
								"astId": 28,
								"contract": "Practice/eCommerce.sol:Ecommerce",
								"label": "quantity",
								"offset": 0,
								"slot": "4",
								"type": "t_uint256"
							}
						],
						"numberOfBytes": "160"
					},
					"t_uint256": {
						"encoding": "inplace",
						"label": "uint256",
						"numberOfBytes": "32"
					}
				}
			},
			"userdoc": {
				"kind": "user",
				"methods": {},
				"version": 1
			}
		}
	}
}