{
	"Practice/Stock.sol": {
		"Inventory_Management": {
			"abi": [
				{
					"inputs": [],
					"stateMutability": "nonpayable",
					"type": "constructor"
				},
				{
					"inputs": [
						{
							"internalType": "uint256",
							"name": "id",
							"type": "uint256"
						},
						{
							"internalType": "uint256",
							"name": "quantity",
							"type": "uint256"
						}
					],
					"name": "addProduct",
					"outputs": [],
					"stateMutability": "nonpayable",
					"type": "function"
				},
				{
					"inputs": [
						{
							"internalType": "uint256",
							"name": "id",
							"type": "uint256"
						},
						{
							"internalType": "uint256",
							"name": "quantity",
							"type": "uint256"
						}
					],
					"name": "buyProduct",
					"outputs": [],
					"stateMutability": "nonpayable",
					"type": "function"
				},
				{
					"inputs": [],
					"name": "getFullDetails",
					"outputs": [
						{
							"internalType": "uint256[]",
							"name": "",
							"type": "uint256[]"
						},
						{
							"internalType": "uint256[]",
							"name": "",
							"type": "uint256[]"
						}
					],
					"stateMutability": "view",
					"type": "function"
				},
				{
					"inputs": [
						{
							"internalType": "uint256",
							"name": "id",
							"type": "uint256"
						},
						{
							"internalType": "uint256",
							"name": "quantity",
							"type": "uint256"
						}
					],
					"name": "updateProduct",
					"outputs": [],
					"stateMutability": "nonpayable",
					"type": "function"
				}
			],
			"devdoc": {
				"kind": "dev",
				"methods": {},
				"version": 1
			},
			"evm": {
				"assembly": "    /* \"Practice/Stock.sol\":430:1761  contract Inventory_Management{... */\n  mstore(0x40, 0x80)\n    /* \"Practice/Stock.sol\":587:633  constructor(){... */\n  callvalue\n  dup1\n  iszero\n  tag_1\n  jumpi\n  0x00\n  dup1\n  revert\ntag_1:\n  pop\n    /* \"Practice/Stock.sol\":616:626  msg.sender */\n  caller\n    /* \"Practice/Stock.sol\":610:615  owner */\n  0x00\n  dup1\n    /* \"Practice/Stock.sol\":610:626  owner=msg.sender */\n  0x0100\n  exp\n  dup2\n  sload\n  dup2\n  0xffffffffffffffffffffffffffffffffffffffff\n  mul\n  not\n  and\n  swap1\n  dup4\n  0xffffffffffffffffffffffffffffffffffffffff\n  and\n  mul\n  or\n  swap1\n  sstore\n  pop\n    /* \"Practice/Stock.sol\":430:1761  contract Inventory_Management{... */\n  dataSize(sub_0)\n  dup1\n  dataOffset(sub_0)\n  0x00\n  codecopy\n  0x00\n  return\nstop\n\nsub_0: assembly {\n        /* \"Practice/Stock.sol\":430:1761  contract Inventory_Management{... */\n      mstore(0x40, 0x80)\n      callvalue\n      dup1\n      iszero\n      tag_1\n      jumpi\n      0x00\n      dup1\n      revert\n    tag_1:\n      pop\n      jumpi(tag_2, lt(calldatasize, 0x04))\n      shr(0xe0, calldataload(0x00))\n      dup1\n      0x31f45cab\n      eq\n      tag_3\n      jumpi\n      dup1\n      0x53b62866\n      eq\n      tag_4\n      jumpi\n      dup1\n      0x7253d6a0\n      eq\n      tag_5\n      jumpi\n      dup1\n      0x8b692479\n      eq\n      tag_6\n      jumpi\n    tag_2:\n      0x00\n      dup1\n      revert\n        /* \"Practice/Stock.sol\":959:1182  function updateProduct(uint id,uint quantity) public checkOwner{... */\n    tag_3:\n      tag_7\n      0x04\n      dup1\n      calldatasize\n      sub\n      dup2\n      add\n      swap1\n      tag_8\n      swap2\n      swap1\n      tag_9\n      jump\t// in\n    tag_8:\n      tag_10\n      jump\t// in\n    tag_7:\n      stop\n        /* \"Practice/Stock.sol\":1188:1438  function buyProduct(uint id, uint quantity) public {... */\n    tag_4:\n      tag_11\n      0x04\n      dup1\n      calldatasize\n      sub\n      dup2\n      add\n      swap1\n      tag_12\n      swap2\n      swap1\n      tag_9\n      jump\t// in\n    tag_12:\n      tag_13\n      jump\t// in\n    tag_11:\n      stop\n        /* \"Practice/Stock.sol\":1445:1759  function getFullDetails() public view returns (uint[] memory, uint[] memory) {... */\n    tag_5:\n      tag_14\n      tag_15\n      jump\t// in\n    tag_14:\n      mload(0x40)\n      tag_16\n      swap3\n      swap2\n      swap1\n      tag_17\n      jump\t// in\n    tag_16:\n      mload(0x40)\n      dup1\n      swap2\n      sub\n      swap1\n      return\n        /* \"Practice/Stock.sol\":734:953  function addProduct(uint id,uint quantity) public checkOwner{... */\n    tag_6:\n      tag_18\n      0x04\n      dup1\n      calldatasize\n      sub\n      dup2\n      add\n      swap1\n      tag_19\n      swap2\n      swap1\n      tag_9\n      jump\t// in\n    tag_19:\n      tag_20\n      jump\t// in\n    tag_18:\n      stop\n        /* \"Practice/Stock.sol\":959:1182  function updateProduct(uint id,uint quantity) public checkOwner{... */\n    tag_10:\n        /* \"Practice/Stock.sol\":683:693  msg.sender */\n      caller\n        /* \"Practice/Stock.sol\":676:693  owner==msg.sender */\n      0xffffffffffffffffffffffffffffffffffffffff\n      and\n        /* \"Practice/Stock.sol\":676:681  owner */\n      0x00\n      dup1\n      sload\n      swap1\n      0x0100\n      exp\n      swap1\n      div\n      0xffffffffffffffffffffffffffffffffffffffff\n      and\n        /* \"Practice/Stock.sol\":676:693  owner==msg.sender */\n      0xffffffffffffffffffffffffffffffffffffffff\n      and\n      eq\n        /* \"Practice/Stock.sol\":668:710  require(owner==msg.sender,\"Access Denied\") */\n      tag_22\n      jumpi\n      mload(0x40)\n      0x08c379a000000000000000000000000000000000000000000000000000000000\n      dup2\n      mstore\n      0x04\n      add\n      tag_23\n      swap1\n      tag_24\n      jump\t// in\n    tag_23:\n      mload(0x40)\n      dup1\n      swap2\n      sub\n      swap1\n      revert\n    tag_22:\n        /* \"Practice/Stock.sol\":1041:1050  isExisted */\n      0x03\n        /* \"Practice/Stock.sol\":1041:1054  isExisted[id] */\n      0x00\n        /* \"Practice/Stock.sol\":1051:1053  id */\n      dup4\n        /* \"Practice/Stock.sol\":1041:1054  isExisted[id] */\n      dup2\n      mstore\n      0x20\n      add\n      swap1\n      dup2\n      mstore\n      0x20\n      add\n      0x00\n      keccak256\n      0x00\n      swap1\n      sload\n      swap1\n      0x0100\n      exp\n      swap1\n      div\n      0xff\n      and\n        /* \"Practice/Stock.sol\":1040:1054  !isExisted[id] */\n      iszero\n        /* \"Practice/Stock.sol\":1032:1075  require(!isExisted[id],\"Id does not exist\") */\n      tag_26\n      jumpi\n      mload(0x40)\n      0x08c379a000000000000000000000000000000000000000000000000000000000\n      dup2\n      mstore\n      0x04\n      add\n      tag_27\n      swap1\n      tag_28\n      jump\t// in\n    tag_27:\n      mload(0x40)\n      dup1\n      swap2\n      sub\n      swap1\n      revert\n    tag_26:\n        /* \"Practice/Stock.sol\":1093:1102  productID */\n      0x01\n        /* \"Practice/Stock.sol\":1108:1110  id */\n      dup3\n        /* \"Practice/Stock.sol\":1093:1111  productID.push(id) */\n      swap1\n      dup1\n      0x01\n      dup2\n      sload\n      add\n      dup1\n      dup3\n      sstore\n      dup1\n      swap2\n      pop\n      pop\n      0x01\n      swap1\n      sub\n      swap1\n      0x00\n      mstore\n      keccak256(0x00, 0x20)\n      add\n      0x00\n      swap1\n      swap2\n      swap1\n      swap2\n      swap1\n      swap2\n      pop\n      sstore\n        /* \"Practice/Stock.sol\":1139:1147  quantity */\n      dup1\n        /* \"Practice/Stock.sol\":1121:1134  product_stock */\n      0x02\n        /* \"Practice/Stock.sol\":1121:1138  product_stock[id] */\n      0x00\n        /* \"Practice/Stock.sol\":1135:1137  id */\n      dup5\n        /* \"Practice/Stock.sol\":1121:1138  product_stock[id] */\n      dup2\n      mstore\n      0x20\n      add\n      swap1\n      dup2\n      mstore\n      0x20\n      add\n      0x00\n      keccak256\n        /* \"Practice/Stock.sol\":1121:1147  product_stock[id]=quantity */\n      dup2\n      swap1\n      sstore\n      pop\n        /* \"Practice/Stock.sol\":1171:1175  true */\n      0x01\n        /* \"Practice/Stock.sol\":1157:1166  isExisted */\n      0x03\n        /* \"Practice/Stock.sol\":1157:1170  isExisted[id] */\n      0x00\n        /* \"Practice/Stock.sol\":1167:1169  id */\n      dup5\n        /* \"Practice/Stock.sol\":1157:1170  isExisted[id] */\n      dup2\n      mstore\n      0x20\n      add\n      swap1\n      dup2\n      mstore\n      0x20\n      add\n      0x00\n      keccak256\n      0x00\n        /* \"Practice/Stock.sol\":1157:1175  isExisted[id]=true */\n      0x0100\n      exp\n      dup2\n      sload\n      dup2\n      0xff\n      mul\n      not\n      and\n      swap1\n      dup4\n      iszero\n      iszero\n      mul\n      or\n      swap1\n      sstore\n      pop\n        /* \"Practice/Stock.sol\":959:1182  function updateProduct(uint id,uint quantity) public checkOwner{... */\n      pop\n      pop\n      jump\t// out\n        /* \"Practice/Stock.sol\":1188:1438  function buyProduct(uint id, uint quantity) public {... */\n    tag_13:\n        /* \"Practice/Stock.sol\":1257:1266  isExisted */\n      0x03\n        /* \"Practice/Stock.sol\":1257:1270  isExisted[id] */\n      0x00\n        /* \"Practice/Stock.sol\":1267:1269  id */\n      dup4\n        /* \"Practice/Stock.sol\":1257:1270  isExisted[id] */\n      dup2\n      mstore\n      0x20\n      add\n      swap1\n      dup2\n      mstore\n      0x20\n      add\n      0x00\n      keccak256\n      0x00\n      swap1\n      sload\n      swap1\n      0x0100\n      exp\n      swap1\n      div\n      0xff\n      and\n        /* \"Practice/Stock.sol\":1249:1284  require(isExisted[id],\"Invalid Id\") */\n      tag_31\n      jumpi\n      mload(0x40)\n      0x08c379a000000000000000000000000000000000000000000000000000000000\n      dup2\n      mstore\n      0x04\n      add\n      tag_32\n      swap1\n      tag_33\n      jump\t// in\n    tag_32:\n      mload(0x40)\n      dup1\n      swap2\n      sub\n      swap1\n      revert\n    tag_31:\n        /* \"Practice/Stock.sol\":1321:1329  quantity */\n      dup1\n        /* \"Practice/Stock.sol\":1302:1315  product_stock */\n      0x02\n        /* \"Practice/Stock.sol\":1302:1319  product_stock[id] */\n      0x00\n        /* \"Practice/Stock.sol\":1316:1318  id */\n      dup5\n        /* \"Practice/Stock.sol\":1302:1319  product_stock[id] */\n      dup2\n      mstore\n      0x20\n      add\n      swap1\n      dup2\n      mstore\n      0x20\n      add\n      0x00\n      keccak256\n      sload\n        /* \"Practice/Stock.sol\":1302:1329  product_stock[id]>=quantity */\n      lt\n      iszero\n        /* \"Practice/Stock.sol\":1294:1349  require(product_stock[id]>=quantity,\"Invalid quantity\") */\n      tag_34\n      jumpi\n      mload(0x40)\n      0x08c379a000000000000000000000000000000000000000000000000000000000\n      dup2\n      mstore\n      0x04\n      add\n      tag_35\n      swap1\n      tag_36\n      jump\t// in\n    tag_35:\n      mload(0x40)\n      dup1\n      swap2\n      sub\n      swap1\n      revert\n    tag_34:\n        /* \"Practice/Stock.sol\":1384:1392  quantity */\n      dup1\n        /* \"Practice/Stock.sol\":1365:1378  product_stock */\n      0x02\n        /* \"Practice/Stock.sol\":1365:1382  product_stock[id] */\n      0x00\n        /* \"Practice/Stock.sol\":1379:1381  id */\n      dup5\n        /* \"Practice/Stock.sol\":1365:1382  product_stock[id] */\n      dup2\n      mstore\n      0x20\n      add\n      swap1\n      dup2\n      mstore\n      0x20\n      add\n      0x00\n      keccak256\n      0x00\n        /* \"Practice/Stock.sol\":1365:1392  product_stock[id]-=quantity */\n      dup3\n      dup3\n      sload\n      tag_37\n      swap2\n      swap1\n      tag_38\n      jump\t// in\n    tag_37:\n      swap3\n      pop\n      pop\n      dup2\n      swap1\n      sstore\n      pop\n        /* \"Practice/Stock.sol\":1429:1430  0 */\n      0x00\n        /* \"Practice/Stock.sol\":1410:1423  product_stock */\n      0x02\n        /* \"Practice/Stock.sol\":1410:1427  product_stock[id] */\n      0x00\n        /* \"Practice/Stock.sol\":1424:1426  id */\n      dup5\n        /* \"Practice/Stock.sol\":1410:1427  product_stock[id] */\n      dup2\n      mstore\n      0x20\n      add\n      swap1\n      dup2\n      mstore\n      0x20\n      add\n      0x00\n      keccak256\n      sload\n        /* \"Practice/Stock.sol\":1410:1430  product_stock[id]>=0 */\n      lt\n      iszero\n        /* \"Practice/Stock.sol\":1403:1431  assert(product_stock[id]>=0) */\n      tag_39\n      jumpi\n      mstore(0x00, 0x4e487b7100000000000000000000000000000000000000000000000000000000)\n      mstore(0x04, 0x01)\n      revert(0x00, 0x24)\n    tag_39:\n        /* \"Practice/Stock.sol\":1188:1438  function buyProduct(uint id, uint quantity) public {... */\n      pop\n      pop\n      jump\t// out\n        /* \"Practice/Stock.sol\":1445:1759  function getFullDetails() public view returns (uint[] memory, uint[] memory) {... */\n    tag_15:\n        /* \"Practice/Stock.sol\":1492:1505  uint[] memory */\n      0x60\n        /* \"Practice/Stock.sol\":1507:1520  uint[] memory */\n      dup1\n        /* \"Practice/Stock.sol\":1532:1558  uint[] memory all_products */\n      0x00\n        /* \"Practice/Stock.sol\":1570:1579  productID */\n      0x01\n        /* \"Practice/Stock.sol\":1570:1586  productID.length */\n      dup1\n      sload\n      swap1\n      pop\n        /* \"Practice/Stock.sol\":1559:1587  new uint[](productID.length) */\n      0xffffffffffffffff\n      dup2\n      gt\n      iszero\n      tag_41\n      jumpi\n      mstore(0x00, 0x4e487b7100000000000000000000000000000000000000000000000000000000)\n      mstore(0x04, 0x41)\n      revert(0x00, 0x24)\n    tag_41:\n      mload(0x40)\n      swap1\n      dup1\n      dup3\n      mstore\n      dup1\n      0x20\n      mul\n      0x20\n      add\n      dup3\n      add\n      0x40\n      mstore\n      dup1\n      iszero\n      tag_42\n      jumpi\n      dup2\n      0x20\n      add\n      0x20\n      dup3\n      mul\n      dup1\n      calldatasize\n      dup4\n      calldatacopy\n      dup1\n      dup3\n      add\n      swap2\n      pop\n      pop\n      swap1\n      pop\n    tag_42:\n      pop\n        /* \"Practice/Stock.sol\":1532:1587  uint[] memory all_products=new uint[](productID.length) */\n      swap1\n      pop\n        /* \"Practice/Stock.sol\":1602:1608  uint i */\n      0x00\n        /* \"Practice/Stock.sol\":1597:1710  for (uint i = 0; i < productID.length; i++) {... */\n    tag_43:\n        /* \"Practice/Stock.sol\":1618:1627  productID */\n      0x01\n        /* \"Practice/Stock.sol\":1618:1634  productID.length */\n      dup1\n      sload\n      swap1\n      pop\n        /* \"Practice/Stock.sol\":1614:1615  i */\n      dup2\n        /* \"Practice/Stock.sol\":1614:1634  i < productID.length */\n      lt\n        /* \"Practice/Stock.sol\":1597:1710  for (uint i = 0; i < productID.length; i++) {... */\n      iszero\n      tag_44\n      jumpi\n        /* \"Practice/Stock.sol\":1672:1685  product_stock */\n      0x02\n        /* \"Practice/Stock.sol\":1672:1699  product_stock[productID[i]] */\n      0x00\n        /* \"Practice/Stock.sol\":1686:1695  productID */\n      0x01\n        /* \"Practice/Stock.sol\":1696:1697  i */\n      dup4\n        /* \"Practice/Stock.sol\":1686:1698  productID[i] */\n      dup2\n      sload\n      dup2\n      lt\n      tag_46\n      jumpi\n      mstore(0x00, 0x4e487b7100000000000000000000000000000000000000000000000000000000)\n      mstore(0x04, 0x32)\n      revert(0x00, 0x24)\n    tag_46:\n      swap1\n      0x00\n      mstore\n      keccak256(0x00, 0x20)\n      add\n      sload\n        /* \"Practice/Stock.sol\":1672:1699  product_stock[productID[i]] */\n      dup2\n      mstore\n      0x20\n      add\n      swap1\n      dup2\n      mstore\n      0x20\n      add\n      0x00\n      keccak256\n      sload\n        /* \"Practice/Stock.sol\":1655:1667  all_products */\n      dup3\n        /* \"Practice/Stock.sol\":1668:1669  i */\n      dup3\n        /* \"Practice/Stock.sol\":1655:1670  all_products[i] */\n      dup2\n      mload\n      dup2\n      lt\n      tag_48\n      jumpi\n      mstore(0x00, 0x4e487b7100000000000000000000000000000000000000000000000000000000)\n      mstore(0x04, 0x32)\n      revert(0x00, 0x24)\n    tag_48:\n      0x20\n      mul\n      0x20\n      add\n      add\n        /* \"Practice/Stock.sol\":1655:1699  all_products[i]= product_stock[productID[i]] */\n      dup2\n      dup2\n      mstore\n      pop\n      pop\n        /* \"Practice/Stock.sol\":1636:1639  i++ */\n      dup1\n      dup1\n      tag_49\n      swap1\n      tag_50\n      jump\t// in\n    tag_49:\n      swap2\n      pop\n      pop\n        /* \"Practice/Stock.sol\":1597:1710  for (uint i = 0; i < productID.length; i++) {... */\n      jump(tag_43)\n    tag_44:\n      pop\n        /* \"Practice/Stock.sol\":1728:1737  productID */\n      0x01\n        /* \"Practice/Stock.sol\":1739:1751  all_products */\n      dup2\n        /* \"Practice/Stock.sol\":1720:1752  return (productID, all_products) */\n      dup2\n      dup1\n      sload\n      dup1\n      0x20\n      mul\n      0x20\n      add\n      mload(0x40)\n      swap1\n      dup2\n      add\n      0x40\n      mstore\n      dup1\n      swap3\n      swap2\n      swap1\n      dup2\n      dup2\n      mstore\n      0x20\n      add\n      dup3\n      dup1\n      sload\n      dup1\n      iszero\n      tag_51\n      jumpi\n      0x20\n      mul\n      dup3\n      add\n      swap2\n      swap1\n      0x00\n      mstore\n      keccak256(0x00, 0x20)\n      swap1\n    tag_52:\n      dup2\n      sload\n      dup2\n      mstore\n      0x20\n      add\n      swap1\n      0x01\n      add\n      swap1\n      dup1\n      dup4\n      gt\n      tag_52\n      jumpi\n    tag_51:\n      pop\n      pop\n      pop\n      pop\n      pop\n      swap2\n      pop\n      swap3\n      pop\n      swap3\n      pop\n      pop\n        /* \"Practice/Stock.sol\":1445:1759  function getFullDetails() public view returns (uint[] memory, uint[] memory) {... */\n      swap1\n      swap2\n      jump\t// out\n        /* \"Practice/Stock.sol\":734:953  function addProduct(uint id,uint quantity) public checkOwner{... */\n    tag_20:\n        /* \"Practice/Stock.sol\":683:693  msg.sender */\n      caller\n        /* \"Practice/Stock.sol\":676:693  owner==msg.sender */\n      0xffffffffffffffffffffffffffffffffffffffff\n      and\n        /* \"Practice/Stock.sol\":676:681  owner */\n      0x00\n      dup1\n      sload\n      swap1\n      0x0100\n      exp\n      swap1\n      div\n      0xffffffffffffffffffffffffffffffffffffffff\n      and\n        /* \"Practice/Stock.sol\":676:693  owner==msg.sender */\n      0xffffffffffffffffffffffffffffffffffffffff\n      and\n      eq\n        /* \"Practice/Stock.sol\":668:710  require(owner==msg.sender,\"Access Denied\") */\n      tag_54\n      jumpi\n      mload(0x40)\n      0x08c379a000000000000000000000000000000000000000000000000000000000\n      dup2\n      mstore\n      0x04\n      add\n      tag_55\n      swap1\n      tag_24\n      jump\t// in\n    tag_55:\n      mload(0x40)\n      dup1\n      swap2\n      sub\n      swap1\n      revert\n    tag_54:\n        /* \"Practice/Stock.sol\":813:822  isExisted */\n      0x03\n        /* \"Practice/Stock.sol\":813:826  isExisted[id] */\n      0x00\n        /* \"Practice/Stock.sol\":823:825  id */\n      dup4\n        /* \"Practice/Stock.sol\":813:826  isExisted[id] */\n      dup2\n      mstore\n      0x20\n      add\n      swap1\n      dup2\n      mstore\n      0x20\n      add\n      0x00\n      keccak256\n      0x00\n      swap1\n      sload\n      swap1\n      0x0100\n      exp\n      swap1\n      div\n      0xff\n      and\n        /* \"Practice/Stock.sol\":812:826  !isExisted[id] */\n      iszero\n        /* \"Practice/Stock.sol\":804:846  require(!isExisted[id],\"Id already exist\") */\n      tag_57\n      jumpi\n      mload(0x40)\n      0x08c379a000000000000000000000000000000000000000000000000000000000\n      dup2\n      mstore\n      0x04\n      add\n      tag_58\n      swap1\n      tag_59\n      jump\t// in\n    tag_58:\n      mload(0x40)\n      dup1\n      swap2\n      sub\n      swap1\n      revert\n    tag_57:\n        /* \"Practice/Stock.sol\":864:873  productID */\n      0x01\n        /* \"Practice/Stock.sol\":879:881  id */\n      dup3\n        /* \"Practice/Stock.sol\":864:882  productID.push(id) */\n      swap1\n      dup1\n      0x01\n      dup2\n      sload\n      add\n      dup1\n      dup3\n      sstore\n      dup1\n      swap2\n      pop\n      pop\n      0x01\n      swap1\n      sub\n      swap1\n      0x00\n      mstore\n      keccak256(0x00, 0x20)\n      add\n      0x00\n      swap1\n      swap2\n      swap1\n      swap2\n      swap1\n      swap2\n      pop\n      sstore\n        /* \"Practice/Stock.sol\":910:918  quantity */\n      dup1\n        /* \"Practice/Stock.sol\":892:905  product_stock */\n      0x02\n        /* \"Practice/Stock.sol\":892:909  product_stock[id] */\n      0x00\n        /* \"Practice/Stock.sol\":906:908  id */\n      dup5\n        /* \"Practice/Stock.sol\":892:909  product_stock[id] */\n      dup2\n      mstore\n      0x20\n      add\n      swap1\n      dup2\n      mstore\n      0x20\n      add\n      0x00\n      keccak256\n        /* \"Practice/Stock.sol\":892:918  product_stock[id]=quantity */\n      dup2\n      swap1\n      sstore\n      pop\n        /* \"Practice/Stock.sol\":942:946  true */\n      0x01\n        /* \"Practice/Stock.sol\":928:937  isExisted */\n      0x03\n        /* \"Practice/Stock.sol\":928:941  isExisted[id] */\n      0x00\n        /* \"Practice/Stock.sol\":938:940  id */\n      dup5\n        /* \"Practice/Stock.sol\":928:941  isExisted[id] */\n      dup2\n      mstore\n      0x20\n      add\n      swap1\n      dup2\n      mstore\n      0x20\n      add\n      0x00\n      keccak256\n      0x00\n        /* \"Practice/Stock.sol\":928:946  isExisted[id]=true */\n      0x0100\n      exp\n      dup2\n      sload\n      dup2\n      0xff\n      mul\n      not\n      and\n      swap1\n      dup4\n      iszero\n      iszero\n      mul\n      or\n      swap1\n      sstore\n      pop\n        /* \"Practice/Stock.sol\":734:953  function addProduct(uint id,uint quantity) public checkOwner{... */\n      pop\n      pop\n      jump\t// out\n        /* \"#utility.yul\":7:146   */\n    tag_62:\n      0x00\n        /* \"#utility.yul\":91:97   */\n      dup2\n        /* \"#utility.yul\":78:98   */\n      calldataload\n        /* \"#utility.yul\":69:98   */\n      swap1\n      pop\n        /* \"#utility.yul\":107:140   */\n      tag_64\n        /* \"#utility.yul\":134:139   */\n      dup2\n        /* \"#utility.yul\":107:140   */\n      tag_65\n      jump\t// in\n    tag_64:\n        /* \"#utility.yul\":59:146   */\n      swap3\n      swap2\n      pop\n      pop\n      jump\t// out\n        /* \"#utility.yul\":152:559   */\n    tag_9:\n      0x00\n      dup1\n        /* \"#utility.yul\":277:279   */\n      0x40\n        /* \"#utility.yul\":265:274   */\n      dup4\n        /* \"#utility.yul\":256:263   */\n      dup6\n        /* \"#utility.yul\":252:275   */\n      sub\n        /* \"#utility.yul\":248:280   */\n      slt\n        /* \"#utility.yul\":245:247   */\n      iszero\n      tag_67\n      jumpi\n        /* \"#utility.yul\":293:294   */\n      0x00\n        /* \"#utility.yul\":290:291   */\n      dup1\n        /* \"#utility.yul\":283:295   */\n      revert\n        /* \"#utility.yul\":245:247   */\n    tag_67:\n        /* \"#utility.yul\":336:337   */\n      0x00\n        /* \"#utility.yul\":361:414   */\n      tag_68\n        /* \"#utility.yul\":406:413   */\n      dup6\n        /* \"#utility.yul\":397:403   */\n      dup3\n        /* \"#utility.yul\":386:395   */\n      dup7\n        /* \"#utility.yul\":382:404   */\n      add\n        /* \"#utility.yul\":361:414   */\n      tag_62\n      jump\t// in\n    tag_68:\n        /* \"#utility.yul\":351:414   */\n      swap3\n      pop\n        /* \"#utility.yul\":307:424   */\n      pop\n        /* \"#utility.yul\":463:465   */\n      0x20\n        /* \"#utility.yul\":489:542   */\n      tag_69\n        /* \"#utility.yul\":534:541   */\n      dup6\n        /* \"#utility.yul\":525:531   */\n      dup3\n        /* \"#utility.yul\":514:523   */\n      dup7\n        /* \"#utility.yul\":510:532   */\n      add\n        /* \"#utility.yul\":489:542   */\n      tag_62\n      jump\t// in\n    tag_69:\n        /* \"#utility.yul\":479:542   */\n      swap2\n      pop\n        /* \"#utility.yul\":434:552   */\n      pop\n        /* \"#utility.yul\":235:559   */\n      swap3\n      pop\n      swap3\n      swap1\n      pop\n      jump\t// out\n        /* \"#utility.yul\":565:744   */\n    tag_70:\n      0x00\n        /* \"#utility.yul\":655:701   */\n      tag_72\n        /* \"#utility.yul\":697:700   */\n      dup4\n        /* \"#utility.yul\":689:695   */\n      dup4\n        /* \"#utility.yul\":655:701   */\n      tag_73\n      jump\t// in\n    tag_72:\n        /* \"#utility.yul\":733:737   */\n      0x20\n        /* \"#utility.yul\":728:731   */\n      dup4\n        /* \"#utility.yul\":724:738   */\n      add\n        /* \"#utility.yul\":710:738   */\n      swap1\n      pop\n        /* \"#utility.yul\":645:744   */\n      swap3\n      swap2\n      pop\n      pop\n      jump\t// out\n        /* \"#utility.yul\":780:1512   */\n    tag_74:\n      0x00\n        /* \"#utility.yul\":928:982   */\n      tag_76\n        /* \"#utility.yul\":976:981   */\n      dup3\n        /* \"#utility.yul\":928:982   */\n      tag_77\n      jump\t// in\n    tag_76:\n        /* \"#utility.yul\":998:1084   */\n      tag_78\n        /* \"#utility.yul\":1077:1083   */\n      dup2\n        /* \"#utility.yul\":1072:1075   */\n      dup6\n        /* \"#utility.yul\":998:1084   */\n      tag_79\n      jump\t// in\n    tag_78:\n        /* \"#utility.yul\":991:1084   */\n      swap4\n      pop\n        /* \"#utility.yul\":1108:1164   */\n      tag_80\n        /* \"#utility.yul\":1158:1163   */\n      dup4\n        /* \"#utility.yul\":1108:1164   */\n      tag_81\n      jump\t// in\n    tag_80:\n        /* \"#utility.yul\":1187:1194   */\n      dup1\n        /* \"#utility.yul\":1218:1219   */\n      0x00\n        /* \"#utility.yul\":1203:1487   */\n    tag_82:\n        /* \"#utility.yul\":1228:1234   */\n      dup4\n        /* \"#utility.yul\":1225:1226   */\n      dup2\n        /* \"#utility.yul\":1222:1235   */\n      lt\n        /* \"#utility.yul\":1203:1487   */\n      iszero\n      tag_84\n      jumpi\n        /* \"#utility.yul\":1304:1310   */\n      dup2\n        /* \"#utility.yul\":1298:1311   */\n      mload\n        /* \"#utility.yul\":1331:1394   */\n      tag_85\n        /* \"#utility.yul\":1390:1393   */\n      dup9\n        /* \"#utility.yul\":1375:1388   */\n      dup3\n        /* \"#utility.yul\":1331:1394   */\n      tag_70\n      jump\t// in\n    tag_85:\n        /* \"#utility.yul\":1324:1394   */\n      swap8\n      pop\n        /* \"#utility.yul\":1417:1477   */\n      tag_86\n        /* \"#utility.yul\":1470:1476   */\n      dup4\n        /* \"#utility.yul\":1417:1477   */\n      tag_87\n      jump\t// in\n    tag_86:\n        /* \"#utility.yul\":1407:1477   */\n      swap3\n      pop\n        /* \"#utility.yul\":1263:1487   */\n      pop\n        /* \"#utility.yul\":1250:1251   */\n      0x01\n        /* \"#utility.yul\":1247:1248   */\n      dup2\n        /* \"#utility.yul\":1243:1252   */\n      add\n        /* \"#utility.yul\":1238:1252   */\n      swap1\n      pop\n        /* \"#utility.yul\":1203:1487   */\n      jump(tag_82)\n    tag_84:\n        /* \"#utility.yul\":1207:1221   */\n      pop\n        /* \"#utility.yul\":1503:1506   */\n      dup6\n        /* \"#utility.yul\":1496:1506   */\n      swap4\n      pop\n        /* \"#utility.yul\":904:1512   */\n      pop\n      pop\n      pop\n      swap3\n      swap2\n      pop\n      pop\n      jump\t// out\n        /* \"#utility.yul\":1518:1829   */\n    tag_88:\n      0x00\n        /* \"#utility.yul\":1681:1748   */\n      tag_90\n        /* \"#utility.yul\":1745:1747   */\n      0x0d\n        /* \"#utility.yul\":1740:1743   */\n      dup4\n        /* \"#utility.yul\":1681:1748   */\n      tag_91\n      jump\t// in\n    tag_90:\n        /* \"#utility.yul\":1674:1748   */\n      swap2\n      pop\n        /* \"#utility.yul\":1778:1793   */\n      0x4163636573732044656e69656400000000000000000000000000000000000000\n        /* \"#utility.yul\":1774:1775   */\n      0x00\n        /* \"#utility.yul\":1769:1772   */\n      dup4\n        /* \"#utility.yul\":1765:1776   */\n      add\n        /* \"#utility.yul\":1758:1794   */\n      mstore\n        /* \"#utility.yul\":1820:1822   */\n      0x20\n        /* \"#utility.yul\":1815:1818   */\n      dup3\n        /* \"#utility.yul\":1811:1823   */\n      add\n        /* \"#utility.yul\":1804:1823   */\n      swap1\n      pop\n        /* \"#utility.yul\":1664:1829   */\n      swap2\n      swap1\n      pop\n      jump\t// out\n        /* \"#utility.yul\":1835:2143   */\n    tag_92:\n      0x00\n        /* \"#utility.yul\":1998:2065   */\n      tag_94\n        /* \"#utility.yul\":2062:2064   */\n      0x0a\n        /* \"#utility.yul\":2057:2060   */\n      dup4\n        /* \"#utility.yul\":1998:2065   */\n      tag_91\n      jump\t// in\n    tag_94:\n        /* \"#utility.yul\":1991:2065   */\n      swap2\n      pop\n        /* \"#utility.yul\":2095:2107   */\n      0x496e76616c696420496400000000000000000000000000000000000000000000\n        /* \"#utility.yul\":2091:2092   */\n      0x00\n        /* \"#utility.yul\":2086:2089   */\n      dup4\n        /* \"#utility.yul\":2082:2093   */\n      add\n        /* \"#utility.yul\":2075:2108   */\n      mstore\n        /* \"#utility.yul\":2134:2136   */\n      0x20\n        /* \"#utility.yul\":2129:2132   */\n      dup3\n        /* \"#utility.yul\":2125:2137   */\n      add\n        /* \"#utility.yul\":2118:2137   */\n      swap1\n      pop\n        /* \"#utility.yul\":1981:2143   */\n      swap2\n      swap1\n      pop\n      jump\t// out\n        /* \"#utility.yul\":2149:2463   */\n    tag_95:\n      0x00\n        /* \"#utility.yul\":2312:2379   */\n      tag_97\n        /* \"#utility.yul\":2376:2378   */\n      0x10\n        /* \"#utility.yul\":2371:2374   */\n      dup4\n        /* \"#utility.yul\":2312:2379   */\n      tag_91\n      jump\t// in\n    tag_97:\n        /* \"#utility.yul\":2305:2379   */\n      swap2\n      pop\n        /* \"#utility.yul\":2409:2427   */\n      0x496420616c726561647920657869737400000000000000000000000000000000\n        /* \"#utility.yul\":2405:2406   */\n      0x00\n        /* \"#utility.yul\":2400:2403   */\n      dup4\n        /* \"#utility.yul\":2396:2407   */\n      add\n        /* \"#utility.yul\":2389:2428   */\n      mstore\n        /* \"#utility.yul\":2454:2456   */\n      0x20\n        /* \"#utility.yul\":2449:2452   */\n      dup3\n        /* \"#utility.yul\":2445:2457   */\n      add\n        /* \"#utility.yul\":2438:2457   */\n      swap1\n      pop\n        /* \"#utility.yul\":2295:2463   */\n      swap2\n      swap1\n      pop\n      jump\t// out\n        /* \"#utility.yul\":2469:2783   */\n    tag_98:\n      0x00\n        /* \"#utility.yul\":2632:2699   */\n      tag_100\n        /* \"#utility.yul\":2696:2698   */\n      0x10\n        /* \"#utility.yul\":2691:2694   */\n      dup4\n        /* \"#utility.yul\":2632:2699   */\n      tag_91\n      jump\t// in\n    tag_100:\n        /* \"#utility.yul\":2625:2699   */\n      swap2\n      pop\n        /* \"#utility.yul\":2729:2747   */\n      0x496e76616c6964207175616e7469747900000000000000000000000000000000\n        /* \"#utility.yul\":2725:2726   */\n      0x00\n        /* \"#utility.yul\":2720:2723   */\n      dup4\n        /* \"#utility.yul\":2716:2727   */\n      add\n        /* \"#utility.yul\":2709:2748   */\n      mstore\n        /* \"#utility.yul\":2774:2776   */\n      0x20\n        /* \"#utility.yul\":2769:2772   */\n      dup3\n        /* \"#utility.yul\":2765:2777   */\n      add\n        /* \"#utility.yul\":2758:2777   */\n      swap1\n      pop\n        /* \"#utility.yul\":2615:2783   */\n      swap2\n      swap1\n      pop\n      jump\t// out\n        /* \"#utility.yul\":2789:3104   */\n    tag_101:\n      0x00\n        /* \"#utility.yul\":2952:3019   */\n      tag_103\n        /* \"#utility.yul\":3016:3018   */\n      0x11\n        /* \"#utility.yul\":3011:3014   */\n      dup4\n        /* \"#utility.yul\":2952:3019   */\n      tag_91\n      jump\t// in\n    tag_103:\n        /* \"#utility.yul\":2945:3019   */\n      swap2\n      pop\n        /* \"#utility.yul\":3049:3068   */\n      0x496420646f6573206e6f74206578697374000000000000000000000000000000\n        /* \"#utility.yul\":3045:3046   */\n      0x00\n        /* \"#utility.yul\":3040:3043   */\n      dup4\n        /* \"#utility.yul\":3036:3047   */\n      add\n        /* \"#utility.yul\":3029:3069   */\n      mstore\n        /* \"#utility.yul\":3095:3097   */\n      0x20\n        /* \"#utility.yul\":3090:3093   */\n      dup3\n        /* \"#utility.yul\":3086:3098   */\n      add\n        /* \"#utility.yul\":3079:3098   */\n      swap1\n      pop\n        /* \"#utility.yul\":2935:3104   */\n      swap2\n      swap1\n      pop\n      jump\t// out\n        /* \"#utility.yul\":3110:3218   */\n    tag_73:\n        /* \"#utility.yul\":3187:3211   */\n      tag_105\n        /* \"#utility.yul\":3205:3210   */\n      dup2\n        /* \"#utility.yul\":3187:3211   */\n      tag_106\n      jump\t// in\n    tag_105:\n        /* \"#utility.yul\":3182:3185   */\n      dup3\n        /* \"#utility.yul\":3175:3212   */\n      mstore\n        /* \"#utility.yul\":3165:3218   */\n      pop\n      pop\n      jump\t// out\n        /* \"#utility.yul\":3224:3858   */\n    tag_17:\n      0x00\n        /* \"#utility.yul\":3483:3485   */\n      0x40\n        /* \"#utility.yul\":3472:3481   */\n      dup3\n        /* \"#utility.yul\":3468:3486   */\n      add\n        /* \"#utility.yul\":3460:3486   */\n      swap1\n      pop\n        /* \"#utility.yul\":3532:3541   */\n      dup2\n        /* \"#utility.yul\":3526:3530   */\n      dup2\n        /* \"#utility.yul\":3522:3542   */\n      sub\n        /* \"#utility.yul\":3518:3519   */\n      0x00\n        /* \"#utility.yul\":3507:3516   */\n      dup4\n        /* \"#utility.yul\":3503:3520   */\n      add\n        /* \"#utility.yul\":3496:3543   */\n      mstore\n        /* \"#utility.yul\":3560:3668   */\n      tag_108\n        /* \"#utility.yul\":3663:3667   */\n      dup2\n        /* \"#utility.yul\":3654:3660   */\n      dup6\n        /* \"#utility.yul\":3560:3668   */\n      tag_74\n      jump\t// in\n    tag_108:\n        /* \"#utility.yul\":3552:3668   */\n      swap1\n      pop\n        /* \"#utility.yul\":3715:3724   */\n      dup2\n        /* \"#utility.yul\":3709:3713   */\n      dup2\n        /* \"#utility.yul\":3705:3725   */\n      sub\n        /* \"#utility.yul\":3700:3702   */\n      0x20\n        /* \"#utility.yul\":3689:3698   */\n      dup4\n        /* \"#utility.yul\":3685:3703   */\n      add\n        /* \"#utility.yul\":3678:3726   */\n      mstore\n        /* \"#utility.yul\":3743:3851   */\n      tag_109\n        /* \"#utility.yul\":3846:3850   */\n      dup2\n        /* \"#utility.yul\":3837:3843   */\n      dup5\n        /* \"#utility.yul\":3743:3851   */\n      tag_74\n      jump\t// in\n    tag_109:\n        /* \"#utility.yul\":3735:3851   */\n      swap1\n      pop\n        /* \"#utility.yul\":3450:3858   */\n      swap4\n      swap3\n      pop\n      pop\n      pop\n      jump\t// out\n        /* \"#utility.yul\":3864:4283   */\n    tag_24:\n      0x00\n        /* \"#utility.yul\":4068:4070   */\n      0x20\n        /* \"#utility.yul\":4057:4066   */\n      dup3\n        /* \"#utility.yul\":4053:4071   */\n      add\n        /* \"#utility.yul\":4045:4071   */\n      swap1\n      pop\n        /* \"#utility.yul\":4117:4126   */\n      dup2\n        /* \"#utility.yul\":4111:4115   */\n      dup2\n        /* \"#utility.yul\":4107:4127   */\n      sub\n        /* \"#utility.yul\":4103:4104   */\n      0x00\n        /* \"#utility.yul\":4092:4101   */\n      dup4\n        /* \"#utility.yul\":4088:4105   */\n      add\n        /* \"#utility.yul\":4081:4128   */\n      mstore\n        /* \"#utility.yul\":4145:4276   */\n      tag_111\n        /* \"#utility.yul\":4271:4275   */\n      dup2\n        /* \"#utility.yul\":4145:4276   */\n      tag_88\n      jump\t// in\n    tag_111:\n        /* \"#utility.yul\":4137:4276   */\n      swap1\n      pop\n        /* \"#utility.yul\":4035:4283   */\n      swap2\n      swap1\n      pop\n      jump\t// out\n        /* \"#utility.yul\":4289:4708   */\n    tag_33:\n      0x00\n        /* \"#utility.yul\":4493:4495   */\n      0x20\n        /* \"#utility.yul\":4482:4491   */\n      dup3\n        /* \"#utility.yul\":4478:4496   */\n      add\n        /* \"#utility.yul\":4470:4496   */\n      swap1\n      pop\n        /* \"#utility.yul\":4542:4551   */\n      dup2\n        /* \"#utility.yul\":4536:4540   */\n      dup2\n        /* \"#utility.yul\":4532:4552   */\n      sub\n        /* \"#utility.yul\":4528:4529   */\n      0x00\n        /* \"#utility.yul\":4517:4526   */\n      dup4\n        /* \"#utility.yul\":4513:4530   */\n      add\n        /* \"#utility.yul\":4506:4553   */\n      mstore\n        /* \"#utility.yul\":4570:4701   */\n      tag_113\n        /* \"#utility.yul\":4696:4700   */\n      dup2\n        /* \"#utility.yul\":4570:4701   */\n      tag_92\n      jump\t// in\n    tag_113:\n        /* \"#utility.yul\":4562:4701   */\n      swap1\n      pop\n        /* \"#utility.yul\":4460:4708   */\n      swap2\n      swap1\n      pop\n      jump\t// out\n        /* \"#utility.yul\":4714:5133   */\n    tag_59:\n      0x00\n        /* \"#utility.yul\":4918:4920   */\n      0x20\n        /* \"#utility.yul\":4907:4916   */\n      dup3\n        /* \"#utility.yul\":4903:4921   */\n      add\n        /* \"#utility.yul\":4895:4921   */\n      swap1\n      pop\n        /* \"#utility.yul\":4967:4976   */\n      dup2\n        /* \"#utility.yul\":4961:4965   */\n      dup2\n        /* \"#utility.yul\":4957:4977   */\n      sub\n        /* \"#utility.yul\":4953:4954   */\n      0x00\n        /* \"#utility.yul\":4942:4951   */\n      dup4\n        /* \"#utility.yul\":4938:4955   */\n      add\n        /* \"#utility.yul\":4931:4978   */\n      mstore\n        /* \"#utility.yul\":4995:5126   */\n      tag_115\n        /* \"#utility.yul\":5121:5125   */\n      dup2\n        /* \"#utility.yul\":4995:5126   */\n      tag_95\n      jump\t// in\n    tag_115:\n        /* \"#utility.yul\":4987:5126   */\n      swap1\n      pop\n        /* \"#utility.yul\":4885:5133   */\n      swap2\n      swap1\n      pop\n      jump\t// out\n        /* \"#utility.yul\":5139:5558   */\n    tag_36:\n      0x00\n        /* \"#utility.yul\":5343:5345   */\n      0x20\n        /* \"#utility.yul\":5332:5341   */\n      dup3\n        /* \"#utility.yul\":5328:5346   */\n      add\n        /* \"#utility.yul\":5320:5346   */\n      swap1\n      pop\n        /* \"#utility.yul\":5392:5401   */\n      dup2\n        /* \"#utility.yul\":5386:5390   */\n      dup2\n        /* \"#utility.yul\":5382:5402   */\n      sub\n        /* \"#utility.yul\":5378:5379   */\n      0x00\n        /* \"#utility.yul\":5367:5376   */\n      dup4\n        /* \"#utility.yul\":5363:5380   */\n      add\n        /* \"#utility.yul\":5356:5403   */\n      mstore\n        /* \"#utility.yul\":5420:5551   */\n      tag_117\n        /* \"#utility.yul\":5546:5550   */\n      dup2\n        /* \"#utility.yul\":5420:5551   */\n      tag_98\n      jump\t// in\n    tag_117:\n        /* \"#utility.yul\":5412:5551   */\n      swap1\n      pop\n        /* \"#utility.yul\":5310:5558   */\n      swap2\n      swap1\n      pop\n      jump\t// out\n        /* \"#utility.yul\":5564:5983   */\n    tag_28:\n      0x00\n        /* \"#utility.yul\":5768:5770   */\n      0x20\n        /* \"#utility.yul\":5757:5766   */\n      dup3\n        /* \"#utility.yul\":5753:5771   */\n      add\n        /* \"#utility.yul\":5745:5771   */\n      swap1\n      pop\n        /* \"#utility.yul\":5817:5826   */\n      dup2\n        /* \"#utility.yul\":5811:5815   */\n      dup2\n        /* \"#utility.yul\":5807:5827   */\n      sub\n        /* \"#utility.yul\":5803:5804   */\n      0x00\n        /* \"#utility.yul\":5792:5801   */\n      dup4\n        /* \"#utility.yul\":5788:5805   */\n      add\n        /* \"#utility.yul\":5781:5828   */\n      mstore\n        /* \"#utility.yul\":5845:5976   */\n      tag_119\n        /* \"#utility.yul\":5971:5975   */\n      dup2\n        /* \"#utility.yul\":5845:5976   */\n      tag_101\n      jump\t// in\n    tag_119:\n        /* \"#utility.yul\":5837:5976   */\n      swap1\n      pop\n        /* \"#utility.yul\":5735:5983   */\n      swap2\n      swap1\n      pop\n      jump\t// out\n        /* \"#utility.yul\":5989:6121   */\n    tag_81:\n      0x00\n        /* \"#utility.yul\":6079:6082   */\n      dup2\n        /* \"#utility.yul\":6071:6082   */\n      swap1\n      pop\n        /* \"#utility.yul\":6109:6113   */\n      0x20\n        /* \"#utility.yul\":6104:6107   */\n      dup3\n        /* \"#utility.yul\":6100:6114   */\n      add\n        /* \"#utility.yul\":6092:6114   */\n      swap1\n      pop\n        /* \"#utility.yul\":6061:6121   */\n      swap2\n      swap1\n      pop\n      jump\t// out\n        /* \"#utility.yul\":6127:6241   */\n    tag_77:\n      0x00\n        /* \"#utility.yul\":6228:6233   */\n      dup2\n        /* \"#utility.yul\":6222:6234   */\n      mload\n        /* \"#utility.yul\":6212:6234   */\n      swap1\n      pop\n        /* \"#utility.yul\":6201:6241   */\n      swap2\n      swap1\n      pop\n      jump\t// out\n        /* \"#utility.yul\":6247:6360   */\n    tag_87:\n      0x00\n        /* \"#utility.yul\":6349:6353   */\n      0x20\n        /* \"#utility.yul\":6344:6347   */\n      dup3\n        /* \"#utility.yul\":6340:6354   */\n      add\n        /* \"#utility.yul\":6332:6354   */\n      swap1\n      pop\n        /* \"#utility.yul\":6322:6360   */\n      swap2\n      swap1\n      pop\n      jump\t// out\n        /* \"#utility.yul\":6366:6550   */\n    tag_79:\n      0x00\n        /* \"#utility.yul\":6499:6505   */\n      dup3\n        /* \"#utility.yul\":6494:6497   */\n      dup3\n        /* \"#utility.yul\":6487:6506   */\n      mstore\n        /* \"#utility.yul\":6539:6543   */\n      0x20\n        /* \"#utility.yul\":6534:6537   */\n      dup3\n        /* \"#utility.yul\":6530:6544   */\n      add\n        /* \"#utility.yul\":6515:6544   */\n      swap1\n      pop\n        /* \"#utility.yul\":6477:6550   */\n      swap3\n      swap2\n      pop\n      pop\n      jump\t// out\n        /* \"#utility.yul\":6556:6725   */\n    tag_91:\n      0x00\n        /* \"#utility.yul\":6674:6680   */\n      dup3\n        /* \"#utility.yul\":6669:6672   */\n      dup3\n        /* \"#utility.yul\":6662:6681   */\n      mstore\n        /* \"#utility.yul\":6714:6718   */\n      0x20\n        /* \"#utility.yul\":6709:6712   */\n      dup3\n        /* \"#utility.yul\":6705:6719   */\n      add\n        /* \"#utility.yul\":6690:6719   */\n      swap1\n      pop\n        /* \"#utility.yul\":6652:6725   */\n      swap3\n      swap2\n      pop\n      pop\n      jump\t// out\n        /* \"#utility.yul\":6731:6922   */\n    tag_38:\n      0x00\n        /* \"#utility.yul\":6791:6811   */\n      tag_126\n        /* \"#utility.yul\":6809:6810   */\n      dup3\n        /* \"#utility.yul\":6791:6811   */\n      tag_106\n      jump\t// in\n    tag_126:\n        /* \"#utility.yul\":6786:6811   */\n      swap2\n      pop\n        /* \"#utility.yul\":6825:6845   */\n      tag_127\n        /* \"#utility.yul\":6843:6844   */\n      dup4\n        /* \"#utility.yul\":6825:6845   */\n      tag_106\n      jump\t// in\n    tag_127:\n        /* \"#utility.yul\":6820:6845   */\n      swap3\n      pop\n        /* \"#utility.yul\":6864:6865   */\n      dup3\n        /* \"#utility.yul\":6861:6862   */\n      dup3\n        /* \"#utility.yul\":6858:6866   */\n      lt\n        /* \"#utility.yul\":6855:6857   */\n      iszero\n      tag_128\n      jumpi\n        /* \"#utility.yul\":6869:6887   */\n      tag_129\n      tag_130\n      jump\t// in\n    tag_129:\n        /* \"#utility.yul\":6855:6857   */\n    tag_128:\n        /* \"#utility.yul\":6914:6915   */\n      dup3\n        /* \"#utility.yul\":6911:6912   */\n      dup3\n        /* \"#utility.yul\":6907:6916   */\n      sub\n        /* \"#utility.yul\":6899:6916   */\n      swap1\n      pop\n        /* \"#utility.yul\":6776:6922   */\n      swap3\n      swap2\n      pop\n      pop\n      jump\t// out\n        /* \"#utility.yul\":6928:7005   */\n    tag_106:\n      0x00\n        /* \"#utility.yul\":6994:6999   */\n      dup2\n        /* \"#utility.yul\":6983:6999   */\n      swap1\n      pop\n        /* \"#utility.yul\":6973:7005   */\n      swap2\n      swap1\n      pop\n      jump\t// out\n        /* \"#utility.yul\":7011:7244   */\n    tag_50:\n      0x00\n        /* \"#utility.yul\":7073:7097   */\n      tag_133\n        /* \"#utility.yul\":7091:7096   */\n      dup3\n        /* \"#utility.yul\":7073:7097   */\n      tag_106\n      jump\t// in\n    tag_133:\n        /* \"#utility.yul\":7064:7097   */\n      swap2\n      pop\n        /* \"#utility.yul\":7119:7185   */\n      0xffffffffffffffffffffffffffffffffffffffffffffffffffffffffffffffff\n        /* \"#utility.yul\":7112:7117   */\n      dup3\n        /* \"#utility.yul\":7109:7186   */\n      eq\n        /* \"#utility.yul\":7106:7108   */\n      iszero\n      tag_134\n      jumpi\n        /* \"#utility.yul\":7189:7207   */\n      tag_135\n      tag_130\n      jump\t// in\n    tag_135:\n        /* \"#utility.yul\":7106:7108   */\n    tag_134:\n        /* \"#utility.yul\":7236:7237   */\n      0x01\n        /* \"#utility.yul\":7229:7234   */\n      dup3\n        /* \"#utility.yul\":7225:7238   */\n      add\n        /* \"#utility.yul\":7218:7238   */\n      swap1\n      pop\n        /* \"#utility.yul\":7054:7244   */\n      swap2\n      swap1\n      pop\n      jump\t// out\n        /* \"#utility.yul\":7250:7430   */\n    tag_130:\n        /* \"#utility.yul\":7298:7375   */\n      0x4e487b7100000000000000000000000000000000000000000000000000000000\n        /* \"#utility.yul\":7295:7296   */\n      0x00\n        /* \"#utility.yul\":7288:7376   */\n      mstore\n        /* \"#utility.yul\":7395:7399   */\n      0x11\n        /* \"#utility.yul\":7392:7393   */\n      0x04\n        /* \"#utility.yul\":7385:7400   */\n      mstore\n        /* \"#utility.yul\":7419:7423   */\n      0x24\n        /* \"#utility.yul\":7416:7417   */\n      0x00\n        /* \"#utility.yul\":7409:7424   */\n      revert\n        /* \"#utility.yul\":7436:7558   */\n    tag_65:\n        /* \"#utility.yul\":7509:7533   */\n      tag_138\n        /* \"#utility.yul\":7527:7532   */\n      dup2\n        /* \"#utility.yul\":7509:7533   */\n      tag_106\n      jump\t// in\n    tag_138:\n        /* \"#utility.yul\":7502:7507   */\n      dup2\n        /* \"#utility.yul\":7499:7534   */\n      eq\n        /* \"#utility.yul\":7489:7491   */\n      tag_139\n      jumpi\n        /* \"#utility.yul\":7548:7549   */\n      0x00\n        /* \"#utility.yul\":7545:7546   */\n      dup1\n        /* \"#utility.yul\":7538:7550   */\n      revert\n        /* \"#utility.yul\":7489:7491   */\n    tag_139:\n        /* \"#utility.yul\":7479:7558   */\n      pop\n      jump\t// out\n\n    auxdata: 0xa264697066735822122058f7ec71bdf5c29f858289f3b3934b26487b41d8977f8d1364da718188a3fd8264736f6c63430008000033\n}\n",
				"bytecode": {
					"linkReferences": {},
					"object": "608060405234801561001057600080fd5b50336000806101000a81548173ffffffffffffffffffffffffffffffffffffffff021916908373ffffffffffffffffffffffffffffffffffffffff160217905550610a87806100606000396000f3fe608060405234801561001057600080fd5b506004361061004c5760003560e01c806331f45cab1461005157806353b628661461006d5780637253d6a0146100895780638b692479146100a8575b600080fd5b61006b60048036038101906100669190610662565b6100c4565b005b61008760048036038101906100829190610662565b610224565b005b610091610353565b60405161009f929190610863565b60405180910390f35b6100c260048036038101906100bd9190610662565b6104ed565b005b3373ffffffffffffffffffffffffffffffffffffffff1660008054906101000a900473ffffffffffffffffffffffffffffffffffffffff1673ffffffffffffffffffffffffffffffffffffffff1614610152576040517f08c379a00000000000000000000000000000000000000000000000000000000081526004016101499061089a565b60405180910390fd5b6003600083815260200190815260200160002060009054906101000a900460ff16156101b3576040517f08c379a00000000000000000000000000000000000000000000000000000000081526004016101aa9061091a565b60405180910390fd5b600182908060018154018082558091505060019003906000526020600020016000909190919091505580600260008481526020019081526020016000208190555060016003600084815260200190815260200160002060006101000a81548160ff0219169083151502179055505050565b6003600083815260200190815260200160002060009054906101000a900460ff16610284576040517f08c379a000000000000000000000000000000000000000000000000000000000815260040161027b906108ba565b60405180910390fd5b80600260008481526020019081526020016000205410156102da576040517f08c379a00000000000000000000000000000000000000000000000000000000081526004016102d1906108fa565b60405180910390fd5b806002600084815260200190815260200160002060008282546102fd9190610984565b9250508190555060006002600084815260200190815260200160002054101561034f577f4e487b7100000000000000000000000000000000000000000000000000000000600052600160045260246000fd5b5050565b606080600060018054905067ffffffffffffffff81111561039d577f4e487b7100000000000000000000000000000000000000000000000000000000600052604160045260246000fd5b6040519080825280602002602001820160405280156103cb5781602001602082028036833780820191505090505b50905060005b60018054905081101561048e57600260006001838154811061041c577f4e487b7100000000000000000000000000000000000000000000000000000000600052603260045260246000fd5b906000526020600020015481526020019081526020016000205482828151811061046f577f4e487b7100000000000000000000000000000000000000000000000000000000600052603260045260246000fd5b6020026020010181815250508080610486906109c2565b9150506103d1565b50600181818054806020026020016040519081016040528092919081815260200182805480156104dd57602002820191906000526020600020905b8154815260200190600101908083116104c9575b5050505050915092509250509091565b3373ffffffffffffffffffffffffffffffffffffffff1660008054906101000a900473ffffffffffffffffffffffffffffffffffffffff1673ffffffffffffffffffffffffffffffffffffffff161461057b576040517f08c379a00000000000000000000000000000000000000000000000000000000081526004016105729061089a565b60405180910390fd5b6003600083815260200190815260200160002060009054906101000a900460ff16156105dc576040517f08c379a00000000000000000000000000000000000000000000000000000000081526004016105d3906108da565b60405180910390fd5b600182908060018154018082558091505060019003906000526020600020016000909190919091505580600260008481526020019081526020016000208190555060016003600084815260200190815260200160002060006101000a81548160ff0219169083151502179055505050565b60008135905061065c81610a3a565b92915050565b6000806040838503121561067557600080fd5b60006106838582860161064d565b92505060206106948582860161064d565b9150509250929050565b60006106aa8383610854565b60208301905092915050565b60006106c18261094a565b6106cb8185610962565b93506106d68361093a565b8060005b838110156107075781516106ee888261069e565b97506106f983610955565b9250506001810190506106da565b5085935050505092915050565b6000610721600d83610973565b91507f4163636573732044656e696564000000000000000000000000000000000000006000830152602082019050919050565b6000610761600a83610973565b91507f496e76616c6964204964000000000000000000000000000000000000000000006000830152602082019050919050565b60006107a1601083610973565b91507f496420616c7265616479206578697374000000000000000000000000000000006000830152602082019050919050565b60006107e1601083610973565b91507f496e76616c6964207175616e74697479000000000000000000000000000000006000830152602082019050919050565b6000610821601183610973565b91507f496420646f6573206e6f742065786973740000000000000000000000000000006000830152602082019050919050565b61085d816109b8565b82525050565b6000604082019050818103600083015261087d81856106b6565b9050818103602083015261089181846106b6565b90509392505050565b600060208201905081810360008301526108b381610714565b9050919050565b600060208201905081810360008301526108d381610754565b9050919050565b600060208201905081810360008301526108f381610794565b9050919050565b60006020820190508181036000830152610913816107d4565b9050919050565b6000602082019050818103600083015261093381610814565b9050919050565b6000819050602082019050919050565b600081519050919050565b6000602082019050919050565b600082825260208201905092915050565b600082825260208201905092915050565b600061098f826109b8565b915061099a836109b8565b9250828210156109ad576109ac610a0b565b5b828203905092915050565b6000819050919050565b60006109cd826109b8565b91507fffffffffffffffffffffffffffffffffffffffffffffffffffffffffffffffff821415610a00576109ff610a0b565b5b600182019050919050565b7f4e487b7100000000000000000000000000000000000000000000000000000000600052601160045260246000fd5b610a43816109b8565b8114610a4e57600080fd5b5056fea264697066735822122058f7ec71bdf5c29f858289f3b3934b26487b41d8977f8d1364da718188a3fd8264736f6c63430008000033",
					"opcodes": "PUSH1 0x80 PUSH1 0x40 MSTORE CALLVALUE DUP1 ISZERO PUSH2 0x10 JUMPI PUSH1 0x0 DUP1 REVERT JUMPDEST POP CALLER PUSH1 0x0 DUP1 PUSH2 0x100 EXP DUP2 SLOAD DUP2 PUSH20 0xFFFFFFFFFFFFFFFFFFFFFFFFFFFFFFFFFFFFFFFF MUL NOT AND SWAP1 DUP4 PUSH20 0xFFFFFFFFFFFFFFFFFFFFFFFFFFFFFFFFFFFFFFFF AND MUL OR SWAP1 SSTORE POP PUSH2 0xA87 DUP1 PUSH2 0x60 PUSH1 0x0 CODECOPY PUSH1 0x0 RETURN INVALID PUSH1 0x80 PUSH1 0x40 MSTORE CALLVALUE DUP1 ISZERO PUSH2 0x10 JUMPI PUSH1 0x0 DUP1 REVERT JUMPDEST POP PUSH1 0x4 CALLDATASIZE LT PUSH2 0x4C JUMPI PUSH1 0x0 CALLDATALOAD PUSH1 0xE0 SHR DUP1 PUSH4 0x31F45CAB EQ PUSH2 0x51 JUMPI DUP1 PUSH4 0x53B62866 EQ PUSH2 0x6D JUMPI DUP1 PUSH4 0x7253D6A0 EQ PUSH2 0x89 JUMPI DUP1 PUSH4 0x8B692479 EQ PUSH2 0xA8 JUMPI JUMPDEST PUSH1 0x0 DUP1 REVERT JUMPDEST PUSH2 0x6B PUSH1 0x4 DUP1 CALLDATASIZE SUB DUP2 ADD SWAP1 PUSH2 0x66 SWAP2 SWAP1 PUSH2 0x662 JUMP JUMPDEST PUSH2 0xC4 JUMP JUMPDEST STOP JUMPDEST PUSH2 0x87 PUSH1 0x4 DUP1 CALLDATASIZE SUB DUP2 ADD SWAP1 PUSH2 0x82 SWAP2 SWAP1 PUSH2 0x662 JUMP JUMPDEST PUSH2 0x224 JUMP JUMPDEST STOP JUMPDEST PUSH2 0x91 PUSH2 0x353 JUMP JUMPDEST PUSH1 0x40 MLOAD PUSH2 0x9F SWAP3 SWAP2 SWAP1 PUSH2 0x863 JUMP JUMPDEST PUSH1 0x40 MLOAD DUP1 SWAP2 SUB SWAP1 RETURN JUMPDEST PUSH2 0xC2 PUSH1 0x4 DUP1 CALLDATASIZE SUB DUP2 ADD SWAP1 PUSH2 0xBD SWAP2 SWAP1 PUSH2 0x662 JUMP JUMPDEST PUSH2 0x4ED JUMP JUMPDEST STOP JUMPDEST CALLER PUSH20 0xFFFFFFFFFFFFFFFFFFFFFFFFFFFFFFFFFFFFFFFF AND PUSH1 0x0 DUP1 SLOAD SWAP1 PUSH2 0x100 EXP SWAP1 DIV PUSH20 0xFFFFFFFFFFFFFFFFFFFFFFFFFFFFFFFFFFFFFFFF AND PUSH20 0xFFFFFFFFFFFFFFFFFFFFFFFFFFFFFFFFFFFFFFFF AND EQ PUSH2 0x152 JUMPI PUSH1 0x40 MLOAD PUSH32 0x8C379A000000000000000000000000000000000000000000000000000000000 DUP2 MSTORE PUSH1 0x4 ADD PUSH2 0x149 SWAP1 PUSH2 0x89A JUMP JUMPDEST PUSH1 0x40 MLOAD DUP1 SWAP2 SUB SWAP1 REVERT JUMPDEST PUSH1 0x3 PUSH1 0x0 DUP4 DUP2 MSTORE PUSH1 0x20 ADD SWAP1 DUP2 MSTORE PUSH1 0x20 ADD PUSH1 0x0 KECCAK256 PUSH1 0x0 SWAP1 SLOAD SWAP1 PUSH2 0x100 EXP SWAP1 DIV PUSH1 0xFF AND ISZERO PUSH2 0x1B3 JUMPI PUSH1 0x40 MLOAD PUSH32 0x8C379A000000000000000000000000000000000000000000000000000000000 DUP2 MSTORE PUSH1 0x4 ADD PUSH2 0x1AA SWAP1 PUSH2 0x91A JUMP JUMPDEST PUSH1 0x40 MLOAD DUP1 SWAP2 SUB SWAP1 REVERT JUMPDEST PUSH1 0x1 DUP3 SWAP1 DUP1 PUSH1 0x1 DUP2 SLOAD ADD DUP1 DUP3 SSTORE DUP1 SWAP2 POP POP PUSH1 0x1 SWAP1 SUB SWAP1 PUSH1 0x0 MSTORE PUSH1 0x20 PUSH1 0x0 KECCAK256 ADD PUSH1 0x0 SWAP1 SWAP2 SWAP1 SWAP2 SWAP1 SWAP2 POP SSTORE DUP1 PUSH1 0x2 PUSH1 0x0 DUP5 DUP2 MSTORE PUSH1 0x20 ADD SWAP1 DUP2 MSTORE PUSH1 0x20 ADD PUSH1 0x0 KECCAK256 DUP2 SWAP1 SSTORE POP PUSH1 0x1 PUSH1 0x3 PUSH1 0x0 DUP5 DUP2 MSTORE PUSH1 0x20 ADD SWAP1 DUP2 MSTORE PUSH1 0x20 ADD PUSH1 0x0 KECCAK256 PUSH1 0x0 PUSH2 0x100 EXP DUP2 SLOAD DUP2 PUSH1 0xFF MUL NOT AND SWAP1 DUP4 ISZERO ISZERO MUL OR SWAP1 SSTORE POP POP POP JUMP JUMPDEST PUSH1 0x3 PUSH1 0x0 DUP4 DUP2 MSTORE PUSH1 0x20 ADD SWAP1 DUP2 MSTORE PUSH1 0x20 ADD PUSH1 0x0 KECCAK256 PUSH1 0x0 SWAP1 SLOAD SWAP1 PUSH2 0x100 EXP SWAP1 DIV PUSH1 0xFF AND PUSH2 0x284 JUMPI PUSH1 0x40 MLOAD PUSH32 0x8C379A000000000000000000000000000000000000000000000000000000000 DUP2 MSTORE PUSH1 0x4 ADD PUSH2 0x27B SWAP1 PUSH2 0x8BA JUMP JUMPDEST PUSH1 0x40 MLOAD DUP1 SWAP2 SUB SWAP1 REVERT JUMPDEST DUP1 PUSH1 0x2 PUSH1 0x0 DUP5 DUP2 MSTORE PUSH1 0x20 ADD SWAP1 DUP2 MSTORE PUSH1 0x20 ADD PUSH1 0x0 KECCAK256 SLOAD LT ISZERO PUSH2 0x2DA JUMPI PUSH1 0x40 MLOAD PUSH32 0x8C379A000000000000000000000000000000000000000000000000000000000 DUP2 MSTORE PUSH1 0x4 ADD PUSH2 0x2D1 SWAP1 PUSH2 0x8FA JUMP JUMPDEST PUSH1 0x40 MLOAD DUP1 SWAP2 SUB SWAP1 REVERT JUMPDEST DUP1 PUSH1 0x2 PUSH1 0x0 DUP5 DUP2 MSTORE PUSH1 0x20 ADD SWAP1 DUP2 MSTORE PUSH1 0x20 ADD PUSH1 0x0 KECCAK256 PUSH1 0x0 DUP3 DUP3 SLOAD PUSH2 0x2FD SWAP2 SWAP1 PUSH2 0x984 JUMP JUMPDEST SWAP3 POP POP DUP2 SWAP1 SSTORE POP PUSH1 0x0 PUSH1 0x2 PUSH1 0x0 DUP5 DUP2 MSTORE PUSH1 0x20 ADD SWAP1 DUP2 MSTORE PUSH1 0x20 ADD PUSH1 0x0 KECCAK256 SLOAD LT ISZERO PUSH2 0x34F JUMPI PUSH32 0x4E487B7100000000000000000000000000000000000000000000000000000000 PUSH1 0x0 MSTORE PUSH1 0x1 PUSH1 0x4 MSTORE PUSH1 0x24 PUSH1 0x0 REVERT JUMPDEST POP POP JUMP JUMPDEST PUSH1 0x60 DUP1 PUSH1 0x0 PUSH1 0x1 DUP1 SLOAD SWAP1 POP PUSH8 0xFFFFFFFFFFFFFFFF DUP2 GT ISZERO PUSH2 0x39D JUMPI PUSH32 0x4E487B7100000000000000000000000000000000000000000000000000000000 PUSH1 0x0 MSTORE PUSH1 0x41 PUSH1 0x4 MSTORE PUSH1 0x24 PUSH1 0x0 REVERT JUMPDEST PUSH1 0x40 MLOAD SWAP1 DUP1 DUP3 MSTORE DUP1 PUSH1 0x20 MUL PUSH1 0x20 ADD DUP3 ADD PUSH1 0x40 MSTORE DUP1 ISZERO PUSH2 0x3CB JUMPI DUP2 PUSH1 0x20 ADD PUSH1 0x20 DUP3 MUL DUP1 CALLDATASIZE DUP4 CALLDATACOPY DUP1 DUP3 ADD SWAP2 POP POP SWAP1 POP JUMPDEST POP SWAP1 POP PUSH1 0x0 JUMPDEST PUSH1 0x1 DUP1 SLOAD SWAP1 POP DUP2 LT ISZERO PUSH2 0x48E JUMPI PUSH1 0x2 PUSH1 0x0 PUSH1 0x1 DUP4 DUP2 SLOAD DUP2 LT PUSH2 0x41C JUMPI PUSH32 0x4E487B7100000000000000000000000000000000000000000000000000000000 PUSH1 0x0 MSTORE PUSH1 0x32 PUSH1 0x4 MSTORE PUSH1 0x24 PUSH1 0x0 REVERT JUMPDEST SWAP1 PUSH1 0x0 MSTORE PUSH1 0x20 PUSH1 0x0 KECCAK256 ADD SLOAD DUP2 MSTORE PUSH1 0x20 ADD SWAP1 DUP2 MSTORE PUSH1 0x20 ADD PUSH1 0x0 KECCAK256 SLOAD DUP3 DUP3 DUP2 MLOAD DUP2 LT PUSH2 0x46F JUMPI PUSH32 0x4E487B7100000000000000000000000000000000000000000000000000000000 PUSH1 0x0 MSTORE PUSH1 0x32 PUSH1 0x4 MSTORE PUSH1 0x24 PUSH1 0x0 REVERT JUMPDEST PUSH1 0x20 MUL PUSH1 0x20 ADD ADD DUP2 DUP2 MSTORE POP POP DUP1 DUP1 PUSH2 0x486 SWAP1 PUSH2 0x9C2 JUMP JUMPDEST SWAP2 POP POP PUSH2 0x3D1 JUMP JUMPDEST POP PUSH1 0x1 DUP2 DUP2 DUP1 SLOAD DUP1 PUSH1 0x20 MUL PUSH1 0x20 ADD PUSH1 0x40 MLOAD SWAP1 DUP2 ADD PUSH1 0x40 MSTORE DUP1 SWAP3 SWAP2 SWAP1 DUP2 DUP2 MSTORE PUSH1 0x20 ADD DUP3 DUP1 SLOAD DUP1 ISZERO PUSH2 0x4DD JUMPI PUSH1 0x20 MUL DUP3 ADD SWAP2 SWAP1 PUSH1 0x0 MSTORE PUSH1 0x20 PUSH1 0x0 KECCAK256 SWAP1 JUMPDEST DUP2 SLOAD DUP2 MSTORE PUSH1 0x20 ADD SWAP1 PUSH1 0x1 ADD SWAP1 DUP1 DUP4 GT PUSH2 0x4C9 JUMPI JUMPDEST POP POP POP POP POP SWAP2 POP SWAP3 POP SWAP3 POP POP SWAP1 SWAP2 JUMP JUMPDEST CALLER PUSH20 0xFFFFFFFFFFFFFFFFFFFFFFFFFFFFFFFFFFFFFFFF AND PUSH1 0x0 DUP1 SLOAD SWAP1 PUSH2 0x100 EXP SWAP1 DIV PUSH20 0xFFFFFFFFFFFFFFFFFFFFFFFFFFFFFFFFFFFFFFFF AND PUSH20 0xFFFFFFFFFFFFFFFFFFFFFFFFFFFFFFFFFFFFFFFF AND EQ PUSH2 0x57B JUMPI PUSH1 0x40 MLOAD PUSH32 0x8C379A000000000000000000000000000000000000000000000000000000000 DUP2 MSTORE PUSH1 0x4 ADD PUSH2 0x572 SWAP1 PUSH2 0x89A JUMP JUMPDEST PUSH1 0x40 MLOAD DUP1 SWAP2 SUB SWAP1 REVERT JUMPDEST PUSH1 0x3 PUSH1 0x0 DUP4 DUP2 MSTORE PUSH1 0x20 ADD SWAP1 DUP2 MSTORE PUSH1 0x20 ADD PUSH1 0x0 KECCAK256 PUSH1 0x0 SWAP1 SLOAD SWAP1 PUSH2 0x100 EXP SWAP1 DIV PUSH1 0xFF AND ISZERO PUSH2 0x5DC JUMPI PUSH1 0x40 MLOAD PUSH32 0x8C379A000000000000000000000000000000000000000000000000000000000 DUP2 MSTORE PUSH1 0x4 ADD PUSH2 0x5D3 SWAP1 PUSH2 0x8DA JUMP JUMPDEST PUSH1 0x40 MLOAD DUP1 SWAP2 SUB SWAP1 REVERT JUMPDEST PUSH1 0x1 DUP3 SWAP1 DUP1 PUSH1 0x1 DUP2 SLOAD ADD DUP1 DUP3 SSTORE DUP1 SWAP2 POP POP PUSH1 0x1 SWAP1 SUB SWAP1 PUSH1 0x0 MSTORE PUSH1 0x20 PUSH1 0x0 KECCAK256 ADD PUSH1 0x0 SWAP1 SWAP2 SWAP1 SWAP2 SWAP1 SWAP2 POP SSTORE DUP1 PUSH1 0x2 PUSH1 0x0 DUP5 DUP2 MSTORE PUSH1 0x20 ADD SWAP1 DUP2 MSTORE PUSH1 0x20 ADD PUSH1 0x0 KECCAK256 DUP2 SWAP1 SSTORE POP PUSH1 0x1 PUSH1 0x3 PUSH1 0x0 DUP5 DUP2 MSTORE PUSH1 0x20 ADD SWAP1 DUP2 MSTORE PUSH1 0x20 ADD PUSH1 0x0 KECCAK256 PUSH1 0x0 PUSH2 0x100 EXP DUP2 SLOAD DUP2 PUSH1 0xFF MUL NOT AND SWAP1 DUP4 ISZERO ISZERO MUL OR SWAP1 SSTORE POP POP POP JUMP JUMPDEST PUSH1 0x0 DUP2 CALLDATALOAD SWAP1 POP PUSH2 0x65C DUP2 PUSH2 0xA3A JUMP JUMPDEST SWAP3 SWAP2 POP POP JUMP JUMPDEST PUSH1 0x0 DUP1 PUSH1 0x40 DUP4 DUP6 SUB SLT ISZERO PUSH2 0x675 JUMPI PUSH1 0x0 DUP1 REVERT JUMPDEST PUSH1 0x0 PUSH2 0x683 DUP6 DUP3 DUP7 ADD PUSH2 0x64D JUMP JUMPDEST SWAP3 POP POP PUSH1 0x20 PUSH2 0x694 DUP6 DUP3 DUP7 ADD PUSH2 0x64D JUMP JUMPDEST SWAP2 POP POP SWAP3 POP SWAP3 SWAP1 POP JUMP JUMPDEST PUSH1 0x0 PUSH2 0x6AA DUP4 DUP4 PUSH2 0x854 JUMP JUMPDEST PUSH1 0x20 DUP4 ADD SWAP1 POP SWAP3 SWAP2 POP POP JUMP JUMPDEST PUSH1 0x0 PUSH2 0x6C1 DUP3 PUSH2 0x94A JUMP JUMPDEST PUSH2 0x6CB DUP2 DUP6 PUSH2 0x962 JUMP JUMPDEST SWAP4 POP PUSH2 0x6D6 DUP4 PUSH2 0x93A JUMP JUMPDEST DUP1 PUSH1 0x0 JUMPDEST DUP4 DUP2 LT ISZERO PUSH2 0x707 JUMPI DUP2 MLOAD PUSH2 0x6EE DUP9 DUP3 PUSH2 0x69E JUMP JUMPDEST SWAP8 POP PUSH2 0x6F9 DUP4 PUSH2 0x955 JUMP JUMPDEST SWAP3 POP POP PUSH1 0x1 DUP2 ADD SWAP1 POP PUSH2 0x6DA JUMP JUMPDEST POP DUP6 SWAP4 POP POP POP POP SWAP3 SWAP2 POP POP JUMP JUMPDEST PUSH1 0x0 PUSH2 0x721 PUSH1 0xD DUP4 PUSH2 0x973 JUMP JUMPDEST SWAP2 POP PUSH32 0x4163636573732044656E69656400000000000000000000000000000000000000 PUSH1 0x0 DUP4 ADD MSTORE PUSH1 0x20 DUP3 ADD SWAP1 POP SWAP2 SWAP1 POP JUMP JUMPDEST PUSH1 0x0 PUSH2 0x761 PUSH1 0xA DUP4 PUSH2 0x973 JUMP JUMPDEST SWAP2 POP PUSH32 0x496E76616C696420496400000000000000000000000000000000000000000000 PUSH1 0x0 DUP4 ADD MSTORE PUSH1 0x20 DUP3 ADD SWAP1 POP SWAP2 SWAP1 POP JUMP JUMPDEST PUSH1 0x0 PUSH2 0x7A1 PUSH1 0x10 DUP4 PUSH2 0x973 JUMP JUMPDEST SWAP2 POP PUSH32 0x496420616C726561647920657869737400000000000000000000000000000000 PUSH1 0x0 DUP4 ADD MSTORE PUSH1 0x20 DUP3 ADD SWAP1 POP SWAP2 SWAP1 POP JUMP JUMPDEST PUSH1 0x0 PUSH2 0x7E1 PUSH1 0x10 DUP4 PUSH2 0x973 JUMP JUMPDEST SWAP2 POP PUSH32 0x496E76616C6964207175616E7469747900000000000000000000000000000000 PUSH1 0x0 DUP4 ADD MSTORE PUSH1 0x20 DUP3 ADD SWAP1 POP SWAP2 SWAP1 POP JUMP JUMPDEST PUSH1 0x0 PUSH2 0x821 PUSH1 0x11 DUP4 PUSH2 0x973 JUMP JUMPDEST SWAP2 POP PUSH32 0x496420646F6573206E6F74206578697374000000000000000000000000000000 PUSH1 0x0 DUP4 ADD MSTORE PUSH1 0x20 DUP3 ADD SWAP1 POP SWAP2 SWAP1 POP JUMP JUMPDEST PUSH2 0x85D DUP2 PUSH2 0x9B8 JUMP JUMPDEST DUP3 MSTORE POP POP JUMP JUMPDEST PUSH1 0x0 PUSH1 0x40 DUP3 ADD SWAP1 POP DUP2 DUP2 SUB PUSH1 0x0 DUP4 ADD MSTORE PUSH2 0x87D DUP2 DUP6 PUSH2 0x6B6 JUMP JUMPDEST SWAP1 POP DUP2 DUP2 SUB PUSH1 0x20 DUP4 ADD MSTORE PUSH2 0x891 DUP2 DUP5 PUSH2 0x6B6 JUMP JUMPDEST SWAP1 POP SWAP4 SWAP3 POP POP POP JUMP JUMPDEST PUSH1 0x0 PUSH1 0x20 DUP3 ADD SWAP1 POP DUP2 DUP2 SUB PUSH1 0x0 DUP4 ADD MSTORE PUSH2 0x8B3 DUP2 PUSH2 0x714 JUMP JUMPDEST SWAP1 POP SWAP2 SWAP1 POP JUMP JUMPDEST PUSH1 0x0 PUSH1 0x20 DUP3 ADD SWAP1 POP DUP2 DUP2 SUB PUSH1 0x0 DUP4 ADD MSTORE PUSH2 0x8D3 DUP2 PUSH2 0x754 JUMP JUMPDEST SWAP1 POP SWAP2 SWAP1 POP JUMP JUMPDEST PUSH1 0x0 PUSH1 0x20 DUP3 ADD SWAP1 POP DUP2 DUP2 SUB PUSH1 0x0 DUP4 ADD MSTORE PUSH2 0x8F3 DUP2 PUSH2 0x794 JUMP JUMPDEST SWAP1 POP SWAP2 SWAP1 POP JUMP JUMPDEST PUSH1 0x0 PUSH1 0x20 DUP3 ADD SWAP1 POP DUP2 DUP2 SUB PUSH1 0x0 DUP4 ADD MSTORE PUSH2 0x913 DUP2 PUSH2 0x7D4 JUMP JUMPDEST SWAP1 POP SWAP2 SWAP1 POP JUMP JUMPDEST PUSH1 0x0 PUSH1 0x20 DUP3 ADD SWAP1 POP DUP2 DUP2 SUB PUSH1 0x0 DUP4 ADD MSTORE PUSH2 0x933 DUP2 PUSH2 0x814 JUMP JUMPDEST SWAP1 POP SWAP2 SWAP1 POP JUMP JUMPDEST PUSH1 0x0 DUP2 SWAP1 POP PUSH1 0x20 DUP3 ADD SWAP1 POP SWAP2 SWAP1 POP JUMP JUMPDEST PUSH1 0x0 DUP2 MLOAD SWAP1 POP SWAP2 SWAP1 POP JUMP JUMPDEST PUSH1 0x0 PUSH1 0x20 DUP3 ADD SWAP1 POP SWAP2 SWAP1 POP JUMP JUMPDEST PUSH1 0x0 DUP3 DUP3 MSTORE PUSH1 0x20 DUP3 ADD SWAP1 POP SWAP3 SWAP2 POP POP JUMP JUMPDEST PUSH1 0x0 DUP3 DUP3 MSTORE PUSH1 0x20 DUP3 ADD SWAP1 POP SWAP3 SWAP2 POP POP JUMP JUMPDEST PUSH1 0x0 PUSH2 0x98F DUP3 PUSH2 0x9B8 JUMP JUMPDEST SWAP2 POP PUSH2 0x99A DUP4 PUSH2 0x9B8 JUMP JUMPDEST SWAP3 POP DUP3 DUP3 LT ISZERO PUSH2 0x9AD JUMPI PUSH2 0x9AC PUSH2 0xA0B JUMP JUMPDEST JUMPDEST DUP3 DUP3 SUB SWAP1 POP SWAP3 SWAP2 POP POP JUMP JUMPDEST PUSH1 0x0 DUP2 SWAP1 POP SWAP2 SWAP1 POP JUMP JUMPDEST PUSH1 0x0 PUSH2 0x9CD DUP3 PUSH2 0x9B8 JUMP JUMPDEST SWAP2 POP PUSH32 0xFFFFFFFFFFFFFFFFFFFFFFFFFFFFFFFFFFFFFFFFFFFFFFFFFFFFFFFFFFFFFFFF DUP3 EQ ISZERO PUSH2 0xA00 JUMPI PUSH2 0x9FF PUSH2 0xA0B JUMP JUMPDEST JUMPDEST PUSH1 0x1 DUP3 ADD SWAP1 POP SWAP2 SWAP1 POP JUMP JUMPDEST PUSH32 0x4E487B7100000000000000000000000000000000000000000000000000000000 PUSH1 0x0 MSTORE PUSH1 0x11 PUSH1 0x4 MSTORE PUSH1 0x24 PUSH1 0x0 REVERT JUMPDEST PUSH2 0xA43 DUP2 PUSH2 0x9B8 JUMP JUMPDEST DUP2 EQ PUSH2 0xA4E JUMPI PUSH1 0x0 DUP1 REVERT JUMPDEST POP JUMP INVALID LOG2 PUSH5 0x6970667358 0x22 SLT KECCAK256 PC 0xF7 0xEC PUSH18 0xBDF5C29F858289F3B3934B26487B41D8977F DUP14 SGT PUSH5 0xDA718188A3 REVERT DUP3 PUSH5 0x736F6C6343 STOP ADDMOD STOP STOP CALLER "
				},
				"gasEstimates": {
					"creation": {
						"codeDepositCost": "539000",
						"executionCost": "21441",
						"totalCost": "560441"
					},
					"external": {
						"addProduct(uint256,uint256)": "infinite",
						"buyProduct(uint256,uint256)": "infinite",
						"getFullDetails()": "infinite",
						"updateProduct(uint256,uint256)": "infinite"
					}
				},
				"methodIdentifiers": {
					"addProduct(uint256,uint256)": "8b692479",
					"buyProduct(uint256,uint256)": "53b62866",
					"getFullDetails()": "7253d6a0",
					"updateProduct(uint256,uint256)": "31f45cab"
				}
			},
			"storageLayout": {
				"storage": [
					{
						"astId": 3,
						"contract": "Practice/Stock.sol:Inventory_Management",
						"label": "owner",
						"offset": 0,
						"slot": "0",
						"type": "t_address"
					},
					{
						"astId": 6,
						"contract": "Practice/Stock.sol:Inventory_Management",
						"label": "productID",
						"offset": 0,
						"slot": "1",
						"type": "t_array(t_uint256)dyn_storage"
					},
					{
						"astId": 10,
						"contract": "Practice/Stock.sol:Inventory_Management",
						"label": "product_stock",
						"offset": 0,
						"slot": "2",
						"type": "t_mapping(t_uint256,t_uint256)"
					},
					{
						"astId": 14,
						"contract": "Practice/Stock.sol:Inventory_Management",
						"label": "isExisted",
						"offset": 0,
						"slot": "3",
						"type": "t_mapping(t_uint256,t_bool)"
					}
				],
				"types": {
					"t_address": {
						"encoding": "inplace",
						"label": "address",
						"numberOfBytes": "20"
					},
					"t_array(t_uint256)dyn_storage": {
						"base": "t_uint256",
						"encoding": "dynamic_array",
						"label": "uint256[]",
						"numberOfBytes": "32"
					},
					"t_bool": {
						"encoding": "inplace",
						"label": "bool",
						"numberOfBytes": "1"
					},
					"t_mapping(t_uint256,t_bool)": {
						"encoding": "mapping",
						"key": "t_uint256",
						"label": "mapping(uint256 => bool)",
						"numberOfBytes": "32",
						"value": "t_bool"
					},
					"t_mapping(t_uint256,t_uint256)": {
						"encoding": "mapping",
						"key": "t_uint256",
						"label": "mapping(uint256 => uint256)",
						"numberOfBytes": "32",
						"value": "t_uint256"
					},
					"t_uint256": {
						"encoding": "inplace",
						"label": "uint256",
						"numberOfBytes": "32"
					}
				}
			},
			"userdoc": {
				"kind": "user",
				"methods": {},
				"version": 1
			}
		}
	}
}