{
	"Inheritence.sol": {
		"Student": {
			"abi": [
				{
					"inputs": [
						{
							"internalType": "string",
							"name": "_name",
							"type": "string"
						},
						{
							"internalType": "uint256",
							"name": "_age",
							"type": "uint256"
						}
					],
					"name": "details",
					"outputs": [],
					"stateMutability": "nonpayable",
					"type": "function"
				}
			],
			"devdoc": {
				"kind": "dev",
				"methods": {},
				"version": 1
			},
			"evm": {
				"assembly": "    /* \"Inheritence.sol\":60:230  contract Student{\r... */\n  mstore(0x40, 0x80)\n  callvalue\n  dup1\n  iszero\n  tag_1\n  jumpi\n  0x00\n  dup1\n  revert\ntag_1:\n  pop\n  dataSize(sub_0)\n  dup1\n  dataOffset(sub_0)\n  0x00\n  codecopy\n  0x00\n  return\nstop\n\nsub_0: assembly {\n        /* \"Inheritence.sol\":60:230  contract Student{\r... */\n      mstore(0x40, 0x80)\n      callvalue\n      dup1\n      iszero\n      tag_1\n      jumpi\n      0x00\n      dup1\n      revert\n    tag_1:\n      pop\n      jumpi(tag_2, lt(calldatasize, 0x04))\n      shr(0xe0, calldataload(0x00))\n      dup1\n      0xe69bfc84\n      eq\n      tag_3\n      jumpi\n    tag_2:\n      0x00\n      dup1\n      revert\n        /* \"Inheritence.sol\":118:227  function details(string memory _name, uint _age) public{\r... */\n    tag_3:\n      tag_4\n      0x04\n      dup1\n      calldatasize\n      sub\n      dup2\n      add\n      swap1\n      tag_5\n      swap2\n      swap1\n      tag_6\n      jump\t// in\n    tag_5:\n      tag_7\n      jump\t// in\n    tag_4:\n      stop\n    tag_7:\n        /* \"Inheritence.sol\":192:197  _name */\n      dup2\n        /* \"Inheritence.sol\":186:190  name */\n      0x00\n        /* \"Inheritence.sol\":186:197  name= _name */\n      swap1\n      dup1\n      mload\n      swap1\n      0x20\n      add\n      swap1\n      tag_9\n      swap3\n      swap2\n      swap1\n      tag_10\n      jump\t// in\n    tag_9:\n      pop\n        /* \"Inheritence.sol\":215:219  _age */\n      dup1\n        /* \"Inheritence.sol\":210:213  age */\n      0x01\n        /* \"Inheritence.sol\":210:219  age= _age */\n      dup2\n      swap1\n      sstore\n      pop\n        /* \"Inheritence.sol\":118:227  function details(string memory _name, uint _age) public{\r... */\n      pop\n      pop\n      jump\t// out\n    tag_10:\n      dup3\n      dup1\n      sload\n      tag_11\n      swap1\n      tag_12\n      jump\t// in\n    tag_11:\n      swap1\n      0x00\n      mstore\n      keccak256(0x00, 0x20)\n      swap1\n      0x1f\n      add\n      0x20\n      swap1\n      div\n      dup2\n      add\n      swap3\n      dup3\n      tag_14\n      jumpi\n      0x00\n      dup6\n      sstore\n      jump(tag_13)\n    tag_14:\n      dup3\n      0x1f\n      lt\n      tag_15\n      jumpi\n      dup1\n      mload\n      not(0xff)\n      and\n      dup4\n      dup1\n      add\n      or\n      dup6\n      sstore\n      jump(tag_13)\n    tag_15:\n      dup3\n      dup1\n      add\n      0x01\n      add\n      dup6\n      sstore\n      dup3\n      iszero\n      tag_13\n      jumpi\n      swap2\n      dup3\n      add\n    tag_16:\n      dup3\n      dup2\n      gt\n      iszero\n      tag_17\n      jumpi\n      dup3\n      mload\n      dup3\n      sstore\n      swap2\n      0x20\n      add\n      swap2\n      swap1\n      0x01\n      add\n      swap1\n      jump(tag_16)\n    tag_17:\n    tag_13:\n      pop\n      swap1\n      pop\n      tag_18\n      swap2\n      swap1\n      tag_19\n      jump\t// in\n    tag_18:\n      pop\n      swap1\n      jump\t// out\n    tag_19:\n    tag_20:\n      dup1\n      dup3\n      gt\n      iszero\n      tag_21\n      jumpi\n      0x00\n      dup2\n      0x00\n      swap1\n      sstore\n      pop\n      0x01\n      add\n      jump(tag_20)\n    tag_21:\n      pop\n      swap1\n      jump\t// out\n        /* \"#utility.yul\":7:351   */\n    tag_23:\n      0x00\n        /* \"#utility.yul\":110:175   */\n      tag_25\n        /* \"#utility.yul\":125:174   */\n      tag_26\n        /* \"#utility.yul\":167:173   */\n      dup5\n        /* \"#utility.yul\":125:174   */\n      tag_27\n      jump\t// in\n    tag_26:\n        /* \"#utility.yul\":110:175   */\n      tag_28\n      jump\t// in\n    tag_25:\n        /* \"#utility.yul\":101:175   */\n      swap1\n      pop\n        /* \"#utility.yul\":198:204   */\n      dup3\n        /* \"#utility.yul\":191:196   */\n      dup2\n        /* \"#utility.yul\":184:205   */\n      mstore\n        /* \"#utility.yul\":236:240   */\n      0x20\n        /* \"#utility.yul\":229:234   */\n      dup2\n        /* \"#utility.yul\":225:241   */\n      add\n        /* \"#utility.yul\":274:277   */\n      dup5\n        /* \"#utility.yul\":265:271   */\n      dup5\n        /* \"#utility.yul\":260:263   */\n      dup5\n        /* \"#utility.yul\":256:272   */\n      add\n        /* \"#utility.yul\":253:278   */\n      gt\n        /* \"#utility.yul\":250:252   */\n      iszero\n      tag_29\n      jumpi\n        /* \"#utility.yul\":291:292   */\n      0x00\n        /* \"#utility.yul\":288:289   */\n      dup1\n        /* \"#utility.yul\":281:293   */\n      revert\n        /* \"#utility.yul\":250:252   */\n    tag_29:\n        /* \"#utility.yul\":304:345   */\n      tag_30\n        /* \"#utility.yul\":338:344   */\n      dup5\n        /* \"#utility.yul\":333:336   */\n      dup3\n        /* \"#utility.yul\":328:331   */\n      dup6\n        /* \"#utility.yul\":304:345   */\n      tag_31\n      jump\t// in\n    tag_30:\n        /* \"#utility.yul\":91:351   */\n      pop\n      swap4\n      swap3\n      pop\n      pop\n      pop\n      jump\t// out\n        /* \"#utility.yul\":371:644   */\n    tag_32:\n      0x00\n        /* \"#utility.yul\":476:479   */\n      dup3\n        /* \"#utility.yul\":469:473   */\n      0x1f\n        /* \"#utility.yul\":461:467   */\n      dup4\n        /* \"#utility.yul\":457:474   */\n      add\n        /* \"#utility.yul\":453:480   */\n      slt\n        /* \"#utility.yul\":443:445   */\n      tag_34\n      jumpi\n        /* \"#utility.yul\":494:495   */\n      0x00\n        /* \"#utility.yul\":491:492   */\n      dup1\n        /* \"#utility.yul\":484:496   */\n      revert\n        /* \"#utility.yul\":443:445   */\n    tag_34:\n        /* \"#utility.yul\":534:540   */\n      dup2\n        /* \"#utility.yul\":521:541   */\n      calldataload\n        /* \"#utility.yul\":559:638   */\n      tag_35\n        /* \"#utility.yul\":634:637   */\n      dup5\n        /* \"#utility.yul\":626:632   */\n      dup3\n        /* \"#utility.yul\":619:623   */\n      0x20\n        /* \"#utility.yul\":611:617   */\n      dup7\n        /* \"#utility.yul\":607:624   */\n      add\n        /* \"#utility.yul\":559:638   */\n      tag_23\n      jump\t// in\n    tag_35:\n        /* \"#utility.yul\":550:638   */\n      swap2\n      pop\n        /* \"#utility.yul\":433:644   */\n      pop\n      swap3\n      swap2\n      pop\n      pop\n      jump\t// out\n        /* \"#utility.yul\":650:789   */\n    tag_36:\n      0x00\n        /* \"#utility.yul\":734:740   */\n      dup2\n        /* \"#utility.yul\":721:741   */\n      calldataload\n        /* \"#utility.yul\":712:741   */\n      swap1\n      pop\n        /* \"#utility.yul\":750:783   */\n      tag_38\n        /* \"#utility.yul\":777:782   */\n      dup2\n        /* \"#utility.yul\":750:783   */\n      tag_39\n      jump\t// in\n    tag_38:\n        /* \"#utility.yul\":702:789   */\n      swap3\n      swap2\n      pop\n      pop\n      jump\t// out\n        /* \"#utility.yul\":795:1315   */\n    tag_6:\n      0x00\n      dup1\n        /* \"#utility.yul\":930:932   */\n      0x40\n        /* \"#utility.yul\":918:927   */\n      dup4\n        /* \"#utility.yul\":909:916   */\n      dup6\n        /* \"#utility.yul\":905:928   */\n      sub\n        /* \"#utility.yul\":901:933   */\n      slt\n        /* \"#utility.yul\":898:900   */\n      iszero\n      tag_41\n      jumpi\n        /* \"#utility.yul\":946:947   */\n      0x00\n        /* \"#utility.yul\":943:944   */\n      dup1\n        /* \"#utility.yul\":936:948   */\n      revert\n        /* \"#utility.yul\":898:900   */\n    tag_41:\n        /* \"#utility.yul\":1017:1018   */\n      0x00\n        /* \"#utility.yul\":1006:1015   */\n      dup4\n        /* \"#utility.yul\":1002:1019   */\n      add\n        /* \"#utility.yul\":989:1020   */\n      calldataload\n        /* \"#utility.yul\":1047:1065   */\n      0xffffffffffffffff\n        /* \"#utility.yul\":1039:1045   */\n      dup2\n        /* \"#utility.yul\":1036:1066   */\n      gt\n        /* \"#utility.yul\":1033:1035   */\n      iszero\n      tag_42\n      jumpi\n        /* \"#utility.yul\":1079:1080   */\n      0x00\n        /* \"#utility.yul\":1076:1077   */\n      dup1\n        /* \"#utility.yul\":1069:1081   */\n      revert\n        /* \"#utility.yul\":1033:1035   */\n    tag_42:\n        /* \"#utility.yul\":1107:1170   */\n      tag_43\n        /* \"#utility.yul\":1162:1169   */\n      dup6\n        /* \"#utility.yul\":1153:1159   */\n      dup3\n        /* \"#utility.yul\":1142:1151   */\n      dup7\n        /* \"#utility.yul\":1138:1160   */\n      add\n        /* \"#utility.yul\":1107:1170   */\n      tag_32\n      jump\t// in\n    tag_43:\n        /* \"#utility.yul\":1097:1170   */\n      swap3\n      pop\n        /* \"#utility.yul\":960:1180   */\n      pop\n        /* \"#utility.yul\":1219:1221   */\n      0x20\n        /* \"#utility.yul\":1245:1298   */\n      tag_44\n        /* \"#utility.yul\":1290:1297   */\n      dup6\n        /* \"#utility.yul\":1281:1287   */\n      dup3\n        /* \"#utility.yul\":1270:1279   */\n      dup7\n        /* \"#utility.yul\":1266:1288   */\n      add\n        /* \"#utility.yul\":1245:1298   */\n      tag_36\n      jump\t// in\n    tag_44:\n        /* \"#utility.yul\":1235:1298   */\n      swap2\n      pop\n        /* \"#utility.yul\":1190:1308   */\n      pop\n        /* \"#utility.yul\":888:1315   */\n      swap3\n      pop\n      swap3\n      swap1\n      pop\n      jump\t// out\n        /* \"#utility.yul\":1321:1604   */\n    tag_28:\n      0x00\n        /* \"#utility.yul\":1387:1389   */\n      0x40\n        /* \"#utility.yul\":1381:1390   */\n      mload\n        /* \"#utility.yul\":1371:1390   */\n      swap1\n      pop\n        /* \"#utility.yul\":1429:1433   */\n      dup2\n        /* \"#utility.yul\":1421:1427   */\n      dup2\n        /* \"#utility.yul\":1417:1434   */\n      add\n        /* \"#utility.yul\":1536:1542   */\n      dup2\n        /* \"#utility.yul\":1524:1534   */\n      dup2\n        /* \"#utility.yul\":1521:1543   */\n      lt\n        /* \"#utility.yul\":1500:1518   */\n      0xffffffffffffffff\n        /* \"#utility.yul\":1488:1498   */\n      dup3\n        /* \"#utility.yul\":1485:1519   */\n      gt\n        /* \"#utility.yul\":1482:1544   */\n      or\n        /* \"#utility.yul\":1479:1481   */\n      iszero\n      tag_46\n      jumpi\n        /* \"#utility.yul\":1547:1565   */\n      tag_47\n      tag_48\n      jump\t// in\n    tag_47:\n        /* \"#utility.yul\":1479:1481   */\n    tag_46:\n        /* \"#utility.yul\":1587:1597   */\n      dup1\n        /* \"#utility.yul\":1583:1585   */\n      0x40\n        /* \"#utility.yul\":1576:1598   */\n      mstore\n        /* \"#utility.yul\":1361:1604   */\n      pop\n      swap2\n      swap1\n      pop\n      jump\t// out\n        /* \"#utility.yul\":1610:1942   */\n    tag_27:\n      0x00\n        /* \"#utility.yul\":1762:1780   */\n      0xffffffffffffffff\n        /* \"#utility.yul\":1754:1760   */\n      dup3\n        /* \"#utility.yul\":1751:1781   */\n      gt\n        /* \"#utility.yul\":1748:1750   */\n      iszero\n      tag_50\n      jumpi\n        /* \"#utility.yul\":1784:1802   */\n      tag_51\n      tag_48\n      jump\t// in\n    tag_51:\n        /* \"#utility.yul\":1748:1750   */\n    tag_50:\n        /* \"#utility.yul\":1869:1873   */\n      0x1f\n        /* \"#utility.yul\":1865:1874   */\n      not\n        /* \"#utility.yul\":1858:1862   */\n      0x1f\n        /* \"#utility.yul\":1850:1856   */\n      dup4\n        /* \"#utility.yul\":1846:1863   */\n      add\n        /* \"#utility.yul\":1842:1875   */\n      and\n        /* \"#utility.yul\":1834:1875   */\n      swap1\n      pop\n        /* \"#utility.yul\":1930:1934   */\n      0x20\n        /* \"#utility.yul\":1924:1928   */\n      dup2\n        /* \"#utility.yul\":1920:1935   */\n      add\n        /* \"#utility.yul\":1912:1935   */\n      swap1\n      pop\n        /* \"#utility.yul\":1677:1942   */\n      swap2\n      swap1\n      pop\n      jump\t// out\n        /* \"#utility.yul\":1948:2025   */\n    tag_52:\n      0x00\n        /* \"#utility.yul\":2014:2019   */\n      dup2\n        /* \"#utility.yul\":2003:2019   */\n      swap1\n      pop\n        /* \"#utility.yul\":1993:2025   */\n      swap2\n      swap1\n      pop\n      jump\t// out\n        /* \"#utility.yul\":2031:2185   */\n    tag_31:\n        /* \"#utility.yul\":2115:2121   */\n      dup3\n        /* \"#utility.yul\":2110:2113   */\n      dup2\n        /* \"#utility.yul\":2105:2108   */\n      dup4\n        /* \"#utility.yul\":2092:2122   */\n      calldatacopy\n        /* \"#utility.yul\":2177:2178   */\n      0x00\n        /* \"#utility.yul\":2168:2174   */\n      dup4\n        /* \"#utility.yul\":2163:2166   */\n      dup4\n        /* \"#utility.yul\":2159:2175   */\n      add\n        /* \"#utility.yul\":2152:2179   */\n      mstore\n        /* \"#utility.yul\":2082:2185   */\n      pop\n      pop\n      pop\n      jump\t// out\n        /* \"#utility.yul\":2191:2511   */\n    tag_12:\n      0x00\n        /* \"#utility.yul\":2272:2273   */\n      0x02\n        /* \"#utility.yul\":2266:2270   */\n      dup3\n        /* \"#utility.yul\":2262:2274   */\n      div\n        /* \"#utility.yul\":2252:2274   */\n      swap1\n      pop\n        /* \"#utility.yul\":2319:2320   */\n      0x01\n        /* \"#utility.yul\":2313:2317   */\n      dup3\n        /* \"#utility.yul\":2309:2321   */\n      and\n        /* \"#utility.yul\":2340:2358   */\n      dup1\n        /* \"#utility.yul\":2330:2332   */\n      tag_56\n      jumpi\n        /* \"#utility.yul\":2396:2400   */\n      0x7f\n        /* \"#utility.yul\":2388:2394   */\n      dup3\n        /* \"#utility.yul\":2384:2401   */\n      and\n        /* \"#utility.yul\":2374:2401   */\n      swap2\n      pop\n        /* \"#utility.yul\":2330:2332   */\n    tag_56:\n        /* \"#utility.yul\":2458:2460   */\n      0x20\n        /* \"#utility.yul\":2450:2456   */\n      dup3\n        /* \"#utility.yul\":2447:2461   */\n      lt\n        /* \"#utility.yul\":2427:2445   */\n      dup2\n        /* \"#utility.yul\":2424:2462   */\n      eq\n        /* \"#utility.yul\":2421:2423   */\n      iszero\n      tag_57\n      jumpi\n        /* \"#utility.yul\":2477:2495   */\n      tag_58\n      tag_59\n      jump\t// in\n    tag_58:\n        /* \"#utility.yul\":2421:2423   */\n    tag_57:\n        /* \"#utility.yul\":2242:2511   */\n      pop\n      swap2\n      swap1\n      pop\n      jump\t// out\n        /* \"#utility.yul\":2517:2697   */\n    tag_59:\n        /* \"#utility.yul\":2565:2642   */\n      0x4e487b7100000000000000000000000000000000000000000000000000000000\n        /* \"#utility.yul\":2562:2563   */\n      0x00\n        /* \"#utility.yul\":2555:2643   */\n      mstore\n        /* \"#utility.yul\":2662:2666   */\n      0x22\n        /* \"#utility.yul\":2659:2660   */\n      0x04\n        /* \"#utility.yul\":2652:2667   */\n      mstore\n        /* \"#utility.yul\":2686:2690   */\n      0x24\n        /* \"#utility.yul\":2683:2684   */\n      0x00\n        /* \"#utility.yul\":2676:2691   */\n      revert\n        /* \"#utility.yul\":2703:2883   */\n    tag_48:\n        /* \"#utility.yul\":2751:2828   */\n      0x4e487b7100000000000000000000000000000000000000000000000000000000\n        /* \"#utility.yul\":2748:2749   */\n      0x00\n        /* \"#utility.yul\":2741:2829   */\n      mstore\n        /* \"#utility.yul\":2848:2852   */\n      0x41\n        /* \"#utility.yul\":2845:2846   */\n      0x04\n        /* \"#utility.yul\":2838:2853   */\n      mstore\n        /* \"#utility.yul\":2872:2876   */\n      0x24\n        /* \"#utility.yul\":2869:2870   */\n      0x00\n        /* \"#utility.yul\":2862:2877   */\n      revert\n        /* \"#utility.yul\":2889:3011   */\n    tag_39:\n        /* \"#utility.yul\":2962:2986   */\n      tag_63\n        /* \"#utility.yul\":2980:2985   */\n      dup2\n        /* \"#utility.yul\":2962:2986   */\n      tag_52\n      jump\t// in\n    tag_63:\n        /* \"#utility.yul\":2955:2960   */\n      dup2\n        /* \"#utility.yul\":2952:2987   */\n      eq\n        /* \"#utility.yul\":2942:2944   */\n      tag_64\n      jumpi\n        /* \"#utility.yul\":3001:3002   */\n      0x00\n        /* \"#utility.yul\":2998:2999   */\n      dup1\n        /* \"#utility.yul\":2991:3003   */\n      revert\n        /* \"#utility.yul\":2942:2944   */\n    tag_64:\n        /* \"#utility.yul\":2932:3011   */\n      pop\n      jump\t// out\n\n    auxdata: 0xa2646970667358221220140f88e9c6e17d10f6444e70578dd327e3f10d6f31bf3c7c4bf8c35d9e06541f64736f6c63430008000033\n}\n",
				"bytecode": {
					"linkReferences": {},
					"object": "608060405234801561001057600080fd5b50610339806100206000396000f3fe608060405234801561001057600080fd5b506004361061002b5760003560e01c8063e69bfc8414610030575b600080fd5b61004a6004803603810190610045919061018e565b61004c565b005b816000908051906020019061006292919061006e565b50806001819055505050565b82805461007a9061025c565b90600052602060002090601f01602090048101928261009c57600085556100e3565b82601f106100b557805160ff19168380011785556100e3565b828001600101855582156100e3579182015b828111156100e25782518255916020019190600101906100c7565b5b5090506100f091906100f4565b5090565b5b8082111561010d5760008160009055506001016100f5565b5090565b600061012461011f84610213565b6101e2565b90508281526020810184848401111561013c57600080fd5b61014784828561024d565b509392505050565b600082601f83011261016057600080fd5b8135610170848260208601610111565b91505092915050565b600081359050610188816102ec565b92915050565b600080604083850312156101a157600080fd5b600083013567ffffffffffffffff8111156101bb57600080fd5b6101c78582860161014f565b92505060206101d885828601610179565b9150509250929050565b6000604051905081810181811067ffffffffffffffff82111715610209576102086102bd565b5b8060405250919050565b600067ffffffffffffffff82111561022e5761022d6102bd565b5b601f19601f8301169050602081019050919050565b6000819050919050565b82818337600083830152505050565b6000600282049050600182168061027457607f821691505b602082108114156102885761028761028e565b5b50919050565b7f4e487b7100000000000000000000000000000000000000000000000000000000600052602260045260246000fd5b7f4e487b7100000000000000000000000000000000000000000000000000000000600052604160045260246000fd5b6102f581610243565b811461030057600080fd5b5056fea2646970667358221220140f88e9c6e17d10f6444e70578dd327e3f10d6f31bf3c7c4bf8c35d9e06541f64736f6c63430008000033",
					"opcodes": "PUSH1 0x80 PUSH1 0x40 MSTORE CALLVALUE DUP1 ISZERO PUSH2 0x10 JUMPI PUSH1 0x0 DUP1 REVERT JUMPDEST POP PUSH2 0x339 DUP1 PUSH2 0x20 PUSH1 0x0 CODECOPY PUSH1 0x0 RETURN INVALID PUSH1 0x80 PUSH1 0x40 MSTORE CALLVALUE DUP1 ISZERO PUSH2 0x10 JUMPI PUSH1 0x0 DUP1 REVERT JUMPDEST POP PUSH1 0x4 CALLDATASIZE LT PUSH2 0x2B JUMPI PUSH1 0x0 CALLDATALOAD PUSH1 0xE0 SHR DUP1 PUSH4 0xE69BFC84 EQ PUSH2 0x30 JUMPI JUMPDEST PUSH1 0x0 DUP1 REVERT JUMPDEST PUSH2 0x4A PUSH1 0x4 DUP1 CALLDATASIZE SUB DUP2 ADD SWAP1 PUSH2 0x45 SWAP2 SWAP1 PUSH2 0x18E JUMP JUMPDEST PUSH2 0x4C JUMP JUMPDEST STOP JUMPDEST DUP2 PUSH1 0x0 SWAP1 DUP1 MLOAD SWAP1 PUSH1 0x20 ADD SWAP1 PUSH2 0x62 SWAP3 SWAP2 SWAP1 PUSH2 0x6E JUMP JUMPDEST POP DUP1 PUSH1 0x1 DUP2 SWAP1 SSTORE POP POP POP JUMP JUMPDEST DUP3 DUP1 SLOAD PUSH2 0x7A SWAP1 PUSH2 0x25C JUMP JUMPDEST SWAP1 PUSH1 0x0 MSTORE PUSH1 0x20 PUSH1 0x0 KECCAK256 SWAP1 PUSH1 0x1F ADD PUSH1 0x20 SWAP1 DIV DUP2 ADD SWAP3 DUP3 PUSH2 0x9C JUMPI PUSH1 0x0 DUP6 SSTORE PUSH2 0xE3 JUMP JUMPDEST DUP3 PUSH1 0x1F LT PUSH2 0xB5 JUMPI DUP1 MLOAD PUSH1 0xFF NOT AND DUP4 DUP1 ADD OR DUP6 SSTORE PUSH2 0xE3 JUMP JUMPDEST DUP3 DUP1 ADD PUSH1 0x1 ADD DUP6 SSTORE DUP3 ISZERO PUSH2 0xE3 JUMPI SWAP2 DUP3 ADD JUMPDEST DUP3 DUP2 GT ISZERO PUSH2 0xE2 JUMPI DUP3 MLOAD DUP3 SSTORE SWAP2 PUSH1 0x20 ADD SWAP2 SWAP1 PUSH1 0x1 ADD SWAP1 PUSH2 0xC7 JUMP JUMPDEST JUMPDEST POP SWAP1 POP PUSH2 0xF0 SWAP2 SWAP1 PUSH2 0xF4 JUMP JUMPDEST POP SWAP1 JUMP JUMPDEST JUMPDEST DUP1 DUP3 GT ISZERO PUSH2 0x10D JUMPI PUSH1 0x0 DUP2 PUSH1 0x0 SWAP1 SSTORE POP PUSH1 0x1 ADD PUSH2 0xF5 JUMP JUMPDEST POP SWAP1 JUMP JUMPDEST PUSH1 0x0 PUSH2 0x124 PUSH2 0x11F DUP5 PUSH2 0x213 JUMP JUMPDEST PUSH2 0x1E2 JUMP JUMPDEST SWAP1 POP DUP3 DUP2 MSTORE PUSH1 0x20 DUP2 ADD DUP5 DUP5 DUP5 ADD GT ISZERO PUSH2 0x13C JUMPI PUSH1 0x0 DUP1 REVERT JUMPDEST PUSH2 0x147 DUP5 DUP3 DUP6 PUSH2 0x24D JUMP JUMPDEST POP SWAP4 SWAP3 POP POP POP JUMP JUMPDEST PUSH1 0x0 DUP3 PUSH1 0x1F DUP4 ADD SLT PUSH2 0x160 JUMPI PUSH1 0x0 DUP1 REVERT JUMPDEST DUP2 CALLDATALOAD PUSH2 0x170 DUP5 DUP3 PUSH1 0x20 DUP7 ADD PUSH2 0x111 JUMP JUMPDEST SWAP2 POP POP SWAP3 SWAP2 POP POP JUMP JUMPDEST PUSH1 0x0 DUP2 CALLDATALOAD SWAP1 POP PUSH2 0x188 DUP2 PUSH2 0x2EC JUMP JUMPDEST SWAP3 SWAP2 POP POP JUMP JUMPDEST PUSH1 0x0 DUP1 PUSH1 0x40 DUP4 DUP6 SUB SLT ISZERO PUSH2 0x1A1 JUMPI PUSH1 0x0 DUP1 REVERT JUMPDEST PUSH1 0x0 DUP4 ADD CALLDATALOAD PUSH8 0xFFFFFFFFFFFFFFFF DUP2 GT ISZERO PUSH2 0x1BB JUMPI PUSH1 0x0 DUP1 REVERT JUMPDEST PUSH2 0x1C7 DUP6 DUP3 DUP7 ADD PUSH2 0x14F JUMP JUMPDEST SWAP3 POP POP PUSH1 0x20 PUSH2 0x1D8 DUP6 DUP3 DUP7 ADD PUSH2 0x179 JUMP JUMPDEST SWAP2 POP POP SWAP3 POP SWAP3 SWAP1 POP JUMP JUMPDEST PUSH1 0x0 PUSH1 0x40 MLOAD SWAP1 POP DUP2 DUP2 ADD DUP2 DUP2 LT PUSH8 0xFFFFFFFFFFFFFFFF DUP3 GT OR ISZERO PUSH2 0x209 JUMPI PUSH2 0x208 PUSH2 0x2BD JUMP JUMPDEST JUMPDEST DUP1 PUSH1 0x40 MSTORE POP SWAP2 SWAP1 POP JUMP JUMPDEST PUSH1 0x0 PUSH8 0xFFFFFFFFFFFFFFFF DUP3 GT ISZERO PUSH2 0x22E JUMPI PUSH2 0x22D PUSH2 0x2BD JUMP JUMPDEST JUMPDEST PUSH1 0x1F NOT PUSH1 0x1F DUP4 ADD AND SWAP1 POP PUSH1 0x20 DUP2 ADD SWAP1 POP SWAP2 SWAP1 POP JUMP JUMPDEST PUSH1 0x0 DUP2 SWAP1 POP SWAP2 SWAP1 POP JUMP JUMPDEST DUP3 DUP2 DUP4 CALLDATACOPY PUSH1 0x0 DUP4 DUP4 ADD MSTORE POP POP POP JUMP JUMPDEST PUSH1 0x0 PUSH1 0x2 DUP3 DIV SWAP1 POP PUSH1 0x1 DUP3 AND DUP1 PUSH2 0x274 JUMPI PUSH1 0x7F DUP3 AND SWAP2 POP JUMPDEST PUSH1 0x20 DUP3 LT DUP2 EQ ISZERO PUSH2 0x288 JUMPI PUSH2 0x287 PUSH2 0x28E JUMP JUMPDEST JUMPDEST POP SWAP2 SWAP1 POP JUMP JUMPDEST PUSH32 0x4E487B7100000000000000000000000000000000000000000000000000000000 PUSH1 0x0 MSTORE PUSH1 0x22 PUSH1 0x4 MSTORE PUSH1 0x24 PUSH1 0x0 REVERT JUMPDEST PUSH32 0x4E487B7100000000000000000000000000000000000000000000000000000000 PUSH1 0x0 MSTORE PUSH1 0x41 PUSH1 0x4 MSTORE PUSH1 0x24 PUSH1 0x0 REVERT JUMPDEST PUSH2 0x2F5 DUP2 PUSH2 0x243 JUMP JUMPDEST DUP2 EQ PUSH2 0x300 JUMPI PUSH1 0x0 DUP1 REVERT JUMPDEST POP JUMP INVALID LOG2 PUSH5 0x6970667358 0x22 SLT KECCAK256 EQ 0xF DUP9 0xE9 0xC6 0xE1 PUSH30 0x10F6444E70578DD327E3F10D6F31BF3C7C4BF8C35D9E06541F64736F6C63 NUMBER STOP ADDMOD STOP STOP CALLER "
				},
				"gasEstimates": {
					"creation": {
						"codeDepositCost": "165000",
						"executionCost": "208",
						"totalCost": "165208"
					},
					"external": {
						"details(string,uint256)": "infinite"
					}
				},
				"methodIdentifiers": {
					"details(string,uint256)": "e69bfc84"
				}
			},
			"storageLayout": {
				"storage": [
					{
						"astId": 3,
						"contract": "Inheritence.sol:Student",
						"label": "name",
						"offset": 0,
						"slot": "0",
						"type": "t_string_storage"
					},
					{
						"astId": 5,
						"contract": "Inheritence.sol:Student",
						"label": "age",
						"offset": 0,
						"slot": "1",
						"type": "t_uint256"
					}
				],
				"types": {
					"t_string_storage": {
						"encoding": "bytes",
						"label": "string",
						"numberOfBytes": "32"
					},
					"t_uint256": {
						"encoding": "inplace",
						"label": "uint256",
						"numberOfBytes": "32"
					}
				}
			},
			"userdoc": {
				"kind": "user",
				"methods": {},
				"version": 1
			}
		}
	}
}