{
	"learning/Orders.sol": {
		"Orders": {
			"abi": [
				{
					"inputs": [],
					"stateMutability": "nonpayable",
					"type": "constructor"
				},
				{
					"inputs": [
						{
							"internalType": "uint256",
							"name": "_id",
							"type": "uint256"
						},
						{
							"internalType": "string",
							"name": "deliveryPartner",
							"type": "string"
						}
					],
					"name": "addOrder",
					"outputs": [],
					"stateMutability": "nonpayable",
					"type": "function"
				},
				{
					"inputs": [
						{
							"internalType": "uint256",
							"name": "_id",
							"type": "uint256"
						},
						{
							"internalType": "string",
							"name": "name",
							"type": "string"
						}
					],
					"name": "addUser",
					"outputs": [],
					"stateMutability": "nonpayable",
					"type": "function"
				},
				{
					"inputs": [
						{
							"internalType": "uint256",
							"name": "",
							"type": "uint256"
						}
					],
					"name": "orders",
					"outputs": [
						{
							"internalType": "uint256",
							"name": "id",
							"type": "uint256"
						},
						{
							"internalType": "string",
							"name": "deliveryPartner",
							"type": "string"
						},
						{
							"internalType": "enum Orders.Status",
							"name": "status",
							"type": "uint8"
						}
					],
					"stateMutability": "view",
					"type": "function"
				},
				{
					"inputs": [
						{
							"internalType": "uint256",
							"name": "_id",
							"type": "uint256"
						},
						{
							"internalType": "enum Orders.Status",
							"name": "_status",
							"type": "uint8"
						}
					],
					"name": "updateOrder",
					"outputs": [],
					"stateMutability": "nonpayable",
					"type": "function"
				},
				{
					"inputs": [
						{
							"internalType": "uint256",
							"name": "",
							"type": "uint256"
						}
					],
					"name": "users",
					"outputs": [
						{
							"internalType": "uint256",
							"name": "id",
							"type": "uint256"
						},
						{
							"internalType": "string",
							"name": "name",
							"type": "string"
						},
						{
							"internalType": "address",
							"name": "wallet",
							"type": "address"
						}
					],
					"stateMutability": "view",
					"type": "function"
				}
			],
			"devdoc": {
				"kind": "dev",
				"methods": {},
				"version": 1
			},
			"evm": {
				"assembly": "    /* \"learning/Orders.sol\":60:1389  contract Orders{\r... */\n  mstore(0x40, 0x80)\n    /* \"learning/Orders.sol\":106:154  constructor(){\r... */\n  callvalue\n  dup1\n  iszero\n  tag_1\n  jumpi\n  0x00\n  dup1\n  revert\ntag_1:\n  pop\n    /* \"learning/Orders.sol\":136:146  msg.sender */\n  caller\n    /* \"learning/Orders.sol\":130:135  owner */\n  0x00\n  dup1\n    /* \"learning/Orders.sol\":130:146  owner=msg.sender */\n  0x0100\n  exp\n  dup2\n  sload\n  dup2\n  0xffffffffffffffffffffffffffffffffffffffff\n  mul\n  not\n  and\n  swap1\n  dup4\n  0xffffffffffffffffffffffffffffffffffffffff\n  and\n  mul\n  or\n  swap1\n  sstore\n  pop\n    /* \"learning/Orders.sol\":60:1389  contract Orders{\r... */\n  dataSize(sub_0)\n  dup1\n  dataOffset(sub_0)\n  0x00\n  codecopy\n  0x00\n  return\nstop\n\nsub_0: assembly {\n        /* \"learning/Orders.sol\":60:1389  contract Orders{\r... */\n      mstore(0x40, 0x80)\n      callvalue\n      dup1\n      iszero\n      tag_1\n      jumpi\n      0x00\n      dup1\n      revert\n    tag_1:\n      pop\n      jumpi(tag_2, lt(calldatasize, 0x04))\n      shr(0xe0, calldataload(0x00))\n      dup1\n      0x2b1a8e55\n      eq\n      tag_3\n      jumpi\n      dup1\n      0x365b98b2\n      eq\n      tag_4\n      jumpi\n      dup1\n      0x9108e933\n      eq\n      tag_5\n      jumpi\n      dup1\n      0xa85c38ef\n      eq\n      tag_6\n      jumpi\n      dup1\n      0xd51af2bf\n      eq\n      tag_7\n      jumpi\n    tag_2:\n      0x00\n      dup1\n      revert\n        /* \"learning/Orders.sol\":1004:1231  function addOrder(uint _id, string memory deliveryPartner) public{\r... */\n    tag_3:\n      tag_8\n      0x04\n      dup1\n      calldatasize\n      sub\n      dup2\n      add\n      swap1\n      tag_9\n      swap2\n      swap1\n      tag_10\n      jump\t// in\n    tag_9:\n      tag_11\n      jump\t// in\n    tag_8:\n      stop\n        /* \"learning/Orders.sol\":616:651  mapping (uint => User) public users */\n    tag_4:\n      tag_12\n      0x04\n      dup1\n      calldatasize\n      sub\n      dup2\n      add\n      swap1\n      tag_13\n      swap2\n      swap1\n      tag_14\n      jump\t// in\n    tag_13:\n      tag_15\n      jump\t// in\n    tag_12:\n      mload(0x40)\n      tag_16\n      swap4\n      swap3\n      swap2\n      swap1\n      tag_17\n      jump\t// in\n    tag_16:\n      mload(0x40)\n      dup1\n      swap2\n      sub\n      swap1\n      return\n        /* \"learning/Orders.sol\":1239:1384  function updateOrder(uint _id, Status _status) public checkOwner{\r... */\n    tag_5:\n      tag_18\n      0x04\n      dup1\n      calldatasize\n      sub\n      dup2\n      add\n      swap1\n      tag_19\n      swap2\n      swap1\n      tag_20\n      jump\t// in\n    tag_19:\n      tag_21\n      jump\t// in\n    tag_18:\n      stop\n        /* \"learning/Orders.sol\":435:472  mapping (uint => Order) public orders */\n    tag_6:\n      tag_22\n      0x04\n      dup1\n      calldatasize\n      sub\n      dup2\n      add\n      swap1\n      tag_23\n      swap2\n      swap1\n      tag_14\n      jump\t// in\n    tag_23:\n      tag_24\n      jump\t// in\n    tag_22:\n      mload(0x40)\n      tag_25\n      swap4\n      swap3\n      swap2\n      swap1\n      tag_26\n      jump\t// in\n    tag_25:\n      mload(0x40)\n      dup1\n      swap2\n      sub\n      swap1\n      return\n        /* \"learning/Orders.sol\":729:994  function addUser(uint _id, string memory name) public {\r... */\n    tag_7:\n      tag_27\n      0x04\n      dup1\n      calldatasize\n      sub\n      dup2\n      add\n      swap1\n      tag_28\n      swap2\n      swap1\n      tag_10\n      jump\t// in\n    tag_28:\n      tag_29\n      jump\t// in\n    tag_27:\n      stop\n        /* \"learning/Orders.sol\":1004:1231  function addOrder(uint _id, string memory deliveryPartner) public{\r... */\n    tag_11:\n        /* \"learning/Orders.sol\":1089:1098  isOrdered */\n      0x02\n        /* \"learning/Orders.sol\":1089:1103  isOrdered[_id] */\n      0x00\n        /* \"learning/Orders.sol\":1099:1102  _id */\n      dup4\n        /* \"learning/Orders.sol\":1089:1103  isOrdered[_id] */\n      dup2\n      mstore\n      0x20\n      add\n      swap1\n      dup2\n      mstore\n      0x20\n      add\n      0x00\n      keccak256\n      0x00\n      swap1\n      sload\n      swap1\n      0x0100\n      exp\n      swap1\n      div\n      0xff\n      and\n        /* \"learning/Orders.sol\":1088:1103  !isOrdered[_id] */\n      iszero\n        /* \"learning/Orders.sol\":1080:1122  require(!isOrdered[_id],\"Already Ordered\") */\n      tag_31\n      jumpi\n      mload(0x40)\n      0x08c379a000000000000000000000000000000000000000000000000000000000\n      dup2\n      mstore\n      0x04\n      add\n      tag_32\n      swap1\n      tag_33\n      jump\t// in\n    tag_32:\n      mload(0x40)\n      dup1\n      swap2\n      sub\n      swap1\n      revert\n    tag_31:\n        /* \"learning/Orders.sol\":1148:1190  Order(_id, deliveryPartner,Status.Pending) */\n      mload(0x40)\n      dup1\n      0x60\n      add\n      0x40\n      mstore\n      dup1\n        /* \"learning/Orders.sol\":1154:1157  _id */\n      dup4\n        /* \"learning/Orders.sol\":1148:1190  Order(_id, deliveryPartner,Status.Pending) */\n      dup2\n      mstore\n      0x20\n      add\n        /* \"learning/Orders.sol\":1159:1174  deliveryPartner */\n      dup3\n        /* \"learning/Orders.sol\":1148:1190  Order(_id, deliveryPartner,Status.Pending) */\n      dup2\n      mstore\n      0x20\n      add\n        /* \"learning/Orders.sol\":1175:1189  Status.Pending */\n      0x00\n        /* \"learning/Orders.sol\":1148:1190  Order(_id, deliveryPartner,Status.Pending) */\n      0x04\n      dup2\n      gt\n      iszero\n      tag_34\n      jumpi\n      mstore(0x00, 0x4e487b7100000000000000000000000000000000000000000000000000000000)\n      mstore(0x04, 0x21)\n      revert(0x00, 0x24)\n    tag_34:\n      dup2\n      mstore\n      pop\n        /* \"learning/Orders.sol\":1134:1140  orders */\n      0x01\n        /* \"learning/Orders.sol\":1134:1145  orders[_id] */\n      0x00\n        /* \"learning/Orders.sol\":1141:1144  _id */\n      dup5\n        /* \"learning/Orders.sol\":1134:1145  orders[_id] */\n      dup2\n      mstore\n      0x20\n      add\n      swap1\n      dup2\n      mstore\n      0x20\n      add\n      0x00\n      keccak256\n        /* \"learning/Orders.sol\":1134:1190  orders[_id] = Order(_id, deliveryPartner,Status.Pending) */\n      0x00\n      dup3\n      add\n      mload\n      dup2\n      0x00\n      add\n      sstore\n      0x20\n      dup3\n      add\n      mload\n      dup2\n      0x01\n      add\n      swap1\n      dup1\n      mload\n      swap1\n      0x20\n      add\n      swap1\n      tag_35\n      swap3\n      swap2\n      swap1\n      tag_36\n      jump\t// in\n    tag_35:\n      pop\n      0x40\n      dup3\n      add\n      mload\n      dup2\n      0x02\n      add\n      exp(0x0100, 0x00)\n      dup2\n      sload\n      dup2\n      0xff\n      mul\n      not\n      and\n      swap1\n      dup4\n      0x04\n      dup2\n      gt\n      iszero\n      tag_37\n      jumpi\n      mstore(0x00, 0x4e487b7100000000000000000000000000000000000000000000000000000000)\n      mstore(0x04, 0x21)\n      revert(0x00, 0x24)\n    tag_37:\n      mul\n      or\n      swap1\n      sstore\n      pop\n      swap1\n      pop\n      pop\n        /* \"learning/Orders.sol\":1219:1223  true */\n      0x01\n        /* \"learning/Orders.sol\":1202:1211  isOrdered */\n      0x02\n        /* \"learning/Orders.sol\":1202:1216  isOrdered[_id] */\n      0x00\n        /* \"learning/Orders.sol\":1212:1215  _id */\n      dup5\n        /* \"learning/Orders.sol\":1202:1216  isOrdered[_id] */\n      dup2\n      mstore\n      0x20\n      add\n      swap1\n      dup2\n      mstore\n      0x20\n      add\n      0x00\n      keccak256\n      0x00\n        /* \"learning/Orders.sol\":1202:1223  isOrdered[_id] = true */\n      0x0100\n      exp\n      dup2\n      sload\n      dup2\n      0xff\n      mul\n      not\n      and\n      swap1\n      dup4\n      iszero\n      iszero\n      mul\n      or\n      swap1\n      sstore\n      pop\n        /* \"learning/Orders.sol\":1004:1231  function addOrder(uint _id, string memory deliveryPartner) public{\r... */\n      pop\n      pop\n      jump\t// out\n        /* \"learning/Orders.sol\":616:651  mapping (uint => User) public users */\n    tag_15:\n      mstore(0x20, 0x03)\n      dup1\n      0x00\n      mstore\n      keccak256(0x00, 0x40)\n      0x00\n      swap2\n      pop\n      swap1\n      pop\n      dup1\n      0x00\n      add\n      sload\n      swap1\n      dup1\n      0x01\n      add\n      dup1\n      sload\n      tag_38\n      swap1\n      tag_39\n      jump\t// in\n    tag_38:\n      dup1\n      0x1f\n      add\n      0x20\n      dup1\n      swap2\n      div\n      mul\n      0x20\n      add\n      mload(0x40)\n      swap1\n      dup2\n      add\n      0x40\n      mstore\n      dup1\n      swap3\n      swap2\n      swap1\n      dup2\n      dup2\n      mstore\n      0x20\n      add\n      dup3\n      dup1\n      sload\n      tag_40\n      swap1\n      tag_39\n      jump\t// in\n    tag_40:\n      dup1\n      iszero\n      tag_41\n      jumpi\n      dup1\n      0x1f\n      lt\n      tag_42\n      jumpi\n      0x0100\n      dup1\n      dup4\n      sload\n      div\n      mul\n      dup4\n      mstore\n      swap2\n      0x20\n      add\n      swap2\n      jump(tag_41)\n    tag_42:\n      dup3\n      add\n      swap2\n      swap1\n      0x00\n      mstore\n      keccak256(0x00, 0x20)\n      swap1\n    tag_43:\n      dup2\n      sload\n      dup2\n      mstore\n      swap1\n      0x01\n      add\n      swap1\n      0x20\n      add\n      dup1\n      dup4\n      gt\n      tag_43\n      jumpi\n      dup3\n      swap1\n      sub\n      0x1f\n      and\n      dup3\n      add\n      swap2\n    tag_41:\n      pop\n      pop\n      pop\n      pop\n      pop\n      swap1\n      dup1\n      0x02\n      add\n      0x00\n      swap1\n      sload\n      swap1\n      0x0100\n      exp\n      swap1\n      div\n      0xffffffffffffffffffffffffffffffffffffffff\n      and\n      swap1\n      pop\n      dup4\n      jump\t// out\n        /* \"learning/Orders.sol\":1239:1384  function updateOrder(uint _id, Status _status) public checkOwner{\r... */\n    tag_21:\n        /* \"learning/Orders.sol\":207:217  msg.sender */\n      caller\n        /* \"learning/Orders.sol\":200:217  owner==msg.sender */\n      0xffffffffffffffffffffffffffffffffffffffff\n      and\n        /* \"learning/Orders.sol\":200:205  owner */\n      0x00\n      dup1\n      sload\n      swap1\n      0x0100\n      exp\n      swap1\n      div\n      0xffffffffffffffffffffffffffffffffffffffff\n      and\n        /* \"learning/Orders.sol\":200:217  owner==msg.sender */\n      0xffffffffffffffffffffffffffffffffffffffff\n      and\n      eq\n        /* \"learning/Orders.sol\":192:234  require(owner==msg.sender,\"Access Denied\") */\n      tag_45\n      jumpi\n      mload(0x40)\n      0x08c379a000000000000000000000000000000000000000000000000000000000\n      dup2\n      mstore\n      0x04\n      add\n      tag_46\n      swap1\n      tag_47\n      jump\t// in\n    tag_46:\n      mload(0x40)\n      dup1\n      swap2\n      sub\n      swap1\n      revert\n    tag_45:\n        /* \"learning/Orders.sol\":1328:1376  Order(_id, orders[_id].deliveryPartner, _status) */\n      mload(0x40)\n      dup1\n      0x60\n      add\n      0x40\n      mstore\n      dup1\n        /* \"learning/Orders.sol\":1334:1337  _id */\n      dup4\n        /* \"learning/Orders.sol\":1328:1376  Order(_id, orders[_id].deliveryPartner, _status) */\n      dup2\n      mstore\n      0x20\n      add\n        /* \"learning/Orders.sol\":1339:1345  orders */\n      0x01\n        /* \"learning/Orders.sol\":1339:1350  orders[_id] */\n      0x00\n        /* \"learning/Orders.sol\":1346:1349  _id */\n      dup6\n        /* \"learning/Orders.sol\":1339:1350  orders[_id] */\n      dup2\n      mstore\n      0x20\n      add\n      swap1\n      dup2\n      mstore\n      0x20\n      add\n      0x00\n      keccak256\n        /* \"learning/Orders.sol\":1339:1366  orders[_id].deliveryPartner */\n      0x01\n      add\n        /* \"learning/Orders.sol\":1328:1376  Order(_id, orders[_id].deliveryPartner, _status) */\n      dup1\n      sload\n      tag_49\n      swap1\n      tag_39\n      jump\t// in\n    tag_49:\n      dup1\n      0x1f\n      add\n      0x20\n      dup1\n      swap2\n      div\n      mul\n      0x20\n      add\n      mload(0x40)\n      swap1\n      dup2\n      add\n      0x40\n      mstore\n      dup1\n      swap3\n      swap2\n      swap1\n      dup2\n      dup2\n      mstore\n      0x20\n      add\n      dup3\n      dup1\n      sload\n      tag_50\n      swap1\n      tag_39\n      jump\t// in\n    tag_50:\n      dup1\n      iszero\n      tag_51\n      jumpi\n      dup1\n      0x1f\n      lt\n      tag_52\n      jumpi\n      0x0100\n      dup1\n      dup4\n      sload\n      div\n      mul\n      dup4\n      mstore\n      swap2\n      0x20\n      add\n      swap2\n      jump(tag_51)\n    tag_52:\n      dup3\n      add\n      swap2\n      swap1\n      0x00\n      mstore\n      keccak256(0x00, 0x20)\n      swap1\n    tag_53:\n      dup2\n      sload\n      dup2\n      mstore\n      swap1\n      0x01\n      add\n      swap1\n      0x20\n      add\n      dup1\n      dup4\n      gt\n      tag_53\n      jumpi\n      dup3\n      swap1\n      sub\n      0x1f\n      and\n      dup3\n      add\n      swap2\n    tag_51:\n      pop\n      pop\n      pop\n      pop\n      pop\n      dup2\n      mstore\n      0x20\n      add\n        /* \"learning/Orders.sol\":1368:1375  _status */\n      dup3\n        /* \"learning/Orders.sol\":1328:1376  Order(_id, orders[_id].deliveryPartner, _status) */\n      0x04\n      dup2\n      gt\n      iszero\n      tag_54\n      jumpi\n      mstore(0x00, 0x4e487b7100000000000000000000000000000000000000000000000000000000)\n      mstore(0x04, 0x21)\n      revert(0x00, 0x24)\n    tag_54:\n      dup2\n      mstore\n      pop\n        /* \"learning/Orders.sol\":1315:1321  orders */\n      0x01\n        /* \"learning/Orders.sol\":1315:1326  orders[_id] */\n      0x00\n        /* \"learning/Orders.sol\":1322:1325  _id */\n      dup5\n        /* \"learning/Orders.sol\":1315:1326  orders[_id] */\n      dup2\n      mstore\n      0x20\n      add\n      swap1\n      dup2\n      mstore\n      0x20\n      add\n      0x00\n      keccak256\n        /* \"learning/Orders.sol\":1315:1376  orders[_id]= Order(_id, orders[_id].deliveryPartner, _status) */\n      0x00\n      dup3\n      add\n      mload\n      dup2\n      0x00\n      add\n      sstore\n      0x20\n      dup3\n      add\n      mload\n      dup2\n      0x01\n      add\n      swap1\n      dup1\n      mload\n      swap1\n      0x20\n      add\n      swap1\n      tag_55\n      swap3\n      swap2\n      swap1\n      tag_36\n      jump\t// in\n    tag_55:\n      pop\n      0x40\n      dup3\n      add\n      mload\n      dup2\n      0x02\n      add\n      exp(0x0100, 0x00)\n      dup2\n      sload\n      dup2\n      0xff\n      mul\n      not\n      and\n      swap1\n      dup4\n      0x04\n      dup2\n      gt\n      iszero\n      tag_56\n      jumpi\n      mstore(0x00, 0x4e487b7100000000000000000000000000000000000000000000000000000000)\n      mstore(0x04, 0x21)\n      revert(0x00, 0x24)\n    tag_56:\n      mul\n      or\n      swap1\n      sstore\n      pop\n      swap1\n      pop\n      pop\n        /* \"learning/Orders.sol\":1239:1384  function updateOrder(uint _id, Status _status) public checkOwner{\r... */\n      pop\n      pop\n      jump\t// out\n        /* \"learning/Orders.sol\":435:472  mapping (uint => Order) public orders */\n    tag_24:\n      mstore(0x20, 0x01)\n      dup1\n      0x00\n      mstore\n      keccak256(0x00, 0x40)\n      0x00\n      swap2\n      pop\n      swap1\n      pop\n      dup1\n      0x00\n      add\n      sload\n      swap1\n      dup1\n      0x01\n      add\n      dup1\n      sload\n      tag_57\n      swap1\n      tag_39\n      jump\t// in\n    tag_57:\n      dup1\n      0x1f\n      add\n      0x20\n      dup1\n      swap2\n      div\n      mul\n      0x20\n      add\n      mload(0x40)\n      swap1\n      dup2\n      add\n      0x40\n      mstore\n      dup1\n      swap3\n      swap2\n      swap1\n      dup2\n      dup2\n      mstore\n      0x20\n      add\n      dup3\n      dup1\n      sload\n      tag_58\n      swap1\n      tag_39\n      jump\t// in\n    tag_58:\n      dup1\n      iszero\n      tag_59\n      jumpi\n      dup1\n      0x1f\n      lt\n      tag_60\n      jumpi\n      0x0100\n      dup1\n      dup4\n      sload\n      div\n      mul\n      dup4\n      mstore\n      swap2\n      0x20\n      add\n      swap2\n      jump(tag_59)\n    tag_60:\n      dup3\n      add\n      swap2\n      swap1\n      0x00\n      mstore\n      keccak256(0x00, 0x20)\n      swap1\n    tag_61:\n      dup2\n      sload\n      dup2\n      mstore\n      swap1\n      0x01\n      add\n      swap1\n      0x20\n      add\n      dup1\n      dup4\n      gt\n      tag_61\n      jumpi\n      dup3\n      swap1\n      sub\n      0x1f\n      and\n      dup3\n      add\n      swap2\n    tag_59:\n      pop\n      pop\n      pop\n      pop\n      pop\n      swap1\n      dup1\n      0x02\n      add\n      0x00\n      swap1\n      sload\n      swap1\n      0x0100\n      exp\n      swap1\n      div\n      0xff\n      and\n      swap1\n      pop\n      dup4\n      jump\t// out\n        /* \"learning/Orders.sol\":729:994  function addUser(uint _id, string memory name) public {\r... */\n    tag_29:\n        /* \"learning/Orders.sol\":804:816  isRegistered */\n      0x04\n        /* \"learning/Orders.sol\":804:828  isRegistered[msg.sender] */\n      0x00\n        /* \"learning/Orders.sol\":817:827  msg.sender */\n      caller\n        /* \"learning/Orders.sol\":804:828  isRegistered[msg.sender] */\n      0xffffffffffffffffffffffffffffffffffffffff\n      and\n      0xffffffffffffffffffffffffffffffffffffffff\n      and\n      dup2\n      mstore\n      0x20\n      add\n      swap1\n      dup2\n      mstore\n      0x20\n      add\n      0x00\n      keccak256\n      0x00\n      swap1\n      sload\n      swap1\n      0x0100\n      exp\n      swap1\n      div\n      0xff\n      and\n        /* \"learning/Orders.sol\":803:828  !isRegistered[msg.sender] */\n      iszero\n        /* \"learning/Orders.sol\":795:855  require(!isRegistered[msg.sender],\"user already registered\") */\n      tag_63\n      jumpi\n      mload(0x40)\n      0x08c379a000000000000000000000000000000000000000000000000000000000\n      dup2\n      mstore\n      0x04\n      add\n      tag_64\n      swap1\n      tag_65\n      jump\t// in\n    tag_64:\n      mload(0x40)\n      dup1\n      swap2\n      sub\n      swap1\n      revert\n    tag_63:\n        /* \"learning/Orders.sol\":869:879  allUserIds */\n      0x05\n        /* \"learning/Orders.sol\":885:888  _id */\n      dup3\n        /* \"learning/Orders.sol\":869:889  allUserIds.push(_id) */\n      swap1\n      dup1\n      0x01\n      dup2\n      sload\n      add\n      dup1\n      dup3\n      sstore\n      dup1\n      swap2\n      pop\n      pop\n      0x01\n      swap1\n      sub\n      swap1\n      0x00\n      mstore\n      keccak256(0x00, 0x20)\n      add\n      0x00\n      swap1\n      swap2\n      swap1\n      swap2\n      swap1\n      swap2\n      pop\n      sstore\n        /* \"learning/Orders.sol\":916:941  User(_id,name,msg.sender) */\n      mload(0x40)\n      dup1\n      0x60\n      add\n      0x40\n      mstore\n      dup1\n        /* \"learning/Orders.sol\":921:924  _id */\n      dup4\n        /* \"learning/Orders.sol\":916:941  User(_id,name,msg.sender) */\n      dup2\n      mstore\n      0x20\n      add\n        /* \"learning/Orders.sol\":925:929  name */\n      dup3\n        /* \"learning/Orders.sol\":916:941  User(_id,name,msg.sender) */\n      dup2\n      mstore\n      0x20\n      add\n        /* \"learning/Orders.sol\":930:940  msg.sender */\n      caller\n        /* \"learning/Orders.sol\":916:941  User(_id,name,msg.sender) */\n      0xffffffffffffffffffffffffffffffffffffffff\n      and\n      dup2\n      mstore\n      pop\n        /* \"learning/Orders.sol\":903:908  users */\n      0x03\n        /* \"learning/Orders.sol\":903:913  users[_id] */\n      0x00\n        /* \"learning/Orders.sol\":909:912  _id */\n      dup5\n        /* \"learning/Orders.sol\":903:913  users[_id] */\n      dup2\n      mstore\n      0x20\n      add\n      swap1\n      dup2\n      mstore\n      0x20\n      add\n      0x00\n      keccak256\n        /* \"learning/Orders.sol\":903:941  users[_id] = User(_id,name,msg.sender) */\n      0x00\n      dup3\n      add\n      mload\n      dup2\n      0x00\n      add\n      sstore\n      0x20\n      dup3\n      add\n      mload\n      dup2\n      0x01\n      add\n      swap1\n      dup1\n      mload\n      swap1\n      0x20\n      add\n      swap1\n      tag_67\n      swap3\n      swap2\n      swap1\n      tag_36\n      jump\t// in\n    tag_67:\n      pop\n      0x40\n      dup3\n      add\n      mload\n      dup2\n      0x02\n      add\n      exp(0x0100, 0x00)\n      dup2\n      sload\n      dup2\n      0xffffffffffffffffffffffffffffffffffffffff\n      mul\n      not\n      and\n      swap1\n      dup4\n      0xffffffffffffffffffffffffffffffffffffffff\n      and\n      mul\n      or\n      swap1\n      sstore\n      pop\n      swap1\n      pop\n      pop\n        /* \"learning/Orders.sol\":982:986  true */\n      0x01\n        /* \"learning/Orders.sol\":955:967  isRegistered */\n      0x04\n        /* \"learning/Orders.sol\":955:979  isRegistered[msg.sender] */\n      0x00\n        /* \"learning/Orders.sol\":968:978  msg.sender */\n      caller\n        /* \"learning/Orders.sol\":955:979  isRegistered[msg.sender] */\n      0xffffffffffffffffffffffffffffffffffffffff\n      and\n      0xffffffffffffffffffffffffffffffffffffffff\n      and\n      dup2\n      mstore\n      0x20\n      add\n      swap1\n      dup2\n      mstore\n      0x20\n      add\n      0x00\n      keccak256\n      0x00\n        /* \"learning/Orders.sol\":955:986  isRegistered[msg.sender] = true */\n      0x0100\n      exp\n      dup2\n      sload\n      dup2\n      0xff\n      mul\n      not\n      and\n      swap1\n      dup4\n      iszero\n      iszero\n      mul\n      or\n      swap1\n      sstore\n      pop\n        /* \"learning/Orders.sol\":729:994  function addUser(uint _id, string memory name) public {\r... */\n      pop\n      pop\n      jump\t// out\n    tag_36:\n      dup3\n      dup1\n      sload\n      tag_68\n      swap1\n      tag_39\n      jump\t// in\n    tag_68:\n      swap1\n      0x00\n      mstore\n      keccak256(0x00, 0x20)\n      swap1\n      0x1f\n      add\n      0x20\n      swap1\n      div\n      dup2\n      add\n      swap3\n      dup3\n      tag_70\n      jumpi\n      0x00\n      dup6\n      sstore\n      jump(tag_69)\n    tag_70:\n      dup3\n      0x1f\n      lt\n      tag_71\n      jumpi\n      dup1\n      mload\n      not(0xff)\n      and\n      dup4\n      dup1\n      add\n      or\n      dup6\n      sstore\n      jump(tag_69)\n    tag_71:\n      dup3\n      dup1\n      add\n      0x01\n      add\n      dup6\n      sstore\n      dup3\n      iszero\n      tag_69\n      jumpi\n      swap2\n      dup3\n      add\n    tag_72:\n      dup3\n      dup2\n      gt\n      iszero\n      tag_73\n      jumpi\n      dup3\n      mload\n      dup3\n      sstore\n      swap2\n      0x20\n      add\n      swap2\n      swap1\n      0x01\n      add\n      swap1\n      jump(tag_72)\n    tag_73:\n    tag_69:\n      pop\n      swap1\n      pop\n      tag_74\n      swap2\n      swap1\n      tag_75\n      jump\t// in\n    tag_74:\n      pop\n      swap1\n      jump\t// out\n    tag_75:\n    tag_76:\n      dup1\n      dup3\n      gt\n      iszero\n      tag_77\n      jumpi\n      0x00\n      dup2\n      0x00\n      swap1\n      sstore\n      pop\n      0x01\n      add\n      jump(tag_76)\n    tag_77:\n      pop\n      swap1\n      jump\t// out\n        /* \"#utility.yul\":7:351   */\n    tag_79:\n      0x00\n        /* \"#utility.yul\":110:175   */\n      tag_81\n        /* \"#utility.yul\":125:174   */\n      tag_82\n        /* \"#utility.yul\":167:173   */\n      dup5\n        /* \"#utility.yul\":125:174   */\n      tag_83\n      jump\t// in\n    tag_82:\n        /* \"#utility.yul\":110:175   */\n      tag_84\n      jump\t// in\n    tag_81:\n        /* \"#utility.yul\":101:175   */\n      swap1\n      pop\n        /* \"#utility.yul\":198:204   */\n      dup3\n        /* \"#utility.yul\":191:196   */\n      dup2\n        /* \"#utility.yul\":184:205   */\n      mstore\n        /* \"#utility.yul\":236:240   */\n      0x20\n        /* \"#utility.yul\":229:234   */\n      dup2\n        /* \"#utility.yul\":225:241   */\n      add\n        /* \"#utility.yul\":274:277   */\n      dup5\n        /* \"#utility.yul\":265:271   */\n      dup5\n        /* \"#utility.yul\":260:263   */\n      dup5\n        /* \"#utility.yul\":256:272   */\n      add\n        /* \"#utility.yul\":253:278   */\n      gt\n        /* \"#utility.yul\":250:252   */\n      iszero\n      tag_85\n      jumpi\n        /* \"#utility.yul\":291:292   */\n      0x00\n        /* \"#utility.yul\":288:289   */\n      dup1\n        /* \"#utility.yul\":281:293   */\n      revert\n        /* \"#utility.yul\":250:252   */\n    tag_85:\n        /* \"#utility.yul\":304:345   */\n      tag_86\n        /* \"#utility.yul\":338:344   */\n      dup5\n        /* \"#utility.yul\":333:336   */\n      dup3\n        /* \"#utility.yul\":328:331   */\n      dup6\n        /* \"#utility.yul\":304:345   */\n      tag_87\n      jump\t// in\n    tag_86:\n        /* \"#utility.yul\":91:351   */\n      pop\n      swap4\n      swap3\n      pop\n      pop\n      pop\n      jump\t// out\n        /* \"#utility.yul\":357:514   */\n    tag_88:\n      0x00\n        /* \"#utility.yul\":450:456   */\n      dup2\n        /* \"#utility.yul\":437:457   */\n      calldataload\n        /* \"#utility.yul\":428:457   */\n      swap1\n      pop\n        /* \"#utility.yul\":466:508   */\n      tag_90\n        /* \"#utility.yul\":502:507   */\n      dup2\n        /* \"#utility.yul\":466:508   */\n      tag_91\n      jump\t// in\n    tag_90:\n        /* \"#utility.yul\":418:514   */\n      swap3\n      swap2\n      pop\n      pop\n      jump\t// out\n        /* \"#utility.yul\":534:807   */\n    tag_92:\n      0x00\n        /* \"#utility.yul\":639:642   */\n      dup3\n        /* \"#utility.yul\":632:636   */\n      0x1f\n        /* \"#utility.yul\":624:630   */\n      dup4\n        /* \"#utility.yul\":620:637   */\n      add\n        /* \"#utility.yul\":616:643   */\n      slt\n        /* \"#utility.yul\":606:608   */\n      tag_94\n      jumpi\n        /* \"#utility.yul\":657:658   */\n      0x00\n        /* \"#utility.yul\":654:655   */\n      dup1\n        /* \"#utility.yul\":647:659   */\n      revert\n        /* \"#utility.yul\":606:608   */\n    tag_94:\n        /* \"#utility.yul\":697:703   */\n      dup2\n        /* \"#utility.yul\":684:704   */\n      calldataload\n        /* \"#utility.yul\":722:801   */\n      tag_95\n        /* \"#utility.yul\":797:800   */\n      dup5\n        /* \"#utility.yul\":789:795   */\n      dup3\n        /* \"#utility.yul\":782:786   */\n      0x20\n        /* \"#utility.yul\":774:780   */\n      dup7\n        /* \"#utility.yul\":770:787   */\n      add\n        /* \"#utility.yul\":722:801   */\n      tag_79\n      jump\t// in\n    tag_95:\n        /* \"#utility.yul\":713:801   */\n      swap2\n      pop\n        /* \"#utility.yul\":596:807   */\n      pop\n      swap3\n      swap2\n      pop\n      pop\n      jump\t// out\n        /* \"#utility.yul\":813:952   */\n    tag_96:\n      0x00\n        /* \"#utility.yul\":897:903   */\n      dup2\n        /* \"#utility.yul\":884:904   */\n      calldataload\n        /* \"#utility.yul\":875:904   */\n      swap1\n      pop\n        /* \"#utility.yul\":913:946   */\n      tag_98\n        /* \"#utility.yul\":940:945   */\n      dup2\n        /* \"#utility.yul\":913:946   */\n      tag_99\n      jump\t// in\n    tag_98:\n        /* \"#utility.yul\":865:952   */\n      swap3\n      swap2\n      pop\n      pop\n      jump\t// out\n        /* \"#utility.yul\":958:1220   */\n    tag_14:\n      0x00\n        /* \"#utility.yul\":1066:1068   */\n      0x20\n        /* \"#utility.yul\":1054:1063   */\n      dup3\n        /* \"#utility.yul\":1045:1052   */\n      dup5\n        /* \"#utility.yul\":1041:1064   */\n      sub\n        /* \"#utility.yul\":1037:1069   */\n      slt\n        /* \"#utility.yul\":1034:1036   */\n      iszero\n      tag_101\n      jumpi\n        /* \"#utility.yul\":1082:1083   */\n      0x00\n        /* \"#utility.yul\":1079:1080   */\n      dup1\n        /* \"#utility.yul\":1072:1084   */\n      revert\n        /* \"#utility.yul\":1034:1036   */\n    tag_101:\n        /* \"#utility.yul\":1125:1126   */\n      0x00\n        /* \"#utility.yul\":1150:1203   */\n      tag_102\n        /* \"#utility.yul\":1195:1202   */\n      dup5\n        /* \"#utility.yul\":1186:1192   */\n      dup3\n        /* \"#utility.yul\":1175:1184   */\n      dup6\n        /* \"#utility.yul\":1171:1193   */\n      add\n        /* \"#utility.yul\":1150:1203   */\n      tag_96\n      jump\t// in\n    tag_102:\n        /* \"#utility.yul\":1140:1203   */\n      swap2\n      pop\n        /* \"#utility.yul\":1096:1213   */\n      pop\n        /* \"#utility.yul\":1024:1220   */\n      swap3\n      swap2\n      pop\n      pop\n      jump\t// out\n        /* \"#utility.yul\":1226:1651   */\n    tag_20:\n      0x00\n      dup1\n        /* \"#utility.yul\":1360:1362   */\n      0x40\n        /* \"#utility.yul\":1348:1357   */\n      dup4\n        /* \"#utility.yul\":1339:1346   */\n      dup6\n        /* \"#utility.yul\":1335:1358   */\n      sub\n        /* \"#utility.yul\":1331:1363   */\n      slt\n        /* \"#utility.yul\":1328:1330   */\n      iszero\n      tag_104\n      jumpi\n        /* \"#utility.yul\":1376:1377   */\n      0x00\n        /* \"#utility.yul\":1373:1374   */\n      dup1\n        /* \"#utility.yul\":1366:1378   */\n      revert\n        /* \"#utility.yul\":1328:1330   */\n    tag_104:\n        /* \"#utility.yul\":1419:1420   */\n      0x00\n        /* \"#utility.yul\":1444:1497   */\n      tag_105\n        /* \"#utility.yul\":1489:1496   */\n      dup6\n        /* \"#utility.yul\":1480:1486   */\n      dup3\n        /* \"#utility.yul\":1469:1478   */\n      dup7\n        /* \"#utility.yul\":1465:1487   */\n      add\n        /* \"#utility.yul\":1444:1497   */\n      tag_96\n      jump\t// in\n    tag_105:\n        /* \"#utility.yul\":1434:1497   */\n      swap3\n      pop\n        /* \"#utility.yul\":1390:1507   */\n      pop\n        /* \"#utility.yul\":1546:1548   */\n      0x20\n        /* \"#utility.yul\":1572:1634   */\n      tag_106\n        /* \"#utility.yul\":1626:1633   */\n      dup6\n        /* \"#utility.yul\":1617:1623   */\n      dup3\n        /* \"#utility.yul\":1606:1615   */\n      dup7\n        /* \"#utility.yul\":1602:1624   */\n      add\n        /* \"#utility.yul\":1572:1634   */\n      tag_88\n      jump\t// in\n    tag_106:\n        /* \"#utility.yul\":1562:1634   */\n      swap2\n      pop\n        /* \"#utility.yul\":1517:1644   */\n      pop\n        /* \"#utility.yul\":1318:1651   */\n      swap3\n      pop\n      swap3\n      swap1\n      pop\n      jump\t// out\n        /* \"#utility.yul\":1657:2177   */\n    tag_10:\n      0x00\n      dup1\n        /* \"#utility.yul\":1792:1794   */\n      0x40\n        /* \"#utility.yul\":1780:1789   */\n      dup4\n        /* \"#utility.yul\":1771:1778   */\n      dup6\n        /* \"#utility.yul\":1767:1790   */\n      sub\n        /* \"#utility.yul\":1763:1795   */\n      slt\n        /* \"#utility.yul\":1760:1762   */\n      iszero\n      tag_108\n      jumpi\n        /* \"#utility.yul\":1808:1809   */\n      0x00\n        /* \"#utility.yul\":1805:1806   */\n      dup1\n        /* \"#utility.yul\":1798:1810   */\n      revert\n        /* \"#utility.yul\":1760:1762   */\n    tag_108:\n        /* \"#utility.yul\":1851:1852   */\n      0x00\n        /* \"#utility.yul\":1876:1929   */\n      tag_109\n        /* \"#utility.yul\":1921:1928   */\n      dup6\n        /* \"#utility.yul\":1912:1918   */\n      dup3\n        /* \"#utility.yul\":1901:1910   */\n      dup7\n        /* \"#utility.yul\":1897:1919   */\n      add\n        /* \"#utility.yul\":1876:1929   */\n      tag_96\n      jump\t// in\n    tag_109:\n        /* \"#utility.yul\":1866:1929   */\n      swap3\n      pop\n        /* \"#utility.yul\":1822:1939   */\n      pop\n        /* \"#utility.yul\":2006:2008   */\n      0x20\n        /* \"#utility.yul\":1995:2004   */\n      dup4\n        /* \"#utility.yul\":1991:2009   */\n      add\n        /* \"#utility.yul\":1978:2010   */\n      calldataload\n        /* \"#utility.yul\":2037:2055   */\n      0xffffffffffffffff\n        /* \"#utility.yul\":2029:2035   */\n      dup2\n        /* \"#utility.yul\":2026:2056   */\n      gt\n        /* \"#utility.yul\":2023:2025   */\n      iszero\n      tag_110\n      jumpi\n        /* \"#utility.yul\":2069:2070   */\n      0x00\n        /* \"#utility.yul\":2066:2067   */\n      dup1\n        /* \"#utility.yul\":2059:2071   */\n      revert\n        /* \"#utility.yul\":2023:2025   */\n    tag_110:\n        /* \"#utility.yul\":2097:2160   */\n      tag_111\n        /* \"#utility.yul\":2152:2159   */\n      dup6\n        /* \"#utility.yul\":2143:2149   */\n      dup3\n        /* \"#utility.yul\":2132:2141   */\n      dup7\n        /* \"#utility.yul\":2128:2150   */\n      add\n        /* \"#utility.yul\":2097:2160   */\n      tag_92\n      jump\t// in\n    tag_111:\n        /* \"#utility.yul\":2087:2160   */\n      swap2\n      pop\n        /* \"#utility.yul\":1949:2170   */\n      pop\n        /* \"#utility.yul\":1750:2177   */\n      swap3\n      pop\n      swap3\n      swap1\n      pop\n      jump\t// out\n        /* \"#utility.yul\":2183:2301   */\n    tag_112:\n        /* \"#utility.yul\":2270:2294   */\n      tag_114\n        /* \"#utility.yul\":2288:2293   */\n      dup2\n        /* \"#utility.yul\":2270:2294   */\n      tag_115\n      jump\t// in\n    tag_114:\n        /* \"#utility.yul\":2265:2268   */\n      dup3\n        /* \"#utility.yul\":2258:2295   */\n      mstore\n        /* \"#utility.yul\":2248:2301   */\n      pop\n      pop\n      jump\t// out\n        /* \"#utility.yul\":2307:2452   */\n    tag_116:\n        /* \"#utility.yul\":2401:2445   */\n      tag_118\n        /* \"#utility.yul\":2439:2444   */\n      dup2\n        /* \"#utility.yul\":2401:2445   */\n      tag_119\n      jump\t// in\n    tag_118:\n        /* \"#utility.yul\":2396:2399   */\n      dup3\n        /* \"#utility.yul\":2389:2446   */\n      mstore\n        /* \"#utility.yul\":2379:2452   */\n      pop\n      pop\n      jump\t// out\n        /* \"#utility.yul\":2458:2822   */\n    tag_120:\n      0x00\n        /* \"#utility.yul\":2574:2613   */\n      tag_122\n        /* \"#utility.yul\":2607:2612   */\n      dup3\n        /* \"#utility.yul\":2574:2613   */\n      tag_123\n      jump\t// in\n    tag_122:\n        /* \"#utility.yul\":2629:2700   */\n      tag_124\n        /* \"#utility.yul\":2693:2699   */\n      dup2\n        /* \"#utility.yul\":2688:2691   */\n      dup6\n        /* \"#utility.yul\":2629:2700   */\n      tag_125\n      jump\t// in\n    tag_124:\n        /* \"#utility.yul\":2622:2700   */\n      swap4\n      pop\n        /* \"#utility.yul\":2709:2761   */\n      tag_126\n        /* \"#utility.yul\":2754:2760   */\n      dup2\n        /* \"#utility.yul\":2749:2752   */\n      dup6\n        /* \"#utility.yul\":2742:2746   */\n      0x20\n        /* \"#utility.yul\":2735:2740   */\n      dup7\n        /* \"#utility.yul\":2731:2747   */\n      add\n        /* \"#utility.yul\":2709:2761   */\n      tag_127\n      jump\t// in\n    tag_126:\n        /* \"#utility.yul\":2786:2815   */\n      tag_128\n        /* \"#utility.yul\":2808:2814   */\n      dup2\n        /* \"#utility.yul\":2786:2815   */\n      tag_129\n      jump\t// in\n    tag_128:\n        /* \"#utility.yul\":2781:2784   */\n      dup5\n        /* \"#utility.yul\":2777:2816   */\n      add\n        /* \"#utility.yul\":2770:2816   */\n      swap2\n      pop\n        /* \"#utility.yul\":2550:2822   */\n      pop\n      swap3\n      swap2\n      pop\n      pop\n      jump\t// out\n        /* \"#utility.yul\":2828:3149   */\n    tag_130:\n      0x00\n        /* \"#utility.yul\":2991:3058   */\n      tag_132\n        /* \"#utility.yul\":3055:3057   */\n      0x17\n        /* \"#utility.yul\":3050:3053   */\n      dup4\n        /* \"#utility.yul\":2991:3058   */\n      tag_125\n      jump\t// in\n    tag_132:\n        /* \"#utility.yul\":2984:3058   */\n      swap2\n      pop\n        /* \"#utility.yul\":3088:3113   */\n      0x7573657220616c72656164792072656769737465726564000000000000000000\n        /* \"#utility.yul\":3084:3085   */\n      0x00\n        /* \"#utility.yul\":3079:3082   */\n      dup4\n        /* \"#utility.yul\":3075:3086   */\n      add\n        /* \"#utility.yul\":3068:3114   */\n      mstore\n        /* \"#utility.yul\":3140:3142   */\n      0x20\n        /* \"#utility.yul\":3135:3138   */\n      dup3\n        /* \"#utility.yul\":3131:3143   */\n      add\n        /* \"#utility.yul\":3124:3143   */\n      swap1\n      pop\n        /* \"#utility.yul\":2974:3149   */\n      swap2\n      swap1\n      pop\n      jump\t// out\n        /* \"#utility.yul\":3155:3466   */\n    tag_133:\n      0x00\n        /* \"#utility.yul\":3318:3385   */\n      tag_135\n        /* \"#utility.yul\":3382:3384   */\n      0x0d\n        /* \"#utility.yul\":3377:3380   */\n      dup4\n        /* \"#utility.yul\":3318:3385   */\n      tag_125\n      jump\t// in\n    tag_135:\n        /* \"#utility.yul\":3311:3385   */\n      swap2\n      pop\n        /* \"#utility.yul\":3415:3430   */\n      0x4163636573732044656e69656400000000000000000000000000000000000000\n        /* \"#utility.yul\":3411:3412   */\n      0x00\n        /* \"#utility.yul\":3406:3409   */\n      dup4\n        /* \"#utility.yul\":3402:3413   */\n      add\n        /* \"#utility.yul\":3395:3431   */\n      mstore\n        /* \"#utility.yul\":3457:3459   */\n      0x20\n        /* \"#utility.yul\":3452:3455   */\n      dup3\n        /* \"#utility.yul\":3448:3460   */\n      add\n        /* \"#utility.yul\":3441:3460   */\n      swap1\n      pop\n        /* \"#utility.yul\":3301:3466   */\n      swap2\n      swap1\n      pop\n      jump\t// out\n        /* \"#utility.yul\":3472:3785   */\n    tag_136:\n      0x00\n        /* \"#utility.yul\":3635:3702   */\n      tag_138\n        /* \"#utility.yul\":3699:3701   */\n      0x0f\n        /* \"#utility.yul\":3694:3697   */\n      dup4\n        /* \"#utility.yul\":3635:3702   */\n      tag_125\n      jump\t// in\n    tag_138:\n        /* \"#utility.yul\":3628:3702   */\n      swap2\n      pop\n        /* \"#utility.yul\":3732:3749   */\n      0x416c7265616479204f7264657265640000000000000000000000000000000000\n        /* \"#utility.yul\":3728:3729   */\n      0x00\n        /* \"#utility.yul\":3723:3726   */\n      dup4\n        /* \"#utility.yul\":3719:3730   */\n      add\n        /* \"#utility.yul\":3712:3750   */\n      mstore\n        /* \"#utility.yul\":3776:3778   */\n      0x20\n        /* \"#utility.yul\":3771:3774   */\n      dup3\n        /* \"#utility.yul\":3767:3779   */\n      add\n        /* \"#utility.yul\":3760:3779   */\n      swap1\n      pop\n        /* \"#utility.yul\":3618:3785   */\n      swap2\n      swap1\n      pop\n      jump\t// out\n        /* \"#utility.yul\":3791:3909   */\n    tag_139:\n        /* \"#utility.yul\":3878:3902   */\n      tag_141\n        /* \"#utility.yul\":3896:3901   */\n      dup2\n        /* \"#utility.yul\":3878:3902   */\n      tag_142\n      jump\t// in\n    tag_141:\n        /* \"#utility.yul\":3873:3876   */\n      dup3\n        /* \"#utility.yul\":3866:3903   */\n      mstore\n        /* \"#utility.yul\":3856:3909   */\n      pop\n      pop\n      jump\t// out\n        /* \"#utility.yul\":3915:4334   */\n    tag_65:\n      0x00\n        /* \"#utility.yul\":4119:4121   */\n      0x20\n        /* \"#utility.yul\":4108:4117   */\n      dup3\n        /* \"#utility.yul\":4104:4122   */\n      add\n        /* \"#utility.yul\":4096:4122   */\n      swap1\n      pop\n        /* \"#utility.yul\":4168:4177   */\n      dup2\n        /* \"#utility.yul\":4162:4166   */\n      dup2\n        /* \"#utility.yul\":4158:4178   */\n      sub\n        /* \"#utility.yul\":4154:4155   */\n      0x00\n        /* \"#utility.yul\":4143:4152   */\n      dup4\n        /* \"#utility.yul\":4139:4156   */\n      add\n        /* \"#utility.yul\":4132:4179   */\n      mstore\n        /* \"#utility.yul\":4196:4327   */\n      tag_144\n        /* \"#utility.yul\":4322:4326   */\n      dup2\n        /* \"#utility.yul\":4196:4327   */\n      tag_130\n      jump\t// in\n    tag_144:\n        /* \"#utility.yul\":4188:4327   */\n      swap1\n      pop\n        /* \"#utility.yul\":4086:4334   */\n      swap2\n      swap1\n      pop\n      jump\t// out\n        /* \"#utility.yul\":4340:4759   */\n    tag_47:\n      0x00\n        /* \"#utility.yul\":4544:4546   */\n      0x20\n        /* \"#utility.yul\":4533:4542   */\n      dup3\n        /* \"#utility.yul\":4529:4547   */\n      add\n        /* \"#utility.yul\":4521:4547   */\n      swap1\n      pop\n        /* \"#utility.yul\":4593:4602   */\n      dup2\n        /* \"#utility.yul\":4587:4591   */\n      dup2\n        /* \"#utility.yul\":4583:4603   */\n      sub\n        /* \"#utility.yul\":4579:4580   */\n      0x00\n        /* \"#utility.yul\":4568:4577   */\n      dup4\n        /* \"#utility.yul\":4564:4581   */\n      add\n        /* \"#utility.yul\":4557:4604   */\n      mstore\n        /* \"#utility.yul\":4621:4752   */\n      tag_146\n        /* \"#utility.yul\":4747:4751   */\n      dup2\n        /* \"#utility.yul\":4621:4752   */\n      tag_133\n      jump\t// in\n    tag_146:\n        /* \"#utility.yul\":4613:4752   */\n      swap1\n      pop\n        /* \"#utility.yul\":4511:4759   */\n      swap2\n      swap1\n      pop\n      jump\t// out\n        /* \"#utility.yul\":4765:5184   */\n    tag_33:\n      0x00\n        /* \"#utility.yul\":4969:4971   */\n      0x20\n        /* \"#utility.yul\":4958:4967   */\n      dup3\n        /* \"#utility.yul\":4954:4972   */\n      add\n        /* \"#utility.yul\":4946:4972   */\n      swap1\n      pop\n        /* \"#utility.yul\":5018:5027   */\n      dup2\n        /* \"#utility.yul\":5012:5016   */\n      dup2\n        /* \"#utility.yul\":5008:5028   */\n      sub\n        /* \"#utility.yul\":5004:5005   */\n      0x00\n        /* \"#utility.yul\":4993:5002   */\n      dup4\n        /* \"#utility.yul\":4989:5006   */\n      add\n        /* \"#utility.yul\":4982:5029   */\n      mstore\n        /* \"#utility.yul\":5046:5177   */\n      tag_148\n        /* \"#utility.yul\":5172:5176   */\n      dup2\n        /* \"#utility.yul\":5046:5177   */\n      tag_136\n      jump\t// in\n    tag_148:\n        /* \"#utility.yul\":5038:5177   */\n      swap1\n      pop\n        /* \"#utility.yul\":4936:5184   */\n      swap2\n      swap1\n      pop\n      jump\t// out\n        /* \"#utility.yul\":5190:5723   */\n    tag_17:\n      0x00\n        /* \"#utility.yul\":5397:5399   */\n      0x60\n        /* \"#utility.yul\":5386:5395   */\n      dup3\n        /* \"#utility.yul\":5382:5400   */\n      add\n        /* \"#utility.yul\":5374:5400   */\n      swap1\n      pop\n        /* \"#utility.yul\":5410:5481   */\n      tag_150\n        /* \"#utility.yul\":5478:5479   */\n      0x00\n        /* \"#utility.yul\":5467:5476   */\n      dup4\n        /* \"#utility.yul\":5463:5480   */\n      add\n        /* \"#utility.yul\":5454:5460   */\n      dup7\n        /* \"#utility.yul\":5410:5481   */\n      tag_139\n      jump\t// in\n    tag_150:\n        /* \"#utility.yul\":5528:5537   */\n      dup2\n        /* \"#utility.yul\":5522:5526   */\n      dup2\n        /* \"#utility.yul\":5518:5538   */\n      sub\n        /* \"#utility.yul\":5513:5515   */\n      0x20\n        /* \"#utility.yul\":5502:5511   */\n      dup4\n        /* \"#utility.yul\":5498:5516   */\n      add\n        /* \"#utility.yul\":5491:5539   */\n      mstore\n        /* \"#utility.yul\":5556:5634   */\n      tag_151\n        /* \"#utility.yul\":5629:5633   */\n      dup2\n        /* \"#utility.yul\":5620:5626   */\n      dup6\n        /* \"#utility.yul\":5556:5634   */\n      tag_120\n      jump\t// in\n    tag_151:\n        /* \"#utility.yul\":5548:5634   */\n      swap1\n      pop\n        /* \"#utility.yul\":5644:5716   */\n      tag_152\n        /* \"#utility.yul\":5712:5714   */\n      0x40\n        /* \"#utility.yul\":5701:5710   */\n      dup4\n        /* \"#utility.yul\":5697:5715   */\n      add\n        /* \"#utility.yul\":5688:5694   */\n      dup5\n        /* \"#utility.yul\":5644:5716   */\n      tag_112\n      jump\t// in\n    tag_152:\n        /* \"#utility.yul\":5364:5723   */\n      swap5\n      swap4\n      pop\n      pop\n      pop\n      pop\n      jump\t// out\n        /* \"#utility.yul\":5729:6276   */\n    tag_26:\n      0x00\n        /* \"#utility.yul\":5943:5945   */\n      0x60\n        /* \"#utility.yul\":5932:5941   */\n      dup3\n        /* \"#utility.yul\":5928:5946   */\n      add\n        /* \"#utility.yul\":5920:5946   */\n      swap1\n      pop\n        /* \"#utility.yul\":5956:6027   */\n      tag_154\n        /* \"#utility.yul\":6024:6025   */\n      0x00\n        /* \"#utility.yul\":6013:6022   */\n      dup4\n        /* \"#utility.yul\":6009:6026   */\n      add\n        /* \"#utility.yul\":6000:6006   */\n      dup7\n        /* \"#utility.yul\":5956:6027   */\n      tag_139\n      jump\t// in\n    tag_154:\n        /* \"#utility.yul\":6074:6083   */\n      dup2\n        /* \"#utility.yul\":6068:6072   */\n      dup2\n        /* \"#utility.yul\":6064:6084   */\n      sub\n        /* \"#utility.yul\":6059:6061   */\n      0x20\n        /* \"#utility.yul\":6048:6057   */\n      dup4\n        /* \"#utility.yul\":6044:6062   */\n      add\n        /* \"#utility.yul\":6037:6085   */\n      mstore\n        /* \"#utility.yul\":6102:6180   */\n      tag_155\n        /* \"#utility.yul\":6175:6179   */\n      dup2\n        /* \"#utility.yul\":6166:6172   */\n      dup6\n        /* \"#utility.yul\":6102:6180   */\n      tag_120\n      jump\t// in\n    tag_155:\n        /* \"#utility.yul\":6094:6180   */\n      swap1\n      pop\n        /* \"#utility.yul\":6190:6269   */\n      tag_156\n        /* \"#utility.yul\":6265:6267   */\n      0x40\n        /* \"#utility.yul\":6254:6263   */\n      dup4\n        /* \"#utility.yul\":6250:6268   */\n      add\n        /* \"#utility.yul\":6241:6247   */\n      dup5\n        /* \"#utility.yul\":6190:6269   */\n      tag_116\n      jump\t// in\n    tag_156:\n        /* \"#utility.yul\":5910:6276   */\n      swap5\n      swap4\n      pop\n      pop\n      pop\n      pop\n      jump\t// out\n        /* \"#utility.yul\":6282:6565   */\n    tag_84:\n      0x00\n        /* \"#utility.yul\":6348:6350   */\n      0x40\n        /* \"#utility.yul\":6342:6351   */\n      mload\n        /* \"#utility.yul\":6332:6351   */\n      swap1\n      pop\n        /* \"#utility.yul\":6390:6394   */\n      dup2\n        /* \"#utility.yul\":6382:6388   */\n      dup2\n        /* \"#utility.yul\":6378:6395   */\n      add\n        /* \"#utility.yul\":6497:6503   */\n      dup2\n        /* \"#utility.yul\":6485:6495   */\n      dup2\n        /* \"#utility.yul\":6482:6504   */\n      lt\n        /* \"#utility.yul\":6461:6479   */\n      0xffffffffffffffff\n        /* \"#utility.yul\":6449:6459   */\n      dup3\n        /* \"#utility.yul\":6446:6480   */\n      gt\n        /* \"#utility.yul\":6443:6505   */\n      or\n        /* \"#utility.yul\":6440:6442   */\n      iszero\n      tag_158\n      jumpi\n        /* \"#utility.yul\":6508:6526   */\n      tag_159\n      tag_160\n      jump\t// in\n    tag_159:\n        /* \"#utility.yul\":6440:6442   */\n    tag_158:\n        /* \"#utility.yul\":6548:6558   */\n      dup1\n        /* \"#utility.yul\":6544:6546   */\n      0x40\n        /* \"#utility.yul\":6537:6559   */\n      mstore\n        /* \"#utility.yul\":6322:6565   */\n      pop\n      swap2\n      swap1\n      pop\n      jump\t// out\n        /* \"#utility.yul\":6571:6903   */\n    tag_83:\n      0x00\n        /* \"#utility.yul\":6723:6741   */\n      0xffffffffffffffff\n        /* \"#utility.yul\":6715:6721   */\n      dup3\n        /* \"#utility.yul\":6712:6742   */\n      gt\n        /* \"#utility.yul\":6709:6711   */\n      iszero\n      tag_162\n      jumpi\n        /* \"#utility.yul\":6745:6763   */\n      tag_163\n      tag_160\n      jump\t// in\n    tag_163:\n        /* \"#utility.yul\":6709:6711   */\n    tag_162:\n        /* \"#utility.yul\":6830:6834   */\n      0x1f\n        /* \"#utility.yul\":6826:6835   */\n      not\n        /* \"#utility.yul\":6819:6823   */\n      0x1f\n        /* \"#utility.yul\":6811:6817   */\n      dup4\n        /* \"#utility.yul\":6807:6824   */\n      add\n        /* \"#utility.yul\":6803:6836   */\n      and\n        /* \"#utility.yul\":6795:6836   */\n      swap1\n      pop\n        /* \"#utility.yul\":6891:6895   */\n      0x20\n        /* \"#utility.yul\":6885:6889   */\n      dup2\n        /* \"#utility.yul\":6881:6896   */\n      add\n        /* \"#utility.yul\":6873:6896   */\n      swap1\n      pop\n        /* \"#utility.yul\":6638:6903   */\n      swap2\n      swap1\n      pop\n      jump\t// out\n        /* \"#utility.yul\":6909:7008   */\n    tag_123:\n      0x00\n        /* \"#utility.yul\":6995:7000   */\n      dup2\n        /* \"#utility.yul\":6989:7001   */\n      mload\n        /* \"#utility.yul\":6979:7001   */\n      swap1\n      pop\n        /* \"#utility.yul\":6968:7008   */\n      swap2\n      swap1\n      pop\n      jump\t// out\n        /* \"#utility.yul\":7014:7183   */\n    tag_125:\n      0x00\n        /* \"#utility.yul\":7132:7138   */\n      dup3\n        /* \"#utility.yul\":7127:7130   */\n      dup3\n        /* \"#utility.yul\":7120:7139   */\n      mstore\n        /* \"#utility.yul\":7172:7176   */\n      0x20\n        /* \"#utility.yul\":7167:7170   */\n      dup3\n        /* \"#utility.yul\":7163:7177   */\n      add\n        /* \"#utility.yul\":7148:7177   */\n      swap1\n      pop\n        /* \"#utility.yul\":7110:7183   */\n      swap3\n      swap2\n      pop\n      pop\n      jump\t// out\n        /* \"#utility.yul\":7189:7285   */\n    tag_115:\n      0x00\n        /* \"#utility.yul\":7255:7279   */\n      tag_167\n        /* \"#utility.yul\":7273:7278   */\n      dup3\n        /* \"#utility.yul\":7255:7279   */\n      tag_168\n      jump\t// in\n    tag_167:\n        /* \"#utility.yul\":7244:7279   */\n      swap1\n      pop\n        /* \"#utility.yul\":7234:7285   */\n      swap2\n      swap1\n      pop\n      jump\t// out\n        /* \"#utility.yul\":7291:7420   */\n    tag_169:\n      0x00\n        /* \"#utility.yul\":7366:7371   */\n      dup2\n        /* \"#utility.yul\":7355:7371   */\n      swap1\n      pop\n        /* \"#utility.yul\":7372:7414   */\n      tag_171\n        /* \"#utility.yul\":7408:7413   */\n      dup3\n        /* \"#utility.yul\":7372:7414   */\n      tag_172\n      jump\t// in\n    tag_171:\n        /* \"#utility.yul\":7345:7420   */\n      swap2\n      swap1\n      pop\n      jump\t// out\n        /* \"#utility.yul\":7426:7552   */\n    tag_168:\n      0x00\n        /* \"#utility.yul\":7503:7545   */\n      0xffffffffffffffffffffffffffffffffffffffff\n        /* \"#utility.yul\":7496:7501   */\n      dup3\n        /* \"#utility.yul\":7492:7546   */\n      and\n        /* \"#utility.yul\":7481:7546   */\n      swap1\n      pop\n        /* \"#utility.yul\":7471:7552   */\n      swap2\n      swap1\n      pop\n      jump\t// out\n        /* \"#utility.yul\":7558:7635   */\n    tag_142:\n      0x00\n        /* \"#utility.yul\":7624:7629   */\n      dup2\n        /* \"#utility.yul\":7613:7629   */\n      swap1\n      pop\n        /* \"#utility.yul\":7603:7635   */\n      swap2\n      swap1\n      pop\n      jump\t// out\n        /* \"#utility.yul\":7641:7770   */\n    tag_119:\n      0x00\n        /* \"#utility.yul\":7731:7764   */\n      tag_176\n        /* \"#utility.yul\":7758:7763   */\n      dup3\n        /* \"#utility.yul\":7731:7764   */\n      tag_169\n      jump\t// in\n    tag_176:\n        /* \"#utility.yul\":7718:7764   */\n      swap1\n      pop\n        /* \"#utility.yul\":7708:7770   */\n      swap2\n      swap1\n      pop\n      jump\t// out\n        /* \"#utility.yul\":7776:7930   */\n    tag_87:\n        /* \"#utility.yul\":7860:7866   */\n      dup3\n        /* \"#utility.yul\":7855:7858   */\n      dup2\n        /* \"#utility.yul\":7850:7853   */\n      dup4\n        /* \"#utility.yul\":7837:7867   */\n      calldatacopy\n        /* \"#utility.yul\":7922:7923   */\n      0x00\n        /* \"#utility.yul\":7913:7919   */\n      dup4\n        /* \"#utility.yul\":7908:7911   */\n      dup4\n        /* \"#utility.yul\":7904:7920   */\n      add\n        /* \"#utility.yul\":7897:7924   */\n      mstore\n        /* \"#utility.yul\":7827:7930   */\n      pop\n      pop\n      pop\n      jump\t// out\n        /* \"#utility.yul\":7936:8243   */\n    tag_127:\n        /* \"#utility.yul\":8004:8005   */\n      0x00\n        /* \"#utility.yul\":8014:8127   */\n    tag_179:\n        /* \"#utility.yul\":8028:8034   */\n      dup4\n        /* \"#utility.yul\":8025:8026   */\n      dup2\n        /* \"#utility.yul\":8022:8035   */\n      lt\n        /* \"#utility.yul\":8014:8127   */\n      iszero\n      tag_181\n      jumpi\n        /* \"#utility.yul\":8113:8114   */\n      dup1\n        /* \"#utility.yul\":8108:8111   */\n      dup3\n        /* \"#utility.yul\":8104:8115   */\n      add\n        /* \"#utility.yul\":8098:8116   */\n      mload\n        /* \"#utility.yul\":8094:8095   */\n      dup2\n        /* \"#utility.yul\":8089:8092   */\n      dup5\n        /* \"#utility.yul\":8085:8096   */\n      add\n        /* \"#utility.yul\":8078:8117   */\n      mstore\n        /* \"#utility.yul\":8050:8052   */\n      0x20\n        /* \"#utility.yul\":8047:8048   */\n      dup2\n        /* \"#utility.yul\":8043:8053   */\n      add\n        /* \"#utility.yul\":8038:8053   */\n      swap1\n      pop\n        /* \"#utility.yul\":8014:8127   */\n      jump(tag_179)\n    tag_181:\n        /* \"#utility.yul\":8145:8151   */\n      dup4\n        /* \"#utility.yul\":8142:8143   */\n      dup2\n        /* \"#utility.yul\":8139:8152   */\n      gt\n        /* \"#utility.yul\":8136:8138   */\n      iszero\n      tag_182\n      jumpi\n        /* \"#utility.yul\":8225:8226   */\n      0x00\n        /* \"#utility.yul\":8216:8222   */\n      dup5\n        /* \"#utility.yul\":8211:8214   */\n      dup5\n        /* \"#utility.yul\":8207:8223   */\n      add\n        /* \"#utility.yul\":8200:8227   */\n      mstore\n        /* \"#utility.yul\":8136:8138   */\n    tag_182:\n        /* \"#utility.yul\":7985:8243   */\n      pop\n      pop\n      pop\n      pop\n      jump\t// out\n        /* \"#utility.yul\":8249:8569   */\n    tag_39:\n      0x00\n        /* \"#utility.yul\":8330:8331   */\n      0x02\n        /* \"#utility.yul\":8324:8328   */\n      dup3\n        /* \"#utility.yul\":8320:8332   */\n      div\n        /* \"#utility.yul\":8310:8332   */\n      swap1\n      pop\n        /* \"#utility.yul\":8377:8378   */\n      0x01\n        /* \"#utility.yul\":8371:8375   */\n      dup3\n        /* \"#utility.yul\":8367:8379   */\n      and\n        /* \"#utility.yul\":8398:8416   */\n      dup1\n        /* \"#utility.yul\":8388:8390   */\n      tag_184\n      jumpi\n        /* \"#utility.yul\":8454:8458   */\n      0x7f\n        /* \"#utility.yul\":8446:8452   */\n      dup3\n        /* \"#utility.yul\":8442:8459   */\n      and\n        /* \"#utility.yul\":8432:8459   */\n      swap2\n      pop\n        /* \"#utility.yul\":8388:8390   */\n    tag_184:\n        /* \"#utility.yul\":8516:8518   */\n      0x20\n        /* \"#utility.yul\":8508:8514   */\n      dup3\n        /* \"#utility.yul\":8505:8519   */\n      lt\n        /* \"#utility.yul\":8485:8503   */\n      dup2\n        /* \"#utility.yul\":8482:8520   */\n      eq\n        /* \"#utility.yul\":8479:8481   */\n      iszero\n      tag_185\n      jumpi\n        /* \"#utility.yul\":8535:8553   */\n      tag_186\n      tag_187\n      jump\t// in\n    tag_186:\n        /* \"#utility.yul\":8479:8481   */\n    tag_185:\n        /* \"#utility.yul\":8300:8569   */\n      pop\n      swap2\n      swap1\n      pop\n      jump\t// out\n        /* \"#utility.yul\":8575:8755   */\n    tag_188:\n        /* \"#utility.yul\":8623:8700   */\n      0x4e487b7100000000000000000000000000000000000000000000000000000000\n        /* \"#utility.yul\":8620:8621   */\n      0x00\n        /* \"#utility.yul\":8613:8701   */\n      mstore\n        /* \"#utility.yul\":8720:8724   */\n      0x21\n        /* \"#utility.yul\":8717:8718   */\n      0x04\n        /* \"#utility.yul\":8710:8725   */\n      mstore\n        /* \"#utility.yul\":8744:8748   */\n      0x24\n        /* \"#utility.yul\":8741:8742   */\n      0x00\n        /* \"#utility.yul\":8734:8749   */\n      revert\n        /* \"#utility.yul\":8761:8941   */\n    tag_187:\n        /* \"#utility.yul\":8809:8886   */\n      0x4e487b7100000000000000000000000000000000000000000000000000000000\n        /* \"#utility.yul\":8806:8807   */\n      0x00\n        /* \"#utility.yul\":8799:8887   */\n      mstore\n        /* \"#utility.yul\":8906:8910   */\n      0x22\n        /* \"#utility.yul\":8903:8904   */\n      0x04\n        /* \"#utility.yul\":8896:8911   */\n      mstore\n        /* \"#utility.yul\":8930:8934   */\n      0x24\n        /* \"#utility.yul\":8927:8928   */\n      0x00\n        /* \"#utility.yul\":8920:8935   */\n      revert\n        /* \"#utility.yul\":8947:9127   */\n    tag_160:\n        /* \"#utility.yul\":8995:9072   */\n      0x4e487b7100000000000000000000000000000000000000000000000000000000\n        /* \"#utility.yul\":8992:8993   */\n      0x00\n        /* \"#utility.yul\":8985:9073   */\n      mstore\n        /* \"#utility.yul\":9092:9096   */\n      0x41\n        /* \"#utility.yul\":9089:9090   */\n      0x04\n        /* \"#utility.yul\":9082:9097   */\n      mstore\n        /* \"#utility.yul\":9116:9120   */\n      0x24\n        /* \"#utility.yul\":9113:9114   */\n      0x00\n        /* \"#utility.yul\":9106:9121   */\n      revert\n        /* \"#utility.yul\":9133:9235   */\n    tag_129:\n      0x00\n        /* \"#utility.yul\":9225:9227   */\n      0x1f\n        /* \"#utility.yul\":9221:9228   */\n      not\n        /* \"#utility.yul\":9216:9218   */\n      0x1f\n        /* \"#utility.yul\":9209:9214   */\n      dup4\n        /* \"#utility.yul\":9205:9219   */\n      add\n        /* \"#utility.yul\":9201:9229   */\n      and\n        /* \"#utility.yul\":9191:9229   */\n      swap1\n      pop\n        /* \"#utility.yul\":9181:9235   */\n      swap2\n      swap1\n      pop\n      jump\t// out\n        /* \"#utility.yul\":9241:9355   */\n    tag_172:\n        /* \"#utility.yul\":9323:9324   */\n      0x05\n        /* \"#utility.yul\":9316:9321   */\n      dup2\n        /* \"#utility.yul\":9313:9325   */\n      lt\n        /* \"#utility.yul\":9303:9305   */\n      tag_194\n      jumpi\n        /* \"#utility.yul\":9329:9347   */\n      tag_195\n      tag_188\n      jump\t// in\n    tag_195:\n        /* \"#utility.yul\":9303:9305   */\n    tag_194:\n        /* \"#utility.yul\":9293:9355   */\n      pop\n      jump\t// out\n        /* \"#utility.yul\":9361:9469   */\n    tag_91:\n        /* \"#utility.yul\":9443:9444   */\n      0x05\n        /* \"#utility.yul\":9436:9441   */\n      dup2\n        /* \"#utility.yul\":9433:9445   */\n      lt\n        /* \"#utility.yul\":9423:9425   */\n      tag_197\n      jumpi\n        /* \"#utility.yul\":9459:9460   */\n      0x00\n        /* \"#utility.yul\":9456:9457   */\n      dup1\n        /* \"#utility.yul\":9449:9461   */\n      revert\n        /* \"#utility.yul\":9423:9425   */\n    tag_197:\n        /* \"#utility.yul\":9413:9469   */\n      pop\n      jump\t// out\n        /* \"#utility.yul\":9475:9597   */\n    tag_99:\n        /* \"#utility.yul\":9548:9572   */\n      tag_199\n        /* \"#utility.yul\":9566:9571   */\n      dup2\n        /* \"#utility.yul\":9548:9572   */\n      tag_142\n      jump\t// in\n    tag_199:\n        /* \"#utility.yul\":9541:9546   */\n      dup2\n        /* \"#utility.yul\":9538:9573   */\n      eq\n        /* \"#utility.yul\":9528:9530   */\n      tag_200\n      jumpi\n        /* \"#utility.yul\":9587:9588   */\n      0x00\n        /* \"#utility.yul\":9584:9585   */\n      dup1\n        /* \"#utility.yul\":9577:9589   */\n      revert\n        /* \"#utility.yul\":9528:9530   */\n    tag_200:\n        /* \"#utility.yul\":9518:9597   */\n      pop\n      jump\t// out\n\n    auxdata: 0xa26469706673582212202795bba779c35d988abeb67090ebe37d5a8f12f3e4b6e61aa64b6e3e98521acb64736f6c63430008000033\n}\n",
				"bytecode": {
					"linkReferences": {},
					"object": "608060405234801561001057600080fd5b50336000806101000a81548173ffffffffffffffffffffffffffffffffffffffff021916908373ffffffffffffffffffffffffffffffffffffffff160217905550610e4b806100606000396000f3fe608060405234801561001057600080fd5b50600436106100575760003560e01c80632b1a8e551461005c578063365b98b2146100785780639108e933146100aa578063a85c38ef146100c6578063d51af2bf146100f8575b600080fd5b61007660048036038101906100719190610994565b610114565b005b610092600480360381019061008d919061092f565b61028c565b6040516100a193929190610b6e565b60405180910390f35b6100c460048036038101906100bf9190610958565b61035e565b005b6100e060048036038101906100db919061092f565b610574565b6040516100ef93929190610bac565b60405180910390f35b610112600480360381019061010d9190610994565b610633565b005b6002600083815260200190815260200160002060009054906101000a900460ff1615610175576040517f08c379a000000000000000000000000000000000000000000000000000000000815260040161016c90610b4e565b60405180910390fd5b6040518060600160405280838152602001828152602001600060048111156101c6577f4e487b7100000000000000000000000000000000000000000000000000000000600052602160045260246000fd5b815250600160008481526020019081526020016000206000820151816000015560208201518160010190805190602001906102029291906107fa565b5060408201518160020160006101000a81548160ff02191690836004811115610254577f4e487b7100000000000000000000000000000000000000000000000000000000600052602160045260246000fd5b021790555090505060016002600084815260200190815260200160002060006101000a81548160ff0219169083151502179055505050565b60036020528060005260406000206000915090508060000154908060010180546102b590610d0a565b80601f01602080910402602001604051908101604052809291908181526020018280546102e190610d0a565b801561032e5780601f106103035761010080835404028352916020019161032e565b820191906000526020600020905b81548152906001019060200180831161031157829003601f168201915b5050505050908060020160009054906101000a900473ffffffffffffffffffffffffffffffffffffffff16905083565b3373ffffffffffffffffffffffffffffffffffffffff1660008054906101000a900473ffffffffffffffffffffffffffffffffffffffff1673ffffffffffffffffffffffffffffffffffffffff16146103ec576040517f08c379a00000000000000000000000000000000000000000000000000000000081526004016103e390610b2e565b60405180910390fd5b604051806060016040528083815260200160016000858152602001908152602001600020600101805461041e90610d0a565b80601f016020809104026020016040519081016040528092919081815260200182805461044a90610d0a565b80156104975780601f1061046c57610100808354040283529160200191610497565b820191906000526020600020905b81548152906001019060200180831161047a57829003601f168201915b505050505081526020018260048111156104da577f4e487b7100000000000000000000000000000000000000000000000000000000600052602160045260246000fd5b815250600160008481526020019081526020016000206000820151816000015560208201518160010190805190602001906105169291906107fa565b5060408201518160020160006101000a81548160ff02191690836004811115610568577f4e487b7100000000000000000000000000000000000000000000000000000000600052602160045260246000fd5b02179055509050505050565b600160205280600052604060002060009150905080600001549080600101805461059d90610d0a565b80601f01602080910402602001604051908101604052809291908181526020018280546105c990610d0a565b80156106165780601f106105eb57610100808354040283529160200191610616565b820191906000526020600020905b8154815290600101906020018083116105f957829003601f168201915b5050505050908060020160009054906101000a900460ff16905083565b600460003373ffffffffffffffffffffffffffffffffffffffff1673ffffffffffffffffffffffffffffffffffffffff16815260200190815260200160002060009054906101000a900460ff16156106c0576040517f08c379a00000000000000000000000000000000000000000000000000000000081526004016106b790610b0e565b60405180910390fd5b600582908060018154018082558091505060019003906000526020600020016000909190919091505560405180606001604052808381526020018281526020013373ffffffffffffffffffffffffffffffffffffffff16815250600360008481526020019081526020016000206000820151816000015560208201518160010190805190602001906107539291906107fa565b5060408201518160020160006101000a81548173ffffffffffffffffffffffffffffffffffffffff021916908373ffffffffffffffffffffffffffffffffffffffff1602179055509050506001600460003373ffffffffffffffffffffffffffffffffffffffff1673ffffffffffffffffffffffffffffffffffffffff16815260200190815260200160002060006101000a81548160ff0219169083151502179055505050565b82805461080690610d0a565b90600052602060002090601f016020900481019282610828576000855561086f565b82601f1061084157805160ff191683800117855561086f565b8280016001018555821561086f579182015b8281111561086e578251825591602001919060010190610853565b5b50905061087c9190610880565b5090565b5b80821115610899576000816000905550600101610881565b5090565b60006108b06108ab84610c1b565b610bea565b9050828152602081018484840111156108c857600080fd5b6108d3848285610cc8565b509392505050565b6000813590506108ea81610dee565b92915050565b600082601f83011261090157600080fd5b813561091184826020860161089d565b91505092915050565b60008135905061092981610dfe565b92915050565b60006020828403121561094157600080fd5b600061094f8482850161091a565b91505092915050565b6000806040838503121561096b57600080fd5b60006109798582860161091a565b925050602061098a858286016108db565b9150509250929050565b600080604083850312156109a757600080fd5b60006109b58582860161091a565b925050602083013567ffffffffffffffff8111156109d257600080fd5b6109de858286016108f0565b9150509250929050565b6109f181610c67565b82525050565b610a0081610cb6565b82525050565b6000610a1182610c4b565b610a1b8185610c56565b9350610a2b818560208601610cd7565b610a3481610dc9565b840191505092915050565b6000610a4c601783610c56565b91507f7573657220616c726561647920726567697374657265640000000000000000006000830152602082019050919050565b6000610a8c600d83610c56565b91507f4163636573732044656e696564000000000000000000000000000000000000006000830152602082019050919050565b6000610acc600f83610c56565b91507f416c7265616479204f72646572656400000000000000000000000000000000006000830152602082019050919050565b610b0881610cac565b82525050565b60006020820190508181036000830152610b2781610a3f565b9050919050565b60006020820190508181036000830152610b4781610a7f565b9050919050565b60006020820190508181036000830152610b6781610abf565b9050919050565b6000606082019050610b836000830186610aff565b8181036020830152610b958185610a06565b9050610ba460408301846109e8565b949350505050565b6000606082019050610bc16000830186610aff565b8181036020830152610bd38185610a06565b9050610be260408301846109f7565b949350505050565b6000604051905081810181811067ffffffffffffffff82111715610c1157610c10610d9a565b5b8060405250919050565b600067ffffffffffffffff821115610c3657610c35610d9a565b5b601f19601f8301169050602081019050919050565b600081519050919050565b600082825260208201905092915050565b6000610c7282610c8c565b9050919050565b6000819050610c8782610dda565b919050565b600073ffffffffffffffffffffffffffffffffffffffff82169050919050565b6000819050919050565b6000610cc182610c79565b9050919050565b82818337600083830152505050565b60005b83811015610cf5578082015181840152602081019050610cda565b83811115610d04576000848401525b50505050565b60006002820490506001821680610d2257607f821691505b60208210811415610d3657610d35610d6b565b5b50919050565b7f4e487b7100000000000000000000000000000000000000000000000000000000600052602160045260246000fd5b7f4e487b7100000000000000000000000000000000000000000000000000000000600052602260045260246000fd5b7f4e487b7100000000000000000000000000000000000000000000000000000000600052604160045260246000fd5b6000601f19601f8301169050919050565b60058110610deb57610dea610d3c565b5b50565b60058110610dfb57600080fd5b50565b610e0781610cac565b8114610e1257600080fd5b5056fea26469706673582212202795bba779c35d988abeb67090ebe37d5a8f12f3e4b6e61aa64b6e3e98521acb64736f6c63430008000033",
					"opcodes": "PUSH1 0x80 PUSH1 0x40 MSTORE CALLVALUE DUP1 ISZERO PUSH2 0x10 JUMPI PUSH1 0x0 DUP1 REVERT JUMPDEST POP CALLER PUSH1 0x0 DUP1 PUSH2 0x100 EXP DUP2 SLOAD DUP2 PUSH20 0xFFFFFFFFFFFFFFFFFFFFFFFFFFFFFFFFFFFFFFFF MUL NOT AND SWAP1 DUP4 PUSH20 0xFFFFFFFFFFFFFFFFFFFFFFFFFFFFFFFFFFFFFFFF AND MUL OR SWAP1 SSTORE POP PUSH2 0xE4B DUP1 PUSH2 0x60 PUSH1 0x0 CODECOPY PUSH1 0x0 RETURN INVALID PUSH1 0x80 PUSH1 0x40 MSTORE CALLVALUE DUP1 ISZERO PUSH2 0x10 JUMPI PUSH1 0x0 DUP1 REVERT JUMPDEST POP PUSH1 0x4 CALLDATASIZE LT PUSH2 0x57 JUMPI PUSH1 0x0 CALLDATALOAD PUSH1 0xE0 SHR DUP1 PUSH4 0x2B1A8E55 EQ PUSH2 0x5C JUMPI DUP1 PUSH4 0x365B98B2 EQ PUSH2 0x78 JUMPI DUP1 PUSH4 0x9108E933 EQ PUSH2 0xAA JUMPI DUP1 PUSH4 0xA85C38EF EQ PUSH2 0xC6 JUMPI DUP1 PUSH4 0xD51AF2BF EQ PUSH2 0xF8 JUMPI JUMPDEST PUSH1 0x0 DUP1 REVERT JUMPDEST PUSH2 0x76 PUSH1 0x4 DUP1 CALLDATASIZE SUB DUP2 ADD SWAP1 PUSH2 0x71 SWAP2 SWAP1 PUSH2 0x994 JUMP JUMPDEST PUSH2 0x114 JUMP JUMPDEST STOP JUMPDEST PUSH2 0x92 PUSH1 0x4 DUP1 CALLDATASIZE SUB DUP2 ADD SWAP1 PUSH2 0x8D SWAP2 SWAP1 PUSH2 0x92F JUMP JUMPDEST PUSH2 0x28C JUMP JUMPDEST PUSH1 0x40 MLOAD PUSH2 0xA1 SWAP4 SWAP3 SWAP2 SWAP1 PUSH2 0xB6E JUMP JUMPDEST PUSH1 0x40 MLOAD DUP1 SWAP2 SUB SWAP1 RETURN JUMPDEST PUSH2 0xC4 PUSH1 0x4 DUP1 CALLDATASIZE SUB DUP2 ADD SWAP1 PUSH2 0xBF SWAP2 SWAP1 PUSH2 0x958 JUMP JUMPDEST PUSH2 0x35E JUMP JUMPDEST STOP JUMPDEST PUSH2 0xE0 PUSH1 0x4 DUP1 CALLDATASIZE SUB DUP2 ADD SWAP1 PUSH2 0xDB SWAP2 SWAP1 PUSH2 0x92F JUMP JUMPDEST PUSH2 0x574 JUMP JUMPDEST PUSH1 0x40 MLOAD PUSH2 0xEF SWAP4 SWAP3 SWAP2 SWAP1 PUSH2 0xBAC JUMP JUMPDEST PUSH1 0x40 MLOAD DUP1 SWAP2 SUB SWAP1 RETURN JUMPDEST PUSH2 0x112 PUSH1 0x4 DUP1 CALLDATASIZE SUB DUP2 ADD SWAP1 PUSH2 0x10D SWAP2 SWAP1 PUSH2 0x994 JUMP JUMPDEST PUSH2 0x633 JUMP JUMPDEST STOP JUMPDEST PUSH1 0x2 PUSH1 0x0 DUP4 DUP2 MSTORE PUSH1 0x20 ADD SWAP1 DUP2 MSTORE PUSH1 0x20 ADD PUSH1 0x0 KECCAK256 PUSH1 0x0 SWAP1 SLOAD SWAP1 PUSH2 0x100 EXP SWAP1 DIV PUSH1 0xFF AND ISZERO PUSH2 0x175 JUMPI PUSH1 0x40 MLOAD PUSH32 0x8C379A000000000000000000000000000000000000000000000000000000000 DUP2 MSTORE PUSH1 0x4 ADD PUSH2 0x16C SWAP1 PUSH2 0xB4E JUMP JUMPDEST PUSH1 0x40 MLOAD DUP1 SWAP2 SUB SWAP1 REVERT JUMPDEST PUSH1 0x40 MLOAD DUP1 PUSH1 0x60 ADD PUSH1 0x40 MSTORE DUP1 DUP4 DUP2 MSTORE PUSH1 0x20 ADD DUP3 DUP2 MSTORE PUSH1 0x20 ADD PUSH1 0x0 PUSH1 0x4 DUP2 GT ISZERO PUSH2 0x1C6 JUMPI PUSH32 0x4E487B7100000000000000000000000000000000000000000000000000000000 PUSH1 0x0 MSTORE PUSH1 0x21 PUSH1 0x4 MSTORE PUSH1 0x24 PUSH1 0x0 REVERT JUMPDEST DUP2 MSTORE POP PUSH1 0x1 PUSH1 0x0 DUP5 DUP2 MSTORE PUSH1 0x20 ADD SWAP1 DUP2 MSTORE PUSH1 0x20 ADD PUSH1 0x0 KECCAK256 PUSH1 0x0 DUP3 ADD MLOAD DUP2 PUSH1 0x0 ADD SSTORE PUSH1 0x20 DUP3 ADD MLOAD DUP2 PUSH1 0x1 ADD SWAP1 DUP1 MLOAD SWAP1 PUSH1 0x20 ADD SWAP1 PUSH2 0x202 SWAP3 SWAP2 SWAP1 PUSH2 0x7FA JUMP JUMPDEST POP PUSH1 0x40 DUP3 ADD MLOAD DUP2 PUSH1 0x2 ADD PUSH1 0x0 PUSH2 0x100 EXP DUP2 SLOAD DUP2 PUSH1 0xFF MUL NOT AND SWAP1 DUP4 PUSH1 0x4 DUP2 GT ISZERO PUSH2 0x254 JUMPI PUSH32 0x4E487B7100000000000000000000000000000000000000000000000000000000 PUSH1 0x0 MSTORE PUSH1 0x21 PUSH1 0x4 MSTORE PUSH1 0x24 PUSH1 0x0 REVERT JUMPDEST MUL OR SWAP1 SSTORE POP SWAP1 POP POP PUSH1 0x1 PUSH1 0x2 PUSH1 0x0 DUP5 DUP2 MSTORE PUSH1 0x20 ADD SWAP1 DUP2 MSTORE PUSH1 0x20 ADD PUSH1 0x0 KECCAK256 PUSH1 0x0 PUSH2 0x100 EXP DUP2 SLOAD DUP2 PUSH1 0xFF MUL NOT AND SWAP1 DUP4 ISZERO ISZERO MUL OR SWAP1 SSTORE POP POP POP JUMP JUMPDEST PUSH1 0x3 PUSH1 0x20 MSTORE DUP1 PUSH1 0x0 MSTORE PUSH1 0x40 PUSH1 0x0 KECCAK256 PUSH1 0x0 SWAP2 POP SWAP1 POP DUP1 PUSH1 0x0 ADD SLOAD SWAP1 DUP1 PUSH1 0x1 ADD DUP1 SLOAD PUSH2 0x2B5 SWAP1 PUSH2 0xD0A JUMP JUMPDEST DUP1 PUSH1 0x1F ADD PUSH1 0x20 DUP1 SWAP2 DIV MUL PUSH1 0x20 ADD PUSH1 0x40 MLOAD SWAP1 DUP2 ADD PUSH1 0x40 MSTORE DUP1 SWAP3 SWAP2 SWAP1 DUP2 DUP2 MSTORE PUSH1 0x20 ADD DUP3 DUP1 SLOAD PUSH2 0x2E1 SWAP1 PUSH2 0xD0A JUMP JUMPDEST DUP1 ISZERO PUSH2 0x32E JUMPI DUP1 PUSH1 0x1F LT PUSH2 0x303 JUMPI PUSH2 0x100 DUP1 DUP4 SLOAD DIV MUL DUP4 MSTORE SWAP2 PUSH1 0x20 ADD SWAP2 PUSH2 0x32E JUMP JUMPDEST DUP3 ADD SWAP2 SWAP1 PUSH1 0x0 MSTORE PUSH1 0x20 PUSH1 0x0 KECCAK256 SWAP1 JUMPDEST DUP2 SLOAD DUP2 MSTORE SWAP1 PUSH1 0x1 ADD SWAP1 PUSH1 0x20 ADD DUP1 DUP4 GT PUSH2 0x311 JUMPI DUP3 SWAP1 SUB PUSH1 0x1F AND DUP3 ADD SWAP2 JUMPDEST POP POP POP POP POP SWAP1 DUP1 PUSH1 0x2 ADD PUSH1 0x0 SWAP1 SLOAD SWAP1 PUSH2 0x100 EXP SWAP1 DIV PUSH20 0xFFFFFFFFFFFFFFFFFFFFFFFFFFFFFFFFFFFFFFFF AND SWAP1 POP DUP4 JUMP JUMPDEST CALLER PUSH20 0xFFFFFFFFFFFFFFFFFFFFFFFFFFFFFFFFFFFFFFFF AND PUSH1 0x0 DUP1 SLOAD SWAP1 PUSH2 0x100 EXP SWAP1 DIV PUSH20 0xFFFFFFFFFFFFFFFFFFFFFFFFFFFFFFFFFFFFFFFF AND PUSH20 0xFFFFFFFFFFFFFFFFFFFFFFFFFFFFFFFFFFFFFFFF AND EQ PUSH2 0x3EC JUMPI PUSH1 0x40 MLOAD PUSH32 0x8C379A000000000000000000000000000000000000000000000000000000000 DUP2 MSTORE PUSH1 0x4 ADD PUSH2 0x3E3 SWAP1 PUSH2 0xB2E JUMP JUMPDEST PUSH1 0x40 MLOAD DUP1 SWAP2 SUB SWAP1 REVERT JUMPDEST PUSH1 0x40 MLOAD DUP1 PUSH1 0x60 ADD PUSH1 0x40 MSTORE DUP1 DUP4 DUP2 MSTORE PUSH1 0x20 ADD PUSH1 0x1 PUSH1 0x0 DUP6 DUP2 MSTORE PUSH1 0x20 ADD SWAP1 DUP2 MSTORE PUSH1 0x20 ADD PUSH1 0x0 KECCAK256 PUSH1 0x1 ADD DUP1 SLOAD PUSH2 0x41E SWAP1 PUSH2 0xD0A JUMP JUMPDEST DUP1 PUSH1 0x1F ADD PUSH1 0x20 DUP1 SWAP2 DIV MUL PUSH1 0x20 ADD PUSH1 0x40 MLOAD SWAP1 DUP2 ADD PUSH1 0x40 MSTORE DUP1 SWAP3 SWAP2 SWAP1 DUP2 DUP2 MSTORE PUSH1 0x20 ADD DUP3 DUP1 SLOAD PUSH2 0x44A SWAP1 PUSH2 0xD0A JUMP JUMPDEST DUP1 ISZERO PUSH2 0x497 JUMPI DUP1 PUSH1 0x1F LT PUSH2 0x46C JUMPI PUSH2 0x100 DUP1 DUP4 SLOAD DIV MUL DUP4 MSTORE SWAP2 PUSH1 0x20 ADD SWAP2 PUSH2 0x497 JUMP JUMPDEST DUP3 ADD SWAP2 SWAP1 PUSH1 0x0 MSTORE PUSH1 0x20 PUSH1 0x0 KECCAK256 SWAP1 JUMPDEST DUP2 SLOAD DUP2 MSTORE SWAP1 PUSH1 0x1 ADD SWAP1 PUSH1 0x20 ADD DUP1 DUP4 GT PUSH2 0x47A JUMPI DUP3 SWAP1 SUB PUSH1 0x1F AND DUP3 ADD SWAP2 JUMPDEST POP POP POP POP POP DUP2 MSTORE PUSH1 0x20 ADD DUP3 PUSH1 0x4 DUP2 GT ISZERO PUSH2 0x4DA JUMPI PUSH32 0x4E487B7100000000000000000000000000000000000000000000000000000000 PUSH1 0x0 MSTORE PUSH1 0x21 PUSH1 0x4 MSTORE PUSH1 0x24 PUSH1 0x0 REVERT JUMPDEST DUP2 MSTORE POP PUSH1 0x1 PUSH1 0x0 DUP5 DUP2 MSTORE PUSH1 0x20 ADD SWAP1 DUP2 MSTORE PUSH1 0x20 ADD PUSH1 0x0 KECCAK256 PUSH1 0x0 DUP3 ADD MLOAD DUP2 PUSH1 0x0 ADD SSTORE PUSH1 0x20 DUP3 ADD MLOAD DUP2 PUSH1 0x1 ADD SWAP1 DUP1 MLOAD SWAP1 PUSH1 0x20 ADD SWAP1 PUSH2 0x516 SWAP3 SWAP2 SWAP1 PUSH2 0x7FA JUMP JUMPDEST POP PUSH1 0x40 DUP3 ADD MLOAD DUP2 PUSH1 0x2 ADD PUSH1 0x0 PUSH2 0x100 EXP DUP2 SLOAD DUP2 PUSH1 0xFF MUL NOT AND SWAP1 DUP4 PUSH1 0x4 DUP2 GT ISZERO PUSH2 0x568 JUMPI PUSH32 0x4E487B7100000000000000000000000000000000000000000000000000000000 PUSH1 0x0 MSTORE PUSH1 0x21 PUSH1 0x4 MSTORE PUSH1 0x24 PUSH1 0x0 REVERT JUMPDEST MUL OR SWAP1 SSTORE POP SWAP1 POP POP POP POP JUMP JUMPDEST PUSH1 0x1 PUSH1 0x20 MSTORE DUP1 PUSH1 0x0 MSTORE PUSH1 0x40 PUSH1 0x0 KECCAK256 PUSH1 0x0 SWAP2 POP SWAP1 POP DUP1 PUSH1 0x0 ADD SLOAD SWAP1 DUP1 PUSH1 0x1 ADD DUP1 SLOAD PUSH2 0x59D SWAP1 PUSH2 0xD0A JUMP JUMPDEST DUP1 PUSH1 0x1F ADD PUSH1 0x20 DUP1 SWAP2 DIV MUL PUSH1 0x20 ADD PUSH1 0x40 MLOAD SWAP1 DUP2 ADD PUSH1 0x40 MSTORE DUP1 SWAP3 SWAP2 SWAP1 DUP2 DUP2 MSTORE PUSH1 0x20 ADD DUP3 DUP1 SLOAD PUSH2 0x5C9 SWAP1 PUSH2 0xD0A JUMP JUMPDEST DUP1 ISZERO PUSH2 0x616 JUMPI DUP1 PUSH1 0x1F LT PUSH2 0x5EB JUMPI PUSH2 0x100 DUP1 DUP4 SLOAD DIV MUL DUP4 MSTORE SWAP2 PUSH1 0x20 ADD SWAP2 PUSH2 0x616 JUMP JUMPDEST DUP3 ADD SWAP2 SWAP1 PUSH1 0x0 MSTORE PUSH1 0x20 PUSH1 0x0 KECCAK256 SWAP1 JUMPDEST DUP2 SLOAD DUP2 MSTORE SWAP1 PUSH1 0x1 ADD SWAP1 PUSH1 0x20 ADD DUP1 DUP4 GT PUSH2 0x5F9 JUMPI DUP3 SWAP1 SUB PUSH1 0x1F AND DUP3 ADD SWAP2 JUMPDEST POP POP POP POP POP SWAP1 DUP1 PUSH1 0x2 ADD PUSH1 0x0 SWAP1 SLOAD SWAP1 PUSH2 0x100 EXP SWAP1 DIV PUSH1 0xFF AND SWAP1 POP DUP4 JUMP JUMPDEST PUSH1 0x4 PUSH1 0x0 CALLER PUSH20 0xFFFFFFFFFFFFFFFFFFFFFFFFFFFFFFFFFFFFFFFF AND PUSH20 0xFFFFFFFFFFFFFFFFFFFFFFFFFFFFFFFFFFFFFFFF AND DUP2 MSTORE PUSH1 0x20 ADD SWAP1 DUP2 MSTORE PUSH1 0x20 ADD PUSH1 0x0 KECCAK256 PUSH1 0x0 SWAP1 SLOAD SWAP1 PUSH2 0x100 EXP SWAP1 DIV PUSH1 0xFF AND ISZERO PUSH2 0x6C0 JUMPI PUSH1 0x40 MLOAD PUSH32 0x8C379A000000000000000000000000000000000000000000000000000000000 DUP2 MSTORE PUSH1 0x4 ADD PUSH2 0x6B7 SWAP1 PUSH2 0xB0E JUMP JUMPDEST PUSH1 0x40 MLOAD DUP1 SWAP2 SUB SWAP1 REVERT JUMPDEST PUSH1 0x5 DUP3 SWAP1 DUP1 PUSH1 0x1 DUP2 SLOAD ADD DUP1 DUP3 SSTORE DUP1 SWAP2 POP POP PUSH1 0x1 SWAP1 SUB SWAP1 PUSH1 0x0 MSTORE PUSH1 0x20 PUSH1 0x0 KECCAK256 ADD PUSH1 0x0 SWAP1 SWAP2 SWAP1 SWAP2 SWAP1 SWAP2 POP SSTORE PUSH1 0x40 MLOAD DUP1 PUSH1 0x60 ADD PUSH1 0x40 MSTORE DUP1 DUP4 DUP2 MSTORE PUSH1 0x20 ADD DUP3 DUP2 MSTORE PUSH1 0x20 ADD CALLER PUSH20 0xFFFFFFFFFFFFFFFFFFFFFFFFFFFFFFFFFFFFFFFF AND DUP2 MSTORE POP PUSH1 0x3 PUSH1 0x0 DUP5 DUP2 MSTORE PUSH1 0x20 ADD SWAP1 DUP2 MSTORE PUSH1 0x20 ADD PUSH1 0x0 KECCAK256 PUSH1 0x0 DUP3 ADD MLOAD DUP2 PUSH1 0x0 ADD SSTORE PUSH1 0x20 DUP3 ADD MLOAD DUP2 PUSH1 0x1 ADD SWAP1 DUP1 MLOAD SWAP1 PUSH1 0x20 ADD SWAP1 PUSH2 0x753 SWAP3 SWAP2 SWAP1 PUSH2 0x7FA JUMP JUMPDEST POP PUSH1 0x40 DUP3 ADD MLOAD DUP2 PUSH1 0x2 ADD PUSH1 0x0 PUSH2 0x100 EXP DUP2 SLOAD DUP2 PUSH20 0xFFFFFFFFFFFFFFFFFFFFFFFFFFFFFFFFFFFFFFFF MUL NOT AND SWAP1 DUP4 PUSH20 0xFFFFFFFFFFFFFFFFFFFFFFFFFFFFFFFFFFFFFFFF AND MUL OR SWAP1 SSTORE POP SWAP1 POP POP PUSH1 0x1 PUSH1 0x4 PUSH1 0x0 CALLER PUSH20 0xFFFFFFFFFFFFFFFFFFFFFFFFFFFFFFFFFFFFFFFF AND PUSH20 0xFFFFFFFFFFFFFFFFFFFFFFFFFFFFFFFFFFFFFFFF AND DUP2 MSTORE PUSH1 0x20 ADD SWAP1 DUP2 MSTORE PUSH1 0x20 ADD PUSH1 0x0 KECCAK256 PUSH1 0x0 PUSH2 0x100 EXP DUP2 SLOAD DUP2 PUSH1 0xFF MUL NOT AND SWAP1 DUP4 ISZERO ISZERO MUL OR SWAP1 SSTORE POP POP POP JUMP JUMPDEST DUP3 DUP1 SLOAD PUSH2 0x806 SWAP1 PUSH2 0xD0A JUMP JUMPDEST SWAP1 PUSH1 0x0 MSTORE PUSH1 0x20 PUSH1 0x0 KECCAK256 SWAP1 PUSH1 0x1F ADD PUSH1 0x20 SWAP1 DIV DUP2 ADD SWAP3 DUP3 PUSH2 0x828 JUMPI PUSH1 0x0 DUP6 SSTORE PUSH2 0x86F JUMP JUMPDEST DUP3 PUSH1 0x1F LT PUSH2 0x841 JUMPI DUP1 MLOAD PUSH1 0xFF NOT AND DUP4 DUP1 ADD OR DUP6 SSTORE PUSH2 0x86F JUMP JUMPDEST DUP3 DUP1 ADD PUSH1 0x1 ADD DUP6 SSTORE DUP3 ISZERO PUSH2 0x86F JUMPI SWAP2 DUP3 ADD JUMPDEST DUP3 DUP2 GT ISZERO PUSH2 0x86E JUMPI DUP3 MLOAD DUP3 SSTORE SWAP2 PUSH1 0x20 ADD SWAP2 SWAP1 PUSH1 0x1 ADD SWAP1 PUSH2 0x853 JUMP JUMPDEST JUMPDEST POP SWAP1 POP PUSH2 0x87C SWAP2 SWAP1 PUSH2 0x880 JUMP JUMPDEST POP SWAP1 JUMP JUMPDEST JUMPDEST DUP1 DUP3 GT ISZERO PUSH2 0x899 JUMPI PUSH1 0x0 DUP2 PUSH1 0x0 SWAP1 SSTORE POP PUSH1 0x1 ADD PUSH2 0x881 JUMP JUMPDEST POP SWAP1 JUMP JUMPDEST PUSH1 0x0 PUSH2 0x8B0 PUSH2 0x8AB DUP5 PUSH2 0xC1B JUMP JUMPDEST PUSH2 0xBEA JUMP JUMPDEST SWAP1 POP DUP3 DUP2 MSTORE PUSH1 0x20 DUP2 ADD DUP5 DUP5 DUP5 ADD GT ISZERO PUSH2 0x8C8 JUMPI PUSH1 0x0 DUP1 REVERT JUMPDEST PUSH2 0x8D3 DUP5 DUP3 DUP6 PUSH2 0xCC8 JUMP JUMPDEST POP SWAP4 SWAP3 POP POP POP JUMP JUMPDEST PUSH1 0x0 DUP2 CALLDATALOAD SWAP1 POP PUSH2 0x8EA DUP2 PUSH2 0xDEE JUMP JUMPDEST SWAP3 SWAP2 POP POP JUMP JUMPDEST PUSH1 0x0 DUP3 PUSH1 0x1F DUP4 ADD SLT PUSH2 0x901 JUMPI PUSH1 0x0 DUP1 REVERT JUMPDEST DUP2 CALLDATALOAD PUSH2 0x911 DUP5 DUP3 PUSH1 0x20 DUP7 ADD PUSH2 0x89D JUMP JUMPDEST SWAP2 POP POP SWAP3 SWAP2 POP POP JUMP JUMPDEST PUSH1 0x0 DUP2 CALLDATALOAD SWAP1 POP PUSH2 0x929 DUP2 PUSH2 0xDFE JUMP JUMPDEST SWAP3 SWAP2 POP POP JUMP JUMPDEST PUSH1 0x0 PUSH1 0x20 DUP3 DUP5 SUB SLT ISZERO PUSH2 0x941 JUMPI PUSH1 0x0 DUP1 REVERT JUMPDEST PUSH1 0x0 PUSH2 0x94F DUP5 DUP3 DUP6 ADD PUSH2 0x91A JUMP JUMPDEST SWAP2 POP POP SWAP3 SWAP2 POP POP JUMP JUMPDEST PUSH1 0x0 DUP1 PUSH1 0x40 DUP4 DUP6 SUB SLT ISZERO PUSH2 0x96B JUMPI PUSH1 0x0 DUP1 REVERT JUMPDEST PUSH1 0x0 PUSH2 0x979 DUP6 DUP3 DUP7 ADD PUSH2 0x91A JUMP JUMPDEST SWAP3 POP POP PUSH1 0x20 PUSH2 0x98A DUP6 DUP3 DUP7 ADD PUSH2 0x8DB JUMP JUMPDEST SWAP2 POP POP SWAP3 POP SWAP3 SWAP1 POP JUMP JUMPDEST PUSH1 0x0 DUP1 PUSH1 0x40 DUP4 DUP6 SUB SLT ISZERO PUSH2 0x9A7 JUMPI PUSH1 0x0 DUP1 REVERT JUMPDEST PUSH1 0x0 PUSH2 0x9B5 DUP6 DUP3 DUP7 ADD PUSH2 0x91A JUMP JUMPDEST SWAP3 POP POP PUSH1 0x20 DUP4 ADD CALLDATALOAD PUSH8 0xFFFFFFFFFFFFFFFF DUP2 GT ISZERO PUSH2 0x9D2 JUMPI PUSH1 0x0 DUP1 REVERT JUMPDEST PUSH2 0x9DE DUP6 DUP3 DUP7 ADD PUSH2 0x8F0 JUMP JUMPDEST SWAP2 POP POP SWAP3 POP SWAP3 SWAP1 POP JUMP JUMPDEST PUSH2 0x9F1 DUP2 PUSH2 0xC67 JUMP JUMPDEST DUP3 MSTORE POP POP JUMP JUMPDEST PUSH2 0xA00 DUP2 PUSH2 0xCB6 JUMP JUMPDEST DUP3 MSTORE POP POP JUMP JUMPDEST PUSH1 0x0 PUSH2 0xA11 DUP3 PUSH2 0xC4B JUMP JUMPDEST PUSH2 0xA1B DUP2 DUP6 PUSH2 0xC56 JUMP JUMPDEST SWAP4 POP PUSH2 0xA2B DUP2 DUP6 PUSH1 0x20 DUP7 ADD PUSH2 0xCD7 JUMP JUMPDEST PUSH2 0xA34 DUP2 PUSH2 0xDC9 JUMP JUMPDEST DUP5 ADD SWAP2 POP POP SWAP3 SWAP2 POP POP JUMP JUMPDEST PUSH1 0x0 PUSH2 0xA4C PUSH1 0x17 DUP4 PUSH2 0xC56 JUMP JUMPDEST SWAP2 POP PUSH32 0x7573657220616C72656164792072656769737465726564000000000000000000 PUSH1 0x0 DUP4 ADD MSTORE PUSH1 0x20 DUP3 ADD SWAP1 POP SWAP2 SWAP1 POP JUMP JUMPDEST PUSH1 0x0 PUSH2 0xA8C PUSH1 0xD DUP4 PUSH2 0xC56 JUMP JUMPDEST SWAP2 POP PUSH32 0x4163636573732044656E69656400000000000000000000000000000000000000 PUSH1 0x0 DUP4 ADD MSTORE PUSH1 0x20 DUP3 ADD SWAP1 POP SWAP2 SWAP1 POP JUMP JUMPDEST PUSH1 0x0 PUSH2 0xACC PUSH1 0xF DUP4 PUSH2 0xC56 JUMP JUMPDEST SWAP2 POP PUSH32 0x416C7265616479204F7264657265640000000000000000000000000000000000 PUSH1 0x0 DUP4 ADD MSTORE PUSH1 0x20 DUP3 ADD SWAP1 POP SWAP2 SWAP1 POP JUMP JUMPDEST PUSH2 0xB08 DUP2 PUSH2 0xCAC JUMP JUMPDEST DUP3 MSTORE POP POP JUMP JUMPDEST PUSH1 0x0 PUSH1 0x20 DUP3 ADD SWAP1 POP DUP2 DUP2 SUB PUSH1 0x0 DUP4 ADD MSTORE PUSH2 0xB27 DUP2 PUSH2 0xA3F JUMP JUMPDEST SWAP1 POP SWAP2 SWAP1 POP JUMP JUMPDEST PUSH1 0x0 PUSH1 0x20 DUP3 ADD SWAP1 POP DUP2 DUP2 SUB PUSH1 0x0 DUP4 ADD MSTORE PUSH2 0xB47 DUP2 PUSH2 0xA7F JUMP JUMPDEST SWAP1 POP SWAP2 SWAP1 POP JUMP JUMPDEST PUSH1 0x0 PUSH1 0x20 DUP3 ADD SWAP1 POP DUP2 DUP2 SUB PUSH1 0x0 DUP4 ADD MSTORE PUSH2 0xB67 DUP2 PUSH2 0xABF JUMP JUMPDEST SWAP1 POP SWAP2 SWAP1 POP JUMP JUMPDEST PUSH1 0x0 PUSH1 0x60 DUP3 ADD SWAP1 POP PUSH2 0xB83 PUSH1 0x0 DUP4 ADD DUP7 PUSH2 0xAFF JUMP JUMPDEST DUP2 DUP2 SUB PUSH1 0x20 DUP4 ADD MSTORE PUSH2 0xB95 DUP2 DUP6 PUSH2 0xA06 JUMP JUMPDEST SWAP1 POP PUSH2 0xBA4 PUSH1 0x40 DUP4 ADD DUP5 PUSH2 0x9E8 JUMP JUMPDEST SWAP5 SWAP4 POP POP POP POP JUMP JUMPDEST PUSH1 0x0 PUSH1 0x60 DUP3 ADD SWAP1 POP PUSH2 0xBC1 PUSH1 0x0 DUP4 ADD DUP7 PUSH2 0xAFF JUMP JUMPDEST DUP2 DUP2 SUB PUSH1 0x20 DUP4 ADD MSTORE PUSH2 0xBD3 DUP2 DUP6 PUSH2 0xA06 JUMP JUMPDEST SWAP1 POP PUSH2 0xBE2 PUSH1 0x40 DUP4 ADD DUP5 PUSH2 0x9F7 JUMP JUMPDEST SWAP5 SWAP4 POP POP POP POP JUMP JUMPDEST PUSH1 0x0 PUSH1 0x40 MLOAD SWAP1 POP DUP2 DUP2 ADD DUP2 DUP2 LT PUSH8 0xFFFFFFFFFFFFFFFF DUP3 GT OR ISZERO PUSH2 0xC11 JUMPI PUSH2 0xC10 PUSH2 0xD9A JUMP JUMPDEST JUMPDEST DUP1 PUSH1 0x40 MSTORE POP SWAP2 SWAP1 POP JUMP JUMPDEST PUSH1 0x0 PUSH8 0xFFFFFFFFFFFFFFFF DUP3 GT ISZERO PUSH2 0xC36 JUMPI PUSH2 0xC35 PUSH2 0xD9A JUMP JUMPDEST JUMPDEST PUSH1 0x1F NOT PUSH1 0x1F DUP4 ADD AND SWAP1 POP PUSH1 0x20 DUP2 ADD SWAP1 POP SWAP2 SWAP1 POP JUMP JUMPDEST PUSH1 0x0 DUP2 MLOAD SWAP1 POP SWAP2 SWAP1 POP JUMP JUMPDEST PUSH1 0x0 DUP3 DUP3 MSTORE PUSH1 0x20 DUP3 ADD SWAP1 POP SWAP3 SWAP2 POP POP JUMP JUMPDEST PUSH1 0x0 PUSH2 0xC72 DUP3 PUSH2 0xC8C JUMP JUMPDEST SWAP1 POP SWAP2 SWAP1 POP JUMP JUMPDEST PUSH1 0x0 DUP2 SWAP1 POP PUSH2 0xC87 DUP3 PUSH2 0xDDA JUMP JUMPDEST SWAP2 SWAP1 POP JUMP JUMPDEST PUSH1 0x0 PUSH20 0xFFFFFFFFFFFFFFFFFFFFFFFFFFFFFFFFFFFFFFFF DUP3 AND SWAP1 POP SWAP2 SWAP1 POP JUMP JUMPDEST PUSH1 0x0 DUP2 SWAP1 POP SWAP2 SWAP1 POP JUMP JUMPDEST PUSH1 0x0 PUSH2 0xCC1 DUP3 PUSH2 0xC79 JUMP JUMPDEST SWAP1 POP SWAP2 SWAP1 POP JUMP JUMPDEST DUP3 DUP2 DUP4 CALLDATACOPY PUSH1 0x0 DUP4 DUP4 ADD MSTORE POP POP POP JUMP JUMPDEST PUSH1 0x0 JUMPDEST DUP4 DUP2 LT ISZERO PUSH2 0xCF5 JUMPI DUP1 DUP3 ADD MLOAD DUP2 DUP5 ADD MSTORE PUSH1 0x20 DUP2 ADD SWAP1 POP PUSH2 0xCDA JUMP JUMPDEST DUP4 DUP2 GT ISZERO PUSH2 0xD04 JUMPI PUSH1 0x0 DUP5 DUP5 ADD MSTORE JUMPDEST POP POP POP POP JUMP JUMPDEST PUSH1 0x0 PUSH1 0x2 DUP3 DIV SWAP1 POP PUSH1 0x1 DUP3 AND DUP1 PUSH2 0xD22 JUMPI PUSH1 0x7F DUP3 AND SWAP2 POP JUMPDEST PUSH1 0x20 DUP3 LT DUP2 EQ ISZERO PUSH2 0xD36 JUMPI PUSH2 0xD35 PUSH2 0xD6B JUMP JUMPDEST JUMPDEST POP SWAP2 SWAP1 POP JUMP JUMPDEST PUSH32 0x4E487B7100000000000000000000000000000000000000000000000000000000 PUSH1 0x0 MSTORE PUSH1 0x21 PUSH1 0x4 MSTORE PUSH1 0x24 PUSH1 0x0 REVERT JUMPDEST PUSH32 0x4E487B7100000000000000000000000000000000000000000000000000000000 PUSH1 0x0 MSTORE PUSH1 0x22 PUSH1 0x4 MSTORE PUSH1 0x24 PUSH1 0x0 REVERT JUMPDEST PUSH32 0x4E487B7100000000000000000000000000000000000000000000000000000000 PUSH1 0x0 MSTORE PUSH1 0x41 PUSH1 0x4 MSTORE PUSH1 0x24 PUSH1 0x0 REVERT JUMPDEST PUSH1 0x0 PUSH1 0x1F NOT PUSH1 0x1F DUP4 ADD AND SWAP1 POP SWAP2 SWAP1 POP JUMP JUMPDEST PUSH1 0x5 DUP2 LT PUSH2 0xDEB JUMPI PUSH2 0xDEA PUSH2 0xD3C JUMP JUMPDEST JUMPDEST POP JUMP JUMPDEST PUSH1 0x5 DUP2 LT PUSH2 0xDFB JUMPI PUSH1 0x0 DUP1 REVERT JUMPDEST POP JUMP JUMPDEST PUSH2 0xE07 DUP2 PUSH2 0xCAC JUMP JUMPDEST DUP2 EQ PUSH2 0xE12 JUMPI PUSH1 0x0 DUP1 REVERT JUMPDEST POP JUMP INVALID LOG2 PUSH5 0x6970667358 0x22 SLT KECCAK256 0x27 SWAP6 0xBB 0xA7 PUSH26 0xC35D988ABEB67090EBE37D5A8F12F3E4B6E61AA64B6E3E98521A 0xCB PUSH5 0x736F6C6343 STOP ADDMOD STOP STOP CALLER "
				},
				"gasEstimates": {
					"creation": {
						"codeDepositCost": "731800",
						"executionCost": "21632",
						"totalCost": "753432"
					},
					"external": {
						"addOrder(uint256,string)": "infinite",
						"addUser(uint256,string)": "infinite",
						"orders(uint256)": "infinite",
						"updateOrder(uint256,uint8)": "infinite",
						"users(uint256)": "infinite"
					}
				},
				"methodIdentifiers": {
					"addOrder(uint256,string)": "2b1a8e55",
					"addUser(uint256,string)": "d51af2bf",
					"orders(uint256)": "a85c38ef",
					"updateOrder(uint256,uint8)": "9108e933",
					"users(uint256)": "365b98b2"
				}
			},
			"storageLayout": {
				"storage": [
					{
						"astId": 3,
						"contract": "learning/Orders.sol:Orders",
						"label": "owner",
						"offset": 0,
						"slot": "0",
						"type": "t_address"
					},
					{
						"astId": 43,
						"contract": "learning/Orders.sol:Orders",
						"label": "orders",
						"offset": 0,
						"slot": "1",
						"type": "t_mapping(t_uint256,t_struct(Order)38_storage)"
					},
					{
						"astId": 47,
						"contract": "learning/Orders.sol:Orders",
						"label": "isOrdered",
						"offset": 0,
						"slot": "2",
						"type": "t_mapping(t_uint256,t_bool)"
					},
					{
						"astId": 59,
						"contract": "learning/Orders.sol:Orders",
						"label": "users",
						"offset": 0,
						"slot": "3",
						"type": "t_mapping(t_uint256,t_struct(User)54_storage)"
					},
					{
						"astId": 63,
						"contract": "learning/Orders.sol:Orders",
						"label": "isRegistered",
						"offset": 0,
						"slot": "4",
						"type": "t_mapping(t_address,t_bool)"
					},
					{
						"astId": 66,
						"contract": "learning/Orders.sol:Orders",
						"label": "allUserIds",
						"offset": 0,
						"slot": "5",
						"type": "t_array(t_uint256)dyn_storage"
					}
				],
				"types": {
					"t_address": {
						"encoding": "inplace",
						"label": "address",
						"numberOfBytes": "20"
					},
					"t_array(t_uint256)dyn_storage": {
						"base": "t_uint256",
						"encoding": "dynamic_array",
						"label": "uint256[]",
						"numberOfBytes": "32"
					},
					"t_bool": {
						"encoding": "inplace",
						"label": "bool",
						"numberOfBytes": "1"
					},
					"t_enum(Status)30": {
						"encoding": "inplace",
						"label": "enum Orders.Status",
						"numberOfBytes": "1"
					},
					"t_mapping(t_address,t_bool)": {
						"encoding": "mapping",
						"key": "t_address",
						"label": "mapping(address => bool)",
						"numberOfBytes": "32",
						"value": "t_bool"
					},
					"t_mapping(t_uint256,t_bool)": {
						"encoding": "mapping",
						"key": "t_uint256",
						"label": "mapping(uint256 => bool)",
						"numberOfBytes": "32",
						"value": "t_bool"
					},
					"t_mapping(t_uint256,t_struct(Order)38_storage)": {
						"encoding": "mapping",
						"key": "t_uint256",
						"label": "mapping(uint256 => struct Orders.Order)",
						"numberOfBytes": "32",
						"value": "t_struct(Order)38_storage"
					},
					"t_mapping(t_uint256,t_struct(User)54_storage)": {
						"encoding": "mapping",
						"key": "t_uint256",
						"label": "mapping(uint256 => struct Orders.User)",
						"numberOfBytes": "32",
						"value": "t_struct(User)54_storage"
					},
					"t_string_storage": {
						"encoding": "bytes",
						"label": "string",
						"numberOfBytes": "32"
					},
					"t_struct(Order)38_storage": {
						"encoding": "inplace",
						"label": "struct Orders.Order",
						"members": [
							{
								"astId": 32,
								"contract": "learning/Orders.sol:Orders",
								"label": "id",
								"offset": 0,
								"slot": "0",
								"type": "t_uint256"
							},
							{
								"astId": 34,
								"contract": "learning/Orders.sol:Orders",
								"label": "deliveryPartner",
								"offset": 0,
								"slot": "1",
								"type": "t_string_storage"
							},
							{
								"astId": 37,
								"contract": "learning/Orders.sol:Orders",
								"label": "status",
								"offset": 0,
								"slot": "2",
								"type": "t_enum(Status)30"
							}
						],
						"numberOfBytes": "96"
					},
					"t_struct(User)54_storage": {
						"encoding": "inplace",
						"label": "struct Orders.User",
						"members": [
							{
								"astId": 49,
								"contract": "learning/Orders.sol:Orders",
								"label": "id",
								"offset": 0,
								"slot": "0",
								"type": "t_uint256"
							},
							{
								"astId": 51,
								"contract": "learning/Orders.sol:Orders",
								"label": "name",
								"offset": 0,
								"slot": "1",
								"type": "t_string_storage"
							},
							{
								"astId": 53,
								"contract": "learning/Orders.sol:Orders",
								"label": "wallet",
								"offset": 0,
								"slot": "2",
								"type": "t_address"
							}
						],
						"numberOfBytes": "96"
					},
					"t_uint256": {
						"encoding": "inplace",
						"label": "uint256",
						"numberOfBytes": "32"
					}
				}
			},
			"userdoc": {
				"kind": "user",
				"methods": {},
				"version": 1
			}
		}
	}
}