{
	"learning/bank.sol": {
		"BankExample": {
			"abi": [
				{
					"inputs": [],
					"name": "balance",
					"outputs": [
						{
							"internalType": "uint256",
							"name": "",
							"type": "uint256"
						}
					],
					"stateMutability": "view",
					"type": "function"
				},
				{
					"inputs": [
						{
							"internalType": "uint256",
							"name": "amount",
							"type": "uint256"
						}
					],
					"name": "deposit",
					"outputs": [],
					"stateMutability": "nonpayable",
					"type": "function"
				},
				{
					"inputs": [
						{
							"internalType": "uint256",
							"name": "amount",
							"type": "uint256"
						}
					],
					"name": "withdraw",
					"outputs": [],
					"stateMutability": "nonpayable",
					"type": "function"
				}
			],
			"devdoc": {
				"kind": "dev",
				"methods": {},
				"version": 1
			},
			"evm": {
				"assembly": "    /* \"learning/bank.sol\":502:1193  contract BankExample {\r... */\n  mstore(0x40, 0x80)\n    /* \"learning/bank.sol\":554:558  1000 */\n  0x03e8\n    /* \"learning/bank.sol\":532:558  uint public balance = 1000 */\n  0x00\n  sstore\n    /* \"learning/bank.sol\":502:1193  contract BankExample {\r... */\n  callvalue\n  dup1\n  iszero\n  tag_1\n  jumpi\n  0x00\n  dup1\n  revert\ntag_1:\n  pop\n  dataSize(sub_0)\n  dup1\n  dataOffset(sub_0)\n  0x00\n  codecopy\n  0x00\n  return\nstop\n\nsub_0: assembly {\n        /* \"learning/bank.sol\":502:1193  contract BankExample {\r... */\n      mstore(0x40, 0x80)\n      callvalue\n      dup1\n      iszero\n      tag_1\n      jumpi\n      0x00\n      dup1\n      revert\n    tag_1:\n      pop\n      jumpi(tag_2, lt(calldatasize, 0x04))\n      shr(0xe0, calldataload(0x00))\n      dup1\n      0x2e1a7d4d\n      eq\n      tag_3\n      jumpi\n      dup1\n      0xb69ef8a8\n      eq\n      tag_4\n      jumpi\n      dup1\n      0xb6b55f25\n      eq\n      tag_5\n      jumpi\n    tag_2:\n      0x00\n      dup1\n      revert\n        /* \"learning/bank.sol\":885:1190  function withdraw(uint amount) public {\r... */\n    tag_3:\n      tag_6\n      0x04\n      dup1\n      calldatasize\n      sub\n      dup2\n      add\n      swap1\n      tag_7\n      swap2\n      swap1\n      tag_8\n      jump\t// in\n    tag_7:\n      tag_9\n      jump\t// in\n    tag_6:\n      stop\n        /* \"learning/bank.sol\":532:558  uint public balance = 1000 */\n    tag_4:\n      tag_10\n      tag_11\n      jump\t// in\n    tag_10:\n      mload(0x40)\n      tag_12\n      swap2\n      swap1\n      tag_13\n      jump\t// in\n    tag_12:\n      mload(0x40)\n      dup1\n      swap2\n      sub\n      swap1\n      return\n        /* \"learning/bank.sol\":586:853  function deposit(uint amount) public {\r... */\n    tag_5:\n      tag_14\n      0x04\n      dup1\n      calldatasize\n      sub\n      dup2\n      add\n      swap1\n      tag_15\n      swap2\n      swap1\n      tag_8\n      jump\t// in\n    tag_15:\n      tag_16\n      jump\t// in\n    tag_14:\n      stop\n        /* \"learning/bank.sol\":885:1190  function withdraw(uint amount) public {\r... */\n    tag_9:\n        /* \"learning/bank.sol\":947:954  balance */\n      sload(0x00)\n        /* \"learning/bank.sol\":938:944  amount */\n      dup2\n        /* \"learning/bank.sol\":938:954  amount > balance */\n      gt\n        /* \"learning/bank.sol\":934:1034  if (amount > balance) {\r... */\n      iszero\n      tag_18\n      jumpi\n        /* \"learning/bank.sol\":971:1001  revert(\"Insufficient balance\") */\n      mload(0x40)\n      0x08c379a000000000000000000000000000000000000000000000000000000000\n      dup2\n      mstore\n      0x04\n      add\n      tag_19\n      swap1\n      tag_20\n      jump\t// in\n    tag_19:\n      mload(0x40)\n      dup1\n      swap2\n      sub\n      swap1\n      revert\n        /* \"learning/bank.sol\":934:1034  if (amount > balance) {\r... */\n    tag_18:\n        /* \"learning/bank.sol\":1057:1063  amount */\n      dup1\n        /* \"learning/bank.sol\":1046:1053  balance */\n      0x00\n      dup1\n        /* \"learning/bank.sol\":1046:1063  balance -= amount */\n      dup3\n      dup3\n      sload\n      tag_21\n      swap2\n      swap1\n      tag_22\n      jump\t// in\n    tag_21:\n      swap3\n      pop\n      pop\n      dup2\n      swap1\n      sstore\n      pop\n        /* \"learning/bank.sol\":1128:1129  0 */\n      0x00\n        /* \"learning/bank.sol\":1117:1124  balance */\n      dup1\n      sload\n        /* \"learning/bank.sol\":1117:1129  balance >= 0 */\n      lt\n      iszero\n        /* \"learning/bank.sol\":1117:1145  balance >= 0 && balance>=400 */\n      dup1\n      iszero\n      tag_23\n      jumpi\n      pop\n        /* \"learning/bank.sol\":1142:1145  400 */\n      0x0190\n        /* \"learning/bank.sol\":1133:1140  balance */\n      sload(0x00)\n        /* \"learning/bank.sol\":1133:1145  balance>=400 */\n      lt\n      iszero\n        /* \"learning/bank.sol\":1117:1145  balance >= 0 && balance>=400 */\n    tag_23:\n        /* \"learning/bank.sol\":1110:1146  assert(balance >= 0 && balance>=400) */\n      tag_24\n      jumpi\n      mstore(0x00, 0x4e487b7100000000000000000000000000000000000000000000000000000000)\n      mstore(0x04, 0x01)\n      revert(0x00, 0x24)\n    tag_24:\n        /* \"learning/bank.sol\":885:1190  function withdraw(uint amount) public {\r... */\n      pop\n      jump\t// out\n        /* \"learning/bank.sol\":532:558  uint public balance = 1000 */\n    tag_11:\n      sload(0x00)\n      dup2\n      jump\t// out\n        /* \"learning/bank.sol\":586:853  function deposit(uint amount) public {\r... */\n    tag_16:\n        /* \"learning/bank.sol\":651:652  0 */\n      0x00\n        /* \"learning/bank.sol\":642:648  amount */\n      dup2\n        /* \"learning/bank.sol\":642:652  amount > 0 */\n      gt\n        /* \"learning/bank.sol\":634:686  require(amount > 0, \"Amount must be greater than 0\") */\n      tag_26\n      jumpi\n      mload(0x40)\n      0x08c379a000000000000000000000000000000000000000000000000000000000\n      dup2\n      mstore\n      0x04\n      add\n      tag_27\n      swap1\n      tag_28\n      jump\t// in\n    tag_27:\n      mload(0x40)\n      dup1\n      swap2\n      sub\n      swap1\n      revert\n    tag_26:\n        /* \"learning/bank.sol\":731:737  amount */\n      dup1\n        /* \"learning/bank.sol\":720:727  balance */\n      0x00\n      dup1\n        /* \"learning/bank.sol\":720:737  balance += amount */\n      dup3\n      dup3\n      sload\n      tag_29\n      swap2\n      swap1\n      tag_30\n      jump\t// in\n    tag_29:\n      swap3\n      pop\n      pop\n      dup2\n      swap1\n      sstore\n      pop\n        /* \"learning/bank.sol\":815:821  amount */\n      dup1\n        /* \"learning/bank.sol\":804:811  balance */\n      sload(0x00)\n        /* \"learning/bank.sol\":804:821  balance >= amount */\n      lt\n      iszero\n        /* \"learning/bank.sol\":797:822  assert(balance >= amount) */\n      tag_31\n      jumpi\n      mstore(0x00, 0x4e487b7100000000000000000000000000000000000000000000000000000000)\n      mstore(0x04, 0x01)\n      revert(0x00, 0x24)\n    tag_31:\n        /* \"learning/bank.sol\":586:853  function deposit(uint amount) public {\r... */\n      pop\n      jump\t// out\n        /* \"#utility.yul\":7:146   */\n    tag_33:\n      0x00\n        /* \"#utility.yul\":91:97   */\n      dup2\n        /* \"#utility.yul\":78:98   */\n      calldataload\n        /* \"#utility.yul\":69:98   */\n      swap1\n      pop\n        /* \"#utility.yul\":107:140   */\n      tag_35\n        /* \"#utility.yul\":134:139   */\n      dup2\n        /* \"#utility.yul\":107:140   */\n      tag_36\n      jump\t// in\n    tag_35:\n        /* \"#utility.yul\":59:146   */\n      swap3\n      swap2\n      pop\n      pop\n      jump\t// out\n        /* \"#utility.yul\":152:414   */\n    tag_8:\n      0x00\n        /* \"#utility.yul\":260:262   */\n      0x20\n        /* \"#utility.yul\":248:257   */\n      dup3\n        /* \"#utility.yul\":239:246   */\n      dup5\n        /* \"#utility.yul\":235:258   */\n      sub\n        /* \"#utility.yul\":231:263   */\n      slt\n        /* \"#utility.yul\":228:230   */\n      iszero\n      tag_38\n      jumpi\n        /* \"#utility.yul\":276:277   */\n      0x00\n        /* \"#utility.yul\":273:274   */\n      dup1\n        /* \"#utility.yul\":266:278   */\n      revert\n        /* \"#utility.yul\":228:230   */\n    tag_38:\n        /* \"#utility.yul\":319:320   */\n      0x00\n        /* \"#utility.yul\":344:397   */\n      tag_39\n        /* \"#utility.yul\":389:396   */\n      dup5\n        /* \"#utility.yul\":380:386   */\n      dup3\n        /* \"#utility.yul\":369:378   */\n      dup6\n        /* \"#utility.yul\":365:387   */\n      add\n        /* \"#utility.yul\":344:397   */\n      tag_33\n      jump\t// in\n    tag_39:\n        /* \"#utility.yul\":334:397   */\n      swap2\n      pop\n        /* \"#utility.yul\":290:407   */\n      pop\n        /* \"#utility.yul\":218:414   */\n      swap3\n      swap2\n      pop\n      pop\n      jump\t// out\n        /* \"#utility.yul\":420:747   */\n    tag_40:\n      0x00\n        /* \"#utility.yul\":583:650   */\n      tag_42\n        /* \"#utility.yul\":647:649   */\n      0x1d\n        /* \"#utility.yul\":642:645   */\n      dup4\n        /* \"#utility.yul\":583:650   */\n      tag_43\n      jump\t// in\n    tag_42:\n        /* \"#utility.yul\":576:650   */\n      swap2\n      pop\n        /* \"#utility.yul\":680:711   */\n      0x416d6f756e74206d7573742062652067726561746572207468616e2030000000\n        /* \"#utility.yul\":676:677   */\n      0x00\n        /* \"#utility.yul\":671:674   */\n      dup4\n        /* \"#utility.yul\":667:678   */\n      add\n        /* \"#utility.yul\":660:712   */\n      mstore\n        /* \"#utility.yul\":738:740   */\n      0x20\n        /* \"#utility.yul\":733:736   */\n      dup3\n        /* \"#utility.yul\":729:741   */\n      add\n        /* \"#utility.yul\":722:741   */\n      swap1\n      pop\n        /* \"#utility.yul\":566:747   */\n      swap2\n      swap1\n      pop\n      jump\t// out\n        /* \"#utility.yul\":753:1071   */\n    tag_44:\n      0x00\n        /* \"#utility.yul\":916:983   */\n      tag_46\n        /* \"#utility.yul\":980:982   */\n      0x14\n        /* \"#utility.yul\":975:978   */\n      dup4\n        /* \"#utility.yul\":916:983   */\n      tag_43\n      jump\t// in\n    tag_46:\n        /* \"#utility.yul\":909:983   */\n      swap2\n      pop\n        /* \"#utility.yul\":1013:1035   */\n      0x496e73756666696369656e742062616c616e6365000000000000000000000000\n        /* \"#utility.yul\":1009:1010   */\n      0x00\n        /* \"#utility.yul\":1004:1007   */\n      dup4\n        /* \"#utility.yul\":1000:1011   */\n      add\n        /* \"#utility.yul\":993:1036   */\n      mstore\n        /* \"#utility.yul\":1062:1064   */\n      0x20\n        /* \"#utility.yul\":1057:1060   */\n      dup3\n        /* \"#utility.yul\":1053:1065   */\n      add\n        /* \"#utility.yul\":1046:1065   */\n      swap1\n      pop\n        /* \"#utility.yul\":899:1071   */\n      swap2\n      swap1\n      pop\n      jump\t// out\n        /* \"#utility.yul\":1077:1195   */\n    tag_47:\n        /* \"#utility.yul\":1164:1188   */\n      tag_49\n        /* \"#utility.yul\":1182:1187   */\n      dup2\n        /* \"#utility.yul\":1164:1188   */\n      tag_50\n      jump\t// in\n    tag_49:\n        /* \"#utility.yul\":1159:1162   */\n      dup3\n        /* \"#utility.yul\":1152:1189   */\n      mstore\n        /* \"#utility.yul\":1142:1195   */\n      pop\n      pop\n      jump\t// out\n        /* \"#utility.yul\":1201:1620   */\n    tag_28:\n      0x00\n        /* \"#utility.yul\":1405:1407   */\n      0x20\n        /* \"#utility.yul\":1394:1403   */\n      dup3\n        /* \"#utility.yul\":1390:1408   */\n      add\n        /* \"#utility.yul\":1382:1408   */\n      swap1\n      pop\n        /* \"#utility.yul\":1454:1463   */\n      dup2\n        /* \"#utility.yul\":1448:1452   */\n      dup2\n        /* \"#utility.yul\":1444:1464   */\n      sub\n        /* \"#utility.yul\":1440:1441   */\n      0x00\n        /* \"#utility.yul\":1429:1438   */\n      dup4\n        /* \"#utility.yul\":1425:1442   */\n      add\n        /* \"#utility.yul\":1418:1465   */\n      mstore\n        /* \"#utility.yul\":1482:1613   */\n      tag_52\n        /* \"#utility.yul\":1608:1612   */\n      dup2\n        /* \"#utility.yul\":1482:1613   */\n      tag_40\n      jump\t// in\n    tag_52:\n        /* \"#utility.yul\":1474:1613   */\n      swap1\n      pop\n        /* \"#utility.yul\":1372:1620   */\n      swap2\n      swap1\n      pop\n      jump\t// out\n        /* \"#utility.yul\":1626:2045   */\n    tag_20:\n      0x00\n        /* \"#utility.yul\":1830:1832   */\n      0x20\n        /* \"#utility.yul\":1819:1828   */\n      dup3\n        /* \"#utility.yul\":1815:1833   */\n      add\n        /* \"#utility.yul\":1807:1833   */\n      swap1\n      pop\n        /* \"#utility.yul\":1879:1888   */\n      dup2\n        /* \"#utility.yul\":1873:1877   */\n      dup2\n        /* \"#utility.yul\":1869:1889   */\n      sub\n        /* \"#utility.yul\":1865:1866   */\n      0x00\n        /* \"#utility.yul\":1854:1863   */\n      dup4\n        /* \"#utility.yul\":1850:1867   */\n      add\n        /* \"#utility.yul\":1843:1890   */\n      mstore\n        /* \"#utility.yul\":1907:2038   */\n      tag_54\n        /* \"#utility.yul\":2033:2037   */\n      dup2\n        /* \"#utility.yul\":1907:2038   */\n      tag_44\n      jump\t// in\n    tag_54:\n        /* \"#utility.yul\":1899:2038   */\n      swap1\n      pop\n        /* \"#utility.yul\":1797:2045   */\n      swap2\n      swap1\n      pop\n      jump\t// out\n        /* \"#utility.yul\":2051:2273   */\n    tag_13:\n      0x00\n        /* \"#utility.yul\":2182:2184   */\n      0x20\n        /* \"#utility.yul\":2171:2180   */\n      dup3\n        /* \"#utility.yul\":2167:2185   */\n      add\n        /* \"#utility.yul\":2159:2185   */\n      swap1\n      pop\n        /* \"#utility.yul\":2195:2266   */\n      tag_56\n        /* \"#utility.yul\":2263:2264   */\n      0x00\n        /* \"#utility.yul\":2252:2261   */\n      dup4\n        /* \"#utility.yul\":2248:2265   */\n      add\n        /* \"#utility.yul\":2239:2245   */\n      dup5\n        /* \"#utility.yul\":2195:2266   */\n      tag_47\n      jump\t// in\n    tag_56:\n        /* \"#utility.yul\":2149:2273   */\n      swap3\n      swap2\n      pop\n      pop\n      jump\t// out\n        /* \"#utility.yul\":2279:2448   */\n    tag_43:\n      0x00\n        /* \"#utility.yul\":2397:2403   */\n      dup3\n        /* \"#utility.yul\":2392:2395   */\n      dup3\n        /* \"#utility.yul\":2385:2404   */\n      mstore\n        /* \"#utility.yul\":2437:2441   */\n      0x20\n        /* \"#utility.yul\":2432:2435   */\n      dup3\n        /* \"#utility.yul\":2428:2442   */\n      add\n        /* \"#utility.yul\":2413:2442   */\n      swap1\n      pop\n        /* \"#utility.yul\":2375:2448   */\n      swap3\n      swap2\n      pop\n      pop\n      jump\t// out\n        /* \"#utility.yul\":2454:2759   */\n    tag_30:\n      0x00\n        /* \"#utility.yul\":2513:2533   */\n      tag_59\n        /* \"#utility.yul\":2531:2532   */\n      dup3\n        /* \"#utility.yul\":2513:2533   */\n      tag_50\n      jump\t// in\n    tag_59:\n        /* \"#utility.yul\":2508:2533   */\n      swap2\n      pop\n        /* \"#utility.yul\":2547:2567   */\n      tag_60\n        /* \"#utility.yul\":2565:2566   */\n      dup4\n        /* \"#utility.yul\":2547:2567   */\n      tag_50\n      jump\t// in\n    tag_60:\n        /* \"#utility.yul\":2542:2567   */\n      swap3\n      pop\n        /* \"#utility.yul\":2701:2702   */\n      dup3\n        /* \"#utility.yul\":2633:2699   */\n      0xffffffffffffffffffffffffffffffffffffffffffffffffffffffffffffffff\n        /* \"#utility.yul\":2629:2703   */\n      sub\n        /* \"#utility.yul\":2626:2627   */\n      dup3\n        /* \"#utility.yul\":2623:2704   */\n      gt\n        /* \"#utility.yul\":2620:2622   */\n      iszero\n      tag_61\n      jumpi\n        /* \"#utility.yul\":2707:2725   */\n      tag_62\n      tag_63\n      jump\t// in\n    tag_62:\n        /* \"#utility.yul\":2620:2622   */\n    tag_61:\n        /* \"#utility.yul\":2751:2752   */\n      dup3\n        /* \"#utility.yul\":2748:2749   */\n      dup3\n        /* \"#utility.yul\":2744:2753   */\n      add\n        /* \"#utility.yul\":2737:2753   */\n      swap1\n      pop\n        /* \"#utility.yul\":2498:2759   */\n      swap3\n      swap2\n      pop\n      pop\n      jump\t// out\n        /* \"#utility.yul\":2765:2956   */\n    tag_22:\n      0x00\n        /* \"#utility.yul\":2825:2845   */\n      tag_65\n        /* \"#utility.yul\":2843:2844   */\n      dup3\n        /* \"#utility.yul\":2825:2845   */\n      tag_50\n      jump\t// in\n    tag_65:\n        /* \"#utility.yul\":2820:2845   */\n      swap2\n      pop\n        /* \"#utility.yul\":2859:2879   */\n      tag_66\n        /* \"#utility.yul\":2877:2878   */\n      dup4\n        /* \"#utility.yul\":2859:2879   */\n      tag_50\n      jump\t// in\n    tag_66:\n        /* \"#utility.yul\":2854:2879   */\n      swap3\n      pop\n        /* \"#utility.yul\":2898:2899   */\n      dup3\n        /* \"#utility.yul\":2895:2896   */\n      dup3\n        /* \"#utility.yul\":2892:2900   */\n      lt\n        /* \"#utility.yul\":2889:2891   */\n      iszero\n      tag_67\n      jumpi\n        /* \"#utility.yul\":2903:2921   */\n      tag_68\n      tag_63\n      jump\t// in\n    tag_68:\n        /* \"#utility.yul\":2889:2891   */\n    tag_67:\n        /* \"#utility.yul\":2948:2949   */\n      dup3\n        /* \"#utility.yul\":2945:2946   */\n      dup3\n        /* \"#utility.yul\":2941:2950   */\n      sub\n        /* \"#utility.yul\":2933:2950   */\n      swap1\n      pop\n        /* \"#utility.yul\":2810:2956   */\n      swap3\n      swap2\n      pop\n      pop\n      jump\t// out\n        /* \"#utility.yul\":2962:3039   */\n    tag_50:\n      0x00\n        /* \"#utility.yul\":3028:3033   */\n      dup2\n        /* \"#utility.yul\":3017:3033   */\n      swap1\n      pop\n        /* \"#utility.yul\":3007:3039   */\n      swap2\n      swap1\n      pop\n      jump\t// out\n        /* \"#utility.yul\":3045:3225   */\n    tag_63:\n        /* \"#utility.yul\":3093:3170   */\n      0x4e487b7100000000000000000000000000000000000000000000000000000000\n        /* \"#utility.yul\":3090:3091   */\n      0x00\n        /* \"#utility.yul\":3083:3171   */\n      mstore\n        /* \"#utility.yul\":3190:3194   */\n      0x11\n        /* \"#utility.yul\":3187:3188   */\n      0x04\n        /* \"#utility.yul\":3180:3195   */\n      mstore\n        /* \"#utility.yul\":3214:3218   */\n      0x24\n        /* \"#utility.yul\":3211:3212   */\n      0x00\n        /* \"#utility.yul\":3204:3219   */\n      revert\n        /* \"#utility.yul\":3231:3353   */\n    tag_36:\n        /* \"#utility.yul\":3304:3328   */\n      tag_72\n        /* \"#utility.yul\":3322:3327   */\n      dup2\n        /* \"#utility.yul\":3304:3328   */\n      tag_50\n      jump\t// in\n    tag_72:\n        /* \"#utility.yul\":3297:3302   */\n      dup2\n        /* \"#utility.yul\":3294:3329   */\n      eq\n        /* \"#utility.yul\":3284:3286   */\n      tag_73\n      jumpi\n        /* \"#utility.yul\":3343:3344   */\n      0x00\n        /* \"#utility.yul\":3340:3341   */\n      dup1\n        /* \"#utility.yul\":3333:3345   */\n      revert\n        /* \"#utility.yul\":3284:3286   */\n    tag_73:\n        /* \"#utility.yul\":3274:3353   */\n      pop\n      jump\t// out\n\n    auxdata: 0xa2646970667358221220f2e0beba84de5e6f1be24f7c0a557086e7635ed0f7c29338bc9f300be2ce1b0b64736f6c63430008000033\n}\n",
				"bytecode": {
					"linkReferences": {},
					"object": "60806040526103e860005534801561001657600080fd5b5061042b806100266000396000f3fe608060405234801561001057600080fd5b50600436106100415760003560e01c80632e1a7d4d14610046578063b69ef8a814610062578063b6b55f2514610080575b600080fd5b610060600480360381019061005b91906101f7565b61009c565b005b61006a610145565b60405161007791906102ef565b60405180910390f35b61009a600480360381019061009591906101f7565b61014b565b005b6000548111156100e1576040517f08c379a00000000000000000000000000000000000000000000000000000000081526004016100d8906102cf565b60405180910390fd5b806000808282546100f29190610371565b92505081905550600080541015801561010f575061019060005410155b610142577f4e487b7100000000000000000000000000000000000000000000000000000000600052600160045260246000fd5b50565b60005481565b6000811161018e576040517f08c379a0000000000000000000000000000000000000000000000000000000008152600401610185906102af565b60405180910390fd5b8060008082825461019f919061031b565b925050819055508060005410156101df577f4e487b7100000000000000000000000000000000000000000000000000000000600052600160045260246000fd5b50565b6000813590506101f1816103de565b92915050565b60006020828403121561020957600080fd5b6000610217848285016101e2565b91505092915050565b600061022d601d8361030a565b91507f416d6f756e74206d7573742062652067726561746572207468616e20300000006000830152602082019050919050565b600061026d60148361030a565b91507f496e73756666696369656e742062616c616e63650000000000000000000000006000830152602082019050919050565b6102a9816103a5565b82525050565b600060208201905081810360008301526102c881610220565b9050919050565b600060208201905081810360008301526102e881610260565b9050919050565b600060208201905061030460008301846102a0565b92915050565b600082825260208201905092915050565b6000610326826103a5565b9150610331836103a5565b9250827fffffffffffffffffffffffffffffffffffffffffffffffffffffffffffffffff03821115610366576103656103af565b5b828201905092915050565b600061037c826103a5565b9150610387836103a5565b92508282101561039a576103996103af565b5b828203905092915050565b6000819050919050565b7f4e487b7100000000000000000000000000000000000000000000000000000000600052601160045260246000fd5b6103e7816103a5565b81146103f257600080fd5b5056fea2646970667358221220f2e0beba84de5e6f1be24f7c0a557086e7635ed0f7c29338bc9f300be2ce1b0b64736f6c63430008000033",
					"opcodes": "PUSH1 0x80 PUSH1 0x40 MSTORE PUSH2 0x3E8 PUSH1 0x0 SSTORE CALLVALUE DUP1 ISZERO PUSH2 0x16 JUMPI PUSH1 0x0 DUP1 REVERT JUMPDEST POP PUSH2 0x42B DUP1 PUSH2 0x26 PUSH1 0x0 CODECOPY PUSH1 0x0 RETURN INVALID PUSH1 0x80 PUSH1 0x40 MSTORE CALLVALUE DUP1 ISZERO PUSH2 0x10 JUMPI PUSH1 0x0 DUP1 REVERT JUMPDEST POP PUSH1 0x4 CALLDATASIZE LT PUSH2 0x41 JUMPI PUSH1 0x0 CALLDATALOAD PUSH1 0xE0 SHR DUP1 PUSH4 0x2E1A7D4D EQ PUSH2 0x46 JUMPI DUP1 PUSH4 0xB69EF8A8 EQ PUSH2 0x62 JUMPI DUP1 PUSH4 0xB6B55F25 EQ PUSH2 0x80 JUMPI JUMPDEST PUSH1 0x0 DUP1 REVERT JUMPDEST PUSH2 0x60 PUSH1 0x4 DUP1 CALLDATASIZE SUB DUP2 ADD SWAP1 PUSH2 0x5B SWAP2 SWAP1 PUSH2 0x1F7 JUMP JUMPDEST PUSH2 0x9C JUMP JUMPDEST STOP JUMPDEST PUSH2 0x6A PUSH2 0x145 JUMP JUMPDEST PUSH1 0x40 MLOAD PUSH2 0x77 SWAP2 SWAP1 PUSH2 0x2EF JUMP JUMPDEST PUSH1 0x40 MLOAD DUP1 SWAP2 SUB SWAP1 RETURN JUMPDEST PUSH2 0x9A PUSH1 0x4 DUP1 CALLDATASIZE SUB DUP2 ADD SWAP1 PUSH2 0x95 SWAP2 SWAP1 PUSH2 0x1F7 JUMP JUMPDEST PUSH2 0x14B JUMP JUMPDEST STOP JUMPDEST PUSH1 0x0 SLOAD DUP2 GT ISZERO PUSH2 0xE1 JUMPI PUSH1 0x40 MLOAD PUSH32 0x8C379A000000000000000000000000000000000000000000000000000000000 DUP2 MSTORE PUSH1 0x4 ADD PUSH2 0xD8 SWAP1 PUSH2 0x2CF JUMP JUMPDEST PUSH1 0x40 MLOAD DUP1 SWAP2 SUB SWAP1 REVERT JUMPDEST DUP1 PUSH1 0x0 DUP1 DUP3 DUP3 SLOAD PUSH2 0xF2 SWAP2 SWAP1 PUSH2 0x371 JUMP JUMPDEST SWAP3 POP POP DUP2 SWAP1 SSTORE POP PUSH1 0x0 DUP1 SLOAD LT ISZERO DUP1 ISZERO PUSH2 0x10F JUMPI POP PUSH2 0x190 PUSH1 0x0 SLOAD LT ISZERO JUMPDEST PUSH2 0x142 JUMPI PUSH32 0x4E487B7100000000000000000000000000000000000000000000000000000000 PUSH1 0x0 MSTORE PUSH1 0x1 PUSH1 0x4 MSTORE PUSH1 0x24 PUSH1 0x0 REVERT JUMPDEST POP JUMP JUMPDEST PUSH1 0x0 SLOAD DUP2 JUMP JUMPDEST PUSH1 0x0 DUP2 GT PUSH2 0x18E JUMPI PUSH1 0x40 MLOAD PUSH32 0x8C379A000000000000000000000000000000000000000000000000000000000 DUP2 MSTORE PUSH1 0x4 ADD PUSH2 0x185 SWAP1 PUSH2 0x2AF JUMP JUMPDEST PUSH1 0x40 MLOAD DUP1 SWAP2 SUB SWAP1 REVERT JUMPDEST DUP1 PUSH1 0x0 DUP1 DUP3 DUP3 SLOAD PUSH2 0x19F SWAP2 SWAP1 PUSH2 0x31B JUMP JUMPDEST SWAP3 POP POP DUP2 SWAP1 SSTORE POP DUP1 PUSH1 0x0 SLOAD LT ISZERO PUSH2 0x1DF JUMPI PUSH32 0x4E487B7100000000000000000000000000000000000000000000000000000000 PUSH1 0x0 MSTORE PUSH1 0x1 PUSH1 0x4 MSTORE PUSH1 0x24 PUSH1 0x0 REVERT JUMPDEST POP JUMP JUMPDEST PUSH1 0x0 DUP2 CALLDATALOAD SWAP1 POP PUSH2 0x1F1 DUP2 PUSH2 0x3DE JUMP JUMPDEST SWAP3 SWAP2 POP POP JUMP JUMPDEST PUSH1 0x0 PUSH1 0x20 DUP3 DUP5 SUB SLT ISZERO PUSH2 0x209 JUMPI PUSH1 0x0 DUP1 REVERT JUMPDEST PUSH1 0x0 PUSH2 0x217 DUP5 DUP3 DUP6 ADD PUSH2 0x1E2 JUMP JUMPDEST SWAP2 POP POP SWAP3 SWAP2 POP POP JUMP JUMPDEST PUSH1 0x0 PUSH2 0x22D PUSH1 0x1D DUP4 PUSH2 0x30A JUMP JUMPDEST SWAP2 POP PUSH32 0x416D6F756E74206D7573742062652067726561746572207468616E2030000000 PUSH1 0x0 DUP4 ADD MSTORE PUSH1 0x20 DUP3 ADD SWAP1 POP SWAP2 SWAP1 POP JUMP JUMPDEST PUSH1 0x0 PUSH2 0x26D PUSH1 0x14 DUP4 PUSH2 0x30A JUMP JUMPDEST SWAP2 POP PUSH32 0x496E73756666696369656E742062616C616E6365000000000000000000000000 PUSH1 0x0 DUP4 ADD MSTORE PUSH1 0x20 DUP3 ADD SWAP1 POP SWAP2 SWAP1 POP JUMP JUMPDEST PUSH2 0x2A9 DUP2 PUSH2 0x3A5 JUMP JUMPDEST DUP3 MSTORE POP POP JUMP JUMPDEST PUSH1 0x0 PUSH1 0x20 DUP3 ADD SWAP1 POP DUP2 DUP2 SUB PUSH1 0x0 DUP4 ADD MSTORE PUSH2 0x2C8 DUP2 PUSH2 0x220 JUMP JUMPDEST SWAP1 POP SWAP2 SWAP1 POP JUMP JUMPDEST PUSH1 0x0 PUSH1 0x20 DUP3 ADD SWAP1 POP DUP2 DUP2 SUB PUSH1 0x0 DUP4 ADD MSTORE PUSH2 0x2E8 DUP2 PUSH2 0x260 JUMP JUMPDEST SWAP1 POP SWAP2 SWAP1 POP JUMP JUMPDEST PUSH1 0x0 PUSH1 0x20 DUP3 ADD SWAP1 POP PUSH2 0x304 PUSH1 0x0 DUP4 ADD DUP5 PUSH2 0x2A0 JUMP JUMPDEST SWAP3 SWAP2 POP POP JUMP JUMPDEST PUSH1 0x0 DUP3 DUP3 MSTORE PUSH1 0x20 DUP3 ADD SWAP1 POP SWAP3 SWAP2 POP POP JUMP JUMPDEST PUSH1 0x0 PUSH2 0x326 DUP3 PUSH2 0x3A5 JUMP JUMPDEST SWAP2 POP PUSH2 0x331 DUP4 PUSH2 0x3A5 JUMP JUMPDEST SWAP3 POP DUP3 PUSH32 0xFFFFFFFFFFFFFFFFFFFFFFFFFFFFFFFFFFFFFFFFFFFFFFFFFFFFFFFFFFFFFFFF SUB DUP3 GT ISZERO PUSH2 0x366 JUMPI PUSH2 0x365 PUSH2 0x3AF JUMP JUMPDEST JUMPDEST DUP3 DUP3 ADD SWAP1 POP SWAP3 SWAP2 POP POP JUMP JUMPDEST PUSH1 0x0 PUSH2 0x37C DUP3 PUSH2 0x3A5 JUMP JUMPDEST SWAP2 POP PUSH2 0x387 DUP4 PUSH2 0x3A5 JUMP JUMPDEST SWAP3 POP DUP3 DUP3 LT ISZERO PUSH2 0x39A JUMPI PUSH2 0x399 PUSH2 0x3AF JUMP JUMPDEST JUMPDEST DUP3 DUP3 SUB SWAP1 POP SWAP3 SWAP2 POP POP JUMP JUMPDEST PUSH1 0x0 DUP2 SWAP1 POP SWAP2 SWAP1 POP JUMP JUMPDEST PUSH32 0x4E487B7100000000000000000000000000000000000000000000000000000000 PUSH1 0x0 MSTORE PUSH1 0x11 PUSH1 0x4 MSTORE PUSH1 0x24 PUSH1 0x0 REVERT JUMPDEST PUSH2 0x3E7 DUP2 PUSH2 0x3A5 JUMP JUMPDEST DUP2 EQ PUSH2 0x3F2 JUMPI PUSH1 0x0 DUP1 REVERT JUMPDEST POP JUMP INVALID LOG2 PUSH5 0x6970667358 0x22 SLT KECCAK256 CALLCODE 0xE0 0xBE 0xBA DUP5 0xDE 0x5E PUSH16 0x1BE24F7C0A557086E7635ED0F7C29338 0xBC SWAP16 ADDRESS SIGNEXTEND 0xE2 0xCE SHL SIGNEXTEND PUSH5 0x736F6C6343 STOP ADDMOD STOP STOP CALLER "
				},
				"gasEstimates": {
					"creation": {
						"codeDepositCost": "213400",
						"executionCost": "20263",
						"totalCost": "233663"
					},
					"external": {
						"balance()": "1129",
						"deposit(uint256)": "infinite",
						"withdraw(uint256)": "infinite"
					}
				},
				"methodIdentifiers": {
					"balance()": "b69ef8a8",
					"deposit(uint256)": "b6b55f25",
					"withdraw(uint256)": "2e1a7d4d"
				}
			},
			"storageLayout": {
				"storage": [
					{
						"astId": 4,
						"contract": "learning/bank.sol:BankExample",
						"label": "balance",
						"offset": 0,
						"slot": "0",
						"type": "t_uint256"
					}
				],
				"types": {
					"t_uint256": {
						"encoding": "inplace",
						"label": "uint256",
						"numberOfBytes": "32"
					}
				}
			},
			"userdoc": {
				"kind": "user",
				"methods": {},
				"version": 1
			}
		}
	}
}