{
	"data": {
		"bytecode": {
			"linkReferences": {},
			"object": "6080604052348015600e575f5ffd5b5061064d8061001c5f395ff3fe608060405234801561000f575f5ffd5b5060043610610055575f3560e01c806306fb99d61461005957806308fa13c1146100755780630a20e1b61461009157806350d711b1146100ad57806365372147146100c9575b5f5ffd5b610073600480360381019061006e9190610273565b6100e7565b005b61008f600480360381019061008a9190610273565b61013b565b005b6100ab60048036038101906100a69190610273565b61018f565b005b6100c760048036038101906100c29190610273565b6101e3565b005b6100d1610237565b6040516100de91906102ad565b60405180910390f35b805f5f8282546100f79190610320565b925050819055507f12742afa09d7202c9c5cc7af69baccf4939070e4133659419dc388802f4e4ae0815f546040516101309291906103aa565b60405180910390a150565b805f5f82825461014b91906103e4565b925050819055507f12742afa09d7202c9c5cc7af69baccf4939070e4133659419dc388802f4e4ae0815f54604051610184929190610461565b60405180910390a150565b805f5f82825461019f919061049b565b925050819055507f12742afa09d7202c9c5cc7af69baccf4939070e4133659419dc388802f4e4ae0815f546040516101d8929190610526565b60405180910390a150565b805f5f8282546101f39190610560565b925050819055507f12742afa09d7202c9c5cc7af69baccf4939070e4133659419dc388802f4e4ae0815f5460405161022c9291906105dd565b60405180910390a150565b5f5481565b5f5ffd5b5f819050919050565b61025281610240565b811461025c575f5ffd5b50565b5f8135905061026d81610249565b92915050565b5f602082840312156102885761028761023c565b5b5f6102958482850161025f565b91505092915050565b6102a781610240565b82525050565b5f6020820190506102c05f83018461029e565b92915050565b7f4e487b71000000000000000000000000000000000000000000000000000000005f52601260045260245ffd5b7f4e487b71000000000000000000000000000000000000000000000000000000005f52601160045260245ffd5b5f61032a82610240565b915061033583610240565b925082610345576103446102c6565b5b828204905092915050565b5f82825260208201905092915050565b7f44495600000000000000000000000000000000000000000000000000000000005f82015250565b5f610394600383610350565b915061039f82610360565b602082019050919050565b5f6060820190508181035f8301526103c181610388565b90506103d0602083018561029e565b6103dd604083018461029e565b9392505050565b5f6103ee82610240565b91506103f983610240565b9250828201905080821115610411576104106102f3565b5b92915050565b7f41444400000000000000000000000000000000000000000000000000000000005f82015250565b5f61044b600383610350565b915061045682610417565b602082019050919050565b5f6060820190508181035f8301526104788161043f565b9050610487602083018561029e565b610494604083018461029e565b9392505050565b5f6104a582610240565b91506104b083610240565b92508282026104be81610240565b915082820484148315176104d5576104d46102f3565b5b5092915050565b7f4d554c54490000000000000000000000000000000000000000000000000000005f82015250565b5f610510600583610350565b915061051b826104dc565b602082019050919050565b5f6060820190508181035f83015261053d81610504565b905061054c602083018561029e565b610559604083018461029e565b9392505050565b5f61056a82610240565b915061057583610240565b925082820390508181111561058d5761058c6102f3565b5b92915050565b7f53554200000000000000000000000000000000000000000000000000000000005f82015250565b5f6105c7600383610350565b91506105d282610593565b602082019050919050565b5f6060820190508181035f8301526105f4816105bb565b9050610603602083018561029e565b610610604083018461029e565b939250505056fea2646970667358221220b941dd757b4597de871efc21efc964aebb833f4b1d451a69162ac98294e6259d64736f6c63430008220033",
			"opcodes": "PUSH1 0x80 PUSH1 0x40 MSTORE CALLVALUE DUP1 ISZERO PUSH1 0xE JUMPI PUSH0 PUSH0 REVERT JUMPDEST POP PUSH2 0x64D DUP1 PUSH2 0x1C PUSH0 CODECOPY PUSH0 RETURN INVALID PUSH1 0x80 PUSH1 0x40 MSTORE CALLVALUE DUP1 ISZERO PUSH2 0xF JUMPI PUSH0 PUSH0 REVERT JUMPDEST POP PUSH1 0x4 CALLDATASIZE LT PUSH2 0x55 JUMPI PUSH0 CALLDATALOAD PUSH1 0xE0 SHR DUP1 PUSH4 0x6FB99D6 EQ PUSH2 0x59 JUMPI DUP1 PUSH4 0x8FA13C1 EQ PUSH2 0x75 JUMPI DUP1 PUSH4 0xA20E1B6 EQ PUSH2 0x91 JUMPI DUP1 PUSH4 0x50D711B1 EQ PUSH2 0xAD JUMPI DUP1 PUSH4 0x65372147 EQ PUSH2 0xC9 JUMPI JUMPDEST PUSH0 PUSH0 REVERT JUMPDEST PUSH2 0x73 PUSH1 0x4 DUP1 CALLDATASIZE SUB DUP2 ADD SWAP1 PUSH2 0x6E SWAP2 SWAP1 PUSH2 0x273 JUMP JUMPDEST PUSH2 0xE7 JUMP JUMPDEST STOP JUMPDEST PUSH2 0x8F PUSH1 0x4 DUP1 CALLDATASIZE SUB DUP2 ADD SWAP1 PUSH2 0x8A SWAP2 SWAP1 PUSH2 0x273 JUMP JUMPDEST PUSH2 0x13B JUMP JUMPDEST STOP JUMPDEST PUSH2 0xAB PUSH1 0x4 DUP1 CALLDATASIZE SUB DUP2 ADD SWAP1 PUSH2 0xA6 SWAP2 SWAP1 PUSH2 0x273 JUMP JUMPDEST PUSH2 0x18F JUMP JUMPDEST STOP JUMPDEST PUSH2 0xC7 PUSH1 0x4 DUP1 CALLDATASIZE SUB DUP2 ADD SWAP1 PUSH2 0xC2 SWAP2 SWAP1 PUSH2 0x273 JUMP JUMPDEST PUSH2 0x1E3 JUMP JUMPDEST STOP JUMPDEST PUSH2 0xD1 PUSH2 0x237 JUMP JUMPDEST PUSH1 0x40 MLOAD PUSH2 0xDE SWAP2 SWAP1 PUSH2 0x2AD JUMP JUMPDEST PUSH1 0x40 MLOAD DUP1 SWAP2 SUB SWAP1 RETURN JUMPDEST DUP1 PUSH0 PUSH0 DUP3 DUP3 SLOAD PUSH2 0xF7 SWAP2 SWAP1 PUSH2 0x320 JUMP JUMPDEST SWAP3 POP POP DUP2 SWAP1 SSTORE POP PUSH32 0x12742AFA09D7202C9C5CC7AF69BACCF4939070E4133659419DC388802F4E4AE0 DUP2 PUSH0 SLOAD PUSH1 0x40 MLOAD PUSH2 0x130 SWAP3 SWAP2 SWAP1 PUSH2 0x3AA JUMP JUMPDEST PUSH1 0x40 MLOAD DUP1 SWAP2 SUB SWAP1 LOG1 POP JUMP JUMPDEST DUP1 PUSH0 PUSH0 DUP3 DUP3 SLOAD PUSH2 0x14B SWAP2 SWAP1 PUSH2 0x3E4 JUMP JUMPDEST SWAP3 POP POP DUP2 SWAP1 SSTORE POP PUSH32 0x12742AFA09D7202C9C5CC7AF69BACCF4939070E4133659419DC388802F4E4AE0 DUP2 PUSH0 SLOAD PUSH1 0x40 MLOAD PUSH2 0x184 SWAP3 SWAP2 SWAP1 PUSH2 0x461 JUMP JUMPDEST PUSH1 0x40 MLOAD DUP1 SWAP2 SUB SWAP1 LOG1 POP JUMP JUMPDEST DUP1 PUSH0 PUSH0 DUP3 DUP3 SLOAD PUSH2 0x19F SWAP2 SWAP1 PUSH2 0x49B JUMP JUMPDEST SWAP3 POP POP DUP2 SWAP1 SSTORE POP PUSH32 0x12742AFA09D7202C9C5CC7AF69BACCF4939070E4133659419DC388802F4E4AE0 DUP2 PUSH0 SLOAD PUSH1 0x40 MLOAD PUSH2 0x1D8 SWAP3 SWAP2 SWAP1 PUSH2 0x526 JUMP JUMPDEST PUSH1 0x40 MLOAD DUP1 SWAP2 SUB SWAP1 LOG1 POP JUMP JUMPDEST DUP1 PUSH0 PUSH0 DUP3 DUP3 SLOAD PUSH2 0x1F3 SWAP2 SWAP1 PUSH2 0x560 JUMP JUMPDEST SWAP3 POP POP DUP2 SWAP1 SSTORE POP PUSH32 0x12742AFA09D7202C9C5CC7AF69BACCF4939070E4133659419DC388802F4E4AE0 DUP2 PUSH0 SLOAD PUSH1 0x40 MLOAD PUSH2 0x22C SWAP3 SWAP2 SWAP1 PUSH2 0x5DD JUMP JUMPDEST PUSH1 0x40 MLOAD DUP1 SWAP2 SUB SWAP1 LOG1 POP JUMP JUMPDEST PUSH0 SLOAD DUP2 JUMP JUMPDEST PUSH0 PUSH0 REVERT JUMPDEST PUSH0 DUP2 SWAP1 POP SWAP2 SWAP1 POP JUMP JUMPDEST PUSH2 0x252 DUP2 PUSH2 0x240 JUMP JUMPDEST DUP2 EQ PUSH2 0x25C JUMPI PUSH0 PUSH0 REVERT JUMPDEST POP JUMP JUMPDEST PUSH0 DUP2 CALLDATALOAD SWAP1 POP PUSH2 0x26D DUP2 PUSH2 0x249 JUMP JUMPDEST SWAP3 SWAP2 POP POP JUMP JUMPDEST PUSH0 PUSH1 0x20 DUP3 DUP5 SUB SLT ISZERO PUSH2 0x288 JUMPI PUSH2 0x287 PUSH2 0x23C JUMP JUMPDEST JUMPDEST PUSH0 PUSH2 0x295 DUP5 DUP3 DUP6 ADD PUSH2 0x25F JUMP JUMPDEST SWAP2 POP POP SWAP3 SWAP2 POP POP JUMP JUMPDEST PUSH2 0x2A7 DUP2 PUSH2 0x240 JUMP JUMPDEST DUP3 MSTORE POP POP JUMP JUMPDEST PUSH0 PUSH1 0x20 DUP3 ADD SWAP1 POP PUSH2 0x2C0 PUSH0 DUP4 ADD DUP5 PUSH2 0x29E JUMP JUMPDEST SWAP3 SWAP2 POP POP JUMP JUMPDEST PUSH32 0x4E487B7100000000000000000000000000000000000000000000000000000000 PUSH0 MSTORE PUSH1 0x12 PUSH1 0x4 MSTORE PUSH1 0x24 PUSH0 REVERT JUMPDEST PUSH32 0x4E487B7100000000000000000000000000000000000000000000000000000000 PUSH0 MSTORE PUSH1 0x11 PUSH1 0x4 MSTORE PUSH1 0x24 PUSH0 REVERT JUMPDEST PUSH0 PUSH2 0x32A DUP3 PUSH2 0x240 JUMP JUMPDEST SWAP2 POP PUSH2 0x335 DUP4 PUSH2 0x240 JUMP JUMPDEST SWAP3 POP DUP3 PUSH2 0x345 JUMPI PUSH2 0x344 PUSH2 0x2C6 JUMP JUMPDEST JUMPDEST DUP3 DUP3 DIV SWAP1 POP SWAP3 SWAP2 POP POP JUMP JUMPDEST PUSH0 DUP3 DUP3 MSTORE PUSH1 0x20 DUP3 ADD SWAP1 POP SWAP3 SWAP2 POP POP JUMP JUMPDEST PUSH32 0x4449560000000000000000000000000000000000000000000000000000000000 PUSH0 DUP3 ADD MSTORE POP JUMP JUMPDEST PUSH0 PUSH2 0x394 PUSH1 0x3 DUP4 PUSH2 0x350 JUMP JUMPDEST SWAP2 POP PUSH2 0x39F DUP3 PUSH2 0x360 JUMP JUMPDEST PUSH1 0x20 DUP3 ADD SWAP1 POP SWAP2 SWAP1 POP JUMP JUMPDEST PUSH0 PUSH1 0x60 DUP3 ADD SWAP1 POP DUP2 DUP2 SUB PUSH0 DUP4 ADD MSTORE PUSH2 0x3C1 DUP2 PUSH2 0x388 JUMP JUMPDEST SWAP1 POP PUSH2 0x3D0 PUSH1 0x20 DUP4 ADD DUP6 PUSH2 0x29E JUMP JUMPDEST PUSH2 0x3DD PUSH1 0x40 DUP4 ADD DUP5 PUSH2 0x29E JUMP JUMPDEST SWAP4 SWAP3 POP POP POP JUMP JUMPDEST PUSH0 PUSH2 0x3EE DUP3 PUSH2 0x240 JUMP JUMPDEST SWAP2 POP PUSH2 0x3F9 DUP4 PUSH2 0x240 JUMP JUMPDEST SWAP3 POP DUP3 DUP3 ADD SWAP1 POP DUP1 DUP3 GT ISZERO PUSH2 0x411 JUMPI PUSH2 0x410 PUSH2 0x2F3 JUMP JUMPDEST JUMPDEST SWAP3 SWAP2 POP POP JUMP JUMPDEST PUSH32 0x4144440000000000000000000000000000000000000000000000000000000000 PUSH0 DUP3 ADD MSTORE POP JUMP JUMPDEST PUSH0 PUSH2 0x44B PUSH1 0x3 DUP4 PUSH2 0x350 JUMP JUMPDEST SWAP2 POP PUSH2 0x456 DUP3 PUSH2 0x417 JUMP JUMPDEST PUSH1 0x20 DUP3 ADD SWAP1 POP SWAP2 SWAP1 POP JUMP JUMPDEST PUSH0 PUSH1 0x60 DUP3 ADD SWAP1 POP DUP2 DUP2 SUB PUSH0 DUP4 ADD MSTORE PUSH2 0x478 DUP2 PUSH2 0x43F JUMP JUMPDEST SWAP1 POP PUSH2 0x487 PUSH1 0x20 DUP4 ADD DUP6 PUSH2 0x29E JUMP JUMPDEST PUSH2 0x494 PUSH1 0x40 DUP4 ADD DUP5 PUSH2 0x29E JUMP JUMPDEST SWAP4 SWAP3 POP POP POP JUMP JUMPDEST PUSH0 PUSH2 0x4A5 DUP3 PUSH2 0x240 JUMP JUMPDEST SWAP2 POP PUSH2 0x4B0 DUP4 PUSH2 0x240 JUMP JUMPDEST SWAP3 POP DUP3 DUP3 MUL PUSH2 0x4BE DUP2 PUSH2 0x240 JUMP JUMPDEST SWAP2 POP DUP3 DUP3 DIV DUP5 EQ DUP4 ISZERO OR PUSH2 0x4D5 JUMPI PUSH2 0x4D4 PUSH2 0x2F3 JUMP JUMPDEST JUMPDEST POP SWAP3 SWAP2 POP POP JUMP JUMPDEST PUSH32 0x4D554C5449000000000000000000000000000000000000000000000000000000 PUSH0 DUP3 ADD MSTORE POP JUMP JUMPDEST PUSH0 PUSH2 0x510 PUSH1 0x5 DUP4 PUSH2 0x350 JUMP JUMPDEST SWAP2 POP PUSH2 0x51B DUP3 PUSH2 0x4DC JUMP JUMPDEST PUSH1 0x20 DUP3 ADD SWAP1 POP SWAP2 SWAP1 POP JUMP JUMPDEST PUSH0 PUSH1 0x60 DUP3 ADD SWAP1 POP DUP2 DUP2 SUB PUSH0 DUP4 ADD MSTORE PUSH2 0x53D DUP2 PUSH2 0x504 JUMP JUMPDEST SWAP1 POP PUSH2 0x54C PUSH1 0x20 DUP4 ADD DUP6 PUSH2 0x29E JUMP JUMPDEST PUSH2 0x559 PUSH1 0x40 DUP4 ADD DUP5 PUSH2 0x29E JUMP JUMPDEST SWAP4 SWAP3 POP POP POP JUMP JUMPDEST PUSH0 PUSH2 0x56A DUP3 PUSH2 0x240 JUMP JUMPDEST SWAP2 POP PUSH2 0x575 DUP4 PUSH2 0x240 JUMP JUMPDEST SWAP3 POP DUP3 DUP3 SUB SWAP1 POP DUP2 DUP2 GT ISZERO PUSH2 0x58D JUMPI PUSH2 0x58C PUSH2 0x2F3 JUMP JUMPDEST JUMPDEST SWAP3 SWAP2 POP POP JUMP JUMPDEST PUSH32 0x5355420000000000000000000000000000000000000000000000000000000000 PUSH0 DUP3 ADD MSTORE POP JUMP JUMPDEST PUSH0 PUSH2 0x5C7 PUSH1 0x3 DUP4 PUSH2 0x350 JUMP JUMPDEST SWAP2 POP PUSH2 0x5D2 DUP3 PUSH2 0x593 JUMP JUMPDEST PUSH1 0x20 DUP3 ADD SWAP1 POP SWAP2 SWAP1 POP JUMP JUMPDEST PUSH0 PUSH1 0x60 DUP3 ADD SWAP1 POP DUP2 DUP2 SUB PUSH0 DUP4 ADD MSTORE PUSH2 0x5F4 DUP2 PUSH2 0x5BB JUMP JUMPDEST SWAP1 POP PUSH2 0x603 PUSH1 0x20 DUP4 ADD DUP6 PUSH2 0x29E JUMP JUMPDEST PUSH2 0x610 PUSH1 0x40 DUP4 ADD DUP5 PUSH2 0x29E JUMP JUMPDEST SWAP4 SWAP3 POP POP POP JUMP INVALID LOG2 PUSH5 0x6970667358 0x22 SLT KECCAK256 0xB9 COINBASE 0xDD PUSH22 0x7B4597DE871EFC21EFC964AEBB833F4B1D451A69162A 0xC9 DUP3 SWAP5 DUPN 0x25 SWAP14 PUSH5 0x736F6C6343 STOP ADDMOD 0x22 STOP CALLER "
		},
		"gasEstimates": {
			"creation": {
				"codeDepositCost": "322600",
				"executionCost": "360",
				"totalCost": "322960"
			},
			"external": {
				"Addvalue(uint256)": "infinite",
				"Dividevalue(uint256)": "infinite",
				"Multiplyvalue(uint256)": "infinite",
				"Subvalue(uint256)": "infinite",
				"result()": "2490"
			}
		},
		"methodIdentifiers": {
			"Addvalue(uint256)": "08fa13c1",
			"Dividevalue(uint256)": "06fb99d6",
			"Multiplyvalue(uint256)": "0a20e1b6",
			"Subvalue(uint256)": "50d711b1",
			"result()": "65372147"
		}
	},
	"abi": [
		{
			"anonymous": false,
			"inputs": [
				{
					"indexed": false,
					"internalType": "string",
					"name": "operation",
					"type": "string"
				},
				{
					"indexed": false,
					"internalType": "uint256",
					"name": "value",
					"type": "uint256"
				},
				{
					"indexed": false,
					"internalType": "uint256",
					"name": "result",
					"type": "uint256"
				}
			],
			"name": "Calculation",
			"type": "event"
		},
		{
			"inputs": [
				{
					"internalType": "uint256",
					"name": "_value",
					"type": "uint256"
				}
			],
			"name": "Addvalue",
			"outputs": [],
			"stateMutability": "nonpayable",
			"type": "function"
		},
		{
			"inputs": [
				{
					"internalType": "uint256",
					"name": "_value",
					"type": "uint256"
				}
			],
			"name": "Dividevalue",
			"outputs": [],
			"stateMutability": "nonpayable",
			"type": "function"
		},
		{
			"inputs": [
				{
					"internalType": "uint256",
					"name": "_value",
					"type": "uint256"
				}
			],
			"name": "Multiplyvalue",
			"outputs": [],
			"stateMutability": "nonpayable",
			"type": "function"
		},
		{
			"inputs": [
				{
					"internalType": "uint256",
					"name": "_value",
					"type": "uint256"
				}
			],
			"name": "Subvalue",
			"outputs": [],
			"stateMutability": "nonpayable",
			"type": "function"
		},
		{
			"inputs": [],
			"name": "result",
			"outputs": [
				{
					"internalType": "uint256",
					"name": "",
					"type": "uint256"
				}
			],
			"stateMutability": "view",
			"type": "function"
		}
	]
}