{
	"data": {
		"bytecode": {
			"linkReferences": {},
			"object": "608060405260645f553480156012575f5ffd5b506103e4806100205f395ff3fe608060405234801561000f575f5ffd5b506004361061003f575f3560e01c80631116fd04146100435780633ab9bf6e1461005f57806367dfd4c91461007d575b5f5ffd5b61005d600480360381019061005891906101a1565b610099565b005b6100676100f6565b60405161007491906101db565b60405180910390f35b610097600480360381019061009291906101a1565b6100fb565b005b5f5f54116100dc576040517f08c379a00000000000000000000000000000000000000000000000000000000081526004016100d39061024e565b60405180910390fd5b805f5f8282546100ec9190610299565b9250508190555050565b5f5481565b5f811161013d576040517f08c379a000000000000000000000000000000000000000000000000000000000815260040161013490610316565b60405180910390fd5b805f5f82825461014d9190610334565b9250508190555060645f54111561016757610166610367565b5b50565b5f5ffd5b5f819050919050565b6101808161016e565b811461018a575f5ffd5b50565b5f8135905061019b81610177565b92915050565b5f602082840312156101b6576101b561016a565b5b5f6101c38482850161018d565b91505092915050565b6101d58161016e565b82525050565b5f6020820190506101ee5f8301846101cc565b92915050565b5f82825260208201905092915050565b7f4e6f742073756666696369656e7420736c6f74730000000000000000000000005f82015250565b5f6102386014836101f4565b915061024382610204565b602082019050919050565b5f6020820190508181035f8301526102658161022c565b9050919050565b7f4e487b71000000000000000000000000000000000000000000000000000000005f52601160045260245ffd5b5f6102a38261016e565b91506102ae8361016e565b92508282039050818111156102c6576102c561026c565b5b92915050565b7f4e6f7420626f6f6b6564000000000000000000000000000000000000000000005f82015250565b5f610300600a836101f4565b915061030b826102cc565b602082019050919050565b5f6020820190508181035f83015261032d816102f4565b9050919050565b5f61033e8261016e565b91506103498361016e565b92508282019050808211156103615761036061026c565b5b92915050565b7f4e487b71000000000000000000000000000000000000000000000000000000005f52600160045260245ffdfea264697066735822122063f315d05bc2ff58c9764a027dfd3c447943dbe17b2df5d1b988870a4b84f1bc64736f6c63781c302e382e33352d7072652e312b636f6d6d69742e6139396236643863004d",
			"opcodes": "PUSH1 0x80 PUSH1 0x40 MSTORE PUSH1 0x64 PUSH0 SSTORE CALLVALUE DUP1 ISZERO PUSH1 0x12 JUMPI PUSH0 PUSH0 REVERT JUMPDEST POP PUSH2 0x3E4 DUP1 PUSH2 0x20 PUSH0 CODECOPY PUSH0 RETURN INVALID PUSH1 0x80 PUSH1 0x40 MSTORE CALLVALUE DUP1 ISZERO PUSH2 0xF JUMPI PUSH0 PUSH0 REVERT JUMPDEST POP PUSH1 0x4 CALLDATASIZE LT PUSH2 0x3F JUMPI PUSH0 CALLDATALOAD PUSH1 0xE0 SHR DUP1 PUSH4 0x1116FD04 EQ PUSH2 0x43 JUMPI DUP1 PUSH4 0x3AB9BF6E EQ PUSH2 0x5F JUMPI DUP1 PUSH4 0x67DFD4C9 EQ PUSH2 0x7D JUMPI JUMPDEST PUSH0 PUSH0 REVERT JUMPDEST PUSH2 0x5D PUSH1 0x4 DUP1 CALLDATASIZE SUB DUP2 ADD SWAP1 PUSH2 0x58 SWAP2 SWAP1 PUSH2 0x1A1 JUMP JUMPDEST PUSH2 0x99 JUMP JUMPDEST STOP JUMPDEST PUSH2 0x67 PUSH2 0xF6 JUMP JUMPDEST PUSH1 0x40 MLOAD PUSH2 0x74 SWAP2 SWAP1 PUSH2 0x1DB JUMP JUMPDEST PUSH1 0x40 MLOAD DUP1 SWAP2 SUB SWAP1 RETURN JUMPDEST PUSH2 0x97 PUSH1 0x4 DUP1 CALLDATASIZE SUB DUP2 ADD SWAP1 PUSH2 0x92 SWAP2 SWAP1 PUSH2 0x1A1 JUMP JUMPDEST PUSH2 0xFB JUMP JUMPDEST STOP JUMPDEST PUSH0 PUSH0 SLOAD GT PUSH2 0xDC JUMPI PUSH1 0x40 MLOAD PUSH32 0x8C379A000000000000000000000000000000000000000000000000000000000 DUP2 MSTORE PUSH1 0x4 ADD PUSH2 0xD3 SWAP1 PUSH2 0x24E JUMP JUMPDEST PUSH1 0x40 MLOAD DUP1 SWAP2 SUB SWAP1 REVERT JUMPDEST DUP1 PUSH0 PUSH0 DUP3 DUP3 SLOAD PUSH2 0xEC SWAP2 SWAP1 PUSH2 0x299 JUMP JUMPDEST SWAP3 POP POP DUP2 SWAP1 SSTORE POP POP JUMP JUMPDEST PUSH0 SLOAD DUP2 JUMP JUMPDEST PUSH0 DUP2 GT PUSH2 0x13D JUMPI PUSH1 0x40 MLOAD PUSH32 0x8C379A000000000000000000000000000000000000000000000000000000000 DUP2 MSTORE PUSH1 0x4 ADD PUSH2 0x134 SWAP1 PUSH2 0x316 JUMP JUMPDEST PUSH1 0x40 MLOAD DUP1 SWAP2 SUB SWAP1 REVERT JUMPDEST DUP1 PUSH0 PUSH0 DUP3 DUP3 SLOAD PUSH2 0x14D SWAP2 SWAP1 PUSH2 0x334 JUMP JUMPDEST SWAP3 POP POP DUP2 SWAP1 SSTORE POP PUSH1 0x64 PUSH0 SLOAD GT ISZERO PUSH2 0x167 JUMPI PUSH2 0x166 PUSH2 0x367 JUMP JUMPDEST JUMPDEST POP JUMP JUMPDEST PUSH0 PUSH0 REVERT JUMPDEST PUSH0 DUP2 SWAP1 POP SWAP2 SWAP1 POP JUMP JUMPDEST PUSH2 0x180 DUP2 PUSH2 0x16E JUMP JUMPDEST DUP2 EQ PUSH2 0x18A JUMPI PUSH0 PUSH0 REVERT JUMPDEST POP JUMP JUMPDEST PUSH0 DUP2 CALLDATALOAD SWAP1 POP PUSH2 0x19B DUP2 PUSH2 0x177 JUMP JUMPDEST SWAP3 SWAP2 POP POP JUMP JUMPDEST PUSH0 PUSH1 0x20 DUP3 DUP5 SUB SLT ISZERO PUSH2 0x1B6 JUMPI PUSH2 0x1B5 PUSH2 0x16A JUMP JUMPDEST JUMPDEST PUSH0 PUSH2 0x1C3 DUP5 DUP3 DUP6 ADD PUSH2 0x18D JUMP JUMPDEST SWAP2 POP POP SWAP3 SWAP2 POP POP JUMP JUMPDEST PUSH2 0x1D5 DUP2 PUSH2 0x16E JUMP JUMPDEST DUP3 MSTORE POP POP JUMP JUMPDEST PUSH0 PUSH1 0x20 DUP3 ADD SWAP1 POP PUSH2 0x1EE PUSH0 DUP4 ADD DUP5 PUSH2 0x1CC JUMP JUMPDEST SWAP3 SWAP2 POP POP JUMP JUMPDEST PUSH0 DUP3 DUP3 MSTORE PUSH1 0x20 DUP3 ADD SWAP1 POP SWAP3 SWAP2 POP POP JUMP JUMPDEST PUSH32 0x4E6F742073756666696369656E7420736C6F7473000000000000000000000000 PUSH0 DUP3 ADD MSTORE POP JUMP JUMPDEST PUSH0 PUSH2 0x238 PUSH1 0x14 DUP4 PUSH2 0x1F4 JUMP JUMPDEST SWAP2 POP PUSH2 0x243 DUP3 PUSH2 0x204 JUMP JUMPDEST PUSH1 0x20 DUP3 ADD SWAP1 POP SWAP2 SWAP1 POP JUMP JUMPDEST PUSH0 PUSH1 0x20 DUP3 ADD SWAP1 POP DUP2 DUP2 SUB PUSH0 DUP4 ADD MSTORE PUSH2 0x265 DUP2 PUSH2 0x22C JUMP JUMPDEST SWAP1 POP SWAP2 SWAP1 POP JUMP JUMPDEST PUSH32 0x4E487B7100000000000000000000000000000000000000000000000000000000 PUSH0 MSTORE PUSH1 0x11 PUSH1 0x4 MSTORE PUSH1 0x24 PUSH0 REVERT JUMPDEST PUSH0 PUSH2 0x2A3 DUP3 PUSH2 0x16E JUMP JUMPDEST SWAP2 POP PUSH2 0x2AE DUP4 PUSH2 0x16E JUMP JUMPDEST SWAP3 POP DUP3 DUP3 SUB SWAP1 POP DUP2 DUP2 GT ISZERO PUSH2 0x2C6 JUMPI PUSH2 0x2C5 PUSH2 0x26C JUMP JUMPDEST JUMPDEST SWAP3 SWAP2 POP POP JUMP JUMPDEST PUSH32 0x4E6F7420626F6F6B656400000000000000000000000000000000000000000000 PUSH0 DUP3 ADD MSTORE POP JUMP JUMPDEST PUSH0 PUSH2 0x300 PUSH1 0xA DUP4 PUSH2 0x1F4 JUMP JUMPDEST SWAP2 POP PUSH2 0x30B DUP3 PUSH2 0x2CC JUMP JUMPDEST PUSH1 0x20 DUP3 ADD SWAP1 POP SWAP2 SWAP1 POP JUMP JUMPDEST PUSH0 PUSH1 0x20 DUP3 ADD SWAP1 POP DUP2 DUP2 SUB PUSH0 DUP4 ADD MSTORE PUSH2 0x32D DUP2 PUSH2 0x2F4 JUMP JUMPDEST SWAP1 POP SWAP2 SWAP1 POP JUMP JUMPDEST PUSH0 PUSH2 0x33E DUP3 PUSH2 0x16E JUMP JUMPDEST SWAP2 POP PUSH2 0x349 DUP4 PUSH2 0x16E JUMP JUMPDEST SWAP3 POP DUP3 DUP3 ADD SWAP1 POP DUP1 DUP3 GT ISZERO PUSH2 0x361 JUMPI PUSH2 0x360 PUSH2 0x26C JUMP JUMPDEST JUMPDEST SWAP3 SWAP2 POP POP JUMP JUMPDEST PUSH32 0x4E487B7100000000000000000000000000000000000000000000000000000000 PUSH0 MSTORE PUSH1 0x1 PUSH1 0x4 MSTORE PUSH1 0x24 PUSH0 REVERT INVALID LOG2 PUSH5 0x6970667358 0x22 SLT KECCAK256 PUSH4 0xF315D05B 0xC2 SELFDESTRUCT PC 0xC9 PUSH23 0x4A027DFD3C447943DBE17B2DF5D1B988870A4B84F1BC64 PUSH20 0x6F6C63781C302E382E33352D7072652E312B636F PUSH14 0x6D69742E6139396236643863004D "
		},
		"gasEstimates": {
			"creation": {
				"codeDepositCost": "199200",
				"executionCost": "22348",
				"totalCost": "221548"
			},
			"external": {
				"Total_slots()": "2424",
				"book(uint256)": "infinite",
				"leave(uint256)": "infinite"
			}
		},
		"methodIdentifiers": {
			"Total_slots()": "3ab9bf6e",
			"book(uint256)": "1116fd04",
			"leave(uint256)": "67dfd4c9"
		}
	},
	"abi": [
		{
			"inputs": [],
			"name": "Total_slots",
			"outputs": [
				{
					"internalType": "uint256",
					"name": "",
					"type": "uint256"
				}
			],
			"stateMutability": "view",
			"type": "function"
		},
		{
			"inputs": [
				{
					"internalType": "uint256",
					"name": "slots",
					"type": "uint256"
				}
			],
			"name": "book",
			"outputs": [],
			"stateMutability": "nonpayable",
			"type": "function"
		},
		{
			"inputs": [
				{
					"internalType": "uint256",
					"name": "slots",
					"type": "uint256"
				}
			],
			"name": "leave",
			"outputs": [],
			"stateMutability": "nonpayable",
			"type": "function"
		}
	]
}