{
	"data": {
		"bytecode": {
			"linkReferences": {},
			"object": "608060405234801561001057600080fd5b50610588806100206000396000f3fe608060405234801561001057600080fd5b50600436106100415760003560e01c80632512abfd1461004657806353ed514314610062578063e69bfc8414610082575b600080fd5b610060600480360381019061005b9190610322565b61009e565b005b61006a6100e8565b60405161007993929190610393565b60405180910390f35b61009c600480360381019061009791906102ce565b61018c565b005b806002819055506100e56040518060400160405280600381526020017f53616d0000000000000000000000000000000000000000000000000000000000815250601361018c565b50565b606060008060006001546002548280546101019061049a565b80601f016020809104026020016040519081016040528092919081815260200182805461012d9061049a565b801561017a5780601f1061014f5761010080835404028352916020019161017a565b820191906000526020600020905b81548152906001019060200180831161015d57829003601f168201915b50505050509250925092509250909192565b81600090805190602001906101a29291906101ae565b50806001819055505050565b8280546101ba9061049a565b90600052602060002090601f0160209004810192826101dc5760008555610223565b82601f106101f557805160ff1916838001178555610223565b82800160010185558215610223579182015b82811115610222578251825591602001919060010190610207565b5b5090506102309190610234565b5090565b5b8082111561024d576000816000905550600101610235565b5090565b600061026461025f84610402565b6103d1565b90508281526020810184848401111561027c57600080fd5b610287848285610458565b509392505050565b600082601f8301126102a057600080fd5b81356102b0848260208601610251565b91505092915050565b6000813590506102c88161053b565b92915050565b600080604083850312156102e157600080fd5b600083013567ffffffffffffffff8111156102fb57600080fd5b6103078582860161028f565b9250506020610318858286016102b9565b9150509250929050565b60006020828403121561033457600080fd5b6000610342848285016102b9565b91505092915050565b600061035682610432565b610360818561043d565b9350610370818560208601610467565b6103798161052a565b840191505092915050565b61038d8161044e565b82525050565b600060608201905081810360008301526103ad818661034b565b90506103bc6020830185610384565b6103c96040830184610384565b949350505050565b6000604051905081810181811067ffffffffffffffff821117156103f8576103f76104fb565b5b8060405250919050565b600067ffffffffffffffff82111561041d5761041c6104fb565b5b601f19601f8301169050602081019050919050565b600081519050919050565b600082825260208201905092915050565b6000819050919050565b82818337600083830152505050565b60005b8381101561048557808201518184015260208101905061046a565b83811115610494576000848401525b50505050565b600060028204905060018216806104b257607f821691505b602082108114156104c6576104c56104cc565b5b50919050565b7f4e487b7100000000000000000000000000000000000000000000000000000000600052602260045260246000fd5b7f4e487b7100000000000000000000000000000000000000000000000000000000600052604160045260246000fd5b6000601f19601f8301169050919050565b6105448161044e565b811461054f57600080fd5b5056fea26469706673582212207abe7a3ab10576d478d00bc6b9aee3b21927b9f8ce6dd7dc5ba2ea51da7103b964736f6c63430008000033",
			"opcodes": "PUSH1 0x80 PUSH1 0x40 MSTORE CALLVALUE DUP1 ISZERO PUSH2 0x10 JUMPI PUSH1 0x0 DUP1 REVERT JUMPDEST POP PUSH2 0x588 DUP1 PUSH2 0x20 PUSH1 0x0 CODECOPY PUSH1 0x0 RETURN INVALID PUSH1 0x80 PUSH1 0x40 MSTORE CALLVALUE DUP1 ISZERO PUSH2 0x10 JUMPI PUSH1 0x0 DUP1 REVERT JUMPDEST POP PUSH1 0x4 CALLDATASIZE LT PUSH2 0x41 JUMPI PUSH1 0x0 CALLDATALOAD PUSH1 0xE0 SHR DUP1 PUSH4 0x2512ABFD EQ PUSH2 0x46 JUMPI DUP1 PUSH4 0x53ED5143 EQ PUSH2 0x62 JUMPI DUP1 PUSH4 0xE69BFC84 EQ PUSH2 0x82 JUMPI JUMPDEST PUSH1 0x0 DUP1 REVERT JUMPDEST PUSH2 0x60 PUSH1 0x4 DUP1 CALLDATASIZE SUB DUP2 ADD SWAP1 PUSH2 0x5B SWAP2 SWAP1 PUSH2 0x322 JUMP JUMPDEST PUSH2 0x9E JUMP JUMPDEST STOP JUMPDEST PUSH2 0x6A PUSH2 0xE8 JUMP JUMPDEST PUSH1 0x40 MLOAD PUSH2 0x79 SWAP4 SWAP3 SWAP2 SWAP1 PUSH2 0x393 JUMP JUMPDEST PUSH1 0x40 MLOAD DUP1 SWAP2 SUB SWAP1 RETURN JUMPDEST PUSH2 0x9C PUSH1 0x4 DUP1 CALLDATASIZE SUB DUP2 ADD SWAP1 PUSH2 0x97 SWAP2 SWAP1 PUSH2 0x2CE JUMP JUMPDEST PUSH2 0x18C JUMP JUMPDEST STOP JUMPDEST DUP1 PUSH1 0x2 DUP2 SWAP1 SSTORE POP PUSH2 0xE5 PUSH1 0x40 MLOAD DUP1 PUSH1 0x40 ADD PUSH1 0x40 MSTORE DUP1 PUSH1 0x3 DUP2 MSTORE PUSH1 0x20 ADD PUSH32 0x53616D0000000000000000000000000000000000000000000000000000000000 DUP2 MSTORE POP PUSH1 0x13 PUSH2 0x18C JUMP JUMPDEST POP JUMP JUMPDEST PUSH1 0x60 PUSH1 0x0 DUP1 PUSH1 0x0 PUSH1 0x1 SLOAD PUSH1 0x2 SLOAD DUP3 DUP1 SLOAD PUSH2 0x101 SWAP1 PUSH2 0x49A JUMP JUMPDEST DUP1 PUSH1 0x1F ADD PUSH1 0x20 DUP1 SWAP2 DIV MUL PUSH1 0x20 ADD PUSH1 0x40 MLOAD SWAP1 DUP2 ADD PUSH1 0x40 MSTORE DUP1 SWAP3 SWAP2 SWAP1 DUP2 DUP2 MSTORE PUSH1 0x20 ADD DUP3 DUP1 SLOAD PUSH2 0x12D SWAP1 PUSH2 0x49A JUMP JUMPDEST DUP1 ISZERO PUSH2 0x17A JUMPI DUP1 PUSH1 0x1F LT PUSH2 0x14F JUMPI PUSH2 0x100 DUP1 DUP4 SLOAD DIV MUL DUP4 MSTORE SWAP2 PUSH1 0x20 ADD SWAP2 PUSH2 0x17A JUMP JUMPDEST DUP3 ADD SWAP2 SWAP1 PUSH1 0x0 MSTORE PUSH1 0x20 PUSH1 0x0 KECCAK256 SWAP1 JUMPDEST DUP2 SLOAD DUP2 MSTORE SWAP1 PUSH1 0x1 ADD SWAP1 PUSH1 0x20 ADD DUP1 DUP4 GT PUSH2 0x15D JUMPI DUP3 SWAP1 SUB PUSH1 0x1F AND DUP3 ADD SWAP2 JUMPDEST POP POP POP POP POP SWAP3 POP SWAP3 POP SWAP3 POP SWAP3 POP SWAP1 SWAP2 SWAP3 JUMP JUMPDEST DUP2 PUSH1 0x0 SWAP1 DUP1 MLOAD SWAP1 PUSH1 0x20 ADD SWAP1 PUSH2 0x1A2 SWAP3 SWAP2 SWAP1 PUSH2 0x1AE JUMP JUMPDEST POP DUP1 PUSH1 0x1 DUP2 SWAP1 SSTORE POP POP POP JUMP JUMPDEST DUP3 DUP1 SLOAD PUSH2 0x1BA SWAP1 PUSH2 0x49A JUMP JUMPDEST SWAP1 PUSH1 0x0 MSTORE PUSH1 0x20 PUSH1 0x0 KECCAK256 SWAP1 PUSH1 0x1F ADD PUSH1 0x20 SWAP1 DIV DUP2 ADD SWAP3 DUP3 PUSH2 0x1DC JUMPI PUSH1 0x0 DUP6 SSTORE PUSH2 0x223 JUMP JUMPDEST DUP3 PUSH1 0x1F LT PUSH2 0x1F5 JUMPI DUP1 MLOAD PUSH1 0xFF NOT AND DUP4 DUP1 ADD OR DUP6 SSTORE PUSH2 0x223 JUMP JUMPDEST DUP3 DUP1 ADD PUSH1 0x1 ADD DUP6 SSTORE DUP3 ISZERO PUSH2 0x223 JUMPI SWAP2 DUP3 ADD JUMPDEST DUP3 DUP2 GT ISZERO PUSH2 0x222 JUMPI DUP3 MLOAD DUP3 SSTORE SWAP2 PUSH1 0x20 ADD SWAP2 SWAP1 PUSH1 0x1 ADD SWAP1 PUSH2 0x207 JUMP JUMPDEST JUMPDEST POP SWAP1 POP PUSH2 0x230 SWAP2 SWAP1 PUSH2 0x234 JUMP JUMPDEST POP SWAP1 JUMP JUMPDEST JUMPDEST DUP1 DUP3 GT ISZERO PUSH2 0x24D JUMPI PUSH1 0x0 DUP2 PUSH1 0x0 SWAP1 SSTORE POP PUSH1 0x1 ADD PUSH2 0x235 JUMP JUMPDEST POP SWAP1 JUMP JUMPDEST PUSH1 0x0 PUSH2 0x264 PUSH2 0x25F DUP5 PUSH2 0x402 JUMP JUMPDEST PUSH2 0x3D1 JUMP JUMPDEST SWAP1 POP DUP3 DUP2 MSTORE PUSH1 0x20 DUP2 ADD DUP5 DUP5 DUP5 ADD GT ISZERO PUSH2 0x27C JUMPI PUSH1 0x0 DUP1 REVERT JUMPDEST PUSH2 0x287 DUP5 DUP3 DUP6 PUSH2 0x458 JUMP JUMPDEST POP SWAP4 SWAP3 POP POP POP JUMP JUMPDEST PUSH1 0x0 DUP3 PUSH1 0x1F DUP4 ADD SLT PUSH2 0x2A0 JUMPI PUSH1 0x0 DUP1 REVERT JUMPDEST DUP2 CALLDATALOAD PUSH2 0x2B0 DUP5 DUP3 PUSH1 0x20 DUP7 ADD PUSH2 0x251 JUMP JUMPDEST SWAP2 POP POP SWAP3 SWAP2 POP POP JUMP JUMPDEST PUSH1 0x0 DUP2 CALLDATALOAD SWAP1 POP PUSH2 0x2C8 DUP2 PUSH2 0x53B JUMP JUMPDEST SWAP3 SWAP2 POP POP JUMP JUMPDEST PUSH1 0x0 DUP1 PUSH1 0x40 DUP4 DUP6 SUB SLT ISZERO PUSH2 0x2E1 JUMPI PUSH1 0x0 DUP1 REVERT JUMPDEST PUSH1 0x0 DUP4 ADD CALLDATALOAD PUSH8 0xFFFFFFFFFFFFFFFF DUP2 GT ISZERO PUSH2 0x2FB JUMPI PUSH1 0x0 DUP1 REVERT JUMPDEST PUSH2 0x307 DUP6 DUP3 DUP7 ADD PUSH2 0x28F JUMP JUMPDEST SWAP3 POP POP PUSH1 0x20 PUSH2 0x318 DUP6 DUP3 DUP7 ADD PUSH2 0x2B9 JUMP JUMPDEST SWAP2 POP POP SWAP3 POP SWAP3 SWAP1 POP JUMP JUMPDEST PUSH1 0x0 PUSH1 0x20 DUP3 DUP5 SUB SLT ISZERO PUSH2 0x334 JUMPI PUSH1 0x0 DUP1 REVERT JUMPDEST PUSH1 0x0 PUSH2 0x342 DUP5 DUP3 DUP6 ADD PUSH2 0x2B9 JUMP JUMPDEST SWAP2 POP POP SWAP3 SWAP2 POP POP JUMP JUMPDEST PUSH1 0x0 PUSH2 0x356 DUP3 PUSH2 0x432 JUMP JUMPDEST PUSH2 0x360 DUP2 DUP6 PUSH2 0x43D JUMP JUMPDEST SWAP4 POP PUSH2 0x370 DUP2 DUP6 PUSH1 0x20 DUP7 ADD PUSH2 0x467 JUMP JUMPDEST PUSH2 0x379 DUP2 PUSH2 0x52A JUMP JUMPDEST DUP5 ADD SWAP2 POP POP SWAP3 SWAP2 POP POP JUMP JUMPDEST PUSH2 0x38D DUP2 PUSH2 0x44E JUMP JUMPDEST DUP3 MSTORE POP POP JUMP JUMPDEST PUSH1 0x0 PUSH1 0x60 DUP3 ADD SWAP1 POP DUP2 DUP2 SUB PUSH1 0x0 DUP4 ADD MSTORE PUSH2 0x3AD DUP2 DUP7 PUSH2 0x34B JUMP JUMPDEST SWAP1 POP PUSH2 0x3BC PUSH1 0x20 DUP4 ADD DUP6 PUSH2 0x384 JUMP JUMPDEST PUSH2 0x3C9 PUSH1 0x40 DUP4 ADD DUP5 PUSH2 0x384 JUMP JUMPDEST SWAP5 SWAP4 POP POP POP POP JUMP JUMPDEST PUSH1 0x0 PUSH1 0x40 MLOAD SWAP1 POP DUP2 DUP2 ADD DUP2 DUP2 LT PUSH8 0xFFFFFFFFFFFFFFFF DUP3 GT OR ISZERO PUSH2 0x3F8 JUMPI PUSH2 0x3F7 PUSH2 0x4FB JUMP JUMPDEST JUMPDEST DUP1 PUSH1 0x40 MSTORE POP SWAP2 SWAP1 POP JUMP JUMPDEST PUSH1 0x0 PUSH8 0xFFFFFFFFFFFFFFFF DUP3 GT ISZERO PUSH2 0x41D JUMPI PUSH2 0x41C PUSH2 0x4FB JUMP JUMPDEST JUMPDEST PUSH1 0x1F NOT PUSH1 0x1F DUP4 ADD AND SWAP1 POP PUSH1 0x20 DUP2 ADD SWAP1 POP SWAP2 SWAP1 POP JUMP JUMPDEST PUSH1 0x0 DUP2 MLOAD SWAP1 POP SWAP2 SWAP1 POP JUMP JUMPDEST PUSH1 0x0 DUP3 DUP3 MSTORE PUSH1 0x20 DUP3 ADD SWAP1 POP SWAP3 SWAP2 POP POP JUMP JUMPDEST PUSH1 0x0 DUP2 SWAP1 POP SWAP2 SWAP1 POP JUMP JUMPDEST DUP3 DUP2 DUP4 CALLDATACOPY PUSH1 0x0 DUP4 DUP4 ADD MSTORE POP POP POP JUMP JUMPDEST PUSH1 0x0 JUMPDEST DUP4 DUP2 LT ISZERO PUSH2 0x485 JUMPI DUP1 DUP3 ADD MLOAD DUP2 DUP5 ADD MSTORE PUSH1 0x20 DUP2 ADD SWAP1 POP PUSH2 0x46A JUMP JUMPDEST DUP4 DUP2 GT ISZERO PUSH2 0x494 JUMPI PUSH1 0x0 DUP5 DUP5 ADD MSTORE JUMPDEST POP POP POP POP JUMP JUMPDEST PUSH1 0x0 PUSH1 0x2 DUP3 DIV SWAP1 POP PUSH1 0x1 DUP3 AND DUP1 PUSH2 0x4B2 JUMPI PUSH1 0x7F DUP3 AND SWAP2 POP JUMPDEST PUSH1 0x20 DUP3 LT DUP2 EQ ISZERO PUSH2 0x4C6 JUMPI PUSH2 0x4C5 PUSH2 0x4CC JUMP JUMPDEST JUMPDEST POP SWAP2 SWAP1 POP JUMP JUMPDEST PUSH32 0x4E487B7100000000000000000000000000000000000000000000000000000000 PUSH1 0x0 MSTORE PUSH1 0x22 PUSH1 0x4 MSTORE PUSH1 0x24 PUSH1 0x0 REVERT JUMPDEST PUSH32 0x4E487B7100000000000000000000000000000000000000000000000000000000 PUSH1 0x0 MSTORE PUSH1 0x41 PUSH1 0x4 MSTORE PUSH1 0x24 PUSH1 0x0 REVERT JUMPDEST PUSH1 0x0 PUSH1 0x1F NOT PUSH1 0x1F DUP4 ADD AND SWAP1 POP SWAP2 SWAP1 POP JUMP JUMPDEST PUSH2 0x544 DUP2 PUSH2 0x44E JUMP JUMPDEST DUP2 EQ PUSH2 0x54F JUMPI PUSH1 0x0 DUP1 REVERT JUMPDEST POP JUMP INVALID LOG2 PUSH5 0x6970667358 0x22 SLT KECCAK256 PUSH27 0xBE7A3AB10576D478D00BC6B9AEE3B21927B9F8CE6DD7DC5BA2EA51 0xDA PUSH18 0x3B964736F6C634300080000330000000000 "
		},
		"gasEstimates": {
			"creation": {
				"codeDepositCost": "283200",
				"executionCost": "324",
				"totalCost": "283524"
			},
			"external": {
				"Marks(uint256)": "infinite",
				"details(string,uint256)": "infinite",
				"getAll()": "infinite"
			}
		},
		"methodIdentifiers": {
			"Marks(uint256)": "2512abfd",
			"details(string,uint256)": "e69bfc84",
			"getAll()": "53ed5143"
		}
	},
	"abi": [
		{
			"inputs": [
				{
					"internalType": "uint256",
					"name": "_marks",
					"type": "uint256"
				}
			],
			"name": "Marks",
			"outputs": [],
			"stateMutability": "nonpayable",
			"type": "function"
		},
		{
			"inputs": [
				{
					"internalType": "string",
					"name": "_name",
					"type": "string"
				},
				{
					"internalType": "uint256",
					"name": "_age",
					"type": "uint256"
				}
			],
			"name": "details",
			"outputs": [],
			"stateMutability": "nonpayable",
			"type": "function"
		},
		{
			"inputs": [],
			"name": "getAll",
			"outputs": [
				{
					"internalType": "string",
					"name": "",
					"type": "string"
				},
				{
					"internalType": "uint256",
					"name": "",
					"type": "uint256"
				},
				{
					"internalType": "uint256",
					"name": "",
					"type": "uint256"
				}
			],
			"stateMutability": "view",
			"type": "function"
		}
	]
}