{
	"data": {
		"bytecode": {
			"linkReferences": {},
			"object": "6080604052606460005534801561001557600080fd5b506103bc806100256000396000f3fe608060405234801561001057600080fd5b50600436106100365760003560e01c80631116fd041461003b578063aaba208914610057575b600080fd5b61005560048036038101906100509190610188565b610075565b005b61005f610169565b60405161006c9190610280565b60405180910390f35b600081116100b8576040517f08c379a00000000000000000000000000000000000000000000000000000000081526004016100af90610240565b60405180910390fd5b60648111156100fc576040517f08c379a00000000000000000000000000000000000000000000000000000000081526004016100f390610260565b60405180910390fd5b8060008082825461010d9190610302565b92505081905550806001600082825461012691906102ac565b92505081905550600080541015610166577f4e487b7100000000000000000000000000000000000000000000000000000000600052600160045260246000fd5b50565b6000600154905090565b6000813590506101828161036f565b92915050565b60006020828403121561019a57600080fd5b60006101a884828501610173565b91505092915050565b60006101be60148361029b565b91507f496e73756666696369656e74205469636b6574730000000000000000000000006000830152602082019050919050565b60006101fe60188361029b565b91507f4c696d69746564205469636b657473206f6e6c792031303000000000000000006000830152602082019050919050565b61023a81610336565b82525050565b60006020820190508181036000830152610259816101b1565b9050919050565b60006020820190508181036000830152610279816101f1565b9050919050565b60006020820190506102956000830184610231565b92915050565b600082825260208201905092915050565b60006102b782610336565b91506102c283610336565b9250827fffffffffffffffffffffffffffffffffffffffffffffffffffffffffffffffff038211156102f7576102f6610340565b5b828201905092915050565b600061030d82610336565b915061031883610336565b92508282101561032b5761032a610340565b5b828203905092915050565b6000819050919050565b7f4e487b7100000000000000000000000000000000000000000000000000000000600052601160045260246000fd5b61037881610336565b811461038357600080fd5b5056fea26469706673582212208791c79b4e947e6913ab5e87621039fe9cc5b09b15020adcf5452aa7030f830064736f6c63430008000033",
			"opcodes": "PUSH1 0x80 PUSH1 0x40 MSTORE PUSH1 0x64 PUSH1 0x0 SSTORE CALLVALUE DUP1 ISZERO PUSH2 0x15 JUMPI PUSH1 0x0 DUP1 REVERT JUMPDEST POP PUSH2 0x3BC DUP1 PUSH2 0x25 PUSH1 0x0 CODECOPY PUSH1 0x0 RETURN INVALID PUSH1 0x80 PUSH1 0x40 MSTORE CALLVALUE DUP1 ISZERO PUSH2 0x10 JUMPI PUSH1 0x0 DUP1 REVERT JUMPDEST POP PUSH1 0x4 CALLDATASIZE LT PUSH2 0x36 JUMPI PUSH1 0x0 CALLDATALOAD PUSH1 0xE0 SHR DUP1 PUSH4 0x1116FD04 EQ PUSH2 0x3B JUMPI DUP1 PUSH4 0xAABA2089 EQ PUSH2 0x57 JUMPI JUMPDEST PUSH1 0x0 DUP1 REVERT JUMPDEST PUSH2 0x55 PUSH1 0x4 DUP1 CALLDATASIZE SUB DUP2 ADD SWAP1 PUSH2 0x50 SWAP2 SWAP1 PUSH2 0x188 JUMP JUMPDEST PUSH2 0x75 JUMP JUMPDEST STOP JUMPDEST PUSH2 0x5F PUSH2 0x169 JUMP JUMPDEST PUSH1 0x40 MLOAD PUSH2 0x6C SWAP2 SWAP1 PUSH2 0x280 JUMP JUMPDEST PUSH1 0x40 MLOAD DUP1 SWAP2 SUB SWAP1 RETURN JUMPDEST PUSH1 0x0 DUP2 GT PUSH2 0xB8 JUMPI PUSH1 0x40 MLOAD PUSH32 0x8C379A000000000000000000000000000000000000000000000000000000000 DUP2 MSTORE PUSH1 0x4 ADD PUSH2 0xAF SWAP1 PUSH2 0x240 JUMP JUMPDEST PUSH1 0x40 MLOAD DUP1 SWAP2 SUB SWAP1 REVERT JUMPDEST PUSH1 0x64 DUP2 GT ISZERO PUSH2 0xFC JUMPI PUSH1 0x40 MLOAD PUSH32 0x8C379A000000000000000000000000000000000000000000000000000000000 DUP2 MSTORE PUSH1 0x4 ADD PUSH2 0xF3 SWAP1 PUSH2 0x260 JUMP JUMPDEST PUSH1 0x40 MLOAD DUP1 SWAP2 SUB SWAP1 REVERT JUMPDEST DUP1 PUSH1 0x0 DUP1 DUP3 DUP3 SLOAD PUSH2 0x10D SWAP2 SWAP1 PUSH2 0x302 JUMP JUMPDEST SWAP3 POP POP DUP2 SWAP1 SSTORE POP DUP1 PUSH1 0x1 PUSH1 0x0 DUP3 DUP3 SLOAD PUSH2 0x126 SWAP2 SWAP1 PUSH2 0x2AC JUMP JUMPDEST SWAP3 POP POP DUP2 SWAP1 SSTORE POP PUSH1 0x0 DUP1 SLOAD LT ISZERO PUSH2 0x166 JUMPI PUSH32 0x4E487B7100000000000000000000000000000000000000000000000000000000 PUSH1 0x0 MSTORE PUSH1 0x1 PUSH1 0x4 MSTORE PUSH1 0x24 PUSH1 0x0 REVERT JUMPDEST POP JUMP JUMPDEST PUSH1 0x0 PUSH1 0x1 SLOAD SWAP1 POP SWAP1 JUMP JUMPDEST PUSH1 0x0 DUP2 CALLDATALOAD SWAP1 POP PUSH2 0x182 DUP2 PUSH2 0x36F JUMP JUMPDEST SWAP3 SWAP2 POP POP JUMP JUMPDEST PUSH1 0x0 PUSH1 0x20 DUP3 DUP5 SUB SLT ISZERO PUSH2 0x19A JUMPI PUSH1 0x0 DUP1 REVERT JUMPDEST PUSH1 0x0 PUSH2 0x1A8 DUP5 DUP3 DUP6 ADD PUSH2 0x173 JUMP JUMPDEST SWAP2 POP POP SWAP3 SWAP2 POP POP JUMP JUMPDEST PUSH1 0x0 PUSH2 0x1BE PUSH1 0x14 DUP4 PUSH2 0x29B JUMP JUMPDEST SWAP2 POP PUSH32 0x496E73756666696369656E74205469636B657473000000000000000000000000 PUSH1 0x0 DUP4 ADD MSTORE PUSH1 0x20 DUP3 ADD SWAP1 POP SWAP2 SWAP1 POP JUMP JUMPDEST PUSH1 0x0 PUSH2 0x1FE PUSH1 0x18 DUP4 PUSH2 0x29B JUMP JUMPDEST SWAP2 POP PUSH32 0x4C696D69746564205469636B657473206F6E6C79203130300000000000000000 PUSH1 0x0 DUP4 ADD MSTORE PUSH1 0x20 DUP3 ADD SWAP1 POP SWAP2 SWAP1 POP JUMP JUMPDEST PUSH2 0x23A DUP2 PUSH2 0x336 JUMP JUMPDEST DUP3 MSTORE POP POP JUMP JUMPDEST PUSH1 0x0 PUSH1 0x20 DUP3 ADD SWAP1 POP DUP2 DUP2 SUB PUSH1 0x0 DUP4 ADD MSTORE PUSH2 0x259 DUP2 PUSH2 0x1B1 JUMP JUMPDEST SWAP1 POP SWAP2 SWAP1 POP JUMP JUMPDEST PUSH1 0x0 PUSH1 0x20 DUP3 ADD SWAP1 POP DUP2 DUP2 SUB PUSH1 0x0 DUP4 ADD MSTORE PUSH2 0x279 DUP2 PUSH2 0x1F1 JUMP JUMPDEST SWAP1 POP SWAP2 SWAP1 POP JUMP JUMPDEST PUSH1 0x0 PUSH1 0x20 DUP3 ADD SWAP1 POP PUSH2 0x295 PUSH1 0x0 DUP4 ADD DUP5 PUSH2 0x231 JUMP JUMPDEST SWAP3 SWAP2 POP POP JUMP JUMPDEST PUSH1 0x0 DUP3 DUP3 MSTORE PUSH1 0x20 DUP3 ADD SWAP1 POP SWAP3 SWAP2 POP POP JUMP JUMPDEST PUSH1 0x0 PUSH2 0x2B7 DUP3 PUSH2 0x336 JUMP JUMPDEST SWAP2 POP PUSH2 0x2C2 DUP4 PUSH2 0x336 JUMP JUMPDEST SWAP3 POP DUP3 PUSH32 0xFFFFFFFFFFFFFFFFFFFFFFFFFFFFFFFFFFFFFFFFFFFFFFFFFFFFFFFFFFFFFFFF SUB DUP3 GT ISZERO PUSH2 0x2F7 JUMPI PUSH2 0x2F6 PUSH2 0x340 JUMP JUMPDEST JUMPDEST DUP3 DUP3 ADD SWAP1 POP SWAP3 SWAP2 POP POP JUMP JUMPDEST PUSH1 0x0 PUSH2 0x30D DUP3 PUSH2 0x336 JUMP JUMPDEST SWAP2 POP PUSH2 0x318 DUP4 PUSH2 0x336 JUMP JUMPDEST SWAP3 POP DUP3 DUP3 LT ISZERO PUSH2 0x32B JUMPI PUSH2 0x32A PUSH2 0x340 JUMP JUMPDEST JUMPDEST DUP3 DUP3 SUB SWAP1 POP SWAP3 SWAP2 POP POP JUMP JUMPDEST PUSH1 0x0 DUP2 SWAP1 POP SWAP2 SWAP1 POP JUMP JUMPDEST PUSH32 0x4E487B7100000000000000000000000000000000000000000000000000000000 PUSH1 0x0 MSTORE PUSH1 0x11 PUSH1 0x4 MSTORE PUSH1 0x24 PUSH1 0x0 REVERT JUMPDEST PUSH2 0x378 DUP2 PUSH2 0x336 JUMP JUMPDEST DUP2 EQ PUSH2 0x383 JUMPI PUSH1 0x0 DUP1 REVERT JUMPDEST POP JUMP INVALID LOG2 PUSH5 0x6970667358 0x22 SLT KECCAK256 DUP8 SWAP2 0xC7 SWAP12 0x4E SWAP5 PUSH31 0x6913AB5E87621039FE9CC5B09B15020ADCF5452AA7030F830064736F6C6343 STOP ADDMOD STOP STOP CALLER "
		},
		"gasEstimates": {
			"creation": {
				"codeDepositCost": "191200",
				"executionCost": "20238",
				"totalCost": "211438"
			},
			"external": {
				"Total_tickets_sold()": "1137",
				"book(uint256)": "infinite"
			}
		},
		"methodIdentifiers": {
			"Total_tickets_sold()": "aaba2089",
			"book(uint256)": "1116fd04"
		}
	},
	"abi": [
		{
			"inputs": [],
			"name": "Total_tickets_sold",
			"outputs": [
				{
					"internalType": "uint256",
					"name": "",
					"type": "uint256"
				}
			],
			"stateMutability": "view",
			"type": "function"
		},
		{
			"inputs": [
				{
					"internalType": "uint256",
					"name": "tickets",
					"type": "uint256"
				}
			],
			"name": "book",
			"outputs": [],
			"stateMutability": "nonpayable",
			"type": "function"
		}
	]
}